{
  "address": "0xc254a2B0CFB59D7FD48ae67eB36085F055b34c7E",
  "abi": [
    {
      "inputs": [
        {
          "internalType": "address",
          "name": "admin",
          "type": "address"
        }
      ],
      "stateMutability": "nonpayable",
      "type": "constructor"
    },
    {
      "anonymous": false,
      "inputs": [
        {
          "indexed": true,
          "internalType": "address",
          "name": "owner",
          "type": "address"
        },
        {
          "indexed": true,
          "internalType": "address",
          "name": "spender",
          "type": "address"
        },
        {
          "indexed": false,
          "internalType": "uint256",
          "name": "value",
          "type": "uint256"
        }
      ],
      "name": "Approval",
      "type": "event"
    },
    {
      "anonymous": false,
      "inputs": [
        {
          "indexed": true,
          "internalType": "bytes32",
          "name": "role",
          "type": "bytes32"
        },
        {
          "indexed": true,
          "internalType": "bytes32",
          "name": "previousAdminRole",
          "type": "bytes32"
        },
        {
          "indexed": true,
          "internalType": "bytes32",
          "name": "newAdminRole",
          "type": "bytes32"
        }
      ],
      "name": "RoleAdminChanged",
      "type": "event"
    },
    {
      "anonymous": false,
      "inputs": [
        {
          "indexed": true,
          "internalType": "bytes32",
          "name": "role",
          "type": "bytes32"
        },
        {
          "indexed": true,
          "internalType": "address",
          "name": "account",
          "type": "address"
        },
        {
          "indexed": true,
          "internalType": "address",
          "name": "sender",
          "type": "address"
        }
      ],
      "name": "RoleGranted",
      "type": "event"
    },
    {
      "anonymous": false,
      "inputs": [
        {
          "indexed": true,
          "internalType": "bytes32",
          "name": "role",
          "type": "bytes32"
        },
        {
          "indexed": true,
          "internalType": "address",
          "name": "account",
          "type": "address"
        },
        {
          "indexed": true,
          "internalType": "address",
          "name": "sender",
          "type": "address"
        }
      ],
      "name": "RoleRevoked",
      "type": "event"
    },
    {
      "anonymous": false,
      "inputs": [
        {
          "indexed": true,
          "internalType": "address",
          "name": "from",
          "type": "address"
        },
        {
          "indexed": true,
          "internalType": "address",
          "name": "to",
          "type": "address"
        },
        {
          "indexed": false,
          "internalType": "uint256",
          "name": "value",
          "type": "uint256"
        }
      ],
      "name": "Transfer",
      "type": "event"
    },
    {
      "inputs": [],
      "name": "BURNER_ROLE",
      "outputs": [
        {
          "internalType": "bytes32",
          "name": "",
          "type": "bytes32"
        }
      ],
      "stateMutability": "view",
      "type": "function"
    },
    {
      "inputs": [],
      "name": "DEFAULT_ADMIN_ROLE",
      "outputs": [
        {
          "internalType": "bytes32",
          "name": "",
          "type": "bytes32"
        }
      ],
      "stateMutability": "view",
      "type": "function"
    },
    {
      "inputs": [],
      "name": "MINTER_ROLE",
      "outputs": [
        {
          "internalType": "bytes32",
          "name": "",
          "type": "bytes32"
        }
      ],
      "stateMutability": "view",
      "type": "function"
    },
    {
      "inputs": [
        {
          "internalType": "address",
          "name": "owner",
          "type": "address"
        },
        {
          "internalType": "address",
          "name": "spender",
          "type": "address"
        }
      ],
      "name": "allowance",
      "outputs": [
        {
          "internalType": "uint256",
          "name": "",
          "type": "uint256"
        }
      ],
      "stateMutability": "view",
      "type": "function"
    },
    {
      "inputs": [
        {
          "internalType": "address",
          "name": "spender",
          "type": "address"
        },
        {
          "internalType": "uint256",
          "name": "amount",
          "type": "uint256"
        }
      ],
      "name": "approve",
      "outputs": [
        {
          "internalType": "bool",
          "name": "",
          "type": "bool"
        }
      ],
      "stateMutability": "nonpayable",
      "type": "function"
    },
    {
      "inputs": [
        {
          "internalType": "address",
          "name": "account",
          "type": "address"
        }
      ],
      "name": "balanceOf",
      "outputs": [
        {
          "internalType": "uint256",
          "name": "",
          "type": "uint256"
        }
      ],
      "stateMutability": "view",
      "type": "function"
    },
    {
      "inputs": [
        {
          "internalType": "address",
          "name": "from",
          "type": "address"
        },
        {
          "internalType": "uint256",
          "name": "amount",
          "type": "uint256"
        }
      ],
      "name": "burn",
      "outputs": [],
      "stateMutability": "nonpayable",
      "type": "function"
    },
    {
      "inputs": [],
      "name": "cap",
      "outputs": [
        {
          "internalType": "uint256",
          "name": "",
          "type": "uint256"
        }
      ],
      "stateMutability": "view",
      "type": "function"
    },
    {
      "inputs": [],
      "name": "decimals",
      "outputs": [
        {
          "internalType": "uint8",
          "name": "",
          "type": "uint8"
        }
      ],
      "stateMutability": "view",
      "type": "function"
    },
    {
      "inputs": [
        {
          "internalType": "address",
          "name": "spender",
          "type": "address"
        },
        {
          "internalType": "uint256",
          "name": "subtractedValue",
          "type": "uint256"
        }
      ],
      "name": "decreaseAllowance",
      "outputs": [
        {
          "internalType": "bool",
          "name": "",
          "type": "bool"
        }
      ],
      "stateMutability": "nonpayable",
      "type": "function"
    },
    {
      "inputs": [
        {
          "internalType": "bytes32",
          "name": "role",
          "type": "bytes32"
        }
      ],
      "name": "getRoleAdmin",
      "outputs": [
        {
          "internalType": "bytes32",
          "name": "",
          "type": "bytes32"
        }
      ],
      "stateMutability": "view",
      "type": "function"
    },
    {
      "inputs": [
        {
          "internalType": "bytes32",
          "name": "role",
          "type": "bytes32"
        },
        {
          "internalType": "uint256",
          "name": "index",
          "type": "uint256"
        }
      ],
      "name": "getRoleMember",
      "outputs": [
        {
          "internalType": "address",
          "name": "",
          "type": "address"
        }
      ],
      "stateMutability": "view",
      "type": "function"
    },
    {
      "inputs": [
        {
          "internalType": "bytes32",
          "name": "role",
          "type": "bytes32"
        }
      ],
      "name": "getRoleMemberCount",
      "outputs": [
        {
          "internalType": "uint256",
          "name": "",
          "type": "uint256"
        }
      ],
      "stateMutability": "view",
      "type": "function"
    },
    {
      "inputs": [
        {
          "internalType": "bytes32",
          "name": "role",
          "type": "bytes32"
        },
        {
          "internalType": "address",
          "name": "account",
          "type": "address"
        }
      ],
      "name": "grantRole",
      "outputs": [],
      "stateMutability": "nonpayable",
      "type": "function"
    },
    {
      "inputs": [
        {
          "internalType": "bytes32",
          "name": "role",
          "type": "bytes32"
        },
        {
          "internalType": "address",
          "name": "account",
          "type": "address"
        }
      ],
      "name": "hasRole",
      "outputs": [
        {
          "internalType": "bool",
          "name": "",
          "type": "bool"
        }
      ],
      "stateMutability": "view",
      "type": "function"
    },
    {
      "inputs": [
        {
          "internalType": "address",
          "name": "spender",
          "type": "address"
        },
        {
          "internalType": "uint256",
          "name": "addedValue",
          "type": "uint256"
        }
      ],
      "name": "increaseAllowance",
      "outputs": [
        {
          "internalType": "bool",
          "name": "",
          "type": "bool"
        }
      ],
      "stateMutability": "nonpayable",
      "type": "function"
    },
    {
      "inputs": [],
      "name": "initialized",
      "outputs": [
        {
          "internalType": "bool",
          "name": "",
          "type": "bool"
        }
      ],
      "stateMutability": "view",
      "type": "function"
    },
    {
      "inputs": [
        {
          "internalType": "address",
          "name": "to",
          "type": "address"
        },
        {
          "internalType": "uint256",
          "name": "amount",
          "type": "uint256"
        }
      ],
      "name": "mint",
      "outputs": [],
      "stateMutability": "nonpayable",
      "type": "function"
    },
    {
      "inputs": [],
      "name": "name",
      "outputs": [
        {
          "internalType": "string",
          "name": "",
          "type": "string"
        }
      ],
      "stateMutability": "view",
      "type": "function"
    },
    {
      "inputs": [
        {
          "internalType": "bytes32",
          "name": "role",
          "type": "bytes32"
        },
        {
          "internalType": "address",
          "name": "account",
          "type": "address"
        }
      ],
      "name": "renounceRole",
      "outputs": [],
      "stateMutability": "nonpayable",
      "type": "function"
    },
    {
      "inputs": [
        {
          "internalType": "bytes32",
          "name": "role",
          "type": "bytes32"
        },
        {
          "internalType": "address",
          "name": "account",
          "type": "address"
        }
      ],
      "name": "revokeRole",
      "outputs": [],
      "stateMutability": "nonpayable",
      "type": "function"
    },
    {
      "inputs": [
        {
          "internalType": "address",
          "name": "tradingStorage",
          "type": "address"
        },
        {
          "internalType": "address",
          "name": "nftRewards",
          "type": "address"
        },
        {
          "internalType": "address",
          "name": "referralRewards",
          "type": "address"
        },
        {
          "internalType": "address",
          "name": "trading",
          "type": "address"
        },
        {
          "internalType": "address",
          "name": "callbacks",
          "type": "address"
        },
        {
          "internalType": "address",
          "name": "vault",
          "type": "address"
        }
      ],
      "name": "setupRoles",
      "outputs": [],
      "stateMutability": "nonpayable",
      "type": "function"
    },
    {
      "inputs": [
        {
          "internalType": "bytes4",
          "name": "interfaceId",
          "type": "bytes4"
        }
      ],
      "name": "supportsInterface",
      "outputs": [
        {
          "internalType": "bool",
          "name": "",
          "type": "bool"
        }
      ],
      "stateMutability": "view",
      "type": "function"
    },
    {
      "inputs": [],
      "name": "symbol",
      "outputs": [
        {
          "internalType": "string",
          "name": "",
          "type": "string"
        }
      ],
      "stateMutability": "view",
      "type": "function"
    },
    {
      "inputs": [],
      "name": "totalSupply",
      "outputs": [
        {
          "internalType": "uint256",
          "name": "",
          "type": "uint256"
        }
      ],
      "stateMutability": "view",
      "type": "function"
    },
    {
      "inputs": [
        {
          "internalType": "address",
          "name": "to",
          "type": "address"
        },
        {
          "internalType": "uint256",
          "name": "amount",
          "type": "uint256"
        }
      ],
      "name": "transfer",
      "outputs": [
        {
          "internalType": "bool",
          "name": "",
          "type": "bool"
        }
      ],
      "stateMutability": "nonpayable",
      "type": "function"
    },
    {
      "inputs": [
        {
          "internalType": "address",
          "name": "from",
          "type": "address"
        },
        {
          "internalType": "address",
          "name": "to",
          "type": "address"
        },
        {
          "internalType": "uint256",
          "name": "amount",
          "type": "uint256"
        }
      ],
      "name": "transferFrom",
      "outputs": [
        {
          "internalType": "bool",
          "name": "",
          "type": "bool"
        }
      ],
      "stateMutability": "nonpayable",
      "type": "function"
    }
  ],
  "transactionHash": "0xbf79379c51abd6264bf87549b807da9efcdbb7783afdb64e4982662dba8dd4b9",
  "args": [
    "0xd7D1dCba2c678ee7e049BD55176354E7C5bBdcCA"
  ],
  "numDeployments": 1,
  "solcInputHash": "dd1c9a6f06b16183c255adfcaa08dfd0",
  "bytecode": "0x60a0346200040157620024e89081380390601f1991601f90838282011683019460018060401b0391848710838811176200030557808592604098895283396020948591810103126200040157516001600160a01b038116949085900362000401576200006a62000406565b91600b83526a05a796e63617320506572760ac1b858401526200008c62000406565b6005948582526407a504552560dc1b87830152845191838311620003055760039283546001978882811c92168015620003f6575b8b831014620003e05781858493116200038c575b508a9085831160011462000327576000926200031b575b505060001982861b1c191690871b1783555b8051938411620003055760049485548781811c91168015620002fa575b8a821014620002e5578381116200029c575b50889285116001146200022957509260069694928192620001b29a9997956000936200021d575b505082851b92600019911b1c19161790555b6a52b7d2dcc80cd2e400000060805260ff19918260075416600755600080528084528760002086600052845260ff88600020541615620001d1575b50505060008052528260002062000426565b50516120349081620004b4823960805181818161109701526113870152f35b600080528352866000208560005283528660002091825416179055338360007f2f8788117e7eff1d82e926ec794901d17c78024a50270940304540a733656f0d8180a4388080620001a0565b01519150388062000153565b6000868152898120949392918616905b8181106200028657509285926006999795928997620001b29d9c9a96106200026b575b50505050811b01905562000165565b01519060f884600019921b161c19169055388080806200025c565b82840151865594880194928a01928a0162000239565b8660005289600020848088018b1c8201928c8910620002db575b018a1c019088905b828110620002ce5750506200012c565b60008155018890620002be565b92508192620002b6565b602287634e487b7160e01b6000525260246000fd5b90607f16906200011a565b634e487b7160e01b600052604160045260246000fd5b015190503880620000eb565b90888a941691876000528c600020928d6000905b8282106200037457505084116200035b575b505050811b018355620000fd565b015160001983881b60f8161c191690553880806200034d565b8385015186558d979095019493840193018e6200033b565b909150856000528a600020858085018c1c8201928d8610620003d6575b918b9186959493018d1c01915b828110620003c6575050620000d4565b600081558594508b9101620003b6565b92508192620003a9565b634e487b7160e01b600052602260045260246000fd5b91607f1691620000c0565b600080fd5b60408051919082016001600160401b038111838210176200030557604052565b91906001830160009082825280602052604082205415600014620004ad57845494680100000000000000008610156200049957600186018082558610156200048557836040949596828552602085200155549382526020522055600190565b634e487b7160e01b83526032600452602483fd5b634e487b7160e01b83526041600452602483fd5b5092505056fe60808060405260048036101561001457600080fd5b60003560e01c91826301ffc9a7146117125750816306fdde031461161e578163095ea7b3146115f8578163158ef93e146115d557816318160ddd146115b757816323b872dd146114f6578163248a9ca3146114c9578163282c51f31461148e5781632f2ff15d146113c6578163313ce567146113aa578163355274ea1461136f57816336568abe146112d2578163395093511461128057816340c10f191461101957816370a0823114610fdf57816379065af4146108145781639010d07c146107d057816391d148541461078357816395d89b411461067e5781639dc29fac1461033f578163a217fddf14610323578163a457c2d714610265578163a9059cbb14610234578163ca15c8731461020a578163d5391393146101e1578163d547741f146101a1575063dd62ed3e1461014a57600080fd5b3461019c57604036600319011261019c576101636117cd565b61016b6117e3565b906001600160a01b038091166000526001602052604060002091166000526020526020604060002054604051908152f35b600080fd5b3461019c57604036600319011261019c576101df90356101bf6117e3565b908060005260056020526101da6001604060002001546117f9565b6119f1565b005b3461019c57600036600319011261019c5760206040516000805160206120088339815191528152f35b3461019c57602036600319011261019c573560005260066020526020604060002054604051908152f35b3461019c57604036600319011261019c5761025a6102506117cd565b6024359033611a9e565b602060405160018152f35b3461019c57604036600319011261019c5761027e6117cd565b60243533600052600160205260406000206001600160a01b0383166000526020526040600020548181106102b95761025a9350039033611c3b565b60405162461bcd60e51b8152602081860152602560248201527f45524332303a2064656372656173656420616c6c6f77616e63652062656c6f7760448201527f207a65726f0000000000000000000000000000000000000000000000000000006064820152608490fd5b3461019c57600036600319011261019c57602060405160008152f35b3461019c57604036600319011261019c576103586117cd565b9060248035907f3c11d16cbaffd01df69ce1c404f6340ee057498f5f00246190ea54220576a848938460005260209460058652604060002033600052865260ff60406000205416156104a957506001600160a01b031692831561045e57836000526000855260406000205491838310610410576000857fddf252ad1be2c89b69c2b068fc378daa952ba7f163c4a11628f55a4df523b3ef888780888587528684520360408620558060025403600255604051908152a3005b60405162461bcd60e51b81529182018690526022908201527f45524332303a206275726e20616d6f756e7420657863656564732062616c616e604482015261636560f01b6064820152608490fd5b6021608492866040519362461bcd60e51b85528401528201527f45524332303a206275726e2066726f6d20746865207a65726f206164647265736044820152607360f81b6064820152fd5b8486846104b533611ef8565b604051916104c28361199d565b6042835283830195606036883783511561066a5760308753835160019081101561065657607860218601536041905b8082116105eb5750506105aa5750916105499460489261057e61058d9560405198857f416363657373436f6e74726f6c3a206163636f756e74200000000000000000008b97880152825192839160378901910161177e565b8401917f206973206d697373696e6720726f6c652000000000000000000000000000000060378401525180938684019061177e565b010360288101855201836119cf565b6105a660405192839262461bcd60e51b845283016117a1565b0390fd5b8484606492816040519362461bcd60e51b85528401528201527f537472696e67733a20686578206c656e67746820696e73756666696369656e746044820152fd5b9091600f81166010811015610642576f181899199a1a9b1b9c1cb0b131b232b360811b901a61061a8488611ee7565b53871c91801561062e5760001901906104f1565b83601189634e487b7160e01b600052526000fd5b8460328a634e487b7160e01b600052526000fd5b82603288634e487b7160e01b600052526000fd5b50634e487b7160e01b600090815260328652fd5b3461019c57600036600319011261019c57604051600091805490600182811c91818416938415610779575b60209485851081146107645784875290811561074257506001146106e8575b6106e4856106d8818903826119cf565b604051918291826117a1565b0390f35b60009081529294507f8a35acfbc15ff81a39ae7d344fd709f28e8600b4aa8c65c6b64bfe7fe36bd19b5b82841061072f57505050816106e4936106d89282010193856106c8565b8054858501870152928501928101610712565b60ff191686860152505050151560051b82010191506106d8816106e4856106c8565b602283634e487b7160e01b6000525260246000fd5b92607f16926106a9565b3461019c57604036600319011261019c5761079c6117e3565b903560005260056020526001600160a01b0360406000209116600052602052602060ff604060002054166040519015158152f35b3461019c57604036600319011261019c5735600052600660205260206001600160a01b036108046024356040600020611d3d565b9190546040519260031b1c168152f35b3461019c5760c036600319011261019c5761082d6117cd565b906108366117e3565b6044356001600160a01b038116810361019c57606435916001600160a01b038316830361019c57608435946001600160a01b038616860361019c5760a435946001600160a01b038616860361019c573360009081527f05b8ccbb9d4d8fb16ea74ce3c29a41f1b461fbdaff4714a0d9a8eb05499746bc602052604090205460ff1615610e64576001600160a01b038216151580610e52575b80610e40575b80610e2e575b80610e1c575b80610e0a575b15610dc6576007549060ff8216610d8257506001600160a01b03809695610aa082610b1997610aa08298610a29846101df9f9a6001610aa09b60ff1916176007556000805160206120088339815191526000526005602052604060002082821660005260205260ff6040600020541615610c1f575b600080516020612008833981519152600052600660205261099e8183167f3195c024b2ddd6d9b8f6c836aa52f67fe69376c8903d009b80229b3ce4425f51611d6b565b5080821660009081527f847f481f687befb06ed3511f1a8dcef57e83007c0147ae5047583d7056170937602052604090205460ff1615610b96575b7f3c11d16cbaffd01df69ce1c404f6340ee057498f5f00246190ea54220576a8486000526006602052167f42d20fd6db25ea5a8e33f43724ad72f2ebd9488257fa78c86176b8175fc383fa611d6b565b50831660008181527f15a28d26fa1bf736cf7edc9922607171ccb09c3c73b808e7772a3013e068a522602052604090205460ff1615610d0d575b60008051602061200883398151915260005260066020527f3195c024b2ddd6d9b8f6c836aa52f67fe69376c8903d009b80229b3ce4425f51611d6b565b5080821660009081527f15a28d26fa1bf736cf7edc9922607171ccb09c3c73b808e7772a3013e068a522602052604090205460ff1615610c96575b6000805160206120088339815191526000526006602052167f3195c024b2ddd6d9b8f6c836aa52f67fe69376c8903d009b80229b3ce4425f51611d6b565b5080821660009081527f15a28d26fa1bf736cf7edc9922607171ccb09c3c73b808e7772a3013e068a522602052604090205460ff1615610c1f57600080516020612008833981519152600052600660205261099e8183167f3195c024b2ddd6d9b8f6c836aa52f67fe69376c8903d009b80229b3ce4425f51611d6b565b80821660008181527f847f481f687befb06ed3511f1a8dcef57e83007c0147ae5047583d705617093760205260408120805460ff191660011790553391907f3c11d16cbaffd01df69ce1c404f6340ee057498f5f00246190ea54220576a848907f2f8788117e7eff1d82e926ec794901d17c78024a50270940304540a733656f0d9080a46109d9565b80821660008181527f15a28d26fa1bf736cf7edc9922607171ccb09c3c73b808e7772a3013e068a52260205260408120805460ff19166001179055339190600080516020612008833981519152907f2f8788117e7eff1d82e926ec794901d17c78024a50270940304540a733656f0d9080a461095b565b80821660008181527f15a28d26fa1bf736cf7edc9922607171ccb09c3c73b808e7772a3013e068a52260205260408120805460ff19166001179055339190600080516020612008833981519152907f2f8788117e7eff1d82e926ec794901d17c78024a50270940304540a733656f0d9080a4610adb565b60008181527f15a28d26fa1bf736cf7edc9922607171ccb09c3c73b808e7772a3013e068a52260205260408120805460ff1916600117905533908290600080516020612008833981519152907f2f8788117e7eff1d82e926ec794901d17c78024a50270940304540a733656f0d9080a4610a63565b60649060206040519162461bcd60e51b8352820152600b60248201527f494e495449414c495a45440000000000000000000000000000000000000000006044820152fd5b60649060206040519162461bcd60e51b8352820152600f60248201527f57524f4e475f41444452455353455300000000000000000000000000000000006044820152fd5b506001600160a01b03861615156108e6565b506001600160a01b03871615156108e0565b506001600160a01b03851615156108da565b506001600160a01b03841615156108d4565b506001600160a01b03831615156108ce565b610e6d33611ef8565b906000604051610e7c8161199d565b6042815260208101916060368437815115610fca57603083538151600190811015610fb557607860218401536041905b808211610f48575050610f045761057e9361058d926048926040519687937f416363657373436f6e74726f6c3a206163636f756e7420000000000000000000602086015261054981518092602060378901910161177e565b60405162461bcd60e51b8152602081850181905260248201527f537472696e67733a20686578206c656e67746820696e73756666696369656e746044820152606490fd5b9091600f81166010811015610fa0576f181899199a1a9b1b9c1cb0b131b232b360811b901a610f778486611ee7565b53851c918015610f8b576000190190610eac565b601186634e487b7160e01b6000525260246000fd5b603287634e487b7160e01b6000525260246000fd5b603285634e487b7160e01b6000525260246000fd5b603284634e487b7160e01b6000525260246000fd5b3461019c57602036600319011261019c576001600160a01b036110006117cd565b1660005260006020526020604060002054604051908152f35b3461019c57604036600319011261019c576110326117cd565b3360009081527f15a28d26fa1bf736cf7edc9922607171ccb09c3c73b808e7772a3013e068a5226020908152604090912054602493919284359290916000805160206120088339815191529060ff161561119d5750600254916110958484611a7b565b7f00000000000000000000000000000000000000000000000000000000000000001061115a576001600160a01b0316948515611117578560007fddf252ad1be2c89b69c2b068fc378daa952ba7f163c4a11628f55a4df523b3ef87876110fb8189611a7b565b60025584845283825260408420818154019055604051908152a3005b60405162461bcd60e51b8152918201859052601f908201527f45524332303a206d696e7420746f20746865207a65726f2061646472657373006044820152606490fd5b60405162461bcd60e51b81528083018690526019818801527f45524332304361707065643a20636170206578636565646564000000000000006044820152606490fd5b9084866111a933611ef8565b604051916111b68361199d565b6042835283830195606036883783511561066a5760308753835160019081101561065657607860218601536041905b80821161123d5750506105aa5750916105499460489261057e61058d9560405198857f416363657373436f6e74726f6c3a206163636f756e74200000000000000000008b97880152825192839160378901910161177e565b9091600f81166010811015610642576f181899199a1a9b1b9c1cb0b131b232b360811b901a61126c8488611ee7565b53871c91801561062e5760001901906111e5565b3461019c57604036600319011261019c5761025a61129c6117cd565b33600052600160205260406000206001600160a01b0382166000526020526112cb602435604060002054611a7b565b9033611c3b565b3461019c57604036600319011261019c576112eb6117e3565b336001600160a01b03821603611305576101df91356119f1565b60405162461bcd60e51b8152602081840152602f60248201527f416363657373436f6e74726f6c3a2063616e206f6e6c792072656e6f756e636560448201527f20726f6c657320666f722073656c6600000000000000000000000000000000006064820152608490fd5b3461019c57600036600319011261019c5760206040517f00000000000000000000000000000000000000000000000000000000000000008152f35b3461019c57600036600319011261019c57602060405160128152f35b3461019c57604036600319011261019c576101df903560066113e66117e3565b9180600052602090600582526114036001604060002001546117f9565b80600052600582526001600160a01b03604060002094169384600052825260ff604060002054161561143e575b600052526040600020611d6b565b806000526005825260406000208460005282526040600020600160ff198254161790553384827f2f8788117e7eff1d82e926ec794901d17c78024a50270940304540a733656f0d600080a4611430565b3461019c57600036600319011261019c5760206040517f3c11d16cbaffd01df69ce1c404f6340ee057498f5f00246190ea54220576a8488152f35b3461019c57602036600319011261019c573560005260056020526020600160406000200154604051908152f35b3461019c57606036600319011261019c5761150f6117cd565b6115176117e3565b604435916001600160a01b0381166000526001602052604060002033600052602052604060002054936000198503611555575b5061025a9350611a9e565b838510611573575061156d8361025a95033383611c3b565b8461154a565b60649060206040519162461bcd60e51b8352820152601d60248201527f45524332303a20696e73756666696369656e7420616c6c6f77616e63650000006044820152fd5b3461019c57600036600319011261019c576020600254604051908152f35b3461019c57600036600319011261019c57602060ff600754166040519015158152f35b3461019c57604036600319011261019c5761025a6116146117cd565b6024359033611c3b565b3461019c57600036600319011261019c57604051600091600354600181811c918181168015611708575b60209485851082146116f357508386529081156116d35750600114611678575b6106e4846106d8818803826119cf565b600360009081529294507fc2575a0e9e593c00f959f8c92f12db2869c3395a3b0502d05e2516446f71f85b5b8284106116c057505050816106e4936106d89282010193611668565b80548585018701529285019281016116a4565b60ff1916858501525050151560051b82010191506106d8816106e4611668565b602290634e487b7160e01b6000525260246000fd5b92607f1692611648565b903461019c57602036600319011261019c57359063ffffffff60e01b821680920361019c57602091635a05180f60e01b8114908115611753575b5015158152f35b637965db0b60e01b81149150811561176d575b508361174c565b6301ffc9a760e01b14905083611766565b60005b8381106117915750506000910152565b8181015183820152602001611781565b604091602082526117c1815180928160208601526020868601910161177e565b601f01601f1916010190565b600435906001600160a01b038216820361019c57565b602435906001600160a01b038216820361019c57565b600081815260209060058252604092838220338352835260ff8483205416156118225750505050565b61182b33611ef8565b8451916118378361199d565b6042835284830193606036863783511561198957603085538351906001918210156119895790607860218601536041915b81831161191b575050506118d9576105499385936118c39361057e6048946105a6995198857f416363657373436f6e74726f6c3a206163636f756e74200000000000000000008b97880152825192839160378901910161177e565b5162461bcd60e51b8152918291600483016117a1565b60648486519062461bcd60e51b825280600483015260248201527f537472696e67733a20686578206c656e67746820696e73756666696369656e746044820152fd5b909192600f81166010811015611975576f181899199a1a9b1b9c1cb0b131b232b360811b901a61194b8588611ee7565b5360041c92801561196157600019019190611868565b634e487b7160e01b82526011600452602482fd5b634e487b7160e01b83526032600452602483fd5b634e487b7160e01b81526032600452602490fd5b6080810190811067ffffffffffffffff8211176119b957604052565b634e487b7160e01b600052604160045260246000fd5b90601f8019910116810190811067ffffffffffffffff8211176119b957604052565b906040611a309260009080825260056020526001600160a01b0383832094169384835260205260ff8383205416611a33575b8152600660205220611df7565b50565b808252600560205282822084835260205282822060ff1981541690553384827ff6391f5c32d9c69d2a47ea670b442974b53935d1edc7fd64eb21e047a839171b8580a4611a23565b91908201809211611a8857565b634e487b7160e01b600052601160045260246000fd5b6001600160a01b03809116918215611bd05716918215611b7f57600082815280602052604081205491808310611b1457604082827fddf252ad1be2c89b69c2b068fc378daa952ba7f163c4a11628f55a4df523b3ef958760209652828652038282205586815220818154019055604051908152a3565b60405162461bcd60e51b815260206004820152602660248201527f45524332303a207472616e7366657220616d6f756e742065786365656473206260448201527f616c616e636500000000000000000000000000000000000000000000000000006064820152608490fd5b60405162461bcd60e51b815260206004820152602360248201527f45524332303a207472616e7366657220746f20746865207a65726f206164647260448201526265737360e81b6064820152608490fd5b60405162461bcd60e51b815260206004820152602560248201527f45524332303a207472616e736665722066726f6d20746865207a65726f20616460448201527f64726573730000000000000000000000000000000000000000000000000000006064820152608490fd5b6001600160a01b03809116918215611cec5716918215611c9c5760207f8c5be1e5ebec7d5bd14f71427d1e84f3dd0314c0f7b2291e5b200ac8c7c3b925918360005260018252604060002085600052825280604060002055604051908152a3565b60405162461bcd60e51b815260206004820152602260248201527f45524332303a20617070726f766520746f20746865207a65726f206164647265604482015261737360f01b6064820152608490fd5b60405162461bcd60e51b8152602060048201526024808201527f45524332303a20617070726f76652066726f6d20746865207a65726f206164646044820152637265737360e01b6064820152608490fd5b8054821015611d555760005260206000200190600090565b634e487b7160e01b600052603260045260246000fd5b91906001830160009082825280602052604082205415600014611df15784549468010000000000000000861015611ddd5783611dcd611db4886001604098999a01855584611d3d565b819391549060031b600019811b9283911b169119161790565b9055549382526020522055600190565b634e487b7160e01b83526041600452602483fd5b50925050565b90600182019060009281845282602052604084205490811515600014611ee05760001991808301818111611ecc57825490848201918211611eb857808203611e83575b50505080548015611e6f57820191611e528383611d3d565b909182549160031b1b191690555582526020526040812055600190565b634e487b7160e01b86526031600452602486fd5b611ea3611e93611db49386611d3d565b90549060031b1c92839286611d3d565b90558652846020526040862055388080611e3a565b634e487b7160e01b88526011600452602488fd5b634e487b7160e01b87526011600452602487fd5b5050505090565b908151811015611d55570160200190565b604051906060820182811067ffffffffffffffff8211176119b957604052602a8252602082016040368237825115611d5557603090538151600190811015611d5557607860218401536029905b808211611f99575050611f555790565b606460405162461bcd60e51b815260206004820152602060248201527f537472696e67733a20686578206c656e67746820696e73756666696369656e746044820152fd5b9091600f81166010811015611ff2576f181899199a1a9b1b9c1cb0b131b232b360811b901a611fc88486611ee7565b5360041c918015611fdd576000190190611f45565b60246000634e487b7160e01b81526011600452fd5b60246000634e487b7160e01b81526032600452fdfe9f2df0fed2c77648de5860a4cc508cd0818c85b8b8a1ab4ceeef8d981c8956a6a164736f6c6343000811000a",
  "libraries": {},
  "devdoc": {
    "kind": "dev",
    "methods": {
      "allowance(address,address)": {
        "details": "See {IERC20-allowance}."
      },
      "approve(address,uint256)": {
        "details": "See {IERC20-approve}. NOTE: If `amount` is the maximum `uint256`, the allowance is not updated on `transferFrom`. This is semantically equivalent to an infinite approval. Requirements: - `spender` cannot be the zero address."
      },
      "balanceOf(address)": {
        "details": "See {IERC20-balanceOf}."
      },
      "cap()": {
        "details": "Returns the cap on the token's total supply."
      },
      "decimals()": {
        "details": "Returns the number of decimals used to get its user representation. For example, if `decimals` equals `2`, a balance of `505` tokens should be displayed to a user as `5.05` (`505 / 10 ** 2`). Tokens usually opt for a value of 18, imitating the relationship between Ether and Wei. This is the value {ERC20} uses, unless this function is overridden; NOTE: This information is only used for _display_ purposes: it in no way affects any of the arithmetic of the contract, including {IERC20-balanceOf} and {IERC20-transfer}."
      },
      "decreaseAllowance(address,uint256)": {
        "details": "Atomically decreases the allowance granted to `spender` by the caller. This is an alternative to {approve} that can be used as a mitigation for problems described in {IERC20-approve}. Emits an {Approval} event indicating the updated allowance. Requirements: - `spender` cannot be the zero address. - `spender` must have allowance for the caller of at least `subtractedValue`."
      },
      "getRoleAdmin(bytes32)": {
        "details": "Returns the admin role that controls `role`. See {grantRole} and {revokeRole}. To change a role's admin, use {_setRoleAdmin}."
      },
      "getRoleMember(bytes32,uint256)": {
        "details": "Returns one of the accounts that have `role`. `index` must be a value between 0 and {getRoleMemberCount}, non-inclusive. Role bearers are not sorted in any particular way, and their ordering may change at any point. WARNING: When using {getRoleMember} and {getRoleMemberCount}, make sure you perform all queries on the same block. See the following https://forum.openzeppelin.com/t/iterating-over-elements-on-enumerableset-in-openzeppelin-contracts/2296[forum post] for more information."
      },
      "getRoleMemberCount(bytes32)": {
        "details": "Returns the number of accounts that have `role`. Can be used together with {getRoleMember} to enumerate all bearers of a role."
      },
      "grantRole(bytes32,address)": {
        "details": "Grants `role` to `account`. If `account` had not been already granted `role`, emits a {RoleGranted} event. Requirements: - the caller must have ``role``'s admin role. May emit a {RoleGranted} event."
      },
      "hasRole(bytes32,address)": {
        "details": "Returns `true` if `account` has been granted `role`."
      },
      "increaseAllowance(address,uint256)": {
        "details": "Atomically increases the allowance granted to `spender` by the caller. This is an alternative to {approve} that can be used as a mitigation for problems described in {IERC20-approve}. Emits an {Approval} event indicating the updated allowance. Requirements: - `spender` cannot be the zero address."
      },
      "name()": {
        "details": "Returns the name of the token."
      },
      "renounceRole(bytes32,address)": {
        "details": "Revokes `role` from the calling account. Roles are often managed via {grantRole} and {revokeRole}: this function's purpose is to provide a mechanism for accounts to lose their privileges if they are compromised (such as when a trusted device is misplaced). If the calling account had been revoked `role`, emits a {RoleRevoked} event. Requirements: - the caller must be `account`. May emit a {RoleRevoked} event."
      },
      "revokeRole(bytes32,address)": {
        "details": "Revokes `role` from `account`. If `account` had been granted `role`, emits a {RoleRevoked} event. Requirements: - the caller must have ``role``'s admin role. May emit a {RoleRevoked} event."
      },
      "supportsInterface(bytes4)": {
        "details": "See {IERC165-supportsInterface}."
      },
      "symbol()": {
        "details": "Returns the symbol of the token, usually a shorter version of the name."
      },
      "totalSupply()": {
        "details": "See {IERC20-totalSupply}."
      },
      "transfer(address,uint256)": {
        "details": "See {IERC20-transfer}. Requirements: - `to` cannot be the zero address. - the caller must have a balance of at least `amount`."
      },
      "transferFrom(address,address,uint256)": {
        "details": "See {IERC20-transferFrom}. Emits an {Approval} event indicating the updated allowance. This is not required by the EIP. See the note at the beginning of {ERC20}. NOTE: Does not update the allowance if the current allowance is the maximum `uint256`. Requirements: - `from` and `to` cannot be the zero address. - `from` must have a balance of at least `amount`. - the caller must have allowance for ``from``'s tokens of at least `amount`."
      }
    },
    "version": 1
  },
  "userdoc": {
    "kind": "user",
    "methods": {},
    "version": 1
  },
  "storageLayout": {
    "storage": [
      {
        "astId": 7621,
        "contract": "contracts/contracts/GNS.sol:GainsNetworkToken",
        "label": "_balances",
        "offset": 0,
        "slot": "0",
        "type": "t_mapping(t_address,t_uint256)"
      },
      {
        "astId": 7627,
        "contract": "contracts/contracts/GNS.sol:GainsNetworkToken",
        "label": "_allowances",
        "offset": 0,
        "slot": "1",
        "type": "t_mapping(t_address,t_mapping(t_address,t_uint256))"
      },
      {
        "astId": 7629,
        "contract": "contracts/contracts/GNS.sol:GainsNetworkToken",
        "label": "_totalSupply",
        "offset": 0,
        "slot": "2",
        "type": "t_uint256"
      },
      {
        "astId": 7631,
        "contract": "contracts/contracts/GNS.sol:GainsNetworkToken",
        "label": "_name",
        "offset": 0,
        "slot": "3",
        "type": "t_string_storage"
      },
      {
        "astId": 7633,
        "contract": "contracts/contracts/GNS.sol:GainsNetworkToken",
        "label": "_symbol",
        "offset": 0,
        "slot": "4",
        "type": "t_string_storage"
      },
      {
        "astId": 7189,
        "contract": "contracts/contracts/GNS.sol:GainsNetworkToken",
        "label": "_roles",
        "offset": 0,
        "slot": "5",
        "type": "t_mapping(t_bytes32,t_struct(RoleData)7184_storage)"
      },
      {
        "astId": 7499,
        "contract": "contracts/contracts/GNS.sol:GainsNetworkToken",
        "label": "_roleMembers",
        "offset": 0,
        "slot": "6",
        "type": "t_mapping(t_bytes32,t_struct(AddressSet)35537_storage)"
      },
      {
        "astId": 10701,
        "contract": "contracts/contracts/GNS.sol:GainsNetworkToken",
        "label": "initialized",
        "offset": 0,
        "slot": "7",
        "type": "t_bool"
      }
    ],
    "types": {
      "t_address": {
        "encoding": "inplace",
        "label": "address",
        "numberOfBytes": "20"
      },
      "t_array(t_bytes32)dyn_storage": {
        "base": "t_bytes32",
        "encoding": "dynamic_array",
        "label": "bytes32[]",
        "numberOfBytes": "32"
      },
      "t_bool": {
        "encoding": "inplace",
        "label": "bool",
        "numberOfBytes": "1"
      },
      "t_bytes32": {
        "encoding": "inplace",
        "label": "bytes32",
        "numberOfBytes": "32"
      },
      "t_mapping(t_address,t_bool)": {
        "encoding": "mapping",
        "key": "t_address",
        "label": "mapping(address => bool)",
        "numberOfBytes": "32",
        "value": "t_bool"
      },
      "t_mapping(t_address,t_mapping(t_address,t_uint256))": {
        "encoding": "mapping",
        "key": "t_address",
        "label": "mapping(address => mapping(address => uint256))",
        "numberOfBytes": "32",
        "value": "t_mapping(t_address,t_uint256)"
      },
      "t_mapping(t_address,t_uint256)": {
        "encoding": "mapping",
        "key": "t_address",
        "label": "mapping(address => uint256)",
        "numberOfBytes": "32",
        "value": "t_uint256"
      },
      "t_mapping(t_bytes32,t_struct(AddressSet)35537_storage)": {
        "encoding": "mapping",
        "key": "t_bytes32",
        "label": "mapping(bytes32 => struct EnumerableSet.AddressSet)",
        "numberOfBytes": "32",
        "value": "t_struct(AddressSet)35537_storage"
      },
      "t_mapping(t_bytes32,t_struct(RoleData)7184_storage)": {
        "encoding": "mapping",
        "key": "t_bytes32",
        "label": "mapping(bytes32 => struct AccessControl.RoleData)",
        "numberOfBytes": "32",
        "value": "t_struct(RoleData)7184_storage"
      },
      "t_mapping(t_bytes32,t_uint256)": {
        "encoding": "mapping",
        "key": "t_bytes32",
        "label": "mapping(bytes32 => uint256)",
        "numberOfBytes": "32",
        "value": "t_uint256"
      },
      "t_string_storage": {
        "encoding": "bytes",
        "label": "string",
        "numberOfBytes": "32"
      },
      "t_struct(AddressSet)35537_storage": {
        "encoding": "inplace",
        "label": "struct EnumerableSet.AddressSet",
        "members": [
          {
            "astId": 35536,
            "contract": "contracts/contracts/GNS.sol:GainsNetworkToken",
            "label": "_inner",
            "offset": 0,
            "slot": "0",
            "type": "t_struct(Set)35222_storage"
          }
        ],
        "numberOfBytes": "64"
      },
      "t_struct(RoleData)7184_storage": {
        "encoding": "inplace",
        "label": "struct AccessControl.RoleData",
        "members": [
          {
            "astId": 7181,
            "contract": "contracts/contracts/GNS.sol:GainsNetworkToken",
            "label": "members",
            "offset": 0,
            "slot": "0",
            "type": "t_mapping(t_address,t_bool)"
          },
          {
            "astId": 7183,
            "contract": "contracts/contracts/GNS.sol:GainsNetworkToken",
            "label": "adminRole",
            "offset": 0,
            "slot": "1",
            "type": "t_bytes32"
          }
        ],
        "numberOfBytes": "64"
      },
      "t_struct(Set)35222_storage": {
        "encoding": "inplace",
        "label": "struct EnumerableSet.Set",
        "members": [
          {
            "astId": 35217,
            "contract": "contracts/contracts/GNS.sol:GainsNetworkToken",
            "label": "_values",
            "offset": 0,
            "slot": "0",
            "type": "t_array(t_bytes32)dyn_storage"
          },
          {
            "astId": 35221,
            "contract": "contracts/contracts/GNS.sol:GainsNetworkToken",
            "label": "_indexes",
            "offset": 0,
            "slot": "1",
            "type": "t_mapping(t_bytes32,t_uint256)"
          }
        ],
        "numberOfBytes": "64"
      },
      "t_uint256": {
        "encoding": "inplace",
        "label": "uint256",
        "numberOfBytes": "32"
      }
    }
  }
}