{
  "address": "0x981ec126B2Ff4A078B99EBB0d345752F4Da0A954",
  "abi": [
    {
      "inputs": [
        {
          "internalType": "address",
          "name": "_linkToken",
          "type": "address"
        },
        {
          "internalType": "contract IUniswapV3Pool",
          "name": "_tokenDaiLp",
          "type": "address"
        },
        {
          "internalType": "uint32",
          "name": "_twapInterval",
          "type": "uint32"
        },
        {
          "internalType": "contract StorageInterfaceV5",
          "name": "_storageT",
          "type": "address"
        },
        {
          "internalType": "contract PairsStorageInterfaceV6",
          "name": "_pairsStorage",
          "type": "address"
        },
        {
          "internalType": "contract ChainlinkFeedInterfaceV5",
          "name": "_linkPriceFeed",
          "type": "address"
        },
        {
          "internalType": "uint256",
          "name": "_minAnswers",
          "type": "uint256"
        },
        {
          "internalType": "address[]",
          "name": "_nodes",
          "type": "address[]"
        },
        {
          "internalType": "bytes32[2]",
          "name": "_jobIds",
          "type": "bytes32[2]"
        }
      ],
      "stateMutability": "nonpayable",
      "type": "constructor"
    },
    {
      "anonymous": false,
      "inputs": [
        {
          "components": [
            {
              "internalType": "uint256",
              "name": "orderId",
              "type": "uint256"
            },
            {
              "internalType": "uint256",
              "name": "price",
              "type": "uint256"
            },
            {
              "internalType": "uint256",
              "name": "spreadP",
              "type": "uint256"
            },
            {
              "internalType": "uint256",
              "name": "open",
              "type": "uint256"
            },
            {
              "internalType": "uint256",
              "name": "high",
              "type": "uint256"
            },
            {
              "internalType": "uint256",
              "name": "low",
              "type": "uint256"
            }
          ],
          "indexed": false,
          "internalType": "struct CallbacksInterfaceV6_4.AggregatorAnswer",
          "name": "a",
          "type": "tuple"
        },
        {
          "indexed": false,
          "internalType": "enum GNSPriceAggregatorV6_4.OrderType",
          "name": "orderType",
          "type": "uint8"
        }
      ],
      "name": "CallbackExecuted",
      "type": "event"
    },
    {
      "anonymous": false,
      "inputs": [
        {
          "indexed": true,
          "internalType": "bytes32",
          "name": "id",
          "type": "bytes32"
        }
      ],
      "name": "ChainlinkCancelled",
      "type": "event"
    },
    {
      "anonymous": false,
      "inputs": [
        {
          "indexed": true,
          "internalType": "bytes32",
          "name": "id",
          "type": "bytes32"
        }
      ],
      "name": "ChainlinkFulfilled",
      "type": "event"
    },
    {
      "anonymous": false,
      "inputs": [
        {
          "indexed": true,
          "internalType": "bytes32",
          "name": "id",
          "type": "bytes32"
        }
      ],
      "name": "ChainlinkRequested",
      "type": "event"
    },
    {
      "anonymous": false,
      "inputs": [
        {
          "indexed": false,
          "internalType": "uint256",
          "name": "index",
          "type": "uint256"
        },
        {
          "indexed": false,
          "internalType": "bytes32",
          "name": "jobId",
          "type": "bytes32"
        }
      ],
      "name": "JobIdUpdated",
      "type": "event"
    },
    {
      "anonymous": false,
      "inputs": [
        {
          "indexed": false,
          "internalType": "address",
          "name": "value",
          "type": "address"
        }
      ],
      "name": "LinkPriceFeedUpdated",
      "type": "event"
    },
    {
      "anonymous": false,
      "inputs": [
        {
          "indexed": false,
          "internalType": "uint256",
          "name": "value",
          "type": "uint256"
        }
      ],
      "name": "MinAnswersUpdated",
      "type": "event"
    },
    {
      "anonymous": false,
      "inputs": [
        {
          "indexed": false,
          "internalType": "uint256",
          "name": "index",
          "type": "uint256"
        },
        {
          "indexed": false,
          "internalType": "address",
          "name": "value",
          "type": "address"
        }
      ],
      "name": "NodeAdded",
      "type": "event"
    },
    {
      "anonymous": false,
      "inputs": [
        {
          "indexed": false,
          "internalType": "uint256",
          "name": "index",
          "type": "uint256"
        },
        {
          "indexed": false,
          "internalType": "address",
          "name": "oldNode",
          "type": "address"
        }
      ],
      "name": "NodeRemoved",
      "type": "event"
    },
    {
      "anonymous": false,
      "inputs": [
        {
          "indexed": false,
          "internalType": "uint256",
          "name": "index",
          "type": "uint256"
        },
        {
          "indexed": false,
          "internalType": "address",
          "name": "oldNode",
          "type": "address"
        },
        {
          "indexed": false,
          "internalType": "address",
          "name": "newNode",
          "type": "address"
        }
      ],
      "name": "NodeReplaced",
      "type": "event"
    },
    {
      "anonymous": false,
      "inputs": [
        {
          "indexed": false,
          "internalType": "address",
          "name": "value",
          "type": "address"
        }
      ],
      "name": "PairsStorageUpdated",
      "type": "event"
    },
    {
      "anonymous": false,
      "inputs": [
        {
          "indexed": false,
          "internalType": "bytes32",
          "name": "request",
          "type": "bytes32"
        },
        {
          "indexed": true,
          "internalType": "uint256",
          "name": "orderId",
          "type": "uint256"
        },
        {
          "indexed": true,
          "internalType": "address",
          "name": "node",
          "type": "address"
        },
        {
          "indexed": true,
          "internalType": "uint16",
          "name": "pairIndex",
          "type": "uint16"
        },
        {
          "indexed": false,
          "internalType": "uint256",
          "name": "price",
          "type": "uint256"
        },
        {
          "indexed": false,
          "internalType": "uint256",
          "name": "referencePrice",
          "type": "uint256"
        },
        {
          "indexed": false,
          "internalType": "uint112",
          "name": "linkFee",
          "type": "uint112"
        },
        {
          "indexed": false,
          "internalType": "bool",
          "name": "isLookback",
          "type": "bool"
        },
        {
          "indexed": false,
          "internalType": "bool",
          "name": "usedInMedian",
          "type": "bool"
        }
      ],
      "name": "PriceReceived",
      "type": "event"
    },
    {
      "anonymous": false,
      "inputs": [
        {
          "indexed": true,
          "internalType": "uint256",
          "name": "orderId",
          "type": "uint256"
        },
        {
          "indexed": true,
          "internalType": "bytes32",
          "name": "job",
          "type": "bytes32"
        },
        {
          "indexed": true,
          "internalType": "uint256",
          "name": "pairIndex",
          "type": "uint256"
        },
        {
          "indexed": false,
          "internalType": "enum GNSPriceAggregatorV6_4.OrderType",
          "name": "orderType",
          "type": "uint8"
        },
        {
          "indexed": false,
          "internalType": "uint256",
          "name": "nodesCount",
          "type": "uint256"
        },
        {
          "indexed": false,
          "internalType": "uint256",
          "name": "linkFeePerNode",
          "type": "uint256"
        },
        {
          "indexed": false,
          "internalType": "uint256",
          "name": "fromBlock",
          "type": "uint256"
        },
        {
          "indexed": false,
          "internalType": "bool",
          "name": "isLookback",
          "type": "bool"
        }
      ],
      "name": "PriceRequested",
      "type": "event"
    },
    {
      "anonymous": false,
      "inputs": [
        {
          "indexed": false,
          "internalType": "uint32",
          "name": "newValue",
          "type": "uint32"
        }
      ],
      "name": "TwapIntervalUpdated",
      "type": "event"
    },
    {
      "anonymous": false,
      "inputs": [
        {
          "indexed": false,
          "internalType": "contract IUniswapV3Pool",
          "name": "newValue",
          "type": "address"
        }
      ],
      "name": "UniV3PoolUpdated",
      "type": "event"
    },
    {
      "inputs": [
        {
          "internalType": "address",
          "name": "a",
          "type": "address"
        }
      ],
      "name": "addNode",
      "outputs": [],
      "stateMutability": "nonpayable",
      "type": "function"
    },
    {
      "inputs": [],
      "name": "claimBackLink",
      "outputs": [],
      "stateMutability": "nonpayable",
      "type": "function"
    },
    {
      "inputs": [
        {
          "internalType": "bytes32",
          "name": "requestId",
          "type": "bytes32"
        },
        {
          "internalType": "uint256",
          "name": "priceData",
          "type": "uint256"
        }
      ],
      "name": "fulfill",
      "outputs": [],
      "stateMutability": "nonpayable",
      "type": "function"
    },
    {
      "inputs": [
        {
          "internalType": "uint256",
          "name": "pairIndex",
          "type": "uint256"
        },
        {
          "internalType": "enum GNSPriceAggregatorV6_4.OrderType",
          "name": "orderType",
          "type": "uint8"
        },
        {
          "internalType": "uint256",
          "name": "leveragedPosDai",
          "type": "uint256"
        },
        {
          "internalType": "uint256",
          "name": "fromBlock",
          "type": "uint256"
        }
      ],
      "name": "getPrice",
      "outputs": [
        {
          "internalType": "uint256",
          "name": "",
          "type": "uint256"
        }
      ],
      "stateMutability": "nonpayable",
      "type": "function"
    },
    {
      "inputs": [],
      "name": "isGnsToken0InLp",
      "outputs": [
        {
          "internalType": "bool",
          "name": "",
          "type": "bool"
        }
      ],
      "stateMutability": "view",
      "type": "function"
    },
    {
      "inputs": [
        {
          "internalType": "uint256",
          "name": "",
          "type": "uint256"
        }
      ],
      "name": "jobIds",
      "outputs": [
        {
          "internalType": "bytes32",
          "name": "",
          "type": "bytes32"
        }
      ],
      "stateMutability": "view",
      "type": "function"
    },
    {
      "inputs": [
        {
          "internalType": "uint256",
          "name": "pairIndex",
          "type": "uint256"
        },
        {
          "internalType": "uint256",
          "name": "leveragedPosDai",
          "type": "uint256"
        }
      ],
      "name": "linkFee",
      "outputs": [
        {
          "internalType": "uint256",
          "name": "",
          "type": "uint256"
        }
      ],
      "stateMutability": "view",
      "type": "function"
    },
    {
      "inputs": [],
      "name": "linkPriceFeed",
      "outputs": [
        {
          "internalType": "contract ChainlinkFeedInterfaceV5",
          "name": "",
          "type": "address"
        }
      ],
      "stateMutability": "view",
      "type": "function"
    },
    {
      "inputs": [
        {
          "internalType": "uint256",
          "name": "",
          "type": "uint256"
        },
        {
          "internalType": "uint256",
          "name": "",
          "type": "uint256"
        }
      ],
      "name": "lookbackOrderAnswers",
      "outputs": [
        {
          "internalType": "uint64",
          "name": "open",
          "type": "uint64"
        },
        {
          "internalType": "uint64",
          "name": "high",
          "type": "uint64"
        },
        {
          "internalType": "uint64",
          "name": "low",
          "type": "uint64"
        },
        {
          "internalType": "uint64",
          "name": "ts",
          "type": "uint64"
        }
      ],
      "stateMutability": "view",
      "type": "function"
    },
    {
      "inputs": [],
      "name": "minAnswers",
      "outputs": [
        {
          "internalType": "uint256",
          "name": "",
          "type": "uint256"
        }
      ],
      "stateMutability": "view",
      "type": "function"
    },
    {
      "inputs": [
        {
          "internalType": "uint256",
          "name": "",
          "type": "uint256"
        }
      ],
      "name": "nodes",
      "outputs": [
        {
          "internalType": "address",
          "name": "",
          "type": "address"
        }
      ],
      "stateMutability": "view",
      "type": "function"
    },
    {
      "inputs": [
        {
          "internalType": "uint256",
          "name": "pairIndex",
          "type": "uint256"
        }
      ],
      "name": "openFeeP",
      "outputs": [
        {
          "internalType": "uint256",
          "name": "",
          "type": "uint256"
        }
      ],
      "stateMutability": "view",
      "type": "function"
    },
    {
      "inputs": [
        {
          "internalType": "bytes32",
          "name": "",
          "type": "bytes32"
        }
      ],
      "name": "orderIdByRequest",
      "outputs": [
        {
          "internalType": "uint256",
          "name": "",
          "type": "uint256"
        }
      ],
      "stateMutability": "view",
      "type": "function"
    },
    {
      "inputs": [
        {
          "internalType": "uint256",
          "name": "",
          "type": "uint256"
        }
      ],
      "name": "orders",
      "outputs": [
        {
          "internalType": "uint16",
          "name": "pairIndex",
          "type": "uint16"
        },
        {
          "internalType": "uint112",
          "name": "linkFeePerNode",
          "type": "uint112"
        },
        {
          "internalType": "enum GNSPriceAggregatorV6_4.OrderType",
          "name": "orderType",
          "type": "uint8"
        },
        {
          "internalType": "bool",
          "name": "active",
          "type": "bool"
        },
        {
          "internalType": "bool",
          "name": "isLookback",
          "type": "bool"
        }
      ],
      "stateMutability": "view",
      "type": "function"
    },
    {
      "inputs": [
        {
          "internalType": "uint256",
          "name": "",
          "type": "uint256"
        },
        {
          "internalType": "uint256",
          "name": "",
          "type": "uint256"
        }
      ],
      "name": "ordersAnswers",
      "outputs": [
        {
          "internalType": "uint256",
          "name": "",
          "type": "uint256"
        }
      ],
      "stateMutability": "view",
      "type": "function"
    },
    {
      "inputs": [],
      "name": "pairsStorage",
      "outputs": [
        {
          "internalType": "contract PairsStorageInterfaceV6",
          "name": "",
          "type": "address"
        }
      ],
      "stateMutability": "view",
      "type": "function"
    },
    {
      "inputs": [
        {
          "internalType": "uint256",
          "name": "index",
          "type": "uint256"
        }
      ],
      "name": "removeNode",
      "outputs": [],
      "stateMutability": "nonpayable",
      "type": "function"
    },
    {
      "inputs": [
        {
          "internalType": "uint256",
          "name": "index",
          "type": "uint256"
        },
        {
          "internalType": "address",
          "name": "a",
          "type": "address"
        }
      ],
      "name": "replaceNode",
      "outputs": [],
      "stateMutability": "nonpayable",
      "type": "function"
    },
    {
      "inputs": [
        {
          "internalType": "bytes32",
          "name": "jobId",
          "type": "bytes32"
        }
      ],
      "name": "setLimitJobId",
      "outputs": [],
      "stateMutability": "nonpayable",
      "type": "function"
    },
    {
      "inputs": [
        {
          "internalType": "bytes32",
          "name": "jobId",
          "type": "bytes32"
        }
      ],
      "name": "setMarketJobId",
      "outputs": [],
      "stateMutability": "nonpayable",
      "type": "function"
    },
    {
      "inputs": [],
      "name": "storageT",
      "outputs": [
        {
          "internalType": "contract StorageInterfaceV5",
          "name": "",
          "type": "address"
        }
      ],
      "stateMutability": "view",
      "type": "function"
    },
    {
      "inputs": [],
      "name": "token",
      "outputs": [
        {
          "internalType": "address",
          "name": "",
          "type": "address"
        }
      ],
      "stateMutability": "view",
      "type": "function"
    },
    {
      "inputs": [],
      "name": "tokenPriceDai",
      "outputs": [
        {
          "internalType": "uint256",
          "name": "price",
          "type": "uint256"
        }
      ],
      "stateMutability": "view",
      "type": "function"
    },
    {
      "inputs": [],
      "name": "twapInterval",
      "outputs": [
        {
          "internalType": "uint32",
          "name": "",
          "type": "uint32"
        }
      ],
      "stateMutability": "view",
      "type": "function"
    },
    {
      "inputs": [],
      "name": "uniV3Pool",
      "outputs": [
        {
          "internalType": "contract IUniswapV3Pool",
          "name": "",
          "type": "address"
        }
      ],
      "stateMutability": "view",
      "type": "function"
    },
    {
      "inputs": [
        {
          "internalType": "contract ChainlinkFeedInterfaceV5",
          "name": "value",
          "type": "address"
        }
      ],
      "name": "updateLinkPriceFeed",
      "outputs": [],
      "stateMutability": "nonpayable",
      "type": "function"
    },
    {
      "inputs": [
        {
          "internalType": "uint256",
          "name": "value",
          "type": "uint256"
        }
      ],
      "name": "updateMinAnswers",
      "outputs": [],
      "stateMutability": "nonpayable",
      "type": "function"
    },
    {
      "inputs": [
        {
          "internalType": "contract PairsStorageInterfaceV6",
          "name": "value",
          "type": "address"
        }
      ],
      "name": "updatePairsStorage",
      "outputs": [],
      "stateMutability": "nonpayable",
      "type": "function"
    },
    {
      "inputs": [
        {
          "internalType": "uint32",
          "name": "_twapInterval",
          "type": "uint32"
        }
      ],
      "name": "updateTwapInterval",
      "outputs": [],
      "stateMutability": "nonpayable",
      "type": "function"
    },
    {
      "inputs": [
        {
          "internalType": "contract IUniswapV3Pool",
          "name": "_uniV3Pool",
          "type": "address"
        }
      ],
      "name": "updateUniV3Pool",
      "outputs": [],
      "stateMutability": "nonpayable",
      "type": "function"
    }
  ],
  "transactionHash": "0x878d4c424a49371a315547c38cb9bf0f8e721590f4e35b3879441f91f8e4f281",
  "args": [
    "0x326C977E6efc84E512bB9C30f76E30c160eD06FB",
    "0x675100252429daD22115cE217F69FFda6dA40A52",
    900,
    "0x324498592F676A08E531E0F1E6E5F9c7FE7D480B",
    "0xd34B49d930eAa14D6B8467380bb9fE277CdecbB4",
    "0x1C2252aeeD50e0c9B64bDfF2735Ee3C932F5C408",
    1,
    [
      "0x495F8ed5925a0d1Dbb96e306799E60FDE2B5FF70"
    ],
    [
      "0x3236323335663431613834383465356439393537393466383665646534656163",
      "0x3236323335663431613834383465356439393537393466383665646534656163"
    ]
  ],
  "numDeployments": 3,
  "solcInputHash": "1fb54bea4cf6a173b2fc930d8a8706a3",
  "bytecode": "0x60e060405260016004553480156200001657600080fd5b50604051620052c7380380620052c78339810160408190526200003991620004d7565b87866001600160a01b031663fc0c546a6040518163ffffffff1660e01b815260040160206040518083038186803b1580156200007457600080fd5b505afa15801562000089573d6000803e3d6000fd5b505050506040513d601f19601f82011682018060405250810190620000af9190620005b6565b886402540be4006001600160a01b03841615801590620000d7575061038463ffffffff831610155b8015620000ec575061384063ffffffff831611155b8015620000f95750600081115b6200014b5760405162461bcd60e51b815260206004820152601660248201527f57524f4e475f545741505f434f4e5354525543544f520000000000000000000060448201526064015b60405180910390fd5b600680546001600160601b031960609590951b9490941660a05263ffffffff909216600160a01b026001600160c01b03199093166001600160a01b0394851617929092179055608052861615801590620001ad57506001600160a01b03851615155b8015620001c257506001600160a01b03841615155b8015620001d0575060018310155b8015620001e95750620001e5600284620005dd565b6001145b8015620001f7575060008251115b80156200020c57506001600160a01b03891615155b620002495760405162461bcd60e51b815260206004820152600c60248201526b57524f4e475f504152414d5360a01b604482015260640162000142565b6001600160601b0319606087901b1660c052600780546001600160a01b038781166001600160a01b031992831617909255600880549287169290911691909117905560098390558151620002a590600a906020850190620002e0565b50620002b5600b8260026200034a565b50600280546001600160a01b0319166001600160a01b038b161790555050505050505050506200062f565b82805482825590600052602060002090810192821562000338579160200282015b828111156200033857825182546001600160a01b0319166001600160a01b0390911617825560209092019160019091019062000301565b50620003469291506200037b565b5090565b826002810192821562000338579160200282015b82811115620003385782518255916020019190600101906200035e565b5b808211156200034657600081556001016200037c565b600082601f830112620003a457600080fd5b815160206001600160401b0380831115620003c357620003c362000600565b8260051b604051601f19603f83011681018181108482111715620003eb57620003eb62000600565b604052848152838101925086840182880185018910156200040b57600080fd5b600092505b858310156200043b578051620004268162000616565b84529284019260019290920191840162000410565b50979650505050505050565b600082601f8301126200045957600080fd5b604080519081016001600160401b03811182821017156200047e576200047e62000600565b80604052508083856040860111156200049657600080fd5b60005b6002811015620004ba57815183526020928301929091019060010162000499565b509195945050505050565b8051620004d28162000616565b919050565b60008060008060008060008060006101408a8c031215620004f757600080fd5b8951620005048162000616565b60208b0151909950620005178162000616565b60408b015190985063ffffffff811681146200053257600080fd5b96506200054260608b01620004c5565b95506200055260808b01620004c5565b94506200056260a08b01620004c5565b60c08b015160e08c015191955093506001600160401b038111156200058657600080fd5b620005948c828d0162000392565b925050620005a78b6101008c0162000447565b90509295985092959850929598565b600060208284031215620005c957600080fd5b8151620005d68162000616565b9392505050565b600082620005fb57634e487b7160e01b600052601260045260246000fd5b500690565b634e487b7160e01b600052604160045260246000fd5b6001600160a01b03811681146200062c57600080fd5b50565b60805160a05160601c60c05160601c614be4620006e3600039600081816102370152818161079501528181610e1701528181611208015281816114bf015281816119b501528181611a7801528181611b1a01528181611ca401528181611def01528181612042015281816122670152818161239c01528181612466015281816125fd01528181612775015261294d0152600081816104c201526137cc0152600081816106f601526107590152614be46000f3fe608060405234801561001057600080fd5b50600436106101d95760003560e01c806393d7fe2c11610104578063da4ae8ef116100a2578063f5ed447c11610071578063f5ed447c146104aa578063fc0c546a146104bd578063fd288280146104e4578063ffd740df146104f757600080fd5b8063da4ae8ef14610451578063dcdfb43114610464578063e0bb91c214610484578063e21e5fe01461049757600080fd5b8063a85c38ef116100de578063a85c38ef146103bc578063b9e0336f14610422578063bea1675814610435578063d31273ca1461043e57600080fd5b806393d7fe2c146103835780639d95f1cc14610396578063a500775e146103a957600080fd5b806340e9eda21161017c5780636938c05d1161014b5780636938c05d146103425780636c83b3d7146103555780636f37d2631461036857806385f276b81461037057600080fd5b806340e9eda2146102c15780634162cc88146102d65780634357855e146102e95780634c37a9d6146102fc57600080fd5b80631c53c280116101b85780631c53c2801461025957806335b03c171461026c5780633c1d5df01461027f5780633c88e882146102ab57600080fd5b8062912b37146101de57806303f39a161461020e57806316fff07414610232575b600080fd5b6008546101f1906001600160a01b031681565b6040516001600160a01b0390911681526020015b60405180910390f35b60065461022290600160c01b900460ff1681565b6040519015158152602001610205565b6101f17f000000000000000000000000000000000000000000000000000000000000000081565b6101f1610267366004614292565b61050a565b6007546101f1906001600160a01b031681565b60065461029690600160a01b900463ffffffff1681565b60405163ffffffff9091168152602001610205565b6102b3610534565b604051908152602001610205565b6102d46102cf366004614165565b610793565b005b6102b36102e4366004614292565b6108d8565b6102d46102f73660046142ab565b6108ef565b61030f61030a3660046142ab565b611466565b604080516001600160401b0395861681529385166020850152918416918301919091529091166060820152608001610205565b6102b361035036600461440a565b6114bb565b6006546101f1906001600160a01b031681565b6102d46119b3565b6102d461037e366004614292565b611ca2565b6102b36103913660046142ab565b611dbc565b6102d46103a4366004614165565b611ded565b6102d46103b736600461444b565b612040565b6104116103ca366004614292565b600d6020526000908152604090205461ffff8116906001600160701b03620100008204169060ff600160801b8204811691600160881b8104821691600160901b9091041685565b604051610205959493929190614744565b6102b36104303660046142ab565b61210d565b6102b360095481565b6102d461044c366004614165565b612265565b6102d461045f366004614165565b61239a565b6102b3610472366004614292565b600e6020526000908152604090205481565b6102d4610492366004614292565b612464565b6102b36104a5366004614292565b61257e565b6102d46104b8366004614292565b6125fb565b6101f17f000000000000000000000000000000000000000000000000000000000000000081565b6102d46104f23660046143da565b612773565b6102d4610505366004614292565b61294b565b600a818154811061051a57600080fd5b6000918252602090912001546001600160a01b0316905081565b60408051600280825260608201835260009283929190602083019080368337019050509050600660149054906101000a900463ffffffff168160008151811061057f5761057f614b6d565b602002602001019063ffffffff16908163ffffffff16815250506000816001815181106105ae576105ae614b6d565b63ffffffff9092166020928302919091019091015260065460405163883bdbfd60e01b81526000916001600160a01b03169063883bdbfd906105f49085906004016145f2565b60006040518083038186803b15801561060c57600080fd5b505afa158015610620573d6000803e3d6000fd5b505050506040513d6000823e601f3d908101601f19168201604052610648919081019061419f565b50905060008160008151811061066057610660614b6d565b60200260200101518260018151811061067b5761067b614b6d565b602002602001015161068d9190614a0d565b600654909150600160a01b900463ffffffff1660030b60006106af828461481c565b905060008360060b1280156106cf57506106c98284614adf565b60060b15155b156106e257806106de81614aa0565b9150505b60006106ed82612b6d565b9050600160601b7f00000000000000000000000000000000000000000000000000000000000000006107296001600160a01b0384168084612ea0565b61073391906149ee565b61073d919061485a565b600654909750600160c01b900460ff1661078a578661077d60027f00000000000000000000000000000000000000000000000000000000000000006148bd565b610787919061485a565b96505b50505050505090565b7f00000000000000000000000000000000000000000000000000000000000000006001600160a01b03166312d43a516040518163ffffffff1660e01b815260040160206040518083038186803b1580156107ec57600080fd5b505afa158015610800573d6000803e3d6000fd5b505050506040513d601f19601f820116820180604052508101906108249190614182565b6001600160a01b0316336001600160a01b03161461085d5760405162461bcd60e51b81526004016108549061466e565b60405180910390fd5b6001600160a01b0381166108835760405162461bcd60e51b815260040161085490614690565b600780546001600160a01b0319166001600160a01b0383169081179091556040519081527f477e87af277e7755f85267ef7c6b77cd28610c2c8c2923acdf55fa5b63f18b77906020015b60405180910390a150565b600b81600281106108e857600080fd5b0154905081565b6000828152600e60209081526040808320805490849055808452600d8352818420825160a081018452815461ffff811682526201000081046001600160701b0316958201959095529194939192909190830190600160801b900460ff16600381111561095d5761095d614b41565b600381111561096e5761096e614b41565b8152905460ff600160881b8204811615156020840152600160901b909104161515604091820152600754825191516307aa801760e21b815261ffff909216600483015291925060009182916001600160a01b0390911690631eaa005c9060240160806040518083038186803b1580156109e657600080fd5b505afa1580156109fa573d6000803e3d6000fd5b505050506040513d601f19601f82011682018060405250810190610a1e9190614340565b90506000610a2b82612f53565b90508360600151156113e857836080015115610ffb57604080516080810182526000808252602082018190528183018190526060820152905163635e061d60e11b815260048101889052735FC8d32690cc91D4c39d9d3abcBD16989F8757079063c6bc0c3a9060240160806040518083038186803b158015610aac57600080fd5b505af4158015610ac0573d6000803e3d6000fd5b505050506040513d601f19601f82011682018060405250810190610ae49190614471565b6001600160401b03908116606086015290811660408501529081166020840181905291168252158015610b22575060408101516001600160401b0316155b80610b85575080600001516001600160401b031681602001516001600160401b031610158015610b6c575080600001516001600160401b031681604001516001600160401b031611155b8015610b855750600081604001516001600160401b0316115b610bc25760405162461bcd60e51b815260206004820152600e60248201526d494e56414c49445f43414e444c4560901b6044820152606401610854565b610bde81602001516001600160401b031683856060015161310c565b8015610c015750610c0181604001516001600160401b031683856060015161310c565b15610ff557600086815260106020908152604080832080546001818101835582865294849020865191018054948701519387015160608801516001600160401b03908116600160c01b026001600160c01b03928216600160801b02929092166fffffffffffffffffffffffffffffffff968216600160401b026001600160801b03199098169190941617959095179390931617929092179055600954815492965090911415610ff357610ce36040518060c001604052806000815260200160008152602001600081526020016000815260200160008152602001600081525090565b878152815460408051602080840282018101909252828152610d7992909185919060009084015b82821015610d7057600084815260209081902060408051608081018252918501546001600160401b038082168452600160401b8204811684860152600160801b8204811692840192909252600160c01b9004166060820152825260019092019101610d0a565b50505050613171565b60a084015260808301526060820152600754875160405163a1d54e9b60e01b815261ffff90911660048201526001600160a01b039091169063a1d54e9b9060240160206040518083038186803b158015610dd257600080fd5b505afa158015610de6573d6000803e3d6000fd5b505050506040513d601f19601f82011682018060405250810190610e0a91906143c1565b81604001818152505060007f00000000000000000000000000000000000000000000000000000000000000006001600160a01b031662b127836040518163ffffffff1660e01b815260040160206040518083038186803b158015610e6d57600080fd5b505afa158015610e81573d6000803e3d6000fd5b505050506040513d601f19601f82011682018060405250810190610ea59190614182565b9050600288604001516003811115610ebf57610ebf614b41565b1415610f285760405163168fdc8160e31b81526001600160a01b0382169063b47ee40890610ef19085906004016146b1565b600060405180830381600087803b158015610f0b57600080fd5b505af1158015610f1f573d6000803e3d6000fd5b50505050610f87565b6040516323f7197b60e01b81526001600160a01b038216906323f7197b90610f549085906004016146b1565b600060405180830381600087803b158015610f6e57600080fd5b505af1158015610f82573d6000803e3d6000fd5b505050505b7fce3ae2fe07e497ba552d6485a40eed46cfb3320f001027891efeb1128dba0350828960400151604051610fbc9291906146f4565b60405180910390a16000898152600d60209081526040808320805460ff60881b1916905560109091528120610ff091613fdf565b50505b505b506113e8565b60405163635e061d60e11b815260048101879052600090735FC8d32690cc91D4c39d9d3abcBD16989F8757079063c6bc0c3a9060240160806040518083038186803b15801561104957600080fd5b505af415801561105d573d6000803e3d6000fd5b505050506040513d601f19601f820116820180604052508101906110819190614471565b505050905061109e816001600160401b031683856060015161310c565b156113e6576000868152600f602090815260408220805460018181018355828552929093206001600160401b038516930192909255600954825491965014156113e45761111a6040518060c001604052806000815260200160008152602001600081526020016000815260200160008152602001600081525090565b87815281546040805160208084028201810190925282815261117492909185919083018282801561116a57602002820191906000526020600020905b815481526020019060010190808311611156575b50505050506134f2565b6020820152600754875160405163a1d54e9b60e01b815261ffff90911660048201526001600160a01b039091169063a1d54e9b9060240160206040518083038186803b1580156111c357600080fd5b505afa1580156111d7573d6000803e3d6000fd5b505050506040513d601f19601f820116820180604052508101906111fb91906143c1565b81604001818152505060007f00000000000000000000000000000000000000000000000000000000000000006001600160a01b031662b127836040518163ffffffff1660e01b815260040160206040518083038186803b15801561125e57600080fd5b505afa158015611272573d6000803e3d6000fd5b505050506040513d601f19601f820116820180604052508101906112969190614182565b90506000886040015160038111156112b0576112b0614b41565b1415611319576040516361ba6c3d60e01b81526001600160a01b038216906361ba6c3d906112e29085906004016146b1565b600060405180830381600087803b1580156112fc57600080fd5b505af1158015611310573d6000803e3d6000fd5b50505050611378565b604051637d490caf60e01b81526001600160a01b03821690637d490caf906113459085906004016146b1565b600060405180830381600087803b15801561135f57600080fd5b505af1158015611373573d6000803e3d6000fd5b505050505b7fce3ae2fe07e497ba552d6485a40eed46cfb3320f001027891efeb1128dba03508289604001516040516113ad9291906146f4565b60405180910390a16000898152600d60209081526040808320805460ff60881b19169055600f90915281206113e191613fdf565b50505b505b505b8351602080860151608080880151604080518d81529485018c90528481018790526001600160701b03909316606085015215159083015285151560a08301525161ffff90921691339188917fdc6ff5906123aad281d8e734bb64101cea661d614a568b9bca20e7ac2ae7f3549181900360c00190a450505050505050565b6010602052816000526040600020818154811061148257600080fd5b6000918252602090912001546001600160401b038082169350600160401b820481169250600160801b8204811691600160c01b90041684565b60007f00000000000000000000000000000000000000000000000000000000000000006001600160a01b031663ec44acf26040518163ffffffff1660e01b815260040160206040518083038186803b15801561151657600080fd5b505afa15801561152a573d6000803e3d6000fd5b505050506040513d601f19601f8201168201806040525081019061154e9190614182565b6001600160a01b0316336001600160a01b03161461159d5760405162461bcd60e51b815260206004820152600c60248201526b54524144494e475f4f4e4c5960a01b6044820152606401610854565b61ffff8511156115df5760405162461bcd60e51b815260206004820152600d60248201526c504149525f4f564552464c4f5760981b6044820152606401610854565b600060028560038111156115f5576115f5614b41565b14806116125750600385600381111561161057611610614b41565b145b905060008161162357600b54611627565b600c545b9050600061163d82306321abc2af60e11b6135b0565b600754604051630c0be07f60e21b8152600481018b90529192506000918291829182916001600160a01b03169063302f81fc90602401600060405180830381600087803b15801561168d57600080fd5b505af11580156116a1573d6000803e3d6000fd5b505050506040513d6000823e601f3d908101601f191682016040526116c991908101906142cd565b935050925092508093506117046040518060400160405280600481526020016366726f6d60e01b81525084876135d59092919063ffffffff16565b604080518082019091526002815261746f60f01b6020820152611729908690846135d5565b861561175b5760408051808201909152600981526866726f6d426c6f636b60b81b602082015261175b9086908b6135f8565b5050506000806000600a8054806020026020016040519081016040528092919081815260200182805480156117b957602002820191906000526020600020905b81546001600160a01b0316815260019091019060200180831161179b575b5050505050905080519250826117cf8d8c61210d565b6117d9919061485a565b91506001600160701b038211156118225760405162461bcd60e51b815260206004820152600d60248201526c4c494e4b5f4f564552464c4f5760981b6044820152606401610854565b6040518060a001604052808d61ffff168152602001836001600160701b031681526020018c600381111561185857611858614b41565b815260016020808301919091528915156040928301526000878152600d825282902083518154928501516001600160701b031662010000026001600160801b031990931661ffff9091161791909117808255918301519091829060ff60801b1916600160801b8360038111156118d0576118d0614b41565b0217905550606082015181546080909301511515600160901b0260ff60901b19911515600160881b029190911661ffff60881b199093169290921791909117905560005b8381101561195e5784600e600061194585858151811061193657611936614b6d565b60200260200101518a88613616565b8152602081019190915260400160002055600101611914565b50508a85847ffadf91896d9352ab1e350a349050907f966d8ea7f38c1a5be50f2a379ef4fcbe8d86868e8d60405161199a95949392919061463c565b60405180910390a450909450505050505b949350505050565b7f00000000000000000000000000000000000000000000000000000000000000006001600160a01b03166312d43a516040518163ffffffff1660e01b815260040160206040518083038186803b158015611a0c57600080fd5b505afa158015611a20573d6000803e3d6000fd5b505050506040513d601f19601f82011682018060405250810190611a449190614182565b6001600160a01b0316336001600160a01b031614611a745760405162461bcd60e51b81526004016108549061466e565b60007f00000000000000000000000000000000000000000000000000000000000000006001600160a01b031663fece4eac6040518163ffffffff1660e01b815260040160206040518083038186803b158015611acf57600080fd5b505afa158015611ae3573d6000803e3d6000fd5b505050506040513d601f19601f82011682018060405250810190611b079190614182565b9050806001600160a01b031663a9059cbb7f00000000000000000000000000000000000000000000000000000000000000006001600160a01b03166312d43a516040518163ffffffff1660e01b815260040160206040518083038186803b158015611b7157600080fd5b505afa158015611b85573d6000803e3d6000fd5b505050506040513d601f19601f82011682018060405250810190611ba99190614182565b6040516370a0823160e01b81523060048201526001600160a01b038516906370a082319060240160206040518083038186803b158015611be857600080fd5b505afa158015611bfc573d6000803e3d6000fd5b505050506040513d601f19601f82011682018060405250810190611c2091906143c1565b6040516001600160e01b031960e085901b1681526001600160a01b0390921660048301526024820152604401602060405180830381600087803b158015611c6657600080fd5b505af1158015611c7a573d6000803e3d6000fd5b505050506040513d601f19601f82011682018060405250810190611c9e9190614270565b5050565b7f00000000000000000000000000000000000000000000000000000000000000006001600160a01b03166312d43a516040518163ffffffff1660e01b815260040160206040518083038186803b158015611cfb57600080fd5b505afa158015611d0f573d6000803e3d6000fd5b505050506040513d601f19601f82011682018060405250810190611d339190614182565b6001600160a01b0316336001600160a01b031614611d635760405162461bcd60e51b81526004016108549061466e565b80611d805760405162461bcd60e51b815260040161085490614690565b600b8190556040805160008152602081018390527f764c19c693af0da42ec6c6bed68a2dd1a2fa93d24785fcfce58ffa29ae31360691016108cd565b600f6020528160005260406000208181548110611dd857600080fd5b90600052602060002001600091509150505481565b7f00000000000000000000000000000000000000000000000000000000000000006001600160a01b03166312d43a516040518163ffffffff1660e01b815260040160206040518083038186803b158015611e4657600080fd5b505afa158015611e5a573d6000803e3d6000fd5b505050506040513d601f19601f82011682018060405250810190611e7e9190614182565b6001600160a01b0316336001600160a01b031614611eae5760405162461bcd60e51b81526004016108549061466e565b6001600160a01b038116611ed45760405162461bcd60e51b815260040161085490614690565b600a54601411611f195760405162461bcd60e51b815260206004820152601060248201526f4d41585f4f5241434c455f4e4f44455360801b6044820152606401610854565b60005b600a54811015611fa957816001600160a01b0316600a8281548110611f4357611f43614b6d565b6000918252602090912001546001600160a01b03161415611f975760405162461bcd60e51b815260206004820152600e60248201526d1053149150511657d31254d5115160921b6044820152606401610854565b80611fa181614ac4565b915050611f1c565b50600a80546001808201835560008390527fc65a7bb8d6351c1cf70c95a316cc6a92839c986682d98bc35f958f4883f9d2a890910180546001600160a01b0319166001600160a01b03851617905590547fadfedad3d82b3775bf2dbea70a01327d1f26c0b868eb8ce0963a6e9af1003e859161202491614a5d565b604080519182526001600160a01b0384166020830152016108cd565b7f00000000000000000000000000000000000000000000000000000000000000006001600160a01b03166312d43a516040518163ffffffff1660e01b815260040160206040518083038186803b15801561209957600080fd5b505afa1580156120ad573d6000803e3d6000fd5b505050506040513d601f19601f820116820180604052508101906120d19190614182565b6001600160a01b0316336001600160a01b0316146121015760405162461bcd60e51b81526004016108549061466e565b61210a816136a9565b50565b600080600860009054906101000a90046001600160a01b03166001600160a01b031663feaf968c6040518163ffffffff1660e01b815260040160a06040518083038186803b15801561215e57600080fd5b505afa158015612172573d6000803e3d6000fd5b505050506040513d601f19601f8201168201806040525081019061219691906144c5565b505060075460405163f7acbabd60e01b815260048101899052929450606493506402540be4009285925087916001600160a01b03169063f7acbabd9060240160206040518083038186803b1580156121ed57600080fd5b505afa158015612201573d6000803e3d6000fd5b505050506040513d601f19601f8201168201806040525081019061222591906143c1565b61222f91906149ee565b61223d906305f5e1006149ee565b612247919061485a565b612251919061485a565b61225b919061485a565b9150505b92915050565b7f00000000000000000000000000000000000000000000000000000000000000006001600160a01b03166312d43a516040518163ffffffff1660e01b815260040160206040518083038186803b1580156122be57600080fd5b505afa1580156122d2573d6000803e3d6000fd5b505050506040513d601f19601f820116820180604052508101906122f69190614182565b6001600160a01b0316336001600160a01b0316146123265760405162461bcd60e51b81526004016108549061466e565b6001600160a01b03811661234c5760405162461bcd60e51b815260040161085490614690565b600880546001600160a01b0319166001600160a01b0383169081179091556040519081527f2504020720d4f3f4c5a7010cde1f1e76e9a22857f308ef695d666ed1237bf8a4906020016108cd565b7f00000000000000000000000000000000000000000000000000000000000000006001600160a01b03166312d43a516040518163ffffffff1660e01b815260040160206040518083038186803b1580156123f357600080fd5b505afa158015612407573d6000803e3d6000fd5b505050506040513d601f19601f8201168201806040525081019061242b9190614182565b6001600160a01b0316336001600160a01b03161461245b5760405162461bcd60e51b81526004016108549061466e565b61210a81613757565b7f00000000000000000000000000000000000000000000000000000000000000006001600160a01b03166312d43a516040518163ffffffff1660e01b815260040160206040518083038186803b1580156124bd57600080fd5b505afa1580156124d1573d6000803e3d6000fd5b505050506040513d601f19601f820116820180604052508101906124f59190614182565b6001600160a01b0316336001600160a01b0316146125255760405162461bcd60e51b81526004016108549061466e565b806125425760405162461bcd60e51b815260040161085490614690565b600c8190556040805160018152602081018390527f764c19c693af0da42ec6c6bed68a2dd1a2fa93d24785fcfce58ffa29ae31360691016108cd565b600754604051638251135b60e01b8152600481018390526000916001600160a01b031690638251135b9060240160206040518083038186803b1580156125c357600080fd5b505afa1580156125d7573d6000803e3d6000fd5b505050506040513d601f19601f8201168201806040525081019061225f91906143c1565b7f00000000000000000000000000000000000000000000000000000000000000006001600160a01b03166312d43a516040518163ffffffff1660e01b815260040160206040518083038186803b15801561265457600080fd5b505afa158015612668573d6000803e3d6000fd5b505050506040513d601f19601f8201168201806040525081019061268c9190614182565b6001600160a01b0316336001600160a01b0316146126bc5760405162461bcd60e51b81526004016108549061466e565b60018110156126fb5760405162461bcd60e51b815260206004820152600b60248201526a4d494e5f414e535745525360a81b6044820152606401610854565b612706600282614b01565b60011461273e5760405162461bcd60e51b81526004016108549060208082526004908201526322ab22a760e11b604082015260600190565b60098190556040518181527f230365d79885046a48c9158f0e4840ab95929bbebf5de4be23f7ce5f91a97c65906020016108cd565b7f00000000000000000000000000000000000000000000000000000000000000006001600160a01b03166312d43a516040518163ffffffff1660e01b815260040160206040518083038186803b1580156127cc57600080fd5b505afa1580156127e0573d6000803e3d6000fd5b505050506040513d601f19601f820116820180604052508101906128049190614182565b6001600160a01b0316336001600160a01b0316146128345760405162461bcd60e51b81526004016108549061466e565b600a5482106128735760405162461bcd60e51b815260206004820152600b60248201526a0aea49e9c8ebe929c888ab60ab1b6044820152606401610854565b6001600160a01b0381166128995760405162461bcd60e51b815260040161085490614690565b7f945eb5535c35fb8b656c5c6b7d8bb9d9deba3a44d202bd2b53d58aac4f43db0482600a84815481106128ce576128ce614b6d565b60009182526020918290200154604080519384526001600160a01b039182169284019290925284169082015260600160405180910390a180600a838154811061291957612919614b6d565b9060005260206000200160006101000a8154816001600160a01b0302191690836001600160a01b031602179055505050565b7f00000000000000000000000000000000000000000000000000000000000000006001600160a01b03166312d43a516040518163ffffffff1660e01b815260040160206040518083038186803b1580156129a457600080fd5b505afa1580156129b8573d6000803e3d6000fd5b505050506040513d601f19601f820116820180604052508101906129dc9190614182565b6001600160a01b0316336001600160a01b031614612a0c5760405162461bcd60e51b81526004016108549061466e565b600a548110612a4b5760405162461bcd60e51b815260206004820152600b60248201526a0aea49e9c8ebe929c888ab60ab1b6044820152606401610854565b7f03082ced7b8d3c831a021af877c172ae1e0257c3522a135e4d7161343846115681600a8381548110612a8057612a80614b6d565b600091825260209091200154604051612ab592916001600160a01b0316909182526001600160a01b0316602082015260400190565b60405180910390a1600a8054612acd90600190614a5d565b81548110612add57612add614b6d565b600091825260209091200154600a80546001600160a01b039092169183908110612b0957612b09614b6d565b9060005260206000200160006101000a8154816001600160a01b0302191690836001600160a01b03160217905550600a805480612b4857612b48614b57565b600082815260209020810160001990810180546001600160a01b031916905501905550565b60008060008360020b12612b84578260020b612b8c565b8260020b6000035b9050620d89e8811115612bc55760405162461bcd60e51b81526020600482015260016024820152601560fa1b6044820152606401610854565b600060018216612bd957600160801b612beb565b6ffffcb933bd6fad37aa2d162d1a5940015b70ffffffffffffffffffffffffffffffffff1690506002821615612c1f576ffff97272373d413259a46990580e213a0260801c5b6004821615612c3e576ffff2e50f5f656932ef12357cf3c7fdcc0260801c5b6008821615612c5d576fffe5caca7e10e4e61c3624eaa0941cd00260801c5b6010821615612c7c576fffcb9843d60f6159c9db58835c9266440260801c5b6020821615612c9b576fff973b41fa98c081472e6896dfb254c00260801c5b6040821615612cba576fff2ea16466c96a3843ec78b326b528610260801c5b6080821615612cd9576ffe5dee046a99a2a811c461f1969c30530260801c5b610100821615612cf9576ffcbe86c7900a88aedcffc83b479aa3a40260801c5b610200821615612d19576ff987a7253ac413176f2b074cf7815e540260801c5b610400821615612d39576ff3392b0822b70005940c7a398e4b70f30260801c5b610800821615612d59576fe7159475a2c29b7443b29c7fa6e889d90260801c5b611000821615612d79576fd097f3bdfd2022b8845ad8f792aa58250260801c5b612000821615612d99576fa9f746462d870fdf8a65dc1f90e061e50260801c5b614000821615612db9576f70d869a156d2a1b890bb3df62baf32f70260801c5b618000821615612dd9576f31be135f97d08fd981231505542fcfa60260801c5b62010000821615612dfa576f09aa508b5b7a84e1c677de54f3e99bc90260801c5b62020000821615612e1a576e5d6af8dedb81196699c329225ee6040260801c5b62040000821615612e39576d2216e584f5fa1ea926041bedfe980260801c5b62080000821615612e56576b048a170391f7dc42444e8fa20260801c5b60008460020b1315612e77578060001981612e7357612e73614b2b565b0490505b640100000000810615612e8b576001612e8e565b60005b60ff16602082901c0192505050919050565b600080806000198587098587029250828110838203039150508060001415612eda5760008411612ecf57600080fd5b508290049050612f4c565b808411612ee657600080fd5b60008486880960018619810187169687900496828603819004959092119093036000829003919091049092019190910291909117600260038502811880860282030280860282030280860282030280860282030280860282030280860290910302029150505b9392505050565b80516000906001600160a01b0316612f6d57506000919050565b60008083600001516001600160a01b031663feaf968c6040518163ffffffff1660e01b815260040160a06040518083038186803b158015612fad57600080fd5b505afa158015612fc1573d6000803e3d6000fd5b505050506040513d601f19601f82011682018060405250810190612fe591906144c5565b5091935060009250612ff5915050565b8460400151600281111561300b5761300b614b41565b1415613036576305f5e1006130256402540be40083614969565b61302f91906147ee565b9150613105565b60018460400151600281111561304e5761304e614b41565b141561306857806130256402540be4006305f5e100614969565b600084602001516001600160a01b031663feaf968c6040518163ffffffff1660e01b815260040160a06040518083038186803b1580156130a757600080fd5b505afa1580156130bb573d6000803e3d6000fd5b505050506040513d601f19601f820116820180604052508101906130df91906144c5565b505050915050806402540be400836130f79190614969565b61310191906147ee565b9250505b5092915050565b6000831580613119575082155b806119ab575081836402540be4008587101561313e576131398787614a5d565b613148565b6131488688614a5d565b61315291906149ee565b61315d9060646149ee565b613167919061485a565b1115949350505050565b600080600080845190506000816001600160401b0381111561319557613195614b83565b6040519080825280602002602001820160405280156131be578160200160208202803683370190505b5090506000826001600160401b038111156131db576131db614b83565b604051908082528060200260200182016040528015613204578160200160208202803683370190505b5090506000836001600160401b0381111561322157613221614b83565b60405190808252806020026020018201604052801561324a578160200160208202803683370190505b50905060005b8481101561332e5788818151811061326a5761326a614b6d565b6020026020010151600001516001600160401b031684828151811061329157613291614b6d565b6020026020010181815250508881815181106132af576132af614b6d565b6020026020010151602001516001600160401b03168382815181106132d6576132d6614b6d565b6020026020010181815250508881815181106132f4576132f4614b6d565b6020026020010151604001516001600160401b031682828151811061331b5761331b614b6d565b6020908102919091010152600101613250565b5061333b836000866138a6565b613347826000866138a6565b613353816000866138a6565b6000613360600286614b01565b159050600061337060028761485a565b9050816133965784818151811061338957613389614b6d565b60200260200101516133ec565b60028582815181106133aa576133aa614b6d565b6020026020010151866001846133c09190614a5d565b815181106133d0576133d0614b6d565b60200260200101516133e291906147d6565b6133ec919061485a565b9850816134125783818151811061340557613405614b6d565b6020026020010151613468565b600284828151811061342657613426614b6d565b60200260200101518560018461343c9190614a5d565b8151811061344c5761344c614b6d565b602002602001015161345e91906147d6565b613468919061485a565b97508161348e5782818151811061348157613481614b6d565b60200260200101516134e4565b60028382815181106134a2576134a2614b6d565b6020026020010151846001846134b89190614a5d565b815181106134c8576134c8614b6d565b60200260200101516134da91906147d6565b6134e4919061485a565b989a97995050505050505050565b600061350182600084516138a6565b6002825161350f9190614b01565b15613540578160028351613523919061485a565b8151811061353357613533614b6d565b602002602001015161225f565b60028260028451613551919061485a565b8151811061356157613561614b6d565b60200260200101518360016002865161357a919061485a565b6135849190614a5d565b8151811061359457613594614b6d565b60200260200101516135a691906147d6565b61225f919061485a565b6135b8613ffd565b6135c0613ffd565b6135cc81868686613969565b95945050505050565b60808301516135e490836139a6565b60808301516135f390826139a6565b505050565b608083015161360790836139a6565b60808301516135f390826139bd565b6004546000906136278160016147d6565b600455835160408086015160808701515191516000936320214ca360e11b9361365f9386938493923092918a91600191602401614563565b60408051601f198184030181529190526020810180516001600160e01b03166001600160e01b031990931692909217909152905061369f868386846139e2565b9695505050505050565b61038463ffffffff8216108015906136c9575061384063ffffffff821611155b6137035760405162461bcd60e51b815260206004820152600b60248201526a57524f4e475f56414c554560a81b6044820152606401610854565b6006805463ffffffff60a01b1916600160a01b63ffffffff8416908102919091179091556040519081527fc99f383ecd620c333255bd2aef929eedd6808999bac9bfc5f53e10d876abf1ce906020016108cd565b6001600160a01b03811661379b5760405162461bcd60e51b815260206004820152600b60248201526a57524f4e475f56414c554560a81b6044820152606401610854565b600680546001600160a01b0319166001600160a01b0383811691821790925560408051630dfe168160e01b815290517f000000000000000000000000000000000000000000000000000000000000000090931692630dfe168191600480820192602092909190829003018186803b15801561381557600080fd5b505afa158015613829573d6000803e3d6000fd5b505050506040513d601f19601f8201168201806040525081019061384d9190614182565b6006805460ff60c01b19166001600160a01b0392831693909314600160c01b029290921790915560405190821681527fb9c36e5afdbe55e259bdc128e25c13a15f33271cc71599ce0df510b21c3e8da9906020016108cd565b8082106138b257505050565b600082905060008482815181106138cb576138cb614b6d565b6020026020010151905060008460016138e491906147d6565b90505b83811015613936578186828151811061390257613902614b6d565b6020026020010151101561392657613926868261391e86614ac4565b955085613b4f565b61392f81614ac4565b90506138e7565b50613942858584613b4f565b61394d8585846138a6565b6139628561395c8460016147d6565b856138a6565b5050505050565b613971613ffd565b6139818560800151610100613bc2565b50509183526001600160a01b031660208301526001600160e01b031916604082015290565b6139b38260038351613c27565b6135f38282613d34565b6001600160401b038111156139d657611c9e8282613d5b565b611c9e82600083613c27565b6040516bffffffffffffffffffffffff193060601b1660208201526034810184905260009060540160408051808303601f1901815282825280516020918201206000818152600590925291812080546001600160a01b0319166001600160a01b038a1617905590925082917fb5e6e01e79f91267dc17b4e6314d5d4d03593d2ceee0fbb452b750bd70ea5af99190a2600254604051630200057560e51b81526001600160a01b0390911690634000aea090613aa5908890879087906004016145cb565b602060405180830381600087803b158015613abf57600080fd5b505af1158015613ad3573d6000803e3d6000fd5b505050506040513d601f19601f82011682018060405250810190613af79190614270565b6119ab5760405162461bcd60e51b815260206004820152602360248201527f756e61626c6520746f207472616e73666572416e6443616c6c20746f206f7261604482015262636c6560e81b6064820152608401610854565b828181518110613b6157613b61614b6d565b6020026020010151838381518110613b7b57613b7b614b6d565b6020026020010151848481518110613b9557613b95614b6d565b60200260200101858481518110613bae57613bae614b6d565b602090810291909101019190915252505050565b604080518082019091526060815260006020820152613be2602083614b01565b15613c0a57613bf2602083614b01565b613bfd906020614a5d565b613c0790836147d6565b91505b506020828101829052604080518085526000815290920101905290565b6017816001600160401b031611613c5157613c4b8360e0600585901b168317613d92565b50505050565b60ff816001600160401b031611613c8d57613c77836018611fe0600586901b1617613d92565b50613c4b836001600160401b0383166001613db7565b61ffff816001600160401b031611613cca57613cb4836019611fe0600586901b1617613d92565b50613c4b836001600160401b0383166002613db7565b63ffffffff816001600160401b031611613d0957613cf383601a611fe0600586901b1617613d92565b50613c4b836001600160401b0383166004613db7565b613d1e83601b611fe0600586901b1617613d92565b50613c4b836001600160401b0383166008613db7565b604080518082019091526060815260006020820152612f4c83846000015151848551613ddd565b613d668260c2613d92565b50611c9e8282604051602001613d7e91815260200190565b604051602081830303815290604052613ec7565b604080518082019091526060815260006020820152612f4c8384600001515184613ed4565b6040805180820190915260608152600060208201526119ab848560000151518585613f30565b6040805180820190915260608152600060208201528251821115613e0057600080fd5b6020850151613e0f83866147d6565b1115613e4257613e4285613e3287602001518786613e2d91906147d6565b613fb1565b613e3d9060026149ee565b613fc8565b600080865180518760208301019350808887011115613e615787860182525b505050602084015b60208410613ea15780518252613e806020836147d6565b9150613e8d6020826147d6565b9050613e9a602085614a5d565b9350613e69565b51815160001960208690036101000a019081169019919091161790525083949350505050565b6139b38260028351613c27565b60408051808201909152606081526000602082015283602001518310613f0957613f098485602001516002613e3d91906149ee565b835180516020858301018481535080851415613f26576001810182525b5093949350505050565b6040805180820190915260608152600060208201526020850151613f5485846147d6565b1115613f6857613f6885613e3286856147d6565b60006001613f78846101006148b1565b613f829190614a5d565b9050855183868201018583198251161781525080518487011115613fa65783860181525b509495945050505050565b600081831115613fc257508161225f565b50919050565b8151613fd48383613bc2565b50613c4b8382613d34565b508054600082559060005260206000209081019061210a9190614038565b6040805160a0810182526000808252602080830182905282840182905260608084018390528451808601909552845283015290608082015290565b5b8082111561404d5760008155600101614039565b5090565b600082601f83011261406257600080fd5b81516020614077614072836147b3565b614783565b80838252828201915082860187848660051b890101111561409757600080fd5b60005b858110156140bf5781516140ad81614b99565b8452928401929084019060010161409a565b5090979650505050505050565b600082601f8301126140dd57600080fd5b81516001600160401b038111156140f6576140f6614b83565b614109601f8201601f1916602001614783565b81815284602083860101111561411e57600080fd5b6119ab826020830160208701614a74565b80516001600160401b038116811461414657600080fd5b919050565b805169ffffffffffffffffffff8116811461414657600080fd5b60006020828403121561417757600080fd5b8135612f4c81614b99565b60006020828403121561419457600080fd5b8151612f4c81614b99565b600080604083850312156141b257600080fd5b82516001600160401b03808211156141c957600080fd5b818501915085601f8301126141dd57600080fd5b815160206141ed614072836147b3565b8083825282820191508286018a848660051b890101111561420d57600080fd5b600096505b8487101561423f5780518060060b811461422b57600080fd5b835260019690960195918301918301614212565b509188015191965090935050508082111561425957600080fd5b5061426685828601614051565b9150509250929050565b60006020828403121561428257600080fd5b81518015158114612f4c57600080fd5b6000602082840312156142a457600080fd5b5035919050565b600080604083850312156142be57600080fd5b50508035926020909101359150565b600080600080608085870312156142e357600080fd5b84516001600160401b03808211156142fa57600080fd5b614306888389016140cc565b9550602087015191508082111561431c57600080fd5b50614329878288016140cc565b604087015160609097015195989097509350505050565b60006080828403121561435257600080fd5b604051608081018181106001600160401b038211171561437457614374614b83565b604052825161438281614b99565b8152602083015161439281614b99565b60208201526040830151600381106143a957600080fd5b60408201526060928301519281019290925250919050565b6000602082840312156143d357600080fd5b5051919050565b600080604083850312156143ed57600080fd5b8235915060208301356143ff81614b99565b809150509250929050565b6000806000806080858703121561442057600080fd5b8435935060208501356004811061443657600080fd5b93969395505050506040820135916060013590565b60006020828403121561445d57600080fd5b813563ffffffff81168114612f4c57600080fd5b6000806000806080858703121561448757600080fd5b6144908561412f565b935061449e6020860161412f565b92506144ac6040860161412f565b91506144ba6060860161412f565b905092959194509250565b600080600080600060a086880312156144dd57600080fd5b6144e68661414b565b94506020860151935060408601519250606086015191506145096080870161414b565b90509295509295909350565b6000815180845261452d816020860160208601614a74565b601f01601f19169290920160200192915050565b6004811061455f57634e487b7160e01b600052602160045260246000fd5b9052565b6001600160a01b0389811682526020820189905260408201889052861660608201526001600160e01b03198516608082015260a0810184905260c0810183905261010060e082018190526000906145bc83820185614515565b9b9a5050505050505050505050565b60018060a01b03841681528260208201526060604082015260006135cc6060830184614515565b6020808252825182820181905260009190848201906040850190845b8181101561463057835163ffffffff168352928401929184019160010161460e565b50909695505050505050565b60a0810161464a8288614541565b85602083015284604083015283606083015282151560808301529695505050505050565b602080825260089082015267474f565f4f4e4c5960c01b604082015260600190565b602080825260079082015266056414c55455f360cc1b604082015260600190565b60c0810161225f8284805182526020810151602083015260408101516040830152606081015160608301526080810151608083015260a081015160a08301525050565b60e081016147378285805182526020810151602083015260408101516040830152606081015160608301526080810151608083015260a081015160a08301525050565b612f4c60c0830184614541565b61ffff861681526001600160701b038516602082015260a0810161476b6040830186614541565b92151560608201529015156080909101529392505050565b604051601f8201601f191681016001600160401b03811182821017156147ab576147ab614b83565b604052919050565b60006001600160401b038211156147cc576147cc614b83565b5060051b60200190565b600082198211156147e9576147e9614b15565b500190565b6000826147fd576147fd614b2b565b600160ff1b82146000198414161561481757614817614b15565b500590565b60008160060b8360060b8061483357614833614b2b565b667fffffffffffff1982146000198214161561485157614851614b15565b90059392505050565b60008261486957614869614b2b565b500490565b600181815b808511156148a957816000190482111561488f5761488f614b15565b8085161561489c57918102915b93841c9390800290614873565b509250929050565b6000612f4c83836148c8565b6000612f4c60ff8416835b6000826148d75750600161225f565b816148e45750600061225f565b81600181146148fa576002811461490457614920565b600191505061225f565b60ff84111561491557614915614b15565b50506001821b61225f565b5060208310610133831016604e8410600b8410161715614943575081810a61225f565b61494d838361486e565b806000190482111561496157614961614b15565b029392505050565b60006001600160ff1b038184138284138082168684048611161561498f5761498f614b15565b600160ff1b60008712828116878305891216156149ae576149ae614b15565b600087129250878205871284841616156149ca576149ca614b15565b878505871281841616156149e0576149e0614b15565b505050929093029392505050565b6000816000190483118215151615614a0857614a08614b15565b500290565b60008160060b8360060b6000811281667fffffffffffff1901831281151615614a3857614a38614b15565b81667fffffffffffff018313811615614a5357614a53614b15565b5090039392505050565b600082821015614a6f57614a6f614b15565b500390565b60005b83811015614a8f578181015183820152602001614a77565b83811115613c4b5750506000910152565b60008160020b627fffff19811415614aba57614aba614b15565b6000190192915050565b6000600019821415614ad857614ad8614b15565b5060010190565b60008260060b80614af257614af2614b2b565b808360060b0791505092915050565b600082614b1057614b10614b2b565b500690565b634e487b7160e01b600052601160045260246000fd5b634e487b7160e01b600052601260045260246000fd5b634e487b7160e01b600052602160045260246000fd5b634e487b7160e01b600052603160045260246000fd5b634e487b7160e01b600052603260045260246000fd5b634e487b7160e01b600052604160045260246000fd5b6001600160a01b038116811461210a57600080fdfea26469706673582212203c08d620f70084f8e9727ec25ad1dfb427c6651dec52ad408647ec789317fd3264736f6c63430008070033",
  "deployedBytecode": "0x608060405234801561001057600080fd5b50600436106101d95760003560e01c806393d7fe2c11610104578063da4ae8ef116100a2578063f5ed447c11610071578063f5ed447c146104aa578063fc0c546a146104bd578063fd288280146104e4578063ffd740df146104f757600080fd5b8063da4ae8ef14610451578063dcdfb43114610464578063e0bb91c214610484578063e21e5fe01461049757600080fd5b8063a85c38ef116100de578063a85c38ef146103bc578063b9e0336f14610422578063bea1675814610435578063d31273ca1461043e57600080fd5b806393d7fe2c146103835780639d95f1cc14610396578063a500775e146103a957600080fd5b806340e9eda21161017c5780636938c05d1161014b5780636938c05d146103425780636c83b3d7146103555780636f37d2631461036857806385f276b81461037057600080fd5b806340e9eda2146102c15780634162cc88146102d65780634357855e146102e95780634c37a9d6146102fc57600080fd5b80631c53c280116101b85780631c53c2801461025957806335b03c171461026c5780633c1d5df01461027f5780633c88e882146102ab57600080fd5b8062912b37146101de57806303f39a161461020e57806316fff07414610232575b600080fd5b6008546101f1906001600160a01b031681565b6040516001600160a01b0390911681526020015b60405180910390f35b60065461022290600160c01b900460ff1681565b6040519015158152602001610205565b6101f17f000000000000000000000000000000000000000000000000000000000000000081565b6101f1610267366004614292565b61050a565b6007546101f1906001600160a01b031681565b60065461029690600160a01b900463ffffffff1681565b60405163ffffffff9091168152602001610205565b6102b3610534565b604051908152602001610205565b6102d46102cf366004614165565b610793565b005b6102b36102e4366004614292565b6108d8565b6102d46102f73660046142ab565b6108ef565b61030f61030a3660046142ab565b611466565b604080516001600160401b0395861681529385166020850152918416918301919091529091166060820152608001610205565b6102b361035036600461440a565b6114bb565b6006546101f1906001600160a01b031681565b6102d46119b3565b6102d461037e366004614292565b611ca2565b6102b36103913660046142ab565b611dbc565b6102d46103a4366004614165565b611ded565b6102d46103b736600461444b565b612040565b6104116103ca366004614292565b600d6020526000908152604090205461ffff8116906001600160701b03620100008204169060ff600160801b8204811691600160881b8104821691600160901b9091041685565b604051610205959493929190614744565b6102b36104303660046142ab565b61210d565b6102b360095481565b6102d461044c366004614165565b612265565b6102d461045f366004614165565b61239a565b6102b3610472366004614292565b600e6020526000908152604090205481565b6102d4610492366004614292565b612464565b6102b36104a5366004614292565b61257e565b6102d46104b8366004614292565b6125fb565b6101f17f000000000000000000000000000000000000000000000000000000000000000081565b6102d46104f23660046143da565b612773565b6102d4610505366004614292565b61294b565b600a818154811061051a57600080fd5b6000918252602090912001546001600160a01b0316905081565b60408051600280825260608201835260009283929190602083019080368337019050509050600660149054906101000a900463ffffffff168160008151811061057f5761057f614b6d565b602002602001019063ffffffff16908163ffffffff16815250506000816001815181106105ae576105ae614b6d565b63ffffffff9092166020928302919091019091015260065460405163883bdbfd60e01b81526000916001600160a01b03169063883bdbfd906105f49085906004016145f2565b60006040518083038186803b15801561060c57600080fd5b505afa158015610620573d6000803e3d6000fd5b505050506040513d6000823e601f3d908101601f19168201604052610648919081019061419f565b50905060008160008151811061066057610660614b6d565b60200260200101518260018151811061067b5761067b614b6d565b602002602001015161068d9190614a0d565b600654909150600160a01b900463ffffffff1660030b60006106af828461481c565b905060008360060b1280156106cf57506106c98284614adf565b60060b15155b156106e257806106de81614aa0565b9150505b60006106ed82612b6d565b9050600160601b7f00000000000000000000000000000000000000000000000000000000000000006107296001600160a01b0384168084612ea0565b61073391906149ee565b61073d919061485a565b600654909750600160c01b900460ff1661078a578661077d60027f00000000000000000000000000000000000000000000000000000000000000006148bd565b610787919061485a565b96505b50505050505090565b7f00000000000000000000000000000000000000000000000000000000000000006001600160a01b03166312d43a516040518163ffffffff1660e01b815260040160206040518083038186803b1580156107ec57600080fd5b505afa158015610800573d6000803e3d6000fd5b505050506040513d601f19601f820116820180604052508101906108249190614182565b6001600160a01b0316336001600160a01b03161461085d5760405162461bcd60e51b81526004016108549061466e565b60405180910390fd5b6001600160a01b0381166108835760405162461bcd60e51b815260040161085490614690565b600780546001600160a01b0319166001600160a01b0383169081179091556040519081527f477e87af277e7755f85267ef7c6b77cd28610c2c8c2923acdf55fa5b63f18b77906020015b60405180910390a150565b600b81600281106108e857600080fd5b0154905081565b6000828152600e60209081526040808320805490849055808452600d8352818420825160a081018452815461ffff811682526201000081046001600160701b0316958201959095529194939192909190830190600160801b900460ff16600381111561095d5761095d614b41565b600381111561096e5761096e614b41565b8152905460ff600160881b8204811615156020840152600160901b909104161515604091820152600754825191516307aa801760e21b815261ffff909216600483015291925060009182916001600160a01b0390911690631eaa005c9060240160806040518083038186803b1580156109e657600080fd5b505afa1580156109fa573d6000803e3d6000fd5b505050506040513d601f19601f82011682018060405250810190610a1e9190614340565b90506000610a2b82612f53565b90508360600151156113e857836080015115610ffb57604080516080810182526000808252602082018190528183018190526060820152905163635e061d60e11b81526004810188905273__$0a787ca790b72760fa5f2fae68e461a66f$__9063c6bc0c3a9060240160806040518083038186803b158015610aac57600080fd5b505af4158015610ac0573d6000803e3d6000fd5b505050506040513d601f19601f82011682018060405250810190610ae49190614471565b6001600160401b03908116606086015290811660408501529081166020840181905291168252158015610b22575060408101516001600160401b0316155b80610b85575080600001516001600160401b031681602001516001600160401b031610158015610b6c575080600001516001600160401b031681604001516001600160401b031611155b8015610b855750600081604001516001600160401b0316115b610bc25760405162461bcd60e51b815260206004820152600e60248201526d494e56414c49445f43414e444c4560901b6044820152606401610854565b610bde81602001516001600160401b031683856060015161310c565b8015610c015750610c0181604001516001600160401b031683856060015161310c565b15610ff557600086815260106020908152604080832080546001818101835582865294849020865191018054948701519387015160608801516001600160401b03908116600160c01b026001600160c01b03928216600160801b02929092166fffffffffffffffffffffffffffffffff968216600160401b026001600160801b03199098169190941617959095179390931617929092179055600954815492965090911415610ff357610ce36040518060c001604052806000815260200160008152602001600081526020016000815260200160008152602001600081525090565b878152815460408051602080840282018101909252828152610d7992909185919060009084015b82821015610d7057600084815260209081902060408051608081018252918501546001600160401b038082168452600160401b8204811684860152600160801b8204811692840192909252600160c01b9004166060820152825260019092019101610d0a565b50505050613171565b60a084015260808301526060820152600754875160405163a1d54e9b60e01b815261ffff90911660048201526001600160a01b039091169063a1d54e9b9060240160206040518083038186803b158015610dd257600080fd5b505afa158015610de6573d6000803e3d6000fd5b505050506040513d601f19601f82011682018060405250810190610e0a91906143c1565b81604001818152505060007f00000000000000000000000000000000000000000000000000000000000000006001600160a01b031662b127836040518163ffffffff1660e01b815260040160206040518083038186803b158015610e6d57600080fd5b505afa158015610e81573d6000803e3d6000fd5b505050506040513d601f19601f82011682018060405250810190610ea59190614182565b9050600288604001516003811115610ebf57610ebf614b41565b1415610f285760405163168fdc8160e31b81526001600160a01b0382169063b47ee40890610ef19085906004016146b1565b600060405180830381600087803b158015610f0b57600080fd5b505af1158015610f1f573d6000803e3d6000fd5b50505050610f87565b6040516323f7197b60e01b81526001600160a01b038216906323f7197b90610f549085906004016146b1565b600060405180830381600087803b158015610f6e57600080fd5b505af1158015610f82573d6000803e3d6000fd5b505050505b7fce3ae2fe07e497ba552d6485a40eed46cfb3320f001027891efeb1128dba0350828960400151604051610fbc9291906146f4565b60405180910390a16000898152600d60209081526040808320805460ff60881b1916905560109091528120610ff091613fdf565b50505b505b506113e8565b60405163635e061d60e11b81526004810187905260009073__$0a787ca790b72760fa5f2fae68e461a66f$__9063c6bc0c3a9060240160806040518083038186803b15801561104957600080fd5b505af415801561105d573d6000803e3d6000fd5b505050506040513d601f19601f820116820180604052508101906110819190614471565b505050905061109e816001600160401b031683856060015161310c565b156113e6576000868152600f602090815260408220805460018181018355828552929093206001600160401b038516930192909255600954825491965014156113e45761111a6040518060c001604052806000815260200160008152602001600081526020016000815260200160008152602001600081525090565b87815281546040805160208084028201810190925282815261117492909185919083018282801561116a57602002820191906000526020600020905b815481526020019060010190808311611156575b50505050506134f2565b6020820152600754875160405163a1d54e9b60e01b815261ffff90911660048201526001600160a01b039091169063a1d54e9b9060240160206040518083038186803b1580156111c357600080fd5b505afa1580156111d7573d6000803e3d6000fd5b505050506040513d601f19601f820116820180604052508101906111fb91906143c1565b81604001818152505060007f00000000000000000000000000000000000000000000000000000000000000006001600160a01b031662b127836040518163ffffffff1660e01b815260040160206040518083038186803b15801561125e57600080fd5b505afa158015611272573d6000803e3d6000fd5b505050506040513d601f19601f820116820180604052508101906112969190614182565b90506000886040015160038111156112b0576112b0614b41565b1415611319576040516361ba6c3d60e01b81526001600160a01b038216906361ba6c3d906112e29085906004016146b1565b600060405180830381600087803b1580156112fc57600080fd5b505af1158015611310573d6000803e3d6000fd5b50505050611378565b604051637d490caf60e01b81526001600160a01b03821690637d490caf906113459085906004016146b1565b600060405180830381600087803b15801561135f57600080fd5b505af1158015611373573d6000803e3d6000fd5b505050505b7fce3ae2fe07e497ba552d6485a40eed46cfb3320f001027891efeb1128dba03508289604001516040516113ad9291906146f4565b60405180910390a16000898152600d60209081526040808320805460ff60881b19169055600f90915281206113e191613fdf565b50505b505b505b8351602080860151608080880151604080518d81529485018c90528481018790526001600160701b03909316606085015215159083015285151560a08301525161ffff90921691339188917fdc6ff5906123aad281d8e734bb64101cea661d614a568b9bca20e7ac2ae7f3549181900360c00190a450505050505050565b6010602052816000526040600020818154811061148257600080fd5b6000918252602090912001546001600160401b038082169350600160401b820481169250600160801b8204811691600160c01b90041684565b60007f00000000000000000000000000000000000000000000000000000000000000006001600160a01b031663ec44acf26040518163ffffffff1660e01b815260040160206040518083038186803b15801561151657600080fd5b505afa15801561152a573d6000803e3d6000fd5b505050506040513d601f19601f8201168201806040525081019061154e9190614182565b6001600160a01b0316336001600160a01b03161461159d5760405162461bcd60e51b815260206004820152600c60248201526b54524144494e475f4f4e4c5960a01b6044820152606401610854565b61ffff8511156115df5760405162461bcd60e51b815260206004820152600d60248201526c504149525f4f564552464c4f5760981b6044820152606401610854565b600060028560038111156115f5576115f5614b41565b14806116125750600385600381111561161057611610614b41565b145b905060008161162357600b54611627565b600c545b9050600061163d82306321abc2af60e11b6135b0565b600754604051630c0be07f60e21b8152600481018b90529192506000918291829182916001600160a01b03169063302f81fc90602401600060405180830381600087803b15801561168d57600080fd5b505af11580156116a1573d6000803e3d6000fd5b505050506040513d6000823e601f3d908101601f191682016040526116c991908101906142cd565b935050925092508093506117046040518060400160405280600481526020016366726f6d60e01b81525084876135d59092919063ffffffff16565b604080518082019091526002815261746f60f01b6020820152611729908690846135d5565b861561175b5760408051808201909152600981526866726f6d426c6f636b60b81b602082015261175b9086908b6135f8565b5050506000806000600a8054806020026020016040519081016040528092919081815260200182805480156117b957602002820191906000526020600020905b81546001600160a01b0316815260019091019060200180831161179b575b5050505050905080519250826117cf8d8c61210d565b6117d9919061485a565b91506001600160701b038211156118225760405162461bcd60e51b815260206004820152600d60248201526c4c494e4b5f4f564552464c4f5760981b6044820152606401610854565b6040518060a001604052808d61ffff168152602001836001600160701b031681526020018c600381111561185857611858614b41565b815260016020808301919091528915156040928301526000878152600d825282902083518154928501516001600160701b031662010000026001600160801b031990931661ffff9091161791909117808255918301519091829060ff60801b1916600160801b8360038111156118d0576118d0614b41565b0217905550606082015181546080909301511515600160901b0260ff60901b19911515600160881b029190911661ffff60881b199093169290921791909117905560005b8381101561195e5784600e600061194585858151811061193657611936614b6d565b60200260200101518a88613616565b8152602081019190915260400160002055600101611914565b50508a85847ffadf91896d9352ab1e350a349050907f966d8ea7f38c1a5be50f2a379ef4fcbe8d86868e8d60405161199a95949392919061463c565b60405180910390a450909450505050505b949350505050565b7f00000000000000000000000000000000000000000000000000000000000000006001600160a01b03166312d43a516040518163ffffffff1660e01b815260040160206040518083038186803b158015611a0c57600080fd5b505afa158015611a20573d6000803e3d6000fd5b505050506040513d601f19601f82011682018060405250810190611a449190614182565b6001600160a01b0316336001600160a01b031614611a745760405162461bcd60e51b81526004016108549061466e565b60007f00000000000000000000000000000000000000000000000000000000000000006001600160a01b031663fece4eac6040518163ffffffff1660e01b815260040160206040518083038186803b158015611acf57600080fd5b505afa158015611ae3573d6000803e3d6000fd5b505050506040513d601f19601f82011682018060405250810190611b079190614182565b9050806001600160a01b031663a9059cbb7f00000000000000000000000000000000000000000000000000000000000000006001600160a01b03166312d43a516040518163ffffffff1660e01b815260040160206040518083038186803b158015611b7157600080fd5b505afa158015611b85573d6000803e3d6000fd5b505050506040513d601f19601f82011682018060405250810190611ba99190614182565b6040516370a0823160e01b81523060048201526001600160a01b038516906370a082319060240160206040518083038186803b158015611be857600080fd5b505afa158015611bfc573d6000803e3d6000fd5b505050506040513d601f19601f82011682018060405250810190611c2091906143c1565b6040516001600160e01b031960e085901b1681526001600160a01b0390921660048301526024820152604401602060405180830381600087803b158015611c6657600080fd5b505af1158015611c7a573d6000803e3d6000fd5b505050506040513d601f19601f82011682018060405250810190611c9e9190614270565b5050565b7f00000000000000000000000000000000000000000000000000000000000000006001600160a01b03166312d43a516040518163ffffffff1660e01b815260040160206040518083038186803b158015611cfb57600080fd5b505afa158015611d0f573d6000803e3d6000fd5b505050506040513d601f19601f82011682018060405250810190611d339190614182565b6001600160a01b0316336001600160a01b031614611d635760405162461bcd60e51b81526004016108549061466e565b80611d805760405162461bcd60e51b815260040161085490614690565b600b8190556040805160008152602081018390527f764c19c693af0da42ec6c6bed68a2dd1a2fa93d24785fcfce58ffa29ae31360691016108cd565b600f6020528160005260406000208181548110611dd857600080fd5b90600052602060002001600091509150505481565b7f00000000000000000000000000000000000000000000000000000000000000006001600160a01b03166312d43a516040518163ffffffff1660e01b815260040160206040518083038186803b158015611e4657600080fd5b505afa158015611e5a573d6000803e3d6000fd5b505050506040513d601f19601f82011682018060405250810190611e7e9190614182565b6001600160a01b0316336001600160a01b031614611eae5760405162461bcd60e51b81526004016108549061466e565b6001600160a01b038116611ed45760405162461bcd60e51b815260040161085490614690565b600a54601411611f195760405162461bcd60e51b815260206004820152601060248201526f4d41585f4f5241434c455f4e4f44455360801b6044820152606401610854565b60005b600a54811015611fa957816001600160a01b0316600a8281548110611f4357611f43614b6d565b6000918252602090912001546001600160a01b03161415611f975760405162461bcd60e51b815260206004820152600e60248201526d1053149150511657d31254d5115160921b6044820152606401610854565b80611fa181614ac4565b915050611f1c565b50600a80546001808201835560008390527fc65a7bb8d6351c1cf70c95a316cc6a92839c986682d98bc35f958f4883f9d2a890910180546001600160a01b0319166001600160a01b03851617905590547fadfedad3d82b3775bf2dbea70a01327d1f26c0b868eb8ce0963a6e9af1003e859161202491614a5d565b604080519182526001600160a01b0384166020830152016108cd565b7f00000000000000000000000000000000000000000000000000000000000000006001600160a01b03166312d43a516040518163ffffffff1660e01b815260040160206040518083038186803b15801561209957600080fd5b505afa1580156120ad573d6000803e3d6000fd5b505050506040513d601f19601f820116820180604052508101906120d19190614182565b6001600160a01b0316336001600160a01b0316146121015760405162461bcd60e51b81526004016108549061466e565b61210a816136a9565b50565b600080600860009054906101000a90046001600160a01b03166001600160a01b031663feaf968c6040518163ffffffff1660e01b815260040160a06040518083038186803b15801561215e57600080fd5b505afa158015612172573d6000803e3d6000fd5b505050506040513d601f19601f8201168201806040525081019061219691906144c5565b505060075460405163f7acbabd60e01b815260048101899052929450606493506402540be4009285925087916001600160a01b03169063f7acbabd9060240160206040518083038186803b1580156121ed57600080fd5b505afa158015612201573d6000803e3d6000fd5b505050506040513d601f19601f8201168201806040525081019061222591906143c1565b61222f91906149ee565b61223d906305f5e1006149ee565b612247919061485a565b612251919061485a565b61225b919061485a565b9150505b92915050565b7f00000000000000000000000000000000000000000000000000000000000000006001600160a01b03166312d43a516040518163ffffffff1660e01b815260040160206040518083038186803b1580156122be57600080fd5b505afa1580156122d2573d6000803e3d6000fd5b505050506040513d601f19601f820116820180604052508101906122f69190614182565b6001600160a01b0316336001600160a01b0316146123265760405162461bcd60e51b81526004016108549061466e565b6001600160a01b03811661234c5760405162461bcd60e51b815260040161085490614690565b600880546001600160a01b0319166001600160a01b0383169081179091556040519081527f2504020720d4f3f4c5a7010cde1f1e76e9a22857f308ef695d666ed1237bf8a4906020016108cd565b7f00000000000000000000000000000000000000000000000000000000000000006001600160a01b03166312d43a516040518163ffffffff1660e01b815260040160206040518083038186803b1580156123f357600080fd5b505afa158015612407573d6000803e3d6000fd5b505050506040513d601f19601f8201168201806040525081019061242b9190614182565b6001600160a01b0316336001600160a01b03161461245b5760405162461bcd60e51b81526004016108549061466e565b61210a81613757565b7f00000000000000000000000000000000000000000000000000000000000000006001600160a01b03166312d43a516040518163ffffffff1660e01b815260040160206040518083038186803b1580156124bd57600080fd5b505afa1580156124d1573d6000803e3d6000fd5b505050506040513d601f19601f820116820180604052508101906124f59190614182565b6001600160a01b0316336001600160a01b0316146125255760405162461bcd60e51b81526004016108549061466e565b806125425760405162461bcd60e51b815260040161085490614690565b600c8190556040805160018152602081018390527f764c19c693af0da42ec6c6bed68a2dd1a2fa93d24785fcfce58ffa29ae31360691016108cd565b600754604051638251135b60e01b8152600481018390526000916001600160a01b031690638251135b9060240160206040518083038186803b1580156125c357600080fd5b505afa1580156125d7573d6000803e3d6000fd5b505050506040513d601f19601f8201168201806040525081019061225f91906143c1565b7f00000000000000000000000000000000000000000000000000000000000000006001600160a01b03166312d43a516040518163ffffffff1660e01b815260040160206040518083038186803b15801561265457600080fd5b505afa158015612668573d6000803e3d6000fd5b505050506040513d601f19601f8201168201806040525081019061268c9190614182565b6001600160a01b0316336001600160a01b0316146126bc5760405162461bcd60e51b81526004016108549061466e565b60018110156126fb5760405162461bcd60e51b815260206004820152600b60248201526a4d494e5f414e535745525360a81b6044820152606401610854565b612706600282614b01565b60011461273e5760405162461bcd60e51b81526004016108549060208082526004908201526322ab22a760e11b604082015260600190565b60098190556040518181527f230365d79885046a48c9158f0e4840ab95929bbebf5de4be23f7ce5f91a97c65906020016108cd565b7f00000000000000000000000000000000000000000000000000000000000000006001600160a01b03166312d43a516040518163ffffffff1660e01b815260040160206040518083038186803b1580156127cc57600080fd5b505afa1580156127e0573d6000803e3d6000fd5b505050506040513d601f19601f820116820180604052508101906128049190614182565b6001600160a01b0316336001600160a01b0316146128345760405162461bcd60e51b81526004016108549061466e565b600a5482106128735760405162461bcd60e51b815260206004820152600b60248201526a0aea49e9c8ebe929c888ab60ab1b6044820152606401610854565b6001600160a01b0381166128995760405162461bcd60e51b815260040161085490614690565b7f945eb5535c35fb8b656c5c6b7d8bb9d9deba3a44d202bd2b53d58aac4f43db0482600a84815481106128ce576128ce614b6d565b60009182526020918290200154604080519384526001600160a01b039182169284019290925284169082015260600160405180910390a180600a838154811061291957612919614b6d565b9060005260206000200160006101000a8154816001600160a01b0302191690836001600160a01b031602179055505050565b7f00000000000000000000000000000000000000000000000000000000000000006001600160a01b03166312d43a516040518163ffffffff1660e01b815260040160206040518083038186803b1580156129a457600080fd5b505afa1580156129b8573d6000803e3d6000fd5b505050506040513d601f19601f820116820180604052508101906129dc9190614182565b6001600160a01b0316336001600160a01b031614612a0c5760405162461bcd60e51b81526004016108549061466e565b600a548110612a4b5760405162461bcd60e51b815260206004820152600b60248201526a0aea49e9c8ebe929c888ab60ab1b6044820152606401610854565b7f03082ced7b8d3c831a021af877c172ae1e0257c3522a135e4d7161343846115681600a8381548110612a8057612a80614b6d565b600091825260209091200154604051612ab592916001600160a01b0316909182526001600160a01b0316602082015260400190565b60405180910390a1600a8054612acd90600190614a5d565b81548110612add57612add614b6d565b600091825260209091200154600a80546001600160a01b039092169183908110612b0957612b09614b6d565b9060005260206000200160006101000a8154816001600160a01b0302191690836001600160a01b03160217905550600a805480612b4857612b48614b57565b600082815260209020810160001990810180546001600160a01b031916905501905550565b60008060008360020b12612b84578260020b612b8c565b8260020b6000035b9050620d89e8811115612bc55760405162461bcd60e51b81526020600482015260016024820152601560fa1b6044820152606401610854565b600060018216612bd957600160801b612beb565b6ffffcb933bd6fad37aa2d162d1a5940015b70ffffffffffffffffffffffffffffffffff1690506002821615612c1f576ffff97272373d413259a46990580e213a0260801c5b6004821615612c3e576ffff2e50f5f656932ef12357cf3c7fdcc0260801c5b6008821615612c5d576fffe5caca7e10e4e61c3624eaa0941cd00260801c5b6010821615612c7c576fffcb9843d60f6159c9db58835c9266440260801c5b6020821615612c9b576fff973b41fa98c081472e6896dfb254c00260801c5b6040821615612cba576fff2ea16466c96a3843ec78b326b528610260801c5b6080821615612cd9576ffe5dee046a99a2a811c461f1969c30530260801c5b610100821615612cf9576ffcbe86c7900a88aedcffc83b479aa3a40260801c5b610200821615612d19576ff987a7253ac413176f2b074cf7815e540260801c5b610400821615612d39576ff3392b0822b70005940c7a398e4b70f30260801c5b610800821615612d59576fe7159475a2c29b7443b29c7fa6e889d90260801c5b611000821615612d79576fd097f3bdfd2022b8845ad8f792aa58250260801c5b612000821615612d99576fa9f746462d870fdf8a65dc1f90e061e50260801c5b614000821615612db9576f70d869a156d2a1b890bb3df62baf32f70260801c5b618000821615612dd9576f31be135f97d08fd981231505542fcfa60260801c5b62010000821615612dfa576f09aa508b5b7a84e1c677de54f3e99bc90260801c5b62020000821615612e1a576e5d6af8dedb81196699c329225ee6040260801c5b62040000821615612e39576d2216e584f5fa1ea926041bedfe980260801c5b62080000821615612e56576b048a170391f7dc42444e8fa20260801c5b60008460020b1315612e77578060001981612e7357612e73614b2b565b0490505b640100000000810615612e8b576001612e8e565b60005b60ff16602082901c0192505050919050565b600080806000198587098587029250828110838203039150508060001415612eda5760008411612ecf57600080fd5b508290049050612f4c565b808411612ee657600080fd5b60008486880960018619810187169687900496828603819004959092119093036000829003919091049092019190910291909117600260038502811880860282030280860282030280860282030280860282030280860282030280860290910302029150505b9392505050565b80516000906001600160a01b0316612f6d57506000919050565b60008083600001516001600160a01b031663feaf968c6040518163ffffffff1660e01b815260040160a06040518083038186803b158015612fad57600080fd5b505afa158015612fc1573d6000803e3d6000fd5b505050506040513d601f19601f82011682018060405250810190612fe591906144c5565b5091935060009250612ff5915050565b8460400151600281111561300b5761300b614b41565b1415613036576305f5e1006130256402540be40083614969565b61302f91906147ee565b9150613105565b60018460400151600281111561304e5761304e614b41565b141561306857806130256402540be4006305f5e100614969565b600084602001516001600160a01b031663feaf968c6040518163ffffffff1660e01b815260040160a06040518083038186803b1580156130a757600080fd5b505afa1580156130bb573d6000803e3d6000fd5b505050506040513d601f19601f820116820180604052508101906130df91906144c5565b505050915050806402540be400836130f79190614969565b61310191906147ee565b9250505b5092915050565b6000831580613119575082155b806119ab575081836402540be4008587101561313e576131398787614a5d565b613148565b6131488688614a5d565b61315291906149ee565b61315d9060646149ee565b613167919061485a565b1115949350505050565b600080600080845190506000816001600160401b0381111561319557613195614b83565b6040519080825280602002602001820160405280156131be578160200160208202803683370190505b5090506000826001600160401b038111156131db576131db614b83565b604051908082528060200260200182016040528015613204578160200160208202803683370190505b5090506000836001600160401b0381111561322157613221614b83565b60405190808252806020026020018201604052801561324a578160200160208202803683370190505b50905060005b8481101561332e5788818151811061326a5761326a614b6d565b6020026020010151600001516001600160401b031684828151811061329157613291614b6d565b6020026020010181815250508881815181106132af576132af614b6d565b6020026020010151602001516001600160401b03168382815181106132d6576132d6614b6d565b6020026020010181815250508881815181106132f4576132f4614b6d565b6020026020010151604001516001600160401b031682828151811061331b5761331b614b6d565b6020908102919091010152600101613250565b5061333b836000866138a6565b613347826000866138a6565b613353816000866138a6565b6000613360600286614b01565b159050600061337060028761485a565b9050816133965784818151811061338957613389614b6d565b60200260200101516133ec565b60028582815181106133aa576133aa614b6d565b6020026020010151866001846133c09190614a5d565b815181106133d0576133d0614b6d565b60200260200101516133e291906147d6565b6133ec919061485a565b9850816134125783818151811061340557613405614b6d565b6020026020010151613468565b600284828151811061342657613426614b6d565b60200260200101518560018461343c9190614a5d565b8151811061344c5761344c614b6d565b602002602001015161345e91906147d6565b613468919061485a565b97508161348e5782818151811061348157613481614b6d565b60200260200101516134e4565b60028382815181106134a2576134a2614b6d565b6020026020010151846001846134b89190614a5d565b815181106134c8576134c8614b6d565b60200260200101516134da91906147d6565b6134e4919061485a565b989a97995050505050505050565b600061350182600084516138a6565b6002825161350f9190614b01565b15613540578160028351613523919061485a565b8151811061353357613533614b6d565b602002602001015161225f565b60028260028451613551919061485a565b8151811061356157613561614b6d565b60200260200101518360016002865161357a919061485a565b6135849190614a5d565b8151811061359457613594614b6d565b60200260200101516135a691906147d6565b61225f919061485a565b6135b8613ffd565b6135c0613ffd565b6135cc81868686613969565b95945050505050565b60808301516135e490836139a6565b60808301516135f390826139a6565b505050565b608083015161360790836139a6565b60808301516135f390826139bd565b6004546000906136278160016147d6565b600455835160408086015160808701515191516000936320214ca360e11b9361365f9386938493923092918a91600191602401614563565b60408051601f198184030181529190526020810180516001600160e01b03166001600160e01b031990931692909217909152905061369f868386846139e2565b9695505050505050565b61038463ffffffff8216108015906136c9575061384063ffffffff821611155b6137035760405162461bcd60e51b815260206004820152600b60248201526a57524f4e475f56414c554560a81b6044820152606401610854565b6006805463ffffffff60a01b1916600160a01b63ffffffff8416908102919091179091556040519081527fc99f383ecd620c333255bd2aef929eedd6808999bac9bfc5f53e10d876abf1ce906020016108cd565b6001600160a01b03811661379b5760405162461bcd60e51b815260206004820152600b60248201526a57524f4e475f56414c554560a81b6044820152606401610854565b600680546001600160a01b0319166001600160a01b0383811691821790925560408051630dfe168160e01b815290517f000000000000000000000000000000000000000000000000000000000000000090931692630dfe168191600480820192602092909190829003018186803b15801561381557600080fd5b505afa158015613829573d6000803e3d6000fd5b505050506040513d601f19601f8201168201806040525081019061384d9190614182565b6006805460ff60c01b19166001600160a01b0392831693909314600160c01b029290921790915560405190821681527fb9c36e5afdbe55e259bdc128e25c13a15f33271cc71599ce0df510b21c3e8da9906020016108cd565b8082106138b257505050565b600082905060008482815181106138cb576138cb614b6d565b6020026020010151905060008460016138e491906147d6565b90505b83811015613936578186828151811061390257613902614b6d565b6020026020010151101561392657613926868261391e86614ac4565b955085613b4f565b61392f81614ac4565b90506138e7565b50613942858584613b4f565b61394d8585846138a6565b6139628561395c8460016147d6565b856138a6565b5050505050565b613971613ffd565b6139818560800151610100613bc2565b50509183526001600160a01b031660208301526001600160e01b031916604082015290565b6139b38260038351613c27565b6135f38282613d34565b6001600160401b038111156139d657611c9e8282613d5b565b611c9e82600083613c27565b6040516bffffffffffffffffffffffff193060601b1660208201526034810184905260009060540160408051808303601f1901815282825280516020918201206000818152600590925291812080546001600160a01b0319166001600160a01b038a1617905590925082917fb5e6e01e79f91267dc17b4e6314d5d4d03593d2ceee0fbb452b750bd70ea5af99190a2600254604051630200057560e51b81526001600160a01b0390911690634000aea090613aa5908890879087906004016145cb565b602060405180830381600087803b158015613abf57600080fd5b505af1158015613ad3573d6000803e3d6000fd5b505050506040513d601f19601f82011682018060405250810190613af79190614270565b6119ab5760405162461bcd60e51b815260206004820152602360248201527f756e61626c6520746f207472616e73666572416e6443616c6c20746f206f7261604482015262636c6560e81b6064820152608401610854565b828181518110613b6157613b61614b6d565b6020026020010151838381518110613b7b57613b7b614b6d565b6020026020010151848481518110613b9557613b95614b6d565b60200260200101858481518110613bae57613bae614b6d565b602090810291909101019190915252505050565b604080518082019091526060815260006020820152613be2602083614b01565b15613c0a57613bf2602083614b01565b613bfd906020614a5d565b613c0790836147d6565b91505b506020828101829052604080518085526000815290920101905290565b6017816001600160401b031611613c5157613c4b8360e0600585901b168317613d92565b50505050565b60ff816001600160401b031611613c8d57613c77836018611fe0600586901b1617613d92565b50613c4b836001600160401b0383166001613db7565b61ffff816001600160401b031611613cca57613cb4836019611fe0600586901b1617613d92565b50613c4b836001600160401b0383166002613db7565b63ffffffff816001600160401b031611613d0957613cf383601a611fe0600586901b1617613d92565b50613c4b836001600160401b0383166004613db7565b613d1e83601b611fe0600586901b1617613d92565b50613c4b836001600160401b0383166008613db7565b604080518082019091526060815260006020820152612f4c83846000015151848551613ddd565b613d668260c2613d92565b50611c9e8282604051602001613d7e91815260200190565b604051602081830303815290604052613ec7565b604080518082019091526060815260006020820152612f4c8384600001515184613ed4565b6040805180820190915260608152600060208201526119ab848560000151518585613f30565b6040805180820190915260608152600060208201528251821115613e0057600080fd5b6020850151613e0f83866147d6565b1115613e4257613e4285613e3287602001518786613e2d91906147d6565b613fb1565b613e3d9060026149ee565b613fc8565b600080865180518760208301019350808887011115613e615787860182525b505050602084015b60208410613ea15780518252613e806020836147d6565b9150613e8d6020826147d6565b9050613e9a602085614a5d565b9350613e69565b51815160001960208690036101000a019081169019919091161790525083949350505050565b6139b38260028351613c27565b60408051808201909152606081526000602082015283602001518310613f0957613f098485602001516002613e3d91906149ee565b835180516020858301018481535080851415613f26576001810182525b5093949350505050565b6040805180820190915260608152600060208201526020850151613f5485846147d6565b1115613f6857613f6885613e3286856147d6565b60006001613f78846101006148b1565b613f829190614a5d565b9050855183868201018583198251161781525080518487011115613fa65783860181525b509495945050505050565b600081831115613fc257508161225f565b50919050565b8151613fd48383613bc2565b50613c4b8382613d34565b508054600082559060005260206000209081019061210a9190614038565b6040805160a0810182526000808252602080830182905282840182905260608084018390528451808601909552845283015290608082015290565b5b8082111561404d5760008155600101614039565b5090565b600082601f83011261406257600080fd5b81516020614077614072836147b3565b614783565b80838252828201915082860187848660051b890101111561409757600080fd5b60005b858110156140bf5781516140ad81614b99565b8452928401929084019060010161409a565b5090979650505050505050565b600082601f8301126140dd57600080fd5b81516001600160401b038111156140f6576140f6614b83565b614109601f8201601f1916602001614783565b81815284602083860101111561411e57600080fd5b6119ab826020830160208701614a74565b80516001600160401b038116811461414657600080fd5b919050565b805169ffffffffffffffffffff8116811461414657600080fd5b60006020828403121561417757600080fd5b8135612f4c81614b99565b60006020828403121561419457600080fd5b8151612f4c81614b99565b600080604083850312156141b257600080fd5b82516001600160401b03808211156141c957600080fd5b818501915085601f8301126141dd57600080fd5b815160206141ed614072836147b3565b8083825282820191508286018a848660051b890101111561420d57600080fd5b600096505b8487101561423f5780518060060b811461422b57600080fd5b835260019690960195918301918301614212565b509188015191965090935050508082111561425957600080fd5b5061426685828601614051565b9150509250929050565b60006020828403121561428257600080fd5b81518015158114612f4c57600080fd5b6000602082840312156142a457600080fd5b5035919050565b600080604083850312156142be57600080fd5b50508035926020909101359150565b600080600080608085870312156142e357600080fd5b84516001600160401b03808211156142fa57600080fd5b614306888389016140cc565b9550602087015191508082111561431c57600080fd5b50614329878288016140cc565b604087015160609097015195989097509350505050565b60006080828403121561435257600080fd5b604051608081018181106001600160401b038211171561437457614374614b83565b604052825161438281614b99565b8152602083015161439281614b99565b60208201526040830151600381106143a957600080fd5b60408201526060928301519281019290925250919050565b6000602082840312156143d357600080fd5b5051919050565b600080604083850312156143ed57600080fd5b8235915060208301356143ff81614b99565b809150509250929050565b6000806000806080858703121561442057600080fd5b8435935060208501356004811061443657600080fd5b93969395505050506040820135916060013590565b60006020828403121561445d57600080fd5b813563ffffffff81168114612f4c57600080fd5b6000806000806080858703121561448757600080fd5b6144908561412f565b935061449e6020860161412f565b92506144ac6040860161412f565b91506144ba6060860161412f565b905092959194509250565b600080600080600060a086880312156144dd57600080fd5b6144e68661414b565b94506020860151935060408601519250606086015191506145096080870161414b565b90509295509295909350565b6000815180845261452d816020860160208601614a74565b601f01601f19169290920160200192915050565b6004811061455f57634e487b7160e01b600052602160045260246000fd5b9052565b6001600160a01b0389811682526020820189905260408201889052861660608201526001600160e01b03198516608082015260a0810184905260c0810183905261010060e082018190526000906145bc83820185614515565b9b9a5050505050505050505050565b60018060a01b03841681528260208201526060604082015260006135cc6060830184614515565b6020808252825182820181905260009190848201906040850190845b8181101561463057835163ffffffff168352928401929184019160010161460e565b50909695505050505050565b60a0810161464a8288614541565b85602083015284604083015283606083015282151560808301529695505050505050565b602080825260089082015267474f565f4f4e4c5960c01b604082015260600190565b602080825260079082015266056414c55455f360cc1b604082015260600190565b60c0810161225f8284805182526020810151602083015260408101516040830152606081015160608301526080810151608083015260a081015160a08301525050565b60e081016147378285805182526020810151602083015260408101516040830152606081015160608301526080810151608083015260a081015160a08301525050565b612f4c60c0830184614541565b61ffff861681526001600160701b038516602082015260a0810161476b6040830186614541565b92151560608201529015156080909101529392505050565b604051601f8201601f191681016001600160401b03811182821017156147ab576147ab614b83565b604052919050565b60006001600160401b038211156147cc576147cc614b83565b5060051b60200190565b600082198211156147e9576147e9614b15565b500190565b6000826147fd576147fd614b2b565b600160ff1b82146000198414161561481757614817614b15565b500590565b60008160060b8360060b8061483357614833614b2b565b667fffffffffffff1982146000198214161561485157614851614b15565b90059392505050565b60008261486957614869614b2b565b500490565b600181815b808511156148a957816000190482111561488f5761488f614b15565b8085161561489c57918102915b93841c9390800290614873565b509250929050565b6000612f4c83836148c8565b6000612f4c60ff8416835b6000826148d75750600161225f565b816148e45750600061225f565b81600181146148fa576002811461490457614920565b600191505061225f565b60ff84111561491557614915614b15565b50506001821b61225f565b5060208310610133831016604e8410600b8410161715614943575081810a61225f565b61494d838361486e565b806000190482111561496157614961614b15565b029392505050565b60006001600160ff1b038184138284138082168684048611161561498f5761498f614b15565b600160ff1b60008712828116878305891216156149ae576149ae614b15565b600087129250878205871284841616156149ca576149ca614b15565b878505871281841616156149e0576149e0614b15565b505050929093029392505050565b6000816000190483118215151615614a0857614a08614b15565b500290565b60008160060b8360060b6000811281667fffffffffffff1901831281151615614a3857614a38614b15565b81667fffffffffffff018313811615614a5357614a53614b15565b5090039392505050565b600082821015614a6f57614a6f614b15565b500390565b60005b83811015614a8f578181015183820152602001614a77565b83811115613c4b5750506000910152565b60008160020b627fffff19811415614aba57614aba614b15565b6000190192915050565b6000600019821415614ad857614ad8614b15565b5060010190565b60008260060b80614af257614af2614b2b565b808360060b0791505092915050565b600082614b1057614b10614b2b565b500690565b634e487b7160e01b600052601160045260246000fd5b634e487b7160e01b600052601260045260246000fd5b634e487b7160e01b600052602160045260246000fd5b634e487b7160e01b600052603160045260246000fd5b634e487b7160e01b600052603260045260246000fd5b634e487b7160e01b600052604160045260246000fd5b6001600160a01b038116811461210a57600080fdfea26469706673582212203c08d620f70084f8e9727ec25ad1dfb427c6651dec52ad408647ec789317fd3264736f6c63430008070033",
  "libraries": {
    "PackingUtils": "0x5FC8d32690cc91D4c39d9d3abcBD16989F875707"
  },
  "devdoc": {
    "kind": "dev",
    "methods": {},
    "version": 1
  },
  "userdoc": {
    "kind": "user",
    "methods": {},
    "version": 1
  },
  "storageLayout": {
    "storage": [
      {
        "astId": 1419,
        "contract": "contracts/contracts/GNSPriceAggregatorV6_4.sol:GNSPriceAggregatorV6_4",
        "label": "s_ens",
        "offset": 0,
        "slot": "0",
        "type": "t_contract(ENSInterface)2074"
      },
      {
        "astId": 1421,
        "contract": "contracts/contracts/GNSPriceAggregatorV6_4.sol:GNSPriceAggregatorV6_4",
        "label": "s_ensNode",
        "offset": 0,
        "slot": "1",
        "type": "t_bytes32"
      },
      {
        "astId": 1424,
        "contract": "contracts/contracts/GNSPriceAggregatorV6_4.sol:GNSPriceAggregatorV6_4",
        "label": "s_link",
        "offset": 0,
        "slot": "2",
        "type": "t_contract(LinkTokenInterface)2296"
      },
      {
        "astId": 1427,
        "contract": "contracts/contracts/GNSPriceAggregatorV6_4.sol:GNSPriceAggregatorV6_4",
        "label": "s_oracle",
        "offset": 0,
        "slot": "3",
        "type": "t_contract(OperatorInterface)2154"
      },
      {
        "astId": 1430,
        "contract": "contracts/contracts/GNSPriceAggregatorV6_4.sol:GNSPriceAggregatorV6_4",
        "label": "s_requestCount",
        "offset": 0,
        "slot": "4",
        "type": "t_uint256"
      },
      {
        "astId": 1434,
        "contract": "contracts/contracts/GNSPriceAggregatorV6_4.sol:GNSPriceAggregatorV6_4",
        "label": "s_pendingRequests",
        "offset": 0,
        "slot": "5",
        "type": "t_mapping(t_bytes32,t_address)"
      },
      {
        "astId": 6572,
        "contract": "contracts/contracts/GNSPriceAggregatorV6_4.sol:GNSPriceAggregatorV6_4",
        "label": "uniV3Pool",
        "offset": 0,
        "slot": "6",
        "type": "t_contract(IUniswapV3Pool)21"
      },
      {
        "astId": 6574,
        "contract": "contracts/contracts/GNSPriceAggregatorV6_4.sol:GNSPriceAggregatorV6_4",
        "label": "twapInterval",
        "offset": 20,
        "slot": "6",
        "type": "t_uint32"
      },
      {
        "astId": 6576,
        "contract": "contracts/contracts/GNSPriceAggregatorV6_4.sol:GNSPriceAggregatorV6_4",
        "label": "isGnsToken0InLp",
        "offset": 24,
        "slot": "6",
        "type": "t_bool"
      },
      {
        "astId": 3300,
        "contract": "contracts/contracts/GNSPriceAggregatorV6_4.sol:GNSPriceAggregatorV6_4",
        "label": "pairsStorage",
        "offset": 0,
        "slot": "7",
        "type": "t_contract(PairsStorageInterfaceV6)5400"
      },
      {
        "astId": 3303,
        "contract": "contracts/contracts/GNSPriceAggregatorV6_4.sol:GNSPriceAggregatorV6_4",
        "label": "linkPriceFeed",
        "offset": 0,
        "slot": "8",
        "type": "t_contract(ChainlinkFeedInterfaceV5)5120"
      },
      {
        "astId": 3314,
        "contract": "contracts/contracts/GNSPriceAggregatorV6_4.sol:GNSPriceAggregatorV6_4",
        "label": "minAnswers",
        "offset": 0,
        "slot": "9",
        "type": "t_uint256"
      },
      {
        "astId": 3343,
        "contract": "contracts/contracts/GNSPriceAggregatorV6_4.sol:GNSPriceAggregatorV6_4",
        "label": "nodes",
        "offset": 0,
        "slot": "10",
        "type": "t_array(t_address)dyn_storage"
      },
      {
        "astId": 3347,
        "contract": "contracts/contracts/GNSPriceAggregatorV6_4.sol:GNSPriceAggregatorV6_4",
        "label": "jobIds",
        "offset": 0,
        "slot": "11",
        "type": "t_array(t_bytes32)2_storage"
      },
      {
        "astId": 3352,
        "contract": "contracts/contracts/GNSPriceAggregatorV6_4.sol:GNSPriceAggregatorV6_4",
        "label": "orders",
        "offset": 0,
        "slot": "13",
        "type": "t_mapping(t_uint256,t_struct(Order)3331_storage)"
      },
      {
        "astId": 3356,
        "contract": "contracts/contracts/GNSPriceAggregatorV6_4.sol:GNSPriceAggregatorV6_4",
        "label": "orderIdByRequest",
        "offset": 0,
        "slot": "14",
        "type": "t_mapping(t_bytes32,t_uint256)"
      },
      {
        "astId": 3361,
        "contract": "contracts/contracts/GNSPriceAggregatorV6_4.sol:GNSPriceAggregatorV6_4",
        "label": "ordersAnswers",
        "offset": 0,
        "slot": "15",
        "type": "t_mapping(t_uint256,t_array(t_uint256)dyn_storage)"
      },
      {
        "astId": 3367,
        "contract": "contracts/contracts/GNSPriceAggregatorV6_4.sol:GNSPriceAggregatorV6_4",
        "label": "lookbackOrderAnswers",
        "offset": 0,
        "slot": "16",
        "type": "t_mapping(t_uint256,t_array(t_struct(LookbackOrderAnswer)3340_storage)dyn_storage)"
      }
    ],
    "types": {
      "t_address": {
        "encoding": "inplace",
        "label": "address",
        "numberOfBytes": "20"
      },
      "t_array(t_address)dyn_storage": {
        "base": "t_address",
        "encoding": "dynamic_array",
        "label": "address[]",
        "numberOfBytes": "32"
      },
      "t_array(t_bytes32)2_storage": {
        "base": "t_bytes32",
        "encoding": "inplace",
        "label": "bytes32[2]",
        "numberOfBytes": "64"
      },
      "t_array(t_struct(LookbackOrderAnswer)3340_storage)dyn_storage": {
        "base": "t_struct(LookbackOrderAnswer)3340_storage",
        "encoding": "dynamic_array",
        "label": "struct GNSPriceAggregatorV6_4.LookbackOrderAnswer[]",
        "numberOfBytes": "32"
      },
      "t_array(t_uint256)dyn_storage": {
        "base": "t_uint256",
        "encoding": "dynamic_array",
        "label": "uint256[]",
        "numberOfBytes": "32"
      },
      "t_bool": {
        "encoding": "inplace",
        "label": "bool",
        "numberOfBytes": "1"
      },
      "t_bytes32": {
        "encoding": "inplace",
        "label": "bytes32",
        "numberOfBytes": "32"
      },
      "t_contract(ChainlinkFeedInterfaceV5)5120": {
        "encoding": "inplace",
        "label": "contract ChainlinkFeedInterfaceV5",
        "numberOfBytes": "20"
      },
      "t_contract(ENSInterface)2074": {
        "encoding": "inplace",
        "label": "contract ENSInterface",
        "numberOfBytes": "20"
      },
      "t_contract(IUniswapV3Pool)21": {
        "encoding": "inplace",
        "label": "contract IUniswapV3Pool",
        "numberOfBytes": "20"
      },
      "t_contract(LinkTokenInterface)2296": {
        "encoding": "inplace",
        "label": "contract LinkTokenInterface",
        "numberOfBytes": "20"
      },
      "t_contract(OperatorInterface)2154": {
        "encoding": "inplace",
        "label": "contract OperatorInterface",
        "numberOfBytes": "20"
      },
      "t_contract(PairsStorageInterfaceV6)5400": {
        "encoding": "inplace",
        "label": "contract PairsStorageInterfaceV6",
        "numberOfBytes": "20"
      },
      "t_enum(OrderType)3319": {
        "encoding": "inplace",
        "label": "enum GNSPriceAggregatorV6_4.OrderType",
        "numberOfBytes": "1"
      },
      "t_mapping(t_bytes32,t_address)": {
        "encoding": "mapping",
        "key": "t_bytes32",
        "label": "mapping(bytes32 => address)",
        "numberOfBytes": "32",
        "value": "t_address"
      },
      "t_mapping(t_bytes32,t_uint256)": {
        "encoding": "mapping",
        "key": "t_bytes32",
        "label": "mapping(bytes32 => uint256)",
        "numberOfBytes": "32",
        "value": "t_uint256"
      },
      "t_mapping(t_uint256,t_array(t_struct(LookbackOrderAnswer)3340_storage)dyn_storage)": {
        "encoding": "mapping",
        "key": "t_uint256",
        "label": "mapping(uint256 => struct GNSPriceAggregatorV6_4.LookbackOrderAnswer[])",
        "numberOfBytes": "32",
        "value": "t_array(t_struct(LookbackOrderAnswer)3340_storage)dyn_storage"
      },
      "t_mapping(t_uint256,t_array(t_uint256)dyn_storage)": {
        "encoding": "mapping",
        "key": "t_uint256",
        "label": "mapping(uint256 => uint256[])",
        "numberOfBytes": "32",
        "value": "t_array(t_uint256)dyn_storage"
      },
      "t_mapping(t_uint256,t_struct(Order)3331_storage)": {
        "encoding": "mapping",
        "key": "t_uint256",
        "label": "mapping(uint256 => struct GNSPriceAggregatorV6_4.Order)",
        "numberOfBytes": "32",
        "value": "t_struct(Order)3331_storage"
      },
      "t_struct(LookbackOrderAnswer)3340_storage": {
        "encoding": "inplace",
        "label": "struct GNSPriceAggregatorV6_4.LookbackOrderAnswer",
        "members": [
          {
            "astId": 3333,
            "contract": "contracts/contracts/GNSPriceAggregatorV6_4.sol:GNSPriceAggregatorV6_4",
            "label": "open",
            "offset": 0,
            "slot": "0",
            "type": "t_uint64"
          },
          {
            "astId": 3335,
            "contract": "contracts/contracts/GNSPriceAggregatorV6_4.sol:GNSPriceAggregatorV6_4",
            "label": "high",
            "offset": 8,
            "slot": "0",
            "type": "t_uint64"
          },
          {
            "astId": 3337,
            "contract": "contracts/contracts/GNSPriceAggregatorV6_4.sol:GNSPriceAggregatorV6_4",
            "label": "low",
            "offset": 16,
            "slot": "0",
            "type": "t_uint64"
          },
          {
            "astId": 3339,
            "contract": "contracts/contracts/GNSPriceAggregatorV6_4.sol:GNSPriceAggregatorV6_4",
            "label": "ts",
            "offset": 24,
            "slot": "0",
            "type": "t_uint64"
          }
        ],
        "numberOfBytes": "32"
      },
      "t_struct(Order)3331_storage": {
        "encoding": "inplace",
        "label": "struct GNSPriceAggregatorV6_4.Order",
        "members": [
          {
            "astId": 3321,
            "contract": "contracts/contracts/GNSPriceAggregatorV6_4.sol:GNSPriceAggregatorV6_4",
            "label": "pairIndex",
            "offset": 0,
            "slot": "0",
            "type": "t_uint16"
          },
          {
            "astId": 3323,
            "contract": "contracts/contracts/GNSPriceAggregatorV6_4.sol:GNSPriceAggregatorV6_4",
            "label": "linkFeePerNode",
            "offset": 2,
            "slot": "0",
            "type": "t_uint112"
          },
          {
            "astId": 3326,
            "contract": "contracts/contracts/GNSPriceAggregatorV6_4.sol:GNSPriceAggregatorV6_4",
            "label": "orderType",
            "offset": 16,
            "slot": "0",
            "type": "t_enum(OrderType)3319"
          },
          {
            "astId": 3328,
            "contract": "contracts/contracts/GNSPriceAggregatorV6_4.sol:GNSPriceAggregatorV6_4",
            "label": "active",
            "offset": 17,
            "slot": "0",
            "type": "t_bool"
          },
          {
            "astId": 3330,
            "contract": "contracts/contracts/GNSPriceAggregatorV6_4.sol:GNSPriceAggregatorV6_4",
            "label": "isLookback",
            "offset": 18,
            "slot": "0",
            "type": "t_bool"
          }
        ],
        "numberOfBytes": "32"
      },
      "t_uint112": {
        "encoding": "inplace",
        "label": "uint112",
        "numberOfBytes": "14"
      },
      "t_uint16": {
        "encoding": "inplace",
        "label": "uint16",
        "numberOfBytes": "2"
      },
      "t_uint256": {
        "encoding": "inplace",
        "label": "uint256",
        "numberOfBytes": "32"
      },
      "t_uint32": {
        "encoding": "inplace",
        "label": "uint32",
        "numberOfBytes": "4"
      },
      "t_uint64": {
        "encoding": "inplace",
        "label": "uint64",
        "numberOfBytes": "8"
      }
    }
  }
}