{
  "address": "0x01CeBc41CA749fD0063F25c007bF3F13818ad585",
  "abi": [
    {
      "inputs": [],
      "name": "Forbidden",
      "type": "error"
    },
    {
      "inputs": [],
      "name": "WrongParams",
      "type": "error"
    },
    {
      "anonymous": false,
      "inputs": [
        {
          "indexed": true,
          "internalType": "address",
          "name": "trader",
          "type": "address"
        },
        {
          "indexed": false,
          "internalType": "uint256",
          "name": "tradeValueDai",
          "type": "uint256"
        },
        {
          "indexed": false,
          "internalType": "uint256",
          "name": "feeValueDai",
          "type": "uint256"
        }
      ],
      "name": "BorrowingFeeCharged",
      "type": "event"
    },
    {
      "anonymous": false,
      "inputs": [
        {
          "indexed": false,
          "internalType": "uint256",
          "name": "daiVaultFeeP",
          "type": "uint256"
        },
        {
          "indexed": false,
          "internalType": "uint256",
          "name": "lpFeeP",
          "type": "uint256"
        },
        {
          "indexed": false,
          "internalType": "uint256",
          "name": "sssFeeP",
          "type": "uint256"
        }
      ],
      "name": "ClosingFeeSharesPUpdated",
      "type": "event"
    },
    {
      "anonymous": false,
      "inputs": [
        {
          "indexed": true,
          "internalType": "address",
          "name": "trader",
          "type": "address"
        },
        {
          "indexed": false,
          "internalType": "uint256",
          "name": "valueDai",
          "type": "uint256"
        }
      ],
      "name": "DaiVaultFeeCharged",
      "type": "event"
    },
    {
      "anonymous": false,
      "inputs": [
        {
          "indexed": false,
          "internalType": "bool",
          "name": "done",
          "type": "bool"
        }
      ],
      "name": "Done",
      "type": "event"
    },
    {
      "anonymous": false,
      "inputs": [
        {
          "indexed": true,
          "internalType": "address",
          "name": "trader",
          "type": "address"
        },
        {
          "indexed": false,
          "internalType": "uint256",
          "name": "valueDai",
          "type": "uint256"
        },
        {
          "indexed": false,
          "internalType": "bool",
          "name": "distributed",
          "type": "bool"
        }
      ],
      "name": "GovFeeCharged",
      "type": "event"
    },
    {
      "anonymous": false,
      "inputs": [
        {
          "indexed": false,
          "internalType": "uint256",
          "name": "valueDai",
          "type": "uint256"
        }
      ],
      "name": "GovFeesClaimed",
      "type": "event"
    },
    {
      "anonymous": false,
      "inputs": [
        {
          "indexed": false,
          "internalType": "uint8",
          "name": "version",
          "type": "uint8"
        }
      ],
      "name": "Initialized",
      "type": "event"
    },
    {
      "anonymous": false,
      "inputs": [
        {
          "indexed": true,
          "internalType": "uint256",
          "name": "orderId",
          "type": "uint256"
        },
        {
          "indexed": false,
          "internalType": "uint256",
          "name": "limitIndex",
          "type": "uint256"
        },
        {
          "components": [
            {
              "internalType": "address",
              "name": "trader",
              "type": "address"
            },
            {
              "internalType": "uint256",
              "name": "pairIndex",
              "type": "uint256"
            },
            {
              "internalType": "uint256",
              "name": "index",
              "type": "uint256"
            },
            {
              "internalType": "uint256",
              "name": "initialPosToken",
              "type": "uint256"
            },
            {
              "internalType": "uint256",
              "name": "positionSizeDai",
              "type": "uint256"
            },
            {
              "internalType": "uint256",
              "name": "openPrice",
              "type": "uint256"
            },
            {
              "internalType": "bool",
              "name": "buy",
              "type": "bool"
            },
            {
              "internalType": "uint256",
              "name": "leverage",
              "type": "uint256"
            },
            {
              "internalType": "uint256",
              "name": "tp",
              "type": "uint256"
            },
            {
              "internalType": "uint256",
              "name": "sl",
              "type": "uint256"
            }
          ],
          "indexed": false,
          "internalType": "struct StorageInterfaceV5.Trade",
          "name": "t",
          "type": "tuple"
        },
        {
          "indexed": true,
          "internalType": "address",
          "name": "nftHolder",
          "type": "address"
        },
        {
          "indexed": false,
          "internalType": "enum StorageInterfaceV5.LimitOrder",
          "name": "orderType",
          "type": "uint8"
        },
        {
          "indexed": false,
          "internalType": "uint256",
          "name": "price",
          "type": "uint256"
        },
        {
          "indexed": false,
          "internalType": "uint256",
          "name": "priceImpactP",
          "type": "uint256"
        },
        {
          "indexed": false,
          "internalType": "uint256",
          "name": "positionSizeDai",
          "type": "uint256"
        },
        {
          "indexed": false,
          "internalType": "int256",
          "name": "percentProfit",
          "type": "int256"
        },
        {
          "indexed": false,
          "internalType": "uint256",
          "name": "daiSentToTrader",
          "type": "uint256"
        },
        {
          "indexed": false,
          "internalType": "bool",
          "name": "exactExecution",
          "type": "bool"
        }
      ],
      "name": "LimitExecuted",
      "type": "event"
    },
    {
      "anonymous": false,
      "inputs": [
        {
          "indexed": true,
          "internalType": "uint256",
          "name": "orderId",
          "type": "uint256"
        },
        {
          "indexed": true,
          "internalType": "address",
          "name": "trader",
          "type": "address"
        },
        {
          "indexed": true,
          "internalType": "uint256",
          "name": "pairIndex",
          "type": "uint256"
        },
        {
          "indexed": false,
          "internalType": "uint256",
          "name": "index",
          "type": "uint256"
        },
        {
          "indexed": false,
          "internalType": "enum GNSTradingCallbacksV6_4_1.CancelReason",
          "name": "cancelReason",
          "type": "uint8"
        }
      ],
      "name": "MarketCloseCanceled",
      "type": "event"
    },
    {
      "anonymous": false,
      "inputs": [
        {
          "indexed": true,
          "internalType": "uint256",
          "name": "orderId",
          "type": "uint256"
        },
        {
          "components": [
            {
              "internalType": "address",
              "name": "trader",
              "type": "address"
            },
            {
              "internalType": "uint256",
              "name": "pairIndex",
              "type": "uint256"
            },
            {
              "internalType": "uint256",
              "name": "index",
              "type": "uint256"
            },
            {
              "internalType": "uint256",
              "name": "initialPosToken",
              "type": "uint256"
            },
            {
              "internalType": "uint256",
              "name": "positionSizeDai",
              "type": "uint256"
            },
            {
              "internalType": "uint256",
              "name": "openPrice",
              "type": "uint256"
            },
            {
              "internalType": "bool",
              "name": "buy",
              "type": "bool"
            },
            {
              "internalType": "uint256",
              "name": "leverage",
              "type": "uint256"
            },
            {
              "internalType": "uint256",
              "name": "tp",
              "type": "uint256"
            },
            {
              "internalType": "uint256",
              "name": "sl",
              "type": "uint256"
            }
          ],
          "indexed": false,
          "internalType": "struct StorageInterfaceV5.Trade",
          "name": "t",
          "type": "tuple"
        },
        {
          "indexed": false,
          "internalType": "bool",
          "name": "open",
          "type": "bool"
        },
        {
          "indexed": false,
          "internalType": "uint256",
          "name": "price",
          "type": "uint256"
        },
        {
          "indexed": false,
          "internalType": "uint256",
          "name": "priceImpactP",
          "type": "uint256"
        },
        {
          "indexed": false,
          "internalType": "uint256",
          "name": "positionSizeDai",
          "type": "uint256"
        },
        {
          "indexed": false,
          "internalType": "int256",
          "name": "percentProfit",
          "type": "int256"
        },
        {
          "indexed": false,
          "internalType": "uint256",
          "name": "daiSentToTrader",
          "type": "uint256"
        }
      ],
      "name": "MarketExecuted",
      "type": "event"
    },
    {
      "anonymous": false,
      "inputs": [
        {
          "indexed": true,
          "internalType": "uint256",
          "name": "orderId",
          "type": "uint256"
        },
        {
          "indexed": true,
          "internalType": "address",
          "name": "trader",
          "type": "address"
        },
        {
          "indexed": true,
          "internalType": "uint256",
          "name": "pairIndex",
          "type": "uint256"
        },
        {
          "indexed": false,
          "internalType": "enum GNSTradingCallbacksV6_4_1.CancelReason",
          "name": "cancelReason",
          "type": "uint8"
        }
      ],
      "name": "MarketOpenCanceled",
      "type": "event"
    },
    {
      "anonymous": false,
      "inputs": [
        {
          "indexed": true,
          "internalType": "uint256",
          "name": "orderId",
          "type": "uint256"
        },
        {
          "indexed": true,
          "internalType": "address",
          "name": "nftHolder",
          "type": "address"
        },
        {
          "indexed": false,
          "internalType": "enum StorageInterfaceV5.LimitOrder",
          "name": "orderType",
          "type": "uint8"
        },
        {
          "indexed": false,
          "internalType": "enum GNSTradingCallbacksV6_4_1.CancelReason",
          "name": "cancelReason",
          "type": "uint8"
        }
      ],
      "name": "NftOrderCanceled",
      "type": "event"
    },
    {
      "anonymous": false,
      "inputs": [
        {
          "indexed": true,
          "internalType": "uint256",
          "name": "pairIndex",
          "type": "uint256"
        },
        {
          "indexed": false,
          "internalType": "uint256",
          "name": "maxLeverage",
          "type": "uint256"
        }
      ],
      "name": "PairMaxLeverageUpdated",
      "type": "event"
    },
    {
      "anonymous": false,
      "inputs": [
        {
          "indexed": false,
          "internalType": "bool",
          "name": "paused",
          "type": "bool"
        }
      ],
      "name": "Pause",
      "type": "event"
    },
    {
      "anonymous": false,
      "inputs": [
        {
          "indexed": true,
          "internalType": "address",
          "name": "trader",
          "type": "address"
        },
        {
          "indexed": false,
          "internalType": "uint256",
          "name": "valueDai",
          "type": "uint256"
        }
      ],
      "name": "ReferralFeeCharged",
      "type": "event"
    },
    {
      "anonymous": false,
      "inputs": [
        {
          "indexed": true,
          "internalType": "address",
          "name": "trader",
          "type": "address"
        },
        {
          "indexed": false,
          "internalType": "uint256",
          "name": "valueDai",
          "type": "uint256"
        }
      ],
      "name": "SssFeeCharged",
      "type": "event"
    },
    {
      "anonymous": false,
      "inputs": [
        {
          "indexed": true,
          "internalType": "address",
          "name": "trader",
          "type": "address"
        },
        {
          "indexed": false,
          "internalType": "uint256",
          "name": "valueDai",
          "type": "uint256"
        }
      ],
      "name": "TriggerFeeCharged",
      "type": "event"
    },
    {
      "inputs": [],
      "name": "borrowingFees",
      "outputs": [
        {
          "internalType": "contract GNSBorrowingFeesInterfaceV6_4",
          "name": "",
          "type": "address"
        }
      ],
      "stateMutability": "view",
      "type": "function"
    },
    {
      "inputs": [],
      "name": "canExecuteTimeout",
      "outputs": [
        {
          "internalType": "uint256",
          "name": "",
          "type": "uint256"
        }
      ],
      "stateMutability": "view",
      "type": "function"
    },
    {
      "inputs": [],
      "name": "claimGovFees",
      "outputs": [],
      "stateMutability": "nonpayable",
      "type": "function"
    },
    {
      "inputs": [
        {
          "components": [
            {
              "internalType": "uint256",
              "name": "orderId",
              "type": "uint256"
            },
            {
              "internalType": "uint256",
              "name": "price",
              "type": "uint256"
            },
            {
              "internalType": "uint256",
              "name": "spreadP",
              "type": "uint256"
            },
            {
              "internalType": "uint256",
              "name": "open",
              "type": "uint256"
            },
            {
              "internalType": "uint256",
              "name": "high",
              "type": "uint256"
            },
            {
              "internalType": "uint256",
              "name": "low",
              "type": "uint256"
            }
          ],
          "internalType": "struct GNSTradingCallbacksV6_4_1.AggregatorAnswer",
          "name": "a",
          "type": "tuple"
        }
      ],
      "name": "closeTradeMarketCallback",
      "outputs": [],
      "stateMutability": "nonpayable",
      "type": "function"
    },
    {
      "inputs": [],
      "name": "daiVaultFeeP",
      "outputs": [
        {
          "internalType": "uint256",
          "name": "",
          "type": "uint256"
        }
      ],
      "stateMutability": "view",
      "type": "function"
    },
    {
      "inputs": [],
      "name": "done",
      "outputs": [],
      "stateMutability": "nonpayable",
      "type": "function"
    },
    {
      "inputs": [
        {
          "components": [
            {
              "internalType": "uint256",
              "name": "orderId",
              "type": "uint256"
            },
            {
              "internalType": "uint256",
              "name": "price",
              "type": "uint256"
            },
            {
              "internalType": "uint256",
              "name": "spreadP",
              "type": "uint256"
            },
            {
              "internalType": "uint256",
              "name": "open",
              "type": "uint256"
            },
            {
              "internalType": "uint256",
              "name": "high",
              "type": "uint256"
            },
            {
              "internalType": "uint256",
              "name": "low",
              "type": "uint256"
            }
          ],
          "internalType": "struct GNSTradingCallbacksV6_4_1.AggregatorAnswer",
          "name": "a",
          "type": "tuple"
        }
      ],
      "name": "executeNftCloseOrderCallback",
      "outputs": [],
      "stateMutability": "nonpayable",
      "type": "function"
    },
    {
      "inputs": [
        {
          "components": [
            {
              "internalType": "uint256",
              "name": "orderId",
              "type": "uint256"
            },
            {
              "internalType": "uint256",
              "name": "price",
              "type": "uint256"
            },
            {
              "internalType": "uint256",
              "name": "spreadP",
              "type": "uint256"
            },
            {
              "internalType": "uint256",
              "name": "open",
              "type": "uint256"
            },
            {
              "internalType": "uint256",
              "name": "high",
              "type": "uint256"
            },
            {
              "internalType": "uint256",
              "name": "low",
              "type": "uint256"
            }
          ],
          "internalType": "struct GNSTradingCallbacksV6_4_1.AggregatorAnswer",
          "name": "a",
          "type": "tuple"
        }
      ],
      "name": "executeNftOpenOrderCallback",
      "outputs": [],
      "stateMutability": "nonpayable",
      "type": "function"
    },
    {
      "inputs": [],
      "name": "getAllPairsMaxLeverage",
      "outputs": [
        {
          "internalType": "uint256[]",
          "name": "",
          "type": "uint256[]"
        }
      ],
      "stateMutability": "view",
      "type": "function"
    },
    {
      "inputs": [],
      "name": "govFeesDai",
      "outputs": [
        {
          "internalType": "uint256",
          "name": "",
          "type": "uint256"
        }
      ],
      "stateMutability": "view",
      "type": "function"
    },
    {
      "inputs": [
        {
          "internalType": "contract StorageInterfaceV5",
          "name": "_storageT",
          "type": "address"
        },
        {
          "internalType": "contract IGNSOracleRewardsV6_4_1",
          "name": "_nftRewards",
          "type": "address"
        },
        {
          "internalType": "contract GNSPairInfosInterfaceV6",
          "name": "_pairInfos",
          "type": "address"
        },
        {
          "internalType": "contract GNSReferralsInterfaceV6_2",
          "name": "_referrals",
          "type": "address"
        },
        {
          "internalType": "contract GNSStakingInterfaceV6_4_1",
          "name": "_staking",
          "type": "address"
        },
        {
          "internalType": "address",
          "name": "vaultToApprove",
          "type": "address"
        },
        {
          "internalType": "uint256",
          "name": "_daiVaultFeeP",
          "type": "uint256"
        },
        {
          "internalType": "uint256",
          "name": "_lpFeeP",
          "type": "uint256"
        },
        {
          "internalType": "uint256",
          "name": "_sssFeeP",
          "type": "uint256"
        },
        {
          "internalType": "uint256",
          "name": "_canExecuteTimeout",
          "type": "uint256"
        }
      ],
      "name": "initialize",
      "outputs": [],
      "stateMutability": "nonpayable",
      "type": "function"
    },
    {
      "inputs": [
        {
          "internalType": "contract GNSBorrowingFeesInterfaceV6_4",
          "name": "_borrowingFees",
          "type": "address"
        }
      ],
      "name": "initializeV2",
      "outputs": [],
      "stateMutability": "nonpayable",
      "type": "function"
    },
    {
      "inputs": [
        {
          "internalType": "contract GNSStakingInterfaceV6_4_1",
          "name": "_staking",
          "type": "address"
        },
        {
          "internalType": "contract IGNSOracleRewardsV6_4_1",
          "name": "_oracleRewards",
          "type": "address"
        }
      ],
      "name": "initializeV4",
      "outputs": [],
      "stateMutability": "nonpayable",
      "type": "function"
    },
    {
      "inputs": [],
      "name": "isDone",
      "outputs": [
        {
          "internalType": "bool",
          "name": "",
          "type": "bool"
        }
      ],
      "stateMutability": "view",
      "type": "function"
    },
    {
      "inputs": [],
      "name": "isPaused",
      "outputs": [
        {
          "internalType": "bool",
          "name": "",
          "type": "bool"
        }
      ],
      "stateMutability": "view",
      "type": "function"
    },
    {
      "inputs": [],
      "name": "lpFeeP",
      "outputs": [
        {
          "internalType": "uint256",
          "name": "",
          "type": "uint256"
        }
      ],
      "stateMutability": "view",
      "type": "function"
    },
    {
      "inputs": [],
      "name": "nftRewards",
      "outputs": [
        {
          "internalType": "contract IGNSOracleRewardsV6_4_1",
          "name": "",
          "type": "address"
        }
      ],
      "stateMutability": "view",
      "type": "function"
    },
    {
      "inputs": [
        {
          "components": [
            {
              "internalType": "uint256",
              "name": "orderId",
              "type": "uint256"
            },
            {
              "internalType": "uint256",
              "name": "price",
              "type": "uint256"
            },
            {
              "internalType": "uint256",
              "name": "spreadP",
              "type": "uint256"
            },
            {
              "internalType": "uint256",
              "name": "open",
              "type": "uint256"
            },
            {
              "internalType": "uint256",
              "name": "high",
              "type": "uint256"
            },
            {
              "internalType": "uint256",
              "name": "low",
              "type": "uint256"
            }
          ],
          "internalType": "struct GNSTradingCallbacksV6_4_1.AggregatorAnswer",
          "name": "a",
          "type": "tuple"
        }
      ],
      "name": "openTradeMarketCallback",
      "outputs": [],
      "stateMutability": "nonpayable",
      "type": "function"
    },
    {
      "inputs": [],
      "name": "pairInfos",
      "outputs": [
        {
          "internalType": "contract GNSPairInfosInterfaceV6",
          "name": "",
          "type": "address"
        }
      ],
      "stateMutability": "view",
      "type": "function"
    },
    {
      "inputs": [
        {
          "internalType": "uint256",
          "name": "",
          "type": "uint256"
        }
      ],
      "name": "pairMaxLeverage",
      "outputs": [
        {
          "internalType": "uint256",
          "name": "",
          "type": "uint256"
        }
      ],
      "stateMutability": "view",
      "type": "function"
    },
    {
      "inputs": [],
      "name": "pause",
      "outputs": [],
      "stateMutability": "nonpayable",
      "type": "function"
    },
    {
      "inputs": [],
      "name": "referrals",
      "outputs": [
        {
          "internalType": "contract GNSReferralsInterfaceV6_2",
          "name": "",
          "type": "address"
        }
      ],
      "stateMutability": "view",
      "type": "function"
    },
    {
      "inputs": [
        {
          "internalType": "uint256",
          "name": "_daiVaultFeeP",
          "type": "uint256"
        },
        {
          "internalType": "uint256",
          "name": "_lpFeeP",
          "type": "uint256"
        },
        {
          "internalType": "uint256",
          "name": "_sssFeeP",
          "type": "uint256"
        }
      ],
      "name": "setClosingFeeSharesP",
      "outputs": [],
      "stateMutability": "nonpayable",
      "type": "function"
    },
    {
      "inputs": [
        {
          "internalType": "uint256",
          "name": "pairIndex",
          "type": "uint256"
        },
        {
          "internalType": "uint256",
          "name": "maxLeverage",
          "type": "uint256"
        }
      ],
      "name": "setPairMaxLeverage",
      "outputs": [],
      "stateMutability": "nonpayable",
      "type": "function"
    },
    {
      "inputs": [
        {
          "internalType": "uint256[]",
          "name": "indices",
          "type": "uint256[]"
        },
        {
          "internalType": "uint256[]",
          "name": "values",
          "type": "uint256[]"
        }
      ],
      "name": "setPairMaxLeverageArray",
      "outputs": [],
      "stateMutability": "nonpayable",
      "type": "function"
    },
    {
      "inputs": [
        {
          "components": [
            {
              "internalType": "address",
              "name": "trader",
              "type": "address"
            },
            {
              "internalType": "uint256",
              "name": "pairIndex",
              "type": "uint256"
            },
            {
              "internalType": "uint256",
              "name": "index",
              "type": "uint256"
            },
            {
              "internalType": "enum GNSTradingCallbacksV6_4_1.TradeType",
              "name": "tradeType",
              "type": "uint8"
            }
          ],
          "internalType": "struct GNSTradingCallbacksV6_4_1.SimplifiedTradeId",
          "name": "_id",
          "type": "tuple"
        },
        {
          "components": [
            {
              "internalType": "uint40",
              "name": "maxSlippageP",
              "type": "uint40"
            },
            {
              "internalType": "uint216",
              "name": "_placeholder",
              "type": "uint216"
            }
          ],
          "internalType": "struct GNSTradingCallbacksV6_4_1.TradeData",
          "name": "_tradeData",
          "type": "tuple"
        }
      ],
      "name": "setTradeData",
      "outputs": [],
      "stateMutability": "nonpayable",
      "type": "function"
    },
    {
      "inputs": [
        {
          "components": [
            {
              "internalType": "address",
              "name": "trader",
              "type": "address"
            },
            {
              "internalType": "uint256",
              "name": "pairIndex",
              "type": "uint256"
            },
            {
              "internalType": "uint256",
              "name": "index",
              "type": "uint256"
            },
            {
              "internalType": "enum GNSTradingCallbacksV6_4_1.TradeType",
              "name": "tradeType",
              "type": "uint8"
            }
          ],
          "internalType": "struct GNSTradingCallbacksV6_4_1.SimplifiedTradeId",
          "name": "_id",
          "type": "tuple"
        },
        {
          "components": [
            {
              "internalType": "uint32",
              "name": "tp",
              "type": "uint32"
            },
            {
              "internalType": "uint32",
              "name": "sl",
              "type": "uint32"
            },
            {
              "internalType": "uint32",
              "name": "limit",
              "type": "uint32"
            },
            {
              "internalType": "uint32",
              "name": "created",
              "type": "uint32"
            }
          ],
          "internalType": "struct GNSTradingCallbacksV6_4_1.LastUpdated",
          "name": "_lastUpdated",
          "type": "tuple"
        }
      ],
      "name": "setTradeLastUpdated",
      "outputs": [],
      "stateMutability": "nonpayable",
      "type": "function"
    },
    {
      "inputs": [],
      "name": "sssFeeP",
      "outputs": [
        {
          "internalType": "uint256",
          "name": "",
          "type": "uint256"
        }
      ],
      "stateMutability": "view",
      "type": "function"
    },
    {
      "inputs": [],
      "name": "staking",
      "outputs": [
        {
          "internalType": "contract GNSStakingInterfaceV6_4_1",
          "name": "",
          "type": "address"
        }
      ],
      "stateMutability": "view",
      "type": "function"
    },
    {
      "inputs": [],
      "name": "storageT",
      "outputs": [
        {
          "internalType": "contract StorageInterfaceV5",
          "name": "",
          "type": "address"
        }
      ],
      "stateMutability": "view",
      "type": "function"
    },
    {
      "inputs": [
        {
          "internalType": "address",
          "name": "",
          "type": "address"
        },
        {
          "internalType": "uint256",
          "name": "",
          "type": "uint256"
        },
        {
          "internalType": "uint256",
          "name": "",
          "type": "uint256"
        },
        {
          "internalType": "enum GNSTradingCallbacksV6_4_1.TradeType",
          "name": "",
          "type": "uint8"
        }
      ],
      "name": "tradeData",
      "outputs": [
        {
          "internalType": "uint40",
          "name": "maxSlippageP",
          "type": "uint40"
        },
        {
          "internalType": "uint216",
          "name": "_placeholder",
          "type": "uint216"
        }
      ],
      "stateMutability": "view",
      "type": "function"
    },
    {
      "inputs": [
        {
          "internalType": "address",
          "name": "",
          "type": "address"
        },
        {
          "internalType": "uint256",
          "name": "",
          "type": "uint256"
        },
        {
          "internalType": "uint256",
          "name": "",
          "type": "uint256"
        },
        {
          "internalType": "enum GNSTradingCallbacksV6_4_1.TradeType",
          "name": "",
          "type": "uint8"
        }
      ],
      "name": "tradeLastUpdated",
      "outputs": [
        {
          "internalType": "uint32",
          "name": "tp",
          "type": "uint32"
        },
        {
          "internalType": "uint32",
          "name": "sl",
          "type": "uint32"
        },
        {
          "internalType": "uint32",
          "name": "limit",
          "type": "uint32"
        },
        {
          "internalType": "uint32",
          "name": "created",
          "type": "uint32"
        }
      ],
      "stateMutability": "view",
      "type": "function"
    }
  ],
  "transactionHash": "0x4a0a5b34add064e79a487c9cbb8838ee70da499f1b8e808e2b1aa1dd3ab47692",
  "args": [],
  "numDeployments": 1,
  "solcInputHash": "fb75f1cdcd9c5ec1bc76c5298727b3d1",
  "bytecode": "0x608060405234801561001057600080fd5b50615d5680620000216000396000f3fe608060405234801561001057600080fd5b50600436106101ef5760003560e01c80635ad9f9931161010f5780639bd24d83116100a2578063b47ee40811610071578063b47ee408146104ee578063c68078b914610501578063c68365df14610514578063d3dc75391461051d57600080fd5b80639bd24d8314610440578063a38ea9a8146104d0578063ae8421e1146104d9578063b187bd26146104e157600080fd5b80637d490caf116100de5780637d490caf146103f05780637e09ae8a146104035780638456cb59146104165780638f0622271461041e57600080fd5b80635ad9f993146103b857806361ba6c3d146103cb578063676c5164146103de5780637bb6c11c146103e757600080fd5b806329b6eca91161018757806346f93a631161015657806346f93a6314610305578063488291221461037f5780634cf088d914610392578063531cc965146103a557600080fd5b806329b6eca9146102b757806337edb138146102ca5780633986de6a146102df5780633a3ec5b0146102f257600080fd5b806318407fe0116101c357806318407fe01461025a57806321c861961461027157806323f7197b14610284578063281b693c1461029757600080fd5b8062e0fa89146101f45780630241e050146102095780631346b0ff1461021157806316fff07414610241575b600080fd5b610207610202366004615159565b610530565b005b6102076105ae565b600254610224906001600160a01b031681565b6040516001600160a01b0390911681526020015b60405180910390f35b600054610224906201000090046001600160a01b031681565b610263600e5481565b604051908152602001610238565b61020761027f3660046155c9565b61067f565b6102076102923660046152ff565b61073c565b6102636102a53660046156e3565b600c6020526000908152604090205481565b6102076102c53660046150d7565b611265565b6102d2611347565b60405161023891906158ae565b6102076102ed366004615219565b611454565b6102076103003660046151e0565b61164b565b61035a610313366004615111565b600d60209081526000948552604080862082529385528385208152918452828420909152825290205464ffffffffff8116906501000000000090046001600160d81b031682565b6040805164ffffffffff90931683526001600160d81b03909116602083015201610238565b61020761038d366004615715565b6118e8565b600454610224906001600160a01b031681565b600b54610224906001600160a01b031681565b600154610224906001600160a01b031681565b6102076103d93660046152ff565b6118fe565b61026360095481565b61026360075481565b6102076103fe3660046152ff565b611b4e565b610207610411366004615515565b6121f6565b610207612304565b60085461043090610100900460ff1681565b6040519015158152602001610238565b6104a061044e366004615111565b600a60209081526000948552604080862082529385528385208152918452828420909152825290205463ffffffff808216916401000000008104821691600160401b8204811691600160601b90041684565b6040805163ffffffff95861681529385166020850152918416918301919091529091166060820152608001610238565b61026360055481565b61020761235a565b6008546104309060ff1681565b6102076104fc3660046152ff565b6123ba565b61020761050f36600461575b565b612b57565b61026360065481565b600354610224906001600160a01b031681565b610538612be1565b8281811461055957604051635863f78960e01b815260040160405180910390fd5b60005b818110156105a65761059e86868381811061057957610579615cdf565b9050602002013585858481811061059257610592615cdf565b90506020020135612c9a565b60010161055c565b505050505050565b6105b6612ceb565b600e80546000918290559054604080516312d43a5160e01b81529051610649926201000090046001600160a01b0316916312d43a51916004808301926020929190829003018186803b15801561060b57600080fd5b505afa15801561061f573d6000803e3d6000fd5b505050506040513d601f19601f8201168201806040525081019061064391906150f4565b82612d39565b6040518181527f39b06677afbdb5c3b9934c9ce55728be609a055c398ecd957e8d19a5d3d80a5b9060200160405180910390a150565b610687612da8565b80600d600061069960208601866150d7565b6001600160a01b031681526020808201929092526040908101600090812086840135825283528181208683013582529092528120906106de60808601606087016152e4565b60018111156106ef576106ef615cc9565b600181111561070057610700615cc9565b8152602080820192909252604001600020825192909101516001600160d81b0316650100000000000264ffffffffff9092169190911790555050565b610744612df6565b61074c612e44565b6000805482516040516399794d3560e01b81526004810191909152620100009091046001600160a01b0316906399794d359060240160c06040518083038186803b15801561079957600080fd5b505afa1580156107ad573d6000803e3d6000fd5b505050506040513d601f19601f820116820180604052508101906107d1919061549d565b90506000604051806080016040528083604001516001600160a01b0316815260200183606001518152602001836080015181526020018360a00151600381111561081d5761081d615cc9565b8152509050600061083b836040015184606001518560800151612e6d565b905060008060029054906101000a90046001600160a01b03166001600160a01b0316633078fff56040518163ffffffff1660e01b815260040160206040518083038186803b15801561088c57600080fd5b505afa1580156108a0573d6000803e3d6000fd5b505050506040513d601f19601f820116820180604052508101906108c491906150f4565b9050600085606001516000146108ec5760e0830151156108e55760006108ef565b60096108ef565b60025b9050600081600b81111561090557610905615cc9565b141561112d576000610924846000015185602001518660400151612f09565b90506000836001600160a01b03166335b03c176040518163ffffffff1660e01b815260040160206040518083038186803b15801561096157600080fd5b505afa158015610975573d6000803e3d6000fd5b505050506040513d601f19601f8201168201806040525081019061099991906150f4565b90506109a3614ea7565b6402540be4008660e00151846020015188606001516109c29190615c28565b6109cc9190615c28565b6109d69190615b8f565b6020820181905260e08701516109eb91615b8f565b815260028860a001516003811115610a0557610a05615cc9565b1415610b2f57600b546040805160e0808201835289516001600160a01b0390811683526020808c0151908401528a8401518385015260a0808c0151606085015260c0808d015115156080860152875191850191909152918b0151918301919091529151633837d79d60e11b8152919092169163706faf3a91610ad9919060040181516001600160a01b0316815260208083015190820152604080830151908201526060808301519082015260808083015115159082015260a0828101519082015260c0918201519181019190915260e00190565b60206040518083038186803b158015610af157600080fd5b505afa158015610b05573d6000803e3d6000fd5b505050506040513d601f19601f82011682018060405250810190610b2991906156fc565b60a08201525b60008860a001516003811115610b4757610b47615cc9565b14610b7e5760018860a001516003811115610b6457610b64615cc9565b14610b73578060a00151610b85565b856101200151610b85565b8561010001515b6080820181905215801590610ba2575080608001518960a0015111155b8015610bb657508060800151896080015110155b158015610140830152610cb65760028860a001516003811115610bdb57610bdb615cc9565b14610c92576402540be4006064836001600160a01b0316639c8dd2fa89602001516040518263ffffffff1660e01b8152600401610c1a91815260200190565b60206040518083038186803b158015610c3257600080fd5b505afa158015610c46573d6000803e3d6000fd5b505050506040513d601f19601f82011682018060405250810190610c6a91906156fc565b8360200151610c799190615c28565b610c839190615b8f565b610c8d9190615b8f565b610cac565b8051606490610ca2906005615c28565b610cac9190615b8f565b60e0820152610ea6565b6060890151608082015260028860a001516003811115610cd857610cd8615cc9565b14610e545760008860a001516003811115610cf557610cf5615cc9565b148015610d0757506000866101000151115b8015610d3757508560c00151610d295785610100015189606001511115610d37565b856101000151896060015110155b80610d97575060018860a001516003811115610d5557610d55615cc9565b148015610d6757506000866101200151115b8015610d9757508560c00151610d895785610120015189606001511015610d97565b856101200151896060015111155b610da2576000610ea0565b6402540be4006064836001600160a01b0316639c8dd2fa89602001516040518263ffffffff1660e01b8152600401610ddc91815260200190565b60206040518083038186803b158015610df457600080fd5b505afa158015610e08573d6000803e3d6000fd5b505050506040513d601f19601f82011682018060405250810190610e2c91906156fc565b8360200151610e3b9190615c28565b610e459190615b8f565b610e4f9190615b8f565b610ea0565b8560c00151610e6e578060a0015189606001511015610e7b565b8060a00151896060015111155b610e86576000610ea0565b8051606490610e96906005615c28565b610ea09190615b8f565b60e08201525b60e081015115610eb7576000610eba565b600b5b9350600084600b811115610ed057610ed0615cc9565b141561112957610ef28660a0015182608001518860c001518960e00151612fcd565b816060018181525050846001600160a01b0316633c88e8826040518163ffffffff1660e01b8152600401602060405180830381600087803b158015610f3657600080fd5b505af1158015610f4a573d6000803e3d6000fd5b505050506040513d601f19601f82011682018060405250810190610f6e91906156fc565b81604001818152505061107c86600083606001518460000151876040015160026003811115610f9f57610f9f615cc9565b8e60a001516003811115610fb557610fb5615cc9565b1461106c576402540be4006064896001600160a01b031663836a341a8f602001516040518263ffffffff1660e01b8152600401610ff491815260200190565b60206040518083038186803b15801561100c57600080fd5b505afa158015611020573d6000803e3d6000fd5b505050506040513d601f19601f8201168201806040525081019061104491906156fc565b89602001516110539190615c28565b61105d9190615b8f565b6110679190615b8f565b611072565b8660e001515b8760e0015161305c565b60c0820152855160e08201516110b0918991600a9061109c906002615c28565b6110a69190615b8f565b846040015161351b565b87600001516001600160a01b031689600001517f1ab0771256522e5114b583b488c490436d6f8fe02b1e1c9697443e8704c4e8408a60800151898c60a0015186608001516000886000015189606001518a60c001518b610140015160405161112099989796959493929190615a51565b60405180910390a35b5050505b600081600b81111561114157611141615cc9565b14611194578451865160a08701516040516001600160a01b03909316927fe9681b5336d843735c62e93114e5a0f45912a84ae83fa3f3ed80ca5ad933dfc39161118b918690615900565b60405180910390a35b60015460405163bf654d2b60e01b81526001600160a01b039091169063bf654d2b906111c4908790600401615a14565b600060405180830381600087803b1580156111de57600080fd5b505af11580156111f2573d6000803e3d6000fd5b5050600054885160405163201d8bdb60e01b81526004810191909152620100009091046001600160a01b0316925063201d8bdb91506024015b600060405180830381600087803b15801561124557600080fd5b505af1158015611259573d6000803e3d6000fd5b50505050505050505050565b600054600290610100900460ff16158015611287575060005460ff8083169116105b6112ac5760405162461bcd60e51b81526004016112a39061591b565b60405180910390fd5b6000805461ffff191660ff8316176101001790556001600160a01b0382166112e757604051635863f78960e01b815260040160405180910390fd5b600b80546001600160a01b0319166001600160a01b0384161790556000805461ff001916905560405160ff821681527f7f26b83ff96e1f2b6a682f133852f6798a09c465da95921460cefb38474024989060200160405180910390a15050565b606060006113536135e6565b6001600160a01b031663b81b2b716040518163ffffffff1660e01b815260040160206040518083038186803b15801561138b57600080fd5b505afa15801561139f573d6000803e3d6000fd5b505050506040513d601f19601f820116820180604052508101906113c391906156fc565b905060008167ffffffffffffffff8111156113e0576113e0615cf5565b604051908082528060200260200182016040528015611409578160200160208202803683370190505b50905060005b8281101561144d576000818152600c6020526040902054825183908390811061143a5761143a615cdf565b602090810291909101015260010161140f565b5092915050565b600054610100900460ff16158080156114745750600054600160ff909116105b8061148e5750303b15801561148e575060005460ff166001145b6114aa5760405162461bcd60e51b81526004016112a39061591b565b6000805460ff1916600117905580156114cd576000805461ff0019166101001790555b6001600160a01b038b1615806114ea57506001600160a01b038a16155b806114fc57506001600160a01b038916155b8061150e57506001600160a01b038816155b8061152057506001600160a01b038716155b8061153257506001600160a01b038616155b806115525750826115438587615b49565b61154d9190615b49565b606414155b8061155d5750600582115b1561157b57604051635863f78960e01b815260040160405180910390fd5b6000805462010000600160b01b031916620100006001600160a01b038e81169190910291909117909155600180546001600160a01b03199081168d8416179091556002805482168c84161790556003805482168b8416179055600480549091169189169190911790556005859055600684905560078390556009829055801561163e576000805461ff0019169055604051600181527f7f26b83ff96e1f2b6a682f133852f6798a09c465da95921460cefb38474024989060200160405180910390a15b5050505050505050505050565b600054600490610100900460ff1615801561166d575060005460ff8083169116105b6116895760405162461bcd60e51b81526004016112a39061591b565b6000805461ffff191660ff8316176101001790556001600160a01b03831615806116ba57506001600160a01b038216155b156116d857604051635863f78960e01b815260040160405180910390fd5b60008060029054906101000a90046001600160a01b03166001600160a01b031663f4b9fa756040518163ffffffff1660e01b815260040160206040518083038186803b15801561172757600080fd5b505afa15801561173b573d6000803e3d6000fd5b505050506040513d601f19601f8201168201806040525081019061175f91906150f4565b6004805460405163095ea7b360e01b81526001600160a01b0391821692810192909252600060248301529192509082169063095ea7b390604401602060405180830381600087803b1580156117b357600080fd5b505af11580156117c7573d6000803e3d6000fd5b505050506040513d601f19601f820116820180604052508101906117eb91906151c5565b5060405163095ea7b360e01b81526001600160a01b038581166004830152600019602483015282169063095ea7b390604401602060405180830381600087803b15801561183757600080fd5b505af115801561184b573d6000803e3d6000fd5b505050506040513d601f19601f8201168201806040525081019061186f91906151c5565b5050600480546001600160a01b038581166001600160a01b03199283161790925560018054928516929091169190911790556000805461ff001916905560405160ff821681527f7f26b83ff96e1f2b6a682f133852f6798a09c465da95921460cefb3847402498906020015b60405180910390a1505050565b6118f0612be1565b6118fa8282612c9a565b5050565b611906612df6565b61190e612e44565b600061191d82600001516136e2565b9050806020015160001415611930575050565b60008160000151905060008060006119c2604051806101600160405280886020015181526020018760400151815260200188602001518152602001886040015181526020018660c001511515815260200186602001518152602001866080015181526020018660e001518152602001876060015181526020018661010001518152602001866101200151815250613772565b60a0870182905291945092509050600081600b8111156119e4576119e4615cc9565b1415611a71576000806119f986600080613a6b565b9150915087600001517f2739a12dffae5d66bd9e126a286078ed771840f2288f0afa5709ce38c33309978360018560a00151896402540be400878960600151611a429190615c28565b611a4c9190615b8f565b600080604051611a629796959493929190615978565b60405180910390a25050611b0b565b6000611a9b856000015186602001518760e001518860800151611a949190615c28565b60016144d1565b9050611aba8560000151828760800151611ab59190615c86565b612d39565b846020015185600001516001600160a01b031688600001517f1dc3532663e5566091476fb5aba1e514ef733714c83d4feec5723de6f16c326985604051611b0191906158f2565b60405180910390a4505b6000548651604051630195728b60e71b8152600481019190915260016024820152620100009091046001600160a01b03169063cab945809060440161122b565b50565b611b56612df6565b611b5e612e44565b6000611b6d82600001516136e2565b9050806020015160001415611b80575050565b805180516020820151604090920151600092611b9c9291612e6d565b905060008160e00151600014611bc457602084015115611bbd576000611bc7565b6002611bc7565b60095b9050600981600b811115611bdd57611bdd615cc9565b1461210f576000611bfb836000015184602001518560400151612f09565b905060008060029054906101000a90046001600160a01b03166001600160a01b0316633078fff56040518163ffffffff1660e01b815260040160206040518083038186803b158015611c4c57600080fd5b505afa158015611c60573d6000803e3d6000fd5b505050506040513d601f19601f82011682018060405250810190611c8491906150f4565b9050611c8e614ea7565b6402540be4008560e0015184602001518760600151611cad9190615c28565b611cb79190615c28565b611cc19190615b8f565b816020018181525050816001600160a01b0316633c88e8826040518163ffffffff1660e01b8152600401602060405180830381600087803b158015611d0557600080fd5b505af1158015611d19573d6000803e3d6000fd5b505050506040513d601f19601f82011682018060405250810190611d3d91906156fc565b6040820152600084600b811115611d5657611d56615cc9565b141561204c57611d788560a0015188602001518760c001518860e00151612fcd565b606082015260e08501516020820151611d919190615b8f565b816000018181525050611fee8560018360600151846000015187604001516402540be4006064896001600160a01b03166335b03c176040518163ffffffff1660e01b815260040160206040518083038186803b158015611df057600080fd5b505afa158015611e04573d6000803e3d6000fd5b505050506040513d601f19601f82011682018060405250810190611e2891906150f4565b6001600160a01b031663836a341a8e602001516040518263ffffffff1660e01b8152600401611e5991815260200190565b60206040518083038186803b158015611e7157600080fd5b505afa158015611e85573d6000803e3d6000fd5b505050506040513d601f19601f82011682018060405250810190611ea991906156fc565b8960200151611eb89190615c28565b611ec29190615b8f565b611ecc9190615b8f565b6402540be40060648a6001600160a01b03166335b03c176040518163ffffffff1660e01b815260040160206040518083038186803b158015611f0d57600080fd5b505afa158015611f21573d6000803e3d6000fd5b505050506040513d601f19601f82011682018060405250810190611f4591906150f4565b6001600160a01b0316639c8dd2fa8f602001516040518263ffffffff1660e01b8152600401611f7691815260200190565b60206040518083038186803b158015611f8e57600080fd5b505afa158015611fa2573d6000803e3d6000fd5b505050506040513d601f19601f82011682018060405250810190611fc691906156fc565b8a60200151611fd59190615c28565b611fdf9190615b8f565b611fe99190615b8f565b61305c565b60c08201819052875160208901518351606085015160405193947f2739a12dffae5d66bd9e126a286078ed771840f2288f0afa5709ce38c33309979461203f948c9460009491938593919291615978565b60405180910390a261210b565b600061206d86600001518760200151846020015160008a60800151116144d1565b60208501519091506120846402540be40083615c28565b61208e9190615b8f565b8660600181815161209f9190615c86565b905250600054604051631a97b52160e31b8152620100009091046001600160a01b03169063d4bda908906120d7908990600401615969565b600060405180830381600087803b1580156120f157600080fd5b505af1158015612105573d6000803e3d6000fd5b50505050505b5050505b600081600b81111561212357612123615cc9565b14612182578251602081015181518651604093840151935192936001600160a01b039092169290917f293df767d6749666902026d2f6a2cc4e5f15cdede46402226c42ef4fdf27a17c9161217991908790615a3d565b60405180910390a45b600080548551604051630195728b60e71b8152600481019190915260248101929092526201000090046001600160a01b03169063cab9458090604401600060405180830381600087803b1580156121d857600080fd5b505af11580156121ec573d6000803e3d6000fd5b5050505050505050565b6121fe612da8565b80600a600061221060208601866150d7565b6001600160a01b0316815260208082019290925260409081016000908120868401358252835281812086830135825290925281209061225560808601606087016152e4565b600181111561226657612266615cc9565b600181111561227757612277615cc9565b8152602080820192909252604090810160002083518154938501519285015160609095015163ffffffff908116600160601b0263ffffffff60601b19968216600160401b02969096166fffffffffffffffff0000000000000000199482166401000000000267ffffffffffffffff1990961691909216179390931791909116919091179190911790555050565b61230c612ceb565b6008805460ff8082161560ff1990921682179092556040519116151581527f9422424b175dda897495a07b091ef74a3ef715cf6d866fc972954c1c7f459304906020015b60405180910390a1565b612362612ceb565b6008805460ff610100808304821615810261ff001990931692909217928390556040517fc3a6f986261de9467c2838c6df8ef74f9107855159205600c0bc7a14cdfd3888936123509390049091161515815260200190565b6123c2612df6565b6123ca612e44565b6000805482516040516399794d3560e01b81526004810191909152620100009091046001600160a01b0316906399794d359060240160c06040518083038186803b15801561241757600080fd5b505afa15801561242b573d6000803e3d6000fd5b505050506040513d601f19601f8201168201806040525081019061244f919061549d565b60008054604083810151606085015160808601519251636e6f99cd60e11b81529596509394620100009093046001600160a01b03169363dcdf339a936124989390600401615856565b60206040518083038186803b1580156124b057600080fd5b505afa1580156124c4573d6000803e3d6000fd5b505050506040513d601f19601f820116820180604052508101906124e891906151c5565b156124f45760006124f7565b60095b9050600081600b81111561250d5761250d615cc9565b14156129c85760008054604084810151606086015160808701519251632e21e28b60e21b8152620100009094046001600160a01b03169363b8878a2c93612558939291600401615856565b6101a06040518083038186803b15801561257157600080fd5b505afa158015612585573d6000803e3d6000fd5b505050506040513d601f19601f820116820180604052508101906125a99190615359565b600154604080860151606087015160808801519251636a6f32f560e11b81529495506000946001600160a01b039094169363d4de65ea936125ee939291600401615856565b60206040518083038186803b15801561260657600080fd5b505afa15801561261a573d6000803e3d6000fd5b505050506040513d601f19601f8201168201806040525081019061263e91906152c3565b905081610140015185608001511015801561266257508161014001518560a0015111155b61266d57600b612670565b60005b925060008060006127786040518061016001604052806000600b81111561269957612699615cc9565b89600b8111156126ab576126ab615cc9565b146126ba578a606001516126c1565b8761014001515b81526101408881015160208084019190915260608d810151604080860191909152808f01518286015260a0808d015115156080870152838d01805191870191909152918c015160c0808701919091528c015160e0808701919091528c516001600160a01b03166000908152600d855282812093518152928452818320828e0151845284528183206001845290935290205464ffffffffff1661010080850191909152908a0151610120840152890151910152613772565b9194509250905060008087600b81111561279457612794615cc9565b149050801581612818575061014086015115806127c2575060028560028111156127c0576127c0615cc9565b145b6127f1578560a001516127e057856101400151896060015110612818565b856101400151896060015111612818565b8560a0015161280b57856101400151896060015111612818565b8561014001518960600151105b6128225781612825565b600b5b9650600087600b81111561283b5761283b615cc9565b14156129c1576000806128c36040518061014001604052808a600001516001600160a01b031681526020018a60200151815260200160008152602001600081526020018a6060015181526020018781526020018a60a00151151581526020018a60c0015181526020018a60e0015181526020018a610100015181525060018c60800151613a6b565b6000548a5160208c01516040808e0151905163b4b0f56760e01b8152959750939550620100009092046001600160a01b03169363b4b0f567936129099391600401615856565b600060405180830381600087803b15801561292357600080fd5b505af1158015612937573d6000803e3d6000fd5b5050505089600001516001600160a01b03168b600001517f1ab0771256522e5114b583b488c490436d6f8fe02b1e1c9697443e8704c4e8408c608001518560038760a001518c6402540be400898b606001516129939190615c28565b61299d9190615b8f565b6000808d6040516129b699989796959493929190615a51565b60405180910390a350505b5050505050505b600081600b8111156129dc576129dc615cc9565b14612a2f5781600001516001600160a01b031683600001517fe9681b5336d843735c62e93114e5a0f45912a84ae83fa3f3ed80ca5ad933dfc3600384604051612a26929190615900565b60405180910390a35b600160009054906101000a90046001600160a01b03166001600160a01b031663bf654d2b604051806080016040528085604001516001600160a01b0316815260200185606001518152602001856080015181526020018560a001516003811115612a9b57612a9b615cc9565b8152506040518263ffffffff1660e01b8152600401612aba9190615a14565b600060405180830381600087803b158015612ad457600080fd5b505af1158015612ae8573d6000803e3d6000fd5b5050600054855160405163201d8bdb60e01b81526004810191909152620100009091046001600160a01b0316925063201d8bdb9150602401600060405180830381600087803b158015612b3a57600080fd5b505af1158015612b4e573d6000803e3d6000fd5b50505050505050565b612b5f612ceb565b80612b6a8385615b49565b612b749190615b49565b606414612b9457604051635863f78960e01b815260040160405180910390fd5b60058390556006829055600781905560408051848152602081018490529081018290527f0caa98ed9a1605da290817d1f67b1b83c63f9229abeca5123df5d90581c49558906060016118db565b600260009054906101000a90046001600160a01b03166001600160a01b031663481c6a756040518163ffffffff1660e01b815260040160206040518083038186803b158015612c2f57600080fd5b505afa158015612c43573d6000803e3d6000fd5b505050506040513d601f19601f82011682018060405250810190612c6791906150f4565b6001600160a01b0316336001600160a01b031614612c9857604051631dd2188d60e31b815260040160405180910390fd5b565b6000828152600c6020526040908190208290555182907f95924bc10431f9a625a06fe5a27d55f4348510b2da42a18fe3bf2a6f2c4eab6790612cdf9084815260200190565b60405180910390a25050565b600060029054906101000a90046001600160a01b03166001600160a01b03166312d43a516040518163ffffffff1660e01b815260040160206040518083038186803b158015612c2f57600080fd5b60005460405163373873db60e11b81526001600160a01b0362010000909204821660048201819052918416602482015260448101839052636e70e7b6906064015b600060405180830381600087803b158015612d9457600080fd5b505af11580156105a6573d6000803e3d6000fd5b600060029054906101000a90046001600160a01b03166001600160a01b031663ec44acf26040518163ffffffff1660e01b815260040160206040518083038186803b158015612c2f57600080fd5b600060029054906101000a90046001600160a01b03166001600160a01b0316633078fff56040518163ffffffff1660e01b815260040160206040518083038186803b158015612c2f57600080fd5b600854610100900460ff1615612c9857604051631dd2188d60e31b815260040160405180910390fd5b612e75614f03565b6000546040516351d407ff60e11b8152620100009091046001600160a01b03169063a3a80ffe90612eae90879087908790600401615856565b6101406040518083038186803b158015612ec757600080fd5b505afa158015612edb573d6000803e3d6000fd5b505050506040513d601f19601f82011682018060405250810190612eff91906156c6565b90505b9392505050565b612f446040518060c0016040528060008152602001600081526020016000815260200160008152602001600081526020016000151581525090565b600054604051638c8ff1d560e01b8152620100009091046001600160a01b031690638c8ff1d590612f7d90879087908790600401615856565b60c06040518083038186803b158015612f9557600080fd5b505afa158015612fa9573d6000803e3d6000fd5b505050506040513d601f19601f82011682018060405250810190612eff9190615674565b600080612fe16402540be400610384615ba3565b905060008611612ff2576000613041565b85836402540be4008661300e57613009888a615c47565b613018565b6130188989615c47565b613023906064615ba3565b61302d9190615ba3565b6130379190615ba3565b6130419190615b61565b91508082136130505781613052565b805b9695505050505050565b600080600060029054906101000a90046001600160a01b03166001600160a01b031663fbfa77cf6040518163ffffffff1660e01b815260040160206040518083038186803b1580156130ad57600080fd5b505afa1580156130c1573d6000803e3d6000fd5b505050506040513d601f19601f820116820180604052508101906130e591906150f4565b90506130fc8987896130f78789615b49565b614669565b50600b548a5160208c01516040808e015160c08f0151915163ce67edfb60e01b81529597506001600160a01b039094169463ce67edfb9461314894939290918c91600091600401615877565b600060405180830381600087803b15801561316257600080fd5b505af1158015613176573d6000803e3d6000fd5b505050506131826135e6565b6001600160a01b03166320f0fc5e8a602001518b60e00151886131a59190615b8f565b60c08d01516040516001600160e01b031960e086901b168152600481019390935260248301919091521515604482015260006064820152608401600060405180830381600087803b1580156131f957600080fd5b505af115801561320d573d6000803e3d6000fd5b50506000548b5160208d01516040808f015190516390d112b960e01b8152620100009094046001600160a01b031695506390d112b9945061325093600401615856565b600060405180830381600087803b15801561326a57600080fd5b505af115801561327e573d6000803e3d6000fd5b505050506080890151156134a957613294614ea7565b6064600554866132a49190615c28565b6132ae9190615b8f565b61010082018190526132c1903090612d39565b61010081015160405163940a4e4560e01b815260048101919091526001600160a01b0383169063940a4e4590602401600060405180830381600087803b15801561330a57600080fd5b505af115801561331e573d6000803e3d6000fd5b5050505089600001516001600160a01b03167f60c73da98faf96842eabd77a0c73964cd189dbaf2c9ae90923a3fed137f30e3e82610100015160405161336691815260200190565b60405180910390a260646007548661337e9190615c28565b6133889190615b8f565b896133a957600a61339a866008615c28565b6133a49190615b8f565b6133ab565b845b6133b59190615b49565b61012082018190528a516133c89161479b565b6000816101000151826101200151896133e19190615c86565b6133eb9190615c86565b905080841115613482576001600160a01b03831663e66a6e3b61340e8387615c86565b8d5160405160e084901b6001600160e01b031916815260048101929092526001600160a01b03166024820152604401600060405180830381600087803b15801561345757600080fd5b505af115801561346b573d6000803e3d6000fd5b5050505061347d8b6000015182612d39565b6134a2565b61349661348f8583615c86565b8c5161483c565b8a516134a29085612d39565b505061350f565b885160405163e66a6e3b60e01b8152600481018490526001600160a01b0391821660248201529082169063e66a6e3b90604401600060405180830381600087803b1580156134f657600080fd5b505af115801561350a573d6000803e3d6000fd5b505050505b50979650505050505050565b60008161352d6402540be40085615c28565b6135379190615b8f565b600154604051636fc1c9a960e11b81529192506001600160a01b03169063df8393529061356a9088908590600401615a22565b600060405180830381600087803b15801561358457600080fd5b505af1158015613598573d6000803e3d6000fd5b50505050836001600160a01b03167f17fa86cf4833d28c6224a940e6bd001f2db0cb3d89d69727765679b3efee6559846040516135d791815260200190565b60405180910390a25050505050565b60008060029054906101000a90046001600160a01b03166001600160a01b0316633078fff56040518163ffffffff1660e01b815260040160206040518083038186803b15801561363557600080fd5b505afa158015613649573d6000803e3d6000fd5b505050506040513d601f19601f8201168201806040525081019061366d91906150f4565b6001600160a01b03166335b03c176040518163ffffffff1660e01b815260040160206040518083038186803b1580156136a557600080fd5b505afa1580156136b9573d6000803e3d6000fd5b505050506040513d601f19601f820116820180604052508101906136dd91906150f4565b905090565b6136ea614f61565b60005460405163b66e6b0560e01b815260048101849052620100009091046001600160a01b03169063b66e6b05906024016101e06040518083038186803b15801561373457600080fd5b505afa158015613748573d6000803e3d6000fd5b505050506040513d601f19601f8201168201806040525081019061376c919061540c565b92915050565b600254815160608301516080840151600093849384936001600160a01b0390921692637ea95f32926137a49291614903565b8660a0015187608001518860e001518960c001516137c29190615c28565b6040516001600160e01b031960e087901b16815260048101949094526024840192909252151560448301526064820152608401604080518083038186803b15801561380c57600080fd5b505afa158015613820573d6000803e3d6000fd5b505050506040513d601f19601f820116820180604052508101906138449190615737565b610100860151919450925060009061386c57606485602001516138679190615b8f565b61389d565b6402540be400606486610100015187602001516138899190615c28565b6138939190615b8f565b61389d9190615b8f565b60085490915060ff16613a5f57604085015115613a585784608001516138d4578085602001516138cd9190615c86565b83106138e7565b8085602001516138e49190615b49565b83115b613a5157600085610120015111801561391c575084608001516139125784610120015183111561391c565b8461012001518310155b613a4a5760008561014001511180156139515750846080015161394757846101400151831015613951565b8461014001518311155b613a43576139718560a0015186608001518760c001518860e00151614955565b15613a3c57600260009054906101000a90046001600160a01b03166001600160a01b03166380f6cfc26040518163ffffffff1660e01b815260040160206040518083038186803b1580156139c457600080fd5b505afa1580156139d8573d6000803e3d6000fd5b505050506040513d601f19601f820116820180604052508101906139fc91906156fc565b60e0860151613a0b9086615c28565b11613a3557613a228560a001518660e00151614b33565b15613a2e576000613a62565b6008613a62565b6007613a62565b6006613a62565b6005613a62565b6004613a62565b6003613a62565b6002613a62565b60015b93959294505050565b613a73614f03565b600080600060029054906101000a90046001600160a01b03166001600160a01b0316633078fff56040518163ffffffff1660e01b815260040160206040518083038186803b158015613ac457600080fd5b505afa158015613ad8573d6000803e3d6000fd5b505050506040513d601f19601f82011682018060405250810190613afc91906150f4565b90506000816001600160a01b03166335b03c176040518163ffffffff1660e01b815260040160206040518083038186803b158015613b3957600080fd5b505afa158015613b4d573d6000803e3d6000fd5b505050506040513d601f19601f82011682018060405250810190613b7191906150f4565b9050613b7b614ea7565b8760e001518860800151613b8f9190615c28565b816020018181525050826001600160a01b0316633c88e8826040518163ffffffff1660e01b8152600401602060405180830381600087803b158015613bd357600080fd5b505af1158015613be7573d6000803e3d6000fd5b505050506040513d601f19601f82011682018060405250810190613c0b91906156fc565b60408281019190915260035489519151631862c18d60e31b81526001600160a01b0392831660048201526000929091169063c3160c689060240160206040518083038186803b158015613c5d57600080fd5b505afa158015613c71573d6000803e3d6000fd5b505050506040513d601f19601f82011682018060405250810190613c9591906150f4565b6001600160a01b031614613f0657600354885160405163201ad16d60e01b81526001600160a01b0391821660048201526402540be40092606492169063201ad16d9060240160206040518083038186803b158015613cf257600080fd5b505afa158015613d06573d6000803e3d6000fd5b505050506040513d601f19601f82011682018060405250810190613d2a91906156fc565b613d3a6402540be4006064615c28565b613d449190615c86565b8360200151613d539190615c28565b613d5d9190615b8f565b613d679190615b8f565b81526003548851602080840151908b0151604051638251135b60e01b81526001600160a01b039485169463e78c6fd294939290881691638251135b91613db39160040190815260200190565b60206040518083038186803b158015613dcb57600080fd5b505afa158015613ddf573d6000803e3d6000fd5b505050506040513d601f19601f82011682018060405250810190613e0391906156fc565b60408087015190516001600160e01b031960e087901b1681526001600160a01b039094166004850152602484019290925260448301526064820152608401602060405180830381600087803b158015613e5b57600080fd5b505af1158015613e6f573d6000803e3d6000fd5b505050506040513d601f19601f82011682018060405250810190613e9391906156fc565b60e082018190528851613ea6919061483c565b8060e0015188608001818151613ebc9190615c86565b905250875160e08201516040519081526001600160a01b03909116907f0f5273269f52308b9c40fafda3ca13cc42f715fcd795365e87f351f59e2493139060200160405180910390a25b6000613f3489600001518a602001516000856000015111613f2b578460200151611a94565b845160016144d1565b60e0830181905260208a0151604051634e46e97d60e11b81529192506402540be400916064916001600160a01b03871691639c8dd2fa91613f7b9160040190815260200190565b60206040518083038186803b158015613f9357600080fd5b505afa158015613fa7573d6000803e3d6000fd5b505050506040513d601f19601f82011682018060405250810190613fcb91906156fc565b8460200151613fda9190615c28565b613fe49190615b8f565b613fee9190615b8f565b610100830181905260e08301516140059083615b49565b61400f9190615b49565b896080018181516140209190615c86565b90525087156140a057600a826101000151600261403d9190615c28565b6140479190615b8f565b6101208301819052895161405b919061483c565b604080516080810182528a516001600160a01b031681526020808c0151908201529081018890526140a09060608101600390528a51610120850151604086015161351b565b6140d289600001518361012001518461010001518560e001516140c39190615b49565b6140cd9190615c86565b61479b565b600054895160208b015160405163292c161760e01b81526001600160a01b039283166004820152602481019190915262010000909204169063292c16179060440160206040518083038186803b15801561412b57600080fd5b505afa15801561413f573d6000803e3d6000fd5b505050506040513d601f19601f8201168201806040525081019061416391906156fc565b6040808b019190915282015160808a0151614184906402540be40090615c28565b61418e9190615b8f565b8960600181815250506141b48960a001518a60e001518b61010001518c60c00151614be1565b896101000181815250506141db8960a001518a60e001518b61012001518c60c00151614c74565b6101208a0152600254895160208b01516040808d015160c08e01519151630735e1cd60e11b81526001600160a01b0394851660048201526024810193909352604483015215156064820152911690630e6bc39a90608401600060405180830381600087803b15801561424c57600080fd5b505af1158015614260573d6000803e3d6000fd5b50505050602089015160808a015160c08b01516040516310787e2f60e11b81526004810193909352602483019190915215156044820152600160648201526001600160a01b038416906320f0fc5e90608401600060405180830381600087803b1580156142cc57600080fd5b505af11580156142e0573d6000803e3d6000fd5b50505050600b60009054906101000a90046001600160a01b03166001600160a01b031663ce67edfb8a600001518b602001518c604001518d60e001518e6080015161432b9190615c28565b60018f60c001516040518763ffffffff1660e01b815260040161435396959493929190615877565b600060405180830381600087803b15801561436d57600080fd5b505af1158015614381573d6000803e3d6000fd5b50505050600060029054906101000a90046001600160a01b03166001600160a01b031663c311ab318a6040518060c0016040528060008152602001866040015181526020018d60e001518e608001516143da9190615c28565b81526020016000815260200160008152602001600015158152506040518363ffffffff1660e01b81526004016144119291906159bd565b600060405180830381600087803b15801561442b57600080fd5b505af115801561443f573d6000803e3d6000fd5b50508a516001600160a01b03166000908152600a60209081526040808320828f015184528252808320818f015184528252808320838052909152812092509050614487614cee565b825467ffffffffffffffff191663ffffffff9190911690811764010000000082021763ffffffff60601b1916600160601b9190910217909155505060400151969795505050505050565b600060646402540be400600060029054906101000a90046001600160a01b03166001600160a01b0316633078fff56040518163ffffffff1660e01b815260040160206040518083038186803b15801561452957600080fd5b505afa15801561453d573d6000803e3d6000fd5b505050506040513d601f19601f8201168201806040525081019061456191906150f4565b6001600160a01b031663e21e5fe0876040518263ffffffff1660e01b815260040161458e91815260200190565b60206040518083038186803b1580156145a657600080fd5b505afa1580156145ba573d6000803e3d6000fd5b505050506040513d601f19601f820116820180604052508101906145de91906156fc565b6145e89086615c28565b6145f29190615b8f565b6145fc9190615b8f565b9050811561461c5780600e60008282546146169190615b49565b90915550505b6040805182815283151560208201526001600160a01b038716917fccd80d359a6fbe0bfa5cbb1ecf0854adbe8c67b4ed6bf10d3c0d78c2be0f48cb910160405180910390a2949350505050565b6000806000614679878787614d7e565b600254895160208b01516040808d015160c08e015160e08f01519251636ceaca6760e01b81526001600160a01b0395861660048201526024810194909452604484019190915215156064830152608482018c905260a482015260c4810185905260e481018990529295509293509190911690636ceaca679061010401602060405180830381600087803b15801561470f57600080fd5b505af1158015614723573d6000803e3d6000fd5b505050506040513d601f19601f8201168201806040525081019061474791906156fc565b875160408051838152602081018690529295506001600160a01b03909116917fe7d34775bf6fd7b34e703a903ef79ab16166ebdffce96a66f4d2f84b6263bb29910160405180910390a25094509492505050565b6147a53082612d39565b6004805460405163b243fb0160e01b81529182018390526001600160a01b03169063b243fb0190602401600060405180830381600087803b1580156147e957600080fd5b505af11580156147fd573d6000803e3d6000fd5b50505050816001600160a01b03167fd1e388cc27c5125a80cf538c12b26dc5a784071d324a81a736e4d17f238588e482604051612cdf91815260200190565b6148463083612d39565b600060029054906101000a90046001600160a01b03166001600160a01b031663fbfa77cf6040518163ffffffff1660e01b815260040160206040518083038186803b15801561489457600080fd5b505afa1580156148a8573d6000803e3d6000fd5b505050506040513d601f19601f820116820180604052508101906148cc91906150f4565b60405163a481c14b60e01b8152600481018490526001600160a01b038381166024830152919091169063a481c14b90604401612d7a565b6000806402540be40060646149188688615c28565b6149229190615b8f565b61492c9190615b8f565b9050826149425761493d8186615c86565b61494c565b61494c8186615b49565b95945050505050565b6000806149628385615c28565b600b54604051632e53fe8760e21b8152600481018990529192506001600160a01b03169063b94ffa1c9060240160206040518083038186803b1580156149a757600080fd5b505afa1580156149bb573d6000803e3d6000fd5b505050506040513d601f19601f820116820180604052508101906149df91906156fc565b6149ed906305f5e100615c28565b60005482906201000090046001600160a01b03166328daca218989614a13576001614a16565b60005b6040516001600160e01b031960e085901b168152600481019290925260ff16602482015260440160206040518083038186803b158015614a5557600080fd5b505afa158015614a69573d6000803e3d6000fd5b505050506040513d601f19601f82011682018060405250810190614a8d91906156fc565b614a979190615b49565b111580156130525750600b5460405163d627450560e01b8152600481018890528615156024820152604481018390526001600160a01b039091169063d62745059060640160206040518083038186803b158015614af357600080fd5b505afa158015614b07573d6000803e3d6000fd5b505050506040513d601f19601f8201168201806040525081019061305291906151c5565b949350505050565b6000828152600c60205260408120548015614b515780831115614b2b565b614b596135e6565b6001600160a01b031663281b693c856040518263ffffffff1660e01b8152600401614b8691815260200190565b60206040518083038186803b158015614b9e57600080fd5b505afa158015614bb2573d6000803e3d6000fd5b505050506040513d601f19601f82011682018060405250810190614bd691906156fc565b831115949350505050565b6000821580614c0a5750614bfc6402540be400610384615ba3565b614c0886858588612fcd565b145b15614c6b576000606485614c2061038489615c28565b614c2a9190615b8f565b614c349190615b8f565b905082614c595785811115614c4a576000614c63565b614c548187615c86565b614c63565b614c638187615b49565b915050614b2b565b50909392505050565b60008083118015614caa5750614c906402540be400604b615ba3565b614c9c90600019615ba3565b614ca886858588612fcd565b125b15614c6b576000606485614cbf604b89615c28565b614cc99190615b8f565b614cd39190615b8f565b905082614ce457614c548187615b49565b614c638187615c86565b600061a4b1461480614d02575062066eed46145b15614d795760646001600160a01b031663a3b1b31d6040518163ffffffff1660e01b815260040160206040518083038186803b158015614d4157600080fd5b505afa158015614d55573d6000803e3d6000fd5b505050506040513d601f19601f820116820180604052508101906136dd91906156fc565b504390565b600b546040805160c0808201835286516001600160a01b03908116835260208089015190840190815288850151848601908152928901511515606085019081526080850189815260e08b015160a087019081529651632d28a81760e01b8152955184166004870152915160248601529251604485015291511515606484015290516084830152915160a482015260009283921690632d28a8179060c40160206040518083038186803b158015614e3357600080fd5b505afa158015614e47573d6000803e3d6000fd5b505050506040513d601f19601f82011682018060405250810190614e6b91906156fc565b9050836402540be400614e7f836064615c28565b614e899190615c28565b614e939190615b8f565b614e9d9084615c47565b9150935093915050565b604051806101600160405280600081526020016000815260200160008152602001600081526020016000815260200160008152602001600081526020016000815260200160008152602001600081526020016000151581525090565b60405180610140016040528060006001600160a01b0316815260200160008152602001600081526020016000815260200160008152602001600081526020016000151581526020016000815260200160008152602001600081525090565b6040518060c00160405280614f74614f03565b815260200160008152602001600081526020016000815260200160008152602001600081525090565b8051614fa881615d0b565b919050565b60008083601f840112614fbf57600080fd5b50813567ffffffffffffffff811115614fd757600080fd5b6020830191508360208260051b8501011115614ff257600080fd5b9250929050565b80518015158114614fa857600080fd5b803560028110614fa857600080fd5b60006080828403121561502a57600080fd5b50919050565b6000610140828403121561504357600080fd5b61504b615aae565b905061505682614f9d565b81526020820151602082015260408201516040820152606082015160608201526080820151608082015260a082015160a082015261509660c08301614ff9565b60c082015260e082015160e082015261010080830151818301525061012080830151818301525092915050565b803563ffffffff81168114614fa857600080fd5b6000602082840312156150e957600080fd5b8135612f0281615d0b565b60006020828403121561510657600080fd5b8151612f0281615d0b565b6000806000806080858703121561512757600080fd5b843561513281615d0b565b9350602085013592506040850135915061514e60608601615009565b905092959194509250565b6000806000806040858703121561516f57600080fd5b843567ffffffffffffffff8082111561518757600080fd5b61519388838901614fad565b909650945060208701359150808211156151ac57600080fd5b506151b987828801614fad565b95989497509550505050565b6000602082840312156151d757600080fd5b612f0282614ff9565b600080604083850312156151f357600080fd5b82356151fe81615d0b565b9150602083013561520e81615d0b565b809150509250929050565b6000806000806000806000806000806101408b8d03121561523957600080fd5b8a3561524481615d0b565b995060208b013561525481615d0b565b985060408b013561526481615d0b565b975060608b013561527481615d0b565b965060808b013561528481615d0b565b955060a08b013561529481615d0b565b999c989b5096999598949794965050505060c08301359260e08101359261010082013592506101209091013590565b6000602082840312156152d557600080fd5b815160038110612f0257600080fd5b6000602082840312156152f657600080fd5b612f0282615009565b600060c0828403121561531157600080fd5b615319615ae6565b823581526020830135602082015260408301356040820152606083013560608201526080830135608082015260a083013560a08201528091505092915050565b60006101a0828403121561536c57600080fd5b615374615b17565b61537d83614f9d565b8152602083015160208201526040830151604082015260608301516060820152608083015160808201526153b360a08401614ff9565b60a082015260c0838101519082015260e080840151908201526101008084015190820152610120808401519082015261014080840151908201526101608084015190820152610180928301519281019290925250919050565b60006101e0828403121561541f57600080fd5b60405160c0810181811067ffffffffffffffff8211171561545057634e487b7160e01b600052604160045260246000fd5b60405261545d8484615030565b81526101408301516020820152610160830151604082015261018083015160608201526101a083015160808201526101c09092015160a083015250919050565b600060c082840312156154af57600080fd5b6154b7615ae6565b82516154c281615d0b565b81526020838101519082015260408301516154dc81615d0b565b80604083015250606083015160608201526080830151608082015260a08301516004811061550957600080fd5b60a08201529392505050565b60008082840361010081121561552a57600080fd5b6155348585615018565b92506080607f198201121561554857600080fd5b506040516080810181811067ffffffffffffffff8211171561557a57634e487b7160e01b600052604160045260246000fd5b604052615589608085016150c3565b815261559760a085016150c3565b60208201526155a860c085016150c3565b60408201526155b960e085016150c3565b6060820152809150509250929050565b60008082840360c08112156155dd57600080fd5b6155e78585615018565b92506040607f19820112156155fb57600080fd5b506040516040810181811067ffffffffffffffff8211171561562d57634e487b7160e01b600052604160045260246000fd5b604052608084013564ffffffffff8116811461564857600080fd5b815260a08401356001600160d81b038116811461566457600080fd5b6020820152919491935090915050565b600060c0828403121561568657600080fd5b61568e615ae6565b825181526020830151602082015260408301516040820152606083015160608201526080830151608082015261550960a08401614ff9565b600061014082840312156156d957600080fd5b612f028383615030565b6000602082840312156156f557600080fd5b5035919050565b60006020828403121561570e57600080fd5b5051919050565b6000806040838503121561572857600080fd5b50508035926020909101359150565b6000806040838503121561574a57600080fd5b505080516020909101519092909150565b60008060006060848603121561577057600080fd5b505081359360208301359350604090920135919050565b600c811061579757615797615cc9565b9052565b6004811061579757615797615cc9565b80516001600160a01b031682526020810151602083015260408101516040830152606081015160608301526080810151608083015260a081015160a083015260c08101516157fd60c084018215159052565b5060e08181015190830152610100808201519083015261012090810151910152565b60018060a01b03815116825260208101516020830152604081015160408301526060810151615851606084018261579b565b505050565b6001600160a01b039390931683526020830191909152604082015260600190565b6001600160a01b0396909616865260208601949094526040850192909252606084015215156080830152151560a082015260c00190565b6020808252825182820181905260009190848201906040850190845b818110156158e6578351835292840192918401916001016158ca565b50909695505050505050565b6020810161376c8284615787565b6040810161590e828561579b565b612f026020830184615787565b6020808252602e908201527f496e697469616c697a61626c653a20636f6e747261637420697320616c72656160408201526d191e481a5b9a5d1a585b1a5e995960921b606082015260800190565b610140810161376c82846157ab565b6102008101615987828a6157ab565b9615156101408201526101608101959095526101808501939093526101a08401919091526101c08301526101e090910152919050565b61020081016159cc82856157ab565b82516101408301526020830151610160830152604083015161018083015260608301516101a083015260808301516101c083015260a083015115156101e08301529392505050565b6080810161376c828461581f565b60a08101615a30828561581f565b8260808301529392505050565b82815260408101612f026020830184615787565b8981526102408101615a66602083018b6157ab565b615a7461016083018a61579b565b87610180830152866101a0830152856101c0830152846101e0830152836102008301528215156102208301529a9950505050505050505050565b604051610140810167ffffffffffffffff81118282101715615ae057634e487b7160e01b600052604160045260246000fd5b60405290565b60405160c0810167ffffffffffffffff81118282101715615ae057634e487b7160e01b600052604160045260246000fd5b6040516101a0810167ffffffffffffffff81118282101715615ae057634e487b7160e01b600052604160045260246000fd5b60008219821115615b5c57615b5c615c9d565b500190565b600082615b7057615b70615cb3565b600160ff1b821460001984141615615b8a57615b8a615c9d565b500590565b600082615b9e57615b9e615cb3565b500490565b60006001600160ff1b0381841382841380821686840486111615615bc957615bc9615c9d565b600160ff1b6000871282811687830589121615615be857615be8615c9d565b60008712925087820587128484161615615c0457615c04615c9d565b87850587128184161615615c1a57615c1a615c9d565b505050929093029392505050565b6000816000190483118215151615615c4257615c42615c9d565b500290565b60008083128015600160ff1b850184121615615c6557615c65615c9d565b6001600160ff1b0384018313811615615c8057615c80615c9d565b50500390565b600082821015615c9857615c98615c9d565b500390565b634e487b7160e01b600052601160045260246000fd5b634e487b7160e01b600052601260045260246000fd5b634e487b7160e01b600052602160045260246000fd5b634e487b7160e01b600052603260045260246000fd5b634e487b7160e01b600052604160045260246000fd5b6001600160a01b0381168114611b4b57600080fdfea2646970667358221220a65b45ec77ea39b22ac684fdab6a7e12c19af2c7089387f46bbd52adfb5e508964736f6c63430008070033",
  "libraries": {},
  "devdoc": {
    "kind": "dev",
    "methods": {},
    "version": 1
  },
  "userdoc": {
    "kind": "user",
    "methods": {},
    "version": 1
  },
  "storageLayout": {
    "storage": [
      {
        "astId": 6,
        "contract": "contracts/contracts/GNSTradingCallbacksV6_4_1.sol:GNSTradingCallbacksV6_4_1",
        "label": "_initialized",
        "offset": 0,
        "slot": "0",
        "type": "t_uint8"
      },
      {
        "astId": 9,
        "contract": "contracts/contracts/GNSTradingCallbacksV6_4_1.sol:GNSTradingCallbacksV6_4_1",
        "label": "_initializing",
        "offset": 1,
        "slot": "0",
        "type": "t_bool"
      },
      {
        "astId": 513,
        "contract": "contracts/contracts/GNSTradingCallbacksV6_4_1.sol:GNSTradingCallbacksV6_4_1",
        "label": "storageT",
        "offset": 2,
        "slot": "0",
        "type": "t_contract(StorageInterfaceV5)5704"
      },
      {
        "astId": 516,
        "contract": "contracts/contracts/GNSTradingCallbacksV6_4_1.sol:GNSTradingCallbacksV6_4_1",
        "label": "nftRewards",
        "offset": 0,
        "slot": "1",
        "type": "t_contract(IGNSOracleRewardsV6_4_1)4922"
      },
      {
        "astId": 519,
        "contract": "contracts/contracts/GNSTradingCallbacksV6_4_1.sol:GNSTradingCallbacksV6_4_1",
        "label": "pairInfos",
        "offset": 0,
        "slot": "2",
        "type": "t_contract(GNSPairInfosInterfaceV6)4605"
      },
      {
        "astId": 522,
        "contract": "contracts/contracts/GNSTradingCallbacksV6_4_1.sol:GNSTradingCallbacksV6_4_1",
        "label": "referrals",
        "offset": 0,
        "slot": "3",
        "type": "t_contract(GNSReferralsInterfaceV6_2)4642"
      },
      {
        "astId": 525,
        "contract": "contracts/contracts/GNSTradingCallbacksV6_4_1.sol:GNSTradingCallbacksV6_4_1",
        "label": "staking",
        "offset": 0,
        "slot": "4",
        "type": "t_contract(GNSStakingInterfaceV6_4_1)4730"
      },
      {
        "astId": 539,
        "contract": "contracts/contracts/GNSTradingCallbacksV6_4_1.sol:GNSTradingCallbacksV6_4_1",
        "label": "daiVaultFeeP",
        "offset": 0,
        "slot": "5",
        "type": "t_uint256"
      },
      {
        "astId": 541,
        "contract": "contracts/contracts/GNSTradingCallbacksV6_4_1.sol:GNSTradingCallbacksV6_4_1",
        "label": "lpFeeP",
        "offset": 0,
        "slot": "6",
        "type": "t_uint256"
      },
      {
        "astId": 543,
        "contract": "contracts/contracts/GNSTradingCallbacksV6_4_1.sol:GNSTradingCallbacksV6_4_1",
        "label": "sssFeeP",
        "offset": 0,
        "slot": "7",
        "type": "t_uint256"
      },
      {
        "astId": 545,
        "contract": "contracts/contracts/GNSTradingCallbacksV6_4_1.sol:GNSTradingCallbacksV6_4_1",
        "label": "isPaused",
        "offset": 0,
        "slot": "8",
        "type": "t_bool"
      },
      {
        "astId": 547,
        "contract": "contracts/contracts/GNSTradingCallbacksV6_4_1.sol:GNSTradingCallbacksV6_4_1",
        "label": "isDone",
        "offset": 1,
        "slot": "8",
        "type": "t_bool"
      },
      {
        "astId": 549,
        "contract": "contracts/contracts/GNSTradingCallbacksV6_4_1.sol:GNSTradingCallbacksV6_4_1",
        "label": "canExecuteTimeout",
        "offset": 0,
        "slot": "9",
        "type": "t_uint256"
      },
      {
        "astId": 561,
        "contract": "contracts/contracts/GNSTradingCallbacksV6_4_1.sol:GNSTradingCallbacksV6_4_1",
        "label": "tradeLastUpdated",
        "offset": 0,
        "slot": "10",
        "type": "t_mapping(t_address,t_mapping(t_uint256,t_mapping(t_uint256,t_mapping(t_enum(TradeType)668,t_struct(LastUpdated)637_storage))))"
      },
      {
        "astId": 564,
        "contract": "contracts/contracts/GNSTradingCallbacksV6_4_1.sol:GNSTradingCallbacksV6_4_1",
        "label": "borrowingFees",
        "offset": 0,
        "slot": "11",
        "type": "t_contract(GNSBorrowingFeesInterfaceV6_4)4460"
      },
      {
        "astId": 568,
        "contract": "contracts/contracts/GNSTradingCallbacksV6_4_1.sol:GNSTradingCallbacksV6_4_1",
        "label": "pairMaxLeverage",
        "offset": 0,
        "slot": "12",
        "type": "t_mapping(t_uint256,t_uint256)"
      },
      {
        "astId": 580,
        "contract": "contracts/contracts/GNSTradingCallbacksV6_4_1.sol:GNSTradingCallbacksV6_4_1",
        "label": "tradeData",
        "offset": 0,
        "slot": "13",
        "type": "t_mapping(t_address,t_mapping(t_uint256,t_mapping(t_uint256,t_mapping(t_enum(TradeType)668,t_struct(TradeData)642_storage))))"
      },
      {
        "astId": 582,
        "contract": "contracts/contracts/GNSTradingCallbacksV6_4_1.sol:GNSTradingCallbacksV6_4_1",
        "label": "govFeesDai",
        "offset": 0,
        "slot": "14",
        "type": "t_uint256"
      }
    ],
    "types": {
      "t_address": {
        "encoding": "inplace",
        "label": "address",
        "numberOfBytes": "20"
      },
      "t_bool": {
        "encoding": "inplace",
        "label": "bool",
        "numberOfBytes": "1"
      },
      "t_contract(GNSBorrowingFeesInterfaceV6_4)4460": {
        "encoding": "inplace",
        "label": "contract GNSBorrowingFeesInterfaceV6_4",
        "numberOfBytes": "20"
      },
      "t_contract(GNSPairInfosInterfaceV6)4605": {
        "encoding": "inplace",
        "label": "contract GNSPairInfosInterfaceV6",
        "numberOfBytes": "20"
      },
      "t_contract(GNSReferralsInterfaceV6_2)4642": {
        "encoding": "inplace",
        "label": "contract GNSReferralsInterfaceV6_2",
        "numberOfBytes": "20"
      },
      "t_contract(GNSStakingInterfaceV6_4_1)4730": {
        "encoding": "inplace",
        "label": "contract GNSStakingInterfaceV6_4_1",
        "numberOfBytes": "20"
      },
      "t_contract(IGNSOracleRewardsV6_4_1)4922": {
        "encoding": "inplace",
        "label": "contract IGNSOracleRewardsV6_4_1",
        "numberOfBytes": "20"
      },
      "t_contract(StorageInterfaceV5)5704": {
        "encoding": "inplace",
        "label": "contract StorageInterfaceV5",
        "numberOfBytes": "20"
      },
      "t_enum(TradeType)668": {
        "encoding": "inplace",
        "label": "enum GNSTradingCallbacksV6_4_1.TradeType",
        "numberOfBytes": "1"
      },
      "t_mapping(t_address,t_mapping(t_uint256,t_mapping(t_uint256,t_mapping(t_enum(TradeType)668,t_struct(LastUpdated)637_storage))))": {
        "encoding": "mapping",
        "key": "t_address",
        "label": "mapping(address => mapping(uint256 => mapping(uint256 => mapping(enum GNSTradingCallbacksV6_4_1.TradeType => struct GNSTradingCallbacksV6_4_1.LastUpdated))))",
        "numberOfBytes": "32",
        "value": "t_mapping(t_uint256,t_mapping(t_uint256,t_mapping(t_enum(TradeType)668,t_struct(LastUpdated)637_storage)))"
      },
      "t_mapping(t_address,t_mapping(t_uint256,t_mapping(t_uint256,t_mapping(t_enum(TradeType)668,t_struct(TradeData)642_storage))))": {
        "encoding": "mapping",
        "key": "t_address",
        "label": "mapping(address => mapping(uint256 => mapping(uint256 => mapping(enum GNSTradingCallbacksV6_4_1.TradeType => struct GNSTradingCallbacksV6_4_1.TradeData))))",
        "numberOfBytes": "32",
        "value": "t_mapping(t_uint256,t_mapping(t_uint256,t_mapping(t_enum(TradeType)668,t_struct(TradeData)642_storage)))"
      },
      "t_mapping(t_enum(TradeType)668,t_struct(LastUpdated)637_storage)": {
        "encoding": "mapping",
        "key": "t_enum(TradeType)668",
        "label": "mapping(enum GNSTradingCallbacksV6_4_1.TradeType => struct GNSTradingCallbacksV6_4_1.LastUpdated)",
        "numberOfBytes": "32",
        "value": "t_struct(LastUpdated)637_storage"
      },
      "t_mapping(t_enum(TradeType)668,t_struct(TradeData)642_storage)": {
        "encoding": "mapping",
        "key": "t_enum(TradeType)668",
        "label": "mapping(enum GNSTradingCallbacksV6_4_1.TradeType => struct GNSTradingCallbacksV6_4_1.TradeData)",
        "numberOfBytes": "32",
        "value": "t_struct(TradeData)642_storage"
      },
      "t_mapping(t_uint256,t_mapping(t_enum(TradeType)668,t_struct(LastUpdated)637_storage))": {
        "encoding": "mapping",
        "key": "t_uint256",
        "label": "mapping(uint256 => mapping(enum GNSTradingCallbacksV6_4_1.TradeType => struct GNSTradingCallbacksV6_4_1.LastUpdated))",
        "numberOfBytes": "32",
        "value": "t_mapping(t_enum(TradeType)668,t_struct(LastUpdated)637_storage)"
      },
      "t_mapping(t_uint256,t_mapping(t_enum(TradeType)668,t_struct(TradeData)642_storage))": {
        "encoding": "mapping",
        "key": "t_uint256",
        "label": "mapping(uint256 => mapping(enum GNSTradingCallbacksV6_4_1.TradeType => struct GNSTradingCallbacksV6_4_1.TradeData))",
        "numberOfBytes": "32",
        "value": "t_mapping(t_enum(TradeType)668,t_struct(TradeData)642_storage)"
      },
      "t_mapping(t_uint256,t_mapping(t_uint256,t_mapping(t_enum(TradeType)668,t_struct(LastUpdated)637_storage)))": {
        "encoding": "mapping",
        "key": "t_uint256",
        "label": "mapping(uint256 => mapping(uint256 => mapping(enum GNSTradingCallbacksV6_4_1.TradeType => struct GNSTradingCallbacksV6_4_1.LastUpdated)))",
        "numberOfBytes": "32",
        "value": "t_mapping(t_uint256,t_mapping(t_enum(TradeType)668,t_struct(LastUpdated)637_storage))"
      },
      "t_mapping(t_uint256,t_mapping(t_uint256,t_mapping(t_enum(TradeType)668,t_struct(TradeData)642_storage)))": {
        "encoding": "mapping",
        "key": "t_uint256",
        "label": "mapping(uint256 => mapping(uint256 => mapping(enum GNSTradingCallbacksV6_4_1.TradeType => struct GNSTradingCallbacksV6_4_1.TradeData)))",
        "numberOfBytes": "32",
        "value": "t_mapping(t_uint256,t_mapping(t_enum(TradeType)668,t_struct(TradeData)642_storage))"
      },
      "t_mapping(t_uint256,t_uint256)": {
        "encoding": "mapping",
        "key": "t_uint256",
        "label": "mapping(uint256 => uint256)",
        "numberOfBytes": "32",
        "value": "t_uint256"
      },
      "t_struct(LastUpdated)637_storage": {
        "encoding": "inplace",
        "label": "struct GNSTradingCallbacksV6_4_1.LastUpdated",
        "members": [
          {
            "astId": 630,
            "contract": "contracts/contracts/GNSTradingCallbacksV6_4_1.sol:GNSTradingCallbacksV6_4_1",
            "label": "tp",
            "offset": 0,
            "slot": "0",
            "type": "t_uint32"
          },
          {
            "astId": 632,
            "contract": "contracts/contracts/GNSTradingCallbacksV6_4_1.sol:GNSTradingCallbacksV6_4_1",
            "label": "sl",
            "offset": 4,
            "slot": "0",
            "type": "t_uint32"
          },
          {
            "astId": 634,
            "contract": "contracts/contracts/GNSTradingCallbacksV6_4_1.sol:GNSTradingCallbacksV6_4_1",
            "label": "limit",
            "offset": 8,
            "slot": "0",
            "type": "t_uint32"
          },
          {
            "astId": 636,
            "contract": "contracts/contracts/GNSTradingCallbacksV6_4_1.sol:GNSTradingCallbacksV6_4_1",
            "label": "created",
            "offset": 12,
            "slot": "0",
            "type": "t_uint32"
          }
        ],
        "numberOfBytes": "32"
      },
      "t_struct(TradeData)642_storage": {
        "encoding": "inplace",
        "label": "struct GNSTradingCallbacksV6_4_1.TradeData",
        "members": [
          {
            "astId": 639,
            "contract": "contracts/contracts/GNSTradingCallbacksV6_4_1.sol:GNSTradingCallbacksV6_4_1",
            "label": "maxSlippageP",
            "offset": 0,
            "slot": "0",
            "type": "t_uint40"
          },
          {
            "astId": 641,
            "contract": "contracts/contracts/GNSTradingCallbacksV6_4_1.sol:GNSTradingCallbacksV6_4_1",
            "label": "_placeholder",
            "offset": 5,
            "slot": "0",
            "type": "t_uint216"
          }
        ],
        "numberOfBytes": "32"
      },
      "t_uint216": {
        "encoding": "inplace",
        "label": "uint216",
        "numberOfBytes": "27"
      },
      "t_uint256": {
        "encoding": "inplace",
        "label": "uint256",
        "numberOfBytes": "32"
      },
      "t_uint32": {
        "encoding": "inplace",
        "label": "uint32",
        "numberOfBytes": "4"
      },
      "t_uint40": {
        "encoding": "inplace",
        "label": "uint40",
        "numberOfBytes": "5"
      },
      "t_uint8": {
        "encoding": "inplace",
        "label": "uint8",
        "numberOfBytes": "1"
      }
    }
  }
}