{
  "address": "0x8C48fBBC69f2A91C1C0AA3AAe7233FEA786763B6",
  "abi": [
    {
      "anonymous": false,
      "inputs": [
        {
          "indexed": false,
          "internalType": "uint256",
          "name": "newAccValue",
          "type": "uint256"
        }
      ],
      "name": "AccBlockWeightedMarketCapStored",
      "type": "event"
    },
    {
      "anonymous": false,
      "inputs": [
        {
          "indexed": true,
          "internalType": "address",
          "name": "sender",
          "type": "address"
        },
        {
          "indexed": true,
          "internalType": "uint256",
          "name": "newEpoch",
          "type": "uint256"
        },
        {
          "indexed": false,
          "internalType": "uint256",
          "name": "prevPositiveOpenPnl",
          "type": "uint256"
        },
        {
          "indexed": false,
          "internalType": "uint256",
          "name": "newPositiveOpenPnl",
          "type": "uint256"
        },
        {
          "indexed": false,
          "internalType": "uint256",
          "name": "newEpochPositiveOpenPnl",
          "type": "uint256"
        },
        {
          "indexed": false,
          "internalType": "int256",
          "name": "newAccPnlPerTokenUsed",
          "type": "int256"
        }
      ],
      "name": "AccPnlPerTokenUsedUpdated",
      "type": "event"
    },
    {
      "anonymous": false,
      "inputs": [
        {
          "indexed": false,
          "internalType": "string",
          "name": "name",
          "type": "string"
        },
        {
          "indexed": false,
          "internalType": "address",
          "name": "newValue",
          "type": "address"
        }
      ],
      "name": "AddressParamUpdated",
      "type": "event"
    },
    {
      "anonymous": false,
      "inputs": [
        {
          "indexed": true,
          "internalType": "address",
          "name": "owner",
          "type": "address"
        },
        {
          "indexed": true,
          "internalType": "address",
          "name": "spender",
          "type": "address"
        },
        {
          "indexed": false,
          "internalType": "uint256",
          "name": "value",
          "type": "uint256"
        }
      ],
      "name": "Approval",
      "type": "event"
    },
    {
      "anonymous": false,
      "inputs": [
        {
          "indexed": true,
          "internalType": "address",
          "name": "sender",
          "type": "address"
        },
        {
          "indexed": true,
          "internalType": "address",
          "name": "user",
          "type": "address"
        },
        {
          "indexed": false,
          "internalType": "uint256",
          "name": "assets",
          "type": "uint256"
        },
        {
          "indexed": false,
          "internalType": "uint256",
          "name": "assetsLessDeplete",
          "type": "uint256"
        }
      ],
      "name": "AssetsReceived",
      "type": "event"
    },
    {
      "anonymous": false,
      "inputs": [
        {
          "indexed": true,
          "internalType": "address",
          "name": "sender",
          "type": "address"
        },
        {
          "indexed": true,
          "internalType": "address",
          "name": "receiver",
          "type": "address"
        },
        {
          "indexed": false,
          "internalType": "uint256",
          "name": "assets",
          "type": "uint256"
        }
      ],
      "name": "AssetsSent",
      "type": "event"
    },
    {
      "anonymous": false,
      "inputs": [
        {
          "indexed": false,
          "internalType": "uint256",
          "name": "newValue",
          "type": "uint256"
        }
      ],
      "name": "CurrentMaxSupplyUpdated",
      "type": "event"
    },
    {
      "anonymous": false,
      "inputs": [],
      "name": "DailyAccPnlDeltaReset",
      "type": "event"
    },
    {
      "anonymous": false,
      "inputs": [
        {
          "indexed": true,
          "internalType": "address",
          "name": "sender",
          "type": "address"
        },
        {
          "indexed": false,
          "internalType": "uint256",
          "name": "assets",
          "type": "uint256"
        },
        {
          "indexed": false,
          "internalType": "uint256",
          "name": "amountGns",
          "type": "uint256"
        }
      ],
      "name": "Depleted",
      "type": "event"
    },
    {
      "anonymous": false,
      "inputs": [
        {
          "indexed": true,
          "internalType": "address",
          "name": "sender",
          "type": "address"
        },
        {
          "indexed": true,
          "internalType": "address",
          "name": "owner",
          "type": "address"
        },
        {
          "indexed": false,
          "internalType": "uint256",
          "name": "assets",
          "type": "uint256"
        },
        {
          "indexed": false,
          "internalType": "uint256",
          "name": "shares",
          "type": "uint256"
        }
      ],
      "name": "Deposit",
      "type": "event"
    },
    {
      "anonymous": false,
      "inputs": [
        {
          "indexed": true,
          "internalType": "address",
          "name": "sender",
          "type": "address"
        },
        {
          "indexed": true,
          "internalType": "address",
          "name": "owner",
          "type": "address"
        },
        {
          "indexed": false,
          "internalType": "uint256",
          "name": "depositId",
          "type": "uint256"
        },
        {
          "components": [
            {
              "internalType": "address",
              "name": "owner",
              "type": "address"
            },
            {
              "internalType": "uint256",
              "name": "shares",
              "type": "uint256"
            },
            {
              "internalType": "uint256",
              "name": "assetsDeposited",
              "type": "uint256"
            },
            {
              "internalType": "uint256",
              "name": "assetsDiscount",
              "type": "uint256"
            },
            {
              "internalType": "uint256",
              "name": "atTimestamp",
              "type": "uint256"
            },
            {
              "internalType": "uint256",
              "name": "lockDuration",
              "type": "uint256"
            }
          ],
          "indexed": false,
          "internalType": "struct IGToken.LockedDeposit",
          "name": "d",
          "type": "tuple"
        }
      ],
      "name": "DepositLocked",
      "type": "event"
    },
    {
      "anonymous": false,
      "inputs": [
        {
          "indexed": true,
          "internalType": "address",
          "name": "sender",
          "type": "address"
        },
        {
          "indexed": true,
          "internalType": "address",
          "name": "receiver",
          "type": "address"
        },
        {
          "indexed": true,
          "internalType": "address",
          "name": "owner",
          "type": "address"
        },
        {
          "indexed": false,
          "internalType": "uint256",
          "name": "depositId",
          "type": "uint256"
        },
        {
          "components": [
            {
              "internalType": "address",
              "name": "owner",
              "type": "address"
            },
            {
              "internalType": "uint256",
              "name": "shares",
              "type": "uint256"
            },
            {
              "internalType": "uint256",
              "name": "assetsDeposited",
              "type": "uint256"
            },
            {
              "internalType": "uint256",
              "name": "assetsDiscount",
              "type": "uint256"
            },
            {
              "internalType": "uint256",
              "name": "atTimestamp",
              "type": "uint256"
            },
            {
              "internalType": "uint256",
              "name": "lockDuration",
              "type": "uint256"
            }
          ],
          "indexed": false,
          "internalType": "struct IGToken.LockedDeposit",
          "name": "d",
          "type": "tuple"
        }
      ],
      "name": "DepositUnlocked",
      "type": "event"
    },
    {
      "anonymous": false,
      "inputs": [
        {
          "components": [
            {
              "internalType": "address",
              "name": "addr",
              "type": "address"
            },
            {
              "internalType": "bytes",
              "name": "signature",
              "type": "bytes"
            }
          ],
          "indexed": false,
          "internalType": "struct GTokenV6_3_2.GnsPriceProvider",
          "name": "newValue",
          "type": "tuple"
        }
      ],
      "name": "GnsPriceProviderUpdated",
      "type": "event"
    },
    {
      "anonymous": false,
      "inputs": [
        {
          "indexed": false,
          "internalType": "uint8",
          "name": "version",
          "type": "uint8"
        }
      ],
      "name": "Initialized",
      "type": "event"
    },
    {
      "anonymous": false,
      "inputs": [
        {
          "indexed": false,
          "internalType": "string",
          "name": "name",
          "type": "string"
        },
        {
          "indexed": false,
          "internalType": "uint256",
          "name": "newValue",
          "type": "uint256"
        }
      ],
      "name": "NumberParamUpdated",
      "type": "event"
    },
    {
      "anonymous": false,
      "inputs": [],
      "name": "OpenTradesPnlFeedCallFailed",
      "type": "event"
    },
    {
      "anonymous": false,
      "inputs": [
        {
          "indexed": true,
          "internalType": "address",
          "name": "previousOwner",
          "type": "address"
        },
        {
          "indexed": true,
          "internalType": "address",
          "name": "newOwner",
          "type": "address"
        }
      ],
      "name": "OwnershipTransferred",
      "type": "event"
    },
    {
      "anonymous": false,
      "inputs": [
        {
          "indexed": true,
          "internalType": "address",
          "name": "sender",
          "type": "address"
        },
        {
          "indexed": false,
          "internalType": "uint256",
          "name": "assets",
          "type": "uint256"
        },
        {
          "indexed": false,
          "internalType": "uint256",
          "name": "amountGns",
          "type": "uint256"
        }
      ],
      "name": "Refilled",
      "type": "event"
    },
    {
      "anonymous": false,
      "inputs": [
        {
          "indexed": true,
          "internalType": "address",
          "name": "sender",
          "type": "address"
        },
        {
          "indexed": false,
          "internalType": "uint256",
          "name": "assets",
          "type": "uint256"
        }
      ],
      "name": "RewardDistributed",
      "type": "event"
    },
    {
      "anonymous": false,
      "inputs": [
        {
          "indexed": false,
          "internalType": "uint256",
          "name": "newValue",
          "type": "uint256"
        }
      ],
      "name": "ShareToAssetsPriceUpdated",
      "type": "event"
    },
    {
      "anonymous": false,
      "inputs": [
        {
          "indexed": true,
          "internalType": "address",
          "name": "from",
          "type": "address"
        },
        {
          "indexed": true,
          "internalType": "address",
          "name": "to",
          "type": "address"
        },
        {
          "indexed": false,
          "internalType": "uint256",
          "name": "value",
          "type": "uint256"
        }
      ],
      "name": "Transfer",
      "type": "event"
    },
    {
      "anonymous": false,
      "inputs": [
        {
          "indexed": true,
          "internalType": "address",
          "name": "sender",
          "type": "address"
        },
        {
          "indexed": true,
          "internalType": "address",
          "name": "receiver",
          "type": "address"
        },
        {
          "indexed": true,
          "internalType": "address",
          "name": "owner",
          "type": "address"
        },
        {
          "indexed": false,
          "internalType": "uint256",
          "name": "assets",
          "type": "uint256"
        },
        {
          "indexed": false,
          "internalType": "uint256",
          "name": "shares",
          "type": "uint256"
        }
      ],
      "name": "Withdraw",
      "type": "event"
    },
    {
      "anonymous": false,
      "inputs": [
        {
          "indexed": true,
          "internalType": "address",
          "name": "sender",
          "type": "address"
        },
        {
          "indexed": true,
          "internalType": "address",
          "name": "owner",
          "type": "address"
        },
        {
          "indexed": false,
          "internalType": "uint256",
          "name": "shares",
          "type": "uint256"
        },
        {
          "indexed": false,
          "internalType": "uint256",
          "name": "currEpoch",
          "type": "uint256"
        },
        {
          "indexed": true,
          "internalType": "uint256",
          "name": "unlockEpoch",
          "type": "uint256"
        }
      ],
      "name": "WithdrawCanceled",
      "type": "event"
    },
    {
      "anonymous": false,
      "inputs": [
        {
          "indexed": false,
          "internalType": "uint256[2]",
          "name": "newValue",
          "type": "uint256[2]"
        }
      ],
      "name": "WithdrawLockThresholdsPUpdated",
      "type": "event"
    },
    {
      "anonymous": false,
      "inputs": [
        {
          "indexed": true,
          "internalType": "address",
          "name": "sender",
          "type": "address"
        },
        {
          "indexed": true,
          "internalType": "address",
          "name": "owner",
          "type": "address"
        },
        {
          "indexed": false,
          "internalType": "uint256",
          "name": "shares",
          "type": "uint256"
        },
        {
          "indexed": false,
          "internalType": "uint256",
          "name": "currEpoch",
          "type": "uint256"
        },
        {
          "indexed": true,
          "internalType": "uint256",
          "name": "unlockEpoch",
          "type": "uint256"
        }
      ],
      "name": "WithdrawRequested",
      "type": "event"
    },
    {
      "inputs": [],
      "name": "MIN_LOCK_DURATION",
      "outputs": [
        {
          "internalType": "uint256",
          "name": "",
          "type": "uint256"
        }
      ],
      "stateMutability": "view",
      "type": "function"
    },
    {
      "inputs": [],
      "name": "accBlockWeightedMarketCap",
      "outputs": [
        {
          "internalType": "uint256",
          "name": "",
          "type": "uint256"
        }
      ],
      "stateMutability": "view",
      "type": "function"
    },
    {
      "inputs": [],
      "name": "accBlockWeightedMarketCapLastStored",
      "outputs": [
        {
          "internalType": "uint256",
          "name": "",
          "type": "uint256"
        }
      ],
      "stateMutability": "view",
      "type": "function"
    },
    {
      "inputs": [],
      "name": "accPnlPerToken",
      "outputs": [
        {
          "internalType": "int256",
          "name": "",
          "type": "int256"
        }
      ],
      "stateMutability": "view",
      "type": "function"
    },
    {
      "inputs": [],
      "name": "accPnlPerTokenUsed",
      "outputs": [
        {
          "internalType": "int256",
          "name": "",
          "type": "int256"
        }
      ],
      "stateMutability": "view",
      "type": "function"
    },
    {
      "inputs": [],
      "name": "accRewardsPerToken",
      "outputs": [
        {
          "internalType": "uint256",
          "name": "",
          "type": "uint256"
        }
      ],
      "stateMutability": "view",
      "type": "function"
    },
    {
      "inputs": [],
      "name": "admin",
      "outputs": [
        {
          "internalType": "address",
          "name": "",
          "type": "address"
        }
      ],
      "stateMutability": "view",
      "type": "function"
    },
    {
      "inputs": [
        {
          "internalType": "address",
          "name": "owner",
          "type": "address"
        },
        {
          "internalType": "address",
          "name": "spender",
          "type": "address"
        }
      ],
      "name": "allowance",
      "outputs": [
        {
          "internalType": "uint256",
          "name": "",
          "type": "uint256"
        }
      ],
      "stateMutability": "view",
      "type": "function"
    },
    {
      "inputs": [
        {
          "internalType": "address",
          "name": "spender",
          "type": "address"
        },
        {
          "internalType": "uint256",
          "name": "amount",
          "type": "uint256"
        }
      ],
      "name": "approve",
      "outputs": [
        {
          "internalType": "bool",
          "name": "",
          "type": "bool"
        }
      ],
      "stateMutability": "nonpayable",
      "type": "function"
    },
    {
      "inputs": [],
      "name": "asset",
      "outputs": [
        {
          "internalType": "address",
          "name": "",
          "type": "address"
        }
      ],
      "stateMutability": "view",
      "type": "function"
    },
    {
      "inputs": [],
      "name": "assetsToDeplete",
      "outputs": [
        {
          "internalType": "uint256",
          "name": "",
          "type": "uint256"
        }
      ],
      "stateMutability": "view",
      "type": "function"
    },
    {
      "inputs": [],
      "name": "availableAssets",
      "outputs": [
        {
          "internalType": "uint256",
          "name": "",
          "type": "uint256"
        }
      ],
      "stateMutability": "view",
      "type": "function"
    },
    {
      "inputs": [
        {
          "internalType": "address",
          "name": "account",
          "type": "address"
        }
      ],
      "name": "balanceOf",
      "outputs": [
        {
          "internalType": "uint256",
          "name": "",
          "type": "uint256"
        }
      ],
      "stateMutability": "view",
      "type": "function"
    },
    {
      "inputs": [
        {
          "internalType": "uint256",
          "name": "shares",
          "type": "uint256"
        },
        {
          "internalType": "address",
          "name": "owner",
          "type": "address"
        },
        {
          "internalType": "uint256",
          "name": "unlockEpoch",
          "type": "uint256"
        }
      ],
      "name": "cancelWithdrawRequest",
      "outputs": [],
      "stateMutability": "nonpayable",
      "type": "function"
    },
    {
      "inputs": [],
      "name": "collateralizationP",
      "outputs": [
        {
          "internalType": "uint256",
          "name": "",
          "type": "uint256"
        }
      ],
      "stateMutability": "view",
      "type": "function"
    },
    {
      "inputs": [
        {
          "internalType": "uint256",
          "name": "shares",
          "type": "uint256"
        }
      ],
      "name": "convertToAssets",
      "outputs": [
        {
          "internalType": "uint256",
          "name": "assets",
          "type": "uint256"
        }
      ],
      "stateMutability": "view",
      "type": "function"
    },
    {
      "inputs": [
        {
          "internalType": "uint256",
          "name": "assets",
          "type": "uint256"
        }
      ],
      "name": "convertToShares",
      "outputs": [
        {
          "internalType": "uint256",
          "name": "shares",
          "type": "uint256"
        }
      ],
      "stateMutability": "view",
      "type": "function"
    },
    {
      "inputs": [],
      "name": "currentBalanceDai",
      "outputs": [
        {
          "internalType": "uint256",
          "name": "",
          "type": "uint256"
        }
      ],
      "stateMutability": "view",
      "type": "function"
    },
    {
      "inputs": [],
      "name": "currentEpoch",
      "outputs": [
        {
          "internalType": "uint256",
          "name": "",
          "type": "uint256"
        }
      ],
      "stateMutability": "view",
      "type": "function"
    },
    {
      "inputs": [],
      "name": "currentEpochPositiveOpenPnl",
      "outputs": [
        {
          "internalType": "uint256",
          "name": "",
          "type": "uint256"
        }
      ],
      "stateMutability": "view",
      "type": "function"
    },
    {
      "inputs": [],
      "name": "currentEpochStart",
      "outputs": [
        {
          "internalType": "uint256",
          "name": "",
          "type": "uint256"
        }
      ],
      "stateMutability": "view",
      "type": "function"
    },
    {
      "inputs": [],
      "name": "currentMaxSupply",
      "outputs": [
        {
          "internalType": "uint256",
          "name": "",
          "type": "uint256"
        }
      ],
      "stateMutability": "view",
      "type": "function"
    },
    {
      "inputs": [],
      "name": "dailyAccPnlDelta",
      "outputs": [
        {
          "internalType": "int256",
          "name": "",
          "type": "int256"
        }
      ],
      "stateMutability": "view",
      "type": "function"
    },
    {
      "inputs": [],
      "name": "decimals",
      "outputs": [
        {
          "internalType": "uint8",
          "name": "",
          "type": "uint8"
        }
      ],
      "stateMutability": "view",
      "type": "function"
    },
    {
      "inputs": [
        {
          "internalType": "address",
          "name": "spender",
          "type": "address"
        },
        {
          "internalType": "uint256",
          "name": "subtractedValue",
          "type": "uint256"
        }
      ],
      "name": "decreaseAllowance",
      "outputs": [
        {
          "internalType": "bool",
          "name": "",
          "type": "bool"
        }
      ],
      "stateMutability": "nonpayable",
      "type": "function"
    },
    {
      "inputs": [
        {
          "internalType": "uint256",
          "name": "assets",
          "type": "uint256"
        }
      ],
      "name": "deplete",
      "outputs": [],
      "stateMutability": "nonpayable",
      "type": "function"
    },
    {
      "inputs": [
        {
          "internalType": "uint256",
          "name": "assets",
          "type": "uint256"
        },
        {
          "internalType": "address",
          "name": "receiver",
          "type": "address"
        }
      ],
      "name": "deposit",
      "outputs": [
        {
          "internalType": "uint256",
          "name": "",
          "type": "uint256"
        }
      ],
      "stateMutability": "nonpayable",
      "type": "function"
    },
    {
      "inputs": [
        {
          "internalType": "uint256",
          "name": "assets",
          "type": "uint256"
        },
        {
          "internalType": "uint256",
          "name": "lockDuration",
          "type": "uint256"
        },
        {
          "internalType": "address",
          "name": "receiver",
          "type": "address"
        }
      ],
      "name": "depositWithDiscountAndLock",
      "outputs": [
        {
          "internalType": "uint256",
          "name": "",
          "type": "uint256"
        }
      ],
      "stateMutability": "nonpayable",
      "type": "function"
    },
    {
      "inputs": [
        {
          "internalType": "uint256",
          "name": "assets",
          "type": "uint256"
        }
      ],
      "name": "distributeReward",
      "outputs": [],
      "stateMutability": "nonpayable",
      "type": "function"
    },
    {
      "inputs": [
        {
          "internalType": "uint256",
          "name": "depositId",
          "type": "uint256"
        }
      ],
      "name": "getLockedDeposit",
      "outputs": [
        {
          "components": [
            {
              "internalType": "address",
              "name": "owner",
              "type": "address"
            },
            {
              "internalType": "uint256",
              "name": "shares",
              "type": "uint256"
            },
            {
              "internalType": "uint256",
              "name": "assetsDeposited",
              "type": "uint256"
            },
            {
              "internalType": "uint256",
              "name": "assetsDiscount",
              "type": "uint256"
            },
            {
              "internalType": "uint256",
              "name": "atTimestamp",
              "type": "uint256"
            },
            {
              "internalType": "uint256",
              "name": "lockDuration",
              "type": "uint256"
            }
          ],
          "internalType": "struct IGToken.LockedDeposit",
          "name": "",
          "type": "tuple"
        }
      ],
      "stateMutability": "view",
      "type": "function"
    },
    {
      "inputs": [
        {
          "internalType": "uint256",
          "name": "currentBlock",
          "type": "uint256"
        }
      ],
      "name": "getPendingAccBlockWeightedMarketCap",
      "outputs": [
        {
          "internalType": "uint256",
          "name": "",
          "type": "uint256"
        }
      ],
      "stateMutability": "view",
      "type": "function"
    },
    {
      "inputs": [],
      "name": "gnsPriceProvider",
      "outputs": [
        {
          "internalType": "address",
          "name": "addr",
          "type": "address"
        },
        {
          "internalType": "bytes",
          "name": "signature",
          "type": "bytes"
        }
      ],
      "stateMutability": "view",
      "type": "function"
    },
    {
      "inputs": [],
      "name": "gnsToken",
      "outputs": [
        {
          "internalType": "address",
          "name": "",
          "type": "address"
        }
      ],
      "stateMutability": "view",
      "type": "function"
    },
    {
      "inputs": [],
      "name": "gnsTokenToAssetsPrice",
      "outputs": [
        {
          "internalType": "uint256",
          "name": "price",
          "type": "uint256"
        }
      ],
      "stateMutability": "view",
      "type": "function"
    },
    {
      "inputs": [
        {
          "internalType": "address",
          "name": "spender",
          "type": "address"
        },
        {
          "internalType": "uint256",
          "name": "addedValue",
          "type": "uint256"
        }
      ],
      "name": "increaseAllowance",
      "outputs": [
        {
          "internalType": "bool",
          "name": "",
          "type": "bool"
        }
      ],
      "stateMutability": "nonpayable",
      "type": "function"
    },
    {
      "inputs": [
        {
          "internalType": "string",
          "name": "_name",
          "type": "string"
        },
        {
          "internalType": "string",
          "name": "_symbol",
          "type": "string"
        },
        {
          "components": [
            {
              "internalType": "address",
              "name": "asset",
              "type": "address"
            },
            {
              "internalType": "address",
              "name": "owner",
              "type": "address"
            },
            {
              "internalType": "address",
              "name": "manager",
              "type": "address"
            },
            {
              "internalType": "address",
              "name": "admin",
              "type": "address"
            },
            {
              "internalType": "address",
              "name": "gnsToken",
              "type": "address"
            },
            {
              "internalType": "address",
              "name": "lockedDepositNft",
              "type": "address"
            },
            {
              "internalType": "address",
              "name": "pnlHandler",
              "type": "address"
            },
            {
              "internalType": "address",
              "name": "openTradesPnlFeed",
              "type": "address"
            },
            {
              "components": [
                {
                  "internalType": "address",
                  "name": "addr",
                  "type": "address"
                },
                {
                  "internalType": "bytes",
                  "name": "signature",
                  "type": "bytes"
                }
              ],
              "internalType": "struct GTokenV6_3_2.GnsPriceProvider",
              "name": "gnsPriceProvider",
              "type": "tuple"
            }
          ],
          "internalType": "struct GTokenV6_3_2.ContractAddresses",
          "name": "_contractAddresses",
          "type": "tuple"
        },
        {
          "internalType": "uint256",
          "name": "_MIN_LOCK_DURATION",
          "type": "uint256"
        },
        {
          "internalType": "uint256",
          "name": "_maxAccOpenPnlDelta",
          "type": "uint256"
        },
        {
          "internalType": "uint256",
          "name": "_maxDailyAccPnlDelta",
          "type": "uint256"
        },
        {
          "internalType": "uint256[2]",
          "name": "_withdrawLockThresholdsP",
          "type": "uint256[2]"
        },
        {
          "internalType": "uint256",
          "name": "_maxSupplyIncreaseDailyP",
          "type": "uint256"
        },
        {
          "internalType": "uint256",
          "name": "_lossesBurnP",
          "type": "uint256"
        },
        {
          "internalType": "uint256",
          "name": "_maxGnsSupplyMintDailyP",
          "type": "uint256"
        },
        {
          "internalType": "uint256",
          "name": "_maxDiscountP",
          "type": "uint256"
        },
        {
          "internalType": "uint256",
          "name": "_maxDiscountThresholdP",
          "type": "uint256"
        }
      ],
      "name": "initialize",
      "outputs": [],
      "stateMutability": "nonpayable",
      "type": "function"
    },
    {
      "inputs": [],
      "name": "initializeV2",
      "outputs": [],
      "stateMutability": "nonpayable",
      "type": "function"
    },
    {
      "inputs": [],
      "name": "lastDailyAccPnlDeltaReset",
      "outputs": [
        {
          "internalType": "uint256",
          "name": "",
          "type": "uint256"
        }
      ],
      "stateMutability": "view",
      "type": "function"
    },
    {
      "inputs": [],
      "name": "lastMaxSupplyUpdate",
      "outputs": [
        {
          "internalType": "uint256",
          "name": "",
          "type": "uint256"
        }
      ],
      "stateMutability": "view",
      "type": "function"
    },
    {
      "inputs": [
        {
          "internalType": "uint256",
          "name": "collatP",
          "type": "uint256"
        },
        {
          "internalType": "uint256",
          "name": "lockDuration",
          "type": "uint256"
        }
      ],
      "name": "lockDiscountP",
      "outputs": [
        {
          "internalType": "uint256",
          "name": "",
          "type": "uint256"
        }
      ],
      "stateMutability": "view",
      "type": "function"
    },
    {
      "inputs": [],
      "name": "lockedDepositNft",
      "outputs": [
        {
          "internalType": "contract INft",
          "name": "",
          "type": "address"
        }
      ],
      "stateMutability": "view",
      "type": "function"
    },
    {
      "inputs": [
        {
          "internalType": "uint256",
          "name": "",
          "type": "uint256"
        }
      ],
      "name": "lockedDeposits",
      "outputs": [
        {
          "internalType": "address",
          "name": "owner",
          "type": "address"
        },
        {
          "internalType": "uint256",
          "name": "shares",
          "type": "uint256"
        },
        {
          "internalType": "uint256",
          "name": "assetsDeposited",
          "type": "uint256"
        },
        {
          "internalType": "uint256",
          "name": "assetsDiscount",
          "type": "uint256"
        },
        {
          "internalType": "uint256",
          "name": "atTimestamp",
          "type": "uint256"
        },
        {
          "internalType": "uint256",
          "name": "lockDuration",
          "type": "uint256"
        }
      ],
      "stateMutability": "view",
      "type": "function"
    },
    {
      "inputs": [],
      "name": "lockedDepositsCount",
      "outputs": [
        {
          "internalType": "uint256",
          "name": "",
          "type": "uint256"
        }
      ],
      "stateMutability": "view",
      "type": "function"
    },
    {
      "inputs": [],
      "name": "lossesBurnP",
      "outputs": [
        {
          "internalType": "uint256",
          "name": "",
          "type": "uint256"
        }
      ],
      "stateMutability": "view",
      "type": "function"
    },
    {
      "inputs": [
        {
          "internalType": "uint256",
          "name": "shares",
          "type": "uint256"
        },
        {
          "internalType": "address",
          "name": "owner",
          "type": "address"
        }
      ],
      "name": "makeWithdrawRequest",
      "outputs": [],
      "stateMutability": "nonpayable",
      "type": "function"
    },
    {
      "inputs": [],
      "name": "manager",
      "outputs": [
        {
          "internalType": "address",
          "name": "",
          "type": "address"
        }
      ],
      "stateMutability": "view",
      "type": "function"
    },
    {
      "inputs": [],
      "name": "marketCap",
      "outputs": [
        {
          "internalType": "uint256",
          "name": "",
          "type": "uint256"
        }
      ],
      "stateMutability": "view",
      "type": "function"
    },
    {
      "inputs": [],
      "name": "maxAccOpenPnlDelta",
      "outputs": [
        {
          "internalType": "uint256",
          "name": "",
          "type": "uint256"
        }
      ],
      "stateMutability": "view",
      "type": "function"
    },
    {
      "inputs": [],
      "name": "maxAccPnlPerToken",
      "outputs": [
        {
          "internalType": "uint256",
          "name": "",
          "type": "uint256"
        }
      ],
      "stateMutability": "view",
      "type": "function"
    },
    {
      "inputs": [],
      "name": "maxDailyAccPnlDelta",
      "outputs": [
        {
          "internalType": "uint256",
          "name": "",
          "type": "uint256"
        }
      ],
      "stateMutability": "view",
      "type": "function"
    },
    {
      "inputs": [
        {
          "internalType": "address",
          "name": "owner",
          "type": "address"
        }
      ],
      "name": "maxDeposit",
      "outputs": [
        {
          "internalType": "uint256",
          "name": "",
          "type": "uint256"
        }
      ],
      "stateMutability": "view",
      "type": "function"
    },
    {
      "inputs": [],
      "name": "maxDiscountP",
      "outputs": [
        {
          "internalType": "uint256",
          "name": "",
          "type": "uint256"
        }
      ],
      "stateMutability": "view",
      "type": "function"
    },
    {
      "inputs": [],
      "name": "maxDiscountThresholdP",
      "outputs": [
        {
          "internalType": "uint256",
          "name": "",
          "type": "uint256"
        }
      ],
      "stateMutability": "view",
      "type": "function"
    },
    {
      "inputs": [],
      "name": "maxGnsSupplyMintDailyP",
      "outputs": [
        {
          "internalType": "uint256",
          "name": "",
          "type": "uint256"
        }
      ],
      "stateMutability": "view",
      "type": "function"
    },
    {
      "inputs": [
        {
          "internalType": "address",
          "name": "",
          "type": "address"
        }
      ],
      "name": "maxMint",
      "outputs": [
        {
          "internalType": "uint256",
          "name": "",
          "type": "uint256"
        }
      ],
      "stateMutability": "view",
      "type": "function"
    },
    {
      "inputs": [
        {
          "internalType": "address",
          "name": "owner",
          "type": "address"
        }
      ],
      "name": "maxRedeem",
      "outputs": [
        {
          "internalType": "uint256",
          "name": "",
          "type": "uint256"
        }
      ],
      "stateMutability": "view",
      "type": "function"
    },
    {
      "inputs": [],
      "name": "maxSupplyIncreaseDailyP",
      "outputs": [
        {
          "internalType": "uint256",
          "name": "",
          "type": "uint256"
        }
      ],
      "stateMutability": "view",
      "type": "function"
    },
    {
      "inputs": [
        {
          "internalType": "address",
          "name": "owner",
          "type": "address"
        }
      ],
      "name": "maxWithdraw",
      "outputs": [
        {
          "internalType": "uint256",
          "name": "",
          "type": "uint256"
        }
      ],
      "stateMutability": "view",
      "type": "function"
    },
    {
      "inputs": [
        {
          "internalType": "uint256",
          "name": "shares",
          "type": "uint256"
        },
        {
          "internalType": "address",
          "name": "receiver",
          "type": "address"
        }
      ],
      "name": "mint",
      "outputs": [
        {
          "internalType": "uint256",
          "name": "",
          "type": "uint256"
        }
      ],
      "stateMutability": "nonpayable",
      "type": "function"
    },
    {
      "inputs": [
        {
          "internalType": "uint256",
          "name": "shares",
          "type": "uint256"
        },
        {
          "internalType": "uint256",
          "name": "lockDuration",
          "type": "uint256"
        },
        {
          "internalType": "address",
          "name": "receiver",
          "type": "address"
        }
      ],
      "name": "mintWithDiscountAndLock",
      "outputs": [
        {
          "internalType": "uint256",
          "name": "",
          "type": "uint256"
        }
      ],
      "stateMutability": "nonpayable",
      "type": "function"
    },
    {
      "inputs": [],
      "name": "name",
      "outputs": [
        {
          "internalType": "string",
          "name": "",
          "type": "string"
        }
      ],
      "stateMutability": "view",
      "type": "function"
    },
    {
      "inputs": [],
      "name": "openTradesPnlFeed",
      "outputs": [
        {
          "internalType": "contract IOpenTradesPnlFeed",
          "name": "",
          "type": "address"
        }
      ],
      "stateMutability": "view",
      "type": "function"
    },
    {
      "inputs": [],
      "name": "owner",
      "outputs": [
        {
          "internalType": "address",
          "name": "",
          "type": "address"
        }
      ],
      "stateMutability": "view",
      "type": "function"
    },
    {
      "inputs": [],
      "name": "pnlHandler",
      "outputs": [
        {
          "internalType": "address",
          "name": "",
          "type": "address"
        }
      ],
      "stateMutability": "view",
      "type": "function"
    },
    {
      "inputs": [
        {
          "internalType": "uint256",
          "name": "assets",
          "type": "uint256"
        }
      ],
      "name": "previewDeposit",
      "outputs": [
        {
          "internalType": "uint256",
          "name": "",
          "type": "uint256"
        }
      ],
      "stateMutability": "view",
      "type": "function"
    },
    {
      "inputs": [
        {
          "internalType": "uint256",
          "name": "shares",
          "type": "uint256"
        }
      ],
      "name": "previewMint",
      "outputs": [
        {
          "internalType": "uint256",
          "name": "",
          "type": "uint256"
        }
      ],
      "stateMutability": "view",
      "type": "function"
    },
    {
      "inputs": [
        {
          "internalType": "uint256",
          "name": "shares",
          "type": "uint256"
        }
      ],
      "name": "previewRedeem",
      "outputs": [
        {
          "internalType": "uint256",
          "name": "",
          "type": "uint256"
        }
      ],
      "stateMutability": "view",
      "type": "function"
    },
    {
      "inputs": [
        {
          "internalType": "uint256",
          "name": "assets",
          "type": "uint256"
        }
      ],
      "name": "previewWithdraw",
      "outputs": [
        {
          "internalType": "uint256",
          "name": "",
          "type": "uint256"
        }
      ],
      "stateMutability": "view",
      "type": "function"
    },
    {
      "inputs": [
        {
          "internalType": "uint256",
          "name": "assets",
          "type": "uint256"
        },
        {
          "internalType": "address",
          "name": "user",
          "type": "address"
        }
      ],
      "name": "receiveAssets",
      "outputs": [],
      "stateMutability": "nonpayable",
      "type": "function"
    },
    {
      "inputs": [
        {
          "internalType": "uint256",
          "name": "shares",
          "type": "uint256"
        },
        {
          "internalType": "address",
          "name": "receiver",
          "type": "address"
        },
        {
          "internalType": "address",
          "name": "owner",
          "type": "address"
        }
      ],
      "name": "redeem",
      "outputs": [
        {
          "internalType": "uint256",
          "name": "",
          "type": "uint256"
        }
      ],
      "stateMutability": "nonpayable",
      "type": "function"
    },
    {
      "inputs": [
        {
          "internalType": "uint256",
          "name": "assets",
          "type": "uint256"
        }
      ],
      "name": "refill",
      "outputs": [],
      "stateMutability": "nonpayable",
      "type": "function"
    },
    {
      "inputs": [],
      "name": "renounceOwnership",
      "outputs": [],
      "stateMutability": "nonpayable",
      "type": "function"
    },
    {
      "inputs": [
        {
          "internalType": "uint256",
          "name": "assets",
          "type": "uint256"
        },
        {
          "internalType": "address",
          "name": "receiver",
          "type": "address"
        }
      ],
      "name": "sendAssets",
      "outputs": [],
      "stateMutability": "nonpayable",
      "type": "function"
    },
    {
      "inputs": [],
      "name": "shareToAssetsPrice",
      "outputs": [
        {
          "internalType": "uint256",
          "name": "",
          "type": "uint256"
        }
      ],
      "stateMutability": "view",
      "type": "function"
    },
    {
      "inputs": [],
      "name": "storeAccBlockWeightedMarketCap",
      "outputs": [],
      "stateMutability": "nonpayable",
      "type": "function"
    },
    {
      "inputs": [],
      "name": "symbol",
      "outputs": [
        {
          "internalType": "string",
          "name": "",
          "type": "string"
        }
      ],
      "stateMutability": "view",
      "type": "function"
    },
    {
      "inputs": [],
      "name": "totalAssets",
      "outputs": [
        {
          "internalType": "uint256",
          "name": "",
          "type": "uint256"
        }
      ],
      "stateMutability": "view",
      "type": "function"
    },
    {
      "inputs": [],
      "name": "totalClosedPnl",
      "outputs": [
        {
          "internalType": "int256",
          "name": "",
          "type": "int256"
        }
      ],
      "stateMutability": "view",
      "type": "function"
    },
    {
      "inputs": [],
      "name": "totalDepleted",
      "outputs": [
        {
          "internalType": "uint256",
          "name": "",
          "type": "uint256"
        }
      ],
      "stateMutability": "view",
      "type": "function"
    },
    {
      "inputs": [],
      "name": "totalDeposited",
      "outputs": [
        {
          "internalType": "uint256",
          "name": "",
          "type": "uint256"
        }
      ],
      "stateMutability": "view",
      "type": "function"
    },
    {
      "inputs": [],
      "name": "totalDiscounts",
      "outputs": [
        {
          "internalType": "uint256",
          "name": "",
          "type": "uint256"
        }
      ],
      "stateMutability": "view",
      "type": "function"
    },
    {
      "inputs": [],
      "name": "totalLiability",
      "outputs": [
        {
          "internalType": "int256",
          "name": "",
          "type": "int256"
        }
      ],
      "stateMutability": "view",
      "type": "function"
    },
    {
      "inputs": [],
      "name": "totalLockedDiscounts",
      "outputs": [
        {
          "internalType": "uint256",
          "name": "",
          "type": "uint256"
        }
      ],
      "stateMutability": "view",
      "type": "function"
    },
    {
      "inputs": [],
      "name": "totalRefilled",
      "outputs": [
        {
          "internalType": "uint256",
          "name": "",
          "type": "uint256"
        }
      ],
      "stateMutability": "view",
      "type": "function"
    },
    {
      "inputs": [],
      "name": "totalRewards",
      "outputs": [
        {
          "internalType": "uint256",
          "name": "",
          "type": "uint256"
        }
      ],
      "stateMutability": "view",
      "type": "function"
    },
    {
      "inputs": [
        {
          "internalType": "address",
          "name": "owner",
          "type": "address"
        }
      ],
      "name": "totalSharesBeingWithdrawn",
      "outputs": [
        {
          "internalType": "uint256",
          "name": "shares",
          "type": "uint256"
        }
      ],
      "stateMutability": "view",
      "type": "function"
    },
    {
      "inputs": [],
      "name": "totalSupply",
      "outputs": [
        {
          "internalType": "uint256",
          "name": "",
          "type": "uint256"
        }
      ],
      "stateMutability": "view",
      "type": "function"
    },
    {
      "inputs": [
        {
          "internalType": "address",
          "name": "to",
          "type": "address"
        },
        {
          "internalType": "uint256",
          "name": "amount",
          "type": "uint256"
        }
      ],
      "name": "transfer",
      "outputs": [
        {
          "internalType": "bool",
          "name": "",
          "type": "bool"
        }
      ],
      "stateMutability": "nonpayable",
      "type": "function"
    },
    {
      "inputs": [
        {
          "internalType": "address",
          "name": "from",
          "type": "address"
        },
        {
          "internalType": "address",
          "name": "to",
          "type": "address"
        },
        {
          "internalType": "uint256",
          "name": "amount",
          "type": "uint256"
        }
      ],
      "name": "transferFrom",
      "outputs": [
        {
          "internalType": "bool",
          "name": "",
          "type": "bool"
        }
      ],
      "stateMutability": "nonpayable",
      "type": "function"
    },
    {
      "inputs": [
        {
          "internalType": "address",
          "name": "newOwner",
          "type": "address"
        }
      ],
      "name": "transferOwnership",
      "outputs": [],
      "stateMutability": "nonpayable",
      "type": "function"
    },
    {
      "inputs": [],
      "name": "tryNewOpenPnlRequestOrEpoch",
      "outputs": [],
      "stateMutability": "nonpayable",
      "type": "function"
    },
    {
      "inputs": [],
      "name": "tryResetDailyAccPnlDelta",
      "outputs": [],
      "stateMutability": "nonpayable",
      "type": "function"
    },
    {
      "inputs": [],
      "name": "tryUpdateCurrentMaxSupply",
      "outputs": [],
      "stateMutability": "nonpayable",
      "type": "function"
    },
    {
      "inputs": [],
      "name": "tvl",
      "outputs": [
        {
          "internalType": "uint256",
          "name": "",
          "type": "uint256"
        }
      ],
      "stateMutability": "view",
      "type": "function"
    },
    {
      "inputs": [
        {
          "internalType": "uint256",
          "name": "depositId",
          "type": "uint256"
        },
        {
          "internalType": "address",
          "name": "receiver",
          "type": "address"
        }
      ],
      "name": "unlockDeposit",
      "outputs": [],
      "stateMutability": "nonpayable",
      "type": "function"
    },
    {
      "inputs": [
        {
          "internalType": "uint256",
          "name": "prevPositiveOpenPnl",
          "type": "uint256"
        },
        {
          "internalType": "uint256",
          "name": "newPositiveOpenPnl",
          "type": "uint256"
        }
      ],
      "name": "updateAccPnlPerTokenUsed",
      "outputs": [
        {
          "internalType": "uint256",
          "name": "",
          "type": "uint256"
        }
      ],
      "stateMutability": "nonpayable",
      "type": "function"
    },
    {
      "inputs": [
        {
          "internalType": "address",
          "name": "newValue",
          "type": "address"
        }
      ],
      "name": "updateAdmin",
      "outputs": [],
      "stateMutability": "nonpayable",
      "type": "function"
    },
    {
      "inputs": [
        {
          "components": [
            {
              "internalType": "address",
              "name": "addr",
              "type": "address"
            },
            {
              "internalType": "bytes",
              "name": "signature",
              "type": "bytes"
            }
          ],
          "internalType": "struct GTokenV6_3_2.GnsPriceProvider",
          "name": "newValue",
          "type": "tuple"
        }
      ],
      "name": "updateGnsPriceProvider",
      "outputs": [],
      "stateMutability": "nonpayable",
      "type": "function"
    },
    {
      "inputs": [
        {
          "internalType": "uint256",
          "name": "newValue",
          "type": "uint256"
        }
      ],
      "name": "updateLossesBurnP",
      "outputs": [],
      "stateMutability": "nonpayable",
      "type": "function"
    },
    {
      "inputs": [
        {
          "internalType": "address",
          "name": "newValue",
          "type": "address"
        }
      ],
      "name": "updateManager",
      "outputs": [],
      "stateMutability": "nonpayable",
      "type": "function"
    },
    {
      "inputs": [
        {
          "internalType": "uint256",
          "name": "newValue",
          "type": "uint256"
        }
      ],
      "name": "updateMaxAccOpenPnlDelta",
      "outputs": [],
      "stateMutability": "nonpayable",
      "type": "function"
    },
    {
      "inputs": [
        {
          "internalType": "uint256",
          "name": "newValue",
          "type": "uint256"
        }
      ],
      "name": "updateMaxDailyAccPnlDelta",
      "outputs": [],
      "stateMutability": "nonpayable",
      "type": "function"
    },
    {
      "inputs": [
        {
          "internalType": "uint256",
          "name": "newValue",
          "type": "uint256"
        }
      ],
      "name": "updateMaxDiscountP",
      "outputs": [],
      "stateMutability": "nonpayable",
      "type": "function"
    },
    {
      "inputs": [
        {
          "internalType": "uint256",
          "name": "newValue",
          "type": "uint256"
        }
      ],
      "name": "updateMaxDiscountThresholdP",
      "outputs": [],
      "stateMutability": "nonpayable",
      "type": "function"
    },
    {
      "inputs": [
        {
          "internalType": "uint256",
          "name": "newValue",
          "type": "uint256"
        }
      ],
      "name": "updateMaxGnsSupplyMintDailyP",
      "outputs": [],
      "stateMutability": "nonpayable",
      "type": "function"
    },
    {
      "inputs": [
        {
          "internalType": "uint256",
          "name": "newValue",
          "type": "uint256"
        }
      ],
      "name": "updateMaxSupplyIncreaseDailyP",
      "outputs": [],
      "stateMutability": "nonpayable",
      "type": "function"
    },
    {
      "inputs": [
        {
          "internalType": "address",
          "name": "newValue",
          "type": "address"
        }
      ],
      "name": "updateOpenTradesPnlFeed",
      "outputs": [],
      "stateMutability": "nonpayable",
      "type": "function"
    },
    {
      "inputs": [
        {
          "internalType": "address",
          "name": "newValue",
          "type": "address"
        }
      ],
      "name": "updatePnlHandler",
      "outputs": [],
      "stateMutability": "nonpayable",
      "type": "function"
    },
    {
      "inputs": [
        {
          "internalType": "uint256[2]",
          "name": "newValue",
          "type": "uint256[2]"
        }
      ],
      "name": "updateWithdrawLockThresholdsP",
      "outputs": [],
      "stateMutability": "nonpayable",
      "type": "function"
    },
    {
      "inputs": [
        {
          "internalType": "uint256",
          "name": "assets",
          "type": "uint256"
        },
        {
          "internalType": "address",
          "name": "receiver",
          "type": "address"
        },
        {
          "internalType": "address",
          "name": "owner",
          "type": "address"
        }
      ],
      "name": "withdraw",
      "outputs": [
        {
          "internalType": "uint256",
          "name": "",
          "type": "uint256"
        }
      ],
      "stateMutability": "nonpayable",
      "type": "function"
    },
    {
      "inputs": [],
      "name": "withdrawEpochsTimelock",
      "outputs": [
        {
          "internalType": "uint256",
          "name": "",
          "type": "uint256"
        }
      ],
      "stateMutability": "view",
      "type": "function"
    },
    {
      "inputs": [
        {
          "internalType": "uint256",
          "name": "",
          "type": "uint256"
        }
      ],
      "name": "withdrawLockThresholdsP",
      "outputs": [
        {
          "internalType": "uint256",
          "name": "",
          "type": "uint256"
        }
      ],
      "stateMutability": "view",
      "type": "function"
    },
    {
      "inputs": [
        {
          "internalType": "address",
          "name": "",
          "type": "address"
        },
        {
          "internalType": "uint256",
          "name": "",
          "type": "uint256"
        }
      ],
      "name": "withdrawRequests",
      "outputs": [
        {
          "internalType": "uint256",
          "name": "",
          "type": "uint256"
        }
      ],
      "stateMutability": "view",
      "type": "function"
    }
  ],
  "transactionHash": "0x977b3631addbba3caf3e5a3e05cb0f2b7e2b0714172b12c73d3f7c4684bfc9d9",
  "args": [],
  "numDeployments": 1,
  "solcInputHash": "fac78b0f772a9015d669f0e9fbef4cb5",
  "bytecode": "0x608060405234801561001057600080fd5b50615ec880620000216000396000f3fe608060405234801561001057600080fd5b50600436106106eb5760003560e01c80638d6cb28811610392578063cb7f2c39116101e9578063e66a6e3b1161011a578063f2fde38b116100b8578063f8fb10f711610087578063f8fb10f714610e47578063faf33f2914610e50578063fe0b6d9014610e59578063ff50abdc14610e6c57600080fd5b8063f2fde38b14610e05578063f31bd8f714610e18578063f5521eaa14610e21578063f851a44014610e3457600080fd5b8063e8e43110116100f4578063e8e4311014610de0578063ea5f2bba14610df3578063ef8b30f714610c5c578063f0a7744614610dfc57600080fd5b8063e66a6e3b14610d62578063e783967614610d75578063e7899c0614610dd857600080fd5b8063d8bdfd4811610187578063dd62ed3e11610161578063dd62ed3e14610d2b578063ddd65e3114610d3e578063e2f273bd14610d47578063e5328e0614610d5a57600080fd5b8063d8bdfd4814610d07578063d905777e14610d0f578063db0447d514610d2257600080fd5b8063cf39c2db116101c3578063cf39c2db14610cbb578063d1e08c2014610cce578063d229b2dd14610ce1578063d272df1014610cf457600080fd5b8063cb7f2c3914610c82578063ce96cb7714610c95578063ce9e1b2114610ca857600080fd5b8063ad00a5a4116102c3578063ba08765211610261578063c63384ab1161023b578063c63384ab14610c41578063c63d75b614610c49578063c6e6f59214610c5c578063ca9d07ba14610c6f57600080fd5b8063ba08765214610c13578063be216e8314610c26578063c4c1416914610c2e57600080fd5b8063b3d7f6b91161029d578063b3d7f6b914610b56578063b460af9414610b69578063b54bf9c914610b7c578063b82c589914610b8f57600080fd5b8063ad00a5a414610b27578063b224e73514610b3a578063b3c4850a14610b4357600080fd5b80639aca06dc11610330578063a50043a01161030a578063a50043a014610adb578063a8abe90514610aee578063a9059cbb14610b01578063aabf8ede14610b1457600080fd5b80639aca06dc14610aac578063a457c2d714610ab5578063a481c14b14610ac857600080fd5b806394bf804d1161036c57806394bf804d14610a6b57806395d89b4114610a7e578063979abb2514610a86578063979b089514610a9957600080fd5b80638d6cb28814610a3e5780638da5cb5b14610a47578063940a4e4514610a5857600080fd5b8063402d267d1161054657806366d8ecf1116104775780637361a5441161041557806378b4330f116103ef57806378b4330f14610a1057806379431d9c14610a195780637dfc692214610a2c5780637fcff2af14610a3557600080fd5b80637361a544146109eb57806375cd9da9146109fe5780637667180814610a0757600080fd5b80636e553f65116104515780636e553f65146109945780636ee432f2146109a757806370a08231146109ba578063715018a6146109e357600080fd5b806366d8ecf11461094d5780636ce7dcc9146109565780636d6ca3191461096957600080fd5b8063596f0bc5116104e45780635e93f860116104be5780635e93f8601461092a5780635f4ae7411461093357806361a8c8c41461093c5780636445ec001461094557600080fd5b8063596f0bc5146108f95780635a6953d31461090f5780635cd8a76b1461092257600080fd5b80634ea0ddf7116105205780634ea0ddf7146108c157806353409be2146108ca57806354508847146108d357806358aba00f146108e657600080fd5b8063402d267d1461089b578063481c6a75146108ae5780634cdad5061461073e57600080fd5b80631f91f287116106205780632c135b93116105be5780633950935111610598578063395093511461086e5780633b418c1e146108815780633cc775271461088a5780633d7e45871461089357600080fd5b80632c135b9314610836578063313ce5671461083e57806338d52e0f1461085d57600080fd5b806320e70a56116105fa57806320e70a56146107fe578063215e2fae1461081157806322b2ef851461081a57806323b872dd1461082357600080fd5b80631f91f287146107c35780631fc8d099146107ee57806320124bce146107f657600080fd5b80630a28a4771161068d5780630fc29349116106675780630fc29349146107a05780630fcc6f31146107a9578063104aeef8146107b257806318160ddd146107bb57600080fd5b80630a28a4771461077c5780630dfb52871461078f5780630e15561a1461079757600080fd5b806306fdde03116106c957806306fdde031461072957806307a2d13a1461073e5780630851a20214610751578063095ea7b31461075957600080fd5b806301e1d114146106f05780630307604f1461070b5780630344e8a314610714575b600080fd5b6106f8610e75565b6040519081526020015b60405180910390f35b6106f860f35481565b610727610722366004615762565b610ef6565b005b6107316112e1565b6040516107029190615979565b6106f861074c366004615730565b611373565b6106f8611386565b61076c610767366004615597565b611390565b6040519015158152602001610702565b6106f861078a366004615730565b6113a8565b6107276113b5565b6106f860ed5481565b6106f860ee5481565b6106f860ec5481565b6106f860e55481565b6035546106f8565b60ce546107d6906001600160a01b031681565b6040516001600160a01b039091168152602001610702565b6106f8611470565b6106f8611582565b61072761080c3660046154e3565b6115bf565b6106f860e85481565b6106f860e65481565b61076c610831366004615556565b61165c565b6106f86116e9565b606554600160a01b900460ff1660405160ff9091168152602001610702565b6065546001600160a01b03166107d6565b61076c61087c366004615597565b611700565b6106f860d45481565b6106f860d95481565b610727611722565b6106f86108a93660046154e3565b611771565b60cb546107d6906001600160a01b031681565b6106f860de5481565b6106f860ef5481565b6107276108e1366004615730565b611786565b6107276108f43660046154e3565b611857565b61090161192b565b604051610702929190615924565b60cd546107d6906001600160a01b031681565b6107276119cc565b6106f860e05481565b6106f860f25481565b6106f860e35481565b610727611a7d565b6106f860ea5481565b610727610964366004615730565b611b1e565b6106f8610977366004615597565b60e760209081526000928352604080842090915290825290205481565b6106f86109a2366004615762565b611bef565b6106f86109b5366004615730565b611cb9565b6106f86109c83660046154e3565b6001600160a01b031660009081526033602052604090205490565b610727611cd0565b6106f86109f93660046157f0565b611ce2565b6106f860d85481565b6106f860e25481565b6106f860d15481565b60ca546107d6906001600160a01b031681565b6106f860db5481565b6106f860df5481565b6106f860f45481565b6097546001600160a01b03166107d6565b610727610a66366004615730565b611eae565b6106f8610a79366004615762565b611f6b565b61073161202d565b610727610a94366004615730565b61203c565b6106f8610aa7366004615730565b61210f565b6106f860f05481565b61076c610ac3366004615597565b612164565b610727610ad6366004615762565b6121ea565b610727610ae93660046157c9565b612370565b610727610afc366004615762565b6124d3565b61076c610b0f366004615597565b612701565b610727610b22366004615601565b612776565b6106f8610b353660046154e3565b612b78565b6106f860e15481565b6106f8610b51366004615812565b612bf9565b6106f8610b64366004615730565b612de6565b6106f8610b77366004615787565b612df3565b610727610b8a3660046156fb565b612efd565b610bdc610b9d366004615730565b60e9602052600090815260409020805460018201546002830154600384015460048501546005909501546001600160a01b039094169492939192909186565b604080516001600160a01b0390971687526020870195909552938501929092526060840152608083015260a082015260c001610702565b6106f8610c21366004615787565b613004565b6106f8613102565b610727610c3c366004615730565b61311a565b6106f86131d2565b6106f8610c573660046154e3565b613243565b6106f8610c6a366004615730565b613272565b610727610c7d366004615730565b61327f565b60c9546107d6906001600160a01b031681565b6106f8610ca33660046154e3565b613406565b610727610cb6366004615730565b613414565b610727610cc9366004615730565b6134c1565b6106f8610cdc3660046157f0565b613594565b610727610cef3660046154e3565b613629565b610727610d02366004615730565b6136b8565b6106f861370f565b6106f8610d1d3660046154e3565b6137b3565b6106f860d75481565b6106f8610d3936600461551d565b61387b565b6106f860dd5481565b610727610d553660046154e3565b6138a6565b6106f86139a3565b610727610d70366004615762565b6139bf565b610d88610d83366004615730565b613bac565b604051610702919081516001600160a01b031681526020808301519082015260408083015190820152606080830151908201526080808301519082015260a0918201519181019190915260c00190565b610727613c50565b6106f8610dee366004615812565b613c9b565b6106f860dc5481565b6106f860d35481565b610727610e133660046154e3565b613e80565b6106f860f15481565b610727610e2f3660046155c3565b613f3e565b60cc546107d6906001600160a01b031681565b6106f860da5481565b6106f860e45481565b610727610e67366004615730565b613fc6565b6106f860eb5481565b6065546040516370a0823160e01b81523060048201526000916001600160a01b0316906370a082319060240160206040518083038186803b158015610eb957600080fd5b505afa158015610ecd573d6000803e3d6000fd5b505050506040513d601f19601f82011682018060405250810190610ef19190615749565b905090565b600082815260e960205260408120903360ca546040516331a9108f60e11b8152600481018790529192506000916001600160a01b0390911690636352211e9060240160206040518083038186803b158015610f5057600080fd5b505afa158015610f64573d6000803e3d6000fd5b505050506040513d601f19601f82011682018060405250810190610f889190615500565b9050816001600160a01b0316816001600160a01b0316148061102e575060ca5460405163020604bf60e21b8152600481018790526001600160a01b0384811692169063081812fc9060240160206040518083038186803b158015610feb57600080fd5b505afa158015610fff573d6000803e3d6000fd5b505050506040513d601f19601f820116820180604052508101906110239190615500565b6001600160a01b0316145b806110b9575060ca5460405163e985e9c560e01b81526001600160a01b03838116600483015284811660248301529091169063e985e9c59060440160206040518083038186803b15801561108157600080fd5b505afa158015611095573d6000803e3d6000fd5b505050506040513d601f19601f820116820180604052508101906110b991906155df565b6110de5760405162461bcd60e51b81526004016110d5906159d0565b60405180910390fd5b826005015483600401546110f29190615bff565b4210156111305760405162461bcd60e51b815260206004820152600c60248201526b1393d517d5539313d0d2d15160a21b60448201526064016110d5565b6000611155670de0b6b3a764000061114760355490565b600387015491906001614085565b90508060de60008282546111699190615bbe565b909155506111779050613102565b60de5413156111bc5760405162461bcd60e51b81526020600482015260116024820152704e4f545f454e4f5547485f41535345545360781b60448201526064016110d5565b60ca54604051630852cd8d60e31b8152600481018890526001600160a01b03909116906342966c6890602401600060405180830381600087803b15801561120257600080fd5b505af1158015611216573d6000803e3d6000fd5b505050508060dd600082825461122c9190615bbe565b9091555061123a90506140e0565b836003015460ee60008282546112509190615bbe565b9091555050600384015460ef805460009061126c908490615d3c565b9250508190555061128230868660010154614144565b816001600160a01b0316856001600160a01b0316846001600160a01b03167fe37405a4f414fe3119839681cc26ea3462fc575fd2f81734417e52144d3f34b989886040516112d1929190615b4a565b60405180910390a4505050505050565b6060603680546112f090615d7f565b80601f016020809104026020016040519081016040528092919081815260200182805461131c90615d7f565b80156113695780601f1061133e57610100808354040283529160200191611369565b820191906000526020600020905b81548152906001019060200180831161134c57829003601f168201915b5050505050905090565b60006113808260006142e8565b92915050565b6000610ef1611582565b60003361139e818585614329565b5060019392505050565b600061138082600161444d565b60ce5460408051600481526024810182526020810180516001600160e01b031663bef35b7960e01b17905290516000926001600160a01b0316916113f89161586c565b6000604051808303816000865af19150503d8060008114611435576040519150601f19603f3d011682016040523d82523d6000602084013e61143a565b606091505b505090508061146d576040517f46f2d6138acb3be39ad6ae5c9279b648c2a2c68743d0ddc18cc3a81cedecebd590600090a15b50565b60cf54604051600091829182916001600160a01b0316906114939060d090615888565b600060405180830381855afa9150503d80600081146114ce576040519150601f19603f3d011682016040523d82523d6000602084013e6114d3565b606091505b5090925090506001821515146115235760405162461bcd60e51b815260206004820152601560248201527411d394d7d4149250d157d0d0531317d19052531151605a1b60448201526064016110d5565b808060200190518101906115379190615749565b92506000831161157d5760405162461bcd60e51b81526020600482015260116024820152700474e535f544f4b454e5f50524943455f3607c1b60448201526064016110d5565b505090565b6000670de0b6b3a764000061159660355490565b60dd546115a1613102565b6115ab9190615cfd565b6115b59190615cde565b610ef19190615c45565b6115c7614469565b6001600160a01b0381166115ed5760405162461bcd60e51b81526004016110d590615a43565b60ce80546001600160a01b0319166001600160a01b03831690811790915560408051818152601191810191909152701bdc195b951c9859195cd41b9b11995959607a1b60608201526020810191909152600080516020615e73833981519152906080015b60405180910390a150565b6001600160a01b038316600090815260336020526040812054611680908390615d3c565b61168985612b78565b11156116cc5760405162461bcd60e51b815260206004820152601260248201527114115391125391d7d5d2551211149055d05360721b60448201526064016110d5565b6116d78433846144c3565b61139e848484614144565b9392505050565b6000670de0b6b3a764000060dc546115ab60355490565b60003361139e818585611713838361387b565b61171d9190615bff565b614329565b600061172c614537565b90506117378161210f565b60f381905560f48290556040519081527f9551c7fda0233728a7b7eae3d388b53a068086c3f7d613bdf74e6e58dd6b41ec90602001611651565b600061138061177f83613243565b60006142e8565b60cb546001600160a01b0316336001600160a01b0316146117b95760405162461bcd60e51b81526004016110d590615ad6565b6117cc600a670de0b6b3a7640000615c45565b8110156118075760405162461bcd60e51b81526020600482015260096024820152682122a627abafa6a4a760b91b60448201526064016110d5565b60d481905560408051818152601391810191909152726d61784461696c79416363506e6c44656c746160681b606082015260208101829052600080516020615e5383398151915290608001611651565b61185f614469565b6001600160a01b0381166118855760405162461bcd60e51b81526004016110d590615a43565b6097546001600160a01b038281169116148015906118b1575060cc546001600160a01b03828116911614155b6118cd5760405162461bcd60e51b81526004016110d590615a66565b60cb80546001600160a01b0319166001600160a01b038316908117909155604080518181526007918101919091526636b0b730b3b2b960c91b60608201526020810191909152600080516020615e7383398151915290608001611651565b60cf805460d080546001600160a01b03909216929161194990615d7f565b80601f016020809104026020016040519081016040528092919081815260200182805461197590615d7f565b80156119c25780601f10611997576101008083540402835291602001916119c2565b820191906000526020600020905b8154815290600101906020018083116119a557829003601f168201915b5050505050905082565b600054600290610100900460ff161580156119ee575060005460ff8083169116105b611a0a5760405162461bcd60e51b81526004016110d5906159f5565b6000805461ffff191660ff831617610100179055611a26611722565b60ed5460eb6000828254611a3a9190615bff565b90915550506000805461ff001916905560405160ff821681527f7f26b83ff96e1f2b6a682f133852f6798a09c465da95921460cefb384740249890602001611651565b6201518060e65442611a8f9190615d3c565b10611b1c57611aa7670de0b6b3a76400006064615cde565b60d754611abd670de0b6b3a76400006064615cde565b611ac79190615bff565b603554611ad49190615cde565b611ade9190615c45565b60e58190554260e6556040519081527fd103db6eec024592fa6d47db028ec6408076ac4762eb021a6e52b525828bab9b906020015b60405180910390a15b565b60ea54811115611b615760405162461bcd60e51b815260206004820152600e60248201526d414d4f554e545f544f4f5f42494760901b60448201526064016110d5565b8060ea6000828254611b739190615d3c565b909155505060f1805433918391600090611b8e908490615bff565b90915550611ba69050611b9f61458f565b82846145a3565b60408051838152600060208201526001600160a01b038316917f1fb4f167278bb29c47ac4fd58ca1586b0626b52807f2991ef78abdbb97bb433391015b60405180910390a25050565b600082600060dc5411611c145760405162461bcd60e51b81526004016110d5906159af565b60008111611c345760405162461bcd60e51b81526004016110d590615afc565b611c3d83611771565b841115611c8c5760405162461bcd60e51b815260206004820152601e60248201527f455243343632363a206465706f736974206d6f7265207468616e206d6178000060448201526064016110d5565b6000611c9785613272565b9050611ca58186600161460b565b611cb1338587846146e7565b949350505050565b60d58160028110611cc957600080fd5b0154905081565b611cd8614469565b611b1c6000614757565b60ce5460009033906001600160a01b03168114611d315760405162461bcd60e51b815260206004820152600d60248201526c13d3931657d4139317d1915151609a1b60448201526064016110d5565b6000611d3d8585615cfd565b90506000611d4a60355490565b90506000611daa670de0b6b3a76400008360de54611d66613102565b611d709190615cfd565b611d7a9190615cde565b611d849190615c45565b670de0b6b3a76400008460d354611d9b9190615cde565b611da59190615c45565b6147a9565b9050808313611db95782611dbb565b805b925081611dd0670de0b6b3a764000085615c59565b611dda9190615c17565b60de6000828254611deb9190615bbe565b925050819055508260ee6000828254611e049190615bbe565b909155505060de5460dd55611e176140e0565b60e28054906000611e2783615db4565b90915550504260e355611e3a8388615bbe565b60e455611e45611a7d565b60e25460e45460dd54604080518b8152602081018b90529081019290925260608201526001600160a01b038616907f115621a72d6f59323a1d752b116219634bc004cadb85d6bdc8e7eb254905722d9060800160405180910390a3505060e45495945050505050565b33611ec2611eba61458f565b8230856147bf565b603554611ed7670de0b6b3a764000084615cde565b611ee19190615c45565b60df6000828254611ef29190615bff565b90915550611f0090506140e0565b8160ed6000828254611f129190615bff565b925050819055508160eb6000828254611f2b9190615bff565b90915550506040518281526001600160a01b038216907fe34918ff1c7084970068b53fd71ad6d8b04e9f15d3886cbf006443e6cdc52ea690602001611be3565b600082600060dc5411611f905760405162461bcd60e51b81526004016110d5906159af565b60008111611fb05760405162461bcd60e51b81526004016110d590615afc565b611fb983613243565b8411156120085760405162461bcd60e51b815260206004820152601b60248201527f455243343632363a206d696e74206d6f7265207468616e206d6178000000000060448201526064016110d5565b600061201385612de6565b90506120218582600161460b565b611cb1338583886146e7565b6060603780546112f090615d7f565b60cb546001600160a01b0316336001600160a01b03161461206f5760405162461bcd60e51b81526004016110d590615ad6565b612082670de0b6b3a7640000600a615cde565b8111156120c65760405162461bcd60e51b8152602060048201526012602482015271105093d59157d3505617d11254d0d3d5539560721b60448201526064016110d5565b60da81905560408051818152600c918101919091526b06d6178446973636f756e74560a41b606082015260208101829052600080516020615e5383398151915290608001611651565b600061212361211c6116e9565b60016147f7565b701d6329f1c35ca4bfabb9f561000000000060f454846121439190615d3c565b61214d9190615cde565b6121579190615c45565b60f3546113809190615bff565b60003381612172828661387b565b9050838110156121d25760405162461bcd60e51b815260206004820152602560248201527f45524332303a2064656372656173656420616c6c6f77616e63652062656c6f77604482015264207a65726f60d81b60648201526084016110d5565b6121df8286868403614329565b506001949350505050565b336121fe6121f661458f565b8230866147bf565b60dd54839060001380156122145750600060de54125b156122705760006064670de0b6b3a764000060d854876122349190615cde565b61223e9190615c45565b6122489190615c45565b90508060ea600082825461225c9190615bff565b9091555061226c90508183615d3c565b9150505b600061227b60355490565b61228d670de0b6b3a764000084615cde565b6122979190615c45565b90508060de60008282546122ab9190615cfd565b909155506122b99050613c50565b8060e060008282546122cb9190615cfd565b925050819055508160ee60008282546122e49190615cfd565b925050819055508160ec60008282546122fd9190615cfd565b9091555061230b90506113b5565b612313611a7d565b836001600160a01b0316836001600160a01b03167f2083893e39f8ae736fed502f7e149cc5bfe6159878615fae685a9a98bc452d5a8785604051612361929190918252602082015260400190565b60405180910390a35050505050565b6001600160a01b038216600090815260e7602090815260408083208484529091529020548311156123e35760405162461bcd60e51b815260206004820152601960248201527f4d4f52455f5448414e5f57495448445241575f414d4f554e540000000000000060448201526064016110d5565b3360006123f0848361387b565b9050836001600160a01b0316826001600160a01b0316148061241d575060008111801561241d5750848110155b6124395760405162461bcd60e51b81526004016110d5906159d0565b6001600160a01b038416600090815260e7602090815260408083208684529091528120805487929061246c908490615d3c565b9250508190555082846001600160a01b0316836001600160a01b03167f443ccdbbbde35bd48740a9ea14c47318b735db4631ed1ebcdaaaa9f4636c84ea8860e2546040516124c4929190918252602082015260400190565b60405180910390a45050505050565b60ce60009054906101000a90046001600160a01b03166001600160a01b031663b8feee646040518163ffffffff1660e01b815260040160206040518083038186803b15801561252157600080fd5b505afa158015612535573d6000803e3d6000fd5b505050506040513d601f19601f820116820180604052508101906125599190615749565b156125955760405162461bcd60e51b815260206004820152600c60248201526b08a9c88be9e8cbe8aa09e86960a31b60448201526064016110d5565b3360006125a2838361387b565b9050826001600160a01b0316826001600160a01b031614806125cf57506000811180156125cf5750838110155b6125eb5760405162461bcd60e51b81526004016110d5906159d0565b6001600160a01b0383166000908152603360205260409020548461260e85612b78565b6126189190615bff565b111561265a5760405162461bcd60e51b81526020600482015260116024820152704d4f52455f5448414e5f42414c414e434560781b60448201526064016110d5565b600061266461370f565b60e2546126719190615bff565b6001600160a01b038516600090815260e7602090815260408083208484529091528120805492935087929091906126a9908490615bff565b9250508190555080846001600160a01b0316846001600160a01b03167f21b8e5e36008677ea26efbbc967e568e01b127f731ed0fda0a8685fda37d0d5f8860e2546040516124c4929190918252602082015260400190565b3360008181526033602052604081205490919061271f908490615d3c565b61272882612b78565b111561276b5760405162461bcd60e51b815260206004820152601260248201527114115391125391d7d5d2551211149055d05360721b60448201526064016110d5565b61139e818585614144565b600054610100900460ff16158080156127965750600054600160ff909116105b806127b05750303b1580156127b0575060005460ff166001145b6127cc5760405162461bcd60e51b81526004016110d5906159f5565b6000805460ff1916600117905580156127ef576000805461ff0019166101001790555b8a516001600160a01b031615801590612814575060208b01516001600160a01b031615155b801561282c575060408b01516001600160a01b031615155b8015612844575060608b01516001600160a01b031615155b801561286a57508a604001516001600160a01b03168b602001516001600160a01b031614155b801561289057508a606001516001600160a01b03168b604001516001600160a01b031614155b80156128a8575060a08b01516001600160a01b031615155b80156128c0575060c08b01516001600160a01b031615155b80156128d8575060e08b01516001600160a01b031615155b80156128f657506128f2600a670de0b6b3a7640000615c45565b8810155b8015612906575086516020880151115b80156129245750612920670de0b6b3a76400006032615cde565b8611155b8015612942575061293e670de0b6b3a76400006019615cde565b8511155b8015612960575061295c6014670de0b6b3a7640000615c45565b8411155b801561297e575061297a670de0b6b3a7640000600a615cde565b8311155b801561299c5750612998670de0b6b3a76400006064615cde565b8210155b6129d75760405162461bcd60e51b815260206004820152600c60248201526b57524f4e475f504152414d5360a01b60448201526064016110d5565b6129e18d8d614806565b8a516129ec9061483b565b6129f98b60200151614757565b60808b015160c980546001600160a01b03199081166001600160a01b039384161790915560a08d015160ca8054831691841691909117905560408d015160cb8054831691841691909117905560608d015160cc8054831691841691909117905560c08d015160cd8054831691841691909117905560e08d015160ce805483169184169190911790556101008d0151805160cf805490931693169290921781556020808301518051612aae9260d092019061515e565b50505060d18a905560d389905560d4889055612acd60d58860026151e2565b5060d786905560d885905560da83905560db829055670de0b6b3a764000060dc55600160e28190554260e3556040805160608101825260038082526002602083015291810192909252612b229160d29161520f565b508015612b69576000805461ff0019169055604051600181527f7f26b83ff96e1f2b6a682f133852f6798a09c465da95921460cefb38474024989060200160405180910390a15b50505050505050505050505050565b60e2546000905b60d2600081548110612b9357612b93615e11565b906000526020600020015460e254612bab9190615bff565b8111612bf3576001600160a01b038316600090815260e760209081526040808320848452909152902054612bdf9083615bff565b915080612beb81615db4565b915050612b7f565b50919050565b600083600060dc5411612c1e5760405162461bcd60e51b81526004016110d5906159af565b60008111612c3e5760405162461bcd60e51b81526004016110d590615afc565b83600060da5411612c865760405162461bcd60e51b81526020600482015260126024820152711393d7d050d512559157d11254d0d3d5539560721b60448201526064016110d5565b60d154811015612cd25760405162461bcd60e51b81526020600482015260176024820152762122a627abafa6a4a72fa627a1a5afa22aa920aa24a7a760491b60448201526064016110d5565b6301e13380811115612d205760405162461bcd60e51b815260206004820152601760248201527620a127ab22afa6a0ac2fa627a1a5afa22aa920aa24a7a760491b60448201526064016110d5565b612d2984613243565b861115612d6d5760405162461bcd60e51b815260206004820152601260248201527109a929ca8be9a9ea48abea890829cbe9a82b60731b60448201526064016110d5565b6000612d7887612de6565b9050612ddb81612d8f612d896131d2565b89613594565b612da2670de0b6b3a76400006064615cde565b612dac9190615bff565b612dbf670de0b6b3a76400006064615cde565b612dc99085615cde565b612dd39190615c45565b89898961486b565b979650505050505050565b60006113808260016142e8565b600083600060dc5411612e185760405162461bcd60e51b81526004016110d5906159af565b60008111612e385760405162461bcd60e51b81526004016110d590615afc565b612e4183613406565b851115612e905760405162461bcd60e51b815260206004820152601f60248201527f455243343632363a207769746864726177206d6f7265207468616e206d61780060448201526064016110d5565b6000612e9b866113a8565b6001600160a01b038516600090815260e76020908152604080832060e2548452909152812080549293508392909190612ed5908490615d3c565b90915550612ee790508187600061460b565b612ef43386868985614a26565b95945050505050565b60cb546001600160a01b0316336001600160a01b031614612f305760405162461bcd60e51b81526004016110d590615ad6565b80516001600160a01b0316612f575760405162461bcd60e51b81526004016110d590615a43565b600081602001515111612f965760405162461bcd60e51b8152602060048201526007602482015266042595445535f360cc1b60448201526064016110d5565b805160cf80546001600160a01b0319166001600160a01b039092169190911781556020808301518051849392612fd19260d09291019061515e565b509050507f2763c7adb1b7018e25499ef5553ec78e35bb46be6384b393861c35d501825dce816040516116519190615b1d565b600083600060dc54116130295760405162461bcd60e51b81526004016110d5906159af565b600081116130495760405162461bcd60e51b81526004016110d590615afc565b613052836137b3565b8511156130a15760405162461bcd60e51b815260206004820152601d60248201527f455243343632363a2072656465656d206d6f7265207468616e206d617800000060448201526064016110d5565b6001600160a01b038316600090815260e76020908152604080832060e2548452909152812080548792906130d6908490615d3c565b90915550600090506130e786611373565b90506130f58682600061460b565b612ef4338686848a614a26565b600060df54670de0b6b3a7640000610ef19190615bff565b60cb546001600160a01b0316336001600160a01b03161461314d5760405162461bcd60e51b81526004016110d590615ad6565b6131606014670de0b6b3a7640000615c45565b81111561317f5760405162461bcd60e51b81526004016110d59061598c565b60d9819055604080518181526016918101919091527506d6178476e73537570706c794d696e744461696c79560541b606082015260208101829052600080516020615e5383398151915290608001611651565b6000806131dd613102565b905080670de0b6b3a7640000600060dd54136132115760dd5461320290600019615c59565b61320c9084615bff565b61321e565b60dd5461321e9084615d3c565b613229906064615cde565b6132339190615cde565b61323d9190615c45565b91505090565b60008060dd541361325657600019611380565b61326560e554611da560355490565b60e5546113809190615d3c565b600061138082600061444d565b600060dd54136132d15760405162461bcd60e51b815260206004820152601860248201527f4e4f545f554e4445525f434f4c4c41544552414c495a4544000000000000000060448201526064016110d5565b60006132dc60355490565b9050670de0b6b3a76400008160dd546132f59190615cde565b6132ff9190615c45565b82111561333f5760405162461bcd60e51b815260206004820152600e60248201526d414d4f554e545f544f4f5f42494760901b60448201526064016110d5565b3361334b6121f661458f565b600082613360670de0b6b3a764000086615cde565b61336a9190615c45565b90508060de600082825461337e9190615cfd565b925050819055508060dd60008282546133979190615cfd565b909155506133a590506140e0565b8360f260008282546133b79190615bff565b909155505060408051858152600060208201526001600160a01b038416917f19aee2c21e4d63823896cb2a77a3e61197dda70b1043a55fca38aa8d75c0edd3910160405180910390a250505050565b600061138061177f836137b3565b60cb546001600160a01b0316336001600160a01b0316146134475760405162461bcd60e51b81526004016110d590615ad6565b61345a670de0b6b3a76400006019615cde565b8111156134795760405162461bcd60e51b81526004016110d59061598c565b60d881905560408051818152600b918101919091526a06c6f737365734275726e560ac1b606082015260208101829052600080516020615e5383398151915290608001611651565b60cb546001600160a01b0316336001600160a01b0316146134f45760405162461bcd60e51b81526004016110d590615ad6565b613507670de0b6b3a76400006064615cde565b8110156135425760405162461bcd60e51b81526020600482015260096024820152682122a627abafa6a4a760b91b60448201526064016110d5565b60db819055604080518181526015918101919091527406d6178446973636f756e745468726573686f6c645605c1b606082015260208101829052600080516020615e5383398151915290608001611651565b60006301e13380826135af670de0b6b3a76400006064615cde565b8511156136115760db548511156135c7576000613615565b6135da670de0b6b3a76400006064615cde565b60db546135e79190615d3c565b8560db546135f59190615d3c565b60da546136029190615cde565b61360c9190615c45565b613615565b60da545b61361f9190615cde565b6116e29190615c45565b613631614469565b6001600160a01b0381166136575760405162461bcd60e51b81526004016110d590615a43565b60cd80546001600160a01b0319166001600160a01b03831690811790915560408051818152600a91810191909152693837362430b7323632b960b11b60608201526020810191909152600080516020615e7383398151915290608001611651565b6136c0614469565b60d381905560408051818152601291810191909152716d61784163634f70656e506e6c44656c746160701b606082015260208101829052600080516020615e5383398151915290608001611651565b60008061371a6131d2565b9050600061373582611da5670de0b6b3a76400006064615cde565b61373f9083615d3c565b60d654909150811161378c5760d55481116137785760d260008154811061376857613768615e11565b90600052602060002001546137ac565b60d260018154811061376857613768615e11565b60d26002815481106137a0576137a0615e11565b90600052602060002001545b9250505090565b60ce5460408051632e3fbb9960e21b815290516000926001600160a01b03169163b8feee64916004808301926020929190829003018186803b1580156137f857600080fd5b505afa15801561380c573d6000803e3d6000fd5b505050506040513d601f19601f820116820180604052508101906138309190615749565b1561383c576000611380565b6001600160a01b038216600090815260e76020908152604080832060e254845290915290205461138090600161387160355490565b611da59190615d3c565b6001600160a01b03918216600090815260346020908152604080832093909416825291909152205490565b60cb546001600160a01b0316336001600160a01b0316146138d95760405162461bcd60e51b81526004016110d590615ad6565b6001600160a01b0381166138ff5760405162461bcd60e51b81526004016110d590615a43565b6097546001600160a01b0382811691161480159061392b575060cb546001600160a01b03828116911614155b6139475760405162461bcd60e51b81526004016110d590615a66565b60cc80546001600160a01b0319166001600160a01b038316908117909155604080518181526005918101919091526430b236b4b760d91b60608201526020810191909152600080516020615e7383398151915290608001611651565b6000670de0b6b3a76400006139b760355490565b6115ab613102565b60cd5433906001600160a01b03168114613a1b5760405162461bcd60e51b815260206004820152601860248201527f4f4e4c595f54524144494e475f504e4c5f48414e444c4552000000000000000060448201526064016110d5565b6000613a3c670de0b6b3a7640000613a3260355490565b8691906001614085565b90508060de6000828254613a509190615bbe565b90915550613a5e9050613102565b60de541315613aa35760405162461bcd60e51b81526020600482015260116024820152704e4f545f454e4f5547485f41535345545360781b60448201526064016110d5565b613aab613c50565b8060e06000828254613abd9190615bbe565b909155505060d45460e0541315613b065760405162461bcd60e51b815260206004820152600d60248201526c13505617d11052531657d41393609a1b60448201526064016110d5565b8360ee6000828254613b189190615bbe565b925050819055508360ec6000828254613b319190615bbe565b90915550613b3f90506113b5565b613b47611a7d565b613b59613b5261458f565b84866145a3565b826001600160a01b0316826001600160a01b03167f17ffe64fb2212f31d60284d6471e06abb7db8d66f0a60f9b884b29f1597d05da86604051613b9e91815260200190565b60405180910390a350505050565b613bee6040518060c0016040528060006001600160a01b0316815260200160008152602001600081526020016000815260200160008152602001600081525090565b50600090815260e96020908152604091829020825160c08101845281546001600160a01b03168152600182015492810192909252600281015492820192909252600382015460608201526004820154608082015260059091015460a082015290565b6201518060e15442613c629190615d3c565b10611b1c57600060e08190554260e1556040517fa047de172c12fcf40e0ff45a86ac45befb232ae644862699ef140a8c5f763b419190a1565b600083600060dc5411613cc05760405162461bcd60e51b81526004016110d5906159af565b60008111613ce05760405162461bcd60e51b81526004016110d590615afc565b83600060da5411613d285760405162461bcd60e51b81526020600482015260126024820152711393d7d050d512559157d11254d0d3d5539560721b60448201526064016110d5565b60d154811015613d745760405162461bcd60e51b81526020600482015260176024820152762122a627abafa6a4a72fa627a1a5afa22aa920aa24a7a760491b60448201526064016110d5565b6301e13380811115613dc25760405162461bcd60e51b815260206004820152601760248201527620a127ab22afa6a0ac2fa627a1a5afa22aa920aa24a7a760491b60448201526064016110d5565b6000613dd7670de0b6b3a76400006064615cde565b613de8613de26131d2565b88613594565b613dfb670de0b6b3a76400006064615cde565b613e059190615bff565b613e0f9089615cde565b613e199190615c45565b9050613e2485611771565b811115613e6b5760405162461bcd60e51b81526020600482015260156024820152740888aa09ea692a8be9a9ea48abea890829cbe9a82b605b1b60448201526064016110d5565b612ddb8188613e7984613272565b898961486b565b613e88614469565b6001600160a01b038116613eed5760405162461bcd60e51b815260206004820152602660248201527f4f776e61626c653a206e6577206f776e657220697320746865207a65726f206160448201526564647265737360d01b60648201526084016110d5565b60cb546001600160a01b03828116911614801590613f19575060cc546001600160a01b03828116911614155b613f355760405162461bcd60e51b81526004016110d590615a66565b61146d81614757565b613f46614469565b8051602082015111613f895760405162461bcd60e51b815260206004820152600c60248201526b57524f4e475f56414c55455360a01b60448201526064016110d5565b613f9660d58260026151e2565b507f8472b50e25b52d8de564f9719bd793b18d83cf59ce4d309e211fb6a4fdc14811816040516116519190615948565b60cb546001600160a01b0316336001600160a01b031614613ff95760405162461bcd60e51b81526004016110d590615ad6565b61400c670de0b6b3a76400006032615cde565b81111561402b5760405162461bcd60e51b81526004016110d59061598c565b60d7819055604080518181526017918101919091527f6d6178537570706c79496e6372656173654461696c7950000000000000000000606082015260208101829052600080516020615e5383398151915290608001611651565b600080614093868686614ac3565b905060018360028111156140a9576140a9615dfb565b1480156140c65750600084806140c1576140c1615de5565b868809115b15612ef4576140d6600182615bff565b9695505050505050565b6140e8611722565b600060dd54136140f95760006140fd565b60dd545b614105613102565b61410f9190615d3c565b60dc8190556040519081527f547c25b7a5677a006ff044a0e4b5e699598339825e7b42d3dc645117ceee805090602001611b13565b6001600160a01b0383166141a85760405162461bcd60e51b815260206004820152602560248201527f45524332303a207472616e736665722066726f6d20746865207a65726f206164604482015264647265737360d81b60648201526084016110d5565b6001600160a01b03821661420a5760405162461bcd60e51b815260206004820152602360248201527f45524332303a207472616e7366657220746f20746865207a65726f206164647260448201526265737360e81b60648201526084016110d5565b6001600160a01b038316600090815260336020526040902054818110156142825760405162461bcd60e51b815260206004820152602660248201527f45524332303a207472616e7366657220616d6f756e7420657863656564732062604482015265616c616e636560d01b60648201526084016110d5565b6001600160a01b0380851660008181526033602052604080822086860390559286168082529083902080548601905591517fddf252ad1be2c89b69c2b068fc378daa952ba7f163c4a11628f55a4df523b3ef90613b9e9086815260200190565b50505050565b6000600019831480156143055750670de0b6b3a764000060dc5410155b15614311575081611380565b60dc546116e2908490670de0b6b3a764000085614085565b6001600160a01b03831661438b5760405162461bcd60e51b8152602060048201526024808201527f45524332303a20617070726f76652066726f6d20746865207a65726f206164646044820152637265737360e01b60648201526084016110d5565b6001600160a01b0382166143ec5760405162461bcd60e51b815260206004820152602260248201527f45524332303a20617070726f766520746f20746865207a65726f206164647265604482015261737360f01b60648201526084016110d5565b6001600160a01b0383811660008181526034602090815260408083209487168084529482529182902085905590518481527f8c5be1e5ebec7d5bd14f71427d1e84f3dd0314c0f7b2291e5b200ac8c7c3b925910160405180910390a3505050565b60dc546000906116e2908490670de0b6b3a76400009085614085565b6097546001600160a01b03163314611b1c5760405162461bcd60e51b815260206004820181905260248201527f4f776e61626c653a2063616c6c6572206973206e6f7420746865206f776e657260448201526064016110d5565b60006144cf848461387b565b905060001981146142e2578181101561452a5760405162461bcd60e51b815260206004820152601d60248201527f45524332303a20696e73756666696369656e7420616c6c6f77616e636500000060448201526064016110d5565b6142e28484848403614329565b600061a4b146148061454b575062066eed46145b1561458a5760646001600160a01b031663a3b1b31d6040518163ffffffff1660e01b815260040160206040518083038186803b158015610eb957600080fd5b504390565b6000610ef16065546001600160a01b031690565b6040516001600160a01b03831660248201526044810182905261460690849063a9059cbb60e01b906064015b60408051601f198184030181529190526020810180516001600160e01b03166001600160e01b031990931692909217909152614b73565b505050565b600061461660355490565b9050600060de5412156146615781614637576146328482615d3c565b614641565b6146418482615bff565b8160de5461464f9190615c59565b6146599190615c17565b60de556146b6565b600060de5413156146b657816146795760001961467c565b60015b8160ee548661468b9190615c59565b6146959190615c17565b61469f9190615c59565b60ee60008282546146b09190615bbe565b90915550505b816146ce578260eb546146c99190615d3c565b6146dc565b8260eb546146dc9190615bff565b60eb556142e2611722565b6065546146ff906001600160a01b03168530856147bf565b6147098382614c45565b826001600160a01b0316846001600160a01b03167fdcbc1c05240f31ff3ad067ef1ee35ce4997762752e3a095284754544f4c709d78484604051613b9e929190918252602082015260400190565b609780546001600160a01b038381166001600160a01b0319831681179093556040519116919082907f8be0079c531659141344cd1fd0a4f28419497f9722a3daafe3b4186f6b6457e090600090a35050565b60008183106147b857816116e2565b5090919050565b6040516001600160a01b03808516602483015283166044820152606481018290526142e29085906323b872dd60e01b906084016145cf565b60008183116147b857816116e2565b600054610100900460ff1661482d5760405162461bcd60e51b81526004016110d590615a8b565b6148378282614d06565b5050565b600054610100900460ff166148625760405162461bcd60e51b81526004016110d590615a8b565b61146d81614d54565b60008486116148aa5760405162461bcd60e51b815260206004820152600b60248201526a1393d7d11254d0d3d5539560aa1b60448201526064016110d5565b600060e8600081546148bb90615db4565b9182905550905060006148ce8789615d3c565b600083815260e96020526040902080546001600160a01b0319166001600160a01b0387161781556001808201899055600282018a90556003820183905542600483015560058201889055919250906149299088908a9061460b565b3361493681308b8b6146e7565b8260f060008282546149489190615bff565b925050819055508260ef60008282546149619190615bff565b909155505060ca546040516340c10f1960e01b81526001600160a01b03888116600483015260248201879052909116906340c10f1990604401600060405180830381600087803b1580156149b457600080fd5b505af11580156149c8573d6000803e3d6000fd5b505083546040516001600160a01b03918216935090841691507f5d26cdffbd8401ba2a961d2094f7f008ee7bd735ac02a949721ee0fd0f0d5afc90614a109088908790615b4a565b60405180910390a3509198975050505050505050565b826001600160a01b0316856001600160a01b031614614a4a57614a4a8386836144c3565b614a548382614dd9565b606554614a6b906001600160a01b031685846145a3565b826001600160a01b0316846001600160a01b0316866001600160a01b03167ffbde797d201c681b91056529119e0b02407c7bb96a4a2c75c01fc9667232c8db85856040516124c4929190918252602082015260400190565b600080806000198587098587029250828110838203039150508060001415614afe57838281614af457614af4615de5565b04925050506116e2565b808411614b0a57600080fd5b60008486880960026001871981018816978890046003810283188082028403028082028403028082028403028082028403028082028403029081029092039091026000889003889004909101858311909403939093029303949094049190911702949350505050565b6000614bc8826040518060400160405280602081526020017f5361666545524332303a206c6f772d6c6576656c2063616c6c206661696c6564815250856001600160a01b0316614f0d9092919063ffffffff16565b8051909150156146065780806020019051810190614be691906155df565b6146065760405162461bcd60e51b815260206004820152602a60248201527f5361666545524332303a204552433230206f7065726174696f6e20646964206e6044820152691bdd081cdd58d8d9595960b21b60648201526084016110d5565b6001600160a01b038216614c9b5760405162461bcd60e51b815260206004820152601f60248201527f45524332303a206d696e7420746f20746865207a65726f20616464726573730060448201526064016110d5565b8060356000828254614cad9190615bff565b90915550506001600160a01b0382166000818152603360209081526040808320805486019055518481527fddf252ad1be2c89b69c2b068fc378daa952ba7f163c4a11628f55a4df523b3ef910160405180910390a35050565b600054610100900460ff16614d2d5760405162461bcd60e51b81526004016110d590615a8b565b8151614d4090603690602085019061515e565b50805161460690603790602084019061515e565b600054610100900460ff16614d7b5760405162461bcd60e51b81526004016110d590615a8b565b600080614d8783614f1c565b9150915081614d97576012614d99565b805b606580546001600160a01b039095166001600160a01b031960ff93909316600160a01b02929092166001600160a81b031990951694909417179092555050565b6001600160a01b038216614e395760405162461bcd60e51b815260206004820152602160248201527f45524332303a206275726e2066726f6d20746865207a65726f206164647265736044820152607360f81b60648201526084016110d5565b6001600160a01b03821660009081526033602052604090205481811015614ead5760405162461bcd60e51b815260206004820152602260248201527f45524332303a206275726e20616d6f756e7420657863656564732062616c616e604482015261636560f01b60648201526084016110d5565b6001600160a01b03831660008181526033602090815260408083208686039055603580548790039055518581529192917fddf252ad1be2c89b69c2b068fc378daa952ba7f163c4a11628f55a4df523b3ef910160405180910390a3505050565b6060611cb18484600085614ff8565b60408051600481526024810182526020810180516001600160e01b031663313ce56760e01b17905290516000918291829182916001600160a01b03871691614f639161586c565b600060405180830381855afa9150503d8060008114614f9e576040519150601f19603f3d011682016040523d82523d6000602084013e614fa3565b606091505b5091509150818015614fb757506020815110155b15614feb57600081806020019051810190614fd29190615749565b905060ff8111614fe9576001969095509350505050565b505b5060009485945092505050565b6060824710156150595760405162461bcd60e51b815260206004820152602660248201527f416464726573733a20696e73756666696369656e742062616c616e636520666f6044820152651c8818d85b1b60d21b60648201526084016110d5565b600080866001600160a01b03168587604051615075919061586c565b60006040518083038185875af1925050503d80600081146150b2576040519150601f19603f3d011682016040523d82523d6000602084013e6150b7565b606091505b5091509150612ddb878383876060831561512f578251615128576001600160a01b0385163b6151285760405162461bcd60e51b815260206004820152601d60248201527f416464726573733a2063616c6c20746f206e6f6e2d636f6e747261637400000060448201526064016110d5565b5081611cb1565b611cb183838151156151445781518083602001fd5b8060405162461bcd60e51b81526004016110d59190615979565b82805461516a90615d7f565b90600052602060002090601f01602090048101928261518c57600085556151d2565b82601f106151a557805160ff19168380011785556151d2565b828001600101855582156151d2579182015b828111156151d25782518255916020019190600101906151b7565b506151de92915061524f565b5090565b82600281019282156151d257916020028201828111156151d25782518255916020019190600101906151b7565b8280548282559060005260206000209081019282156151d2579160200282015b828111156151d2578251829060ff1690559160200191906001019061522f565b5b808211156151de5760008155600101615250565b600067ffffffffffffffff8084111561527f5761527f615e27565b604051601f8501601f19908116603f011681019082821181831017156152a7576152a7615e27565b816040528093508581528686860111156152c057600080fd5b858560208301376000602087830101525050509392505050565b80356152e581615e3d565b919050565b600082601f8301126152fb57600080fd5b6040516040810181811067ffffffffffffffff8211171561531e5761531e615e27565b806040525080838560408601111561533557600080fd5b60005b6002811015615357578135835260209283019290910190600101615338565b509195945050505050565b600082601f83011261537357600080fd5b6116e283833560208501615264565b6000610120828403121561539557600080fd5b61539d615b94565b90506153a8826152da565b81526153b6602083016152da565b60208201526153c7604083016152da565b60408201526153d8606083016152da565b60608201526153e9608083016152da565b60808201526153fa60a083016152da565b60a082015261540b60c083016152da565b60c082015261541c60e083016152da565b60e08201526101008083013567ffffffffffffffff81111561543d57600080fd5b61544985828601615455565b82840152505092915050565b60006040828403121561546757600080fd5b6040516040810167ffffffffffffffff828210818311171561548b5761548b615e27565b816040528293508435915061549f82615e3d565b908252602084013590808211156154b557600080fd5b508301601f810185136154c757600080fd5b6154d685823560208401615264565b6020830152505092915050565b6000602082840312156154f557600080fd5b81356116e281615e3d565b60006020828403121561551257600080fd5b81516116e281615e3d565b6000806040838503121561553057600080fd5b823561553b81615e3d565b9150602083013561554b81615e3d565b809150509250929050565b60008060006060848603121561556b57600080fd5b833561557681615e3d565b9250602084013561558681615e3d565b929592945050506040919091013590565b600080604083850312156155aa57600080fd5b82356155b581615e3d565b946020939093013593505050565b6000604082840312156155d557600080fd5b6116e283836152ea565b6000602082840312156155f157600080fd5b815180151581146116e257600080fd5b6000806000806000806000806000806000806101a08d8f03121561562457600080fd5b67ffffffffffffffff8d35111561563a57600080fd5b6156478e8e358f01615362565b9b5067ffffffffffffffff60208e0135111561566257600080fd5b6156728e60208f01358f01615362565b9a5067ffffffffffffffff60408e0135111561568d57600080fd5b61569d8e60408f01358f01615382565b995060608d0135985060808d0135975060a08d013596506156c18e60c08f016152ea565b95506101008d013594506101208d013593506101408d013592506101608d013591506101808d013590509295989b509295989b509295989b565b60006020828403121561570d57600080fd5b813567ffffffffffffffff81111561572457600080fd5b611cb184828501615455565b60006020828403121561574257600080fd5b5035919050565b60006020828403121561575b57600080fd5b5051919050565b6000806040838503121561577557600080fd5b82359150602083013561554b81615e3d565b60008060006060848603121561579c57600080fd5b8335925060208401356157ae81615e3d565b915060408401356157be81615e3d565b809150509250925092565b6000806000606084860312156157de57600080fd5b83359250602084013561558681615e3d565b6000806040838503121561580357600080fd5b50508035926020909101359150565b60008060006060848603121561582757600080fd5b833592506020840135915060408401356157be81615e3d565b60008151808452615858816020860160208601615d53565b601f01601f19169290920160200192915050565b6000825161587e818460208701615d53565b9190910192915050565b600080835481600182811c9150808316806158a457607f831692505b60208084108214156158c457634e487b7160e01b86526022600452602486fd5b8180156158d857600181146158e957615916565b60ff19861689528489019650615916565b60008a81526020902060005b8681101561590e5781548b8201529085019083016158f5565b505084890196505b509498975050505050505050565b6001600160a01b0383168152604060208201819052600090611cb190830184615840565b60408101818360005b6002811015615970578151835260209283019290910190600101615951565b50505092915050565b6020815260006116e26020830184615840565b602080825260099082015268082849eac8abe9a82b60bb1b604082015260600190565b602080825260079082015266050524943455f360cc1b604082015260600190565b6020808252600b908201526a1393d517d0531313d5d15160aa1b604082015260600190565b6020808252602e908201527f496e697469616c697a61626c653a20636f6e747261637420697320616c72656160408201526d191e481a5b9a5d1a585b1a5e995960921b606082015260800190565b6020808252600990820152680414444524553535f360bc1b604082015260600190565b6020808252600b908201526a57524f4e475f56414c554560a81b604082015260600190565b6020808252602b908201527f496e697469616c697a61626c653a20636f6e7472616374206973206e6f74206960408201526a6e697469616c697a696e6760a81b606082015260800190565b6020808252600c908201526b27a7262cafa6a0a720a3a2a960a11b604082015260600190565b602080825260079082015266056414c55455f360cc1b604082015260600190565b602080825282516001600160a01b031682820152820151604080830152600090611cb16060840182615840565b91825280546001600160a01b03166020830152600181015460408301526002810154606083015260038101546080830152600481015460a08301526005015460c082015260e00190565b604051610120810167ffffffffffffffff81118282101715615bb857615bb8615e27565b60405290565b600080821280156001600160ff1b0384900385131615615be057615be0615dcf565b600160ff1b8390038412811615615bf957615bf9615dcf565b50500190565b60008219821115615c1257615c12615dcf565b500190565b600082615c2657615c26615de5565b600160ff1b821460001984141615615c4057615c40615dcf565b500590565b600082615c5457615c54615de5565b500490565b60006001600160ff1b0381841382841380821686840486111615615c7f57615c7f615dcf565b600160ff1b6000871282811687830589121615615c9e57615c9e615dcf565b60008712925087820587128484161615615cba57615cba615dcf565b87850587128184161615615cd057615cd0615dcf565b505050929093029392505050565b6000816000190483118215151615615cf857615cf8615dcf565b500290565b60008083128015600160ff1b850184121615615d1b57615d1b615dcf565b6001600160ff1b0384018313811615615d3657615d36615dcf565b50500390565b600082821015615d4e57615d4e615dcf565b500390565b60005b83811015615d6e578181015183820152602001615d56565b838111156142e25750506000910152565b600181811c90821680615d9357607f821691505b60208210811415612bf357634e487b7160e01b600052602260045260246000fd5b6000600019821415615dc857615dc8615dcf565b5060010190565b634e487b7160e01b600052601160045260246000fd5b634e487b7160e01b600052601260045260246000fd5b634e487b7160e01b600052602160045260246000fd5b634e487b7160e01b600052603260045260246000fd5b634e487b7160e01b600052604160045260246000fd5b6001600160a01b038116811461146d57600080fdfe127735ae9d047cae55da37db2c8ee184c735aacd68cef068d4e70be6a41661d960f89fdb372abe626eac485ef96b2a09f1cfbd7f225dd1e2b491a2b4069c2376a2646970667358221220b6a250ae8cccffd609d8c060790158e7d713b92dcf4ba03eacf22203f21a84db64736f6c63430008070033",
  "libraries": {},
  "devdoc": {
    "kind": "dev",
    "methods": {
      "allowance(address,address)": {
        "details": "See {IERC20-allowance}."
      },
      "approve(address,uint256)": {
        "details": "See {IERC20-approve}. NOTE: If `amount` is the maximum `uint256`, the allowance is not updated on `transferFrom`. This is semantically equivalent to an infinite approval. Requirements: - `spender` cannot be the zero address."
      },
      "asset()": {
        "details": "See {IERC4626-asset}. "
      },
      "balanceOf(address)": {
        "details": "See {IERC20-balanceOf}."
      },
      "convertToAssets(uint256)": {
        "details": "See {IERC4626-convertToAssets}. "
      },
      "convertToShares(uint256)": {
        "details": "See {IERC4626-convertToShares}. "
      },
      "decreaseAllowance(address,uint256)": {
        "details": "Atomically decreases the allowance granted to `spender` by the caller. This is an alternative to {approve} that can be used as a mitigation for problems described in {IERC20-approve}. Emits an {Approval} event indicating the updated allowance. Requirements: - `spender` cannot be the zero address. - `spender` must have allowance for the caller of at least `subtractedValue`."
      },
      "deposit(uint256,address)": {
        "details": "See {IERC4626-deposit}. "
      },
      "increaseAllowance(address,uint256)": {
        "details": "Atomically increases the allowance granted to `spender` by the caller. This is an alternative to {approve} that can be used as a mitigation for problems described in {IERC20-approve}. Emits an {Approval} event indicating the updated allowance. Requirements: - `spender` cannot be the zero address."
      },
      "maxMint(address)": {
        "details": "See {IERC4626-maxMint}. "
      },
      "maxRedeem(address)": {
        "details": "See {IERC4626-maxRedeem}. "
      },
      "maxWithdraw(address)": {
        "details": "See {IERC4626-maxWithdraw}. "
      },
      "mint(uint256,address)": {
        "details": "See {IERC4626-mint}. As opposed to {deposit}, minting is allowed even if the vault is in a state where the price of a share is zero. In this case, the shares will be minted without requiring any assets to be deposited."
      },
      "name()": {
        "details": "Returns the name of the token."
      },
      "owner()": {
        "details": "Returns the address of the current owner."
      },
      "previewDeposit(uint256)": {
        "details": "See {IERC4626-previewDeposit}. "
      },
      "previewMint(uint256)": {
        "details": "See {IERC4626-previewMint}. "
      },
      "previewRedeem(uint256)": {
        "details": "See {IERC4626-previewRedeem}. "
      },
      "previewWithdraw(uint256)": {
        "details": "See {IERC4626-previewWithdraw}. "
      },
      "redeem(uint256,address,address)": {
        "details": "See {IERC4626-redeem}. "
      },
      "renounceOwnership()": {
        "details": "Leaves the contract without owner. It will not be possible to call `onlyOwner` functions anymore. Can only be called by the current owner. NOTE: Renouncing ownership will leave the contract without an owner, thereby removing any functionality that is only available to the owner."
      },
      "symbol()": {
        "details": "Returns the symbol of the token, usually a shorter version of the name."
      },
      "totalAssets()": {
        "details": "See {IERC4626-totalAssets}. "
      },
      "totalSupply()": {
        "details": "See {IERC20-totalSupply}."
      },
      "transferOwnership(address)": {
        "details": "Transfers ownership of the contract to a new account (`newOwner`). Can only be called by the current owner."
      },
      "withdraw(uint256,address,address)": {
        "details": "See {IERC4626-withdraw}. "
      }
    },
    "version": 1
  },
  "userdoc": {
    "kind": "user",
    "methods": {},
    "version": 1
  },
  "storageLayout": {
    "storage": [
      {
        "astId": 10570,
        "contract": "contracts/contracts/GTokenV6_3_2.sol:GTokenV6_3_2",
        "label": "_initialized",
        "offset": 0,
        "slot": "0",
        "type": "t_uint8"
      },
      {
        "astId": 10573,
        "contract": "contracts/contracts/GTokenV6_3_2.sol:GTokenV6_3_2",
        "label": "_initializing",
        "offset": 1,
        "slot": "0",
        "type": "t_bool"
      },
      {
        "astId": 11057,
        "contract": "contracts/contracts/GTokenV6_3_2.sol:GTokenV6_3_2",
        "label": "__gap",
        "offset": 0,
        "slot": "1",
        "type": "t_array(t_uint256)50_storage"
      },
      {
        "astId": 11077,
        "contract": "contracts/contracts/GTokenV6_3_2.sol:GTokenV6_3_2",
        "label": "_balances",
        "offset": 0,
        "slot": "51",
        "type": "t_mapping(t_address,t_uint256)"
      },
      {
        "astId": 11083,
        "contract": "contracts/contracts/GTokenV6_3_2.sol:GTokenV6_3_2",
        "label": "_allowances",
        "offset": 0,
        "slot": "52",
        "type": "t_mapping(t_address,t_mapping(t_address,t_uint256))"
      },
      {
        "astId": 11085,
        "contract": "contracts/contracts/GTokenV6_3_2.sol:GTokenV6_3_2",
        "label": "_totalSupply",
        "offset": 0,
        "slot": "53",
        "type": "t_uint256"
      },
      {
        "astId": 11087,
        "contract": "contracts/contracts/GTokenV6_3_2.sol:GTokenV6_3_2",
        "label": "_name",
        "offset": 0,
        "slot": "54",
        "type": "t_string_storage"
      },
      {
        "astId": 11089,
        "contract": "contracts/contracts/GTokenV6_3_2.sol:GTokenV6_3_2",
        "label": "_symbol",
        "offset": 0,
        "slot": "55",
        "type": "t_string_storage"
      },
      {
        "astId": 11669,
        "contract": "contracts/contracts/GTokenV6_3_2.sol:GTokenV6_3_2",
        "label": "__gap",
        "offset": 0,
        "slot": "56",
        "type": "t_array(t_uint256)45_storage"
      },
      {
        "astId": 11690,
        "contract": "contracts/contracts/GTokenV6_3_2.sol:GTokenV6_3_2",
        "label": "_asset",
        "offset": 0,
        "slot": "101",
        "type": "t_contract(IERC20Upgradeable)12479"
      },
      {
        "astId": 11692,
        "contract": "contracts/contracts/GTokenV6_3_2.sol:GTokenV6_3_2",
        "label": "_decimals",
        "offset": 20,
        "slot": "101",
        "type": "t_uint8"
      },
      {
        "astId": 12375,
        "contract": "contracts/contracts/GTokenV6_3_2.sol:GTokenV6_3_2",
        "label": "__gap",
        "offset": 0,
        "slot": "102",
        "type": "t_array(t_uint256)49_storage"
      },
      {
        "astId": 13523,
        "contract": "contracts/contracts/GTokenV6_3_2.sol:GTokenV6_3_2",
        "label": "_owner",
        "offset": 0,
        "slot": "151",
        "type": "t_address"
      },
      {
        "astId": 13643,
        "contract": "contracts/contracts/GTokenV6_3_2.sol:GTokenV6_3_2",
        "label": "__gap",
        "offset": 0,
        "slot": "152",
        "type": "t_array(t_uint256)49_storage"
      },
      {
        "astId": 7126,
        "contract": "contracts/contracts/GTokenV6_3_2.sol:GTokenV6_3_2",
        "label": "gnsToken",
        "offset": 0,
        "slot": "201",
        "type": "t_address"
      },
      {
        "astId": 7129,
        "contract": "contracts/contracts/GTokenV6_3_2.sol:GTokenV6_3_2",
        "label": "lockedDepositNft",
        "offset": 0,
        "slot": "202",
        "type": "t_contract(INft)10477"
      },
      {
        "astId": 7132,
        "contract": "contracts/contracts/GTokenV6_3_2.sol:GTokenV6_3_2",
        "label": "manager",
        "offset": 0,
        "slot": "203",
        "type": "t_address"
      },
      {
        "astId": 7135,
        "contract": "contracts/contracts/GTokenV6_3_2.sol:GTokenV6_3_2",
        "label": "admin",
        "offset": 0,
        "slot": "204",
        "type": "t_address"
      },
      {
        "astId": 7137,
        "contract": "contracts/contracts/GTokenV6_3_2.sol:GTokenV6_3_2",
        "label": "pnlHandler",
        "offset": 0,
        "slot": "205",
        "type": "t_address"
      },
      {
        "astId": 7140,
        "contract": "contracts/contracts/GTokenV6_3_2.sol:GTokenV6_3_2",
        "label": "openTradesPnlFeed",
        "offset": 0,
        "slot": "206",
        "type": "t_contract(IOpenTradesPnlFeed)10488"
      },
      {
        "astId": 7143,
        "contract": "contracts/contracts/GTokenV6_3_2.sol:GTokenV6_3_2",
        "label": "gnsPriceProvider",
        "offset": 0,
        "slot": "207",
        "type": "t_struct(GnsPriceProvider)7148_storage"
      },
      {
        "astId": 7184,
        "contract": "contracts/contracts/GTokenV6_3_2.sol:GTokenV6_3_2",
        "label": "MIN_LOCK_DURATION",
        "offset": 0,
        "slot": "209",
        "type": "t_uint256"
      },
      {
        "astId": 7190,
        "contract": "contracts/contracts/GTokenV6_3_2.sol:GTokenV6_3_2",
        "label": "WITHDRAW_EPOCHS_LOCKS",
        "offset": 0,
        "slot": "210",
        "type": "t_array(t_uint256)dyn_storage"
      },
      {
        "astId": 7192,
        "contract": "contracts/contracts/GTokenV6_3_2.sol:GTokenV6_3_2",
        "label": "maxAccOpenPnlDelta",
        "offset": 0,
        "slot": "211",
        "type": "t_uint256"
      },
      {
        "astId": 7194,
        "contract": "contracts/contracts/GTokenV6_3_2.sol:GTokenV6_3_2",
        "label": "maxDailyAccPnlDelta",
        "offset": 0,
        "slot": "212",
        "type": "t_uint256"
      },
      {
        "astId": 7198,
        "contract": "contracts/contracts/GTokenV6_3_2.sol:GTokenV6_3_2",
        "label": "withdrawLockThresholdsP",
        "offset": 0,
        "slot": "213",
        "type": "t_array(t_uint256)2_storage"
      },
      {
        "astId": 7200,
        "contract": "contracts/contracts/GTokenV6_3_2.sol:GTokenV6_3_2",
        "label": "maxSupplyIncreaseDailyP",
        "offset": 0,
        "slot": "215",
        "type": "t_uint256"
      },
      {
        "astId": 7202,
        "contract": "contracts/contracts/GTokenV6_3_2.sol:GTokenV6_3_2",
        "label": "lossesBurnP",
        "offset": 0,
        "slot": "216",
        "type": "t_uint256"
      },
      {
        "astId": 7204,
        "contract": "contracts/contracts/GTokenV6_3_2.sol:GTokenV6_3_2",
        "label": "maxGnsSupplyMintDailyP",
        "offset": 0,
        "slot": "217",
        "type": "t_uint256"
      },
      {
        "astId": 7206,
        "contract": "contracts/contracts/GTokenV6_3_2.sol:GTokenV6_3_2",
        "label": "maxDiscountP",
        "offset": 0,
        "slot": "218",
        "type": "t_uint256"
      },
      {
        "astId": 7208,
        "contract": "contracts/contracts/GTokenV6_3_2.sol:GTokenV6_3_2",
        "label": "maxDiscountThresholdP",
        "offset": 0,
        "slot": "219",
        "type": "t_uint256"
      },
      {
        "astId": 7210,
        "contract": "contracts/contracts/GTokenV6_3_2.sol:GTokenV6_3_2",
        "label": "shareToAssetsPrice",
        "offset": 0,
        "slot": "220",
        "type": "t_uint256"
      },
      {
        "astId": 7212,
        "contract": "contracts/contracts/GTokenV6_3_2.sol:GTokenV6_3_2",
        "label": "accPnlPerTokenUsed",
        "offset": 0,
        "slot": "221",
        "type": "t_int256"
      },
      {
        "astId": 7214,
        "contract": "contracts/contracts/GTokenV6_3_2.sol:GTokenV6_3_2",
        "label": "accPnlPerToken",
        "offset": 0,
        "slot": "222",
        "type": "t_int256"
      },
      {
        "astId": 7216,
        "contract": "contracts/contracts/GTokenV6_3_2.sol:GTokenV6_3_2",
        "label": "accRewardsPerToken",
        "offset": 0,
        "slot": "223",
        "type": "t_uint256"
      },
      {
        "astId": 7218,
        "contract": "contracts/contracts/GTokenV6_3_2.sol:GTokenV6_3_2",
        "label": "dailyAccPnlDelta",
        "offset": 0,
        "slot": "224",
        "type": "t_int256"
      },
      {
        "astId": 7220,
        "contract": "contracts/contracts/GTokenV6_3_2.sol:GTokenV6_3_2",
        "label": "lastDailyAccPnlDeltaReset",
        "offset": 0,
        "slot": "225",
        "type": "t_uint256"
      },
      {
        "astId": 7223,
        "contract": "contracts/contracts/GTokenV6_3_2.sol:GTokenV6_3_2",
        "label": "currentEpoch",
        "offset": 0,
        "slot": "226",
        "type": "t_uint256"
      },
      {
        "astId": 7226,
        "contract": "contracts/contracts/GTokenV6_3_2.sol:GTokenV6_3_2",
        "label": "currentEpochStart",
        "offset": 0,
        "slot": "227",
        "type": "t_uint256"
      },
      {
        "astId": 7229,
        "contract": "contracts/contracts/GTokenV6_3_2.sol:GTokenV6_3_2",
        "label": "currentEpochPositiveOpenPnl",
        "offset": 0,
        "slot": "228",
        "type": "t_uint256"
      },
      {
        "astId": 7231,
        "contract": "contracts/contracts/GTokenV6_3_2.sol:GTokenV6_3_2",
        "label": "currentMaxSupply",
        "offset": 0,
        "slot": "229",
        "type": "t_uint256"
      },
      {
        "astId": 7233,
        "contract": "contracts/contracts/GTokenV6_3_2.sol:GTokenV6_3_2",
        "label": "lastMaxSupplyUpdate",
        "offset": 0,
        "slot": "230",
        "type": "t_uint256"
      },
      {
        "astId": 7239,
        "contract": "contracts/contracts/GTokenV6_3_2.sol:GTokenV6_3_2",
        "label": "withdrawRequests",
        "offset": 0,
        "slot": "231",
        "type": "t_mapping(t_address,t_mapping(t_uint256,t_uint256))"
      },
      {
        "astId": 7241,
        "contract": "contracts/contracts/GTokenV6_3_2.sol:GTokenV6_3_2",
        "label": "lockedDepositsCount",
        "offset": 0,
        "slot": "232",
        "type": "t_uint256"
      },
      {
        "astId": 7246,
        "contract": "contracts/contracts/GTokenV6_3_2.sol:GTokenV6_3_2",
        "label": "lockedDeposits",
        "offset": 0,
        "slot": "233",
        "type": "t_mapping(t_uint256,t_struct(LockedDeposit)10370_storage)"
      },
      {
        "astId": 7248,
        "contract": "contracts/contracts/GTokenV6_3_2.sol:GTokenV6_3_2",
        "label": "assetsToDeplete",
        "offset": 0,
        "slot": "234",
        "type": "t_uint256"
      },
      {
        "astId": 7250,
        "contract": "contracts/contracts/GTokenV6_3_2.sol:GTokenV6_3_2",
        "label": "totalDeposited",
        "offset": 0,
        "slot": "235",
        "type": "t_uint256"
      },
      {
        "astId": 7252,
        "contract": "contracts/contracts/GTokenV6_3_2.sol:GTokenV6_3_2",
        "label": "totalClosedPnl",
        "offset": 0,
        "slot": "236",
        "type": "t_int256"
      },
      {
        "astId": 7254,
        "contract": "contracts/contracts/GTokenV6_3_2.sol:GTokenV6_3_2",
        "label": "totalRewards",
        "offset": 0,
        "slot": "237",
        "type": "t_uint256"
      },
      {
        "astId": 7256,
        "contract": "contracts/contracts/GTokenV6_3_2.sol:GTokenV6_3_2",
        "label": "totalLiability",
        "offset": 0,
        "slot": "238",
        "type": "t_int256"
      },
      {
        "astId": 7258,
        "contract": "contracts/contracts/GTokenV6_3_2.sol:GTokenV6_3_2",
        "label": "totalLockedDiscounts",
        "offset": 0,
        "slot": "239",
        "type": "t_uint256"
      },
      {
        "astId": 7260,
        "contract": "contracts/contracts/GTokenV6_3_2.sol:GTokenV6_3_2",
        "label": "totalDiscounts",
        "offset": 0,
        "slot": "240",
        "type": "t_uint256"
      },
      {
        "astId": 7262,
        "contract": "contracts/contracts/GTokenV6_3_2.sol:GTokenV6_3_2",
        "label": "totalDepleted",
        "offset": 0,
        "slot": "241",
        "type": "t_uint256"
      },
      {
        "astId": 7264,
        "contract": "contracts/contracts/GTokenV6_3_2.sol:GTokenV6_3_2",
        "label": "totalRefilled",
        "offset": 0,
        "slot": "242",
        "type": "t_uint256"
      },
      {
        "astId": 7266,
        "contract": "contracts/contracts/GTokenV6_3_2.sol:GTokenV6_3_2",
        "label": "accBlockWeightedMarketCap",
        "offset": 0,
        "slot": "243",
        "type": "t_uint256"
      },
      {
        "astId": 7268,
        "contract": "contracts/contracts/GTokenV6_3_2.sol:GTokenV6_3_2",
        "label": "accBlockWeightedMarketCapLastStored",
        "offset": 0,
        "slot": "244",
        "type": "t_uint256"
      }
    ],
    "types": {
      "t_address": {
        "encoding": "inplace",
        "label": "address",
        "numberOfBytes": "20"
      },
      "t_array(t_uint256)2_storage": {
        "base": "t_uint256",
        "encoding": "inplace",
        "label": "uint256[2]",
        "numberOfBytes": "64"
      },
      "t_array(t_uint256)45_storage": {
        "base": "t_uint256",
        "encoding": "inplace",
        "label": "uint256[45]",
        "numberOfBytes": "1440"
      },
      "t_array(t_uint256)49_storage": {
        "base": "t_uint256",
        "encoding": "inplace",
        "label": "uint256[49]",
        "numberOfBytes": "1568"
      },
      "t_array(t_uint256)50_storage": {
        "base": "t_uint256",
        "encoding": "inplace",
        "label": "uint256[50]",
        "numberOfBytes": "1600"
      },
      "t_array(t_uint256)dyn_storage": {
        "base": "t_uint256",
        "encoding": "dynamic_array",
        "label": "uint256[]",
        "numberOfBytes": "32"
      },
      "t_bool": {
        "encoding": "inplace",
        "label": "bool",
        "numberOfBytes": "1"
      },
      "t_bytes_storage": {
        "encoding": "bytes",
        "label": "bytes",
        "numberOfBytes": "32"
      },
      "t_contract(IERC20Upgradeable)12479": {
        "encoding": "inplace",
        "label": "contract IERC20Upgradeable",
        "numberOfBytes": "20"
      },
      "t_contract(INft)10477": {
        "encoding": "inplace",
        "label": "contract INft",
        "numberOfBytes": "20"
      },
      "t_contract(IOpenTradesPnlFeed)10488": {
        "encoding": "inplace",
        "label": "contract IOpenTradesPnlFeed",
        "numberOfBytes": "20"
      },
      "t_int256": {
        "encoding": "inplace",
        "label": "int256",
        "numberOfBytes": "32"
      },
      "t_mapping(t_address,t_mapping(t_address,t_uint256))": {
        "encoding": "mapping",
        "key": "t_address",
        "label": "mapping(address => mapping(address => uint256))",
        "numberOfBytes": "32",
        "value": "t_mapping(t_address,t_uint256)"
      },
      "t_mapping(t_address,t_mapping(t_uint256,t_uint256))": {
        "encoding": "mapping",
        "key": "t_address",
        "label": "mapping(address => mapping(uint256 => uint256))",
        "numberOfBytes": "32",
        "value": "t_mapping(t_uint256,t_uint256)"
      },
      "t_mapping(t_address,t_uint256)": {
        "encoding": "mapping",
        "key": "t_address",
        "label": "mapping(address => uint256)",
        "numberOfBytes": "32",
        "value": "t_uint256"
      },
      "t_mapping(t_uint256,t_struct(LockedDeposit)10370_storage)": {
        "encoding": "mapping",
        "key": "t_uint256",
        "label": "mapping(uint256 => struct IGToken.LockedDeposit)",
        "numberOfBytes": "32",
        "value": "t_struct(LockedDeposit)10370_storage"
      },
      "t_mapping(t_uint256,t_uint256)": {
        "encoding": "mapping",
        "key": "t_uint256",
        "label": "mapping(uint256 => uint256)",
        "numberOfBytes": "32",
        "value": "t_uint256"
      },
      "t_string_storage": {
        "encoding": "bytes",
        "label": "string",
        "numberOfBytes": "32"
      },
      "t_struct(GnsPriceProvider)7148_storage": {
        "encoding": "inplace",
        "label": "struct GTokenV6_3_2.GnsPriceProvider",
        "members": [
          {
            "astId": 7145,
            "contract": "contracts/contracts/GTokenV6_3_2.sol:GTokenV6_3_2",
            "label": "addr",
            "offset": 0,
            "slot": "0",
            "type": "t_address"
          },
          {
            "astId": 7147,
            "contract": "contracts/contracts/GTokenV6_3_2.sol:GTokenV6_3_2",
            "label": "signature",
            "offset": 0,
            "slot": "1",
            "type": "t_bytes_storage"
          }
        ],
        "numberOfBytes": "64"
      },
      "t_struct(LockedDeposit)10370_storage": {
        "encoding": "inplace",
        "label": "struct IGToken.LockedDeposit",
        "members": [
          {
            "astId": 10359,
            "contract": "contracts/contracts/GTokenV6_3_2.sol:GTokenV6_3_2",
            "label": "owner",
            "offset": 0,
            "slot": "0",
            "type": "t_address"
          },
          {
            "astId": 10361,
            "contract": "contracts/contracts/GTokenV6_3_2.sol:GTokenV6_3_2",
            "label": "shares",
            "offset": 0,
            "slot": "1",
            "type": "t_uint256"
          },
          {
            "astId": 10363,
            "contract": "contracts/contracts/GTokenV6_3_2.sol:GTokenV6_3_2",
            "label": "assetsDeposited",
            "offset": 0,
            "slot": "2",
            "type": "t_uint256"
          },
          {
            "astId": 10365,
            "contract": "contracts/contracts/GTokenV6_3_2.sol:GTokenV6_3_2",
            "label": "assetsDiscount",
            "offset": 0,
            "slot": "3",
            "type": "t_uint256"
          },
          {
            "astId": 10367,
            "contract": "contracts/contracts/GTokenV6_3_2.sol:GTokenV6_3_2",
            "label": "atTimestamp",
            "offset": 0,
            "slot": "4",
            "type": "t_uint256"
          },
          {
            "astId": 10369,
            "contract": "contracts/contracts/GTokenV6_3_2.sol:GTokenV6_3_2",
            "label": "lockDuration",
            "offset": 0,
            "slot": "5",
            "type": "t_uint256"
          }
        ],
        "numberOfBytes": "192"
      },
      "t_uint256": {
        "encoding": "inplace",
        "label": "uint256",
        "numberOfBytes": "32"
      },
      "t_uint8": {
        "encoding": "inplace",
        "label": "uint8",
        "numberOfBytes": "1"
      }
    }
  }
}