{
  "address": "0xc74ACa58E57FcDF118B94E6ca85F7ab49f17A679",
  "abi": [
    {
      "inputs": [],
      "stateMutability": "nonpayable",
      "type": "constructor"
    },
    {
      "anonymous": false,
      "inputs": [
        {
          "indexed": false,
          "internalType": "string",
          "name": "name",
          "type": "string"
        },
        {
          "indexed": false,
          "internalType": "address",
          "name": "a",
          "type": "address"
        }
      ],
      "name": "AddressUpdated",
      "type": "event"
    },
    {
      "anonymous": false,
      "inputs": [
        {
          "indexed": false,
          "internalType": "string",
          "name": "name",
          "type": "string"
        },
        {
          "indexed": false,
          "internalType": "uint256",
          "name": "value",
          "type": "uint256"
        }
      ],
      "name": "NumberUpdated",
      "type": "event"
    },
    {
      "anonymous": false,
      "inputs": [
        {
          "indexed": false,
          "internalType": "string",
          "name": "name",
          "type": "string"
        },
        {
          "indexed": false,
          "internalType": "uint256",
          "name": "pairIndex",
          "type": "uint256"
        },
        {
          "indexed": false,
          "internalType": "uint256",
          "name": "value",
          "type": "uint256"
        }
      ],
      "name": "NumberUpdatedPair",
      "type": "event"
    },
    {
      "anonymous": false,
      "inputs": [
        {
          "indexed": false,
          "internalType": "uint256[5]",
          "name": "",
          "type": "uint256[5]"
        }
      ],
      "name": "SpreadReductionsUpdated",
      "type": "event"
    },
    {
      "anonymous": false,
      "inputs": [
        {
          "indexed": false,
          "internalType": "address",
          "name": "a",
          "type": "address"
        }
      ],
      "name": "SupportedTokenAdded",
      "type": "event"
    },
    {
      "anonymous": false,
      "inputs": [
        {
          "indexed": false,
          "internalType": "address",
          "name": "a",
          "type": "address"
        }
      ],
      "name": "TradingContractAdded",
      "type": "event"
    },
    {
      "anonymous": false,
      "inputs": [
        {
          "indexed": false,
          "internalType": "address",
          "name": "a",
          "type": "address"
        }
      ],
      "name": "TradingContractRemoved",
      "type": "event"
    },
    {
      "inputs": [],
      "name": "MINTER_ROLE",
      "outputs": [
        {
          "internalType": "bytes32",
          "name": "",
          "type": "bytes32"
        }
      ],
      "stateMutability": "view",
      "type": "function"
    },
    {
      "inputs": [],
      "name": "PRECISION",
      "outputs": [
        {
          "internalType": "uint256",
          "name": "",
          "type": "uint256"
        }
      ],
      "stateMutability": "view",
      "type": "function"
    },
    {
      "inputs": [
        {
          "internalType": "address",
          "name": "_token",
          "type": "address"
        }
      ],
      "name": "addSupportedToken",
      "outputs": [],
      "stateMutability": "nonpayable",
      "type": "function"
    },
    {
      "inputs": [
        {
          "internalType": "address",
          "name": "_trading",
          "type": "address"
        }
      ],
      "name": "addTradingContract",
      "outputs": [],
      "stateMutability": "nonpayable",
      "type": "function"
    },
    {
      "inputs": [],
      "name": "callbacks",
      "outputs": [
        {
          "internalType": "contract PausableInterfaceV5",
          "name": "",
          "type": "address"
        }
      ],
      "stateMutability": "view",
      "type": "function"
    },
    {
      "inputs": [],
      "name": "claimFees",
      "outputs": [],
      "stateMutability": "nonpayable",
      "type": "function"
    },
    {
      "inputs": [],
      "name": "dai",
      "outputs": [
        {
          "internalType": "contract TokenInterfaceV5",
          "name": "",
          "type": "address"
        }
      ],
      "stateMutability": "view",
      "type": "function"
    },
    {
      "inputs": [],
      "name": "defaultLeverageUnlocked",
      "outputs": [
        {
          "internalType": "uint256",
          "name": "",
          "type": "uint256"
        }
      ],
      "stateMutability": "view",
      "type": "function"
    },
    {
      "inputs": [],
      "name": "dev",
      "outputs": [
        {
          "internalType": "address",
          "name": "",
          "type": "address"
        }
      ],
      "stateMutability": "view",
      "type": "function"
    },
    {
      "inputs": [],
      "name": "devFeesDai",
      "outputs": [
        {
          "internalType": "uint256",
          "name": "",
          "type": "uint256"
        }
      ],
      "stateMutability": "view",
      "type": "function"
    },
    {
      "inputs": [],
      "name": "devFeesToken",
      "outputs": [
        {
          "internalType": "uint256",
          "name": "",
          "type": "uint256"
        }
      ],
      "stateMutability": "view",
      "type": "function"
    },
    {
      "inputs": [
        {
          "internalType": "address",
          "name": "trader",
          "type": "address"
        },
        {
          "internalType": "uint256",
          "name": "pairIndex",
          "type": "uint256"
        }
      ],
      "name": "firstEmptyOpenLimitIndex",
      "outputs": [
        {
          "internalType": "uint256",
          "name": "index",
          "type": "uint256"
        }
      ],
      "stateMutability": "view",
      "type": "function"
    },
    {
      "inputs": [
        {
          "internalType": "address",
          "name": "trader",
          "type": "address"
        },
        {
          "internalType": "uint256",
          "name": "pairIndex",
          "type": "uint256"
        }
      ],
      "name": "firstEmptyTradeIndex",
      "outputs": [
        {
          "internalType": "uint256",
          "name": "index",
          "type": "uint256"
        }
      ],
      "stateMutability": "view",
      "type": "function"
    },
    {
      "inputs": [
        {
          "internalType": "address",
          "name": "_trader",
          "type": "address"
        }
      ],
      "name": "getLeverageUnlocked",
      "outputs": [
        {
          "internalType": "uint256",
          "name": "",
          "type": "uint256"
        }
      ],
      "stateMutability": "view",
      "type": "function"
    },
    {
      "inputs": [
        {
          "internalType": "address",
          "name": "_trader",
          "type": "address"
        },
        {
          "internalType": "uint256",
          "name": "_pairIndex",
          "type": "uint256"
        },
        {
          "internalType": "uint256",
          "name": "_index",
          "type": "uint256"
        }
      ],
      "name": "getOpenLimitOrder",
      "outputs": [
        {
          "components": [
            {
              "internalType": "address",
              "name": "trader",
              "type": "address"
            },
            {
              "internalType": "uint256",
              "name": "pairIndex",
              "type": "uint256"
            },
            {
              "internalType": "uint256",
              "name": "index",
              "type": "uint256"
            },
            {
              "internalType": "uint256",
              "name": "positionSize",
              "type": "uint256"
            },
            {
              "internalType": "uint256",
              "name": "spreadReductionP",
              "type": "uint256"
            },
            {
              "internalType": "bool",
              "name": "buy",
              "type": "bool"
            },
            {
              "internalType": "uint256",
              "name": "leverage",
              "type": "uint256"
            },
            {
              "internalType": "uint256",
              "name": "tp",
              "type": "uint256"
            },
            {
              "internalType": "uint256",
              "name": "sl",
              "type": "uint256"
            },
            {
              "internalType": "uint256",
              "name": "minPrice",
              "type": "uint256"
            },
            {
              "internalType": "uint256",
              "name": "maxPrice",
              "type": "uint256"
            },
            {
              "internalType": "uint256",
              "name": "block",
              "type": "uint256"
            },
            {
              "internalType": "uint256",
              "name": "tokenId",
              "type": "uint256"
            }
          ],
          "internalType": "struct GFarmTradingStorageV5.OpenLimitOrder",
          "name": "",
          "type": "tuple"
        }
      ],
      "stateMutability": "view",
      "type": "function"
    },
    {
      "inputs": [],
      "name": "getOpenLimitOrders",
      "outputs": [
        {
          "components": [
            {
              "internalType": "address",
              "name": "trader",
              "type": "address"
            },
            {
              "internalType": "uint256",
              "name": "pairIndex",
              "type": "uint256"
            },
            {
              "internalType": "uint256",
              "name": "index",
              "type": "uint256"
            },
            {
              "internalType": "uint256",
              "name": "positionSize",
              "type": "uint256"
            },
            {
              "internalType": "uint256",
              "name": "spreadReductionP",
              "type": "uint256"
            },
            {
              "internalType": "bool",
              "name": "buy",
              "type": "bool"
            },
            {
              "internalType": "uint256",
              "name": "leverage",
              "type": "uint256"
            },
            {
              "internalType": "uint256",
              "name": "tp",
              "type": "uint256"
            },
            {
              "internalType": "uint256",
              "name": "sl",
              "type": "uint256"
            },
            {
              "internalType": "uint256",
              "name": "minPrice",
              "type": "uint256"
            },
            {
              "internalType": "uint256",
              "name": "maxPrice",
              "type": "uint256"
            },
            {
              "internalType": "uint256",
              "name": "block",
              "type": "uint256"
            },
            {
              "internalType": "uint256",
              "name": "tokenId",
              "type": "uint256"
            }
          ],
          "internalType": "struct GFarmTradingStorageV5.OpenLimitOrder[]",
          "name": "",
          "type": "tuple[]"
        }
      ],
      "stateMutability": "view",
      "type": "function"
    },
    {
      "inputs": [
        {
          "internalType": "address",
          "name": "_trader",
          "type": "address"
        }
      ],
      "name": "getPendingOrderIds",
      "outputs": [
        {
          "internalType": "uint256[]",
          "name": "",
          "type": "uint256[]"
        }
      ],
      "stateMutability": "view",
      "type": "function"
    },
    {
      "inputs": [
        {
          "internalType": "address",
          "name": "_trader",
          "type": "address"
        }
      ],
      "name": "getReferral",
      "outputs": [
        {
          "internalType": "address",
          "name": "",
          "type": "address"
        }
      ],
      "stateMutability": "view",
      "type": "function"
    },
    {
      "inputs": [],
      "name": "getSpreadReductionsArray",
      "outputs": [
        {
          "internalType": "uint256[5]",
          "name": "",
          "type": "uint256[5]"
        }
      ],
      "stateMutability": "view",
      "type": "function"
    },
    {
      "inputs": [],
      "name": "getSupportedTokens",
      "outputs": [
        {
          "internalType": "address[]",
          "name": "",
          "type": "address[]"
        }
      ],
      "stateMutability": "view",
      "type": "function"
    },
    {
      "inputs": [],
      "name": "gov",
      "outputs": [
        {
          "internalType": "address",
          "name": "",
          "type": "address"
        }
      ],
      "stateMutability": "view",
      "type": "function"
    },
    {
      "inputs": [],
      "name": "govFeesDai",
      "outputs": [
        {
          "internalType": "uint256",
          "name": "",
          "type": "uint256"
        }
      ],
      "stateMutability": "view",
      "type": "function"
    },
    {
      "inputs": [],
      "name": "govFeesToken",
      "outputs": [
        {
          "internalType": "uint256",
          "name": "",
          "type": "uint256"
        }
      ],
      "stateMutability": "view",
      "type": "function"
    },
    {
      "inputs": [
        {
          "internalType": "uint256",
          "name": "_pairIndex",
          "type": "uint256"
        },
        {
          "internalType": "uint256",
          "name": "_leveragedPositionSize",
          "type": "uint256"
        },
        {
          "internalType": "bool",
          "name": "_dai",
          "type": "bool"
        },
        {
          "internalType": "bool",
          "name": "_fullFee",
          "type": "bool"
        }
      ],
      "name": "handleDevGovFees",
      "outputs": [
        {
          "internalType": "uint256",
          "name": "fee",
          "type": "uint256"
        }
      ],
      "stateMutability": "nonpayable",
      "type": "function"
    },
    {
      "inputs": [
        {
          "internalType": "address",
          "name": "_a",
          "type": "address"
        },
        {
          "internalType": "uint256",
          "name": "_amount",
          "type": "uint256"
        },
        {
          "internalType": "bool",
          "name": "_mint",
          "type": "bool"
        }
      ],
      "name": "handleTokens",
      "outputs": [],
      "stateMutability": "nonpayable",
      "type": "function"
    },
    {
      "inputs": [
        {
          "internalType": "address",
          "name": "trader",
          "type": "address"
        },
        {
          "internalType": "uint256",
          "name": "pairIndex",
          "type": "uint256"
        },
        {
          "internalType": "uint256",
          "name": "index",
          "type": "uint256"
        }
      ],
      "name": "hasOpenLimitOrder",
      "outputs": [
        {
          "internalType": "bool",
          "name": "",
          "type": "bool"
        }
      ],
      "stateMutability": "view",
      "type": "function"
    },
    {
      "inputs": [
        {
          "internalType": "uint256",
          "name": "_nftId",
          "type": "uint256"
        },
        {
          "internalType": "uint256",
          "name": "_amount",
          "type": "uint256"
        }
      ],
      "name": "increaseNftRewards",
      "outputs": [],
      "stateMutability": "nonpayable",
      "type": "function"
    },
    {
      "inputs": [
        {
          "internalType": "address",
          "name": "_referral",
          "type": "address"
        },
        {
          "internalType": "uint256",
          "name": "_amount",
          "type": "uint256"
        }
      ],
      "name": "increaseReferralRewards",
      "outputs": [],
      "stateMutability": "nonpayable",
      "type": "function"
    },
    {
      "inputs": [
        {
          "internalType": "address",
          "name": "",
          "type": "address"
        }
      ],
      "name": "isTradingContract",
      "outputs": [
        {
          "internalType": "bool",
          "name": "",
          "type": "bool"
        }
      ],
      "stateMutability": "view",
      "type": "function"
    },
    {
      "inputs": [],
      "name": "linkErc677",
      "outputs": [
        {
          "internalType": "contract TokenInterfaceV5",
          "name": "",
          "type": "address"
        }
      ],
      "stateMutability": "view",
      "type": "function"
    },
    {
      "inputs": [],
      "name": "maxGainP",
      "outputs": [
        {
          "internalType": "uint256",
          "name": "",
          "type": "uint256"
        }
      ],
      "stateMutability": "view",
      "type": "function"
    },
    {
      "inputs": [],
      "name": "maxPendingMarketOrders",
      "outputs": [
        {
          "internalType": "uint256",
          "name": "",
          "type": "uint256"
        }
      ],
      "stateMutability": "view",
      "type": "function"
    },
    {
      "inputs": [],
      "name": "maxSlP",
      "outputs": [
        {
          "internalType": "uint256",
          "name": "",
          "type": "uint256"
        }
      ],
      "stateMutability": "view",
      "type": "function"
    },
    {
      "inputs": [],
      "name": "maxTradesPerBlock",
      "outputs": [
        {
          "internalType": "uint256",
          "name": "",
          "type": "uint256"
        }
      ],
      "stateMutability": "view",
      "type": "function"
    },
    {
      "inputs": [],
      "name": "maxTradesPerPair",
      "outputs": [
        {
          "internalType": "uint256",
          "name": "",
          "type": "uint256"
        }
      ],
      "stateMutability": "view",
      "type": "function"
    },
    {
      "inputs": [
        {
          "internalType": "uint256",
          "name": "",
          "type": "uint256"
        }
      ],
      "name": "nftLastSuccess",
      "outputs": [
        {
          "internalType": "uint256",
          "name": "",
          "type": "uint256"
        }
      ],
      "stateMutability": "view",
      "type": "function"
    },
    {
      "inputs": [],
      "name": "nftRewards",
      "outputs": [
        {
          "internalType": "uint256",
          "name": "",
          "type": "uint256"
        }
      ],
      "stateMutability": "view",
      "type": "function"
    },
    {
      "inputs": [],
      "name": "nftSuccessTimelock",
      "outputs": [
        {
          "internalType": "uint256",
          "name": "",
          "type": "uint256"
        }
      ],
      "stateMutability": "view",
      "type": "function"
    },
    {
      "inputs": [
        {
          "internalType": "uint256",
          "name": "",
          "type": "uint256"
        },
        {
          "internalType": "uint256",
          "name": "",
          "type": "uint256"
        }
      ],
      "name": "openInterestDai",
      "outputs": [
        {
          "internalType": "uint256",
          "name": "",
          "type": "uint256"
        }
      ],
      "stateMutability": "view",
      "type": "function"
    },
    {
      "inputs": [
        {
          "internalType": "address",
          "name": "",
          "type": "address"
        },
        {
          "internalType": "uint256",
          "name": "",
          "type": "uint256"
        },
        {
          "internalType": "uint256",
          "name": "",
          "type": "uint256"
        }
      ],
      "name": "openLimitOrderIds",
      "outputs": [
        {
          "internalType": "uint256",
          "name": "",
          "type": "uint256"
        }
      ],
      "stateMutability": "view",
      "type": "function"
    },
    {
      "inputs": [
        {
          "internalType": "uint256",
          "name": "",
          "type": "uint256"
        }
      ],
      "name": "openLimitOrders",
      "outputs": [
        {
          "internalType": "address",
          "name": "trader",
          "type": "address"
        },
        {
          "internalType": "uint256",
          "name": "pairIndex",
          "type": "uint256"
        },
        {
          "internalType": "uint256",
          "name": "index",
          "type": "uint256"
        },
        {
          "internalType": "uint256",
          "name": "positionSize",
          "type": "uint256"
        },
        {
          "internalType": "uint256",
          "name": "spreadReductionP",
          "type": "uint256"
        },
        {
          "internalType": "bool",
          "name": "buy",
          "type": "bool"
        },
        {
          "internalType": "uint256",
          "name": "leverage",
          "type": "uint256"
        },
        {
          "internalType": "uint256",
          "name": "tp",
          "type": "uint256"
        },
        {
          "internalType": "uint256",
          "name": "sl",
          "type": "uint256"
        },
        {
          "internalType": "uint256",
          "name": "minPrice",
          "type": "uint256"
        },
        {
          "internalType": "uint256",
          "name": "maxPrice",
          "type": "uint256"
        },
        {
          "internalType": "uint256",
          "name": "block",
          "type": "uint256"
        },
        {
          "internalType": "uint256",
          "name": "tokenId",
          "type": "uint256"
        }
      ],
      "stateMutability": "view",
      "type": "function"
    },
    {
      "inputs": [
        {
          "internalType": "address",
          "name": "",
          "type": "address"
        },
        {
          "internalType": "uint256",
          "name": "",
          "type": "uint256"
        }
      ],
      "name": "openLimitOrdersCount",
      "outputs": [
        {
          "internalType": "uint256",
          "name": "",
          "type": "uint256"
        }
      ],
      "stateMutability": "view",
      "type": "function"
    },
    {
      "inputs": [
        {
          "internalType": "address",
          "name": "",
          "type": "address"
        },
        {
          "internalType": "uint256",
          "name": "",
          "type": "uint256"
        },
        {
          "internalType": "uint256",
          "name": "",
          "type": "uint256"
        }
      ],
      "name": "openTrades",
      "outputs": [
        {
          "internalType": "address",
          "name": "trader",
          "type": "address"
        },
        {
          "internalType": "uint256",
          "name": "pairIndex",
          "type": "uint256"
        },
        {
          "internalType": "uint256",
          "name": "index",
          "type": "uint256"
        },
        {
          "internalType": "uint256",
          "name": "initialPosToken",
          "type": "uint256"
        },
        {
          "internalType": "uint256",
          "name": "positionSizeDai",
          "type": "uint256"
        },
        {
          "internalType": "uint256",
          "name": "openPrice",
          "type": "uint256"
        },
        {
          "internalType": "bool",
          "name": "buy",
          "type": "bool"
        },
        {
          "internalType": "uint256",
          "name": "leverage",
          "type": "uint256"
        },
        {
          "internalType": "uint256",
          "name": "tp",
          "type": "uint256"
        },
        {
          "internalType": "uint256",
          "name": "sl",
          "type": "uint256"
        }
      ],
      "stateMutability": "view",
      "type": "function"
    },
    {
      "inputs": [
        {
          "internalType": "address",
          "name": "",
          "type": "address"
        },
        {
          "internalType": "uint256",
          "name": "",
          "type": "uint256"
        }
      ],
      "name": "openTradesCount",
      "outputs": [
        {
          "internalType": "uint256",
          "name": "",
          "type": "uint256"
        }
      ],
      "stateMutability": "view",
      "type": "function"
    },
    {
      "inputs": [
        {
          "internalType": "address",
          "name": "",
          "type": "address"
        },
        {
          "internalType": "uint256",
          "name": "",
          "type": "uint256"
        },
        {
          "internalType": "uint256",
          "name": "",
          "type": "uint256"
        }
      ],
      "name": "openTradesInfo",
      "outputs": [
        {
          "internalType": "uint256",
          "name": "tokenId",
          "type": "uint256"
        },
        {
          "internalType": "uint256",
          "name": "tokenPriceDai",
          "type": "uint256"
        },
        {
          "internalType": "uint256",
          "name": "openInterestDai",
          "type": "uint256"
        },
        {
          "internalType": "uint256",
          "name": "tpLastUpdated",
          "type": "uint256"
        },
        {
          "internalType": "uint256",
          "name": "slLastUpdated",
          "type": "uint256"
        },
        {
          "internalType": "bool",
          "name": "beingMarketClosed",
          "type": "bool"
        }
      ],
      "stateMutability": "view",
      "type": "function"
    },
    {
      "inputs": [
        {
          "internalType": "uint256",
          "name": "",
          "type": "uint256"
        },
        {
          "internalType": "uint256",
          "name": "",
          "type": "uint256"
        }
      ],
      "name": "pairTraders",
      "outputs": [
        {
          "internalType": "address",
          "name": "",
          "type": "address"
        }
      ],
      "stateMutability": "view",
      "type": "function"
    },
    {
      "inputs": [
        {
          "internalType": "uint256",
          "name": "_pairIndex",
          "type": "uint256"
        }
      ],
      "name": "pairTradersArray",
      "outputs": [
        {
          "internalType": "address[]",
          "name": "",
          "type": "address[]"
        }
      ],
      "stateMutability": "view",
      "type": "function"
    },
    {
      "inputs": [
        {
          "internalType": "address",
          "name": "",
          "type": "address"
        },
        {
          "internalType": "uint256",
          "name": "",
          "type": "uint256"
        }
      ],
      "name": "pairTradersId",
      "outputs": [
        {
          "internalType": "uint256",
          "name": "",
          "type": "uint256"
        }
      ],
      "stateMutability": "view",
      "type": "function"
    },
    {
      "inputs": [
        {
          "internalType": "address",
          "name": "",
          "type": "address"
        },
        {
          "internalType": "uint256",
          "name": "",
          "type": "uint256"
        }
      ],
      "name": "pendingMarketCloseCount",
      "outputs": [
        {
          "internalType": "uint256",
          "name": "",
          "type": "uint256"
        }
      ],
      "stateMutability": "view",
      "type": "function"
    },
    {
      "inputs": [
        {
          "internalType": "address",
          "name": "",
          "type": "address"
        },
        {
          "internalType": "uint256",
          "name": "",
          "type": "uint256"
        }
      ],
      "name": "pendingMarketOpenCount",
      "outputs": [
        {
          "internalType": "uint256",
          "name": "",
          "type": "uint256"
        }
      ],
      "stateMutability": "view",
      "type": "function"
    },
    {
      "inputs": [
        {
          "internalType": "address",
          "name": "",
          "type": "address"
        },
        {
          "internalType": "uint256",
          "name": "",
          "type": "uint256"
        }
      ],
      "name": "pendingOrderIds",
      "outputs": [
        {
          "internalType": "uint256",
          "name": "",
          "type": "uint256"
        }
      ],
      "stateMutability": "view",
      "type": "function"
    },
    {
      "inputs": [
        {
          "internalType": "address",
          "name": "_trader",
          "type": "address"
        }
      ],
      "name": "pendingOrderIdsCount",
      "outputs": [
        {
          "internalType": "uint256",
          "name": "",
          "type": "uint256"
        }
      ],
      "stateMutability": "view",
      "type": "function"
    },
    {
      "inputs": [],
      "name": "priceAggregator",
      "outputs": [
        {
          "internalType": "contract AggregatorInterfaceV5",
          "name": "",
          "type": "address"
        }
      ],
      "stateMutability": "view",
      "type": "function"
    },
    {
      "inputs": [
        {
          "internalType": "address",
          "name": "_trading",
          "type": "address"
        }
      ],
      "name": "removeTradingContract",
      "outputs": [],
      "stateMutability": "nonpayable",
      "type": "function"
    },
    {
      "inputs": [
        {
          "internalType": "uint256",
          "name": "",
          "type": "uint256"
        }
      ],
      "name": "reqID_pendingMarketOrder",
      "outputs": [
        {
          "components": [
            {
              "internalType": "address",
              "name": "trader",
              "type": "address"
            },
            {
              "internalType": "uint256",
              "name": "pairIndex",
              "type": "uint256"
            },
            {
              "internalType": "uint256",
              "name": "index",
              "type": "uint256"
            },
            {
              "internalType": "uint256",
              "name": "initialPosToken",
              "type": "uint256"
            },
            {
              "internalType": "uint256",
              "name": "positionSizeDai",
              "type": "uint256"
            },
            {
              "internalType": "uint256",
              "name": "openPrice",
              "type": "uint256"
            },
            {
              "internalType": "bool",
              "name": "buy",
              "type": "bool"
            },
            {
              "internalType": "uint256",
              "name": "leverage",
              "type": "uint256"
            },
            {
              "internalType": "uint256",
              "name": "tp",
              "type": "uint256"
            },
            {
              "internalType": "uint256",
              "name": "sl",
              "type": "uint256"
            }
          ],
          "internalType": "struct GFarmTradingStorageV5.Trade",
          "name": "trade",
          "type": "tuple"
        },
        {
          "internalType": "uint256",
          "name": "block",
          "type": "uint256"
        },
        {
          "internalType": "uint256",
          "name": "wantedPrice",
          "type": "uint256"
        },
        {
          "internalType": "uint256",
          "name": "slippageP",
          "type": "uint256"
        },
        {
          "internalType": "uint256",
          "name": "spreadReductionP",
          "type": "uint256"
        },
        {
          "internalType": "uint256",
          "name": "tokenId",
          "type": "uint256"
        }
      ],
      "stateMutability": "view",
      "type": "function"
    },
    {
      "inputs": [
        {
          "internalType": "uint256",
          "name": "",
          "type": "uint256"
        }
      ],
      "name": "reqID_pendingNftOrder",
      "outputs": [
        {
          "internalType": "address",
          "name": "nftHolder",
          "type": "address"
        },
        {
          "internalType": "uint256",
          "name": "nftId",
          "type": "uint256"
        },
        {
          "internalType": "address",
          "name": "trader",
          "type": "address"
        },
        {
          "internalType": "uint256",
          "name": "pairIndex",
          "type": "uint256"
        },
        {
          "internalType": "uint256",
          "name": "index",
          "type": "uint256"
        },
        {
          "internalType": "enum GFarmTradingStorageV5.LimitOrder",
          "name": "orderType",
          "type": "uint8"
        }
      ],
      "stateMutability": "view",
      "type": "function"
    },
    {
      "inputs": [
        {
          "internalType": "address",
          "name": "_callbacks",
          "type": "address"
        }
      ],
      "name": "setCallbacks",
      "outputs": [],
      "stateMutability": "nonpayable",
      "type": "function"
    },
    {
      "inputs": [
        {
          "internalType": "uint256",
          "name": "_lev",
          "type": "uint256"
        }
      ],
      "name": "setDefaultLeverageUnlocked",
      "outputs": [],
      "stateMutability": "nonpayable",
      "type": "function"
    },
    {
      "inputs": [
        {
          "internalType": "address",
          "name": "_dev",
          "type": "address"
        }
      ],
      "name": "setDev",
      "outputs": [],
      "stateMutability": "nonpayable",
      "type": "function"
    },
    {
      "inputs": [
        {
          "internalType": "address",
          "name": "_gov",
          "type": "address"
        }
      ],
      "name": "setGov",
      "outputs": [],
      "stateMutability": "nonpayable",
      "type": "function"
    },
    {
      "inputs": [
        {
          "internalType": "address",
          "name": "_trader",
          "type": "address"
        },
        {
          "internalType": "uint256",
          "name": "_newLeverage",
          "type": "uint256"
        }
      ],
      "name": "setLeverageUnlocked",
      "outputs": [],
      "stateMutability": "nonpayable",
      "type": "function"
    },
    {
      "inputs": [
        {
          "internalType": "uint256",
          "name": "_max",
          "type": "uint256"
        }
      ],
      "name": "setMaxGainP",
      "outputs": [],
      "stateMutability": "nonpayable",
      "type": "function"
    },
    {
      "inputs": [
        {
          "internalType": "uint256",
          "name": "_pairIndex",
          "type": "uint256"
        },
        {
          "internalType": "uint256",
          "name": "_newMaxOpenInterest",
          "type": "uint256"
        }
      ],
      "name": "setMaxOpenInterestDai",
      "outputs": [],
      "stateMutability": "nonpayable",
      "type": "function"
    },
    {
      "inputs": [
        {
          "internalType": "uint256",
          "name": "_maxPendingMarketOrders",
          "type": "uint256"
        }
      ],
      "name": "setMaxPendingMarketOrders",
      "outputs": [],
      "stateMutability": "nonpayable",
      "type": "function"
    },
    {
      "inputs": [
        {
          "internalType": "uint256",
          "name": "_max",
          "type": "uint256"
        }
      ],
      "name": "setMaxSlP",
      "outputs": [],
      "stateMutability": "nonpayable",
      "type": "function"
    },
    {
      "inputs": [
        {
          "internalType": "uint256",
          "name": "_maxTradesPerBlock",
          "type": "uint256"
        }
      ],
      "name": "setMaxTradesPerBlock",
      "outputs": [],
      "stateMutability": "nonpayable",
      "type": "function"
    },
    {
      "inputs": [
        {
          "internalType": "uint256",
          "name": "_maxTradesPerPair",
          "type": "uint256"
        }
      ],
      "name": "setMaxTradesPerPair",
      "outputs": [],
      "stateMutability": "nonpayable",
      "type": "function"
    },
    {
      "inputs": [
        {
          "internalType": "uint256",
          "name": "_blocks",
          "type": "uint256"
        }
      ],
      "name": "setNftSuccessTimelock",
      "outputs": [],
      "stateMutability": "nonpayable",
      "type": "function"
    },
    {
      "inputs": [
        {
          "internalType": "address",
          "name": "_aggregator",
          "type": "address"
        }
      ],
      "name": "setPriceAggregator",
      "outputs": [],
      "stateMutability": "nonpayable",
      "type": "function"
    },
    {
      "inputs": [
        {
          "internalType": "uint256[5]",
          "name": "_r",
          "type": "uint256[5]"
        }
      ],
      "name": "setSpreadReductionsP",
      "outputs": [],
      "stateMutability": "nonpayable",
      "type": "function"
    },
    {
      "inputs": [
        {
          "internalType": "address",
          "name": "_tokenDaiRouter",
          "type": "address"
        }
      ],
      "name": "setTokenDaiRouter",
      "outputs": [],
      "stateMutability": "nonpayable",
      "type": "function"
    },
    {
      "inputs": [
        {
          "internalType": "address",
          "name": "_trading",
          "type": "address"
        }
      ],
      "name": "setTrading",
      "outputs": [],
      "stateMutability": "nonpayable",
      "type": "function"
    },
    {
      "inputs": [
        {
          "internalType": "address",
          "name": "_vault",
          "type": "address"
        }
      ],
      "name": "setVault",
      "outputs": [],
      "stateMutability": "nonpayable",
      "type": "function"
    },
    {
      "inputs": [
        {
          "internalType": "uint256",
          "name": "",
          "type": "uint256"
        }
      ],
      "name": "spreadReductionsP",
      "outputs": [
        {
          "internalType": "uint256",
          "name": "",
          "type": "uint256"
        }
      ],
      "stateMutability": "view",
      "type": "function"
    },
    {
      "inputs": [
        {
          "components": [
            {
              "internalType": "address",
              "name": "trader",
              "type": "address"
            },
            {
              "internalType": "uint256",
              "name": "pairIndex",
              "type": "uint256"
            },
            {
              "internalType": "uint256",
              "name": "index",
              "type": "uint256"
            },
            {
              "internalType": "uint256",
              "name": "positionSize",
              "type": "uint256"
            },
            {
              "internalType": "uint256",
              "name": "spreadReductionP",
              "type": "uint256"
            },
            {
              "internalType": "bool",
              "name": "buy",
              "type": "bool"
            },
            {
              "internalType": "uint256",
              "name": "leverage",
              "type": "uint256"
            },
            {
              "internalType": "uint256",
              "name": "tp",
              "type": "uint256"
            },
            {
              "internalType": "uint256",
              "name": "sl",
              "type": "uint256"
            },
            {
              "internalType": "uint256",
              "name": "minPrice",
              "type": "uint256"
            },
            {
              "internalType": "uint256",
              "name": "maxPrice",
              "type": "uint256"
            },
            {
              "internalType": "uint256",
              "name": "block",
              "type": "uint256"
            },
            {
              "internalType": "uint256",
              "name": "tokenId",
              "type": "uint256"
            }
          ],
          "internalType": "struct GFarmTradingStorageV5.OpenLimitOrder",
          "name": "o",
          "type": "tuple"
        }
      ],
      "name": "storeOpenLimitOrder",
      "outputs": [],
      "stateMutability": "nonpayable",
      "type": "function"
    },
    {
      "inputs": [
        {
          "components": [
            {
              "components": [
                {
                  "internalType": "address",
                  "name": "trader",
                  "type": "address"
                },
                {
                  "internalType": "uint256",
                  "name": "pairIndex",
                  "type": "uint256"
                },
                {
                  "internalType": "uint256",
                  "name": "index",
                  "type": "uint256"
                },
                {
                  "internalType": "uint256",
                  "name": "initialPosToken",
                  "type": "uint256"
                },
                {
                  "internalType": "uint256",
                  "name": "positionSizeDai",
                  "type": "uint256"
                },
                {
                  "internalType": "uint256",
                  "name": "openPrice",
                  "type": "uint256"
                },
                {
                  "internalType": "bool",
                  "name": "buy",
                  "type": "bool"
                },
                {
                  "internalType": "uint256",
                  "name": "leverage",
                  "type": "uint256"
                },
                {
                  "internalType": "uint256",
                  "name": "tp",
                  "type": "uint256"
                },
                {
                  "internalType": "uint256",
                  "name": "sl",
                  "type": "uint256"
                }
              ],
              "internalType": "struct GFarmTradingStorageV5.Trade",
              "name": "trade",
              "type": "tuple"
            },
            {
              "internalType": "uint256",
              "name": "block",
              "type": "uint256"
            },
            {
              "internalType": "uint256",
              "name": "wantedPrice",
              "type": "uint256"
            },
            {
              "internalType": "uint256",
              "name": "slippageP",
              "type": "uint256"
            },
            {
              "internalType": "uint256",
              "name": "spreadReductionP",
              "type": "uint256"
            },
            {
              "internalType": "uint256",
              "name": "tokenId",
              "type": "uint256"
            }
          ],
          "internalType": "struct GFarmTradingStorageV5.PendingMarketOrder",
          "name": "_order",
          "type": "tuple"
        },
        {
          "internalType": "uint256",
          "name": "_id",
          "type": "uint256"
        },
        {
          "internalType": "bool",
          "name": "_open",
          "type": "bool"
        }
      ],
      "name": "storePendingMarketOrder",
      "outputs": [],
      "stateMutability": "nonpayable",
      "type": "function"
    },
    {
      "inputs": [
        {
          "components": [
            {
              "internalType": "address",
              "name": "nftHolder",
              "type": "address"
            },
            {
              "internalType": "uint256",
              "name": "nftId",
              "type": "uint256"
            },
            {
              "internalType": "address",
              "name": "trader",
              "type": "address"
            },
            {
              "internalType": "uint256",
              "name": "pairIndex",
              "type": "uint256"
            },
            {
              "internalType": "uint256",
              "name": "index",
              "type": "uint256"
            },
            {
              "internalType": "enum GFarmTradingStorageV5.LimitOrder",
              "name": "orderType",
              "type": "uint8"
            }
          ],
          "internalType": "struct GFarmTradingStorageV5.PendingNftOrder",
          "name": "_nftOrder",
          "type": "tuple"
        },
        {
          "internalType": "uint256",
          "name": "_orderId",
          "type": "uint256"
        }
      ],
      "name": "storePendingNftOrder",
      "outputs": [],
      "stateMutability": "nonpayable",
      "type": "function"
    },
    {
      "inputs": [
        {
          "internalType": "address",
          "name": "_trader",
          "type": "address"
        },
        {
          "internalType": "address",
          "name": "_referral",
          "type": "address"
        }
      ],
      "name": "storeReferral",
      "outputs": [],
      "stateMutability": "nonpayable",
      "type": "function"
    },
    {
      "inputs": [
        {
          "components": [
            {
              "internalType": "address",
              "name": "trader",
              "type": "address"
            },
            {
              "internalType": "uint256",
              "name": "pairIndex",
              "type": "uint256"
            },
            {
              "internalType": "uint256",
              "name": "index",
              "type": "uint256"
            },
            {
              "internalType": "uint256",
              "name": "initialPosToken",
              "type": "uint256"
            },
            {
              "internalType": "uint256",
              "name": "positionSizeDai",
              "type": "uint256"
            },
            {
              "internalType": "uint256",
              "name": "openPrice",
              "type": "uint256"
            },
            {
              "internalType": "bool",
              "name": "buy",
              "type": "bool"
            },
            {
              "internalType": "uint256",
              "name": "leverage",
              "type": "uint256"
            },
            {
              "internalType": "uint256",
              "name": "tp",
              "type": "uint256"
            },
            {
              "internalType": "uint256",
              "name": "sl",
              "type": "uint256"
            }
          ],
          "internalType": "struct GFarmTradingStorageV5.Trade",
          "name": "_trade",
          "type": "tuple"
        },
        {
          "components": [
            {
              "internalType": "uint256",
              "name": "tokenId",
              "type": "uint256"
            },
            {
              "internalType": "uint256",
              "name": "tokenPriceDai",
              "type": "uint256"
            },
            {
              "internalType": "uint256",
              "name": "openInterestDai",
              "type": "uint256"
            },
            {
              "internalType": "uint256",
              "name": "tpLastUpdated",
              "type": "uint256"
            },
            {
              "internalType": "uint256",
              "name": "slLastUpdated",
              "type": "uint256"
            },
            {
              "internalType": "bool",
              "name": "beingMarketClosed",
              "type": "bool"
            }
          ],
          "internalType": "struct GFarmTradingStorageV5.TradeInfo",
          "name": "_tradeInfo",
          "type": "tuple"
        }
      ],
      "name": "storeTrade",
      "outputs": [],
      "stateMutability": "nonpayable",
      "type": "function"
    },
    {
      "inputs": [
        {
          "internalType": "uint256",
          "name": "",
          "type": "uint256"
        }
      ],
      "name": "supportedTokens",
      "outputs": [
        {
          "internalType": "address",
          "name": "",
          "type": "address"
        }
      ],
      "stateMutability": "view",
      "type": "function"
    },
    {
      "inputs": [],
      "name": "token",
      "outputs": [
        {
          "internalType": "contract TokenInterfaceV5",
          "name": "",
          "type": "address"
        }
      ],
      "stateMutability": "view",
      "type": "function"
    },
    {
      "inputs": [],
      "name": "tokenDaiRouter",
      "outputs": [
        {
          "internalType": "address",
          "name": "",
          "type": "address"
        }
      ],
      "stateMutability": "view",
      "type": "function"
    },
    {
      "inputs": [],
      "name": "tokensBurned",
      "outputs": [
        {
          "internalType": "uint256",
          "name": "",
          "type": "uint256"
        }
      ],
      "stateMutability": "view",
      "type": "function"
    },
    {
      "inputs": [],
      "name": "tokensMinted",
      "outputs": [
        {
          "internalType": "uint256",
          "name": "",
          "type": "uint256"
        }
      ],
      "stateMutability": "view",
      "type": "function"
    },
    {
      "inputs": [
        {
          "internalType": "address",
          "name": "",
          "type": "address"
        }
      ],
      "name": "traders",
      "outputs": [
        {
          "internalType": "uint256",
          "name": "leverageUnlocked",
          "type": "uint256"
        },
        {
          "internalType": "address",
          "name": "referral",
          "type": "address"
        },
        {
          "internalType": "uint256",
          "name": "referralRewardsTotal",
          "type": "uint256"
        }
      ],
      "stateMutability": "view",
      "type": "function"
    },
    {
      "inputs": [
        {
          "internalType": "uint256",
          "name": "",
          "type": "uint256"
        }
      ],
      "name": "tradesPerBlock",
      "outputs": [
        {
          "internalType": "uint256",
          "name": "",
          "type": "uint256"
        }
      ],
      "stateMutability": "view",
      "type": "function"
    },
    {
      "inputs": [],
      "name": "trading",
      "outputs": [
        {
          "internalType": "contract PausableInterfaceV5",
          "name": "",
          "type": "address"
        }
      ],
      "stateMutability": "view",
      "type": "function"
    },
    {
      "inputs": [
        {
          "internalType": "address",
          "name": "_from",
          "type": "address"
        },
        {
          "internalType": "address",
          "name": "_to",
          "type": "address"
        },
        {
          "internalType": "uint256",
          "name": "_amount",
          "type": "uint256"
        }
      ],
      "name": "transferDai",
      "outputs": [],
      "stateMutability": "nonpayable",
      "type": "function"
    },
    {
      "inputs": [
        {
          "internalType": "address",
          "name": "_from",
          "type": "address"
        },
        {
          "internalType": "uint256",
          "name": "_pairIndex",
          "type": "uint256"
        },
        {
          "internalType": "uint256",
          "name": "_leveragedPosDai",
          "type": "uint256"
        }
      ],
      "name": "transferLinkToAggregator",
      "outputs": [],
      "stateMutability": "nonpayable",
      "type": "function"
    },
    {
      "inputs": [
        {
          "internalType": "address",
          "name": "_trader",
          "type": "address"
        },
        {
          "internalType": "uint256",
          "name": "_pairIndex",
          "type": "uint256"
        },
        {
          "internalType": "uint256",
          "name": "_index",
          "type": "uint256"
        }
      ],
      "name": "unregisterOpenLimitOrder",
      "outputs": [],
      "stateMutability": "nonpayable",
      "type": "function"
    },
    {
      "inputs": [
        {
          "internalType": "uint256",
          "name": "_id",
          "type": "uint256"
        },
        {
          "internalType": "bool",
          "name": "_open",
          "type": "bool"
        }
      ],
      "name": "unregisterPendingMarketOrder",
      "outputs": [],
      "stateMutability": "nonpayable",
      "type": "function"
    },
    {
      "inputs": [
        {
          "internalType": "uint256",
          "name": "_order",
          "type": "uint256"
        }
      ],
      "name": "unregisterPendingNftOrder",
      "outputs": [],
      "stateMutability": "nonpayable",
      "type": "function"
    },
    {
      "inputs": [
        {
          "internalType": "address",
          "name": "trader",
          "type": "address"
        },
        {
          "internalType": "uint256",
          "name": "pairIndex",
          "type": "uint256"
        },
        {
          "internalType": "uint256",
          "name": "index",
          "type": "uint256"
        }
      ],
      "name": "unregisterTrade",
      "outputs": [],
      "stateMutability": "nonpayable",
      "type": "function"
    },
    {
      "inputs": [
        {
          "components": [
            {
              "internalType": "address",
              "name": "trader",
              "type": "address"
            },
            {
              "internalType": "uint256",
              "name": "pairIndex",
              "type": "uint256"
            },
            {
              "internalType": "uint256",
              "name": "index",
              "type": "uint256"
            },
            {
              "internalType": "uint256",
              "name": "positionSize",
              "type": "uint256"
            },
            {
              "internalType": "uint256",
              "name": "spreadReductionP",
              "type": "uint256"
            },
            {
              "internalType": "bool",
              "name": "buy",
              "type": "bool"
            },
            {
              "internalType": "uint256",
              "name": "leverage",
              "type": "uint256"
            },
            {
              "internalType": "uint256",
              "name": "tp",
              "type": "uint256"
            },
            {
              "internalType": "uint256",
              "name": "sl",
              "type": "uint256"
            },
            {
              "internalType": "uint256",
              "name": "minPrice",
              "type": "uint256"
            },
            {
              "internalType": "uint256",
              "name": "maxPrice",
              "type": "uint256"
            },
            {
              "internalType": "uint256",
              "name": "block",
              "type": "uint256"
            },
            {
              "internalType": "uint256",
              "name": "tokenId",
              "type": "uint256"
            }
          ],
          "internalType": "struct GFarmTradingStorageV5.OpenLimitOrder",
          "name": "_o",
          "type": "tuple"
        }
      ],
      "name": "updateOpenLimitOrder",
      "outputs": [],
      "stateMutability": "nonpayable",
      "type": "function"
    },
    {
      "inputs": [
        {
          "internalType": "address",
          "name": "_trader",
          "type": "address"
        },
        {
          "internalType": "uint256",
          "name": "_pairIndex",
          "type": "uint256"
        },
        {
          "internalType": "uint256",
          "name": "_index",
          "type": "uint256"
        },
        {
          "internalType": "uint256",
          "name": "_newSl",
          "type": "uint256"
        }
      ],
      "name": "updateSl",
      "outputs": [],
      "stateMutability": "nonpayable",
      "type": "function"
    },
    {
      "inputs": [
        {
          "internalType": "contract TokenInterfaceV5",
          "name": "_newToken",
          "type": "address"
        }
      ],
      "name": "updateToken",
      "outputs": [],
      "stateMutability": "nonpayable",
      "type": "function"
    },
    {
      "inputs": [
        {
          "internalType": "address",
          "name": "_trader",
          "type": "address"
        },
        {
          "internalType": "uint256",
          "name": "_pairIndex",
          "type": "uint256"
        },
        {
          "internalType": "uint256",
          "name": "_index",
          "type": "uint256"
        },
        {
          "internalType": "uint256",
          "name": "_newTp",
          "type": "uint256"
        }
      ],
      "name": "updateTp",
      "outputs": [],
      "stateMutability": "nonpayable",
      "type": "function"
    },
    {
      "inputs": [
        {
          "components": [
            {
              "internalType": "address",
              "name": "trader",
              "type": "address"
            },
            {
              "internalType": "uint256",
              "name": "pairIndex",
              "type": "uint256"
            },
            {
              "internalType": "uint256",
              "name": "index",
              "type": "uint256"
            },
            {
              "internalType": "uint256",
              "name": "initialPosToken",
              "type": "uint256"
            },
            {
              "internalType": "uint256",
              "name": "positionSizeDai",
              "type": "uint256"
            },
            {
              "internalType": "uint256",
              "name": "openPrice",
              "type": "uint256"
            },
            {
              "internalType": "bool",
              "name": "buy",
              "type": "bool"
            },
            {
              "internalType": "uint256",
              "name": "leverage",
              "type": "uint256"
            },
            {
              "internalType": "uint256",
              "name": "tp",
              "type": "uint256"
            },
            {
              "internalType": "uint256",
              "name": "sl",
              "type": "uint256"
            }
          ],
          "internalType": "struct GFarmTradingStorageV5.Trade",
          "name": "_t",
          "type": "tuple"
        }
      ],
      "name": "updateTrade",
      "outputs": [],
      "stateMutability": "nonpayable",
      "type": "function"
    },
    {
      "inputs": [],
      "name": "vault",
      "outputs": [
        {
          "internalType": "address",
          "name": "",
          "type": "address"
        }
      ],
      "stateMutability": "view",
      "type": "function"
    }
  ],
  "transactionHash": "0x2993af5dc9c3c116d737adc3dfeeddb76ea4aaf123da31be5141efa807d70c07",
  "args": [],
  "numDeployments": 1,
  "solcInputHash": "edab1d0feb7ffa5be1c95101a46d74db",
  "bytecode": "0x6080346200011957600380546001600160a01b03199081167320f16aad14b69fb7aeab936060bc71de2b202a311782556006919091556005600781905560088190556103846009556050600a556032600b819055600c55909160a081016001600160401b038111828210176200010357604052600f815260209060148282015260196040820152601e6060820152602360808201529060005b838110620000ec57731879449ecac0661ff450723f96498c109062e0dd8573d7d1dcba2c678ee7e049bd55176354e7c5bbdcca8160125416176012556013541617601355604051614b2990816200011f8239f35b825160ff16600d8201559181019160010162000098565b634e487b7160e01b600052604160045260246000fd5b600080fdfe608080604052600436101561001357600080fd5b600090813560e01c908162b1278314613bb657508063099fa93414613b4957806312d43a5114613b2057806313b36ff614613ab057806318407fe014613a925780631c8636b414613a4f578063201d8bdb1461398157806321f7a30b146138b357806328b1f887146137ef57806328daca21146137ae578063292c1617146137865780633078fff51461375f57806332149592146136955780633b0f0f2f146136555780633dae10a01461362857806343b8fab5146135ac5780634415b3691461356957806344d44f5a146135395780634daf04b1146134b15780635070e8371461342a57806352e5398f146134005780635378143e1461326957806356a6796f146131ea5780635a912551146131cc5780635ad9f993146131ae5780635b621e32146131375780635c76ac9e146130895780635fbfe8cc1461301b5780636690a80614612ea75780636817031b14612e2857806368ca199d14612def5780636d69fcaf14612d315780636d81d98114612cf25780636de9f32b14612cd45780636e70e7b614612b8c5780637395d79e14612ad0578063796d82d914612ab25780637ad3def21461295b5780637fdb96f3146128b45780638049fde714612896578063817fa1a4146127265780638a0bd7021461264d5780638bbb644c1461262f5780638bf7f5f9146125b95780638c8ff1d51461253d57806390d112b91461249657806391cca3db1461246d57806392a88fa21461241957806397e7995a146123d657806399794d35146123485780639c8912f1146123055780639d1a1073146121db578063a354418114612134578063a3a80ffe14612084578063a553906c14612003578063aa3b7d7714611fd9578063aaf5eb6814611fb9578063b4b0f56714611f07578063b66e6b0514611e30578063b767608a14611d87578063b7682d5414611d44578063b8878a2c14611c50578063bcc9f1d314611bfa578063c122fea614611bdc578063c311ab311461182c578063c6255626146117e2578063c76faf7814611529578063cab9458014611471578063cfad57a2146113f4578063cfbacc1414611216578063d294f09314611026578063d3b5fe7014610d65578063d3c7c2c714610ce8578063d477f05f14610c6b578063d4bda90814610baa578063d539139314610b81578063dc2123ff14610b0c578063dcdf339a14610ae8578063e212991a14610a77578063e378b367146109e8578063e3cbe3a71461099d578063e7873b581461097f578063ea5c3c3314610961578063ec44acf214610938578063ecf56a1f146108bd578063eda00d541461087f578063ee92a4ff14610861578063f013d2781461078c578063f2c13bdf14610763578063f4b9fa7514610734578063f65d9dbe14610716578063f7b3c6fd146106dd578063f823e2ae146105ab578063f8d24b481461058d578063fbfa77cf14610564578063fc0c546a1461053b578063fdb594131461051d578063fe0fc8d6146104925763fece4eac1461046157600080fd5b3461048f578060031936011261048f57602060405173779877a7b0d9e8603169ddbd7836e478b46247898152f35b80fd5b503461048f57602036600319011261048f576104ac613bdb565b6012546001600160a01b039190821633036105195716801561051557608081600080516020614add8339815191529260018060a01b031960025416176002556040519060408252600960408301526863616c6c6261636b7360b81b60608301526020820152a180f35b5080fd5b8280fd5b503461048f578060031936011261048f576020601654604051908152f35b503461048f578060031936011261048f576003546040516001600160a01b039091168152602090f35b503461048f578060031936011261048f576004546040516001600160a01b039091168152602090f35b503461048f578060031936011261048f576020600c54604051908152f35b503461048f57602080600319360112610515576105c6613bdb565b6012549091906001600160a01b0390811633036106d95781816003541693604460405180948193632474521560e21b8352600080516020614afd833981519152600484015216968760248301525afa9081156106ce5784916106a1575b501561067057811561051957818352602d81526040808420805460ff19166001179055519182527fb692fa98cbec9bd705572b4c7e0927e3f7698e9fe526dcef6f40f3d4d4980ca391a180f35b6064906040519062461bcd60e51b82526004820152600a6024820152692727aa2fa6a4a72a22a960b11b6044820152fd5b6106c19150823d84116106c7575b6106b98183613d5c565b810190613f4c565b38610623565b503d6106af565b6040513d86823e3d90fd5b8380fd5b503461048f57602036600319011261048f576020906040906001600160a01b03610705613bdb565b168152602583522054604051908152f35b503461048f578060031936011261048f576020600654604051908152f35b503461048f578060031936011261048f576020604051730d9080e677505d29be4da1ddd855c6b523f1d38d8152f35b503461048f578060031936011261048f576005546040516001600160a01b039091168152602090f35b503461048f5760a036600319011261048f573660a41161048f576012546001600160a01b0316330361048f576004358015159081610855575b5080610848575b8061083b575b8061082e575b1561048f576004815b6005811061081957827fdaae5e047a75b6f38ad4e279cdefe910fc35d5a99a91b8303bd948c0a999372a60a06040518160048237a180f35b6001906020833593019281600d0155016107e1565b50606435608435116107d8565b50604435606435116107d2565b50602435604435116107cc565b905060243511386107c5565b503461048f578060031936011261048f576020601454604051908152f35b503461048f57604060209161089336613c9f565b6001600160a01b039092168352848052838320908352845282822090825283522054604051908152f35b503461048f57602036600319011261048f57601254600435906001600160a01b0316330361051557801561051557608081600080516020614a9d83398151915292600855604051906040825260166040830152756d617850656e64696e674d61726b65744f726465727360501b60608301526020820152a180f35b503461048f578060031936011261048f576001546040516001600160a01b039091168152602090f35b503461048f578060031936011261048f576020601554604051908152f35b503461048f578060031936011261048f576020601854604051908152f35b503461048f576109ac36613c07565b9190815260286020526040812090815483101561048f5760206109cf8484613e9d565b905460405160039290921b1c6001600160a01b03168152f35b503461048f576109f736613c07565b6012546001600160a01b03163303610519578160a0917f957cd67ea49f3e1ee953cdd23a1ba1f11d973e842411220d5c24ef0e24e1c956938552602a602052806002604087200155604051916060835260126060840152716d61784f70656e496e74657265737444616960701b608084015260208301526040820152a180f35b503461048f57602036600319011261048f57601254600435906001600160a01b0316330361051557608081600080516020614a9d83398151915292600c55604051906040825260126040830152716e66745375636365737354696d656c6f636b60701b60608301526020820152a180f35b503461048f576020610b02610afc36613c9f565b91614989565b6040519015158152f35b503461048f57602036600319011261048f57601254600435906001600160a01b0316330361051557801561051557608081600080516020614a9d833981519152926006556040519060408252601060408301526f36b0bc2a3930b232b9a832b92830b4b960811b60608301526020820152a180f35b503461048f578060031936011261048f576020604051600080516020614afd8339815191528152f35b503461048f5761014036600319011261048f57610bc636613eb5565b338252602d60205260ff60408320541680610bed575b1561051557610bea90614835565b80f35b50600354604051632474521560e21b8152600080516020614afd833981519152600482015233602482015290602090829060449082906001600160a01b03165afa908115610c60578391610c42575b50610bdc565b610c5a915060203d81116106c7576106b98183613d5c565b38610c3c565b6040513d85823e3d90fd5b503461048f57602036600319011261048f57610c85613bdb565b6012546001600160a01b039190821633036105195716801561051557608081600080516020614add8339815191529260018060a01b03196013541617601355604051906040825260036040830152623232bb60e91b60608301526020820152a180f35b503461048f578060031936011261048f57604051601b8054808352908352602080830193600080516020614abd83398151915292915b828210610d4557610d4185610d3581890382613d5c565b60405191829182613c5b565b0390f35b83546001600160a01b031686529485019460019384019390910190610d1e565b503461048f576101a036600319011261048f57604051610d8481613d25565b610d8c613bdb565b8152602435602082015260443560408201526064356060820152608435608082015260a43580151581036110215760a082015260c43560c082015260e43560e08201526101043561010082015261012435610120820152610144356101408201526101643561016082015261018435610180820152338252602d60205260ff60408320541680610fad575b156105155780516020820151610e35916001600160a01b0316614942565b604082015243610160820152602254600160401b811015610f9957806001610e609201602255613c2d565b610f8557815181546001600160a01b0319166001600160a01b03919091161781556020820151600182015560408201516002820155606082015160038201556080820151600482015560a0820151610ebd90151560058301613f64565b60c0820151600682015560e0820151600782015561010082015160088201556101208201516009820155610140820151600a820155610160820151600b820155600c6101808301519101556022546000198101908111610f715781516001600160a01b03908116845260208080526040808620828601805188529083528187208287015188528352818720949094559351909116845260218152828420915184525281208054610f6c90613f75565b905580f35b634e487b7160e01b83526011600452602483fd5b634e487b7160e01b83526004839052602483fd5b634e487b7160e01b83526041600452602483fd5b50600354604051632474521560e21b8152600080516020614afd833981519152600482015233602482015290602090829060449082906001600160a01b03165afa908115610c60578391611002575b50610e17565b61101b915060203d6020116106c7576106b98183613d5c565b38610ffc565b600080fd5b503461048f578060031936011261048f576012546001600160a01b0390811633036105155781816003541682601354169060145490803b156106d95761108884929183926040519485809481936340c10f1960e01b998a845260048401614898565b03925af1908115610c60578391611202575b505082600354169083601254169160165490803b156111fe576110cf9385809460405196879586948593845260048401614898565b03925af180156111f3576111df575b50506110fa6110f260145460165490614477565b601954614477565b60195580601254169060175490604051918261112763a9059cbb60e01b9283835260209660048401614898565b038484730d9080e677505d29be4da1ddd855c6b523f1d38d928189855af19283156111d4576111769486946111b7575b5060135416866015549360405196879586948593845260048401614898565b03925af18015610c6057611199575b828060145580601655806015558060175580f35b816111af92903d106106c7576106b98183613d5c565b503880611185565b6111cd90853d87116106c7576106b98183613d5c565b5038611157565b6040513d88823e3d90fd5b6111e890613cf7565b6105155781386110de565b6040513d84823e3d90fd5b8480fd5b61120b90613cf7565b61051557813861109a565b503461048f57608036600319011261048f5760243590611234613c4c565b906064359182159283150361102157338252602093602d855260ff60408420541680611383575b15610519578254604051630710f2ff60e51b8152600480359082015291908690839060249082906001600160a01b03165afa9182156106ce578492611354575b5081810291818304149015171561133e576402540be400606491040492611334575b15611311576112ce82601754614477565b6017556112dd82601554614477565b6015555b8160011b91808304600214901517156112fd5750604051908152f35b634e487b7160e01b81526011600452602490fd5b61131d82601654614477565b60165561132c82601454614477565b6014556112e1565b9160011c916112bd565b634e487b7160e01b600052601160045260246000fd5b9091508581813d831161137c575b61136c8183613d5c565b810103126110215751903861129b565b503d611362565b50600354604051632474521560e21b8152600080516020614afd8339815191526004820152336024820152908690829060449082906001600160a01b03165afa9081156106ce5784916113d7575b5061125b565b6113ee9150863d88116106c7576106b98183613d5c565b386113d1565b503461048f57602036600319011261048f5761140e613bdb565b601254906001600160a01b039081831633036106d957169081156105195781600080516020614add8339815191529260809260018060a01b031916176012556040519060408252600360408301526233b7bb60e91b60608301526020820152a180f35b503461048f57604036600319011261048f57602435801515810361102157338252602d60205260ff604083205416806114b6575b1561051557610bea9060043561421e565b50600354604051632474521560e21b8152600080516020614afd833981519152600482015233602482015290602090829060449082906001600160a01b03165afa908115610c6057839161150b575b506114a5565b611523915060203d81116106c7576106b98183613d5c565b38611505565b503461048f5736600319016102208112610515576101e01361048f5760405161155181613d0a565b61155a36613eb5565b8152602080820161014435815260408301906101643582526060840161018435815260808501926101a435845260a086016101c43581526101e435946102043593841515850361102157338a52602d885260ff60408b20541680611766575b15611762578851516001600160a01b039081168b526025895260408b20805491989190600160401b82101561174e57826116028361161d936001600e9a99989796018155613e9d565b90919082549060031b600019811b9283911b16911916179055565b8b526023895260408b20948a51976101208a8a5116998a60018060a01b03198a54161789558c81015160018a0155604081015160028a0155606081015160038a0155608081015160048a015560a081015160058a015561168660c0820151151560068b01613f64565b60e081015160078a015561010081015160088a01550151600988015551600a87015551600b86015551600c85015551600d8401555191015543600a6040882001556000146116f357508251511683526026815280604084209251015183525260408120610f6c8154613f75565b84526027825260408420828451015185528252604084206117148154613f75565b9055825151168352601e81526040832081835101518452815260408084209251015183525260056040822001600160ff1982541617905580f35b634e487b7160e01b8d52604160045260248dfd5b8980fd5b50600354604051632474521560e21b8152600080516020614afd8339815191526004820152336024820152908990829060449082906001600160a01b03165afa9081156117d7578b916117ba575b506115b9565b6117d19150893d8b116106c7576106b98183613d5c565b386117b4565b6040513d8d823e3d90fd5b503461048f57602036600319011261048f57600435601b5481101561051557601b600052600080516020614abd83398151915201546040516001600160a01b039091168152602090f35b503461048f5761020036600319011261048f5761184836613eb5565b60c0366101431901126105155760405161186181613d0a565b6101443581526101643560208201526101843560408201526101a43560608201526101c43560808201526101e43580151581036110215760a0820152338352602d60205260ff60408420541680611b68575b1561051957815160208301516118d1916001600160a01b03166148d5565b604083810191825283516001600160a01b039081168652601d60209081528287208187018051895290825283882085518952909152918620855181546001600160a01b031916921691821781559151600183015591516002820155606084015160038201556080840151600482015560a0840151600582015560c084015161195e90151560068301613f64565b60e08401516007820155610100840151600882015560096101208501519101558352601f6020526040832060208301518452602052604083206119a18154613f75565b9055438352602b602052604083206119b98154613f75565b905581516001600160a01b03168352601f60209081526040808520828501518652909152832054600114611ab3575b611602610bea928460a084015260018060a01b038151168552601e60205260408520602082015186526020526040852060408201518652602052611a66604086208451815560208501516001820155600560a06040870151968760028501556060810151600385015560808101516004850155015115159101613f64565b602081015160c09091015115611aaa5760ff60005b1690600052602a602052611aa4604060002093611a988386613c1d565b90549060031b1c614477565b92613c1d565b60ff6001611a7b565b602082810180518552602880835260408087205486516001600160a01b0390811689526029865282892085518a52865282892091909155925187529252908420835181549216939091600160401b811015611b5257610bea94611b2282611602956001611b4a95018155613e9d565b9080546001600160a01b0360039390931b83811b80199092169390941690931b909216179055565b9250506119e8565b634e487b7160e01b600052604160045260246000fd5b50600354604051632474521560e21b8152600080516020614afd833981519152600482015233602482015290602090829060449082906001600160a01b03165afa9081156106ce578491611bbd575b506118b3565b611bd6915060203d6020116106c7576106b98183613d5c565b38611bb7565b503461048f578060031936011261048f576020600954604051908152f35b503461048f57604036600319011261048f57611c14613bdb565b6001600160a01b031681526025602052604081208054602435929083101561048f576020611c428484613e9d565b90546040519160031b1c8152f35b503461048f57611c5f36613c9f565b9060409392935193611c7085613d25565b8385528361018060209682888201528260408201528260608201528260808201528260a08201528260c08201528260e0820152826101008201528261012082015282610140820152826101608201520152611ccc838383614989565b15611d1a576001600160a01b031683528380526040808420918452908452808320918352925220546101a090611d0b90611d0590613c2d565b506149fd565b611d186040518092613d7f565bf35b60405162461bcd60e51b8152600481018690526002602482015261323360f01b6044820152606490fd5b503461048f57604036600319011261048f576020906040906001600160a01b03611d6c613bdb565b16815260278352818120602435825283522054604051908152f35b503461048f576101a036600319011261048f57338152602d60205260ff60408220541680611dbd575b1561048f57610bea614484565b50600354604051632474521560e21b8152600080516020614afd833981519152600482015233602482015290602090829060449082906001600160a01b03165afa9081156111f3578291611e12575b50611db0565b611e2a915060203d81116106c7576106b98183613d5c565b38611e0c565b503461048f57602036600319011261048f5760406101e0916004358152602360205220611e5c81613e0b565b90600a81015490600b810154600c82015490600e600d840154930154936040519560018060a01b0381511687526020810151602088015260408101516040880152606081015160608801526080810151608088015260a081015160a088015260c0810151151560c088015260e081015160e0880152610100808201519088015261012080910151908701526101408601526101608501526101808401526101a08301526101c0820152f35b503461048f57611f1636613c9f565b90338452602d60205260ff60408520541680611f3b575b156106d957610bea9261453a565b50600354604051632474521560e21b8152600080516020614afd833981519152600482015233602482015290602090829060449082906001600160a01b03165afa908115611fae578591611f90575b50611f2d565b611fa8915060203d81116106c7576106b98183613d5c565b38611f8a565b6040513d87823e3d90fd5b503461048f578060031936011261048f5760206040516402540be4008152f35b503461048f57602036600319011261048f5760406020916004358152602c83522054604051908152f35b503461048f57602036600319011261048f5761201d613bdb565b6012546001600160a01b039190821633036105195716801561051557608081600080516020614add8339815191529260018060a01b031960015416176001556040519060408252600760408301526674726164696e6760c81b60608301526020820152a180f35b503461048f5761014090604061209936613c9f565b9060018060a09694961b038095168352601d60205283832090835260205282822090825260205220908154169060018101549060028101546003820154600483015460058401549060ff600686015416926007860154946009600888015497015497604051998a5260208a015260408901526060880152608087015260a0860152151560c085015260e0840152610100830152610120820152f35b503461048f5761214336613cc9565b91338552602d60205260ff60408620541680612168575b156111fe57610bea93614775565b50600354604051632474521560e21b8152600080516020614afd833981519152600482015233602482015290602090829060449082906001600160a01b03165afa9081156111d45786916121bd575b5061215a565b6121d5915060203d81116106c7576106b98183613d5c565b386121b7565b503461048f57604036600319011261048f576121f5613bdb565b6121fd613bf1565b90338352602d60205260ff60408420541680612292575b15610519576001600160a01b03908116808452601c602052604084209290818316801515919082612283575b82612278575b50501561226957600190925b0180546001600160a01b0319169190921617905580f35b50600181818401541692612252565b141590503880612246565b60018601548516159250612240565b50600354604051632474521560e21b8152600080516020614afd833981519152600482015233602482015290602090829060449082906001600160a01b03165afa9081156106ce5784916122e7575b50612214565b6122ff915060203d81116106c7576106b98183613d5c565b386122e1565b503461048f57604036600319011261048f576020906040906001600160a01b0361232d613bdb565b16815260268352818120602435825283522054604051908152f35b503461048f57602036600319011261048f57600435815260246020526040812060018060a01b03808254169160018101549160028201541660038201549060ff600560048501549401541693604051958652602086015260408501526060840152608083015260048110156123c25760c0925060a0820152f35b634e487b7160e01b83526021600452602483fd5b503461048f57604036600319011261048f576020906040906001600160a01b036123fe613bdb565b16815260218352818120602435825283522054604051908152f35b503461048f57602036600319011261048f576060906001600160a01b039060409082612443613bdb565b168152601c6020522060028154926001830154169101549060405192835260208301526040820152f35b503461048f578060031936011261048f576013546040516001600160a01b039091168152602090f35b503461048f576124a536613c9f565b90338452602d60205260ff604085205416806124ca575b156106d957610bea92613f91565b50600354604051632474521560e21b8152600080516020614afd833981519152600482015233602482015290602090829060449082906001600160a01b03165afa908115611fae57859161251f575b506124bc565b612537915060203d81116106c7576106b98183613d5c565b38612519565b503461048f57604060c09161255136613c9f565b9160018060a01b03168352601e60205283832090835260205282822090825260205220805490600181015490600281015460038201549060ff6005600485015494015416936040519586526020860152604085015260608401526080830152151560a0820152f35b503461048f57602036600319011261048f57601254600435906001600160a01b0316330361051557801561051557608081600080516020614a9d83398151915292600755604051906040825260116040830152706d6178547261646573506572426c6f636b60781b60608301526020820152a180f35b503461048f578060031936011261048f576020600b54604051908152f35b503461048f578060031936011261048f57602254906001600160401b038211612712579060405190602091612687838360051b0182613d5c565b81815282810191826022865284862086915b8383106126eb57505050506040519280840191818552518092526040840192945b8281106126c75784840385f35b909192826101a0826126dc6001948a51613d7f565b019601910194929190946126ba565b600d876001926126ff859b9a98999b6149fd565b8152019201920191909694939596612699565b634e487b7160e01b81526041600452602490fd5b503461048f57366003190160e081126105155760c01361048f5760405161274c81613d0a565b612754613bdb565b815260243560208083019182526001600160a01b0392909160443584811681036110215760408301908152606083019060643582526080840192608435845260a4359660048810156128205760a08601978852338952602d875260ff60408a20541680612824575b1561282057602460059760c4358b52528060408a209651169160018060a01b03199283885416178755516001870155600286019251169082541617905551600383015551600482015501905160048110156123c25760ff8019835416911617905580f35b8880fd5b50604487826003541660405192838092632474521560e21b8252600080516020614afd83398151915260048301523360248301525afa90811561288b578a9161286e575b506127bc565b6128859150883d8a116106c7576106b98183613d5c565b38612868565b6040513d8c823e3d90fd5b503461048f578060031936011261048f576020600854604051908152f35b503461048f576128c336613cc9565b91338552602d60205260ff604086205416806128e8575b156111fe57610bea936147d5565b50600354604051632474521560e21b8152600080516020614afd833981519152600482015233602482015290602090829060449082906001600160a01b03165afa9081156111d457869161293d575b506128da565b612955915060203d81116106c7576106b98183613d5c565b38612937565b503461048f57602080600319360112610515576004356001600160a01b03818116918290036106d957806012541633036106d957806001541660405184816004816358c3de9360e11b958682525afa9283156111d45785918794612a93575b5083612a49575b50505015612a1757801561051957600080516020614add833981519152918160809260018060a01b03196003541617600355604051916040835260056040840152643a37b5b2b760d91b6060840152820152a180f35b60405162461bcd60e51b815260048101839052600a6024820152691393d517d4105554d15160b21b6044820152606490fd5b90919250600254169160046040518094819382525afa9081156106ce578491612a76575b503883816129c1565b612a8d9150833d85116106c7576106b98183613d5c565b38612a6d565b612aab919450823d84116106c7576106b98183613d5c565b92386129ba565b503461048f578060031936011261048f576020600754604051908152f35b503461048f57612adf36613c07565b338352602d60205260ff60408420541680612b19575b1561051957612b13918352602c602052436040842055601a54614477565b601a5580f35b50600354604051632474521560e21b8152600080516020614afd833981519152600482015233602482015290602090829060449082906001600160a01b03165afa9081156106ce578491612b6e575b50612af5565b612b86915060203d81116106c7576106b98183613d5c565b38612b68565b503461048f57606036600319011261048f57612ba6613bdb565b612bae613bf1565b9060443590338452602092602d845260ff60408620541680612c63575b156111fe5783916001600160a01b0381163003612c45575060405163a9059cbb60e01b81529283918291612c029160048401614898565b038186730d9080e677505d29be4da1ddd855c6b523f1d38d5af18015610c6057612c2b57505080f35b81612c4192903d106106c7576106b98183613d5c565b5080f35b612c0260405194859384936323b872dd60e01b8552600485016148b3565b50600354604051632474521560e21b8152600080516020614afd8339815191526004820152336024820152908590829060449082906001600160a01b03165afa9081156111d4578691612cb7575b50612bcb565b612cce9150853d87116106c7576106b98183613d5c565b38612cb1565b503461048f578060031936011261048f576020601954604051908152f35b503461048f57602036600319011261048f5760209060ff906040906001600160a01b03612d1d613bdb565b168152602d84522054166040519015158152f35b503461048f57602036600319011261048f57612d4b613bdb565b6012546001600160a01b039190821633036105195716801561051557601b54600160401b811015611b52576001810180601b55811015612dd957601b600052600080516020614abd8339815191520180546001600160a01b031916821790556040519081527fd1be2e90bd3d24839d9dd94ad871068e1f9688b02fa43f2a62c9975dfa9de2d790602090a180f35b634e487b7160e01b600052603260045260246000fd5b503461048f57602036600319011261048f576020906040906001600160a01b03612e17613bdb565b168152601c83522054604051908152f35b503461048f57602036600319011261048f57612e42613bdb565b6012546001600160a01b039190821633036105195716801561051557608081600080516020614add8339815191529260018060a01b03196004541617600455604051906040825260056040830152641d985d5b1d60da1b60608301526020820152a180f35b503461048f57612eb636613c9f565b9190338452602092602d845260ff60408620541680612faa575b156111fe57845460405163b9e0336f60e01b8152600481019390935260248301919091526001600160a01b03168382604481845afa928315611fae5784928694612f79575b50612f3460405194859384936323b872dd60e01b8552600485016148b3565b03818673779877a7b0d9e8603169ddbd7836e478b46247895af18015610c6057612f5c578280f35b81612f7292903d106106c7576106b98183613d5c565b5038808280f35b8381949295503d8311612fa3575b612f918183613d5c565b81010312611021578391519238612f15565b503d612f87565b50600354604051632474521560e21b8152600080516020614afd8339815191526004820152336024820152908590829060449082906001600160a01b03165afa9081156111d4578691612ffe575b50612ed0565b6130159150853d87116106c7576106b98183613d5c565b38612ff8565b503461048f576020806003193601126105155760043582526028815260408220916040518092808554928381520194835280832092905b82821061306957610d4185610d3581890382613d5c565b83546001600160a01b031686529485019460019384019390910190613052565b503461048f57602080600319360112610515576001600160a01b036130ac613bdb565b168252602581526040822060405192838383549182815201908193835284832090835b81811061312357505050846130e5910385613d5c565b60405193838594850191818652518092526040850193925b82811061310c57505050500390f35b8351855286955093810193928101926001016130fd565b8254845292860192600192830192016130cf565b503461048f57602036600319011261048f57613151613bdb565b6012546001600160a01b0391908216330361051957168015610515576020817ff9cf924d7d98e6e0a27ec523cd7214b0bbdfaba197018b33b41a702f5238190e928452602d82526040842060ff198154169055604051908152a180f35b503461048f578060031936011261048f576020601a54604051908152f35b503461048f578060031936011261048f576020600a54604051908152f35b503461048f578060031936011261048f5760a060405161320981613d41565b36903760405190600d81835b6005821061325357838561322881613d41565b6040519190825b6005831061323c5760a084f35b60019082518152602080910192019201919061322f565b6001602081928554815201930191019091613215565b503461048f57606036600319011261048f57613283613bdb565b8160243591613290613c4c565b338352602d60205260ff6040842054168061338d575b15610519571561331e576003546001600160a01b0316803b15610519578383916132e793836040518096819582946340c10f1960e01b845260048401614898565b03925af180156111f35761330a575b505061330490601954614477565b60195580f35b61331390613cf7565b6105155781386132f6565b6003546001600160a01b03169190823b156105155761335692849183604051809681958294632770a7eb60e21b845260048401614898565b03925af18015610c6057613378575b5061337290601854614477565b60185580f35b916133866133729293613cf7565b9190613365565b50600354604051632474521560e21b8152600080516020614afd833981519152600482015233602482015290602090829060449082906001600160a01b03165afa9081156106ce5784916133e2575b506132a6565b6133fa915060203d81116106c7576106b98183613d5c565b386133dc565b503461048f57602036600319011261048f5760406020916004358152602b83522054604051908152f35b503461048f57602036600319011261048f57613444613bdb565b6012546001600160a01b039190821633036105195716801561051557608081600080516020614add8339815191529260018060a01b03198554161784556040519060408252600f60408301526e383934b1b2a0b3b3b932b3b0ba37b960891b60608301526020820152a180f35b503461048f57602036600319011261048f576134cb613bdb565b6012546001600160a01b039190821633036105195716801561051557608081600080516020614add8339815191529260018060a01b031960055416176005556040519060408252600e60408301526d3a37b5b2b72230b4a937baba32b960911b60608301526020820152a180f35b503461048f57604036600319011261048f576020613561613558613bdb565b60243590614942565b604051908152f35b503461048f57604036600319011261048f576020906040906001600160a01b03613591613bdb565b16815260298352818120602435825283522054604051908152f35b503461048f57602036600319011261048f57601254600435906001600160a01b0316330361051557801561051557608081600080516020614a9d83398151915292600b5560405190604082526017604083015276191959985d5b1d13195d995c9859d9555b9b1bd8dad959604a1b60608301526020820152a180f35b503461048f57602036600319011261048f57600435600581101561051557602090600d0154604051908152f35b503461048f57602036600319011261048f576020906001600160a01b039060019060409083613682613bdb565b168152601c855220015416604051908152f35b503461048f57602036600319011261048f5760043560225481101561051557600d60208360226101a095522091020160018060a01b038154169060018101549060028101546003820154600483015460ff6005850154166006850154600786015491600887015493600988015495600a89015497600c600b8b01549a01549a6040519c8d5260208d015260408c015260608b015260808a0152151560a089015260c088015260e0870152610100860152610120850152610140840152610160830152610180820152f35b503461048f578060031936011261048f57546040516001600160a01b039091168152602090f35b503461048f57604036600319011261048f5760206135616137a5613bdb565b602435906148d5565b503461048f576137bd36613c07565b91908152602a6020526040812090600383101561048f5760206137e08484613c1d565b90549060031b1c604051908152f35b503461048f57604036600319011261048f57613809613bdb565b338252602d60205260ff60408320541680613840575b15610515576001600160a01b03168152601c60205260408120602435905580f35b50600354604051632474521560e21b8152600080516020614afd833981519152600482015233602482015290602090829060449082906001600160a01b03165afa908115610c60578391613895575b5061381f565b6138ad915060203d81116106c7576106b98183613d5c565b3861388f565b503461048f57604036600319011261048f576138cd613bdb565b338252602d60205260ff6040832054168061390e575b15610515576001600160a01b03168152601c602052604081206002018054610f6c9060243590614477565b50600354604051632474521560e21b8152600080516020614afd833981519152600482015233602482015290602090829060449082906001600160a01b03165afa908115610c60578391613963575b506138e3565b61397b915060203d81116106c7576106b98183613d5c565b3861395d565b503461048f5760208060031936011261051557338252602d815260ff604083205416806139de575b156105155760249060043583525280600560408220828155826001820155826002820155826003820155826004820155015580f35b50600354604051632474521560e21b8152600080516020614afd8339815191526004820152336024820152908290829060449082906001600160a01b03165afa908115610c60578391613a32575b506139a9565b613a499150823d84116106c7576106b98183613d5c565b38613a2c565b503461048f57604036600319011261048f576020906040906001600160a01b03613a77613bdb565b168152601f8352818120602435825283522054604051908152f35b503461048f578060031936011261048f576020601754604051908152f35b503461048f57602036600319011261048f57601254600435906001600160a01b031633036105155761012c811061051557608081600080516020614a9d833981519152926009556040519060408252600860408301526706d61784761696e560c41b60608301526020820152a180f35b503461048f578060031936011261048f576012546040516001600160a01b039091168152602090f35b503461048f57602036600319011261048f57601254600435906001600160a01b03163303610515576032811061051557608081600080516020614a9d83398151915292600a556040519060408252600660408301526506d6178536c560d41b60608301526020820152a180f35b9050346105155781600319360112610515576002546001600160a01b03168152602090f35b600435906001600160a01b038216820361102157565b602435906001600160a01b038216820361102157565b6040906003190112611021576004359060243590565b6003821015612dd9570190600090565b602254811015612dd9576022600052600d602060002091020190600090565b60443590811515820361102157565b6020908160408183019282815285518094520193019160005b828110613c82575050505090565b83516001600160a01b031685529381019392810192600101613c74565b6060906003190112611021576004356001600160a01b038116810361102157906024359060443590565b6080906003190112611021576004356001600160a01b03811681036110215790602435906044359060643590565b6001600160401b038111611b5257604052565b60c081019081106001600160401b03821117611b5257604052565b6101a081019081106001600160401b03821117611b5257604052565b60a081019081106001600160401b03821117611b5257604052565b601f909101601f19168101906001600160401b03821190821017611b5257604052565b60018060a01b0381511682526020810151602083015260408101516040830152606081015160608301526080810151608083015260a0810151151560a083015260c081015160c083015260e081015160e0830152610100808201519083015261012080820151908301526101408082015190830152610160808201519083015261018080910151910152565b60405190919061014081016001600160401b03811182821017611b5257604090815283546001600160a01b03168252600184015460208301526002840154908201526003830154606082015260048301546080820152600583015460a0820152600683015460ff16151560c0820152600783015460e08201526008830154610100820152600990920154610120830152565b8054821015612dd95760005260206000200190600090565b9061014080926003190112611021576040519182016001600160401b03811183821017611b5257604052816004356001600160a01b0381168103611021578152602435602082015260443560408201526064356060820152608435608082015260a43560a082015260c43580151581036110215760c082015260e43560e08201526101043561010082015261012061012435910152565b90816020910312611021575180151581036110215790565b9060ff801983541691151516179055565b600019811461133e5760010190565b801561133e576000190190565b9160018060a01b03809316600092818452602091601d83526040958686208387528452868620858752845286862090828752601e855287872084885285528787208688528552878720600783015415614213576006600260ff9201549301541660001461420a5760ff875b1691848852602a8652888820926140138185613c1d565b949054600395861b1c9283039283116141f65791611602614037928b969594613c1d565b838352601f865288832085845286526001898420541461410f575b50600590602b96848452601d8752898420868552875289842081855287528360098b8220828155826001820155826002820155828582015582600482015582868201558260068201558260078201558260088201550155848452601e875289842086855287528984209084528652828981209181835581600184015581600284015582015582600482015501558452601f825284842090845281528383206140fa8154613f84565b9055438352522061410b8154613f75565b9055565b9092809495969252602986528787208588528652878720546028875288882090815490600019918281019081116141e2578461414e61415f9286613e9d565b905490891b1c16611b228386613e9d565b8361416a8285613e9d565b905490881b1c168a52602989528a8a20888b5289528a8a205585895260298852898920878a528852888a812055815480156141ce5792602b98979695928a959260059501916141b98383613e9d565b9091825491871b1b1916905555965090614052565b634e487b7160e01b8a52603160045260248afd5b634e487b7160e01b8b52601160045260248bfd5b634e487b7160e01b8a52601160045260248afd5b60ff6001613ffc565b505050505050505050565b6000908082526023906020918083526040948585209386519260c0840184811060018060401b0382111761446357885261425786613e0b565b97888552600a918288015484870152600b938489015483880152600c95868a01546060890152600d97888b01546080820152600e809b015460a082015260018060a01b03809d51168c5260258352848c20908c5b8254811015614452578b6142bf8285613e9d565b919054600392831b1c146142dc57506142d790613f75565b6142ab565b9c9d9e8f9193949780999a9b9c9d9697986000146143f55750825151169052602685528d858882209251015190528452858d206143198154613f84565b90555b815460001991908281019081116143e157906116028d61433f61434b9487613e9d565b9054911b1c9185613e9d565b815480156143cd57948d9a999793948b9996958d8b999495868b99978a9801926143758484613e9d565b81939154921b1b1916905555845252812099818b558160018c01558160028c01558a01558160048a01558160058a01558160068a01558160078a01558160088a01558160098a01558801558601558401558201550155565b634e487b7160e01b8e52603160045260248efd5b634e487b7160e01b8f52601160045260248ffd5b919092836005948251511683526027895283832089835101518452895283832061441f8154613f84565b9055815151168252601e88528282208151890151835288528282209051830151825287522001805460ff1916905561431c565b505050505050505050505050505050565b634e487b7160e01b88526041600452602488fd5b9190820180921161133e57565b6004356001600160a01b03811690818103611021576144ae90602435918291604435938491614989565b156145355760009283526020805260408320908352602052604082209082526020526144dd6040822054613c2d565b5090606435600383015560a43590811515820361048f57506145029060058301613f64565b60c435600682015560e435600782015561010435600882015561012435600982015561014435600a820155600b43910155565b505050565b90614546838284614989565b15614535576001600160a01b039182166000818152602080805260408083208584528252808320878452825280832054602254919793969294936000199390928481019081116147615761459990613c2d565b506145a383613c2d565b91909161474d578082036146b3575b50506145bd82613c2d565b505416875284805287872060016145d383613c2d565b5001548852855287872060026145e883613c2d565b5001548852855287872055828652838052868620858752845286862090865283528486812055602254801561469f570161462181613c2d565b61468b57600c818780935582600182015582600282015582600382015582600482015582600582015582600682015582600782015582600882015582600982015582600a82015582600b8201550155602255835260218152838320918352522061410b8154613f84565b634e487b7160e01b86526004869052602486fd5b634e487b7160e01b86526031600452602486fd5b600c81848293541660018060a01b03198554161784556001810154600185015560028101546002850155600381015460038501556004810154600485015561470560ff60058301541660058601613f64565b60068101546006850155600781015460078501556008810154600885015560098101546009850155600a810154600a850155600b810154600b850155015491015538806145b2565b634e487b7160e01b8a5260048a905260248afd5b634e487b7160e01b89526011600452602489fd5b6001600160a01b03166000818152601d6020908152604080832085845282528083208684528252808320938352601e8252808320948352938152838220948252939093529120600782015490929190156145355760090155600443910155565b6001600160a01b03166000818152601d6020908152604080832085845282528083208684528252808320938352601e8252808320948352938152838220948252939093529120600782015490929190156145355760080155600343910155565b604060018060a01b038251166000908152601d602052818120602084015182526020528181208284015182526020522060078101918254156145355760e0916060820151600382015560808201516004820155600560a083015191015501519055565b6001600160a01b039091168152602081019190915260400190565b6001600160a01b03918216815291166020820152604081019190915260600190565b6006546000939290918490815b8481106148f1575b5050505050565b6001600160a01b0382168352601d602090815260408085208686528252808520838652909152832060070154156149305761492b90613f75565b6148e2565b949550505050509038808080806148ea565b600654600093929091845b83811061495b575b50505050565b614966818484614989565b156149795761497490613f75565b61494d565b9394505050509038808080614955565b919091602254156149f55760018060a01b038091166149c560406000838152602080528181208782526020528181208682526020522054613c2d565b50918254161492836149e7575b50826149dd57505090565b6002015414919050565b6001820154149250386149d2565b505050600090565b90604051614a0a81613d25565b82546001600160a01b0316815260018301546020820152600283015460408201526003830154606082015260048301546080820152600583015460ff16151560a0820152600683015460c0820152600783015460e082015260088301546101008201526009830154610120820152600a830154610140820152600b830154610160820152600c9092015461018083015256fe8cf3e35f6221b16e1670a3413180c9484bf5aa71787905909fa82a6a2662e9ab3ad8aa4f87544323a9d1e5dd902f40c356527a7955687113db5f9a85ad579dc1943e9d45a11aaae5d87503e3bc248665d9807856e5cf2bdb4a988bee444227819f2df0fed2c77648de5860a4cc508cd0818c85b8b8a1ab4ceeef8d981c8956a6a164736f6c6343000811000a",
  "libraries": {},
  "devdoc": {
    "kind": "dev",
    "methods": {},
    "version": 1
  },
  "userdoc": {
    "kind": "user",
    "methods": {},
    "version": 1
  },
  "storageLayout": {
    "storage": [
      {
        "astId": 12147,
        "contract": "contracts/contracts/GFarmTradingStorageV5.sol:GFarmTradingStorageV5",
        "label": "priceAggregator",
        "offset": 0,
        "slot": "0",
        "type": "t_contract(AggregatorInterfaceV5)34574"
      },
      {
        "astId": 12150,
        "contract": "contracts/contracts/GFarmTradingStorageV5.sol:GFarmTradingStorageV5",
        "label": "trading",
        "offset": 0,
        "slot": "1",
        "type": "t_contract(PausableInterfaceV5)35979"
      },
      {
        "astId": 12153,
        "contract": "contracts/contracts/GFarmTradingStorageV5.sol:GFarmTradingStorageV5",
        "label": "callbacks",
        "offset": 0,
        "slot": "2",
        "type": "t_contract(PausableInterfaceV5)35979"
      },
      {
        "astId": 12159,
        "contract": "contracts/contracts/GFarmTradingStorageV5.sol:GFarmTradingStorageV5",
        "label": "token",
        "offset": 0,
        "slot": "3",
        "type": "t_contract(TokenInterfaceV5)36847"
      },
      {
        "astId": 12161,
        "contract": "contracts/contracts/GFarmTradingStorageV5.sol:GFarmTradingStorageV5",
        "label": "vault",
        "offset": 0,
        "slot": "4",
        "type": "t_address"
      },
      {
        "astId": 12163,
        "contract": "contracts/contracts/GFarmTradingStorageV5.sol:GFarmTradingStorageV5",
        "label": "tokenDaiRouter",
        "offset": 0,
        "slot": "5",
        "type": "t_address"
      },
      {
        "astId": 12166,
        "contract": "contracts/contracts/GFarmTradingStorageV5.sol:GFarmTradingStorageV5",
        "label": "maxTradesPerPair",
        "offset": 0,
        "slot": "6",
        "type": "t_uint256"
      },
      {
        "astId": 12169,
        "contract": "contracts/contracts/GFarmTradingStorageV5.sol:GFarmTradingStorageV5",
        "label": "maxTradesPerBlock",
        "offset": 0,
        "slot": "7",
        "type": "t_uint256"
      },
      {
        "astId": 12172,
        "contract": "contracts/contracts/GFarmTradingStorageV5.sol:GFarmTradingStorageV5",
        "label": "maxPendingMarketOrders",
        "offset": 0,
        "slot": "8",
        "type": "t_uint256"
      },
      {
        "astId": 12175,
        "contract": "contracts/contracts/GFarmTradingStorageV5.sol:GFarmTradingStorageV5",
        "label": "maxGainP",
        "offset": 0,
        "slot": "9",
        "type": "t_uint256"
      },
      {
        "astId": 12178,
        "contract": "contracts/contracts/GFarmTradingStorageV5.sol:GFarmTradingStorageV5",
        "label": "maxSlP",
        "offset": 0,
        "slot": "10",
        "type": "t_uint256"
      },
      {
        "astId": 12181,
        "contract": "contracts/contracts/GFarmTradingStorageV5.sol:GFarmTradingStorageV5",
        "label": "defaultLeverageUnlocked",
        "offset": 0,
        "slot": "11",
        "type": "t_uint256"
      },
      {
        "astId": 12184,
        "contract": "contracts/contracts/GFarmTradingStorageV5.sol:GFarmTradingStorageV5",
        "label": "nftSuccessTimelock",
        "offset": 0,
        "slot": "12",
        "type": "t_uint256"
      },
      {
        "astId": 12194,
        "contract": "contracts/contracts/GFarmTradingStorageV5.sol:GFarmTradingStorageV5",
        "label": "spreadReductionsP",
        "offset": 0,
        "slot": "13",
        "type": "t_array(t_uint256)5_storage"
      },
      {
        "astId": 12197,
        "contract": "contracts/contracts/GFarmTradingStorageV5.sol:GFarmTradingStorageV5",
        "label": "gov",
        "offset": 0,
        "slot": "18",
        "type": "t_address"
      },
      {
        "astId": 12200,
        "contract": "contracts/contracts/GFarmTradingStorageV5.sol:GFarmTradingStorageV5",
        "label": "dev",
        "offset": 0,
        "slot": "19",
        "type": "t_address"
      },
      {
        "astId": 12202,
        "contract": "contracts/contracts/GFarmTradingStorageV5.sol:GFarmTradingStorageV5",
        "label": "devFeesToken",
        "offset": 0,
        "slot": "20",
        "type": "t_uint256"
      },
      {
        "astId": 12204,
        "contract": "contracts/contracts/GFarmTradingStorageV5.sol:GFarmTradingStorageV5",
        "label": "devFeesDai",
        "offset": 0,
        "slot": "21",
        "type": "t_uint256"
      },
      {
        "astId": 12206,
        "contract": "contracts/contracts/GFarmTradingStorageV5.sol:GFarmTradingStorageV5",
        "label": "govFeesToken",
        "offset": 0,
        "slot": "22",
        "type": "t_uint256"
      },
      {
        "astId": 12208,
        "contract": "contracts/contracts/GFarmTradingStorageV5.sol:GFarmTradingStorageV5",
        "label": "govFeesDai",
        "offset": 0,
        "slot": "23",
        "type": "t_uint256"
      },
      {
        "astId": 12210,
        "contract": "contracts/contracts/GFarmTradingStorageV5.sol:GFarmTradingStorageV5",
        "label": "tokensBurned",
        "offset": 0,
        "slot": "24",
        "type": "t_uint256"
      },
      {
        "astId": 12212,
        "contract": "contracts/contracts/GFarmTradingStorageV5.sol:GFarmTradingStorageV5",
        "label": "tokensMinted",
        "offset": 0,
        "slot": "25",
        "type": "t_uint256"
      },
      {
        "astId": 12214,
        "contract": "contracts/contracts/GFarmTradingStorageV5.sol:GFarmTradingStorageV5",
        "label": "nftRewards",
        "offset": 0,
        "slot": "26",
        "type": "t_uint256"
      },
      {
        "astId": 12318,
        "contract": "contracts/contracts/GFarmTradingStorageV5.sol:GFarmTradingStorageV5",
        "label": "supportedTokens",
        "offset": 0,
        "slot": "27",
        "type": "t_array(t_address)dyn_storage"
      },
      {
        "astId": 12323,
        "contract": "contracts/contracts/GFarmTradingStorageV5.sol:GFarmTradingStorageV5",
        "label": "traders",
        "offset": 0,
        "slot": "28",
        "type": "t_mapping(t_address,t_struct(Trader)12226_storage)"
      },
      {
        "astId": 12332,
        "contract": "contracts/contracts/GFarmTradingStorageV5.sol:GFarmTradingStorageV5",
        "label": "openTrades",
        "offset": 0,
        "slot": "29",
        "type": "t_mapping(t_address,t_mapping(t_uint256,t_mapping(t_uint256,t_struct(Trade)12247_storage)))"
      },
      {
        "astId": 12341,
        "contract": "contracts/contracts/GFarmTradingStorageV5.sol:GFarmTradingStorageV5",
        "label": "openTradesInfo",
        "offset": 0,
        "slot": "30",
        "type": "t_mapping(t_address,t_mapping(t_uint256,t_mapping(t_uint256,t_struct(TradeInfo)12260_storage)))"
      },
      {
        "astId": 12347,
        "contract": "contracts/contracts/GFarmTradingStorageV5.sol:GFarmTradingStorageV5",
        "label": "openTradesCount",
        "offset": 0,
        "slot": "31",
        "type": "t_mapping(t_address,t_mapping(t_uint256,t_uint256))"
      },
      {
        "astId": 12355,
        "contract": "contracts/contracts/GFarmTradingStorageV5.sol:GFarmTradingStorageV5",
        "label": "openLimitOrderIds",
        "offset": 0,
        "slot": "32",
        "type": "t_mapping(t_address,t_mapping(t_uint256,t_mapping(t_uint256,t_uint256)))"
      },
      {
        "astId": 12361,
        "contract": "contracts/contracts/GFarmTradingStorageV5.sol:GFarmTradingStorageV5",
        "label": "openLimitOrdersCount",
        "offset": 0,
        "slot": "33",
        "type": "t_mapping(t_address,t_mapping(t_uint256,t_uint256))"
      },
      {
        "astId": 12365,
        "contract": "contracts/contracts/GFarmTradingStorageV5.sol:GFarmTradingStorageV5",
        "label": "openLimitOrders",
        "offset": 0,
        "slot": "34",
        "type": "t_array(t_struct(OpenLimitOrder)12287_storage)dyn_storage"
      },
      {
        "astId": 12370,
        "contract": "contracts/contracts/GFarmTradingStorageV5.sol:GFarmTradingStorageV5",
        "label": "reqID_pendingMarketOrder",
        "offset": 0,
        "slot": "35",
        "type": "t_mapping(t_uint256,t_struct(PendingMarketOrder)12301_storage)"
      },
      {
        "astId": 12375,
        "contract": "contracts/contracts/GFarmTradingStorageV5.sol:GFarmTradingStorageV5",
        "label": "reqID_pendingNftOrder",
        "offset": 0,
        "slot": "36",
        "type": "t_mapping(t_uint256,t_struct(PendingNftOrder)12315_storage)"
      },
      {
        "astId": 12380,
        "contract": "contracts/contracts/GFarmTradingStorageV5.sol:GFarmTradingStorageV5",
        "label": "pendingOrderIds",
        "offset": 0,
        "slot": "37",
        "type": "t_mapping(t_address,t_array(t_uint256)dyn_storage)"
      },
      {
        "astId": 12386,
        "contract": "contracts/contracts/GFarmTradingStorageV5.sol:GFarmTradingStorageV5",
        "label": "pendingMarketOpenCount",
        "offset": 0,
        "slot": "38",
        "type": "t_mapping(t_address,t_mapping(t_uint256,t_uint256))"
      },
      {
        "astId": 12392,
        "contract": "contracts/contracts/GFarmTradingStorageV5.sol:GFarmTradingStorageV5",
        "label": "pendingMarketCloseCount",
        "offset": 0,
        "slot": "39",
        "type": "t_mapping(t_address,t_mapping(t_uint256,t_uint256))"
      },
      {
        "astId": 12397,
        "contract": "contracts/contracts/GFarmTradingStorageV5.sol:GFarmTradingStorageV5",
        "label": "pairTraders",
        "offset": 0,
        "slot": "40",
        "type": "t_mapping(t_uint256,t_array(t_address)dyn_storage)"
      },
      {
        "astId": 12403,
        "contract": "contracts/contracts/GFarmTradingStorageV5.sol:GFarmTradingStorageV5",
        "label": "pairTradersId",
        "offset": 0,
        "slot": "41",
        "type": "t_mapping(t_address,t_mapping(t_uint256,t_uint256))"
      },
      {
        "astId": 12409,
        "contract": "contracts/contracts/GFarmTradingStorageV5.sol:GFarmTradingStorageV5",
        "label": "openInterestDai",
        "offset": 0,
        "slot": "42",
        "type": "t_mapping(t_uint256,t_array(t_uint256)3_storage)"
      },
      {
        "astId": 12413,
        "contract": "contracts/contracts/GFarmTradingStorageV5.sol:GFarmTradingStorageV5",
        "label": "tradesPerBlock",
        "offset": 0,
        "slot": "43",
        "type": "t_mapping(t_uint256,t_uint256)"
      },
      {
        "astId": 12417,
        "contract": "contracts/contracts/GFarmTradingStorageV5.sol:GFarmTradingStorageV5",
        "label": "nftLastSuccess",
        "offset": 0,
        "slot": "44",
        "type": "t_mapping(t_uint256,t_uint256)"
      },
      {
        "astId": 12421,
        "contract": "contracts/contracts/GFarmTradingStorageV5.sol:GFarmTradingStorageV5",
        "label": "isTradingContract",
        "offset": 0,
        "slot": "45",
        "type": "t_mapping(t_address,t_bool)"
      }
    ],
    "types": {
      "t_address": {
        "encoding": "inplace",
        "label": "address",
        "numberOfBytes": "20"
      },
      "t_array(t_address)dyn_storage": {
        "base": "t_address",
        "encoding": "dynamic_array",
        "label": "address[]",
        "numberOfBytes": "32"
      },
      "t_array(t_struct(OpenLimitOrder)12287_storage)dyn_storage": {
        "base": "t_struct(OpenLimitOrder)12287_storage",
        "encoding": "dynamic_array",
        "label": "struct GFarmTradingStorageV5.OpenLimitOrder[]",
        "numberOfBytes": "32"
      },
      "t_array(t_uint256)3_storage": {
        "base": "t_uint256",
        "encoding": "inplace",
        "label": "uint256[3]",
        "numberOfBytes": "96"
      },
      "t_array(t_uint256)5_storage": {
        "base": "t_uint256",
        "encoding": "inplace",
        "label": "uint256[5]",
        "numberOfBytes": "160"
      },
      "t_array(t_uint256)dyn_storage": {
        "base": "t_uint256",
        "encoding": "dynamic_array",
        "label": "uint256[]",
        "numberOfBytes": "32"
      },
      "t_bool": {
        "encoding": "inplace",
        "label": "bool",
        "numberOfBytes": "1"
      },
      "t_contract(AggregatorInterfaceV5)34574": {
        "encoding": "inplace",
        "label": "contract AggregatorInterfaceV5",
        "numberOfBytes": "20"
      },
      "t_contract(PausableInterfaceV5)35979": {
        "encoding": "inplace",
        "label": "contract PausableInterfaceV5",
        "numberOfBytes": "20"
      },
      "t_contract(TokenInterfaceV5)36847": {
        "encoding": "inplace",
        "label": "contract TokenInterfaceV5",
        "numberOfBytes": "20"
      },
      "t_enum(LimitOrder)12219": {
        "encoding": "inplace",
        "label": "enum GFarmTradingStorageV5.LimitOrder",
        "numberOfBytes": "1"
      },
      "t_mapping(t_address,t_array(t_uint256)dyn_storage)": {
        "encoding": "mapping",
        "key": "t_address",
        "label": "mapping(address => uint256[])",
        "numberOfBytes": "32",
        "value": "t_array(t_uint256)dyn_storage"
      },
      "t_mapping(t_address,t_bool)": {
        "encoding": "mapping",
        "key": "t_address",
        "label": "mapping(address => bool)",
        "numberOfBytes": "32",
        "value": "t_bool"
      },
      "t_mapping(t_address,t_mapping(t_uint256,t_mapping(t_uint256,t_struct(Trade)12247_storage)))": {
        "encoding": "mapping",
        "key": "t_address",
        "label": "mapping(address => mapping(uint256 => mapping(uint256 => struct GFarmTradingStorageV5.Trade)))",
        "numberOfBytes": "32",
        "value": "t_mapping(t_uint256,t_mapping(t_uint256,t_struct(Trade)12247_storage))"
      },
      "t_mapping(t_address,t_mapping(t_uint256,t_mapping(t_uint256,t_struct(TradeInfo)12260_storage)))": {
        "encoding": "mapping",
        "key": "t_address",
        "label": "mapping(address => mapping(uint256 => mapping(uint256 => struct GFarmTradingStorageV5.TradeInfo)))",
        "numberOfBytes": "32",
        "value": "t_mapping(t_uint256,t_mapping(t_uint256,t_struct(TradeInfo)12260_storage))"
      },
      "t_mapping(t_address,t_mapping(t_uint256,t_mapping(t_uint256,t_uint256)))": {
        "encoding": "mapping",
        "key": "t_address",
        "label": "mapping(address => mapping(uint256 => mapping(uint256 => uint256)))",
        "numberOfBytes": "32",
        "value": "t_mapping(t_uint256,t_mapping(t_uint256,t_uint256))"
      },
      "t_mapping(t_address,t_mapping(t_uint256,t_uint256))": {
        "encoding": "mapping",
        "key": "t_address",
        "label": "mapping(address => mapping(uint256 => uint256))",
        "numberOfBytes": "32",
        "value": "t_mapping(t_uint256,t_uint256)"
      },
      "t_mapping(t_address,t_struct(Trader)12226_storage)": {
        "encoding": "mapping",
        "key": "t_address",
        "label": "mapping(address => struct GFarmTradingStorageV5.Trader)",
        "numberOfBytes": "32",
        "value": "t_struct(Trader)12226_storage"
      },
      "t_mapping(t_uint256,t_array(t_address)dyn_storage)": {
        "encoding": "mapping",
        "key": "t_uint256",
        "label": "mapping(uint256 => address[])",
        "numberOfBytes": "32",
        "value": "t_array(t_address)dyn_storage"
      },
      "t_mapping(t_uint256,t_array(t_uint256)3_storage)": {
        "encoding": "mapping",
        "key": "t_uint256",
        "label": "mapping(uint256 => uint256[3])",
        "numberOfBytes": "32",
        "value": "t_array(t_uint256)3_storage"
      },
      "t_mapping(t_uint256,t_mapping(t_uint256,t_struct(Trade)12247_storage))": {
        "encoding": "mapping",
        "key": "t_uint256",
        "label": "mapping(uint256 => mapping(uint256 => struct GFarmTradingStorageV5.Trade))",
        "numberOfBytes": "32",
        "value": "t_mapping(t_uint256,t_struct(Trade)12247_storage)"
      },
      "t_mapping(t_uint256,t_mapping(t_uint256,t_struct(TradeInfo)12260_storage))": {
        "encoding": "mapping",
        "key": "t_uint256",
        "label": "mapping(uint256 => mapping(uint256 => struct GFarmTradingStorageV5.TradeInfo))",
        "numberOfBytes": "32",
        "value": "t_mapping(t_uint256,t_struct(TradeInfo)12260_storage)"
      },
      "t_mapping(t_uint256,t_mapping(t_uint256,t_uint256))": {
        "encoding": "mapping",
        "key": "t_uint256",
        "label": "mapping(uint256 => mapping(uint256 => uint256))",
        "numberOfBytes": "32",
        "value": "t_mapping(t_uint256,t_uint256)"
      },
      "t_mapping(t_uint256,t_struct(PendingMarketOrder)12301_storage)": {
        "encoding": "mapping",
        "key": "t_uint256",
        "label": "mapping(uint256 => struct GFarmTradingStorageV5.PendingMarketOrder)",
        "numberOfBytes": "32",
        "value": "t_struct(PendingMarketOrder)12301_storage"
      },
      "t_mapping(t_uint256,t_struct(PendingNftOrder)12315_storage)": {
        "encoding": "mapping",
        "key": "t_uint256",
        "label": "mapping(uint256 => struct GFarmTradingStorageV5.PendingNftOrder)",
        "numberOfBytes": "32",
        "value": "t_struct(PendingNftOrder)12315_storage"
      },
      "t_mapping(t_uint256,t_struct(Trade)12247_storage)": {
        "encoding": "mapping",
        "key": "t_uint256",
        "label": "mapping(uint256 => struct GFarmTradingStorageV5.Trade)",
        "numberOfBytes": "32",
        "value": "t_struct(Trade)12247_storage"
      },
      "t_mapping(t_uint256,t_struct(TradeInfo)12260_storage)": {
        "encoding": "mapping",
        "key": "t_uint256",
        "label": "mapping(uint256 => struct GFarmTradingStorageV5.TradeInfo)",
        "numberOfBytes": "32",
        "value": "t_struct(TradeInfo)12260_storage"
      },
      "t_mapping(t_uint256,t_uint256)": {
        "encoding": "mapping",
        "key": "t_uint256",
        "label": "mapping(uint256 => uint256)",
        "numberOfBytes": "32",
        "value": "t_uint256"
      },
      "t_struct(OpenLimitOrder)12287_storage": {
        "encoding": "inplace",
        "label": "struct GFarmTradingStorageV5.OpenLimitOrder",
        "members": [
          {
            "astId": 12262,
            "contract": "contracts/contracts/GFarmTradingStorageV5.sol:GFarmTradingStorageV5",
            "label": "trader",
            "offset": 0,
            "slot": "0",
            "type": "t_address"
          },
          {
            "astId": 12264,
            "contract": "contracts/contracts/GFarmTradingStorageV5.sol:GFarmTradingStorageV5",
            "label": "pairIndex",
            "offset": 0,
            "slot": "1",
            "type": "t_uint256"
          },
          {
            "astId": 12266,
            "contract": "contracts/contracts/GFarmTradingStorageV5.sol:GFarmTradingStorageV5",
            "label": "index",
            "offset": 0,
            "slot": "2",
            "type": "t_uint256"
          },
          {
            "astId": 12268,
            "contract": "contracts/contracts/GFarmTradingStorageV5.sol:GFarmTradingStorageV5",
            "label": "positionSize",
            "offset": 0,
            "slot": "3",
            "type": "t_uint256"
          },
          {
            "astId": 12270,
            "contract": "contracts/contracts/GFarmTradingStorageV5.sol:GFarmTradingStorageV5",
            "label": "spreadReductionP",
            "offset": 0,
            "slot": "4",
            "type": "t_uint256"
          },
          {
            "astId": 12272,
            "contract": "contracts/contracts/GFarmTradingStorageV5.sol:GFarmTradingStorageV5",
            "label": "buy",
            "offset": 0,
            "slot": "5",
            "type": "t_bool"
          },
          {
            "astId": 12274,
            "contract": "contracts/contracts/GFarmTradingStorageV5.sol:GFarmTradingStorageV5",
            "label": "leverage",
            "offset": 0,
            "slot": "6",
            "type": "t_uint256"
          },
          {
            "astId": 12276,
            "contract": "contracts/contracts/GFarmTradingStorageV5.sol:GFarmTradingStorageV5",
            "label": "tp",
            "offset": 0,
            "slot": "7",
            "type": "t_uint256"
          },
          {
            "astId": 12278,
            "contract": "contracts/contracts/GFarmTradingStorageV5.sol:GFarmTradingStorageV5",
            "label": "sl",
            "offset": 0,
            "slot": "8",
            "type": "t_uint256"
          },
          {
            "astId": 12280,
            "contract": "contracts/contracts/GFarmTradingStorageV5.sol:GFarmTradingStorageV5",
            "label": "minPrice",
            "offset": 0,
            "slot": "9",
            "type": "t_uint256"
          },
          {
            "astId": 12282,
            "contract": "contracts/contracts/GFarmTradingStorageV5.sol:GFarmTradingStorageV5",
            "label": "maxPrice",
            "offset": 0,
            "slot": "10",
            "type": "t_uint256"
          },
          {
            "astId": 12284,
            "contract": "contracts/contracts/GFarmTradingStorageV5.sol:GFarmTradingStorageV5",
            "label": "block",
            "offset": 0,
            "slot": "11",
            "type": "t_uint256"
          },
          {
            "astId": 12286,
            "contract": "contracts/contracts/GFarmTradingStorageV5.sol:GFarmTradingStorageV5",
            "label": "tokenId",
            "offset": 0,
            "slot": "12",
            "type": "t_uint256"
          }
        ],
        "numberOfBytes": "416"
      },
      "t_struct(PendingMarketOrder)12301_storage": {
        "encoding": "inplace",
        "label": "struct GFarmTradingStorageV5.PendingMarketOrder",
        "members": [
          {
            "astId": 12290,
            "contract": "contracts/contracts/GFarmTradingStorageV5.sol:GFarmTradingStorageV5",
            "label": "trade",
            "offset": 0,
            "slot": "0",
            "type": "t_struct(Trade)12247_storage"
          },
          {
            "astId": 12292,
            "contract": "contracts/contracts/GFarmTradingStorageV5.sol:GFarmTradingStorageV5",
            "label": "block",
            "offset": 0,
            "slot": "10",
            "type": "t_uint256"
          },
          {
            "astId": 12294,
            "contract": "contracts/contracts/GFarmTradingStorageV5.sol:GFarmTradingStorageV5",
            "label": "wantedPrice",
            "offset": 0,
            "slot": "11",
            "type": "t_uint256"
          },
          {
            "astId": 12296,
            "contract": "contracts/contracts/GFarmTradingStorageV5.sol:GFarmTradingStorageV5",
            "label": "slippageP",
            "offset": 0,
            "slot": "12",
            "type": "t_uint256"
          },
          {
            "astId": 12298,
            "contract": "contracts/contracts/GFarmTradingStorageV5.sol:GFarmTradingStorageV5",
            "label": "spreadReductionP",
            "offset": 0,
            "slot": "13",
            "type": "t_uint256"
          },
          {
            "astId": 12300,
            "contract": "contracts/contracts/GFarmTradingStorageV5.sol:GFarmTradingStorageV5",
            "label": "tokenId",
            "offset": 0,
            "slot": "14",
            "type": "t_uint256"
          }
        ],
        "numberOfBytes": "480"
      },
      "t_struct(PendingNftOrder)12315_storage": {
        "encoding": "inplace",
        "label": "struct GFarmTradingStorageV5.PendingNftOrder",
        "members": [
          {
            "astId": 12303,
            "contract": "contracts/contracts/GFarmTradingStorageV5.sol:GFarmTradingStorageV5",
            "label": "nftHolder",
            "offset": 0,
            "slot": "0",
            "type": "t_address"
          },
          {
            "astId": 12305,
            "contract": "contracts/contracts/GFarmTradingStorageV5.sol:GFarmTradingStorageV5",
            "label": "nftId",
            "offset": 0,
            "slot": "1",
            "type": "t_uint256"
          },
          {
            "astId": 12307,
            "contract": "contracts/contracts/GFarmTradingStorageV5.sol:GFarmTradingStorageV5",
            "label": "trader",
            "offset": 0,
            "slot": "2",
            "type": "t_address"
          },
          {
            "astId": 12309,
            "contract": "contracts/contracts/GFarmTradingStorageV5.sol:GFarmTradingStorageV5",
            "label": "pairIndex",
            "offset": 0,
            "slot": "3",
            "type": "t_uint256"
          },
          {
            "astId": 12311,
            "contract": "contracts/contracts/GFarmTradingStorageV5.sol:GFarmTradingStorageV5",
            "label": "index",
            "offset": 0,
            "slot": "4",
            "type": "t_uint256"
          },
          {
            "astId": 12314,
            "contract": "contracts/contracts/GFarmTradingStorageV5.sol:GFarmTradingStorageV5",
            "label": "orderType",
            "offset": 0,
            "slot": "5",
            "type": "t_enum(LimitOrder)12219"
          }
        ],
        "numberOfBytes": "192"
      },
      "t_struct(Trade)12247_storage": {
        "encoding": "inplace",
        "label": "struct GFarmTradingStorageV5.Trade",
        "members": [
          {
            "astId": 12228,
            "contract": "contracts/contracts/GFarmTradingStorageV5.sol:GFarmTradingStorageV5",
            "label": "trader",
            "offset": 0,
            "slot": "0",
            "type": "t_address"
          },
          {
            "astId": 12230,
            "contract": "contracts/contracts/GFarmTradingStorageV5.sol:GFarmTradingStorageV5",
            "label": "pairIndex",
            "offset": 0,
            "slot": "1",
            "type": "t_uint256"
          },
          {
            "astId": 12232,
            "contract": "contracts/contracts/GFarmTradingStorageV5.sol:GFarmTradingStorageV5",
            "label": "index",
            "offset": 0,
            "slot": "2",
            "type": "t_uint256"
          },
          {
            "astId": 12234,
            "contract": "contracts/contracts/GFarmTradingStorageV5.sol:GFarmTradingStorageV5",
            "label": "initialPosToken",
            "offset": 0,
            "slot": "3",
            "type": "t_uint256"
          },
          {
            "astId": 12236,
            "contract": "contracts/contracts/GFarmTradingStorageV5.sol:GFarmTradingStorageV5",
            "label": "positionSizeDai",
            "offset": 0,
            "slot": "4",
            "type": "t_uint256"
          },
          {
            "astId": 12238,
            "contract": "contracts/contracts/GFarmTradingStorageV5.sol:GFarmTradingStorageV5",
            "label": "openPrice",
            "offset": 0,
            "slot": "5",
            "type": "t_uint256"
          },
          {
            "astId": 12240,
            "contract": "contracts/contracts/GFarmTradingStorageV5.sol:GFarmTradingStorageV5",
            "label": "buy",
            "offset": 0,
            "slot": "6",
            "type": "t_bool"
          },
          {
            "astId": 12242,
            "contract": "contracts/contracts/GFarmTradingStorageV5.sol:GFarmTradingStorageV5",
            "label": "leverage",
            "offset": 0,
            "slot": "7",
            "type": "t_uint256"
          },
          {
            "astId": 12244,
            "contract": "contracts/contracts/GFarmTradingStorageV5.sol:GFarmTradingStorageV5",
            "label": "tp",
            "offset": 0,
            "slot": "8",
            "type": "t_uint256"
          },
          {
            "astId": 12246,
            "contract": "contracts/contracts/GFarmTradingStorageV5.sol:GFarmTradingStorageV5",
            "label": "sl",
            "offset": 0,
            "slot": "9",
            "type": "t_uint256"
          }
        ],
        "numberOfBytes": "320"
      },
      "t_struct(TradeInfo)12260_storage": {
        "encoding": "inplace",
        "label": "struct GFarmTradingStorageV5.TradeInfo",
        "members": [
          {
            "astId": 12249,
            "contract": "contracts/contracts/GFarmTradingStorageV5.sol:GFarmTradingStorageV5",
            "label": "tokenId",
            "offset": 0,
            "slot": "0",
            "type": "t_uint256"
          },
          {
            "astId": 12251,
            "contract": "contracts/contracts/GFarmTradingStorageV5.sol:GFarmTradingStorageV5",
            "label": "tokenPriceDai",
            "offset": 0,
            "slot": "1",
            "type": "t_uint256"
          },
          {
            "astId": 12253,
            "contract": "contracts/contracts/GFarmTradingStorageV5.sol:GFarmTradingStorageV5",
            "label": "openInterestDai",
            "offset": 0,
            "slot": "2",
            "type": "t_uint256"
          },
          {
            "astId": 12255,
            "contract": "contracts/contracts/GFarmTradingStorageV5.sol:GFarmTradingStorageV5",
            "label": "tpLastUpdated",
            "offset": 0,
            "slot": "3",
            "type": "t_uint256"
          },
          {
            "astId": 12257,
            "contract": "contracts/contracts/GFarmTradingStorageV5.sol:GFarmTradingStorageV5",
            "label": "slLastUpdated",
            "offset": 0,
            "slot": "4",
            "type": "t_uint256"
          },
          {
            "astId": 12259,
            "contract": "contracts/contracts/GFarmTradingStorageV5.sol:GFarmTradingStorageV5",
            "label": "beingMarketClosed",
            "offset": 0,
            "slot": "5",
            "type": "t_bool"
          }
        ],
        "numberOfBytes": "192"
      },
      "t_struct(Trader)12226_storage": {
        "encoding": "inplace",
        "label": "struct GFarmTradingStorageV5.Trader",
        "members": [
          {
            "astId": 12221,
            "contract": "contracts/contracts/GFarmTradingStorageV5.sol:GFarmTradingStorageV5",
            "label": "leverageUnlocked",
            "offset": 0,
            "slot": "0",
            "type": "t_uint256"
          },
          {
            "astId": 12223,
            "contract": "contracts/contracts/GFarmTradingStorageV5.sol:GFarmTradingStorageV5",
            "label": "referral",
            "offset": 0,
            "slot": "1",
            "type": "t_address"
          },
          {
            "astId": 12225,
            "contract": "contracts/contracts/GFarmTradingStorageV5.sol:GFarmTradingStorageV5",
            "label": "referralRewardsTotal",
            "offset": 0,
            "slot": "2",
            "type": "t_uint256"
          }
        ],
        "numberOfBytes": "96"
      },
      "t_uint256": {
        "encoding": "inplace",
        "label": "uint256",
        "numberOfBytes": "32"
      }
    }
  }
}