{
  "address": "0x688e6c96e1b49829111A45fDE13ED9cD6793e0d6",
  "abi": [
    {
      "inputs": [],
      "stateMutability": "nonpayable",
      "type": "constructor"
    },
    {
      "anonymous": false,
      "inputs": [
        {
          "indexed": false,
          "internalType": "string",
          "name": "name",
          "type": "string"
        },
        {
          "indexed": false,
          "internalType": "address",
          "name": "a",
          "type": "address"
        }
      ],
      "name": "AddressUpdated",
      "type": "event"
    },
    {
      "anonymous": false,
      "inputs": [
        {
          "indexed": false,
          "internalType": "string",
          "name": "name",
          "type": "string"
        },
        {
          "indexed": false,
          "internalType": "uint256",
          "name": "value",
          "type": "uint256"
        }
      ],
      "name": "NumberUpdated",
      "type": "event"
    },
    {
      "anonymous": false,
      "inputs": [
        {
          "indexed": false,
          "internalType": "string",
          "name": "name",
          "type": "string"
        },
        {
          "indexed": false,
          "internalType": "uint256",
          "name": "pairIndex",
          "type": "uint256"
        },
        {
          "indexed": false,
          "internalType": "uint256",
          "name": "value",
          "type": "uint256"
        }
      ],
      "name": "NumberUpdatedPair",
      "type": "event"
    },
    {
      "anonymous": false,
      "inputs": [
        {
          "indexed": false,
          "internalType": "uint256[5]",
          "name": "",
          "type": "uint256[5]"
        }
      ],
      "name": "SpreadReductionsUpdated",
      "type": "event"
    },
    {
      "anonymous": false,
      "inputs": [
        {
          "indexed": false,
          "internalType": "address",
          "name": "a",
          "type": "address"
        }
      ],
      "name": "SupportedTokenAdded",
      "type": "event"
    },
    {
      "anonymous": false,
      "inputs": [
        {
          "indexed": false,
          "internalType": "address",
          "name": "a",
          "type": "address"
        }
      ],
      "name": "TradingContractAdded",
      "type": "event"
    },
    {
      "anonymous": false,
      "inputs": [
        {
          "indexed": false,
          "internalType": "address",
          "name": "a",
          "type": "address"
        }
      ],
      "name": "TradingContractRemoved",
      "type": "event"
    },
    {
      "inputs": [],
      "name": "MINTER_ROLE",
      "outputs": [
        {
          "internalType": "bytes32",
          "name": "",
          "type": "bytes32"
        }
      ],
      "stateMutability": "view",
      "type": "function"
    },
    {
      "inputs": [],
      "name": "PRECISION",
      "outputs": [
        {
          "internalType": "uint256",
          "name": "",
          "type": "uint256"
        }
      ],
      "stateMutability": "view",
      "type": "function"
    },
    {
      "inputs": [
        {
          "internalType": "address",
          "name": "_token",
          "type": "address"
        }
      ],
      "name": "addSupportedToken",
      "outputs": [],
      "stateMutability": "nonpayable",
      "type": "function"
    },
    {
      "inputs": [
        {
          "internalType": "address",
          "name": "_trading",
          "type": "address"
        }
      ],
      "name": "addTradingContract",
      "outputs": [],
      "stateMutability": "nonpayable",
      "type": "function"
    },
    {
      "inputs": [],
      "name": "callbacks",
      "outputs": [
        {
          "internalType": "contract PausableInterfaceV5",
          "name": "",
          "type": "address"
        }
      ],
      "stateMutability": "view",
      "type": "function"
    },
    {
      "inputs": [],
      "name": "claimFees",
      "outputs": [],
      "stateMutability": "nonpayable",
      "type": "function"
    },
    {
      "inputs": [],
      "name": "dai",
      "outputs": [
        {
          "internalType": "contract TokenInterfaceV5",
          "name": "",
          "type": "address"
        }
      ],
      "stateMutability": "view",
      "type": "function"
    },
    {
      "inputs": [],
      "name": "defaultLeverageUnlocked",
      "outputs": [
        {
          "internalType": "uint256",
          "name": "",
          "type": "uint256"
        }
      ],
      "stateMutability": "view",
      "type": "function"
    },
    {
      "inputs": [],
      "name": "dev",
      "outputs": [
        {
          "internalType": "address",
          "name": "",
          "type": "address"
        }
      ],
      "stateMutability": "view",
      "type": "function"
    },
    {
      "inputs": [],
      "name": "devFeesDai",
      "outputs": [
        {
          "internalType": "uint256",
          "name": "",
          "type": "uint256"
        }
      ],
      "stateMutability": "view",
      "type": "function"
    },
    {
      "inputs": [],
      "name": "devFeesToken",
      "outputs": [
        {
          "internalType": "uint256",
          "name": "",
          "type": "uint256"
        }
      ],
      "stateMutability": "view",
      "type": "function"
    },
    {
      "inputs": [
        {
          "internalType": "address",
          "name": "trader",
          "type": "address"
        },
        {
          "internalType": "uint256",
          "name": "pairIndex",
          "type": "uint256"
        }
      ],
      "name": "firstEmptyOpenLimitIndex",
      "outputs": [
        {
          "internalType": "uint256",
          "name": "index",
          "type": "uint256"
        }
      ],
      "stateMutability": "view",
      "type": "function"
    },
    {
      "inputs": [
        {
          "internalType": "address",
          "name": "trader",
          "type": "address"
        },
        {
          "internalType": "uint256",
          "name": "pairIndex",
          "type": "uint256"
        }
      ],
      "name": "firstEmptyTradeIndex",
      "outputs": [
        {
          "internalType": "uint256",
          "name": "index",
          "type": "uint256"
        }
      ],
      "stateMutability": "view",
      "type": "function"
    },
    {
      "inputs": [
        {
          "internalType": "address",
          "name": "_trader",
          "type": "address"
        }
      ],
      "name": "getLeverageUnlocked",
      "outputs": [
        {
          "internalType": "uint256",
          "name": "",
          "type": "uint256"
        }
      ],
      "stateMutability": "view",
      "type": "function"
    },
    {
      "inputs": [
        {
          "internalType": "address",
          "name": "_trader",
          "type": "address"
        },
        {
          "internalType": "uint256",
          "name": "_pairIndex",
          "type": "uint256"
        },
        {
          "internalType": "uint256",
          "name": "_index",
          "type": "uint256"
        }
      ],
      "name": "getOpenLimitOrder",
      "outputs": [
        {
          "components": [
            {
              "internalType": "address",
              "name": "trader",
              "type": "address"
            },
            {
              "internalType": "uint256",
              "name": "pairIndex",
              "type": "uint256"
            },
            {
              "internalType": "uint256",
              "name": "index",
              "type": "uint256"
            },
            {
              "internalType": "uint256",
              "name": "positionSize",
              "type": "uint256"
            },
            {
              "internalType": "uint256",
              "name": "spreadReductionP",
              "type": "uint256"
            },
            {
              "internalType": "bool",
              "name": "buy",
              "type": "bool"
            },
            {
              "internalType": "uint256",
              "name": "leverage",
              "type": "uint256"
            },
            {
              "internalType": "uint256",
              "name": "tp",
              "type": "uint256"
            },
            {
              "internalType": "uint256",
              "name": "sl",
              "type": "uint256"
            },
            {
              "internalType": "uint256",
              "name": "minPrice",
              "type": "uint256"
            },
            {
              "internalType": "uint256",
              "name": "maxPrice",
              "type": "uint256"
            },
            {
              "internalType": "uint256",
              "name": "block",
              "type": "uint256"
            },
            {
              "internalType": "uint256",
              "name": "tokenId",
              "type": "uint256"
            }
          ],
          "internalType": "struct GFarmTradingStorageV5.OpenLimitOrder",
          "name": "",
          "type": "tuple"
        }
      ],
      "stateMutability": "view",
      "type": "function"
    },
    {
      "inputs": [],
      "name": "getOpenLimitOrders",
      "outputs": [
        {
          "components": [
            {
              "internalType": "address",
              "name": "trader",
              "type": "address"
            },
            {
              "internalType": "uint256",
              "name": "pairIndex",
              "type": "uint256"
            },
            {
              "internalType": "uint256",
              "name": "index",
              "type": "uint256"
            },
            {
              "internalType": "uint256",
              "name": "positionSize",
              "type": "uint256"
            },
            {
              "internalType": "uint256",
              "name": "spreadReductionP",
              "type": "uint256"
            },
            {
              "internalType": "bool",
              "name": "buy",
              "type": "bool"
            },
            {
              "internalType": "uint256",
              "name": "leverage",
              "type": "uint256"
            },
            {
              "internalType": "uint256",
              "name": "tp",
              "type": "uint256"
            },
            {
              "internalType": "uint256",
              "name": "sl",
              "type": "uint256"
            },
            {
              "internalType": "uint256",
              "name": "minPrice",
              "type": "uint256"
            },
            {
              "internalType": "uint256",
              "name": "maxPrice",
              "type": "uint256"
            },
            {
              "internalType": "uint256",
              "name": "block",
              "type": "uint256"
            },
            {
              "internalType": "uint256",
              "name": "tokenId",
              "type": "uint256"
            }
          ],
          "internalType": "struct GFarmTradingStorageV5.OpenLimitOrder[]",
          "name": "",
          "type": "tuple[]"
        }
      ],
      "stateMutability": "view",
      "type": "function"
    },
    {
      "inputs": [
        {
          "internalType": "address",
          "name": "_trader",
          "type": "address"
        }
      ],
      "name": "getPendingOrderIds",
      "outputs": [
        {
          "internalType": "uint256[]",
          "name": "",
          "type": "uint256[]"
        }
      ],
      "stateMutability": "view",
      "type": "function"
    },
    {
      "inputs": [
        {
          "internalType": "address",
          "name": "_trader",
          "type": "address"
        }
      ],
      "name": "getReferral",
      "outputs": [
        {
          "internalType": "address",
          "name": "",
          "type": "address"
        }
      ],
      "stateMutability": "view",
      "type": "function"
    },
    {
      "inputs": [],
      "name": "getSpreadReductionsArray",
      "outputs": [
        {
          "internalType": "uint256[5]",
          "name": "",
          "type": "uint256[5]"
        }
      ],
      "stateMutability": "view",
      "type": "function"
    },
    {
      "inputs": [],
      "name": "getSupportedTokens",
      "outputs": [
        {
          "internalType": "address[]",
          "name": "",
          "type": "address[]"
        }
      ],
      "stateMutability": "view",
      "type": "function"
    },
    {
      "inputs": [],
      "name": "gov",
      "outputs": [
        {
          "internalType": "address",
          "name": "",
          "type": "address"
        }
      ],
      "stateMutability": "view",
      "type": "function"
    },
    {
      "inputs": [],
      "name": "govFeesDai",
      "outputs": [
        {
          "internalType": "uint256",
          "name": "",
          "type": "uint256"
        }
      ],
      "stateMutability": "view",
      "type": "function"
    },
    {
      "inputs": [],
      "name": "govFeesToken",
      "outputs": [
        {
          "internalType": "uint256",
          "name": "",
          "type": "uint256"
        }
      ],
      "stateMutability": "view",
      "type": "function"
    },
    {
      "inputs": [
        {
          "internalType": "uint256",
          "name": "_pairIndex",
          "type": "uint256"
        },
        {
          "internalType": "uint256",
          "name": "_leveragedPositionSize",
          "type": "uint256"
        },
        {
          "internalType": "bool",
          "name": "_dai",
          "type": "bool"
        },
        {
          "internalType": "bool",
          "name": "_fullFee",
          "type": "bool"
        }
      ],
      "name": "handleDevGovFees",
      "outputs": [
        {
          "internalType": "uint256",
          "name": "fee",
          "type": "uint256"
        }
      ],
      "stateMutability": "nonpayable",
      "type": "function"
    },
    {
      "inputs": [
        {
          "internalType": "address",
          "name": "_a",
          "type": "address"
        },
        {
          "internalType": "uint256",
          "name": "_amount",
          "type": "uint256"
        },
        {
          "internalType": "bool",
          "name": "_mint",
          "type": "bool"
        }
      ],
      "name": "handleTokens",
      "outputs": [],
      "stateMutability": "nonpayable",
      "type": "function"
    },
    {
      "inputs": [
        {
          "internalType": "address",
          "name": "trader",
          "type": "address"
        },
        {
          "internalType": "uint256",
          "name": "pairIndex",
          "type": "uint256"
        },
        {
          "internalType": "uint256",
          "name": "index",
          "type": "uint256"
        }
      ],
      "name": "hasOpenLimitOrder",
      "outputs": [
        {
          "internalType": "bool",
          "name": "",
          "type": "bool"
        }
      ],
      "stateMutability": "view",
      "type": "function"
    },
    {
      "inputs": [
        {
          "internalType": "uint256",
          "name": "_nftId",
          "type": "uint256"
        },
        {
          "internalType": "uint256",
          "name": "_amount",
          "type": "uint256"
        }
      ],
      "name": "increaseNftRewards",
      "outputs": [],
      "stateMutability": "nonpayable",
      "type": "function"
    },
    {
      "inputs": [
        {
          "internalType": "address",
          "name": "_referral",
          "type": "address"
        },
        {
          "internalType": "uint256",
          "name": "_amount",
          "type": "uint256"
        }
      ],
      "name": "increaseReferralRewards",
      "outputs": [],
      "stateMutability": "nonpayable",
      "type": "function"
    },
    {
      "inputs": [
        {
          "internalType": "address",
          "name": "",
          "type": "address"
        }
      ],
      "name": "isTradingContract",
      "outputs": [
        {
          "internalType": "bool",
          "name": "",
          "type": "bool"
        }
      ],
      "stateMutability": "view",
      "type": "function"
    },
    {
      "inputs": [],
      "name": "linkErc677",
      "outputs": [
        {
          "internalType": "contract TokenInterfaceV5",
          "name": "",
          "type": "address"
        }
      ],
      "stateMutability": "view",
      "type": "function"
    },
    {
      "inputs": [],
      "name": "maxGainP",
      "outputs": [
        {
          "internalType": "uint256",
          "name": "",
          "type": "uint256"
        }
      ],
      "stateMutability": "view",
      "type": "function"
    },
    {
      "inputs": [],
      "name": "maxPendingMarketOrders",
      "outputs": [
        {
          "internalType": "uint256",
          "name": "",
          "type": "uint256"
        }
      ],
      "stateMutability": "view",
      "type": "function"
    },
    {
      "inputs": [],
      "name": "maxSlP",
      "outputs": [
        {
          "internalType": "uint256",
          "name": "",
          "type": "uint256"
        }
      ],
      "stateMutability": "view",
      "type": "function"
    },
    {
      "inputs": [],
      "name": "maxTradesPerBlock",
      "outputs": [
        {
          "internalType": "uint256",
          "name": "",
          "type": "uint256"
        }
      ],
      "stateMutability": "view",
      "type": "function"
    },
    {
      "inputs": [],
      "name": "maxTradesPerPair",
      "outputs": [
        {
          "internalType": "uint256",
          "name": "",
          "type": "uint256"
        }
      ],
      "stateMutability": "view",
      "type": "function"
    },
    {
      "inputs": [
        {
          "internalType": "uint256",
          "name": "",
          "type": "uint256"
        }
      ],
      "name": "nftLastSuccess",
      "outputs": [
        {
          "internalType": "uint256",
          "name": "",
          "type": "uint256"
        }
      ],
      "stateMutability": "view",
      "type": "function"
    },
    {
      "inputs": [],
      "name": "nftRewards",
      "outputs": [
        {
          "internalType": "uint256",
          "name": "",
          "type": "uint256"
        }
      ],
      "stateMutability": "view",
      "type": "function"
    },
    {
      "inputs": [],
      "name": "nftSuccessTimelock",
      "outputs": [
        {
          "internalType": "uint256",
          "name": "",
          "type": "uint256"
        }
      ],
      "stateMutability": "view",
      "type": "function"
    },
    {
      "inputs": [
        {
          "internalType": "uint256",
          "name": "",
          "type": "uint256"
        },
        {
          "internalType": "uint256",
          "name": "",
          "type": "uint256"
        }
      ],
      "name": "openInterestDai",
      "outputs": [
        {
          "internalType": "uint256",
          "name": "",
          "type": "uint256"
        }
      ],
      "stateMutability": "view",
      "type": "function"
    },
    {
      "inputs": [
        {
          "internalType": "address",
          "name": "",
          "type": "address"
        },
        {
          "internalType": "uint256",
          "name": "",
          "type": "uint256"
        },
        {
          "internalType": "uint256",
          "name": "",
          "type": "uint256"
        }
      ],
      "name": "openLimitOrderIds",
      "outputs": [
        {
          "internalType": "uint256",
          "name": "",
          "type": "uint256"
        }
      ],
      "stateMutability": "view",
      "type": "function"
    },
    {
      "inputs": [
        {
          "internalType": "uint256",
          "name": "",
          "type": "uint256"
        }
      ],
      "name": "openLimitOrders",
      "outputs": [
        {
          "internalType": "address",
          "name": "trader",
          "type": "address"
        },
        {
          "internalType": "uint256",
          "name": "pairIndex",
          "type": "uint256"
        },
        {
          "internalType": "uint256",
          "name": "index",
          "type": "uint256"
        },
        {
          "internalType": "uint256",
          "name": "positionSize",
          "type": "uint256"
        },
        {
          "internalType": "uint256",
          "name": "spreadReductionP",
          "type": "uint256"
        },
        {
          "internalType": "bool",
          "name": "buy",
          "type": "bool"
        },
        {
          "internalType": "uint256",
          "name": "leverage",
          "type": "uint256"
        },
        {
          "internalType": "uint256",
          "name": "tp",
          "type": "uint256"
        },
        {
          "internalType": "uint256",
          "name": "sl",
          "type": "uint256"
        },
        {
          "internalType": "uint256",
          "name": "minPrice",
          "type": "uint256"
        },
        {
          "internalType": "uint256",
          "name": "maxPrice",
          "type": "uint256"
        },
        {
          "internalType": "uint256",
          "name": "block",
          "type": "uint256"
        },
        {
          "internalType": "uint256",
          "name": "tokenId",
          "type": "uint256"
        }
      ],
      "stateMutability": "view",
      "type": "function"
    },
    {
      "inputs": [
        {
          "internalType": "address",
          "name": "",
          "type": "address"
        },
        {
          "internalType": "uint256",
          "name": "",
          "type": "uint256"
        }
      ],
      "name": "openLimitOrdersCount",
      "outputs": [
        {
          "internalType": "uint256",
          "name": "",
          "type": "uint256"
        }
      ],
      "stateMutability": "view",
      "type": "function"
    },
    {
      "inputs": [
        {
          "internalType": "address",
          "name": "",
          "type": "address"
        },
        {
          "internalType": "uint256",
          "name": "",
          "type": "uint256"
        },
        {
          "internalType": "uint256",
          "name": "",
          "type": "uint256"
        }
      ],
      "name": "openTrades",
      "outputs": [
        {
          "internalType": "address",
          "name": "trader",
          "type": "address"
        },
        {
          "internalType": "uint256",
          "name": "pairIndex",
          "type": "uint256"
        },
        {
          "internalType": "uint256",
          "name": "index",
          "type": "uint256"
        },
        {
          "internalType": "uint256",
          "name": "positionSizeDai",
          "type": "uint256"
        },
        {
          "internalType": "uint256",
          "name": "openPrice",
          "type": "uint256"
        },
        {
          "internalType": "bool",
          "name": "buy",
          "type": "bool"
        },
        {
          "internalType": "uint256",
          "name": "leverage",
          "type": "uint256"
        },
        {
          "internalType": "uint256",
          "name": "tp",
          "type": "uint256"
        },
        {
          "internalType": "uint256",
          "name": "sl",
          "type": "uint256"
        }
      ],
      "stateMutability": "view",
      "type": "function"
    },
    {
      "inputs": [
        {
          "internalType": "address",
          "name": "",
          "type": "address"
        },
        {
          "internalType": "uint256",
          "name": "",
          "type": "uint256"
        }
      ],
      "name": "openTradesCount",
      "outputs": [
        {
          "internalType": "uint256",
          "name": "",
          "type": "uint256"
        }
      ],
      "stateMutability": "view",
      "type": "function"
    },
    {
      "inputs": [
        {
          "internalType": "address",
          "name": "",
          "type": "address"
        },
        {
          "internalType": "uint256",
          "name": "",
          "type": "uint256"
        },
        {
          "internalType": "uint256",
          "name": "",
          "type": "uint256"
        }
      ],
      "name": "openTradesInfo",
      "outputs": [
        {
          "internalType": "uint256",
          "name": "tokenId",
          "type": "uint256"
        },
        {
          "internalType": "uint256",
          "name": "openInterestDai",
          "type": "uint256"
        },
        {
          "internalType": "uint256",
          "name": "tpLastUpdated",
          "type": "uint256"
        },
        {
          "internalType": "uint256",
          "name": "slLastUpdated",
          "type": "uint256"
        },
        {
          "internalType": "bool",
          "name": "beingMarketClosed",
          "type": "bool"
        }
      ],
      "stateMutability": "view",
      "type": "function"
    },
    {
      "inputs": [
        {
          "internalType": "uint256",
          "name": "",
          "type": "uint256"
        },
        {
          "internalType": "uint256",
          "name": "",
          "type": "uint256"
        }
      ],
      "name": "pairTraders",
      "outputs": [
        {
          "internalType": "address",
          "name": "",
          "type": "address"
        }
      ],
      "stateMutability": "view",
      "type": "function"
    },
    {
      "inputs": [
        {
          "internalType": "uint256",
          "name": "_pairIndex",
          "type": "uint256"
        }
      ],
      "name": "pairTradersArray",
      "outputs": [
        {
          "internalType": "address[]",
          "name": "",
          "type": "address[]"
        }
      ],
      "stateMutability": "view",
      "type": "function"
    },
    {
      "inputs": [
        {
          "internalType": "address",
          "name": "",
          "type": "address"
        },
        {
          "internalType": "uint256",
          "name": "",
          "type": "uint256"
        }
      ],
      "name": "pairTradersId",
      "outputs": [
        {
          "internalType": "uint256",
          "name": "",
          "type": "uint256"
        }
      ],
      "stateMutability": "view",
      "type": "function"
    },
    {
      "inputs": [
        {
          "internalType": "address",
          "name": "",
          "type": "address"
        },
        {
          "internalType": "uint256",
          "name": "",
          "type": "uint256"
        }
      ],
      "name": "pendingMarketCloseCount",
      "outputs": [
        {
          "internalType": "uint256",
          "name": "",
          "type": "uint256"
        }
      ],
      "stateMutability": "view",
      "type": "function"
    },
    {
      "inputs": [
        {
          "internalType": "address",
          "name": "",
          "type": "address"
        },
        {
          "internalType": "uint256",
          "name": "",
          "type": "uint256"
        }
      ],
      "name": "pendingMarketOpenCount",
      "outputs": [
        {
          "internalType": "uint256",
          "name": "",
          "type": "uint256"
        }
      ],
      "stateMutability": "view",
      "type": "function"
    },
    {
      "inputs": [
        {
          "internalType": "address",
          "name": "",
          "type": "address"
        },
        {
          "internalType": "uint256",
          "name": "",
          "type": "uint256"
        }
      ],
      "name": "pendingOrderIds",
      "outputs": [
        {
          "internalType": "uint256",
          "name": "",
          "type": "uint256"
        }
      ],
      "stateMutability": "view",
      "type": "function"
    },
    {
      "inputs": [
        {
          "internalType": "address",
          "name": "_trader",
          "type": "address"
        }
      ],
      "name": "pendingOrderIdsCount",
      "outputs": [
        {
          "internalType": "uint256",
          "name": "",
          "type": "uint256"
        }
      ],
      "stateMutability": "view",
      "type": "function"
    },
    {
      "inputs": [],
      "name": "priceAggregator",
      "outputs": [
        {
          "internalType": "contract AggregatorInterfaceV5",
          "name": "",
          "type": "address"
        }
      ],
      "stateMutability": "view",
      "type": "function"
    },
    {
      "inputs": [
        {
          "internalType": "address",
          "name": "_trading",
          "type": "address"
        }
      ],
      "name": "removeTradingContract",
      "outputs": [],
      "stateMutability": "nonpayable",
      "type": "function"
    },
    {
      "inputs": [
        {
          "internalType": "uint256",
          "name": "",
          "type": "uint256"
        }
      ],
      "name": "reqID_pendingMarketOrder",
      "outputs": [
        {
          "components": [
            {
              "internalType": "address",
              "name": "trader",
              "type": "address"
            },
            {
              "internalType": "uint256",
              "name": "pairIndex",
              "type": "uint256"
            },
            {
              "internalType": "uint256",
              "name": "index",
              "type": "uint256"
            },
            {
              "internalType": "uint256",
              "name": "positionSizeDai",
              "type": "uint256"
            },
            {
              "internalType": "uint256",
              "name": "openPrice",
              "type": "uint256"
            },
            {
              "internalType": "bool",
              "name": "buy",
              "type": "bool"
            },
            {
              "internalType": "uint256",
              "name": "leverage",
              "type": "uint256"
            },
            {
              "internalType": "uint256",
              "name": "tp",
              "type": "uint256"
            },
            {
              "internalType": "uint256",
              "name": "sl",
              "type": "uint256"
            }
          ],
          "internalType": "struct GFarmTradingStorageV5.Trade",
          "name": "trade",
          "type": "tuple"
        },
        {
          "internalType": "uint256",
          "name": "block",
          "type": "uint256"
        },
        {
          "internalType": "uint256",
          "name": "wantedPrice",
          "type": "uint256"
        },
        {
          "internalType": "uint256",
          "name": "slippageP",
          "type": "uint256"
        },
        {
          "internalType": "uint256",
          "name": "spreadReductionP",
          "type": "uint256"
        },
        {
          "internalType": "uint256",
          "name": "tokenId",
          "type": "uint256"
        }
      ],
      "stateMutability": "view",
      "type": "function"
    },
    {
      "inputs": [
        {
          "internalType": "uint256",
          "name": "",
          "type": "uint256"
        }
      ],
      "name": "reqID_pendingNftOrder",
      "outputs": [
        {
          "internalType": "address",
          "name": "nftHolder",
          "type": "address"
        },
        {
          "internalType": "uint256",
          "name": "nftId",
          "type": "uint256"
        },
        {
          "internalType": "address",
          "name": "trader",
          "type": "address"
        },
        {
          "internalType": "uint256",
          "name": "pairIndex",
          "type": "uint256"
        },
        {
          "internalType": "uint256",
          "name": "index",
          "type": "uint256"
        },
        {
          "internalType": "enum GFarmTradingStorageV5.LimitOrder",
          "name": "orderType",
          "type": "uint8"
        }
      ],
      "stateMutability": "view",
      "type": "function"
    },
    {
      "inputs": [
        {
          "internalType": "address",
          "name": "_callbacks",
          "type": "address"
        }
      ],
      "name": "setCallbacks",
      "outputs": [],
      "stateMutability": "nonpayable",
      "type": "function"
    },
    {
      "inputs": [
        {
          "internalType": "uint256",
          "name": "_lev",
          "type": "uint256"
        }
      ],
      "name": "setDefaultLeverageUnlocked",
      "outputs": [],
      "stateMutability": "nonpayable",
      "type": "function"
    },
    {
      "inputs": [
        {
          "internalType": "address",
          "name": "_dev",
          "type": "address"
        }
      ],
      "name": "setDev",
      "outputs": [],
      "stateMutability": "nonpayable",
      "type": "function"
    },
    {
      "inputs": [
        {
          "internalType": "address",
          "name": "_gov",
          "type": "address"
        }
      ],
      "name": "setGov",
      "outputs": [],
      "stateMutability": "nonpayable",
      "type": "function"
    },
    {
      "inputs": [
        {
          "internalType": "address",
          "name": "_trader",
          "type": "address"
        },
        {
          "internalType": "uint256",
          "name": "_newLeverage",
          "type": "uint256"
        }
      ],
      "name": "setLeverageUnlocked",
      "outputs": [],
      "stateMutability": "nonpayable",
      "type": "function"
    },
    {
      "inputs": [
        {
          "internalType": "uint256",
          "name": "_max",
          "type": "uint256"
        }
      ],
      "name": "setMaxGainP",
      "outputs": [],
      "stateMutability": "nonpayable",
      "type": "function"
    },
    {
      "inputs": [
        {
          "internalType": "uint256",
          "name": "_pairIndex",
          "type": "uint256"
        },
        {
          "internalType": "uint256",
          "name": "_newMaxOpenInterest",
          "type": "uint256"
        }
      ],
      "name": "setMaxOpenInterestDai",
      "outputs": [],
      "stateMutability": "nonpayable",
      "type": "function"
    },
    {
      "inputs": [
        {
          "internalType": "uint256",
          "name": "_maxPendingMarketOrders",
          "type": "uint256"
        }
      ],
      "name": "setMaxPendingMarketOrders",
      "outputs": [],
      "stateMutability": "nonpayable",
      "type": "function"
    },
    {
      "inputs": [
        {
          "internalType": "uint256",
          "name": "_max",
          "type": "uint256"
        }
      ],
      "name": "setMaxSlP",
      "outputs": [],
      "stateMutability": "nonpayable",
      "type": "function"
    },
    {
      "inputs": [
        {
          "internalType": "uint256",
          "name": "_maxTradesPerBlock",
          "type": "uint256"
        }
      ],
      "name": "setMaxTradesPerBlock",
      "outputs": [],
      "stateMutability": "nonpayable",
      "type": "function"
    },
    {
      "inputs": [
        {
          "internalType": "uint256",
          "name": "_maxTradesPerPair",
          "type": "uint256"
        }
      ],
      "name": "setMaxTradesPerPair",
      "outputs": [],
      "stateMutability": "nonpayable",
      "type": "function"
    },
    {
      "inputs": [
        {
          "internalType": "uint256",
          "name": "_blocks",
          "type": "uint256"
        }
      ],
      "name": "setNftSuccessTimelock",
      "outputs": [],
      "stateMutability": "nonpayable",
      "type": "function"
    },
    {
      "inputs": [
        {
          "internalType": "address",
          "name": "_aggregator",
          "type": "address"
        }
      ],
      "name": "setPriceAggregator",
      "outputs": [],
      "stateMutability": "nonpayable",
      "type": "function"
    },
    {
      "inputs": [
        {
          "internalType": "uint256[5]",
          "name": "_r",
          "type": "uint256[5]"
        }
      ],
      "name": "setSpreadReductionsP",
      "outputs": [],
      "stateMutability": "nonpayable",
      "type": "function"
    },
    {
      "inputs": [
        {
          "internalType": "address",
          "name": "_tokenDaiRouter",
          "type": "address"
        }
      ],
      "name": "setTokenDaiRouter",
      "outputs": [],
      "stateMutability": "nonpayable",
      "type": "function"
    },
    {
      "inputs": [
        {
          "internalType": "address",
          "name": "_trading",
          "type": "address"
        }
      ],
      "name": "setTrading",
      "outputs": [],
      "stateMutability": "nonpayable",
      "type": "function"
    },
    {
      "inputs": [
        {
          "internalType": "address",
          "name": "_vault",
          "type": "address"
        }
      ],
      "name": "setVault",
      "outputs": [],
      "stateMutability": "nonpayable",
      "type": "function"
    },
    {
      "inputs": [
        {
          "internalType": "uint256",
          "name": "",
          "type": "uint256"
        }
      ],
      "name": "spreadReductionsP",
      "outputs": [
        {
          "internalType": "uint256",
          "name": "",
          "type": "uint256"
        }
      ],
      "stateMutability": "view",
      "type": "function"
    },
    {
      "inputs": [
        {
          "components": [
            {
              "internalType": "address",
              "name": "trader",
              "type": "address"
            },
            {
              "internalType": "uint256",
              "name": "pairIndex",
              "type": "uint256"
            },
            {
              "internalType": "uint256",
              "name": "index",
              "type": "uint256"
            },
            {
              "internalType": "uint256",
              "name": "positionSize",
              "type": "uint256"
            },
            {
              "internalType": "uint256",
              "name": "spreadReductionP",
              "type": "uint256"
            },
            {
              "internalType": "bool",
              "name": "buy",
              "type": "bool"
            },
            {
              "internalType": "uint256",
              "name": "leverage",
              "type": "uint256"
            },
            {
              "internalType": "uint256",
              "name": "tp",
              "type": "uint256"
            },
            {
              "internalType": "uint256",
              "name": "sl",
              "type": "uint256"
            },
            {
              "internalType": "uint256",
              "name": "minPrice",
              "type": "uint256"
            },
            {
              "internalType": "uint256",
              "name": "maxPrice",
              "type": "uint256"
            },
            {
              "internalType": "uint256",
              "name": "block",
              "type": "uint256"
            },
            {
              "internalType": "uint256",
              "name": "tokenId",
              "type": "uint256"
            }
          ],
          "internalType": "struct GFarmTradingStorageV5.OpenLimitOrder",
          "name": "o",
          "type": "tuple"
        }
      ],
      "name": "storeOpenLimitOrder",
      "outputs": [],
      "stateMutability": "nonpayable",
      "type": "function"
    },
    {
      "inputs": [
        {
          "components": [
            {
              "components": [
                {
                  "internalType": "address",
                  "name": "trader",
                  "type": "address"
                },
                {
                  "internalType": "uint256",
                  "name": "pairIndex",
                  "type": "uint256"
                },
                {
                  "internalType": "uint256",
                  "name": "index",
                  "type": "uint256"
                },
                {
                  "internalType": "uint256",
                  "name": "positionSizeDai",
                  "type": "uint256"
                },
                {
                  "internalType": "uint256",
                  "name": "openPrice",
                  "type": "uint256"
                },
                {
                  "internalType": "bool",
                  "name": "buy",
                  "type": "bool"
                },
                {
                  "internalType": "uint256",
                  "name": "leverage",
                  "type": "uint256"
                },
                {
                  "internalType": "uint256",
                  "name": "tp",
                  "type": "uint256"
                },
                {
                  "internalType": "uint256",
                  "name": "sl",
                  "type": "uint256"
                }
              ],
              "internalType": "struct GFarmTradingStorageV5.Trade",
              "name": "trade",
              "type": "tuple"
            },
            {
              "internalType": "uint256",
              "name": "block",
              "type": "uint256"
            },
            {
              "internalType": "uint256",
              "name": "wantedPrice",
              "type": "uint256"
            },
            {
              "internalType": "uint256",
              "name": "slippageP",
              "type": "uint256"
            },
            {
              "internalType": "uint256",
              "name": "spreadReductionP",
              "type": "uint256"
            },
            {
              "internalType": "uint256",
              "name": "tokenId",
              "type": "uint256"
            }
          ],
          "internalType": "struct GFarmTradingStorageV5.PendingMarketOrder",
          "name": "_order",
          "type": "tuple"
        },
        {
          "internalType": "uint256",
          "name": "_id",
          "type": "uint256"
        },
        {
          "internalType": "bool",
          "name": "_open",
          "type": "bool"
        }
      ],
      "name": "storePendingMarketOrder",
      "outputs": [],
      "stateMutability": "nonpayable",
      "type": "function"
    },
    {
      "inputs": [
        {
          "components": [
            {
              "internalType": "address",
              "name": "nftHolder",
              "type": "address"
            },
            {
              "internalType": "uint256",
              "name": "nftId",
              "type": "uint256"
            },
            {
              "internalType": "address",
              "name": "trader",
              "type": "address"
            },
            {
              "internalType": "uint256",
              "name": "pairIndex",
              "type": "uint256"
            },
            {
              "internalType": "uint256",
              "name": "index",
              "type": "uint256"
            },
            {
              "internalType": "enum GFarmTradingStorageV5.LimitOrder",
              "name": "orderType",
              "type": "uint8"
            }
          ],
          "internalType": "struct GFarmTradingStorageV5.PendingNftOrder",
          "name": "_nftOrder",
          "type": "tuple"
        },
        {
          "internalType": "uint256",
          "name": "_orderId",
          "type": "uint256"
        }
      ],
      "name": "storePendingNftOrder",
      "outputs": [],
      "stateMutability": "nonpayable",
      "type": "function"
    },
    {
      "inputs": [
        {
          "internalType": "address",
          "name": "_trader",
          "type": "address"
        },
        {
          "internalType": "address",
          "name": "_referral",
          "type": "address"
        }
      ],
      "name": "storeReferral",
      "outputs": [],
      "stateMutability": "nonpayable",
      "type": "function"
    },
    {
      "inputs": [
        {
          "components": [
            {
              "internalType": "address",
              "name": "trader",
              "type": "address"
            },
            {
              "internalType": "uint256",
              "name": "pairIndex",
              "type": "uint256"
            },
            {
              "internalType": "uint256",
              "name": "index",
              "type": "uint256"
            },
            {
              "internalType": "uint256",
              "name": "positionSizeDai",
              "type": "uint256"
            },
            {
              "internalType": "uint256",
              "name": "openPrice",
              "type": "uint256"
            },
            {
              "internalType": "bool",
              "name": "buy",
              "type": "bool"
            },
            {
              "internalType": "uint256",
              "name": "leverage",
              "type": "uint256"
            },
            {
              "internalType": "uint256",
              "name": "tp",
              "type": "uint256"
            },
            {
              "internalType": "uint256",
              "name": "sl",
              "type": "uint256"
            }
          ],
          "internalType": "struct GFarmTradingStorageV5.Trade",
          "name": "_trade",
          "type": "tuple"
        },
        {
          "components": [
            {
              "internalType": "uint256",
              "name": "tokenId",
              "type": "uint256"
            },
            {
              "internalType": "uint256",
              "name": "openInterestDai",
              "type": "uint256"
            },
            {
              "internalType": "uint256",
              "name": "tpLastUpdated",
              "type": "uint256"
            },
            {
              "internalType": "uint256",
              "name": "slLastUpdated",
              "type": "uint256"
            },
            {
              "internalType": "bool",
              "name": "beingMarketClosed",
              "type": "bool"
            }
          ],
          "internalType": "struct GFarmTradingStorageV5.TradeInfo",
          "name": "_tradeInfo",
          "type": "tuple"
        }
      ],
      "name": "storeTrade",
      "outputs": [],
      "stateMutability": "nonpayable",
      "type": "function"
    },
    {
      "inputs": [
        {
          "internalType": "uint256",
          "name": "",
          "type": "uint256"
        }
      ],
      "name": "supportedTokens",
      "outputs": [
        {
          "internalType": "address",
          "name": "",
          "type": "address"
        }
      ],
      "stateMutability": "view",
      "type": "function"
    },
    {
      "inputs": [],
      "name": "token",
      "outputs": [
        {
          "internalType": "contract TokenInterfaceV5",
          "name": "",
          "type": "address"
        }
      ],
      "stateMutability": "view",
      "type": "function"
    },
    {
      "inputs": [],
      "name": "tokenDaiRouter",
      "outputs": [
        {
          "internalType": "address",
          "name": "",
          "type": "address"
        }
      ],
      "stateMutability": "view",
      "type": "function"
    },
    {
      "inputs": [],
      "name": "tokensBurned",
      "outputs": [
        {
          "internalType": "uint256",
          "name": "",
          "type": "uint256"
        }
      ],
      "stateMutability": "view",
      "type": "function"
    },
    {
      "inputs": [],
      "name": "tokensMinted",
      "outputs": [
        {
          "internalType": "uint256",
          "name": "",
          "type": "uint256"
        }
      ],
      "stateMutability": "view",
      "type": "function"
    },
    {
      "inputs": [
        {
          "internalType": "address",
          "name": "",
          "type": "address"
        }
      ],
      "name": "traders",
      "outputs": [
        {
          "internalType": "uint256",
          "name": "leverageUnlocked",
          "type": "uint256"
        },
        {
          "internalType": "address",
          "name": "referral",
          "type": "address"
        },
        {
          "internalType": "uint256",
          "name": "referralRewardsTotal",
          "type": "uint256"
        }
      ],
      "stateMutability": "view",
      "type": "function"
    },
    {
      "inputs": [
        {
          "internalType": "uint256",
          "name": "",
          "type": "uint256"
        }
      ],
      "name": "tradesPerBlock",
      "outputs": [
        {
          "internalType": "uint256",
          "name": "",
          "type": "uint256"
        }
      ],
      "stateMutability": "view",
      "type": "function"
    },
    {
      "inputs": [],
      "name": "trading",
      "outputs": [
        {
          "internalType": "contract PausableInterfaceV5",
          "name": "",
          "type": "address"
        }
      ],
      "stateMutability": "view",
      "type": "function"
    },
    {
      "inputs": [
        {
          "internalType": "address",
          "name": "_from",
          "type": "address"
        },
        {
          "internalType": "address",
          "name": "_to",
          "type": "address"
        },
        {
          "internalType": "uint256",
          "name": "_amount",
          "type": "uint256"
        }
      ],
      "name": "transferDai",
      "outputs": [],
      "stateMutability": "nonpayable",
      "type": "function"
    },
    {
      "inputs": [
        {
          "internalType": "address",
          "name": "_from",
          "type": "address"
        },
        {
          "internalType": "uint256",
          "name": "_pairIndex",
          "type": "uint256"
        },
        {
          "internalType": "uint256",
          "name": "_leveragedPosDai",
          "type": "uint256"
        }
      ],
      "name": "transferLinkToAggregator",
      "outputs": [],
      "stateMutability": "nonpayable",
      "type": "function"
    },
    {
      "inputs": [
        {
          "internalType": "address",
          "name": "_trader",
          "type": "address"
        },
        {
          "internalType": "uint256",
          "name": "_pairIndex",
          "type": "uint256"
        },
        {
          "internalType": "uint256",
          "name": "_index",
          "type": "uint256"
        }
      ],
      "name": "unregisterOpenLimitOrder",
      "outputs": [],
      "stateMutability": "nonpayable",
      "type": "function"
    },
    {
      "inputs": [
        {
          "internalType": "uint256",
          "name": "_id",
          "type": "uint256"
        },
        {
          "internalType": "bool",
          "name": "_open",
          "type": "bool"
        }
      ],
      "name": "unregisterPendingMarketOrder",
      "outputs": [],
      "stateMutability": "nonpayable",
      "type": "function"
    },
    {
      "inputs": [
        {
          "internalType": "uint256",
          "name": "_order",
          "type": "uint256"
        }
      ],
      "name": "unregisterPendingNftOrder",
      "outputs": [],
      "stateMutability": "nonpayable",
      "type": "function"
    },
    {
      "inputs": [
        {
          "internalType": "address",
          "name": "trader",
          "type": "address"
        },
        {
          "internalType": "uint256",
          "name": "pairIndex",
          "type": "uint256"
        },
        {
          "internalType": "uint256",
          "name": "index",
          "type": "uint256"
        }
      ],
      "name": "unregisterTrade",
      "outputs": [],
      "stateMutability": "nonpayable",
      "type": "function"
    },
    {
      "inputs": [
        {
          "components": [
            {
              "internalType": "address",
              "name": "trader",
              "type": "address"
            },
            {
              "internalType": "uint256",
              "name": "pairIndex",
              "type": "uint256"
            },
            {
              "internalType": "uint256",
              "name": "index",
              "type": "uint256"
            },
            {
              "internalType": "uint256",
              "name": "positionSize",
              "type": "uint256"
            },
            {
              "internalType": "uint256",
              "name": "spreadReductionP",
              "type": "uint256"
            },
            {
              "internalType": "bool",
              "name": "buy",
              "type": "bool"
            },
            {
              "internalType": "uint256",
              "name": "leverage",
              "type": "uint256"
            },
            {
              "internalType": "uint256",
              "name": "tp",
              "type": "uint256"
            },
            {
              "internalType": "uint256",
              "name": "sl",
              "type": "uint256"
            },
            {
              "internalType": "uint256",
              "name": "minPrice",
              "type": "uint256"
            },
            {
              "internalType": "uint256",
              "name": "maxPrice",
              "type": "uint256"
            },
            {
              "internalType": "uint256",
              "name": "block",
              "type": "uint256"
            },
            {
              "internalType": "uint256",
              "name": "tokenId",
              "type": "uint256"
            }
          ],
          "internalType": "struct GFarmTradingStorageV5.OpenLimitOrder",
          "name": "_o",
          "type": "tuple"
        }
      ],
      "name": "updateOpenLimitOrder",
      "outputs": [],
      "stateMutability": "nonpayable",
      "type": "function"
    },
    {
      "inputs": [
        {
          "internalType": "address",
          "name": "_trader",
          "type": "address"
        },
        {
          "internalType": "uint256",
          "name": "_pairIndex",
          "type": "uint256"
        },
        {
          "internalType": "uint256",
          "name": "_index",
          "type": "uint256"
        },
        {
          "internalType": "uint256",
          "name": "_newSl",
          "type": "uint256"
        }
      ],
      "name": "updateSl",
      "outputs": [],
      "stateMutability": "nonpayable",
      "type": "function"
    },
    {
      "inputs": [
        {
          "internalType": "contract TokenInterfaceV5",
          "name": "_newToken",
          "type": "address"
        }
      ],
      "name": "updateToken",
      "outputs": [],
      "stateMutability": "nonpayable",
      "type": "function"
    },
    {
      "inputs": [
        {
          "internalType": "address",
          "name": "_trader",
          "type": "address"
        },
        {
          "internalType": "uint256",
          "name": "_pairIndex",
          "type": "uint256"
        },
        {
          "internalType": "uint256",
          "name": "_index",
          "type": "uint256"
        },
        {
          "internalType": "uint256",
          "name": "_newTp",
          "type": "uint256"
        }
      ],
      "name": "updateTp",
      "outputs": [],
      "stateMutability": "nonpayable",
      "type": "function"
    },
    {
      "inputs": [
        {
          "components": [
            {
              "internalType": "address",
              "name": "trader",
              "type": "address"
            },
            {
              "internalType": "uint256",
              "name": "pairIndex",
              "type": "uint256"
            },
            {
              "internalType": "uint256",
              "name": "index",
              "type": "uint256"
            },
            {
              "internalType": "uint256",
              "name": "positionSizeDai",
              "type": "uint256"
            },
            {
              "internalType": "uint256",
              "name": "openPrice",
              "type": "uint256"
            },
            {
              "internalType": "bool",
              "name": "buy",
              "type": "bool"
            },
            {
              "internalType": "uint256",
              "name": "leverage",
              "type": "uint256"
            },
            {
              "internalType": "uint256",
              "name": "tp",
              "type": "uint256"
            },
            {
              "internalType": "uint256",
              "name": "sl",
              "type": "uint256"
            }
          ],
          "internalType": "struct GFarmTradingStorageV5.Trade",
          "name": "_t",
          "type": "tuple"
        }
      ],
      "name": "updateTrade",
      "outputs": [],
      "stateMutability": "nonpayable",
      "type": "function"
    },
    {
      "inputs": [],
      "name": "vault",
      "outputs": [
        {
          "internalType": "address",
          "name": "",
          "type": "address"
        }
      ],
      "stateMutability": "view",
      "type": "function"
    }
  ],
  "transactionHash": "0x45deb3e1128f95e174be7c19a20814470541a5360a9dd9eec2c668a5cd975857",
  "args": [],
  "numDeployments": 1,
  "solcInputHash": "3de9b6e15483ad742bf6d6f2874273e4",
  "bytecode": "0x6080346200011957600380546001600160a01b03199081167320f16aad14b69fb7aeab936060bc71de2b202a311782556006919091556005600781905560088190556103846009556050600a556032600b819055600c55909160a081016001600160401b038111828210176200010357604052600f815260209060148282015260196040820152601e6060820152602360808201529060005b838110620000ec57731879449ecac0661ff450723f96498c109062e0dd8573d7d1dcba2c678ee7e049bd55176354e7c5bbdcca8160125416176012556013541617601355604051614ac790816200011f8239f35b825160ff16600d8201559181019160010162000098565b634e487b7160e01b600052604160045260246000fd5b600080fdfe608080604052600436101561001357600080fd5b60009060e08235811c918262b1278314613b8257508163099fa93414613b1557816312d43a5114613aec57816313b36ff614613a7c57816318407fe014613a5e5781631c8636b414613a1b578163201d8bdb1461394d57816321f7a30b1461387f57816328b1f887146137bb57816328daca211461377a578163292c1617146137525781633078fff51461372b578163321495921461365c5781633b0f0f2f1461361c5781633dae10a0146135ef57816343b8fab5146135735781634415b3691461353057816344d44f5a146135005781634daf04b1146134785781635070e837146133f157816352e5398f146133c75781635378143e1461323057816356a6796f146131b15781635a912551146131935781635ad9f993146131755781635b621e32146130fe5781635c76ac9e146130505781635fbfe8cc14612fe25781636690a80614612e6e5781636817031b14612def57816368ca199d14612db65781636d69fcaf14612cf85781636d81d98114612cb95781636de9f32b14612c9b5781636e70e7b614612b535781637395d79e14612a97578163796d82d914612a795781637ad3def2146129225781637fdb96f31461287b5781638049fde71461285d578163817fa1a4146126ed5781638a0bd702146126145781638bbb644c146125f65781638bf7f5f9146125805781638c8ff1d51461251057816390d112b91461246957816391cca3db1461244057816392a88fa2146123ec57816396a1f4221461204557816397e7995a1461200257816399794d3514611f745781639c8912f114611f315781639d1a107314611e07578163a354418114611d60578163a3a80ffe14611cbc578163a553906c14611c3b578163aa3b7d7714611c11578163aaf5eb6814611bf1578163b4b0f56714611b3f578163b66e6b0514611a75578163b767608a146119cc578163b7682d5414611989578163b8878a2c1461189b578163bcc9f1d314611845578163c122fea614611827578163c6255626146117dd578163cab9458014611725578163cfad57a2146116a8578163cfbacc14146114ca578163d294f093146112da578163d3b5fe7014611021578163d3c7c2c714610fa4578163d477f05f14610f27578163d539139314610efe578163dc2123ff14610e89578163dcdf339a14610e65578163df69347014610da4578163e212991a14610d33578163e378b36714610ca4578163e3cbe3a714610c59578163e7873b5814610c3b578163ea5c3c3314610c1d578163ec44acf214610bf4578163ecf56a1f14610b79578163eda00d5414610b3b578163ee92a4ff14610b1d578163f013d27814610a48578163f2c13bdf14610a1f578163f3aa71811461076557508063f4b9fa7514610736578063f65d9dbe14610718578063f7b3c6fd146106df578063f823e2ae146105ad578063f8d24b481461058f578063fbfa77cf14610566578063fc0c546a1461053d578063fdb594131461051f578063fe0fc8d6146104945763fece4eac1461046357600080fd5b34610491578060031936011261049157602060405173779877a7b0d9e8603169ddbd7836e478b46247898152f35b80fd5b5034610491576020366003190112610491576104ae613ba7565b6012546001600160a01b0391908216330361051b5716801561051757608081600080516020614a7b8339815191529260018060a01b031960025416176002556040519060408252600960408301526863616c6c6261636b7360b81b60608301526020820152a180f35b5080fd5b8280fd5b50346104915780600319360112610491576020601654604051908152f35b50346104915780600319360112610491576003546040516001600160a01b039091168152602090f35b50346104915780600319360112610491576004546040516001600160a01b039091168152602090f35b50346104915780600319360112610491576020600c54604051908152f35b503461049157602080600319360112610517576105c8613ba7565b6012549091906001600160a01b0390811633036106db5781816003541693604460405180948193632474521560e21b8352600080516020614a9b833981519152600484015216968760248301525afa9081156106d05784916106a3575b501561067257811561051b57818352602d81526040808420805460ff19166001179055519182527fb692fa98cbec9bd705572b4c7e0927e3f7698e9fe526dcef6f40f3d4d4980ca391a180f35b6064906040519062461bcd60e51b82526004820152600a6024820152692727aa2fa6a4a72a22a960b11b6044820152fd5b6106c39150823d84116106c9575b6106bb8183613d28565b810190613f03565b38610625565b503d6106b1565b6040513d86823e3d90fd5b8380fd5b5034610491576020366003190112610491576020906040906001600160a01b03610707613ba7565b168152602583522054604051908152f35b50346104915780600319360112610491576020600654604051908152f35b50346104915780600319360112610491576020604051730d9080e677505d29be4da1ddd855c6b523f1d38d8152f35b905034610517573660031901610200811261051b576101c013610517576040519061078f82613cd6565b61079836613dd7565b8252602090818301906101243582526040840161014435815260608501926101643584526080860161018435815260a08701906101a43582526101c435956101e435948515158603610a1a57338b52602d895260ff60408c2054168061099e575b1561099a578951516001600160a01b039081168c5260258a5260408c20805491999190600160401b82101561098657826108438361085e936001600d9b9a99989796018155613eeb565b90919082549060031b600019811b9283911b16911916179055565b8c5260238a5260408c20956101008c518b8151169a8b60018060a01b03198b5416178a558d82015160018b0155604082015160028b0155606082015160038b0155608082015160048b01556108bc60a0830151151560058c01613f1b565b60c082015160068b015581015160078a01550151600888015551600987015551600a86015551600b85015551600c8401555191015543600960408820015560001461092b575082515116835260268152806040842092510151835252604081206109268154613f2c565b905580f35b845260278252604084208284510151855282526040842061094c8154613f2c565b9055825151168352601e81526040832081835101518452815260408084209251015183525260046040822001600160ff1982541617905580f35b634e487b7160e01b8e52604160045260248efd5b8a80fd5b50600354604051632474521560e21b8152600080516020614a9b8339815191526004820152336024820152908a90829060449082906001600160a01b03165afa908115610a0f578c916109f2575b506107f9565b610a0991508a3d8c116106c9576106bb8183613d28565b386109ec565b6040513d8e823e3d90fd5b600080fd5b82346104915780600319360112610491576005546040516001600160a01b039091168152602090f35b82346104915760a0366003190112610491573660a411610491576012546001600160a01b03163303610491576004358015159081610b11575b5080610b04575b80610af7575b80610aea575b15610491576004815b60058110610ad557827fdaae5e047a75b6f38ad4e279cdefe910fc35d5a99a91b8303bd948c0a999372a60a06040518160048237a180f35b6001906020833593019281600d015501610a9d565b5060643560843511610a94565b5060443560643511610a8e565b5060243560443511610a88565b90506024351182610a81565b82346104915780600319360112610491576020601454604051908152f35b8234610491576040602091610b4f36613c6b565b6001600160a01b039092168352848052838320908352845282822090825283522054604051908152f35b823461049157602036600319011261049157601254600435906001600160a01b0316330361051757801561051757608081600080516020614a3b83398151915292600855604051906040825260166040830152756d617850656e64696e674d61726b65744f726465727360501b60608301526020820152a180f35b82346104915780600319360112610491576001546040516001600160a01b039091168152602090f35b82346104915780600319360112610491576020601554604051908152f35b82346104915780600319360112610491576020601854604051908152f35b823461049157610c6836613bd3565b91908152602860205260408120908154831015610491576020610c8b8484613eeb565b905460405160039290921b1c6001600160a01b03168152f35b823461049157610cb336613bd3565b6012546001600160a01b0316330361051b578160a0917f957cd67ea49f3e1ee953cdd23a1ba1f11d973e842411220d5c24ef0e24e1c956938552602a602052806002604087200155604051916060835260126060840152716d61784f70656e496e74657265737444616960701b608084015260208301526040820152a180f35b823461049157602036600319011261049157601254600435906001600160a01b0316330361051757608081600080516020614a3b83398151915292600c55604051906040825260126040830152716e66745375636365737354696d656c6f636b60701b60608301526020820152a180f35b82346104915761012036600319011261049157610dc036613dd7565b338252602d60205260ff60408320541680610de7575b1561051757610de4906147da565b80f35b50600354604051632474521560e21b8152600080516020614a9b833981519152600482015233602482015290602090829060449082906001600160a01b03165afa908115610e5a578391610e3c575b50610dd6565b610e54915060203d81116106c9576106bb8183613d28565b83610e36565b6040513d85823e3d90fd5b8234610491576020610e7f610e7936613c6b565b91614927565b6040519015158152f35b823461049157602036600319011261049157601254600435906001600160a01b0316330361051757801561051757608081600080516020614a3b833981519152926006556040519060408252601060408301526f36b0bc2a3930b232b9a832b92830b4b960811b60608301526020820152a180f35b82346104915780600319360112610491576020604051600080516020614a9b8339815191528152f35b823461049157602036600319011261049157610f41613ba7565b6012546001600160a01b0391908216330361051b5716801561051757608081600080516020614a7b8339815191529260018060a01b03196013541617601355604051906040825260036040830152623232bb60e91b60608301526020820152a180f35b8234610491578060031936011261049157604051601b8054808352908352602080830193600080516020614a5b83398151915292915b82821061100157610ffd85610ff181890382613d28565b60405191829182613c27565b0390f35b83546001600160a01b031686529485019460019384019390910190610fda565b905034610517576101a0366003190112610517576040519061104282613cf1565b61104a613ba7565b8252602435602083015260443560408301526064356060830152608435608083015260a4358015158103610a1a5760a083015260c43560c083015260e435818301526101043561010083015261012435610120830152610144356101408301526101643561016083015261018435610180830152338352602d60205260ff60408420541680611266575b1561051b57815160208301516110f2916001600160a01b03166148e0565b604083015243610160830152602254600160401b8110156112525780600161111d9201602255613bf9565b91909161123e57825182546001600160a01b0319166001600160a01b03919091161782556020830151600183015560408301516002830155606083015160038301556080830151600483015560a083015161117d90151560058401613f1b565b60c08301516006830155820151600782015561010082015160088201556101208201516009820155610140820151600a820155610160820151600b820155600c610180830151910155602254600019810190811161122a5781516001600160a01b0390811684526020808052604080862082860180518852908352818720828701518852835281872094909455935190911684526021815282842091518452528120805461092690613f2c565b634e487b7160e01b83526011600452602483fd5b634e487b7160e01b84526004849052602484fd5b634e487b7160e01b84526041600452602484fd5b50600354604051632474521560e21b8152600080516020614a9b833981519152600482015233602482015290602090829060449082906001600160a01b03165afa9081156106d05784916112bb575b506110d4565b6112d4915060203d6020116106c9576106bb8183613d28565b386112b5565b82346104915780600319360112610491576012546001600160a01b0390811633036105175781816003541682601354169060145490803b156106db5761133c84929183926040519485809481936340c10f1960e01b998a845260048401614833565b03925af1908115610e5a5783916114b6575b505082600354169083601254169160165490803b156114b2576113839385809460405196879586948593845260048401614833565b03925af180156114a757611493575b50506113ae6113a66014546016549061441c565b60195461441c565b6019558060125416906017549060405191826113db63a9059cbb60e01b9283835260209660048401614833565b038484730d9080e677505d29be4da1ddd855c6b523f1d38d928189855af19283156114885761142a94869461146b575b5060135416866015549360405196879586948593845260048401614833565b03925af18015610e5a5761144d575b828060145580601655806015558060175580f35b8161146392903d106106c9576106bb8183613d28565b508180611439565b61148190853d87116106c9576106bb8183613d28565b508761140b565b6040513d88823e3d90fd5b61149c90613cc3565b610517578183611392565b6040513d84823e3d90fd5b8480fd5b6114bf90613cc3565b61051757818561134e565b823461049157608036600319011261049157602435906114e8613c18565b9060643591821592831503610a1a57338252602093602d855260ff60408420541680611637575b1561051b578254604051630710f2ff60e51b8152600480359082015291908690839060249082906001600160a01b03165afa9182156106d0578492611608575b508181029181830414901517156115f2576402540be4006064910404926115e8575b156115c5576115828260175461441c565b6017556115918260155461441c565b6015555b8160011b91808304600214901517156115b15750604051908152f35b634e487b7160e01b81526011600452602490fd5b6115d18260165461441c565b6016556115e08260145461441c565b601455611595565b9160011c91611571565b634e487b7160e01b600052601160045260246000fd5b9091508581813d8311611630575b6116208183613d28565b81010312610a1a5751908661154f565b503d611616565b50600354604051632474521560e21b8152600080516020614a9b8339815191526004820152336024820152908690829060449082906001600160a01b03165afa9081156106d057849161168b575b5061150f565b6116a29150863d88116106c9576106bb8183613d28565b86611685565b8234610491576020366003190112610491576116c2613ba7565b601254906001600160a01b039081831633036106db571690811561051b5781600080516020614a7b8339815191529260809260018060a01b031916176012556040519060408252600360408301526233b7bb60e91b60608301526020820152a180f35b8234610491576040366003190112610491576024358015158103610a1a57338252602d60205260ff6040832054168061176a575b1561051757610de4906004356141c9565b50600354604051632474521560e21b8152600080516020614a9b833981519152600482015233602482015290602090829060449082906001600160a01b03165afa908115610e5a5783916117bf575b50611759565b6117d7915060203d81116106c9576106bb8183613d28565b836117b9565b823461049157602036600319011261049157600435601b5481101561051757601b600052600080516020614a5b83398151915201546040516001600160a01b039091168152602090f35b82346104915780600319360112610491576020600954604051908152f35b82346104915760403660031901126104915761185f613ba7565b6001600160a01b031681526025602052604081208054602435929083101561049157602061188d8484613eeb565b90546040519160031b1c8152f35b8234610491576118aa36613c6b565b91836101806040516118bb81613cf1565b82815282602098818a8401528160408401528160608401528160808401528160a08401528160c0840152820152826101008201528261012082015282610140820152826101608201520152611911838383614927565b1561195f576001600160a01b031683528380526040808420918452908452808320918352925220546101a0906119509061194a90613bf9565b5061499b565b61195d6040518092613d4b565bf35b60405162461bcd60e51b8152600481018690526002602482015261323360f01b6044820152606490fd5b8234610491576040366003190112610491576020906040906001600160a01b036119b1613ba7565b16815260278352818120602435825283522054604051908152f35b8234610491576101a036600319011261049157338152602d60205260ff60408220541680611a02575b1561049157610de4614429565b50600354604051632474521560e21b8152600080516020614a9b833981519152600482015233602482015290602090829060449082906001600160a01b03165afa9081156114a7578291611a57575b506119f5565b611a6f915060203d81116106c9576106bb8183613d28565b82611a51565b9050346105175760203660031901126105175760406101c0926004358152602360205220611aa281613e64565b906009810154600a820154600b83015491600d600c850154940154946040519660018060a01b0382511688526020820151602089015260408201516040890152606082015160608901526080820151608089015260a0820151151560a089015260c082015160c0890152808201519088015261010080910151908701526101208601526101408501526101608401526101808301526101a0820152f35b823461049157611b4e36613c6b565b90338452602d60205260ff60408520541680611b73575b156106db57610de4926144df565b50600354604051632474521560e21b8152600080516020614a9b833981519152600482015233602482015290602090829060449082906001600160a01b03165afa908115611be6578591611bc8575b50611b65565b611be0915060203d81116106c9576106bb8183613d28565b85611bc2565b6040513d87823e3d90fd5b823461049157806003193601126104915760206040516402540be4008152f35b82346104915760203660031901126104915760406020916004358152602c83522054604051908152f35b823461049157602036600319011261049157611c55613ba7565b6012546001600160a01b0391908216330361051b5716801561051757608081600080516020614a7b8339815191529260018060a01b031960015416176001556040519060408252600760408301526674726164696e6760c81b60608301526020820152a180f35b9050346105175790610120916040611cd336613c6b565b9060018060a09794971b038096168352601d60205283832090835260205282822090825260205220918254169160018101549160028201546003830154600484015460ff600586015416916006860154936008600788015497015497604051998a5260208a0152604089015260608801526080870152151560a086015260c0850152830152610100820152f35b823461049157611d6f36613c95565b91338552602d60205260ff60408620541680611d94575b156114b257610de49361471a565b50600354604051632474521560e21b8152600080516020614a9b833981519152600482015233602482015290602090829060449082906001600160a01b03165afa908115611488578691611de9575b50611d86565b611e01915060203d81116106c9576106bb8183613d28565b86611de3565b823461049157604036600319011261049157611e21613ba7565b611e29613bbd565b90338352602d60205260ff60408420541680611ebe575b1561051b576001600160a01b03908116808452601c602052604084209290818316801515919082611eaf575b82611ea4575b505015611e9557600190925b0180546001600160a01b0319169190921617905580f35b50600181818401541692611e7e565b141590508580611e72565b60018601548516159250611e6c565b50600354604051632474521560e21b8152600080516020614a9b833981519152600482015233602482015290602090829060449082906001600160a01b03165afa9081156106d0578491611f13575b50611e40565b611f2b915060203d81116106c9576106bb8183613d28565b84611f0d565b8234610491576040366003190112610491576020906040906001600160a01b03611f59613ba7565b16815260268352818120602435825283522054604051908152f35b823461049157602036600319011261049157600435815260246020526040812060018060a01b03808254169160018101549160028201541660038201549060ff60056004850154940154169360405195865260208601526040850152606084015260808301526004811015611fee5760c0925060a0820152f35b634e487b7160e01b83526021600452602483fd5b8234610491576040366003190112610491576020906040906001600160a01b0361202a613ba7565b16815260218352818120602435825283522054604051908152f35b905034610517576101c03660031901126105175761206236613dd7565b9060a03661012319011261051b576040519060a082016001600160401b03811183821017612362576040526101243582526101443560208301526101643560408301526101843560608301526101a4358015158103610a1a576080830152338452602d60205260ff60408520541680612378575b156106db57825160208401516120f4916001600160a01b0316614870565b604084810191825284516001600160a01b039081168752601d602090815282882081880180518a5290825283892085518a52909152918720865181546001600160a01b031916921691821781559151600183015591516002820155606085015160038201556080850151600482015560a08501519192909161217b90151560058401613f1b565b60c08501516006830155840151600782015560086101008501519101558352601f6020526040832060208301518452602052604083206121bb8154613f2c565b9055438352602b602052604083206121d38154613f2c565b905581516001600160a01b03168352601f602090815260408085208285015186529091528320546001146122c3575b610843610de49284608084015260018060a01b038151168552601e602052604085206020820151865260205260408520604082015186526020526122766040862084518155600460806020870151968760018501556040810151600285015560608101516003850155015115159101613f1b565b602081015160a090910151156122ba5760ff60005b1690600052602a6020526122b46040600020936122a88386613be9565b90549060031b1c61441c565b92613be9565b60ff600161228b565b602082810180518552602880835260408087205486516001600160a01b0390811689526029865282892085518a52865282892091909155925187529252908420835181549216939091600160401b81101561236257610de4946123328261084395600161235a95018155613eeb565b9080546001600160a01b0360039390931b83811b80199092169390941690931b909216179055565b925050612202565b634e487b7160e01b600052604160045260246000fd5b50600354604051632474521560e21b8152600080516020614a9b833981519152600482015233602482015290602090829060449082906001600160a01b03165afa908115611be65785916123cd575b506120d6565b6123e6915060203d6020116106c9576106bb8183613d28565b386123c7565b8234610491576020366003190112610491576060906001600160a01b039060409082612416613ba7565b168152601c6020522060028154926001830154169101549060405192835260208301526040820152f35b82346104915780600319360112610491576013546040516001600160a01b039091168152602090f35b82346104915761247836613c6b565b90338452602d60205260ff6040852054168061249d575b156106db57610de492613f48565b50600354604051632474521560e21b8152600080516020614a9b833981519152600482015233602482015290602090829060449082906001600160a01b03165afa908115611be65785916124f2575b5061248f565b61250a915060203d81116106c9576106bb8183613d28565b856124ec565b823461049157604060a09161252436613c6b565b91600180871b03168352601e60205283832090835260205282822090825260205220805490600181015490600281015460ff60046003840154930154169260405194855260208501526040840152606083015215156080820152f35b823461049157602036600319011261049157601254600435906001600160a01b0316330361051757801561051757608081600080516020614a3b83398151915292600755604051906040825260116040830152706d6178547261646573506572426c6f636b60781b60608301526020820152a180f35b82346104915780600319360112610491576020600b54604051908152f35b8234610491578060031936011261049157602254906001600160401b0382116126d957906040519060209161264e838360051b0182613d28565b81815282810191826022865284862086915b8383106126b257505050506040519280840191818552518092526040840192945b82811061268e5784840385f35b909192826101a0826126a36001948a51613d4b565b01960191019492919094612681565b600d876001926126c6859b9a98999b61499b565b8152019201920191909694939596612660565b634e487b7160e01b81526041600452602490fd5b9050346105175736600319019081126105175760c0136104915760405161271381613cd6565b61271b613ba7565b815260243560208083019182526001600160a01b039290916044358481168103610a1a5760408301908152606083019060643582526080840192608435845260a4359660048810156127e75760a08601978852338952602d875260ff60408a205416806127eb575b156127e757602460059760c4358b52528060408a209651169160018060a01b0319928388541617875551600187015560028601925116908254161790555160038301555160048201550190516004811015611fee5760ff8019835416911617905580f35b8880fd5b50604487826003541660405192838092632474521560e21b8252600080516020614a9b83398151915260048301523360248301525afa908115612852578a91612835575b50612783565b61284c9150883d8a116106c9576106bb8183613d28565b3861282f565b6040513d8c823e3d90fd5b82346104915780600319360112610491576020600854604051908152f35b82346104915761288a36613c95565b91338552602d60205260ff604086205416806128af575b156114b257610de49361477a565b50600354604051632474521560e21b8152600080516020614a9b833981519152600482015233602482015290602090829060449082906001600160a01b03165afa908115611488578691612904575b506128a1565b61291c915060203d81116106c9576106bb8183613d28565b866128fe565b823461049157602080600319360112610517576004356001600160a01b03818116918290036106db57806012541633036106db57806001541660405184816004816358c3de9360e11b958682525afa9283156114885785918794612a5a575b5083612a10575b505050156129de57801561051b57600080516020614a7b833981519152918160809260018060a01b03196003541617600355604051916040835260056040840152643a37b5b2b760d91b6060840152820152a180f35b60405162461bcd60e51b815260048101839052600a6024820152691393d517d4105554d15160b21b6044820152606490fd5b90919250600254169160046040518094819382525afa9081156106d0578491612a3d575b50848381612988565b612a549150833d85116106c9576106bb8183613d28565b84612a34565b612a72919450823d84116106c9576106bb8183613d28565b9287612981565b82346104915780600319360112610491576020600754604051908152f35b823461049157612aa636613bd3565b338352602d60205260ff60408420541680612ae0575b1561051b57612ada918352602c602052436040842055601a5461441c565b601a5580f35b50600354604051632474521560e21b8152600080516020614a9b833981519152600482015233602482015290602090829060449082906001600160a01b03165afa9081156106d0578491612b35575b50612abc565b612b4d915060203d81116106c9576106bb8183613d28565b84612b2f565b823461049157606036600319011261049157612b6d613ba7565b612b75613bbd565b9060443590338452602092602d845260ff60408620541680612c2a575b156114b25783916001600160a01b0381163003612c0c575060405163a9059cbb60e01b81529283918291612bc99160048401614833565b038186730d9080e677505d29be4da1ddd855c6b523f1d38d5af18015610e5a57612bf257505080f35b81612c0892903d106106c9576106bb8183613d28565b5080f35b612bc960405194859384936323b872dd60e01b85526004850161484e565b50600354604051632474521560e21b8152600080516020614a9b8339815191526004820152336024820152908590829060449082906001600160a01b03165afa908115611488578691612c7e575b50612b92565b612c959150853d87116106c9576106bb8183613d28565b86612c78565b82346104915780600319360112610491576020601954604051908152f35b82346104915760203660031901126104915760209060ff906040906001600160a01b03612ce4613ba7565b168152602d84522054166040519015158152f35b823461049157602036600319011261049157612d12613ba7565b6012546001600160a01b0391908216330361051b5716801561051757601b54600160401b811015612362576001810180601b55811015612da057601b600052600080516020614a5b8339815191520180546001600160a01b031916821790556040519081527fd1be2e90bd3d24839d9dd94ad871068e1f9688b02fa43f2a62c9975dfa9de2d790602090a180f35b634e487b7160e01b600052603260045260246000fd5b8234610491576020366003190112610491576020906040906001600160a01b03612dde613ba7565b168152601c83522054604051908152f35b823461049157602036600319011261049157612e09613ba7565b6012546001600160a01b0391908216330361051b5716801561051757608081600080516020614a7b8339815191529260018060a01b03196004541617600455604051906040825260056040830152641d985d5b1d60da1b60608301526020820152a180f35b823461049157612e7d36613c6b565b9190338452602092602d845260ff60408620541680612f71575b156114b257845460405163b9e0336f60e01b8152600481019390935260248301919091526001600160a01b03168382604481845afa928315611be65784928694612f40575b50612efb60405194859384936323b872dd60e01b85526004850161484e565b03818673779877a7b0d9e8603169ddbd7836e478b46247895af18015610e5a57612f23578280f35b81612f3992903d106106c9576106bb8183613d28565b5081808280f35b8381949295503d8311612f6a575b612f588183613d28565b81010312610a1a578391519286612edc565b503d612f4e565b50600354604051632474521560e21b8152600080516020614a9b8339815191526004820152336024820152908590829060449082906001600160a01b03165afa908115611488578691612fc5575b50612e97565b612fdc9150853d87116106c9576106bb8183613d28565b86612fbf565b8234610491576020806003193601126105175760043582526028815260408220916040518092808554928381520194835280832092905b82821061303057610ffd85610ff181890382613d28565b83546001600160a01b031686529485019460019384019390910190613019565b823461049157602080600319360112610517576001600160a01b03613073613ba7565b168252602581526040822060405192838383549182815201908193835284832090835b8181106130ea57505050846130ac910385613d28565b60405193838594850191818652518092526040850193925b8281106130d357505050500390f35b8351855286955093810193928101926001016130c4565b825484529286019260019283019201613096565b823461049157602036600319011261049157613118613ba7565b6012546001600160a01b0391908216330361051b57168015610517576020817ff9cf924d7d98e6e0a27ec523cd7214b0bbdfaba197018b33b41a702f5238190e928452602d82526040842060ff198154169055604051908152a180f35b82346104915780600319360112610491576020601a54604051908152f35b82346104915780600319360112610491576020600a54604051908152f35b823461049157806003193601126104915760a06040516131d081613d0d565b36903760405190600d81835b6005821061321a5783856131ef81613d0d565b6040519190825b600583106132035760a084f35b6001908251815260208091019201920191906131f6565b60016020819285548152019301910190916131dc565b82346104915760603660031901126104915761324a613ba7565b8160243591613257613c18565b338352602d60205260ff60408420541680613354575b1561051b57156132e5576003546001600160a01b0316803b1561051b578383916132ae93836040518096819582946340c10f1960e01b845260048401614833565b03925af180156114a7576132d1575b50506132cb9060195461441c565b60195580f35b6132da90613cc3565b6105175781836132bd565b6003546001600160a01b03169190823b156105175761331d92849183604051809681958294632770a7eb60e21b845260048401614833565b03925af18015610e5a5761333f575b506133399060185461441c565b60185580f35b9161334d6133399293613cc3565b919061332c565b50600354604051632474521560e21b8152600080516020614a9b833981519152600482015233602482015290602090829060449082906001600160a01b03165afa9081156106d05784916133a9575b5061326d565b6133c1915060203d81116106c9576106bb8183613d28565b866133a3565b82346104915760203660031901126104915760406020916004358152602b83522054604051908152f35b82346104915760203660031901126104915761340b613ba7565b6012546001600160a01b0391908216330361051b5716801561051757608081600080516020614a7b8339815191529260018060a01b03198554161784556040519060408252600f60408301526e383934b1b2a0b3b3b932b3b0ba37b960891b60608301526020820152a180f35b823461049157602036600319011261049157613492613ba7565b6012546001600160a01b0391908216330361051b5716801561051757608081600080516020614a7b8339815191529260018060a01b031960055416176005556040519060408252600e60408301526d3a37b5b2b72230b4a937baba32b960911b60608301526020820152a180f35b823461049157604036600319011261049157602061352861351f613ba7565b602435906148e0565b604051908152f35b8234610491576040366003190112610491576020906040906001600160a01b03613558613ba7565b16815260298352818120602435825283522054604051908152f35b823461049157602036600319011261049157601254600435906001600160a01b0316330361051757801561051757608081600080516020614a3b83398151915292600b5560405190604082526017604083015276191959985d5b1d13195d995c9859d9555b9b1bd8dad959604a1b60608301526020820152a180f35b823461049157602036600319011261049157600435600581101561051757602090600d0154604051908152f35b8234610491576020366003190112610491576020906001600160a01b039060019060409083613649613ba7565b168152601c855220015416604051908152f35b9050346105175760203660031901126105175760043560225481101561051b57600d60208460226101a09652209102019060018060a01b038254169160018101549160028201549060038301549060048401549060ff600586015416906006860154600787015492600888015494600989015496600a8a015498600c600b8c01549b01549b60206040519e8f908152015260408d015260608c015260808b0152151560a08a015260c0890152870152610100860152610120850152610140840152610160830152610180820152f35b8234610491578060031936011261049157546040516001600160a01b039091168152602090f35b8234610491576040366003190112610491576020613528613771613ba7565b60243590614870565b82346104915761378936613bd3565b91908152602a602052604081209060038310156104915760206137ac8484613be9565b90549060031b1c604051908152f35b8234610491576040366003190112610491576137d5613ba7565b338252602d60205260ff6040832054168061380c575b15610517576001600160a01b03168152601c60205260408120602435905580f35b50600354604051632474521560e21b8152600080516020614a9b833981519152600482015233602482015290602090829060449082906001600160a01b03165afa908115610e5a578391613861575b506137eb565b613879915060203d81116106c9576106bb8183613d28565b8361385b565b823461049157604036600319011261049157613899613ba7565b338252602d60205260ff604083205416806138da575b15610517576001600160a01b03168152601c602052604081206002018054610926906024359061441c565b50600354604051632474521560e21b8152600080516020614a9b833981519152600482015233602482015290602090829060449082906001600160a01b03165afa908115610e5a57839161392f575b506138af565b613947915060203d81116106c9576106bb8183613d28565b83613929565b82346104915760208060031936011261051757338252602d815260ff604083205416806139aa575b156105175760249060043583525280600560408220828155826001820155826002820155826003820155826004820155015580f35b50600354604051632474521560e21b8152600080516020614a9b8339815191526004820152336024820152908290829060449082906001600160a01b03165afa908115610e5a5783916139fe575b50613975565b613a159150823d84116106c9576106bb8183613d28565b836139f8565b8234610491576040366003190112610491576020906040906001600160a01b03613a43613ba7565b168152601f8352818120602435825283522054604051908152f35b82346104915780600319360112610491576020601754604051908152f35b823461049157602036600319011261049157601254600435906001600160a01b031633036105175761012c811061051757608081600080516020614a3b833981519152926009556040519060408252600860408301526706d61784761696e560c41b60608301526020820152a180f35b82346104915780600319360112610491576012546040516001600160a01b039091168152602090f35b823461049157602036600319011261049157601254600435906001600160a01b03163303610517576032811061051757608081600080516020614a3b83398151915292600a556040519060408252600660408301526506d6178536c560d41b60608301526020820152a180f35b8390346105175781600319360112610517576002546001600160a01b03168152602090f35b600435906001600160a01b0382168203610a1a57565b602435906001600160a01b0382168203610a1a57565b6040906003190112610a1a576004359060243590565b6003821015612da0570190600090565b602254811015612da0576022600052600d602060002091020190600090565b604435908115158203610a1a57565b6020908160408183019282815285518094520193019160005b828110613c4e575050505090565b83516001600160a01b031685529381019392810192600101613c40565b6060906003190112610a1a576004356001600160a01b0381168103610a1a57906024359060443590565b6080906003190112610a1a576004356001600160a01b0381168103610a1a5790602435906044359060643590565b6001600160401b03811161236257604052565b60c081019081106001600160401b0382111761236257604052565b6101a081019081106001600160401b0382111761236257604052565b60a081019081106001600160401b0382111761236257604052565b601f909101601f19168101906001600160401b0382119082101761236257604052565b60018060a01b0381511682526020810151602083015260408101516040830152606081015160608301526080810151608083015260a0810151151560a083015260c081015160c083015260e081015160e0830152610100808201519083015261012080820151908301526101408082015190830152610160808201519083015261018080910151910152565b9061012080926003190112610a1a576040519182016001600160401b0381118382101761236257604052816004356001600160a01b0381168103610a1a578152602435602082015260443560408201526064356060820152608435608082015260a4358015158103610a1a5760a082015260c43560c082015260e43560e082015261010061010435910152565b60405190919061012081016001600160401b0381118282101761236257604090815283546001600160a01b03168252600184015460208301526002840154908201526003830154606082015260048301546080820152600583015460ff16151560a0820152600683015460c0820152600783015460e0820152600890920154610100830152565b8054821015612da05760005260206000200190600090565b90816020910312610a1a57518015158103610a1a5790565b9060ff801983541691151516179055565b60001981146115f25760010190565b80156115f2576000190190565b9160018060a01b03809316600092818452602091601d83526040958686208387528452868620858752845286862090828752601e8552878720848852855287872086885285528787206006830154156141be576005600160ff920154930154166000146141b55760ff875b1691848852602a865288882092613fca8185613be9565b949054600395861b1c9283039283116141a15791610843613fee928b969594613be9565b838352601f86528883208584528652600189842054146140ba575b50600490602b96848452601d8752898420868552875289842081855287528360088b8220828155826001820155826002820155828582015582868201558260058201558260068201558260078201550155848452601e875289842086855287528984209084528652828981209181835581600184015581600284015582015501558452601f825284842090845281528383206140a58154613f3b565b905543835252206140b68154613f2c565b9055565b90928094959692526029865287872085885286528787205460288752888820908154906000199182810190811161418d57846140f961410a9286613eeb565b905490891b1c166123328386613eeb565b836141158285613eeb565b905490881b1c168a52602989528a8a20888b5289528a8a205585895260298852898920878a528852888a812055815480156141795792602b98979695928a959260049501916141648383613eeb565b9091825491871b1b1916905555965090614009565b634e487b7160e01b8a52603160045260248afd5b634e487b7160e01b8b52601160045260248bfd5b634e487b7160e01b8a52601160045260248afd5b60ff6001613fb3565b505050505050505050565b6000908082526023906020918083526040948585209386519260c0840184811060018060401b0382111761440857885261420286613e64565b978885526009918288015484870152600a938489015483880152600b95868a01546060890152600c97888b01546080820152600d809b015460a082015260018060a01b03809d51168c5260258352848c20908c5b82548110156143f7578b61426a8285613eeb565b919054600392831b1c14614287575061428290613f2c565b614256565b9c9d9e8f9193949780999a9b9c9d96979860001461439a5750825151169052602685528d858882209251015190528452858d206142c48154613f3b565b90555b8154600019919082810190811161438657906108438d6142ea6142f69487613eeb565b9054911b1c9185613eeb565b8154801561437257948d9a999793948b9996958d8b999495868b99978a9801926143208484613eeb565b81939154921b1b1916905555845252812099818b558160018c01558160028c01558a01558160048a01558160058a01558160068a01558160078a01558160088a01558801558601558401558201550155565b634e487b7160e01b8e52603160045260248efd5b634e487b7160e01b8f52601160045260248ffd5b91909283600494825151168352602789528383208983510151845289528383206143c48154613f3b565b9055815151168252601e88528282208151890151835288528282209051830151825287522001805460ff191690556142c7565b505050505050505050505050505050565b634e487b7160e01b88526041600452602488fd5b919082018092116115f257565b6004356001600160a01b03811690818103610a1a5761445390602435918291604435938491614927565b156144da5760009283526020805260408320908352602052604082209082526020526144826040822054613bf9565b5090606435600383015560a43590811515820361049157506144a79060058301613f1b565b60c435600682015560e435600782015561010435600882015561012435600982015561014435600a820155600b43910155565b505050565b906144eb838284614927565b156144da576001600160a01b039182166000818152602080805260408083208584528252808320878452825280832054602254919793969294936000199390928481019081116147065761453e90613bf9565b5061454883613bf9565b9190916146f257808203614658575b505061456282613bf9565b5054168752848052878720600161457883613bf9565b50015488528552878720600261458d83613bf9565b5001548852855287872055828652838052868620858752845286862090865283528486812055602254801561464457016145c681613bf9565b61463057600c818780935582600182015582600282015582600382015582600482015582600582015582600682015582600782015582600882015582600982015582600a82015582600b820155015560225583526021815283832091835252206140b68154613f3b565b634e487b7160e01b86526004869052602486fd5b634e487b7160e01b86526031600452602486fd5b600c81848293541660018060a01b0319855416178455600181015460018501556002810154600285015560038101546003850155600481015460048501556146aa60ff60058301541660058601613f1b565b60068101546006850155600781015460078501556008810154600885015560098101546009850155600a810154600a850155600b810154600b85015501549101553880614557565b634e487b7160e01b8a5260048a905260248afd5b634e487b7160e01b89526011600452602489fd5b6001600160a01b03166000818152601d6020908152604080832085845282528083208684528252808320938352601e8252808320948352938152838220948252939093529120600682015490929190156144da5760080155600343910155565b6001600160a01b03166000818152601d6020908152604080832085845282528083208684528252808320938352601e8252808320948352938152838220948252939093529120600682015490929190156144da5760070155600243910155565b604060018060a01b038251166000908152601d602052818120602084015182526020528181208284015182526020522060068101918254156144da5760c091606082015160038201556004608083015191015501519055565b6001600160a01b039091168152602081019190915260400190565b6001600160a01b03918216815291166020820152604081019190915260600190565b600680546000949390928590815b85811061488e575b505050505050565b6001600160a01b0382168352601d6020908152604080852086865282528085208386529091528320850154156148cc576148c790613f2c565b61487e565b959650505050505090388080808080614886565b600654600093929091845b8381106148f9575b50505050565b614904818484614927565b156149175761491290613f2c565b6148eb565b93945050505090388080806148f3565b919091602254156149935760018060a01b0380911661496360406000838152602080528181208782526020528181208682526020522054613bf9565b5091825416149283614985575b508261497b57505090565b6002015414919050565b600182015414925038614970565b505050600090565b906040516149a881613cf1565b82546001600160a01b0316815260018301546020820152600283015460408201526003830154606082015260048301546080820152600583015460ff16151560a0820152600683015460c0820152600783015460e082015260088301546101008201526009830154610120820152600a830154610140820152600b830154610160820152600c9092015461018083015256fe8cf3e35f6221b16e1670a3413180c9484bf5aa71787905909fa82a6a2662e9ab3ad8aa4f87544323a9d1e5dd902f40c356527a7955687113db5f9a85ad579dc1943e9d45a11aaae5d87503e3bc248665d9807856e5cf2bdb4a988bee444227819f2df0fed2c77648de5860a4cc508cd0818c85b8b8a1ab4ceeef8d981c8956a6a164736f6c6343000811000a",
  "libraries": {},
  "devdoc": {
    "kind": "dev",
    "methods": {},
    "version": 1
  },
  "userdoc": {
    "kind": "user",
    "methods": {},
    "version": 1
  },
  "storageLayout": {
    "storage": [
      {
        "astId": 525,
        "contract": "contracts/contracts/GFarmTradingStorageV5.sol:GFarmTradingStorageV5",
        "label": "priceAggregator",
        "offset": 0,
        "slot": "0",
        "type": "t_contract(AggregatorInterfaceV5)6347"
      },
      {
        "astId": 528,
        "contract": "contracts/contracts/GFarmTradingStorageV5.sol:GFarmTradingStorageV5",
        "label": "trading",
        "offset": 0,
        "slot": "1",
        "type": "t_contract(PausableInterfaceV5)7389"
      },
      {
        "astId": 531,
        "contract": "contracts/contracts/GFarmTradingStorageV5.sol:GFarmTradingStorageV5",
        "label": "callbacks",
        "offset": 0,
        "slot": "2",
        "type": "t_contract(PausableInterfaceV5)7389"
      },
      {
        "astId": 537,
        "contract": "contracts/contracts/GFarmTradingStorageV5.sol:GFarmTradingStorageV5",
        "label": "token",
        "offset": 0,
        "slot": "3",
        "type": "t_contract(TokenInterfaceV5)8240"
      },
      {
        "astId": 539,
        "contract": "contracts/contracts/GFarmTradingStorageV5.sol:GFarmTradingStorageV5",
        "label": "vault",
        "offset": 0,
        "slot": "4",
        "type": "t_address"
      },
      {
        "astId": 541,
        "contract": "contracts/contracts/GFarmTradingStorageV5.sol:GFarmTradingStorageV5",
        "label": "tokenDaiRouter",
        "offset": 0,
        "slot": "5",
        "type": "t_address"
      },
      {
        "astId": 544,
        "contract": "contracts/contracts/GFarmTradingStorageV5.sol:GFarmTradingStorageV5",
        "label": "maxTradesPerPair",
        "offset": 0,
        "slot": "6",
        "type": "t_uint256"
      },
      {
        "astId": 547,
        "contract": "contracts/contracts/GFarmTradingStorageV5.sol:GFarmTradingStorageV5",
        "label": "maxTradesPerBlock",
        "offset": 0,
        "slot": "7",
        "type": "t_uint256"
      },
      {
        "astId": 550,
        "contract": "contracts/contracts/GFarmTradingStorageV5.sol:GFarmTradingStorageV5",
        "label": "maxPendingMarketOrders",
        "offset": 0,
        "slot": "8",
        "type": "t_uint256"
      },
      {
        "astId": 553,
        "contract": "contracts/contracts/GFarmTradingStorageV5.sol:GFarmTradingStorageV5",
        "label": "maxGainP",
        "offset": 0,
        "slot": "9",
        "type": "t_uint256"
      },
      {
        "astId": 556,
        "contract": "contracts/contracts/GFarmTradingStorageV5.sol:GFarmTradingStorageV5",
        "label": "maxSlP",
        "offset": 0,
        "slot": "10",
        "type": "t_uint256"
      },
      {
        "astId": 559,
        "contract": "contracts/contracts/GFarmTradingStorageV5.sol:GFarmTradingStorageV5",
        "label": "defaultLeverageUnlocked",
        "offset": 0,
        "slot": "11",
        "type": "t_uint256"
      },
      {
        "astId": 562,
        "contract": "contracts/contracts/GFarmTradingStorageV5.sol:GFarmTradingStorageV5",
        "label": "nftSuccessTimelock",
        "offset": 0,
        "slot": "12",
        "type": "t_uint256"
      },
      {
        "astId": 572,
        "contract": "contracts/contracts/GFarmTradingStorageV5.sol:GFarmTradingStorageV5",
        "label": "spreadReductionsP",
        "offset": 0,
        "slot": "13",
        "type": "t_array(t_uint256)5_storage"
      },
      {
        "astId": 575,
        "contract": "contracts/contracts/GFarmTradingStorageV5.sol:GFarmTradingStorageV5",
        "label": "gov",
        "offset": 0,
        "slot": "18",
        "type": "t_address"
      },
      {
        "astId": 578,
        "contract": "contracts/contracts/GFarmTradingStorageV5.sol:GFarmTradingStorageV5",
        "label": "dev",
        "offset": 0,
        "slot": "19",
        "type": "t_address"
      },
      {
        "astId": 580,
        "contract": "contracts/contracts/GFarmTradingStorageV5.sol:GFarmTradingStorageV5",
        "label": "devFeesToken",
        "offset": 0,
        "slot": "20",
        "type": "t_uint256"
      },
      {
        "astId": 582,
        "contract": "contracts/contracts/GFarmTradingStorageV5.sol:GFarmTradingStorageV5",
        "label": "devFeesDai",
        "offset": 0,
        "slot": "21",
        "type": "t_uint256"
      },
      {
        "astId": 584,
        "contract": "contracts/contracts/GFarmTradingStorageV5.sol:GFarmTradingStorageV5",
        "label": "govFeesToken",
        "offset": 0,
        "slot": "22",
        "type": "t_uint256"
      },
      {
        "astId": 586,
        "contract": "contracts/contracts/GFarmTradingStorageV5.sol:GFarmTradingStorageV5",
        "label": "govFeesDai",
        "offset": 0,
        "slot": "23",
        "type": "t_uint256"
      },
      {
        "astId": 588,
        "contract": "contracts/contracts/GFarmTradingStorageV5.sol:GFarmTradingStorageV5",
        "label": "tokensBurned",
        "offset": 0,
        "slot": "24",
        "type": "t_uint256"
      },
      {
        "astId": 590,
        "contract": "contracts/contracts/GFarmTradingStorageV5.sol:GFarmTradingStorageV5",
        "label": "tokensMinted",
        "offset": 0,
        "slot": "25",
        "type": "t_uint256"
      },
      {
        "astId": 592,
        "contract": "contracts/contracts/GFarmTradingStorageV5.sol:GFarmTradingStorageV5",
        "label": "nftRewards",
        "offset": 0,
        "slot": "26",
        "type": "t_uint256"
      },
      {
        "astId": 692,
        "contract": "contracts/contracts/GFarmTradingStorageV5.sol:GFarmTradingStorageV5",
        "label": "supportedTokens",
        "offset": 0,
        "slot": "27",
        "type": "t_array(t_address)dyn_storage"
      },
      {
        "astId": 697,
        "contract": "contracts/contracts/GFarmTradingStorageV5.sol:GFarmTradingStorageV5",
        "label": "traders",
        "offset": 0,
        "slot": "28",
        "type": "t_mapping(t_address,t_struct(Trader)604_storage)"
      },
      {
        "astId": 706,
        "contract": "contracts/contracts/GFarmTradingStorageV5.sol:GFarmTradingStorageV5",
        "label": "openTrades",
        "offset": 0,
        "slot": "29",
        "type": "t_mapping(t_address,t_mapping(t_uint256,t_mapping(t_uint256,t_struct(Trade)623_storage)))"
      },
      {
        "astId": 715,
        "contract": "contracts/contracts/GFarmTradingStorageV5.sol:GFarmTradingStorageV5",
        "label": "openTradesInfo",
        "offset": 0,
        "slot": "30",
        "type": "t_mapping(t_address,t_mapping(t_uint256,t_mapping(t_uint256,t_struct(TradeInfo)634_storage)))"
      },
      {
        "astId": 721,
        "contract": "contracts/contracts/GFarmTradingStorageV5.sol:GFarmTradingStorageV5",
        "label": "openTradesCount",
        "offset": 0,
        "slot": "31",
        "type": "t_mapping(t_address,t_mapping(t_uint256,t_uint256))"
      },
      {
        "astId": 729,
        "contract": "contracts/contracts/GFarmTradingStorageV5.sol:GFarmTradingStorageV5",
        "label": "openLimitOrderIds",
        "offset": 0,
        "slot": "32",
        "type": "t_mapping(t_address,t_mapping(t_uint256,t_mapping(t_uint256,t_uint256)))"
      },
      {
        "astId": 735,
        "contract": "contracts/contracts/GFarmTradingStorageV5.sol:GFarmTradingStorageV5",
        "label": "openLimitOrdersCount",
        "offset": 0,
        "slot": "33",
        "type": "t_mapping(t_address,t_mapping(t_uint256,t_uint256))"
      },
      {
        "astId": 739,
        "contract": "contracts/contracts/GFarmTradingStorageV5.sol:GFarmTradingStorageV5",
        "label": "openLimitOrders",
        "offset": 0,
        "slot": "34",
        "type": "t_array(t_struct(OpenLimitOrder)661_storage)dyn_storage"
      },
      {
        "astId": 744,
        "contract": "contracts/contracts/GFarmTradingStorageV5.sol:GFarmTradingStorageV5",
        "label": "reqID_pendingMarketOrder",
        "offset": 0,
        "slot": "35",
        "type": "t_mapping(t_uint256,t_struct(PendingMarketOrder)675_storage)"
      },
      {
        "astId": 749,
        "contract": "contracts/contracts/GFarmTradingStorageV5.sol:GFarmTradingStorageV5",
        "label": "reqID_pendingNftOrder",
        "offset": 0,
        "slot": "36",
        "type": "t_mapping(t_uint256,t_struct(PendingNftOrder)689_storage)"
      },
      {
        "astId": 754,
        "contract": "contracts/contracts/GFarmTradingStorageV5.sol:GFarmTradingStorageV5",
        "label": "pendingOrderIds",
        "offset": 0,
        "slot": "37",
        "type": "t_mapping(t_address,t_array(t_uint256)dyn_storage)"
      },
      {
        "astId": 760,
        "contract": "contracts/contracts/GFarmTradingStorageV5.sol:GFarmTradingStorageV5",
        "label": "pendingMarketOpenCount",
        "offset": 0,
        "slot": "38",
        "type": "t_mapping(t_address,t_mapping(t_uint256,t_uint256))"
      },
      {
        "astId": 766,
        "contract": "contracts/contracts/GFarmTradingStorageV5.sol:GFarmTradingStorageV5",
        "label": "pendingMarketCloseCount",
        "offset": 0,
        "slot": "39",
        "type": "t_mapping(t_address,t_mapping(t_uint256,t_uint256))"
      },
      {
        "astId": 771,
        "contract": "contracts/contracts/GFarmTradingStorageV5.sol:GFarmTradingStorageV5",
        "label": "pairTraders",
        "offset": 0,
        "slot": "40",
        "type": "t_mapping(t_uint256,t_array(t_address)dyn_storage)"
      },
      {
        "astId": 777,
        "contract": "contracts/contracts/GFarmTradingStorageV5.sol:GFarmTradingStorageV5",
        "label": "pairTradersId",
        "offset": 0,
        "slot": "41",
        "type": "t_mapping(t_address,t_mapping(t_uint256,t_uint256))"
      },
      {
        "astId": 783,
        "contract": "contracts/contracts/GFarmTradingStorageV5.sol:GFarmTradingStorageV5",
        "label": "openInterestDai",
        "offset": 0,
        "slot": "42",
        "type": "t_mapping(t_uint256,t_array(t_uint256)3_storage)"
      },
      {
        "astId": 787,
        "contract": "contracts/contracts/GFarmTradingStorageV5.sol:GFarmTradingStorageV5",
        "label": "tradesPerBlock",
        "offset": 0,
        "slot": "43",
        "type": "t_mapping(t_uint256,t_uint256)"
      },
      {
        "astId": 791,
        "contract": "contracts/contracts/GFarmTradingStorageV5.sol:GFarmTradingStorageV5",
        "label": "nftLastSuccess",
        "offset": 0,
        "slot": "44",
        "type": "t_mapping(t_uint256,t_uint256)"
      },
      {
        "astId": 795,
        "contract": "contracts/contracts/GFarmTradingStorageV5.sol:GFarmTradingStorageV5",
        "label": "isTradingContract",
        "offset": 0,
        "slot": "45",
        "type": "t_mapping(t_address,t_bool)"
      }
    ],
    "types": {
      "t_address": {
        "encoding": "inplace",
        "label": "address",
        "numberOfBytes": "20"
      },
      "t_array(t_address)dyn_storage": {
        "base": "t_address",
        "encoding": "dynamic_array",
        "label": "address[]",
        "numberOfBytes": "32"
      },
      "t_array(t_struct(OpenLimitOrder)661_storage)dyn_storage": {
        "base": "t_struct(OpenLimitOrder)661_storage",
        "encoding": "dynamic_array",
        "label": "struct GFarmTradingStorageV5.OpenLimitOrder[]",
        "numberOfBytes": "32"
      },
      "t_array(t_uint256)3_storage": {
        "base": "t_uint256",
        "encoding": "inplace",
        "label": "uint256[3]",
        "numberOfBytes": "96"
      },
      "t_array(t_uint256)5_storage": {
        "base": "t_uint256",
        "encoding": "inplace",
        "label": "uint256[5]",
        "numberOfBytes": "160"
      },
      "t_array(t_uint256)dyn_storage": {
        "base": "t_uint256",
        "encoding": "dynamic_array",
        "label": "uint256[]",
        "numberOfBytes": "32"
      },
      "t_bool": {
        "encoding": "inplace",
        "label": "bool",
        "numberOfBytes": "1"
      },
      "t_contract(AggregatorInterfaceV5)6347": {
        "encoding": "inplace",
        "label": "contract AggregatorInterfaceV5",
        "numberOfBytes": "20"
      },
      "t_contract(PausableInterfaceV5)7389": {
        "encoding": "inplace",
        "label": "contract PausableInterfaceV5",
        "numberOfBytes": "20"
      },
      "t_contract(TokenInterfaceV5)8240": {
        "encoding": "inplace",
        "label": "contract TokenInterfaceV5",
        "numberOfBytes": "20"
      },
      "t_enum(LimitOrder)597": {
        "encoding": "inplace",
        "label": "enum GFarmTradingStorageV5.LimitOrder",
        "numberOfBytes": "1"
      },
      "t_mapping(t_address,t_array(t_uint256)dyn_storage)": {
        "encoding": "mapping",
        "key": "t_address",
        "label": "mapping(address => uint256[])",
        "numberOfBytes": "32",
        "value": "t_array(t_uint256)dyn_storage"
      },
      "t_mapping(t_address,t_bool)": {
        "encoding": "mapping",
        "key": "t_address",
        "label": "mapping(address => bool)",
        "numberOfBytes": "32",
        "value": "t_bool"
      },
      "t_mapping(t_address,t_mapping(t_uint256,t_mapping(t_uint256,t_struct(Trade)623_storage)))": {
        "encoding": "mapping",
        "key": "t_address",
        "label": "mapping(address => mapping(uint256 => mapping(uint256 => struct GFarmTradingStorageV5.Trade)))",
        "numberOfBytes": "32",
        "value": "t_mapping(t_uint256,t_mapping(t_uint256,t_struct(Trade)623_storage))"
      },
      "t_mapping(t_address,t_mapping(t_uint256,t_mapping(t_uint256,t_struct(TradeInfo)634_storage)))": {
        "encoding": "mapping",
        "key": "t_address",
        "label": "mapping(address => mapping(uint256 => mapping(uint256 => struct GFarmTradingStorageV5.TradeInfo)))",
        "numberOfBytes": "32",
        "value": "t_mapping(t_uint256,t_mapping(t_uint256,t_struct(TradeInfo)634_storage))"
      },
      "t_mapping(t_address,t_mapping(t_uint256,t_mapping(t_uint256,t_uint256)))": {
        "encoding": "mapping",
        "key": "t_address",
        "label": "mapping(address => mapping(uint256 => mapping(uint256 => uint256)))",
        "numberOfBytes": "32",
        "value": "t_mapping(t_uint256,t_mapping(t_uint256,t_uint256))"
      },
      "t_mapping(t_address,t_mapping(t_uint256,t_uint256))": {
        "encoding": "mapping",
        "key": "t_address",
        "label": "mapping(address => mapping(uint256 => uint256))",
        "numberOfBytes": "32",
        "value": "t_mapping(t_uint256,t_uint256)"
      },
      "t_mapping(t_address,t_struct(Trader)604_storage)": {
        "encoding": "mapping",
        "key": "t_address",
        "label": "mapping(address => struct GFarmTradingStorageV5.Trader)",
        "numberOfBytes": "32",
        "value": "t_struct(Trader)604_storage"
      },
      "t_mapping(t_uint256,t_array(t_address)dyn_storage)": {
        "encoding": "mapping",
        "key": "t_uint256",
        "label": "mapping(uint256 => address[])",
        "numberOfBytes": "32",
        "value": "t_array(t_address)dyn_storage"
      },
      "t_mapping(t_uint256,t_array(t_uint256)3_storage)": {
        "encoding": "mapping",
        "key": "t_uint256",
        "label": "mapping(uint256 => uint256[3])",
        "numberOfBytes": "32",
        "value": "t_array(t_uint256)3_storage"
      },
      "t_mapping(t_uint256,t_mapping(t_uint256,t_struct(Trade)623_storage))": {
        "encoding": "mapping",
        "key": "t_uint256",
        "label": "mapping(uint256 => mapping(uint256 => struct GFarmTradingStorageV5.Trade))",
        "numberOfBytes": "32",
        "value": "t_mapping(t_uint256,t_struct(Trade)623_storage)"
      },
      "t_mapping(t_uint256,t_mapping(t_uint256,t_struct(TradeInfo)634_storage))": {
        "encoding": "mapping",
        "key": "t_uint256",
        "label": "mapping(uint256 => mapping(uint256 => struct GFarmTradingStorageV5.TradeInfo))",
        "numberOfBytes": "32",
        "value": "t_mapping(t_uint256,t_struct(TradeInfo)634_storage)"
      },
      "t_mapping(t_uint256,t_mapping(t_uint256,t_uint256))": {
        "encoding": "mapping",
        "key": "t_uint256",
        "label": "mapping(uint256 => mapping(uint256 => uint256))",
        "numberOfBytes": "32",
        "value": "t_mapping(t_uint256,t_uint256)"
      },
      "t_mapping(t_uint256,t_struct(PendingMarketOrder)675_storage)": {
        "encoding": "mapping",
        "key": "t_uint256",
        "label": "mapping(uint256 => struct GFarmTradingStorageV5.PendingMarketOrder)",
        "numberOfBytes": "32",
        "value": "t_struct(PendingMarketOrder)675_storage"
      },
      "t_mapping(t_uint256,t_struct(PendingNftOrder)689_storage)": {
        "encoding": "mapping",
        "key": "t_uint256",
        "label": "mapping(uint256 => struct GFarmTradingStorageV5.PendingNftOrder)",
        "numberOfBytes": "32",
        "value": "t_struct(PendingNftOrder)689_storage"
      },
      "t_mapping(t_uint256,t_struct(Trade)623_storage)": {
        "encoding": "mapping",
        "key": "t_uint256",
        "label": "mapping(uint256 => struct GFarmTradingStorageV5.Trade)",
        "numberOfBytes": "32",
        "value": "t_struct(Trade)623_storage"
      },
      "t_mapping(t_uint256,t_struct(TradeInfo)634_storage)": {
        "encoding": "mapping",
        "key": "t_uint256",
        "label": "mapping(uint256 => struct GFarmTradingStorageV5.TradeInfo)",
        "numberOfBytes": "32",
        "value": "t_struct(TradeInfo)634_storage"
      },
      "t_mapping(t_uint256,t_uint256)": {
        "encoding": "mapping",
        "key": "t_uint256",
        "label": "mapping(uint256 => uint256)",
        "numberOfBytes": "32",
        "value": "t_uint256"
      },
      "t_struct(OpenLimitOrder)661_storage": {
        "encoding": "inplace",
        "label": "struct GFarmTradingStorageV5.OpenLimitOrder",
        "members": [
          {
            "astId": 636,
            "contract": "contracts/contracts/GFarmTradingStorageV5.sol:GFarmTradingStorageV5",
            "label": "trader",
            "offset": 0,
            "slot": "0",
            "type": "t_address"
          },
          {
            "astId": 638,
            "contract": "contracts/contracts/GFarmTradingStorageV5.sol:GFarmTradingStorageV5",
            "label": "pairIndex",
            "offset": 0,
            "slot": "1",
            "type": "t_uint256"
          },
          {
            "astId": 640,
            "contract": "contracts/contracts/GFarmTradingStorageV5.sol:GFarmTradingStorageV5",
            "label": "index",
            "offset": 0,
            "slot": "2",
            "type": "t_uint256"
          },
          {
            "astId": 642,
            "contract": "contracts/contracts/GFarmTradingStorageV5.sol:GFarmTradingStorageV5",
            "label": "positionSize",
            "offset": 0,
            "slot": "3",
            "type": "t_uint256"
          },
          {
            "astId": 644,
            "contract": "contracts/contracts/GFarmTradingStorageV5.sol:GFarmTradingStorageV5",
            "label": "spreadReductionP",
            "offset": 0,
            "slot": "4",
            "type": "t_uint256"
          },
          {
            "astId": 646,
            "contract": "contracts/contracts/GFarmTradingStorageV5.sol:GFarmTradingStorageV5",
            "label": "buy",
            "offset": 0,
            "slot": "5",
            "type": "t_bool"
          },
          {
            "astId": 648,
            "contract": "contracts/contracts/GFarmTradingStorageV5.sol:GFarmTradingStorageV5",
            "label": "leverage",
            "offset": 0,
            "slot": "6",
            "type": "t_uint256"
          },
          {
            "astId": 650,
            "contract": "contracts/contracts/GFarmTradingStorageV5.sol:GFarmTradingStorageV5",
            "label": "tp",
            "offset": 0,
            "slot": "7",
            "type": "t_uint256"
          },
          {
            "astId": 652,
            "contract": "contracts/contracts/GFarmTradingStorageV5.sol:GFarmTradingStorageV5",
            "label": "sl",
            "offset": 0,
            "slot": "8",
            "type": "t_uint256"
          },
          {
            "astId": 654,
            "contract": "contracts/contracts/GFarmTradingStorageV5.sol:GFarmTradingStorageV5",
            "label": "minPrice",
            "offset": 0,
            "slot": "9",
            "type": "t_uint256"
          },
          {
            "astId": 656,
            "contract": "contracts/contracts/GFarmTradingStorageV5.sol:GFarmTradingStorageV5",
            "label": "maxPrice",
            "offset": 0,
            "slot": "10",
            "type": "t_uint256"
          },
          {
            "astId": 658,
            "contract": "contracts/contracts/GFarmTradingStorageV5.sol:GFarmTradingStorageV5",
            "label": "block",
            "offset": 0,
            "slot": "11",
            "type": "t_uint256"
          },
          {
            "astId": 660,
            "contract": "contracts/contracts/GFarmTradingStorageV5.sol:GFarmTradingStorageV5",
            "label": "tokenId",
            "offset": 0,
            "slot": "12",
            "type": "t_uint256"
          }
        ],
        "numberOfBytes": "416"
      },
      "t_struct(PendingMarketOrder)675_storage": {
        "encoding": "inplace",
        "label": "struct GFarmTradingStorageV5.PendingMarketOrder",
        "members": [
          {
            "astId": 664,
            "contract": "contracts/contracts/GFarmTradingStorageV5.sol:GFarmTradingStorageV5",
            "label": "trade",
            "offset": 0,
            "slot": "0",
            "type": "t_struct(Trade)623_storage"
          },
          {
            "astId": 666,
            "contract": "contracts/contracts/GFarmTradingStorageV5.sol:GFarmTradingStorageV5",
            "label": "block",
            "offset": 0,
            "slot": "9",
            "type": "t_uint256"
          },
          {
            "astId": 668,
            "contract": "contracts/contracts/GFarmTradingStorageV5.sol:GFarmTradingStorageV5",
            "label": "wantedPrice",
            "offset": 0,
            "slot": "10",
            "type": "t_uint256"
          },
          {
            "astId": 670,
            "contract": "contracts/contracts/GFarmTradingStorageV5.sol:GFarmTradingStorageV5",
            "label": "slippageP",
            "offset": 0,
            "slot": "11",
            "type": "t_uint256"
          },
          {
            "astId": 672,
            "contract": "contracts/contracts/GFarmTradingStorageV5.sol:GFarmTradingStorageV5",
            "label": "spreadReductionP",
            "offset": 0,
            "slot": "12",
            "type": "t_uint256"
          },
          {
            "astId": 674,
            "contract": "contracts/contracts/GFarmTradingStorageV5.sol:GFarmTradingStorageV5",
            "label": "tokenId",
            "offset": 0,
            "slot": "13",
            "type": "t_uint256"
          }
        ],
        "numberOfBytes": "448"
      },
      "t_struct(PendingNftOrder)689_storage": {
        "encoding": "inplace",
        "label": "struct GFarmTradingStorageV5.PendingNftOrder",
        "members": [
          {
            "astId": 677,
            "contract": "contracts/contracts/GFarmTradingStorageV5.sol:GFarmTradingStorageV5",
            "label": "nftHolder",
            "offset": 0,
            "slot": "0",
            "type": "t_address"
          },
          {
            "astId": 679,
            "contract": "contracts/contracts/GFarmTradingStorageV5.sol:GFarmTradingStorageV5",
            "label": "nftId",
            "offset": 0,
            "slot": "1",
            "type": "t_uint256"
          },
          {
            "astId": 681,
            "contract": "contracts/contracts/GFarmTradingStorageV5.sol:GFarmTradingStorageV5",
            "label": "trader",
            "offset": 0,
            "slot": "2",
            "type": "t_address"
          },
          {
            "astId": 683,
            "contract": "contracts/contracts/GFarmTradingStorageV5.sol:GFarmTradingStorageV5",
            "label": "pairIndex",
            "offset": 0,
            "slot": "3",
            "type": "t_uint256"
          },
          {
            "astId": 685,
            "contract": "contracts/contracts/GFarmTradingStorageV5.sol:GFarmTradingStorageV5",
            "label": "index",
            "offset": 0,
            "slot": "4",
            "type": "t_uint256"
          },
          {
            "astId": 688,
            "contract": "contracts/contracts/GFarmTradingStorageV5.sol:GFarmTradingStorageV5",
            "label": "orderType",
            "offset": 0,
            "slot": "5",
            "type": "t_enum(LimitOrder)597"
          }
        ],
        "numberOfBytes": "192"
      },
      "t_struct(Trade)623_storage": {
        "encoding": "inplace",
        "label": "struct GFarmTradingStorageV5.Trade",
        "members": [
          {
            "astId": 606,
            "contract": "contracts/contracts/GFarmTradingStorageV5.sol:GFarmTradingStorageV5",
            "label": "trader",
            "offset": 0,
            "slot": "0",
            "type": "t_address"
          },
          {
            "astId": 608,
            "contract": "contracts/contracts/GFarmTradingStorageV5.sol:GFarmTradingStorageV5",
            "label": "pairIndex",
            "offset": 0,
            "slot": "1",
            "type": "t_uint256"
          },
          {
            "astId": 610,
            "contract": "contracts/contracts/GFarmTradingStorageV5.sol:GFarmTradingStorageV5",
            "label": "index",
            "offset": 0,
            "slot": "2",
            "type": "t_uint256"
          },
          {
            "astId": 612,
            "contract": "contracts/contracts/GFarmTradingStorageV5.sol:GFarmTradingStorageV5",
            "label": "positionSizeDai",
            "offset": 0,
            "slot": "3",
            "type": "t_uint256"
          },
          {
            "astId": 614,
            "contract": "contracts/contracts/GFarmTradingStorageV5.sol:GFarmTradingStorageV5",
            "label": "openPrice",
            "offset": 0,
            "slot": "4",
            "type": "t_uint256"
          },
          {
            "astId": 616,
            "contract": "contracts/contracts/GFarmTradingStorageV5.sol:GFarmTradingStorageV5",
            "label": "buy",
            "offset": 0,
            "slot": "5",
            "type": "t_bool"
          },
          {
            "astId": 618,
            "contract": "contracts/contracts/GFarmTradingStorageV5.sol:GFarmTradingStorageV5",
            "label": "leverage",
            "offset": 0,
            "slot": "6",
            "type": "t_uint256"
          },
          {
            "astId": 620,
            "contract": "contracts/contracts/GFarmTradingStorageV5.sol:GFarmTradingStorageV5",
            "label": "tp",
            "offset": 0,
            "slot": "7",
            "type": "t_uint256"
          },
          {
            "astId": 622,
            "contract": "contracts/contracts/GFarmTradingStorageV5.sol:GFarmTradingStorageV5",
            "label": "sl",
            "offset": 0,
            "slot": "8",
            "type": "t_uint256"
          }
        ],
        "numberOfBytes": "288"
      },
      "t_struct(TradeInfo)634_storage": {
        "encoding": "inplace",
        "label": "struct GFarmTradingStorageV5.TradeInfo",
        "members": [
          {
            "astId": 625,
            "contract": "contracts/contracts/GFarmTradingStorageV5.sol:GFarmTradingStorageV5",
            "label": "tokenId",
            "offset": 0,
            "slot": "0",
            "type": "t_uint256"
          },
          {
            "astId": 627,
            "contract": "contracts/contracts/GFarmTradingStorageV5.sol:GFarmTradingStorageV5",
            "label": "openInterestDai",
            "offset": 0,
            "slot": "1",
            "type": "t_uint256"
          },
          {
            "astId": 629,
            "contract": "contracts/contracts/GFarmTradingStorageV5.sol:GFarmTradingStorageV5",
            "label": "tpLastUpdated",
            "offset": 0,
            "slot": "2",
            "type": "t_uint256"
          },
          {
            "astId": 631,
            "contract": "contracts/contracts/GFarmTradingStorageV5.sol:GFarmTradingStorageV5",
            "label": "slLastUpdated",
            "offset": 0,
            "slot": "3",
            "type": "t_uint256"
          },
          {
            "astId": 633,
            "contract": "contracts/contracts/GFarmTradingStorageV5.sol:GFarmTradingStorageV5",
            "label": "beingMarketClosed",
            "offset": 0,
            "slot": "4",
            "type": "t_bool"
          }
        ],
        "numberOfBytes": "160"
      },
      "t_struct(Trader)604_storage": {
        "encoding": "inplace",
        "label": "struct GFarmTradingStorageV5.Trader",
        "members": [
          {
            "astId": 599,
            "contract": "contracts/contracts/GFarmTradingStorageV5.sol:GFarmTradingStorageV5",
            "label": "leverageUnlocked",
            "offset": 0,
            "slot": "0",
            "type": "t_uint256"
          },
          {
            "astId": 601,
            "contract": "contracts/contracts/GFarmTradingStorageV5.sol:GFarmTradingStorageV5",
            "label": "referral",
            "offset": 0,
            "slot": "1",
            "type": "t_address"
          },
          {
            "astId": 603,
            "contract": "contracts/contracts/GFarmTradingStorageV5.sol:GFarmTradingStorageV5",
            "label": "referralRewardsTotal",
            "offset": 0,
            "slot": "2",
            "type": "t_uint256"
          }
        ],
        "numberOfBytes": "96"
      },
      "t_uint256": {
        "encoding": "inplace",
        "label": "uint256",
        "numberOfBytes": "32"
      }
    }
  }
}