{
  "address": "0xe5cCd6Ffc7f9439bCdF1F3bca70Cb2231B4e29e2",
  "abi": [
    {
      "anonymous": false,
      "inputs": [
        {
          "indexed": false,
          "internalType": "uint8",
          "name": "version",
          "type": "uint8"
        }
      ],
      "name": "Initialized",
      "type": "event"
    },
    {
      "anonymous": false,
      "inputs": [
        {
          "indexed": false,
          "internalType": "address",
          "name": "trader",
          "type": "address"
        },
        {
          "indexed": false,
          "internalType": "uint256",
          "name": "pairIndex",
          "type": "uint256"
        },
        {
          "indexed": false,
          "internalType": "uint256",
          "name": "index",
          "type": "uint256"
        },
        {
          "indexed": false,
          "internalType": "enum GNSOracleRewardsV6_4_1.OpenLimitOrderType",
          "name": "value",
          "type": "uint8"
        }
      ],
      "name": "OpenLimitOrderTypeSet",
      "type": "event"
    },
    {
      "anonymous": false,
      "inputs": [
        {
          "indexed": false,
          "internalType": "uint256",
          "name": "oraclesCount",
          "type": "uint256"
        }
      ],
      "name": "OraclesUpdated",
      "type": "event"
    },
    {
      "anonymous": false,
      "inputs": [
        {
          "indexed": false,
          "internalType": "address",
          "name": "oracle",
          "type": "address"
        },
        {
          "indexed": false,
          "internalType": "uint256",
          "name": "amountGns",
          "type": "uint256"
        }
      ],
      "name": "RewardsClaimed",
      "type": "event"
    },
    {
      "anonymous": false,
      "inputs": [
        {
          "components": [
            {
              "internalType": "address",
              "name": "trader",
              "type": "address"
            },
            {
              "internalType": "uint256",
              "name": "pairIndex",
              "type": "uint256"
            },
            {
              "internalType": "uint256",
              "name": "index",
              "type": "uint256"
            },
            {
              "internalType": "enum StorageInterfaceV5.LimitOrder",
              "name": "order",
              "type": "uint8"
            }
          ],
          "indexed": false,
          "internalType": "struct GNSOracleRewardsV6_4_1.TriggeredLimitId",
          "name": "id",
          "type": "tuple"
        },
        {
          "indexed": false,
          "internalType": "uint256",
          "name": "rewardGns",
          "type": "uint256"
        },
        {
          "indexed": false,
          "internalType": "uint256",
          "name": "rewardGnsPerOracle",
          "type": "uint256"
        },
        {
          "indexed": false,
          "internalType": "uint256",
          "name": "oraclesCount",
          "type": "uint256"
        }
      ],
      "name": "TriggerRewarded",
      "type": "event"
    },
    {
      "anonymous": false,
      "inputs": [
        {
          "indexed": false,
          "internalType": "uint256",
          "name": "value",
          "type": "uint256"
        }
      ],
      "name": "TriggerTimeoutUpdated",
      "type": "event"
    },
    {
      "anonymous": false,
      "inputs": [
        {
          "components": [
            {
              "internalType": "address",
              "name": "trader",
              "type": "address"
            },
            {
              "internalType": "uint256",
              "name": "pairIndex",
              "type": "uint256"
            },
            {
              "internalType": "uint256",
              "name": "index",
              "type": "uint256"
            },
            {
              "internalType": "enum StorageInterfaceV5.LimitOrder",
              "name": "order",
              "type": "uint8"
            }
          ],
          "indexed": false,
          "internalType": "struct GNSOracleRewardsV6_4_1.TriggeredLimitId",
          "name": "id",
          "type": "tuple"
        }
      ],
      "name": "TriggerUnregistered",
      "type": "event"
    },
    {
      "anonymous": false,
      "inputs": [
        {
          "components": [
            {
              "internalType": "address",
              "name": "trader",
              "type": "address"
            },
            {
              "internalType": "uint256",
              "name": "pairIndex",
              "type": "uint256"
            },
            {
              "internalType": "uint256",
              "name": "index",
              "type": "uint256"
            },
            {
              "internalType": "enum StorageInterfaceV5.LimitOrder",
              "name": "order",
              "type": "uint8"
            }
          ],
          "indexed": false,
          "internalType": "struct GNSOracleRewardsV6_4_1.TriggeredLimitId",
          "name": "id",
          "type": "tuple"
        }
      ],
      "name": "TriggeredFirst",
      "type": "event"
    },
    {
      "inputs": [
        {
          "internalType": "address",
          "name": "_oracle",
          "type": "address"
        }
      ],
      "name": "claimRewards",
      "outputs": [],
      "stateMutability": "nonpayable",
      "type": "function"
    },
    {
      "inputs": [
        {
          "components": [
            {
              "internalType": "address",
              "name": "trader",
              "type": "address"
            },
            {
              "internalType": "uint256",
              "name": "pairIndex",
              "type": "uint256"
            },
            {
              "internalType": "uint256",
              "name": "index",
              "type": "uint256"
            },
            {
              "internalType": "enum StorageInterfaceV5.LimitOrder",
              "name": "order",
              "type": "uint8"
            }
          ],
          "internalType": "struct GNSOracleRewardsV6_4_1.TriggeredLimitId",
          "name": "_id",
          "type": "tuple"
        },
        {
          "internalType": "uint256",
          "name": "_reward",
          "type": "uint256"
        }
      ],
      "name": "distributeOracleReward",
      "outputs": [],
      "stateMutability": "nonpayable",
      "type": "function"
    },
    {
      "inputs": [],
      "name": "getOracles",
      "outputs": [
        {
          "internalType": "address[]",
          "name": "",
          "type": "address[]"
        }
      ],
      "stateMutability": "view",
      "type": "function"
    },
    {
      "inputs": [
        {
          "internalType": "contract StorageInterfaceV5",
          "name": "_storageT",
          "type": "address"
        },
        {
          "internalType": "uint256",
          "name": "_triggerTimeout",
          "type": "uint256"
        },
        {
          "internalType": "uint256",
          "name": "_oraclesCount",
          "type": "uint256"
        }
      ],
      "name": "initialize",
      "outputs": [],
      "stateMutability": "nonpayable",
      "type": "function"
    },
    {
      "inputs": [
        {
          "internalType": "address",
          "name": "",
          "type": "address"
        },
        {
          "internalType": "uint256",
          "name": "",
          "type": "uint256"
        },
        {
          "internalType": "uint256",
          "name": "",
          "type": "uint256"
        }
      ],
      "name": "openLimitOrderTypes",
      "outputs": [
        {
          "internalType": "enum GNSOracleRewardsV6_4_1.OpenLimitOrderType",
          "name": "",
          "type": "uint8"
        }
      ],
      "stateMutability": "view",
      "type": "function"
    },
    {
      "inputs": [
        {
          "internalType": "uint256",
          "name": "",
          "type": "uint256"
        }
      ],
      "name": "oracles",
      "outputs": [
        {
          "internalType": "address",
          "name": "",
          "type": "address"
        }
      ],
      "stateMutability": "view",
      "type": "function"
    },
    {
      "inputs": [
        {
          "internalType": "address",
          "name": "",
          "type": "address"
        }
      ],
      "name": "pendingRewardsGns",
      "outputs": [
        {
          "internalType": "uint256",
          "name": "",
          "type": "uint256"
        }
      ],
      "stateMutability": "view",
      "type": "function"
    },
    {
      "inputs": [
        {
          "internalType": "address",
          "name": "_trader",
          "type": "address"
        },
        {
          "internalType": "uint256",
          "name": "_pairIndex",
          "type": "uint256"
        },
        {
          "internalType": "uint256",
          "name": "_index",
          "type": "uint256"
        },
        {
          "internalType": "enum GNSOracleRewardsV6_4_1.OpenLimitOrderType",
          "name": "_type",
          "type": "uint8"
        }
      ],
      "name": "setOpenLimitOrderType",
      "outputs": [],
      "stateMutability": "nonpayable",
      "type": "function"
    },
    {
      "inputs": [],
      "name": "stateCopied",
      "outputs": [
        {
          "internalType": "bool",
          "name": "",
          "type": "bool"
        }
      ],
      "stateMutability": "view",
      "type": "function"
    },
    {
      "inputs": [],
      "name": "storageT",
      "outputs": [
        {
          "internalType": "contract StorageInterfaceV5",
          "name": "",
          "type": "address"
        }
      ],
      "stateMutability": "view",
      "type": "function"
    },
    {
      "inputs": [
        {
          "components": [
            {
              "internalType": "address",
              "name": "trader",
              "type": "address"
            },
            {
              "internalType": "uint256",
              "name": "pairIndex",
              "type": "uint256"
            },
            {
              "internalType": "uint256",
              "name": "index",
              "type": "uint256"
            },
            {
              "internalType": "enum StorageInterfaceV5.LimitOrder",
              "name": "order",
              "type": "uint8"
            }
          ],
          "internalType": "struct GNSOracleRewardsV6_4_1.TriggeredLimitId",
          "name": "_id",
          "type": "tuple"
        }
      ],
      "name": "storeTrigger",
      "outputs": [],
      "stateMutability": "nonpayable",
      "type": "function"
    },
    {
      "inputs": [
        {
          "components": [
            {
              "internalType": "address",
              "name": "trader",
              "type": "address"
            },
            {
              "internalType": "uint256",
              "name": "pairIndex",
              "type": "uint256"
            },
            {
              "internalType": "uint256",
              "name": "index",
              "type": "uint256"
            },
            {
              "internalType": "enum StorageInterfaceV5.LimitOrder",
              "name": "order",
              "type": "uint8"
            }
          ],
          "internalType": "struct GNSOracleRewardsV6_4_1.TriggeredLimitId",
          "name": "_id",
          "type": "tuple"
        }
      ],
      "name": "timedOut",
      "outputs": [
        {
          "internalType": "bool",
          "name": "",
          "type": "bool"
        }
      ],
      "stateMutability": "view",
      "type": "function"
    },
    {
      "inputs": [],
      "name": "triggerTimeout",
      "outputs": [
        {
          "internalType": "uint256",
          "name": "",
          "type": "uint256"
        }
      ],
      "stateMutability": "view",
      "type": "function"
    },
    {
      "inputs": [
        {
          "components": [
            {
              "internalType": "address",
              "name": "trader",
              "type": "address"
            },
            {
              "internalType": "uint256",
              "name": "pairIndex",
              "type": "uint256"
            },
            {
              "internalType": "uint256",
              "name": "index",
              "type": "uint256"
            },
            {
              "internalType": "enum StorageInterfaceV5.LimitOrder",
              "name": "order",
              "type": "uint8"
            }
          ],
          "internalType": "struct GNSOracleRewardsV6_4_1.TriggeredLimitId",
          "name": "_id",
          "type": "tuple"
        }
      ],
      "name": "triggered",
      "outputs": [
        {
          "internalType": "bool",
          "name": "",
          "type": "bool"
        }
      ],
      "stateMutability": "view",
      "type": "function"
    },
    {
      "inputs": [
        {
          "internalType": "address",
          "name": "",
          "type": "address"
        },
        {
          "internalType": "uint256",
          "name": "",
          "type": "uint256"
        },
        {
          "internalType": "uint256",
          "name": "",
          "type": "uint256"
        },
        {
          "internalType": "enum StorageInterfaceV5.LimitOrder",
          "name": "",
          "type": "uint8"
        }
      ],
      "name": "triggeredLimits",
      "outputs": [
        {
          "internalType": "uint256",
          "name": "",
          "type": "uint256"
        }
      ],
      "stateMutability": "view",
      "type": "function"
    },
    {
      "inputs": [
        {
          "components": [
            {
              "internalType": "address",
              "name": "trader",
              "type": "address"
            },
            {
              "internalType": "uint256",
              "name": "pairIndex",
              "type": "uint256"
            },
            {
              "internalType": "uint256",
              "name": "index",
              "type": "uint256"
            },
            {
              "internalType": "enum StorageInterfaceV5.LimitOrder",
              "name": "order",
              "type": "uint8"
            }
          ],
          "internalType": "struct GNSOracleRewardsV6_4_1.TriggeredLimitId",
          "name": "_id",
          "type": "tuple"
        }
      ],
      "name": "unregisterTrigger",
      "outputs": [],
      "stateMutability": "nonpayable",
      "type": "function"
    },
    {
      "inputs": [
        {
          "internalType": "uint256",
          "name": "_oraclesCount",
          "type": "uint256"
        }
      ],
      "name": "updateOracles",
      "outputs": [],
      "stateMutability": "nonpayable",
      "type": "function"
    },
    {
      "inputs": [
        {
          "internalType": "uint256",
          "name": "_triggerTimeout",
          "type": "uint256"
        }
      ],
      "name": "updateTriggerTimeout",
      "outputs": [],
      "stateMutability": "nonpayable",
      "type": "function"
    }
  ],
  "transactionHash": "0xd84ab8c0ddd7561b892099da9054bcb37d03812e3d4e5194c503a47e0852b1d0",
  "args": [],
  "numDeployments": 1,
  "solcInputHash": "edab1d0feb7ffa5be1c95101a46d74db",
  "bytecode": "0x60808060405234610016576113ba908161001c8239f35b600080fdfe608060408181526004918236101561001657600080fd5b600092833560e01c9182630a22faf414610e2f5750816316fff07414610e0357816321187a9214610ddc5781632bf4854414610d5157816340884c5214610c9e5781635b69a7d814610c54578163613e666e14610b685781637a1ac61e146109b2578163ab5d5c221461098e578163bf654d2b146108bd578163d15ccfaa1461085b578163d4de65ea14610803578163df83935214610603578163e72353d514610512578163ec57061014610402578163ef5cfb8c146101bb578163fc6dcafc1461010c575063fc8b2698146100eb57600080fd5b346101085781600319360112610108576020906001549051908152f35b5080fd5b838334610108576080366003190112610108576001600160a01b0361012f6111f0565b168252826020528082206024358352602052808220604435835260205280822060643590848210156101b7579061016591610eaf565b54801515928361017c575b60208484519015158152f35b9091925061018861130a565b9182039182116101a45750602092506001541115908380610170565b634e487b7160e01b815260118452602490fd5b8380fd5b905034610337576020806003193601126101b7576101d7610e63565b8351638da5cb5b60e01b81529091906001600160a01b03908184169083818781855afa9081156103cb5788916103d5575b50821633148015610380575b1561034c578652600382528585812054948187812055808484845460101c16895193848092637e062a3560e11b82525afa908115610342578388938795936102fa575b50895163a9059cbb60e01b8152958694859384916102789133908401611295565b0393165af180156102f057917ffc30cddea38e2bf4d6ea7d3f9ed3b6ad7f176419f4963bd81318067a4aee73fe95916102bc936102c2575b50505192839283611295565b0390a180f35b816102e192903d106102e9575b6102d98183610eea565b81019061127d565b5038806102b0565b503d6102cf565b85513d88823e3d90fd5b9250939094925081813d831161033b575b6103158183610eea565b8101031261033757519080821682036103375761027893859388939295610257565b8280fd5b503d61030b565b88513d85823e3d90fd5b855162461bcd60e51b8152808601849052600e60248201526d1393d517d055551213d49256915160921b6044820152606490fd5b5085516334fa70c560e21b815233868201528381602481855afa9081156103cb5788916103ae575b50610214565b6103c59150843d86116102e9576102d98183610eea565b386103a8565b87513d8a823e3d90fd5b6103f59150843d86116103fb575b6103ed8183610eea565b810190610f23565b38610208565b503d6103e3565b9050346103375760803660031901126103375761041d610e63565b6024356044359060643592600384101561050e5786548651637622567960e11b81526020966001600160a01b03939288918391829060101c87165afa9089821561050357926104a48560809a9997946104e29997947f02f07f1e288a734d5a0a9a192d4b1ac263c35e822875c00ee8a9df42870e5a199d97916104e6575b501633146111b5565b1695868a5260058152828a20828b528152828a20848b528152828a2060ff1981541660ff871617905582519687528601528401526060830190610edd565ba180f35b6104fd91508b3d8d116103fb576103ed8183610eea565b3861049b565b8951903d90823e3d90fd5b8680fd5b9050346103375760803660031901126103375782548251637622567960e11b81526001600160a01b03939160209190829082908690829060101c89165afa9081156105f95761056c91869188916105e257501633146111b5565b61057461130a565b9361057d6111f0565b168552828152818520602435865281528185209060443586525280842092606435928310156105de576105d36080937f68ad7c7e25b3d9ce225c8f7f8e54268c16ad38a5b3f47e8a5aecc5876cc2289895610eaf565b55516104e281611206565b8480fd5b6104fd9150843d86116103fb576103ed8183610eea565b83513d88823e3d90fd5b9190503461033757366003190160a081126101b757608013610337578254815162b1278360e01b8152608435936001600160a01b0393602093909290849082908490829060101c89165afa90811561074a5761066b91869189916107e6575b50163314611240565b6106736112b0565b156107b5576002549384156107a25790869185870494835b878110610754575050825460101c16803b1561033757829060648551809581936329bc0a1f60e11b835230878401528b6024840152600160448401525af1801561074a5761071a575b867fa454cbe4fae943b78304768a76bb0f63c49a18d4654501cfbb0e13eb771b0eac60e088888888519261070784611206565b608084015260a083015260c0820152a180f35b9195916001600160401b03821161073757508552938160e06106d4565b634e487b7160e01b835260419052602482fd5b83513d89823e3d90fd5b90918093945061076382610e7e565b919054600392831b1c168a52825284892080549087820180921161078f5755889392919060010161068b565b634e487b7160e01b8b526011865260248bfd5b634e487b7160e01b875260128252602487fd5b82606492519162461bcd60e51b8352820152600d60248201526c1393d517d5149251d1d1549151609a1b6044820152fd5b6107fd9150863d88116103fb576103ed8183610eea565b38610662565b505034610108576060366003190112610108576020916108599060ff9083906001600160a01b03610832610e63565b16815260058652818120602435825286528181206044358252865220541691518092610edd565bf35b90503461033757608036600319011261033757610876610e63565b9060643591818310156105de576001600160a01b0316845260209081528284206024358552815282842060443585528152928290206108b59190610eaf565b549051908152f35b905034610337576080366003190112610337578254825162b1278360e01b81526020916001600160a01b039190839082908690829060101c86165afa9081156102f05761091591839188916109775750163314611240565b61091d6111f0565b1684528181528284206024358552815282842090604435855252818320918360643592831015610974576105d36080937fbc446f372d672d41df09bf965eb61c029a34d21d04ebcd4c0ec9c7ee54f2cd8495610eaf565b80fd5b6107fd9150853d87116103fb576103ed8183610eea565b50503461010857816003193601126101085760209060ff6006541690519015158152f35b9050346103375760603660031901126103375780356001600160a01b03811691908281036105de57602435906044359286549460ff8660081c161595868097610b5b575b8015610b44575b15610aea5760ff198116600117895586610ad9575b50151580610ace575b80610ac5575b15610a935750855462010000600160b01b03191660109190911b62010000600160b01b0316178555600155610a5590610f79565b610a5d575080f35b60207f7f26b83ff96e1f2b6a682f133852f6798a09c465da95921460cefb38474024989161ff001984541684555160018152a180f35b606490602087519162461bcd60e51b8352820152600c60248201526b57524f4e475f504152414d5360a01b6044820152fd5b50831515610a21565b506001831015610a1b565b61ffff191661010117885538610a12565b875162461bcd60e51b8152602081850152602e60248201527f496e697469616c697a61626c653a20636f6e747261637420697320616c72656160448201526d191e481a5b9a5d1a585b1a5e995960921b6064820152608490fd5b50303b1580156109fd5750600160ff8216146109fd565b50600160ff8216106109f6565b83915034610108576020908160031936011261033757825484516312d43a5160e01b8152823592916001600160a01b039190859082908590829060101c86165afa908115610c4a5790610bc692918791610c2d575b50163314610f42565b60018210610bfe57507fdaab030e018e5ad3fedc57669f63d80212488b43901ba12e15b02a77c8fee4d192938160015551908152a180f35b845162461bcd60e51b815290810183905260096024820152682122a627abafa6a4a760b91b6044820152606490fd5b610c449150863d88116103fb576103ed8183610eea565b88610bbd565b87513d88823e3d90fd5b905034610337576020366003190112610337573560025481101561033757600290925260008051602061138e8339815191529091015490516001600160a01b039091168152602090f35b82843461097457806003193601126109745781516002805480835290835260209392848301929091839060008051602061138e83398151915290845b818110610d345750505081610cf0910382610eea565b83519485948186019282875251809352850193925b828110610d1457505050500390f35b83516001600160a01b031685528695509381019392810192600101610d05565b82546001600160a01b031684529288019260019283019201610cda565b90503461033757602036600319011261033757825482516312d43a5160e01b81526001600160a01b03939160209082908590829060101c88165afa918215610dd3575092610dac91610db2948691610db55750163314610f42565b35610f79565b80f35b610dcd915060203d81116103fb576103ed8183610eea565b38610bbd565b513d86823e3d90fd5b50503461010857608036600319011261010857602090610dfa6112b0565b90519015158152f35b5050346101085781600319360112610108579054905160109190911c6001600160a01b03168152602090f35b84908434610337576020366003190112610337576020926001600160a01b03610e56610e63565b1681526003845220548152f35b600435906001600160a01b0382168203610e7957565b600080fd5b600254811015610e9957600260005260206000200190600090565b634e487b7160e01b600052603260045260246000fd5b906004811015610ec757600052602052604060002090565b634e487b7160e01b600052602160045260246000fd5b906003821015610ec75752565b601f909101601f19168101906001600160401b03821190821017610f0d57604052565b634e487b7160e01b600052604160045260246000fd5b90816020910312610e7957516001600160a01b0381168103610e795790565b15610f4957565b60405162461bcd60e51b8152602060048201526008602482015267474f565f4f4e4c5960c01b6044820152606490fd5b801561118357600280546000908183558061115f575b50805b838110610fc95750505060207fc9ab6bc878a64f4b5522b0e5e96ab7a0a6404e810b9dc05e7406f0d61a828d1691604051908152a1565b815460408051633078fff560e01b808252600494936001600160a01b039260109190911c83169160209182818981875afa908115611155579085918a91611138575b5016156111005781908786518095819382525afa9182156110f6579083929188926110d7575b5080855180936238a78560e71b8252888a830152816024968792165afa9485156110ce575087946110af575b5050865494600160401b86101561109e5750506110806001948581018855610e7e565b909283549160031b83811b93849216901b1691191617905501610f92565b634e487b7160e01b87526041905285fd5b6110c6929450803d106103fb576103ed8183610eea565b91388061105d565b513d89823e3d90fd5b816110ef9293503d84116103fb576103ed8183610eea565b9038611031565b84513d89823e3d90fd5b845162461bcd60e51b8152808801839052601260248201527141474752454741544f525f4d495353494e4760701b6044820152606490fd5b61114f9150843d86116103fb576103ed8183610eea565b3861100b565b86513d8b823e3d90fd5b82825260208220908101905b8181106111785750610f8f565b82815560010161116b565b60405162461bcd60e51b815260206004820152600a60248201526956414c55455f5a45524f60b01b6044820152606490fd5b156111bc57565b60405162461bcd60e51b815260206004820152600c60248201526b54524144494e475f4f4e4c5960a01b6044820152606490fd5b6004356001600160a01b0381168103610e795790565b6004356001600160a01b03811690819003610e7957815260243560208201526044356040820152606435906004821015610e795760600152565b1561124757565b60405162461bcd60e51b815260206004820152600e60248201526d43414c4c4241434b535f4f4e4c5960901b6044820152606490fd5b90816020910312610e7957518015158103610e795790565b6001600160a01b039091168152602081019190915260400190565b6004356001600160a01b0381169190829003610e795760009182526004602052604082206024358352602052604082206044358352602052604082206064359060048210156101b757611304929350610eaf565b54151590565b61a4b146148015611381575b61131e574390565b60405163a3b1b31d60e01b815260208160048160645afa90811561137557600091611347575090565b906020823d821161136d575b8161136060209383610eea565b8101031261097457505190565b3d9150611353565b6040513d6000823e3d90fd5b5062066eed461461131656fe405787fa12a823e0f2b7631cc41b3ba8828b3321ca811111fa75cd3aa3bb5acea164736f6c6343000811000a",
  "libraries": {},
  "devdoc": {
    "kind": "dev",
    "methods": {},
    "version": 1
  },
  "userdoc": {
    "kind": "user",
    "methods": {},
    "version": 1
  },
  "storageLayout": {
    "storage": [
      {
        "astId": 37290,
        "contract": "contracts/contracts/GNSOracleRewardsV6_4_1.sol:GNSOracleRewardsV6_4_1",
        "label": "_initialized",
        "offset": 0,
        "slot": "0",
        "type": "t_uint8"
      },
      {
        "astId": 37293,
        "contract": "contracts/contracts/GNSOracleRewardsV6_4_1.sol:GNSOracleRewardsV6_4_1",
        "label": "_initializing",
        "offset": 1,
        "slot": "0",
        "type": "t_bool"
      },
      {
        "astId": 16603,
        "contract": "contracts/contracts/GNSOracleRewardsV6_4_1.sol:GNSOracleRewardsV6_4_1",
        "label": "storageT",
        "offset": 2,
        "slot": "0",
        "type": "t_contract(StorageInterfaceV5)36489"
      },
      {
        "astId": 16605,
        "contract": "contracts/contracts/GNSOracleRewardsV6_4_1.sol:GNSOracleRewardsV6_4_1",
        "label": "triggerTimeout",
        "offset": 0,
        "slot": "1",
        "type": "t_uint256"
      },
      {
        "astId": 16608,
        "contract": "contracts/contracts/GNSOracleRewardsV6_4_1.sol:GNSOracleRewardsV6_4_1",
        "label": "oracles",
        "offset": 0,
        "slot": "2",
        "type": "t_array(t_address)dyn_storage"
      },
      {
        "astId": 16626,
        "contract": "contracts/contracts/GNSOracleRewardsV6_4_1.sol:GNSOracleRewardsV6_4_1",
        "label": "pendingRewardsGns",
        "offset": 0,
        "slot": "3",
        "type": "t_mapping(t_address,t_uint256)"
      },
      {
        "astId": 16637,
        "contract": "contracts/contracts/GNSOracleRewardsV6_4_1.sol:GNSOracleRewardsV6_4_1",
        "label": "triggeredLimits",
        "offset": 0,
        "slot": "4",
        "type": "t_mapping(t_address,t_mapping(t_uint256,t_mapping(t_uint256,t_mapping(t_enum(LimitOrder)36012,t_uint256))))"
      },
      {
        "astId": 16646,
        "contract": "contracts/contracts/GNSOracleRewardsV6_4_1.sol:GNSOracleRewardsV6_4_1",
        "label": "openLimitOrderTypes",
        "offset": 0,
        "slot": "5",
        "type": "t_mapping(t_address,t_mapping(t_uint256,t_mapping(t_uint256,t_enum(OpenLimitOrderType)16622)))"
      },
      {
        "astId": 16648,
        "contract": "contracts/contracts/GNSOracleRewardsV6_4_1.sol:GNSOracleRewardsV6_4_1",
        "label": "stateCopied",
        "offset": 0,
        "slot": "6",
        "type": "t_bool"
      }
    ],
    "types": {
      "t_address": {
        "encoding": "inplace",
        "label": "address",
        "numberOfBytes": "20"
      },
      "t_array(t_address)dyn_storage": {
        "base": "t_address",
        "encoding": "dynamic_array",
        "label": "address[]",
        "numberOfBytes": "32"
      },
      "t_bool": {
        "encoding": "inplace",
        "label": "bool",
        "numberOfBytes": "1"
      },
      "t_contract(StorageInterfaceV5)36489": {
        "encoding": "inplace",
        "label": "contract StorageInterfaceV5",
        "numberOfBytes": "20"
      },
      "t_enum(LimitOrder)36012": {
        "encoding": "inplace",
        "label": "enum StorageInterfaceV5.LimitOrder",
        "numberOfBytes": "1"
      },
      "t_enum(OpenLimitOrderType)16622": {
        "encoding": "inplace",
        "label": "enum GNSOracleRewardsV6_4_1.OpenLimitOrderType",
        "numberOfBytes": "1"
      },
      "t_mapping(t_address,t_mapping(t_uint256,t_mapping(t_uint256,t_enum(OpenLimitOrderType)16622)))": {
        "encoding": "mapping",
        "key": "t_address",
        "label": "mapping(address => mapping(uint256 => mapping(uint256 => enum GNSOracleRewardsV6_4_1.OpenLimitOrderType)))",
        "numberOfBytes": "32",
        "value": "t_mapping(t_uint256,t_mapping(t_uint256,t_enum(OpenLimitOrderType)16622))"
      },
      "t_mapping(t_address,t_mapping(t_uint256,t_mapping(t_uint256,t_mapping(t_enum(LimitOrder)36012,t_uint256))))": {
        "encoding": "mapping",
        "key": "t_address",
        "label": "mapping(address => mapping(uint256 => mapping(uint256 => mapping(enum StorageInterfaceV5.LimitOrder => uint256))))",
        "numberOfBytes": "32",
        "value": "t_mapping(t_uint256,t_mapping(t_uint256,t_mapping(t_enum(LimitOrder)36012,t_uint256)))"
      },
      "t_mapping(t_address,t_uint256)": {
        "encoding": "mapping",
        "key": "t_address",
        "label": "mapping(address => uint256)",
        "numberOfBytes": "32",
        "value": "t_uint256"
      },
      "t_mapping(t_enum(LimitOrder)36012,t_uint256)": {
        "encoding": "mapping",
        "key": "t_enum(LimitOrder)36012",
        "label": "mapping(enum StorageInterfaceV5.LimitOrder => uint256)",
        "numberOfBytes": "32",
        "value": "t_uint256"
      },
      "t_mapping(t_uint256,t_enum(OpenLimitOrderType)16622)": {
        "encoding": "mapping",
        "key": "t_uint256",
        "label": "mapping(uint256 => enum GNSOracleRewardsV6_4_1.OpenLimitOrderType)",
        "numberOfBytes": "32",
        "value": "t_enum(OpenLimitOrderType)16622"
      },
      "t_mapping(t_uint256,t_mapping(t_enum(LimitOrder)36012,t_uint256))": {
        "encoding": "mapping",
        "key": "t_uint256",
        "label": "mapping(uint256 => mapping(enum StorageInterfaceV5.LimitOrder => uint256))",
        "numberOfBytes": "32",
        "value": "t_mapping(t_enum(LimitOrder)36012,t_uint256)"
      },
      "t_mapping(t_uint256,t_mapping(t_uint256,t_enum(OpenLimitOrderType)16622))": {
        "encoding": "mapping",
        "key": "t_uint256",
        "label": "mapping(uint256 => mapping(uint256 => enum GNSOracleRewardsV6_4_1.OpenLimitOrderType))",
        "numberOfBytes": "32",
        "value": "t_mapping(t_uint256,t_enum(OpenLimitOrderType)16622)"
      },
      "t_mapping(t_uint256,t_mapping(t_uint256,t_mapping(t_enum(LimitOrder)36012,t_uint256)))": {
        "encoding": "mapping",
        "key": "t_uint256",
        "label": "mapping(uint256 => mapping(uint256 => mapping(enum StorageInterfaceV5.LimitOrder => uint256)))",
        "numberOfBytes": "32",
        "value": "t_mapping(t_uint256,t_mapping(t_enum(LimitOrder)36012,t_uint256))"
      },
      "t_uint256": {
        "encoding": "inplace",
        "label": "uint256",
        "numberOfBytes": "32"
      },
      "t_uint8": {
        "encoding": "inplace",
        "label": "uint8",
        "numberOfBytes": "1"
      }
    }
  }
}