{
  "address": "0x4f96152B1393fa35CC01f7cc295aa439b0847DC7",
  "abi": [
    {
      "inputs": [
        {
          "internalType": "address",
          "name": "_linkToken",
          "type": "address"
        },
        {
          "internalType": "contract IUniswapV3Pool",
          "name": "_tokenDaiLp",
          "type": "address"
        },
        {
          "internalType": "uint32",
          "name": "_twapInterval",
          "type": "uint32"
        },
        {
          "internalType": "contract StorageInterfaceV5",
          "name": "_storageT",
          "type": "address"
        },
        {
          "internalType": "contract PairsStorageInterfaceV6",
          "name": "_pairsStorage",
          "type": "address"
        },
        {
          "internalType": "contract ChainlinkFeedInterfaceV5",
          "name": "_linkPriceFeed",
          "type": "address"
        },
        {
          "internalType": "uint256",
          "name": "_minAnswers",
          "type": "uint256"
        },
        {
          "internalType": "address[]",
          "name": "_nodes",
          "type": "address[]"
        },
        {
          "internalType": "bytes32[2]",
          "name": "_jobIds",
          "type": "bytes32[2]"
        }
      ],
      "stateMutability": "nonpayable",
      "type": "constructor"
    },
    {
      "anonymous": false,
      "inputs": [
        {
          "components": [
            {
              "internalType": "uint256",
              "name": "orderId",
              "type": "uint256"
            },
            {
              "internalType": "uint256",
              "name": "price",
              "type": "uint256"
            },
            {
              "internalType": "uint256",
              "name": "spreadP",
              "type": "uint256"
            },
            {
              "internalType": "uint256",
              "name": "open",
              "type": "uint256"
            },
            {
              "internalType": "uint256",
              "name": "high",
              "type": "uint256"
            },
            {
              "internalType": "uint256",
              "name": "low",
              "type": "uint256"
            }
          ],
          "indexed": false,
          "internalType": "struct CallbacksInterfaceV6_4.AggregatorAnswer",
          "name": "a",
          "type": "tuple"
        },
        {
          "indexed": false,
          "internalType": "enum GNSPriceAggregatorV6_4.OrderType",
          "name": "orderType",
          "type": "uint8"
        }
      ],
      "name": "CallbackExecuted",
      "type": "event"
    },
    {
      "anonymous": false,
      "inputs": [
        {
          "indexed": true,
          "internalType": "bytes32",
          "name": "id",
          "type": "bytes32"
        }
      ],
      "name": "ChainlinkCancelled",
      "type": "event"
    },
    {
      "anonymous": false,
      "inputs": [
        {
          "indexed": true,
          "internalType": "bytes32",
          "name": "id",
          "type": "bytes32"
        }
      ],
      "name": "ChainlinkFulfilled",
      "type": "event"
    },
    {
      "anonymous": false,
      "inputs": [
        {
          "indexed": true,
          "internalType": "bytes32",
          "name": "id",
          "type": "bytes32"
        }
      ],
      "name": "ChainlinkRequested",
      "type": "event"
    },
    {
      "anonymous": false,
      "inputs": [
        {
          "indexed": false,
          "internalType": "uint256",
          "name": "index",
          "type": "uint256"
        },
        {
          "indexed": false,
          "internalType": "bytes32",
          "name": "jobId",
          "type": "bytes32"
        }
      ],
      "name": "JobIdUpdated",
      "type": "event"
    },
    {
      "anonymous": false,
      "inputs": [
        {
          "indexed": false,
          "internalType": "address",
          "name": "value",
          "type": "address"
        }
      ],
      "name": "LinkPriceFeedUpdated",
      "type": "event"
    },
    {
      "anonymous": false,
      "inputs": [
        {
          "indexed": false,
          "internalType": "uint256",
          "name": "value",
          "type": "uint256"
        }
      ],
      "name": "MinAnswersUpdated",
      "type": "event"
    },
    {
      "anonymous": false,
      "inputs": [
        {
          "indexed": false,
          "internalType": "uint256",
          "name": "index",
          "type": "uint256"
        },
        {
          "indexed": false,
          "internalType": "address",
          "name": "value",
          "type": "address"
        }
      ],
      "name": "NodeAdded",
      "type": "event"
    },
    {
      "anonymous": false,
      "inputs": [
        {
          "indexed": false,
          "internalType": "uint256",
          "name": "index",
          "type": "uint256"
        },
        {
          "indexed": false,
          "internalType": "address",
          "name": "oldNode",
          "type": "address"
        }
      ],
      "name": "NodeRemoved",
      "type": "event"
    },
    {
      "anonymous": false,
      "inputs": [
        {
          "indexed": false,
          "internalType": "uint256",
          "name": "index",
          "type": "uint256"
        },
        {
          "indexed": false,
          "internalType": "address",
          "name": "oldNode",
          "type": "address"
        },
        {
          "indexed": false,
          "internalType": "address",
          "name": "newNode",
          "type": "address"
        }
      ],
      "name": "NodeReplaced",
      "type": "event"
    },
    {
      "anonymous": false,
      "inputs": [
        {
          "indexed": false,
          "internalType": "address",
          "name": "value",
          "type": "address"
        }
      ],
      "name": "PairsStorageUpdated",
      "type": "event"
    },
    {
      "anonymous": false,
      "inputs": [
        {
          "indexed": false,
          "internalType": "bytes32",
          "name": "request",
          "type": "bytes32"
        },
        {
          "indexed": true,
          "internalType": "uint256",
          "name": "orderId",
          "type": "uint256"
        },
        {
          "indexed": true,
          "internalType": "address",
          "name": "node",
          "type": "address"
        },
        {
          "indexed": true,
          "internalType": "uint16",
          "name": "pairIndex",
          "type": "uint16"
        },
        {
          "indexed": false,
          "internalType": "uint256",
          "name": "price",
          "type": "uint256"
        },
        {
          "indexed": false,
          "internalType": "uint256",
          "name": "referencePrice",
          "type": "uint256"
        },
        {
          "indexed": false,
          "internalType": "uint112",
          "name": "linkFee",
          "type": "uint112"
        },
        {
          "indexed": false,
          "internalType": "bool",
          "name": "isLookback",
          "type": "bool"
        },
        {
          "indexed": false,
          "internalType": "bool",
          "name": "usedInMedian",
          "type": "bool"
        }
      ],
      "name": "PriceReceived",
      "type": "event"
    },
    {
      "anonymous": false,
      "inputs": [
        {
          "indexed": true,
          "internalType": "uint256",
          "name": "orderId",
          "type": "uint256"
        },
        {
          "indexed": true,
          "internalType": "bytes32",
          "name": "job",
          "type": "bytes32"
        },
        {
          "indexed": true,
          "internalType": "uint256",
          "name": "pairIndex",
          "type": "uint256"
        },
        {
          "indexed": false,
          "internalType": "enum GNSPriceAggregatorV6_4.OrderType",
          "name": "orderType",
          "type": "uint8"
        },
        {
          "indexed": false,
          "internalType": "uint256",
          "name": "nodesCount",
          "type": "uint256"
        },
        {
          "indexed": false,
          "internalType": "uint256",
          "name": "linkFeePerNode",
          "type": "uint256"
        },
        {
          "indexed": false,
          "internalType": "uint256",
          "name": "fromBlock",
          "type": "uint256"
        },
        {
          "indexed": false,
          "internalType": "bool",
          "name": "isLookback",
          "type": "bool"
        }
      ],
      "name": "PriceRequested",
      "type": "event"
    },
    {
      "anonymous": false,
      "inputs": [
        {
          "indexed": false,
          "internalType": "uint32",
          "name": "newValue",
          "type": "uint32"
        }
      ],
      "name": "TwapIntervalUpdated",
      "type": "event"
    },
    {
      "anonymous": false,
      "inputs": [
        {
          "indexed": false,
          "internalType": "contract IUniswapV3Pool",
          "name": "newValue",
          "type": "address"
        }
      ],
      "name": "UniV3PoolUpdated",
      "type": "event"
    },
    {
      "inputs": [
        {
          "internalType": "address",
          "name": "a",
          "type": "address"
        }
      ],
      "name": "addNode",
      "outputs": [],
      "stateMutability": "nonpayable",
      "type": "function"
    },
    {
      "inputs": [],
      "name": "claimBackLink",
      "outputs": [],
      "stateMutability": "nonpayable",
      "type": "function"
    },
    {
      "inputs": [
        {
          "internalType": "bytes32",
          "name": "requestId",
          "type": "bytes32"
        },
        {
          "internalType": "uint256",
          "name": "priceData",
          "type": "uint256"
        }
      ],
      "name": "fulfill",
      "outputs": [],
      "stateMutability": "nonpayable",
      "type": "function"
    },
    {
      "inputs": [
        {
          "internalType": "uint256",
          "name": "pairIndex",
          "type": "uint256"
        },
        {
          "internalType": "enum GNSPriceAggregatorV6_4.OrderType",
          "name": "orderType",
          "type": "uint8"
        },
        {
          "internalType": "uint256",
          "name": "leveragedPosDai",
          "type": "uint256"
        },
        {
          "internalType": "uint256",
          "name": "fromBlock",
          "type": "uint256"
        }
      ],
      "name": "getPrice",
      "outputs": [
        {
          "internalType": "uint256",
          "name": "",
          "type": "uint256"
        }
      ],
      "stateMutability": "nonpayable",
      "type": "function"
    },
    {
      "inputs": [],
      "name": "isGnsToken0InLp",
      "outputs": [
        {
          "internalType": "bool",
          "name": "",
          "type": "bool"
        }
      ],
      "stateMutability": "view",
      "type": "function"
    },
    {
      "inputs": [
        {
          "internalType": "uint256",
          "name": "",
          "type": "uint256"
        }
      ],
      "name": "jobIds",
      "outputs": [
        {
          "internalType": "bytes32",
          "name": "",
          "type": "bytes32"
        }
      ],
      "stateMutability": "view",
      "type": "function"
    },
    {
      "inputs": [
        {
          "internalType": "uint256",
          "name": "pairIndex",
          "type": "uint256"
        },
        {
          "internalType": "uint256",
          "name": "leveragedPosDai",
          "type": "uint256"
        }
      ],
      "name": "linkFee",
      "outputs": [
        {
          "internalType": "uint256",
          "name": "",
          "type": "uint256"
        }
      ],
      "stateMutability": "view",
      "type": "function"
    },
    {
      "inputs": [],
      "name": "linkPriceFeed",
      "outputs": [
        {
          "internalType": "contract ChainlinkFeedInterfaceV5",
          "name": "",
          "type": "address"
        }
      ],
      "stateMutability": "view",
      "type": "function"
    },
    {
      "inputs": [
        {
          "internalType": "uint256",
          "name": "",
          "type": "uint256"
        },
        {
          "internalType": "uint256",
          "name": "",
          "type": "uint256"
        }
      ],
      "name": "lookbackOrderAnswers",
      "outputs": [
        {
          "internalType": "uint64",
          "name": "open",
          "type": "uint64"
        },
        {
          "internalType": "uint64",
          "name": "high",
          "type": "uint64"
        },
        {
          "internalType": "uint64",
          "name": "low",
          "type": "uint64"
        },
        {
          "internalType": "uint64",
          "name": "ts",
          "type": "uint64"
        }
      ],
      "stateMutability": "view",
      "type": "function"
    },
    {
      "inputs": [],
      "name": "minAnswers",
      "outputs": [
        {
          "internalType": "uint256",
          "name": "",
          "type": "uint256"
        }
      ],
      "stateMutability": "view",
      "type": "function"
    },
    {
      "inputs": [
        {
          "internalType": "uint256",
          "name": "",
          "type": "uint256"
        }
      ],
      "name": "nodes",
      "outputs": [
        {
          "internalType": "address",
          "name": "",
          "type": "address"
        }
      ],
      "stateMutability": "view",
      "type": "function"
    },
    {
      "inputs": [
        {
          "internalType": "uint256",
          "name": "pairIndex",
          "type": "uint256"
        }
      ],
      "name": "openFeeP",
      "outputs": [
        {
          "internalType": "uint256",
          "name": "",
          "type": "uint256"
        }
      ],
      "stateMutability": "view",
      "type": "function"
    },
    {
      "inputs": [
        {
          "internalType": "bytes32",
          "name": "",
          "type": "bytes32"
        }
      ],
      "name": "orderIdByRequest",
      "outputs": [
        {
          "internalType": "uint256",
          "name": "",
          "type": "uint256"
        }
      ],
      "stateMutability": "view",
      "type": "function"
    },
    {
      "inputs": [
        {
          "internalType": "uint256",
          "name": "",
          "type": "uint256"
        }
      ],
      "name": "orders",
      "outputs": [
        {
          "internalType": "uint16",
          "name": "pairIndex",
          "type": "uint16"
        },
        {
          "internalType": "uint112",
          "name": "linkFeePerNode",
          "type": "uint112"
        },
        {
          "internalType": "enum GNSPriceAggregatorV6_4.OrderType",
          "name": "orderType",
          "type": "uint8"
        },
        {
          "internalType": "bool",
          "name": "active",
          "type": "bool"
        },
        {
          "internalType": "bool",
          "name": "isLookback",
          "type": "bool"
        }
      ],
      "stateMutability": "view",
      "type": "function"
    },
    {
      "inputs": [
        {
          "internalType": "uint256",
          "name": "",
          "type": "uint256"
        },
        {
          "internalType": "uint256",
          "name": "",
          "type": "uint256"
        }
      ],
      "name": "ordersAnswers",
      "outputs": [
        {
          "internalType": "uint256",
          "name": "",
          "type": "uint256"
        }
      ],
      "stateMutability": "view",
      "type": "function"
    },
    {
      "inputs": [],
      "name": "pairsStorage",
      "outputs": [
        {
          "internalType": "contract PairsStorageInterfaceV6",
          "name": "",
          "type": "address"
        }
      ],
      "stateMutability": "view",
      "type": "function"
    },
    {
      "inputs": [
        {
          "internalType": "uint256",
          "name": "index",
          "type": "uint256"
        }
      ],
      "name": "removeNode",
      "outputs": [],
      "stateMutability": "nonpayable",
      "type": "function"
    },
    {
      "inputs": [
        {
          "internalType": "uint256",
          "name": "index",
          "type": "uint256"
        },
        {
          "internalType": "address",
          "name": "a",
          "type": "address"
        }
      ],
      "name": "replaceNode",
      "outputs": [],
      "stateMutability": "nonpayable",
      "type": "function"
    },
    {
      "inputs": [
        {
          "internalType": "bytes32",
          "name": "jobId",
          "type": "bytes32"
        }
      ],
      "name": "setLimitJobId",
      "outputs": [],
      "stateMutability": "nonpayable",
      "type": "function"
    },
    {
      "inputs": [
        {
          "internalType": "bytes32",
          "name": "jobId",
          "type": "bytes32"
        }
      ],
      "name": "setMarketJobId",
      "outputs": [],
      "stateMutability": "nonpayable",
      "type": "function"
    },
    {
      "inputs": [],
      "name": "storageT",
      "outputs": [
        {
          "internalType": "contract StorageInterfaceV5",
          "name": "",
          "type": "address"
        }
      ],
      "stateMutability": "view",
      "type": "function"
    },
    {
      "inputs": [],
      "name": "token",
      "outputs": [
        {
          "internalType": "address",
          "name": "",
          "type": "address"
        }
      ],
      "stateMutability": "view",
      "type": "function"
    },
    {
      "inputs": [],
      "name": "tokenPriceDai",
      "outputs": [
        {
          "internalType": "uint256",
          "name": "price",
          "type": "uint256"
        }
      ],
      "stateMutability": "view",
      "type": "function"
    },
    {
      "inputs": [],
      "name": "twapInterval",
      "outputs": [
        {
          "internalType": "uint32",
          "name": "",
          "type": "uint32"
        }
      ],
      "stateMutability": "view",
      "type": "function"
    },
    {
      "inputs": [],
      "name": "uniV3Pool",
      "outputs": [
        {
          "internalType": "contract IUniswapV3Pool",
          "name": "",
          "type": "address"
        }
      ],
      "stateMutability": "view",
      "type": "function"
    },
    {
      "inputs": [
        {
          "internalType": "contract ChainlinkFeedInterfaceV5",
          "name": "value",
          "type": "address"
        }
      ],
      "name": "updateLinkPriceFeed",
      "outputs": [],
      "stateMutability": "nonpayable",
      "type": "function"
    },
    {
      "inputs": [
        {
          "internalType": "uint256",
          "name": "value",
          "type": "uint256"
        }
      ],
      "name": "updateMinAnswers",
      "outputs": [],
      "stateMutability": "nonpayable",
      "type": "function"
    },
    {
      "inputs": [
        {
          "internalType": "contract PairsStorageInterfaceV6",
          "name": "value",
          "type": "address"
        }
      ],
      "name": "updatePairsStorage",
      "outputs": [],
      "stateMutability": "nonpayable",
      "type": "function"
    },
    {
      "inputs": [
        {
          "internalType": "uint32",
          "name": "_twapInterval",
          "type": "uint32"
        }
      ],
      "name": "updateTwapInterval",
      "outputs": [],
      "stateMutability": "nonpayable",
      "type": "function"
    },
    {
      "inputs": [
        {
          "internalType": "contract IUniswapV3Pool",
          "name": "_uniV3Pool",
          "type": "address"
        }
      ],
      "name": "updateUniV3Pool",
      "outputs": [],
      "stateMutability": "nonpayable",
      "type": "function"
    }
  ],
  "transactionHash": "0xb3651c34f2780882660f09661aaa05f9d2970cdeee0287a98454233b7bcec8a2",
  "args": [
    "0x779877A7B0D9E8603169DdbD7836e478b4624789",
    "0xeA4eFC71C1b73A643d6f710477efD9c59f9EeDE9",
    100,
    "0xc74ACa58E57FcDF118B94E6ca85F7ab49f17A679",
    "0x744A44d2C1bE1858C44d61DD6ba6316aF3025D59",
    "0x1b44F3514812d835EB1BDB0acB33d3fA3351Ee43",
    1,
    [
      "0xEefb58aa0251B871De613048F3049753820907dF"
    ],
    [
      "0x3531646336616261313936653432313562643338626435336562663561643365",
      "0x3531646336616261313936653432313562643338626435336562663561643365"
    ]
  ],
  "numDeployments": 10,
  "solcInputHash": "cf2e42262662487f633615c091836221",
  "bytecode": "0x60e0604052346200056c57620047bf8038038091620000208260e06200058f565b60e03961014081126200056c576200003960e0620005b3565b61010051916001600160a01b03831683036200056c57610120519063ffffffff821682036200056c57610140516001600160a01b03811681036200056c5761016051946001600160a01b03861686036200056c57610180516001600160a01b03811681036200056c576101a0516101c051939091906001600160401b0385116200056c5760e0860160ff860112156200056c5760e0850151936001600160401b038511620003fa578460051b9560405195620000f960208901886200058f565b86526020860196879060e08a0161010084830101116200056c57610100830191905b61010084820101831062000571575050505060e087016101ff12156200056c5760408051979088016001600160401b03811189821017620003fa57604052879060e001610220116200056c576101e0905b61022082106200055b575050604051637e062a3560e11b81526020816004816001600160a01b0387165afa9081156200054f57600091620004ff575b5060016004819055986001600160a01b038316151580620004ec575b80620004e4575b156200049f57600680546001600160a01b0393841660a09081526001600160c01b0319909116948416949094179190931b63ffffffff60a01b16179091556402540be40060805281161515806200048c575b8062000479575b806200046e575b8062000462575b8062000457575b8062000444575b15620004105760c052600780546001600160a01b03199081166001600160a01b039a8b1617909155600880548216929099169190911790975560095551906001600160401b038211620003fa57680100000000000000008211620003fa57600a5482600a55808310620003ae575b50600a60005260206000208460005b8481106200039057505050505060005b600281106200037b5750505060018060a01b03169060025416176002556040516141f69081620005c9823960805181505060a0518181816119470152611c5f015260c0518181816102f2015281816104c9015281816108cd01528181610d0e015281816110550152818161112d0152818161136d01528181611474015281816115fd015281816117d10152818161189d01528181611a3601528181611b4c01528181611cfe0152611dfb0152f35b82906020835193019281600b015501620002cd565b83516001600160a01b031681840155602090930192869101620002bd565b600a6000527fc65a7bb8d6351c1cf70c95a316cc6a92839c986682d98bc35f958f4883f9d2a890810190859084015b828110620003ed575050620002ae565b60008155018590620003dd565b634e487b7160e01b600052604160045260246000fd5b60405162461bcd60e51b815260206004820152600c60248201526b57524f4e475f504152414d5360a01b6044820152606490fd5b506001600160a01b038816151562000240565b508351151562000239565b50868084161462000232565b50868310156200022b565b506001600160a01b038216151562000224565b506001600160a01b03891615156200021d565b60405162461bcd60e51b815260206004820152601660248201527f57524f4e475f545741505f434f4e5354525543544f52000000000000000000006044820152606490fd5b5089620001cb565b5061384063ffffffff82161115620001c4565b6020813d60201162000546575b816200051b602093836200058f565b81010312620005425751906001600160a01b03821682036200053f575038620001a8565b80fd5b5080fd5b3d91506200050c565b6040513d6000823e3d90fd5b81518152602091820191016200016c565b600080fd5b60208080936200058186620005b3565b81520193019291506200011b565b601f909101601f19168101906001600160401b03821190821017620003fa57604052565b51906001600160a01b03821682036200056c5756fe60806040526004361015610013575b600080fd5b60003560e01c8062912b371461026a57806303f39a161461026157806316fff074146102585780631c53c2801461024f57806335b03c17146102465780633c1d5df01461023d5780633c88e8821461023457806340e9eda21461022b5780634162cc88146102225780634357855e146102195780634c37a9d6146102105780636938c05d146102075780636c83b3d7146101fe5780636f37d263146101f557806385f276b8146101ec57806393d7fe2c146101e35780639d95f1cc146101da578063a500775e146101d1578063a85c38ef146101c8578063b9e0336f146101bf578063bea16758146101b6578063d31273ca146101ad578063da4ae8ef146101a4578063dcdfb4311461019b578063e0bb91c214610192578063e21e5fe014610189578063f5ed447c14610180578063fc0c546a14610177578063fd2882801461016e5763ffd740df1461016657600080fd5b61000e611db9565b5061000e611c8e565b5061000e611c48565b5061000e611b11565b5061000e611a8d565b5061000e6119f0565b5061000e6119c3565b5061000e611832565b5061000e61176c565b5061000e61174d565b5061000e611723565b5061000e6116b4565b5061000e611591565b5061000e611432565b5061000e6113ea565b5061000e611327565b5061000e61110a565b5061000e6110e0565b5061000e61100d565b5061000e610fa3565b5061000e610593565b5061000e610566565b5061000e610464565b5061000e610436565b5061000e61040e565b5061000e6103e4565b5061000e61039a565b5061000e6102db565b5061000e6102b4565b5061000e61028a565b600091031261000e57565b6001600160a01b031690565b503461000e57600036600319011261000e576008546040516001600160a01b039091168152602090f35b503461000e57600036600319011261000e57602060ff60065460c01c166040519015158152f35b503461000e57600036600319011261000e576040517f00000000000000000000000000000000000000000000000000000000000000006001600160a01b03168152602090f35b50634e487b7160e01b600052603260045260246000fd5b600a54811015610354575b600a60005260206000200190600090565b61035c610321565b610343565b805482101561037a575b60005260206000200190600090565b610382610321565b61036b565b6001600160a01b03909116815260200190565b503461000e57602036600319011261000e57600435600a5481101561000e57600a60005260008051602061416a83398151915201546040516001600160a01b039091168152602090f35b503461000e57600036600319011261000e576007546040516001600160a01b039091168152602090f35b503461000e57600036600319011261000e57602063ffffffff60065460a01c16604051908152f35b503461000e57600036600319011261000e57602060405160008152f35b6001600160a01b0381160361000e57565b503461000e57602036600319011261000e577f477e87af277e7755f85267ef7c6b77cd28610c2c8c2923acdf55fa5b63f18b7760206004356104a581610453565b6040516312d43a5160e01b81526001600160a01b03919061050590839085816004817f000000000000000000000000000000000000000000000000000000000000000086165afa908115610559575b60009161052c575b50163314611fd2565b16610511811515612009565b600780546001600160a01b03191682179055604051908152a1005b61054c9150863d8111610552575b6105448183611f8a565b810190611fad565b386104fc565b503d61053a565b610561611fc5565b6104f4565b503461000e57602036600319011261000e57600435600281101561000e57602090600b0154604051908152f35b503461000e57604036600319011261000e57600460243581356105b581610f77565b54600093846105c384610f77565b556105d56105d083610f87565b6135d3565b85918661061a60806105f06105eb60075461027e565b61027e565b855161ffff169060405180809581946307aa801760e21b835289830161ffff909116815260200190565b03915afa908115610f6a575b8291610f3b575b5061063781613c21565b926106456060860151151590565b6106d2575b505050906106cc6000805160206141aa8339815191529361ffff93610671845161ffff1690565b602085015160809095015190946001600160701b0316901515604080519a8b5260208b019b909b52998901919091526001600160701b03166060880152961515608087015295151560a08601521693339390819060c0820190565b0390a480f35b608085015115610bda576106e461385d565b918461070a60808c6040518093819263635e061d60e11b83528883019190602083019252565b0381733482Cd41A41a7E28aBA6a9fEaFA07D1ad9fAd39f5af4908115610bcd575b869087908893610b85575b50869493929161076961076f9261076360209b61075d8d8b0197606060408d019c01613882565b89613882565b84613882565b87613882565b6107b860606107aa60018060401b03938461078a8251610f97565b16801580610b71575b8015610b13575b6107a49150613891565b51610f97565b940193838386519216613d7e565b9384610af2575b505050506107f1575b505050906106cc6000805160206141aa8339815191529361ffff935b929381955089925061064a565b9091945088600195610817610810896000526010602052604060002090565b94856138ce565b835460095414610828575b506107c8565b61084b61084661083d98949796939598613715565b988a8a526139ae565b613fc1565b60a08a0152608089015260608801526108968161086c6105eb60075461027e565b875161ffff1690604051808095819463a1d54e9b60e01b83528d830161ffff909116815260200190565b03915afa908115610ae5575b8591610ab8575b506040888101919091525162b1278360e01b81526001600160a01b039190818189817f000000000000000000000000000000000000000000000000000000000000000087165afa918215610aab575b8692610a8e575b5050169460408501966002885161091581611688565b61091e81611688565b03610a0a57863b15610a06576000805160206141aa83398151915297610971868361ffff9a60008051602061418a833981519152966106cc9a60405180968195829463168fdc8160e31b845283016137fa565b03925af180156109f9575b6109e0575b505b519061098e82611688565b61099d6040519283928361380a565b0390a16109b96109ac88610f87565b805460ff60881b19169055565b6109d56109d0886000526010602052604060002090565b613828565b929350938838610822565b806109ed6109f392611efe565b80610273565b38610981565b610a01611fc5565b61097c565b8480fd5b863b15610a06576000805160206141aa83398151915297610a58868361ffff9a60008051602061418a833981519152966106cc9a6040518096819582946323f7197b60e01b845283016137fa565b03925af18015610a81575b610a6e575b50610983565b806109ed610a7b92611efe565b38610a68565b610a89611fc5565b610a63565b610aa49250803d10610552576105448183611f8a565b38806108ff565b610ab3611fc5565b6108f8565b610ad89150823d8411610ade575b610ad08183611f8a565b8101906137b4565b386108a9565b503d610ac6565b610aed611fc5565b6108a2565b610b0a9450610b019051610f97565b92519216613d7e565b388581806107bf565b50610b26610b218c51610f97565b610f97565b809110159081610b5b575b5080610b41575b6107a49061079a565b506107a4610b52610b218a51610f97565b15159050610b38565b905085610b688a51610f97565b16111538610b31565b50610b7f610b218a51610f97565b15610793565b61076f985087959493506107699250610bb6915060803d608011610bc6575b610bae8183611f8a565b810190613695565b9099959650939491925090610736565b503d610ba4565b610bd5611fc5565b61072b565b91506040519063635e061d60e11b825260808280610bff8c8783019190602083019252565b0381733482Cd41A41a7E28aBA6a9fEaFA07D1ad9fAd39f5af4918215610f2e575b8a92610f03575b50606001516001600160401b0390911690610c43908483613d7e565b610c67575b5050906106cc6000805160206141aa8339815191529361ffff936107e4565b909350600193610c8b610c8487600052600f602052604060002090565b92836136d0565b88825460095414610c9d575b50610c48565b9194909392610cbe610cb9610cb0613715565b97898952613765565b613e2a565b60209081880152610cd78161086c6105eb60075461027e565b03915afa908115610ef6575b8591610ed9575b506040888101919091525162b1278360e01b81526001600160a01b039190818189817f000000000000000000000000000000000000000000000000000000000000000087165afa918215610ecc575b8692610eaf575b5050169460408501968751610d5481611688565b610d5d81611688565b610e2b57863b15610a06576000805160206141aa83398151915297610daf868361ffff9a60008051602061418a833981519152966106cc9a6040518096819582946361ba6c3d60e01b845283016137fa565b03925af18015610e1e575b610e0b575b505b5190610dcc82611688565b610ddb6040519283928361380a565b0390a1610dea6109ac88610f87565b610e016109d088600052600f602052604060002090565b9293509388610c97565b806109ed610e1892611efe565b38610dbf565b610e26611fc5565b610dba565b863b15610a06576000805160206141aa83398151915297610e79868361ffff9a60008051602061418a833981519152966106cc9a604051809681958294637d490caf60e01b845283016137fa565b03925af18015610ea2575b610e8f575b50610dc1565b806109ed610e9c92611efe565b38610e89565b610eaa611fc5565b610e84565b610ec59250803d10610552576105448183611f8a565b3880610d40565b610ed4611fc5565b610d39565b610ef09150823d8411610ade57610ad08183611f8a565b38610cea565b610efe611fc5565b610ce3565b610c43919250610f2360609160803d608011610bc657610bae8183611f8a565b505050929150610c27565b610f36611fc5565b610c20565b610f5d915060803d608011610f63575b610f558183611f8a565b810190613628565b3861062d565b503d610f4b565b610f72611fc5565b610626565b600052600e602052604060002090565b600052600d602052604060002090565b6001600160401b031690565b503461000e57604036600319011261000e5760243560043560005260106020526040600020805482101561000e57608091610fdd91610361565b50546040519060018060401b038082168352808260401c16602084015281841c16604083015260c01c6060820152f35b503461000e57608036600319011261000e57602435600481101561000e57604051637622567960e11b81526110b1916110a191611091906001600160a01b03906020816004817f000000000000000000000000000000000000000000000000000000000000000086165afa9081156110d3575b6000916110b5575b50163314612213565b606435906044359060043561259a565b6040519081529081906020820190565b0390f35b6110cd915060203d8111610552576105448183611f8a565b38611088565b6110db611fc5565b611080565b503461000e57600036600319011261000e576006546040516001600160a01b039091168152602090f35b503461000e576000806003193601126113245761118361123160018060a01b03807f0000000000000000000000000000000000000000000000000000000000000000166040516312d43a5160e01b90818152836020968795838781600482978a5afa908115611317575b8b916113005750163314611fd2565b604051633fb393ab60e21b81528281600481885afa9081156112f3575b89916112d6575b50169160046040518095819382525afa9182156112c9575b86926112aa575b506040516370a0823160e01b8152918383806111e53060048301610387565b0381855afa92831561129d575b879361127e575b5060405163a9059cbb60e01b81526001600160a01b039091166004820152602481019290925290928391908290879082906044820190565b03925af18015611271575b611244578280f35b8161126392903d1061126a575b61125b8183611f8a565b810190612a6c565b5038808280f35b503d611251565b611279611fc5565b61123c565b611296919350843d8611610ade57610ad08183611f8a565b91386111f9565b6112a5611fc5565b6111f2565b6112c2919250833d8511610552576105448183611f8a565b90386111c6565b6112d1611fc5565b6111bf565b6112ed9150833d8511610552576105448183611f8a565b386111a7565b6112fb611fc5565b6111a0565b61054c9150853d8711610552576105448183611f8a565b61131f611fc5565b611174565b80fd5b503461000e57602036600319011261000e576000805160206141ca83398151915260406004356113a782516312d43a5160e01b815260018060a01b0390602081600481857f0000000000000000000000000000000000000000000000000000000000000000165afa9081156113dd575b6000916113c55750163314611fd2565b6113b2811515612009565b80600b55815190600082526020820152a1005b61054c915060203d8111610552576105448183611f8a565b6113e5611fc5565b611397565b503461000e57604036600319011261000e57602435600435600052600f6020526040600020805482101561000e5760209161142491610361565b90546040519160031b1c8152f35b503461000e57602036600319011261000e5760043561145081610453565b6040516312d43a5160e01b81526001600160a01b03906114ae9082906020816004817f000000000000000000000000000000000000000000000000000000000000000086165afa9081156113dd576000916113c55750163314611fd2565b81166114bb811515612009565b600a549060148210156115595760005b82811061151c577fadfedad3d82b3775bf2dbea70a01327d1f26c0b868eb8ce0963a6e9af1003e85846114fd816120c6565b611508600a54612134565b6115176040519283928361215a565b0390a1005b8061154f836115486105eb61153361155496610338565b905460039190911b1c6001600160a01b031690565b1415612089565b61206d565b6114cb565b60405162461bcd60e51b815260206004820152601060248201526f4d41585f4f5241434c455f4e4f44455360801b6044820152606490fd5b503461000e57602036600319011261000e5760043563ffffffff81169081810361000e576040516312d43a5160e01b81527fc99f383ecd620c333255bd2aef929eedd6808999bac9bfc5f53e10d876abf1ce926020929091611637906001600160a01b039085816004817f000000000000000000000000000000000000000000000000000000000000000086165afa9081156105595760009161052c5750163314611fd2565b61164561384083111561412f565b6006805463ffffffff60a01b191660a09290921b63ffffffff60a01b16919091179055604051908152a1005b50634e487b7160e01b600052602160045260246000fd5b6004111561169257565b61169a611671565b565b9060048210156116a95752565b6116b1611671565b52565b503461000e57602036600319011261000e57600435600052600d60205260a060406000205460ff6040519161ffff8116835260018060701b038160101c16602084015261170960408401838360801c1661169c565b818160881c161515606084015260901c1615156080820152f35b503461000e57604036600319011261000e576020611745602435600435613a7b565b604051908152f35b503461000e57600036600319011261000e576020600954604051908152f35b503461000e57602036600319011261000e577f2504020720d4f3f4c5a7010cde1f1e76e9a22857f308ef695d666ed1237bf8a460206004356117ad81610453565b6040516312d43a5160e01b81526001600160a01b03919061180b90839085816004817f000000000000000000000000000000000000000000000000000000000000000086165afa9081156105595760009161052c5750163314611fd2565b16611817811515612009565b600880546001600160a01b03191682179055604051908152a1005b503461000e5760208060031936011261000e576115177fb9c36e5afdbe55e259bdc128e25c13a15f33271cc71599ce0df510b21c3e8da99161197e6004359161187a83610453565b6040516312d43a5160e01b81526001600160a01b03906118d890829084816004817f000000000000000000000000000000000000000000000000000000000000000086165afa9081156119b6575b6000916113005750163314611fd2565b6118e5818516151561412f565b600680546001600160a01b0319166001600160a01b0386161790556004826119116105eb60065461027e565b604051630dfe168160e01b815292839182905afa9283156119a9575b60009361198a575b50506006805460ff60c01b19169282167f00000000000000000000000000000000000000000000000000000000000000009092169190911460c01b60ff60c01b16919091179055565b60405191829182610387565b6119a1929350803d10610552576105448183611f8a565b903880611935565b6119b1611fc5565b61192d565b6119be611fc5565b6118c8565b503461000e57602036600319011261000e57600435600052600e6020526020604060002054604051908152f35b503461000e57602036600319011261000e576000805160206141ca8339815191526040600435611a6f82516312d43a5160e01b815260018060a01b0390602081600481857f0000000000000000000000000000000000000000000000000000000000000000165afa9081156113dd576000916113c55750163314611fd2565b611a7a811515612009565b80600c55815190600182526020820152a1005b503461000e57602036600319011261000e57600754604051638251135b60e01b815260048035908201526020918290829060249082906001600160a01b03165afa908115611b04575b600091611ae7575b50604051908152f35b611afe9150823d8111610ade57610ad08183611f8a565b38611ade565b611b0c611fc5565b611ad6565b503461000e5760208060031936011261000e576040516312d43a5160e01b8152600480359291611b87916001600160a01b03919084908290817f000000000000000000000000000000000000000000000000000000000000000086165afa908115611c3b575b600091611c245750163314611fd2565b60018210611bf257600180831603611bc7577f230365d79885046a48c9158f0e4840ab95929bbebf5de4be23f7ce5f91a97c65611517836110a181600955565b6064906040519062461bcd60e51b82526004820152600460248201526322ab22a760e11b6044820152fd5b6064906040519062461bcd60e51b82526004820152600b60248201526a4d494e5f414e535745525360a81b6044820152fd5b61054c9150843d8611610552576105448183611f8a565b611c43611fc5565b611b77565b503461000e57600036600319011261000e576040517f00000000000000000000000000000000000000000000000000000000000000006001600160a01b03168152602090f35b503461000e57604036600319011261000e57611daa602435611d82600435611cb583610453565b6040516312d43a5160e01b81527f945eb5535c35fb8b656c5c6b7d8bb9d9deba3a44d202bd2b53d58aac4f43db04906060906001600160a01b0390611d389082906020816004817f000000000000000000000000000000000000000000000000000000000000000086165afa9081156113dd576000916113c55750163314611fd2565b600a54841090611d4782612173565b80871691611d56831515612009565b15611dac575b600a600052846020600020015416906040519185835260208301526040820152a1610338565b9080546001600160a01b0360039390931b83811b80199092169390941690931b909216179055565b005b611db4610321565b611d5c565b503461000e5760208060031936011261000e57611eb890611d82611eb2600435926040516312d43a5160e01b8152611e3460018060a01b0382848160048496857f0000000000000000000000000000000000000000000000000000000000000000165afa9081156119b6576000916113005750163314611fd2565b7f03082ced7b8d3c831a021af877c172ae1e0257c3522a135e4d71613438461156611e88600a5492838810611e6881612173565b15611eda575b600a6000528785600020015416604051918291898361215a565b0390a16000199181808401818111611ecd575b1015611ec0575b600a60005260002001015461027e565b91610338565b611daa6121ad565b611ec8610321565b611ea2565b611ed5612056565b611e9b565b611ee2610321565b611e6e565b50634e487b7160e01b600052604160045260246000fd5b6001600160401b038111611f1157604052565b611f19611ee7565b604052565b60a081019081106001600160401b03821117611f1157604052565b608081019081106001600160401b03821117611f1157604052565b604081019081106001600160401b03821117611f1157604052565b606081019081106001600160401b03821117611f1157604052565b601f909101601f19168101906001600160401b03821190821017611f1157604052565b9081602091031261000e5751611fc281610453565b90565b506040513d6000823e3d90fd5b15611fd957565b60405162461bcd60e51b8152602060048201526008602482015267474f565f4f4e4c5960c01b6044820152606490fd5b1561201057565b60405162461bcd60e51b8152602060048201526007602482015266056414c55455f360cc1b6044820152606490fd5b50634e487b7160e01b600052601260045260246000fd5b50634e487b7160e01b600052601160045260246000fd5b600190600019811461207d570190565b612085612056565b0190565b1561209057565b60405162461bcd60e51b815260206004820152600e60248201526d1053149150511657d31254d5115160921b6044820152606490fd5b600a54600160401b811015612127575b6001810180600a5581101561211a575b600a60005260008051602061416a8339815191520180546001600160a01b0319166001600160a01b03909216919091179055565b612122610321565b6120e6565b61212f611ee7565b6120d6565b60001981019190821161214357565b61169a612056565b601f1981019190821161214357565b9081526001600160a01b03909116602082015260400190565b1561217a57565b60405162461bcd60e51b815260206004820152600b60248201526a0aea49e9c8ebe929c888ab60ab1b6044820152606490fd5b600a5480156121fd5760001981810191808310156121f0575b600a6000819052910160008051602061416a8339815191520180546001600160a01b031916905555565b6121f8610321565b6121c6565b634e487b7160e01b600052603160045260246000fd5b1561221a57565b60405162461bcd60e51b815260206004820152600c60248201526b54524144494e475f4f4e4c5960a01b6044820152606490fd5b1561225557565b60405162461bcd60e51b815260206004820152600d60248201526c504149525f4f564552464c4f5760981b6044820152606490fd5b6040519061169a82611f1e565b60005b8381106122aa5750506000910152565b818101518382015260200161229a565b81601f8201121561000e5780516001600160401b03811161230c575b604051926122ee601f8301601f191660200185611f8a565b8184526020828401011161000e57611fc29160208085019101612297565b612314611ee7565b6122d6565b91909160808184031261000e5780516001600160401b039081811161000e57846123449184016122ba565b93602083015191821161000e5761235c9183016122ba565b916060604083015192015190565b6040519061237782611f54565b600482526366726f6d60e01b6020830152565b6040519061239782611f54565b6002825261746f60f01b6020830152565b604051906123b582611f54565b600982526866726f6d426c6f636b60b81b6020830152565b60405190600a548083528260209182820190600a60005283600020936000905b8282106124035750505061169a92500383611f8a565b85546001600160a01b0316845260019586019588955093810193909101906123ed565b8115612430570490565b61243861203f565b0490565b1561244357565b60405162461bcd60e51b815260206004820152600d60248201526c4c494e4b5f4f564552464c4f5760981b6044820152606490fd5b60048210156116a95752565b8151815460208401516001600160801b0319821661ffff9390931692831760109190911b62010000600160801b03169081178455604085015161169a9561252494608094919391926124d581611688565b600481101561253e575b6001600160881b0319909316171790831b60ff841b16178455606081015161251d901515855460ff60881b191690151560881b60ff60881b16178555565b0151151590565b815460ff60901b191690151560901b60ff60901b16179055565b612546611671565b6124df565b6020918151811015612560575b60051b010190565b612568610321565b612558565b9390959491926080936125848660a081019961169c565b6020860152604085015260608401521515910152565b90919261ffff926125ad8484111561224e565b6125b681611688565b6002811480156127da575b80156127d157600c54925b6125d63085612925565b956125e56105eb60075461027e565b604051630c0be07f60e21b81526004810188905298906000908a90602490829084905af19788156127c4575b6000809a819a612786575b5061264861267398999a9b61263a889361263461236a565b866127ed565b61264261238a565b846127ed565b61276f575b90899593969492916126e28a6126b86126786126676123cd565b9586519a8b9185613a7b565b612426565b956001600160701b03906126a690612692838a111561243c565b61269a61228a565b9416849061ffff169052565b86166001600160701b03166020830152565b6126c58760408301612478565b6001606082015285151560808201526126dd89610f87565b612484565b60005b86811061272957505050907ffadf91896d9352ab1e350a349050907f966d8ea7f38c1a5be50f2a379ef4fcbe9495612723926040519586958661256d565b0390a490565b83949698959761275f61275a859685612755612748876001999a61254b565b516001600160a01b031690565b6129c7565b610f77565b550191908a9694979593926126e5565b6127818461277b6123a8565b83612806565b61264d565b61263a9b5061267398999a506127b26126489188933d8091833e6127aa8183611f8a565b810190612319565b919e50909c9b9a5090925061261c9050565b6127cc611fc5565b612611565b600b54926125cc565b506127e481611688565b600381146125c1565b608001805161169a939261280091613556565b51613556565b60806128159101918251613556565b51906001600160401b0380821115612831575061169a91613447565b81166017811161284d57509060ff61284a921690613053565b50565b905060ff811161286a578161286461284a93612d7a565b506133d2565b61ffff8111612886578161288061284a93612d29565b5061335c565b63ffffffff81116128a4578161289e61284a93612cd8565b506132e4565b816128b161284a93612c6c565b5061325c565b60408051919082016001600160401b038111838210176128e2575b6040526000602083606081520152565b6128ea611ee7565b6128d2565b604051906128fc82611f1e565b816000815260006020820152600060408201526000606082015260806129206128b7565b910152565b9061292e6128ef565b506129376128ef565b916129406128ef565b5061012060808401516129516128b7565b5061010060208201526040518091526000815201604052825260018060a01b031660208201526321abc2af60e11b604082015290565b906020820180921161214357565b9190820180921161214357565b906020916129bb81518092818552858086019101612297565b601f01601f1916010190565b600454611fc2939160018201808311612a5f575b600455612a5a8451612a4c608063ffffffff60e01b604089015116970151516040519788936320214ca360e11b60208601526000602486015260006044860152606485015230608485015260a48401528560c4840152600160e48401526101006101048401526101248301906129a2565b03601f198101865285611f8a565b612b00565b612a67612056565b6129db565b9081602091031261000e5751801515810361000e5790565b611fc2939260609260018060a01b03168252602082015281604082015201906129a2565b15612aaf57565b60405162461bcd60e51b815260206004820152602360248201527f756e61626c6520746f207472616e73666572416e6443616c6c20746f206f7261604482015262636c6560e81b6064820152608490fd5b61169a929493602091612bc2936040518481019160018060601b03193060601b168352603482015260348152612b3581611f6f565b51902096612b7082612b518a6000526005602052604060002090565b80546001600160a01b0319166001600160a01b03909216919091179055565b60006040518096819582948c7fb5e6e01e79f91267dc17b4e6314d5d4d03593d2ceee0fbb452b750bd70ea5af98680a2612bae6105eb60025461027e565b630200057560e51b85529660048501612a84565b03925af1908115612bfa575b600091612bdc575b50612aa8565b612bf4915060203d811161126a5761125b8183611f8a565b38612bd6565b612c02611fc5565b612bce565b90612c106128b7565b50601f811680612c36575b50806020830152604051808352600081520160200160405290565b60200360208111612c5f575b8101809111612c52575b38612c1b565b612c5a612056565b612c4c565b612c67612056565b612c42565b612c746128b7565b50805151612c806128b7565b50602082015180821015612cb2575b50815190815181601b602083948601015314612caa57505090565b600101905290565b612cbe612cd1916130b7565b612cca84519185612c07565b508361316d565b5038612c8f565b612ce06128b7565b50805151612cec6128b7565b50602082015180821015612d16575b50815190815181601a602083948601015314612caa57505090565b612cbe612d22916130b7565b5038612cfb565b612d316128b7565b50805151612d3d6128b7565b50602082015180821015612d67575b508151908151816019602083948601015314612caa57505090565b612cbe612d73916130b7565b5038612d4c565b612d826128b7565b50805151612d8e6128b7565b50602082015180821015612db8575b508151908151816018602083948601015314612caa57505090565b612cbe612dc4916130b7565b5038612d9d565b612dd36128b7565b50805151612ddf6128b7565b50602082015180821015612e09575b50815190815181605b602083948601015314612caa57505090565b612cbe612e15916130b7565b5038612dee565b612e246128b7565b50805151612e306128b7565b50602082015180821015612e5a575b50815190815181605a602083948601015314612caa57505090565b612cbe612e66916130b7565b5038612e3f565b612e756128b7565b50805151612e816128b7565b50602082015180821015612eab575b508151908151816059602083948601015314612caa57505090565b612cbe612eb7916130b7565b5038612e90565b612ec66128b7565b50805151612ed26128b7565b50602082015180821015612efc575b508151908151816058602083948601015314612caa57505090565b612cbe612f08916130b7565b5038612ee1565b612f176128b7565b50805151612f236128b7565b50602082015180821015612f4d575b50815190815181607b602083948601015314612caa57505090565b612cbe612f59916130b7565b5038612f32565b612f686128b7565b50805151612f746128b7565b50602082015180821015612f9e575b50815190815181607a602083948601015314612caa57505090565b612cbe612faa916130b7565b5038612f83565b612fb96128b7565b50805151612fc56128b7565b50602082015180821015612fef575b508151908151816079602083948601015314612caa57505090565b612cbe612ffb916130b7565b5038612fd4565b61300a6128b7565b508051516130166128b7565b50602082015180821015613040575b508151908151816078602083948601015314612caa57505090565b612cbe61304c916130b7565b5038613025565b9061305c6128b7565b508151516130686128b7565b50602083015180821015613091575b5082519182519182916020828601015314612caa57505090565b61309d6130b0916130b7565b6130a985519186612c07565b508461316d565b5038613077565b908160011b918083046002149015171561214357565b906305f5e1009182810292818404149015171561214357565b8181029291811591840414171561214357565b9061284a918051918061310a6128b7565b50601f811680613133575b5050806020830152604051808352600081520160200160405261316d565b90915060200360208111613160575b8101809111613153575b3880613115565b61315b612056565b61314c565b613168612056565b613142565b906131766128b7565b50815151908051906131866128b7565b506131948151831115613245565b61319e8284612995565b60209182918287015180911161321a575b5085518051908387820101968601918211613212575b505001915b818110156131ec5760001991036101000a019081199051169082511617905290565b919261320761320161320d9286518152612987565b94612987565b9261214b565b6131ca565b5238806131c5565b61323961323461323f9261322e8989612995565b9061324c565b6130b7565b876130f9565b386131af565b1561000e57565b818111613257575090565b905090565b906132656128b7565b50815151906132726128b7565b5081600801806008116132d7575b602084015181116132bf575b508251828101600890810180516001600160401b0319169093179092528051929091019182116132bb57505090565b5290565b6132cb6132d1916130b7565b846130f9565b3861328c565b6132df612056565b613280565b906132ed6128b7565b50815151906132fa6128b7565b50816004018060041161334f575b6020840151811161333d575b508251906004838301019063ffffffff198251161790526004815192019182116132bb57505090565b6132cb613349916130b7565b38613314565b613357612056565b613308565b906133656128b7565b50815151906133726128b7565b5081600201806002116133c5575b602084015181116133b3575b508251906002838301019061ffff198251161790526002815192019182116132bb57505090565b6132cb6133bf916130b7565b3861338c565b6133cd612056565b613380565b906133db6128b7565b50815151906133e86128b7565b50816001018060011161343a575b60208401518111613428575b508251906001838301019060ff198251161790526001815192019182116132bb57505090565b6132cb613434916130b7565b38613402565b613442612056565b6133f6565b9061284a916134546128b7565b508051516134606128b7565b50602082015180821015613543575b5081519081518160c2602083948601015314613537575b50506040519160208301526020825261349e82611f54565b81516001600160401b038116601781116134c95750604060ff6134c392161782613053565b5061316d565b905060ff81116134e7576134c3906134e083612ebe565b50826133d2565b61ffff8111613504576134c3906134fd83612e6d565b508261335c565b63ffffffff8111613523576134c39061351c83612e1c565b50826132e4565b6134c39061353083612dcb565b508261325c565b60010190523880613486565b612cbe61354f916130b7565b503861346f565b815161284a9291906001600160401b038116601781116135815750606060ff6134c392161782613053565b905060ff8111613598576134c3906134e083613002565b61ffff81116135ae576134c3906134fd83612fb1565b63ffffffff81116135c6576134c39061351c83612f60565b6134c39061353083612f0f565b906040516135e081611f1e565b608060ff82945461ffff8116845260018060701b038160101c1660208501526136108282851c1660408601612478565b818160881c161515606085015260901c161515910152565b9081608091031261000e576040519061364082611f39565b805161364b81610453565b8252602081015161365b81610453565b6020830152604081015190600382101561000e5760609160408401520151606082015290565b51906001600160401b038216820361000e57565b919082608091031261000e576136aa82613681565b916136b760208201613681565b91611fc260606136c960408501613681565b9301613681565b80546136ee91600160401b821015613708575b600182018155610361565b819291549060031b600019811b9283911b16911916179055565b613710611ee7565b6136e3565b6040519060c082016001600160401b03811183821017613758575b6040528160a06000918281528260208201528260408201528260608201528260808201520152565b613760611ee7565b613730565b9060405191828154918282526020928383019160005283600020936000905b82821061379a5750505061169a92500383611f8a565b855484526001958601958895509381019390910190613784565b9081602091031261000e575190565b60a0809180518452602081015160208501526040810151604085015260608101516060850152608081015160808501520151910152565b60c08101929161169a91906137c3565b9160c061169a9294936138218160e08101976137c3565b019061169c565b8054906000908181558261383b57505050565b815260208120918201915b82811061385257505050565b818155600101613846565b6040519061386a82611f39565b60006060838281528260208201528260408201520152565b6001600160401b039091169052565b1561389857565b60405162461bcd60e51b815260206004820152600e60248201526d494e56414c49445f43414e444c4560901b6044820152606490fd5b80546138eb91600160401b82101561370857600182018155610361565b613972578151815460208401516040808601516001600160c01b03199093166001600160401b039490941693909317921b600160401b600160801b03169190911760809190911b600160801b600160c01b031617815561169a916139529060600151610f97565b81546001600160c01b031660c09190911b6001600160c01b031916179055565b634e487b7160e01b600052600060045260246000fd5b6020906001600160401b0381116139a1575b60051b0190565b6139a9611ee7565b61399a565b9081546139ba81613988565b926040936139ca85519182611f8a565b828152809460208092019260005281600020906000935b8585106139f057505050505050565b60018481928451613a0081611f39565b8654848060401b0380821683528082891c16858401528160801c168783015260c01c60608201528152019301940193916139e1565b51906001600160501b038216820361000e57565b908160a091031261000e57613a5d81613a35565b91602082015191604081015191611fc2608060608401519301613a35565b613b176004611fc293613b229360a0613a986105eb60085461027e565b604051633fabe5a360e21b815294859182905afa928315613b9a575b600093613b54575b5061267391613af86020613b1293613ad86105eb60075461027e565b604051808095819463f7acbabd60e01b8352600483019190602083019252565b03915afa908115613b47575b600091613b29575b506130e6565b6130cd565b6402540be400900490565b6064900490565b613b41915060203d8111610ade57610ad08183611f8a565b38613b0c565b613b4f611fc5565b613b04565b613b1291935091613af86020613b836126739560a03d8111613b93575b613b7b8183611f8a565b810190613a49565b5050509050959350505091613abc565b503d613b71565b613ba2611fc5565b613ab4565b6003111561169257565b906402540be4009182810292818405149015171561214357565b8015613bdf575b670de0b6b3a76400000590565b613be761203f565b613bd2565b8115613c14575b600160ff1b8114600019831416613c08570590565b613c10612056565b0590565b613c1c61203f565b613bf3565b80516001600160a01b0390613c359061027e565b168015613d77576000906040518093633fabe5a360e21b9283835282600460a09485935afa948515613d6a575b8495613d46575b50604081018051613c7981613ba7565b613c8281613ba7565b613ca1575050505050613c97611fc291613bb1565b6305f5e100900590565b60019051613cae81613ba7565b613cb781613ba7565b03613cc95750505050611fc290613bcb565b9080613ce36105eb6105eb6020611fc2999796015161027e565b9260046040518095819382525afa938415613d39575b93613d0f575b5050613d0a90613bb1565b613bec565b613d0a9293509081613d2c92903d10613b9357613b7b8183611f8a565b5050509050919038613cff565b613d41611fc5565b613cf9565b613d5e919550823d8411613b9357613b7b8183611f8a565b50505090509338613c69565b613d72611fc5565b613c62565b5050600090565b91908215928315613e21575b8315613d97575b50505090565b919250613de391818110613e0f57818103908111613e02575b64e8d4a510006402540be40091828102928184041481151715613df5575b029080820460641490151715613ded57612426565b1115388080613d91565b612673612056565b613dfd612056565b613dce565b613e0a612056565b613db0565b810381811115613db057613e0a612056565b81159350613d8a565b613e378151600083613eaa565b805160018116613e985750613e6d613e60825160011c6000198101908111613e8b575b8361254b565b5191805160011c9061254b565b518101809111613e7e575b60011c90565b613e86612056565b613e78565b613e93612056565b613e5a565b90613ea69160011c9061254b565b5190565b919081811015613f5e5780613ebf818561254b565b5160018201808311613f51575b9083915b858110613f0b57505081613ee882613eee9488613f63565b85613eaa565b61169a926001820180921115613eaa57613f06612056565b613eaa565b90809250613f19828861254b565b5110613f31575b613f299061206d565b908391613ed0565b92613f3e613f299161206d565b93613f4a858289613f63565b9050613f20565b613f59612056565b613ecc565b505050565b906116b191613f72848261254b565b5193613f89613f81848461254b565b51918361254b565b5261254b565b90613f9982613988565b613fa66040519182611f8a565b8281528092613fb7601f1991613988565b0190602036910137565b90815190613fce82613f8f565b92613fd883613f8f565b93613fe284613f8f565b9160005b8581106140b4575050613ffb84600083613eaa565b61400784600087613eaa565b61401384600084613eaa565b60018416159360011c9081856000146140a5576140519161404a8261404361403d613e7895612134565b8461254b565b519261254b565b5190612995565b94818515614096576140709161404a8261404361403d613e7895612134565b931561408d57611fc29161404a8261404361403d613e7895612134565b613ea69161254b565b61409f9161254b565b51614070565b6140ae9161254b565b51614051565b806140d5610b216140c76001948661254b565b51516001600160401b031690565b6140df828661254b565b52614101610b2160206140f2848761254b565b5101516001600160401b031690565b61410b828a61254b565b5261411e610b2160406140f2848761254b565b614128828761254b565b5201613fe6565b1561413657565b60405162461bcd60e51b815260206004820152600b60248201526a57524f4e475f56414c554560a81b6044820152606490fdfec65a7bb8d6351c1cf70c95a316cc6a92839c986682d98bc35f958f4883f9d2a8ce3ae2fe07e497ba552d6485a40eed46cfb3320f001027891efeb1128dba0350dc6ff5906123aad281d8e734bb64101cea661d614a568b9bca20e7ac2ae7f354764c19c693af0da42ec6c6bed68a2dd1a2fa93d24785fcfce58ffa29ae313606a164736f6c6343000811000a",
  "deployedBytecode": "0x60806040526004361015610013575b600080fd5b60003560e01c8062912b371461026a57806303f39a161461026157806316fff074146102585780631c53c2801461024f57806335b03c17146102465780633c1d5df01461023d5780633c88e8821461023457806340e9eda21461022b5780634162cc88146102225780634357855e146102195780634c37a9d6146102105780636938c05d146102075780636c83b3d7146101fe5780636f37d263146101f557806385f276b8146101ec57806393d7fe2c146101e35780639d95f1cc146101da578063a500775e146101d1578063a85c38ef146101c8578063b9e0336f146101bf578063bea16758146101b6578063d31273ca146101ad578063da4ae8ef146101a4578063dcdfb4311461019b578063e0bb91c214610192578063e21e5fe014610189578063f5ed447c14610180578063fc0c546a14610177578063fd2882801461016e5763ffd740df1461016657600080fd5b61000e611db9565b5061000e611c8e565b5061000e611c48565b5061000e611b11565b5061000e611a8d565b5061000e6119f0565b5061000e6119c3565b5061000e611832565b5061000e61176c565b5061000e61174d565b5061000e611723565b5061000e6116b4565b5061000e611591565b5061000e611432565b5061000e6113ea565b5061000e611327565b5061000e61110a565b5061000e6110e0565b5061000e61100d565b5061000e610fa3565b5061000e610593565b5061000e610566565b5061000e610464565b5061000e610436565b5061000e61040e565b5061000e6103e4565b5061000e61039a565b5061000e6102db565b5061000e6102b4565b5061000e61028a565b600091031261000e57565b6001600160a01b031690565b503461000e57600036600319011261000e576008546040516001600160a01b039091168152602090f35b503461000e57600036600319011261000e57602060ff60065460c01c166040519015158152f35b503461000e57600036600319011261000e576040517f00000000000000000000000000000000000000000000000000000000000000006001600160a01b03168152602090f35b50634e487b7160e01b600052603260045260246000fd5b600a54811015610354575b600a60005260206000200190600090565b61035c610321565b610343565b805482101561037a575b60005260206000200190600090565b610382610321565b61036b565b6001600160a01b03909116815260200190565b503461000e57602036600319011261000e57600435600a5481101561000e57600a60005260008051602061416a83398151915201546040516001600160a01b039091168152602090f35b503461000e57600036600319011261000e576007546040516001600160a01b039091168152602090f35b503461000e57600036600319011261000e57602063ffffffff60065460a01c16604051908152f35b503461000e57600036600319011261000e57602060405160008152f35b6001600160a01b0381160361000e57565b503461000e57602036600319011261000e577f477e87af277e7755f85267ef7c6b77cd28610c2c8c2923acdf55fa5b63f18b7760206004356104a581610453565b6040516312d43a5160e01b81526001600160a01b03919061050590839085816004817f000000000000000000000000000000000000000000000000000000000000000086165afa908115610559575b60009161052c575b50163314611fd2565b16610511811515612009565b600780546001600160a01b03191682179055604051908152a1005b61054c9150863d8111610552575b6105448183611f8a565b810190611fad565b386104fc565b503d61053a565b610561611fc5565b6104f4565b503461000e57602036600319011261000e57600435600281101561000e57602090600b0154604051908152f35b503461000e57604036600319011261000e57600460243581356105b581610f77565b54600093846105c384610f77565b556105d56105d083610f87565b6135d3565b85918661061a60806105f06105eb60075461027e565b61027e565b855161ffff169060405180809581946307aa801760e21b835289830161ffff909116815260200190565b03915afa908115610f6a575b8291610f3b575b5061063781613c21565b926106456060860151151590565b6106d2575b505050906106cc6000805160206141aa8339815191529361ffff93610671845161ffff1690565b602085015160809095015190946001600160701b0316901515604080519a8b5260208b019b909b52998901919091526001600160701b03166060880152961515608087015295151560a08601521693339390819060c0820190565b0390a480f35b608085015115610bda576106e461385d565b918461070a60808c6040518093819263635e061d60e11b83528883019190602083019252565b038173__$0a787ca790b72760fa5f2fae68e461a66f$__5af4908115610bcd575b869087908893610b85575b50869493929161076961076f9261076360209b61075d8d8b0197606060408d019c01613882565b89613882565b84613882565b87613882565b6107b860606107aa60018060401b03938461078a8251610f97565b16801580610b71575b8015610b13575b6107a49150613891565b51610f97565b940193838386519216613d7e565b9384610af2575b505050506107f1575b505050906106cc6000805160206141aa8339815191529361ffff935b929381955089925061064a565b9091945088600195610817610810896000526010602052604060002090565b94856138ce565b835460095414610828575b506107c8565b61084b61084661083d98949796939598613715565b988a8a526139ae565b613fc1565b60a08a0152608089015260608801526108968161086c6105eb60075461027e565b875161ffff1690604051808095819463a1d54e9b60e01b83528d830161ffff909116815260200190565b03915afa908115610ae5575b8591610ab8575b506040888101919091525162b1278360e01b81526001600160a01b039190818189817f000000000000000000000000000000000000000000000000000000000000000087165afa918215610aab575b8692610a8e575b5050169460408501966002885161091581611688565b61091e81611688565b03610a0a57863b15610a06576000805160206141aa83398151915297610971868361ffff9a60008051602061418a833981519152966106cc9a60405180968195829463168fdc8160e31b845283016137fa565b03925af180156109f9575b6109e0575b505b519061098e82611688565b61099d6040519283928361380a565b0390a16109b96109ac88610f87565b805460ff60881b19169055565b6109d56109d0886000526010602052604060002090565b613828565b929350938838610822565b806109ed6109f392611efe565b80610273565b38610981565b610a01611fc5565b61097c565b8480fd5b863b15610a06576000805160206141aa83398151915297610a58868361ffff9a60008051602061418a833981519152966106cc9a6040518096819582946323f7197b60e01b845283016137fa565b03925af18015610a81575b610a6e575b50610983565b806109ed610a7b92611efe565b38610a68565b610a89611fc5565b610a63565b610aa49250803d10610552576105448183611f8a565b38806108ff565b610ab3611fc5565b6108f8565b610ad89150823d8411610ade575b610ad08183611f8a565b8101906137b4565b386108a9565b503d610ac6565b610aed611fc5565b6108a2565b610b0a9450610b019051610f97565b92519216613d7e565b388581806107bf565b50610b26610b218c51610f97565b610f97565b809110159081610b5b575b5080610b41575b6107a49061079a565b506107a4610b52610b218a51610f97565b15159050610b38565b905085610b688a51610f97565b16111538610b31565b50610b7f610b218a51610f97565b15610793565b61076f985087959493506107699250610bb6915060803d608011610bc6575b610bae8183611f8a565b810190613695565b9099959650939491925090610736565b503d610ba4565b610bd5611fc5565b61072b565b91506040519063635e061d60e11b825260808280610bff8c8783019190602083019252565b038173__$0a787ca790b72760fa5f2fae68e461a66f$__5af4918215610f2e575b8a92610f03575b50606001516001600160401b0390911690610c43908483613d7e565b610c67575b5050906106cc6000805160206141aa8339815191529361ffff936107e4565b909350600193610c8b610c8487600052600f602052604060002090565b92836136d0565b88825460095414610c9d575b50610c48565b9194909392610cbe610cb9610cb0613715565b97898952613765565b613e2a565b60209081880152610cd78161086c6105eb60075461027e565b03915afa908115610ef6575b8591610ed9575b506040888101919091525162b1278360e01b81526001600160a01b039190818189817f000000000000000000000000000000000000000000000000000000000000000087165afa918215610ecc575b8692610eaf575b5050169460408501968751610d5481611688565b610d5d81611688565b610e2b57863b15610a06576000805160206141aa83398151915297610daf868361ffff9a60008051602061418a833981519152966106cc9a6040518096819582946361ba6c3d60e01b845283016137fa565b03925af18015610e1e575b610e0b575b505b5190610dcc82611688565b610ddb6040519283928361380a565b0390a1610dea6109ac88610f87565b610e016109d088600052600f602052604060002090565b9293509388610c97565b806109ed610e1892611efe565b38610dbf565b610e26611fc5565b610dba565b863b15610a06576000805160206141aa83398151915297610e79868361ffff9a60008051602061418a833981519152966106cc9a604051809681958294637d490caf60e01b845283016137fa565b03925af18015610ea2575b610e8f575b50610dc1565b806109ed610e9c92611efe565b38610e89565b610eaa611fc5565b610e84565b610ec59250803d10610552576105448183611f8a565b3880610d40565b610ed4611fc5565b610d39565b610ef09150823d8411610ade57610ad08183611f8a565b38610cea565b610efe611fc5565b610ce3565b610c43919250610f2360609160803d608011610bc657610bae8183611f8a565b505050929150610c27565b610f36611fc5565b610c20565b610f5d915060803d608011610f63575b610f558183611f8a565b810190613628565b3861062d565b503d610f4b565b610f72611fc5565b610626565b600052600e602052604060002090565b600052600d602052604060002090565b6001600160401b031690565b503461000e57604036600319011261000e5760243560043560005260106020526040600020805482101561000e57608091610fdd91610361565b50546040519060018060401b038082168352808260401c16602084015281841c16604083015260c01c6060820152f35b503461000e57608036600319011261000e57602435600481101561000e57604051637622567960e11b81526110b1916110a191611091906001600160a01b03906020816004817f000000000000000000000000000000000000000000000000000000000000000086165afa9081156110d3575b6000916110b5575b50163314612213565b606435906044359060043561259a565b6040519081529081906020820190565b0390f35b6110cd915060203d8111610552576105448183611f8a565b38611088565b6110db611fc5565b611080565b503461000e57600036600319011261000e576006546040516001600160a01b039091168152602090f35b503461000e576000806003193601126113245761118361123160018060a01b03807f0000000000000000000000000000000000000000000000000000000000000000166040516312d43a5160e01b90818152836020968795838781600482978a5afa908115611317575b8b916113005750163314611fd2565b604051633fb393ab60e21b81528281600481885afa9081156112f3575b89916112d6575b50169160046040518095819382525afa9182156112c9575b86926112aa575b506040516370a0823160e01b8152918383806111e53060048301610387565b0381855afa92831561129d575b879361127e575b5060405163a9059cbb60e01b81526001600160a01b039091166004820152602481019290925290928391908290879082906044820190565b03925af18015611271575b611244578280f35b8161126392903d1061126a575b61125b8183611f8a565b810190612a6c565b5038808280f35b503d611251565b611279611fc5565b61123c565b611296919350843d8611610ade57610ad08183611f8a565b91386111f9565b6112a5611fc5565b6111f2565b6112c2919250833d8511610552576105448183611f8a565b90386111c6565b6112d1611fc5565b6111bf565b6112ed9150833d8511610552576105448183611f8a565b386111a7565b6112fb611fc5565b6111a0565b61054c9150853d8711610552576105448183611f8a565b61131f611fc5565b611174565b80fd5b503461000e57602036600319011261000e576000805160206141ca83398151915260406004356113a782516312d43a5160e01b815260018060a01b0390602081600481857f0000000000000000000000000000000000000000000000000000000000000000165afa9081156113dd575b6000916113c55750163314611fd2565b6113b2811515612009565b80600b55815190600082526020820152a1005b61054c915060203d8111610552576105448183611f8a565b6113e5611fc5565b611397565b503461000e57604036600319011261000e57602435600435600052600f6020526040600020805482101561000e5760209161142491610361565b90546040519160031b1c8152f35b503461000e57602036600319011261000e5760043561145081610453565b6040516312d43a5160e01b81526001600160a01b03906114ae9082906020816004817f000000000000000000000000000000000000000000000000000000000000000086165afa9081156113dd576000916113c55750163314611fd2565b81166114bb811515612009565b600a549060148210156115595760005b82811061151c577fadfedad3d82b3775bf2dbea70a01327d1f26c0b868eb8ce0963a6e9af1003e85846114fd816120c6565b611508600a54612134565b6115176040519283928361215a565b0390a1005b8061154f836115486105eb61153361155496610338565b905460039190911b1c6001600160a01b031690565b1415612089565b61206d565b6114cb565b60405162461bcd60e51b815260206004820152601060248201526f4d41585f4f5241434c455f4e4f44455360801b6044820152606490fd5b503461000e57602036600319011261000e5760043563ffffffff81169081810361000e576040516312d43a5160e01b81527fc99f383ecd620c333255bd2aef929eedd6808999bac9bfc5f53e10d876abf1ce926020929091611637906001600160a01b039085816004817f000000000000000000000000000000000000000000000000000000000000000086165afa9081156105595760009161052c5750163314611fd2565b61164561384083111561412f565b6006805463ffffffff60a01b191660a09290921b63ffffffff60a01b16919091179055604051908152a1005b50634e487b7160e01b600052602160045260246000fd5b6004111561169257565b61169a611671565b565b9060048210156116a95752565b6116b1611671565b52565b503461000e57602036600319011261000e57600435600052600d60205260a060406000205460ff6040519161ffff8116835260018060701b038160101c16602084015261170960408401838360801c1661169c565b818160881c161515606084015260901c1615156080820152f35b503461000e57604036600319011261000e576020611745602435600435613a7b565b604051908152f35b503461000e57600036600319011261000e576020600954604051908152f35b503461000e57602036600319011261000e577f2504020720d4f3f4c5a7010cde1f1e76e9a22857f308ef695d666ed1237bf8a460206004356117ad81610453565b6040516312d43a5160e01b81526001600160a01b03919061180b90839085816004817f000000000000000000000000000000000000000000000000000000000000000086165afa9081156105595760009161052c5750163314611fd2565b16611817811515612009565b600880546001600160a01b03191682179055604051908152a1005b503461000e5760208060031936011261000e576115177fb9c36e5afdbe55e259bdc128e25c13a15f33271cc71599ce0df510b21c3e8da99161197e6004359161187a83610453565b6040516312d43a5160e01b81526001600160a01b03906118d890829084816004817f000000000000000000000000000000000000000000000000000000000000000086165afa9081156119b6575b6000916113005750163314611fd2565b6118e5818516151561412f565b600680546001600160a01b0319166001600160a01b0386161790556004826119116105eb60065461027e565b604051630dfe168160e01b815292839182905afa9283156119a9575b60009361198a575b50506006805460ff60c01b19169282167f00000000000000000000000000000000000000000000000000000000000000009092169190911460c01b60ff60c01b16919091179055565b60405191829182610387565b6119a1929350803d10610552576105448183611f8a565b903880611935565b6119b1611fc5565b61192d565b6119be611fc5565b6118c8565b503461000e57602036600319011261000e57600435600052600e6020526020604060002054604051908152f35b503461000e57602036600319011261000e576000805160206141ca8339815191526040600435611a6f82516312d43a5160e01b815260018060a01b0390602081600481857f0000000000000000000000000000000000000000000000000000000000000000165afa9081156113dd576000916113c55750163314611fd2565b611a7a811515612009565b80600c55815190600182526020820152a1005b503461000e57602036600319011261000e57600754604051638251135b60e01b815260048035908201526020918290829060249082906001600160a01b03165afa908115611b04575b600091611ae7575b50604051908152f35b611afe9150823d8111610ade57610ad08183611f8a565b38611ade565b611b0c611fc5565b611ad6565b503461000e5760208060031936011261000e576040516312d43a5160e01b8152600480359291611b87916001600160a01b03919084908290817f000000000000000000000000000000000000000000000000000000000000000086165afa908115611c3b575b600091611c245750163314611fd2565b60018210611bf257600180831603611bc7577f230365d79885046a48c9158f0e4840ab95929bbebf5de4be23f7ce5f91a97c65611517836110a181600955565b6064906040519062461bcd60e51b82526004820152600460248201526322ab22a760e11b6044820152fd5b6064906040519062461bcd60e51b82526004820152600b60248201526a4d494e5f414e535745525360a81b6044820152fd5b61054c9150843d8611610552576105448183611f8a565b611c43611fc5565b611b77565b503461000e57600036600319011261000e576040517f00000000000000000000000000000000000000000000000000000000000000006001600160a01b03168152602090f35b503461000e57604036600319011261000e57611daa602435611d82600435611cb583610453565b6040516312d43a5160e01b81527f945eb5535c35fb8b656c5c6b7d8bb9d9deba3a44d202bd2b53d58aac4f43db04906060906001600160a01b0390611d389082906020816004817f000000000000000000000000000000000000000000000000000000000000000086165afa9081156113dd576000916113c55750163314611fd2565b600a54841090611d4782612173565b80871691611d56831515612009565b15611dac575b600a600052846020600020015416906040519185835260208301526040820152a1610338565b9080546001600160a01b0360039390931b83811b80199092169390941690931b909216179055565b005b611db4610321565b611d5c565b503461000e5760208060031936011261000e57611eb890611d82611eb2600435926040516312d43a5160e01b8152611e3460018060a01b0382848160048496857f0000000000000000000000000000000000000000000000000000000000000000165afa9081156119b6576000916113005750163314611fd2565b7f03082ced7b8d3c831a021af877c172ae1e0257c3522a135e4d71613438461156611e88600a5492838810611e6881612173565b15611eda575b600a6000528785600020015416604051918291898361215a565b0390a16000199181808401818111611ecd575b1015611ec0575b600a60005260002001015461027e565b91610338565b611daa6121ad565b611ec8610321565b611ea2565b611ed5612056565b611e9b565b611ee2610321565b611e6e565b50634e487b7160e01b600052604160045260246000fd5b6001600160401b038111611f1157604052565b611f19611ee7565b604052565b60a081019081106001600160401b03821117611f1157604052565b608081019081106001600160401b03821117611f1157604052565b604081019081106001600160401b03821117611f1157604052565b606081019081106001600160401b03821117611f1157604052565b601f909101601f19168101906001600160401b03821190821017611f1157604052565b9081602091031261000e5751611fc281610453565b90565b506040513d6000823e3d90fd5b15611fd957565b60405162461bcd60e51b8152602060048201526008602482015267474f565f4f4e4c5960c01b6044820152606490fd5b1561201057565b60405162461bcd60e51b8152602060048201526007602482015266056414c55455f360cc1b6044820152606490fd5b50634e487b7160e01b600052601260045260246000fd5b50634e487b7160e01b600052601160045260246000fd5b600190600019811461207d570190565b612085612056565b0190565b1561209057565b60405162461bcd60e51b815260206004820152600e60248201526d1053149150511657d31254d5115160921b6044820152606490fd5b600a54600160401b811015612127575b6001810180600a5581101561211a575b600a60005260008051602061416a8339815191520180546001600160a01b0319166001600160a01b03909216919091179055565b612122610321565b6120e6565b61212f611ee7565b6120d6565b60001981019190821161214357565b61169a612056565b601f1981019190821161214357565b9081526001600160a01b03909116602082015260400190565b1561217a57565b60405162461bcd60e51b815260206004820152600b60248201526a0aea49e9c8ebe929c888ab60ab1b6044820152606490fd5b600a5480156121fd5760001981810191808310156121f0575b600a6000819052910160008051602061416a8339815191520180546001600160a01b031916905555565b6121f8610321565b6121c6565b634e487b7160e01b600052603160045260246000fd5b1561221a57565b60405162461bcd60e51b815260206004820152600c60248201526b54524144494e475f4f4e4c5960a01b6044820152606490fd5b1561225557565b60405162461bcd60e51b815260206004820152600d60248201526c504149525f4f564552464c4f5760981b6044820152606490fd5b6040519061169a82611f1e565b60005b8381106122aa5750506000910152565b818101518382015260200161229a565b81601f8201121561000e5780516001600160401b03811161230c575b604051926122ee601f8301601f191660200185611f8a565b8184526020828401011161000e57611fc29160208085019101612297565b612314611ee7565b6122d6565b91909160808184031261000e5780516001600160401b039081811161000e57846123449184016122ba565b93602083015191821161000e5761235c9183016122ba565b916060604083015192015190565b6040519061237782611f54565b600482526366726f6d60e01b6020830152565b6040519061239782611f54565b6002825261746f60f01b6020830152565b604051906123b582611f54565b600982526866726f6d426c6f636b60b81b6020830152565b60405190600a548083528260209182820190600a60005283600020936000905b8282106124035750505061169a92500383611f8a565b85546001600160a01b0316845260019586019588955093810193909101906123ed565b8115612430570490565b61243861203f565b0490565b1561244357565b60405162461bcd60e51b815260206004820152600d60248201526c4c494e4b5f4f564552464c4f5760981b6044820152606490fd5b60048210156116a95752565b8151815460208401516001600160801b0319821661ffff9390931692831760109190911b62010000600160801b03169081178455604085015161169a9561252494608094919391926124d581611688565b600481101561253e575b6001600160881b0319909316171790831b60ff841b16178455606081015161251d901515855460ff60881b191690151560881b60ff60881b16178555565b0151151590565b815460ff60901b191690151560901b60ff60901b16179055565b612546611671565b6124df565b6020918151811015612560575b60051b010190565b612568610321565b612558565b9390959491926080936125848660a081019961169c565b6020860152604085015260608401521515910152565b90919261ffff926125ad8484111561224e565b6125b681611688565b6002811480156127da575b80156127d157600c54925b6125d63085612925565b956125e56105eb60075461027e565b604051630c0be07f60e21b81526004810188905298906000908a90602490829084905af19788156127c4575b6000809a819a612786575b5061264861267398999a9b61263a889361263461236a565b866127ed565b61264261238a565b846127ed565b61276f575b90899593969492916126e28a6126b86126786126676123cd565b9586519a8b9185613a7b565b612426565b956001600160701b03906126a690612692838a111561243c565b61269a61228a565b9416849061ffff169052565b86166001600160701b03166020830152565b6126c58760408301612478565b6001606082015285151560808201526126dd89610f87565b612484565b60005b86811061272957505050907ffadf91896d9352ab1e350a349050907f966d8ea7f38c1a5be50f2a379ef4fcbe9495612723926040519586958661256d565b0390a490565b83949698959761275f61275a859685612755612748876001999a61254b565b516001600160a01b031690565b6129c7565b610f77565b550191908a9694979593926126e5565b6127818461277b6123a8565b83612806565b61264d565b61263a9b5061267398999a506127b26126489188933d8091833e6127aa8183611f8a565b810190612319565b919e50909c9b9a5090925061261c9050565b6127cc611fc5565b612611565b600b54926125cc565b506127e481611688565b600381146125c1565b608001805161169a939261280091613556565b51613556565b60806128159101918251613556565b51906001600160401b0380821115612831575061169a91613447565b81166017811161284d57509060ff61284a921690613053565b50565b905060ff811161286a578161286461284a93612d7a565b506133d2565b61ffff8111612886578161288061284a93612d29565b5061335c565b63ffffffff81116128a4578161289e61284a93612cd8565b506132e4565b816128b161284a93612c6c565b5061325c565b60408051919082016001600160401b038111838210176128e2575b6040526000602083606081520152565b6128ea611ee7565b6128d2565b604051906128fc82611f1e565b816000815260006020820152600060408201526000606082015260806129206128b7565b910152565b9061292e6128ef565b506129376128ef565b916129406128ef565b5061012060808401516129516128b7565b5061010060208201526040518091526000815201604052825260018060a01b031660208201526321abc2af60e11b604082015290565b906020820180921161214357565b9190820180921161214357565b906020916129bb81518092818552858086019101612297565b601f01601f1916010190565b600454611fc2939160018201808311612a5f575b600455612a5a8451612a4c608063ffffffff60e01b604089015116970151516040519788936320214ca360e11b60208601526000602486015260006044860152606485015230608485015260a48401528560c4840152600160e48401526101006101048401526101248301906129a2565b03601f198101865285611f8a565b612b00565b612a67612056565b6129db565b9081602091031261000e5751801515810361000e5790565b611fc2939260609260018060a01b03168252602082015281604082015201906129a2565b15612aaf57565b60405162461bcd60e51b815260206004820152602360248201527f756e61626c6520746f207472616e73666572416e6443616c6c20746f206f7261604482015262636c6560e81b6064820152608490fd5b61169a929493602091612bc2936040518481019160018060601b03193060601b168352603482015260348152612b3581611f6f565b51902096612b7082612b518a6000526005602052604060002090565b80546001600160a01b0319166001600160a01b03909216919091179055565b60006040518096819582948c7fb5e6e01e79f91267dc17b4e6314d5d4d03593d2ceee0fbb452b750bd70ea5af98680a2612bae6105eb60025461027e565b630200057560e51b85529660048501612a84565b03925af1908115612bfa575b600091612bdc575b50612aa8565b612bf4915060203d811161126a5761125b8183611f8a565b38612bd6565b612c02611fc5565b612bce565b90612c106128b7565b50601f811680612c36575b50806020830152604051808352600081520160200160405290565b60200360208111612c5f575b8101809111612c52575b38612c1b565b612c5a612056565b612c4c565b612c67612056565b612c42565b612c746128b7565b50805151612c806128b7565b50602082015180821015612cb2575b50815190815181601b602083948601015314612caa57505090565b600101905290565b612cbe612cd1916130b7565b612cca84519185612c07565b508361316d565b5038612c8f565b612ce06128b7565b50805151612cec6128b7565b50602082015180821015612d16575b50815190815181601a602083948601015314612caa57505090565b612cbe612d22916130b7565b5038612cfb565b612d316128b7565b50805151612d3d6128b7565b50602082015180821015612d67575b508151908151816019602083948601015314612caa57505090565b612cbe612d73916130b7565b5038612d4c565b612d826128b7565b50805151612d8e6128b7565b50602082015180821015612db8575b508151908151816018602083948601015314612caa57505090565b612cbe612dc4916130b7565b5038612d9d565b612dd36128b7565b50805151612ddf6128b7565b50602082015180821015612e09575b50815190815181605b602083948601015314612caa57505090565b612cbe612e15916130b7565b5038612dee565b612e246128b7565b50805151612e306128b7565b50602082015180821015612e5a575b50815190815181605a602083948601015314612caa57505090565b612cbe612e66916130b7565b5038612e3f565b612e756128b7565b50805151612e816128b7565b50602082015180821015612eab575b508151908151816059602083948601015314612caa57505090565b612cbe612eb7916130b7565b5038612e90565b612ec66128b7565b50805151612ed26128b7565b50602082015180821015612efc575b508151908151816058602083948601015314612caa57505090565b612cbe612f08916130b7565b5038612ee1565b612f176128b7565b50805151612f236128b7565b50602082015180821015612f4d575b50815190815181607b602083948601015314612caa57505090565b612cbe612f59916130b7565b5038612f32565b612f686128b7565b50805151612f746128b7565b50602082015180821015612f9e575b50815190815181607a602083948601015314612caa57505090565b612cbe612faa916130b7565b5038612f83565b612fb96128b7565b50805151612fc56128b7565b50602082015180821015612fef575b508151908151816079602083948601015314612caa57505090565b612cbe612ffb916130b7565b5038612fd4565b61300a6128b7565b508051516130166128b7565b50602082015180821015613040575b508151908151816078602083948601015314612caa57505090565b612cbe61304c916130b7565b5038613025565b9061305c6128b7565b508151516130686128b7565b50602083015180821015613091575b5082519182519182916020828601015314612caa57505090565b61309d6130b0916130b7565b6130a985519186612c07565b508461316d565b5038613077565b908160011b918083046002149015171561214357565b906305f5e1009182810292818404149015171561214357565b8181029291811591840414171561214357565b9061284a918051918061310a6128b7565b50601f811680613133575b5050806020830152604051808352600081520160200160405261316d565b90915060200360208111613160575b8101809111613153575b3880613115565b61315b612056565b61314c565b613168612056565b613142565b906131766128b7565b50815151908051906131866128b7565b506131948151831115613245565b61319e8284612995565b60209182918287015180911161321a575b5085518051908387820101968601918211613212575b505001915b818110156131ec5760001991036101000a019081199051169082511617905290565b919261320761320161320d9286518152612987565b94612987565b9261214b565b6131ca565b5238806131c5565b61323961323461323f9261322e8989612995565b9061324c565b6130b7565b876130f9565b386131af565b1561000e57565b818111613257575090565b905090565b906132656128b7565b50815151906132726128b7565b5081600801806008116132d7575b602084015181116132bf575b508251828101600890810180516001600160401b0319169093179092528051929091019182116132bb57505090565b5290565b6132cb6132d1916130b7565b846130f9565b3861328c565b6132df612056565b613280565b906132ed6128b7565b50815151906132fa6128b7565b50816004018060041161334f575b6020840151811161333d575b508251906004838301019063ffffffff198251161790526004815192019182116132bb57505090565b6132cb613349916130b7565b38613314565b613357612056565b613308565b906133656128b7565b50815151906133726128b7565b5081600201806002116133c5575b602084015181116133b3575b508251906002838301019061ffff198251161790526002815192019182116132bb57505090565b6132cb6133bf916130b7565b3861338c565b6133cd612056565b613380565b906133db6128b7565b50815151906133e86128b7565b50816001018060011161343a575b60208401518111613428575b508251906001838301019060ff198251161790526001815192019182116132bb57505090565b6132cb613434916130b7565b38613402565b613442612056565b6133f6565b9061284a916134546128b7565b508051516134606128b7565b50602082015180821015613543575b5081519081518160c2602083948601015314613537575b50506040519160208301526020825261349e82611f54565b81516001600160401b038116601781116134c95750604060ff6134c392161782613053565b5061316d565b905060ff81116134e7576134c3906134e083612ebe565b50826133d2565b61ffff8111613504576134c3906134fd83612e6d565b508261335c565b63ffffffff8111613523576134c39061351c83612e1c565b50826132e4565b6134c39061353083612dcb565b508261325c565b60010190523880613486565b612cbe61354f916130b7565b503861346f565b815161284a9291906001600160401b038116601781116135815750606060ff6134c392161782613053565b905060ff8111613598576134c3906134e083613002565b61ffff81116135ae576134c3906134fd83612fb1565b63ffffffff81116135c6576134c39061351c83612f60565b6134c39061353083612f0f565b906040516135e081611f1e565b608060ff82945461ffff8116845260018060701b038160101c1660208501526136108282851c1660408601612478565b818160881c161515606085015260901c161515910152565b9081608091031261000e576040519061364082611f39565b805161364b81610453565b8252602081015161365b81610453565b6020830152604081015190600382101561000e5760609160408401520151606082015290565b51906001600160401b038216820361000e57565b919082608091031261000e576136aa82613681565b916136b760208201613681565b91611fc260606136c960408501613681565b9301613681565b80546136ee91600160401b821015613708575b600182018155610361565b819291549060031b600019811b9283911b16911916179055565b613710611ee7565b6136e3565b6040519060c082016001600160401b03811183821017613758575b6040528160a06000918281528260208201528260408201528260608201528260808201520152565b613760611ee7565b613730565b9060405191828154918282526020928383019160005283600020936000905b82821061379a5750505061169a92500383611f8a565b855484526001958601958895509381019390910190613784565b9081602091031261000e575190565b60a0809180518452602081015160208501526040810151604085015260608101516060850152608081015160808501520151910152565b60c08101929161169a91906137c3565b9160c061169a9294936138218160e08101976137c3565b019061169c565b8054906000908181558261383b57505050565b815260208120918201915b82811061385257505050565b818155600101613846565b6040519061386a82611f39565b60006060838281528260208201528260408201520152565b6001600160401b039091169052565b1561389857565b60405162461bcd60e51b815260206004820152600e60248201526d494e56414c49445f43414e444c4560901b6044820152606490fd5b80546138eb91600160401b82101561370857600182018155610361565b613972578151815460208401516040808601516001600160c01b03199093166001600160401b039490941693909317921b600160401b600160801b03169190911760809190911b600160801b600160c01b031617815561169a916139529060600151610f97565b81546001600160c01b031660c09190911b6001600160c01b031916179055565b634e487b7160e01b600052600060045260246000fd5b6020906001600160401b0381116139a1575b60051b0190565b6139a9611ee7565b61399a565b9081546139ba81613988565b926040936139ca85519182611f8a565b828152809460208092019260005281600020906000935b8585106139f057505050505050565b60018481928451613a0081611f39565b8654848060401b0380821683528082891c16858401528160801c168783015260c01c60608201528152019301940193916139e1565b51906001600160501b038216820361000e57565b908160a091031261000e57613a5d81613a35565b91602082015191604081015191611fc2608060608401519301613a35565b613b176004611fc293613b229360a0613a986105eb60085461027e565b604051633fabe5a360e21b815294859182905afa928315613b9a575b600093613b54575b5061267391613af86020613b1293613ad86105eb60075461027e565b604051808095819463f7acbabd60e01b8352600483019190602083019252565b03915afa908115613b47575b600091613b29575b506130e6565b6130cd565b6402540be400900490565b6064900490565b613b41915060203d8111610ade57610ad08183611f8a565b38613b0c565b613b4f611fc5565b613b04565b613b1291935091613af86020613b836126739560a03d8111613b93575b613b7b8183611f8a565b810190613a49565b5050509050959350505091613abc565b503d613b71565b613ba2611fc5565b613ab4565b6003111561169257565b906402540be4009182810292818405149015171561214357565b8015613bdf575b670de0b6b3a76400000590565b613be761203f565b613bd2565b8115613c14575b600160ff1b8114600019831416613c08570590565b613c10612056565b0590565b613c1c61203f565b613bf3565b80516001600160a01b0390613c359061027e565b168015613d77576000906040518093633fabe5a360e21b9283835282600460a09485935afa948515613d6a575b8495613d46575b50604081018051613c7981613ba7565b613c8281613ba7565b613ca1575050505050613c97611fc291613bb1565b6305f5e100900590565b60019051613cae81613ba7565b613cb781613ba7565b03613cc95750505050611fc290613bcb565b9080613ce36105eb6105eb6020611fc2999796015161027e565b9260046040518095819382525afa938415613d39575b93613d0f575b5050613d0a90613bb1565b613bec565b613d0a9293509081613d2c92903d10613b9357613b7b8183611f8a565b5050509050919038613cff565b613d41611fc5565b613cf9565b613d5e919550823d8411613b9357613b7b8183611f8a565b50505090509338613c69565b613d72611fc5565b613c62565b5050600090565b91908215928315613e21575b8315613d97575b50505090565b919250613de391818110613e0f57818103908111613e02575b64e8d4a510006402540be40091828102928184041481151715613df5575b029080820460641490151715613ded57612426565b1115388080613d91565b612673612056565b613dfd612056565b613dce565b613e0a612056565b613db0565b810381811115613db057613e0a612056565b81159350613d8a565b613e378151600083613eaa565b805160018116613e985750613e6d613e60825160011c6000198101908111613e8b575b8361254b565b5191805160011c9061254b565b518101809111613e7e575b60011c90565b613e86612056565b613e78565b613e93612056565b613e5a565b90613ea69160011c9061254b565b5190565b919081811015613f5e5780613ebf818561254b565b5160018201808311613f51575b9083915b858110613f0b57505081613ee882613eee9488613f63565b85613eaa565b61169a926001820180921115613eaa57613f06612056565b613eaa565b90809250613f19828861254b565b5110613f31575b613f299061206d565b908391613ed0565b92613f3e613f299161206d565b93613f4a858289613f63565b9050613f20565b613f59612056565b613ecc565b505050565b906116b191613f72848261254b565b5193613f89613f81848461254b565b51918361254b565b5261254b565b90613f9982613988565b613fa66040519182611f8a565b8281528092613fb7601f1991613988565b0190602036910137565b90815190613fce82613f8f565b92613fd883613f8f565b93613fe284613f8f565b9160005b8581106140b4575050613ffb84600083613eaa565b61400784600087613eaa565b61401384600084613eaa565b60018416159360011c9081856000146140a5576140519161404a8261404361403d613e7895612134565b8461254b565b519261254b565b5190612995565b94818515614096576140709161404a8261404361403d613e7895612134565b931561408d57611fc29161404a8261404361403d613e7895612134565b613ea69161254b565b61409f9161254b565b51614070565b6140ae9161254b565b51614051565b806140d5610b216140c76001948661254b565b51516001600160401b031690565b6140df828661254b565b52614101610b2160206140f2848761254b565b5101516001600160401b031690565b61410b828a61254b565b5261411e610b2160406140f2848761254b565b614128828761254b565b5201613fe6565b1561413657565b60405162461bcd60e51b815260206004820152600b60248201526a57524f4e475f56414c554560a81b6044820152606490fdfec65a7bb8d6351c1cf70c95a316cc6a92839c986682d98bc35f958f4883f9d2a8ce3ae2fe07e497ba552d6485a40eed46cfb3320f001027891efeb1128dba0350dc6ff5906123aad281d8e734bb64101cea661d614a568b9bca20e7ac2ae7f354764c19c693af0da42ec6c6bed68a2dd1a2fa93d24785fcfce58ffa29ae313606a164736f6c6343000811000a",
  "libraries": {
    "PackingUtils": "0x3482Cd41A41a7E28aBA6a9fEaFA07D1ad9fAd39f"
  },
  "devdoc": {
    "kind": "dev",
    "methods": {},
    "version": 1
  },
  "userdoc": {
    "kind": "user",
    "methods": {},
    "version": 1
  },
  "storageLayout": {
    "storage": [
      {
        "astId": 1419,
        "contract": "contracts/contracts/GNSPriceAggregatorV6_4.sol:GNSPriceAggregatorV6_4",
        "label": "s_ens",
        "offset": 0,
        "slot": "0",
        "type": "t_contract(ENSInterface)2074"
      },
      {
        "astId": 1421,
        "contract": "contracts/contracts/GNSPriceAggregatorV6_4.sol:GNSPriceAggregatorV6_4",
        "label": "s_ensNode",
        "offset": 0,
        "slot": "1",
        "type": "t_bytes32"
      },
      {
        "astId": 1424,
        "contract": "contracts/contracts/GNSPriceAggregatorV6_4.sol:GNSPriceAggregatorV6_4",
        "label": "s_link",
        "offset": 0,
        "slot": "2",
        "type": "t_contract(LinkTokenInterface)2296"
      },
      {
        "astId": 1427,
        "contract": "contracts/contracts/GNSPriceAggregatorV6_4.sol:GNSPriceAggregatorV6_4",
        "label": "s_oracle",
        "offset": 0,
        "slot": "3",
        "type": "t_contract(OperatorInterface)2154"
      },
      {
        "astId": 1430,
        "contract": "contracts/contracts/GNSPriceAggregatorV6_4.sol:GNSPriceAggregatorV6_4",
        "label": "s_requestCount",
        "offset": 0,
        "slot": "4",
        "type": "t_uint256"
      },
      {
        "astId": 1434,
        "contract": "contracts/contracts/GNSPriceAggregatorV6_4.sol:GNSPriceAggregatorV6_4",
        "label": "s_pendingRequests",
        "offset": 0,
        "slot": "5",
        "type": "t_mapping(t_bytes32,t_address)"
      },
      {
        "astId": 6567,
        "contract": "contracts/contracts/GNSPriceAggregatorV6_4.sol:GNSPriceAggregatorV6_4",
        "label": "uniV3Pool",
        "offset": 0,
        "slot": "6",
        "type": "t_contract(IUniswapV3Pool)21"
      },
      {
        "astId": 6569,
        "contract": "contracts/contracts/GNSPriceAggregatorV6_4.sol:GNSPriceAggregatorV6_4",
        "label": "twapInterval",
        "offset": 20,
        "slot": "6",
        "type": "t_uint32"
      },
      {
        "astId": 6571,
        "contract": "contracts/contracts/GNSPriceAggregatorV6_4.sol:GNSPriceAggregatorV6_4",
        "label": "isGnsToken0InLp",
        "offset": 24,
        "slot": "6",
        "type": "t_bool"
      },
      {
        "astId": 3300,
        "contract": "contracts/contracts/GNSPriceAggregatorV6_4.sol:GNSPriceAggregatorV6_4",
        "label": "pairsStorage",
        "offset": 0,
        "slot": "7",
        "type": "t_contract(PairsStorageInterfaceV6)5400"
      },
      {
        "astId": 3303,
        "contract": "contracts/contracts/GNSPriceAggregatorV6_4.sol:GNSPriceAggregatorV6_4",
        "label": "linkPriceFeed",
        "offset": 0,
        "slot": "8",
        "type": "t_contract(ChainlinkFeedInterfaceV5)5120"
      },
      {
        "astId": 3314,
        "contract": "contracts/contracts/GNSPriceAggregatorV6_4.sol:GNSPriceAggregatorV6_4",
        "label": "minAnswers",
        "offset": 0,
        "slot": "9",
        "type": "t_uint256"
      },
      {
        "astId": 3343,
        "contract": "contracts/contracts/GNSPriceAggregatorV6_4.sol:GNSPriceAggregatorV6_4",
        "label": "nodes",
        "offset": 0,
        "slot": "10",
        "type": "t_array(t_address)dyn_storage"
      },
      {
        "astId": 3347,
        "contract": "contracts/contracts/GNSPriceAggregatorV6_4.sol:GNSPriceAggregatorV6_4",
        "label": "jobIds",
        "offset": 0,
        "slot": "11",
        "type": "t_array(t_bytes32)2_storage"
      },
      {
        "astId": 3352,
        "contract": "contracts/contracts/GNSPriceAggregatorV6_4.sol:GNSPriceAggregatorV6_4",
        "label": "orders",
        "offset": 0,
        "slot": "13",
        "type": "t_mapping(t_uint256,t_struct(Order)3331_storage)"
      },
      {
        "astId": 3356,
        "contract": "contracts/contracts/GNSPriceAggregatorV6_4.sol:GNSPriceAggregatorV6_4",
        "label": "orderIdByRequest",
        "offset": 0,
        "slot": "14",
        "type": "t_mapping(t_bytes32,t_uint256)"
      },
      {
        "astId": 3361,
        "contract": "contracts/contracts/GNSPriceAggregatorV6_4.sol:GNSPriceAggregatorV6_4",
        "label": "ordersAnswers",
        "offset": 0,
        "slot": "15",
        "type": "t_mapping(t_uint256,t_array(t_uint256)dyn_storage)"
      },
      {
        "astId": 3367,
        "contract": "contracts/contracts/GNSPriceAggregatorV6_4.sol:GNSPriceAggregatorV6_4",
        "label": "lookbackOrderAnswers",
        "offset": 0,
        "slot": "16",
        "type": "t_mapping(t_uint256,t_array(t_struct(LookbackOrderAnswer)3340_storage)dyn_storage)"
      }
    ],
    "types": {
      "t_address": {
        "encoding": "inplace",
        "label": "address",
        "numberOfBytes": "20"
      },
      "t_array(t_address)dyn_storage": {
        "base": "t_address",
        "encoding": "dynamic_array",
        "label": "address[]",
        "numberOfBytes": "32"
      },
      "t_array(t_bytes32)2_storage": {
        "base": "t_bytes32",
        "encoding": "inplace",
        "label": "bytes32[2]",
        "numberOfBytes": "64"
      },
      "t_array(t_struct(LookbackOrderAnswer)3340_storage)dyn_storage": {
        "base": "t_struct(LookbackOrderAnswer)3340_storage",
        "encoding": "dynamic_array",
        "label": "struct GNSPriceAggregatorV6_4.LookbackOrderAnswer[]",
        "numberOfBytes": "32"
      },
      "t_array(t_uint256)dyn_storage": {
        "base": "t_uint256",
        "encoding": "dynamic_array",
        "label": "uint256[]",
        "numberOfBytes": "32"
      },
      "t_bool": {
        "encoding": "inplace",
        "label": "bool",
        "numberOfBytes": "1"
      },
      "t_bytes32": {
        "encoding": "inplace",
        "label": "bytes32",
        "numberOfBytes": "32"
      },
      "t_contract(ChainlinkFeedInterfaceV5)5120": {
        "encoding": "inplace",
        "label": "contract ChainlinkFeedInterfaceV5",
        "numberOfBytes": "20"
      },
      "t_contract(ENSInterface)2074": {
        "encoding": "inplace",
        "label": "contract ENSInterface",
        "numberOfBytes": "20"
      },
      "t_contract(IUniswapV3Pool)21": {
        "encoding": "inplace",
        "label": "contract IUniswapV3Pool",
        "numberOfBytes": "20"
      },
      "t_contract(LinkTokenInterface)2296": {
        "encoding": "inplace",
        "label": "contract LinkTokenInterface",
        "numberOfBytes": "20"
      },
      "t_contract(OperatorInterface)2154": {
        "encoding": "inplace",
        "label": "contract OperatorInterface",
        "numberOfBytes": "20"
      },
      "t_contract(PairsStorageInterfaceV6)5400": {
        "encoding": "inplace",
        "label": "contract PairsStorageInterfaceV6",
        "numberOfBytes": "20"
      },
      "t_enum(OrderType)3319": {
        "encoding": "inplace",
        "label": "enum GNSPriceAggregatorV6_4.OrderType",
        "numberOfBytes": "1"
      },
      "t_mapping(t_bytes32,t_address)": {
        "encoding": "mapping",
        "key": "t_bytes32",
        "label": "mapping(bytes32 => address)",
        "numberOfBytes": "32",
        "value": "t_address"
      },
      "t_mapping(t_bytes32,t_uint256)": {
        "encoding": "mapping",
        "key": "t_bytes32",
        "label": "mapping(bytes32 => uint256)",
        "numberOfBytes": "32",
        "value": "t_uint256"
      },
      "t_mapping(t_uint256,t_array(t_struct(LookbackOrderAnswer)3340_storage)dyn_storage)": {
        "encoding": "mapping",
        "key": "t_uint256",
        "label": "mapping(uint256 => struct GNSPriceAggregatorV6_4.LookbackOrderAnswer[])",
        "numberOfBytes": "32",
        "value": "t_array(t_struct(LookbackOrderAnswer)3340_storage)dyn_storage"
      },
      "t_mapping(t_uint256,t_array(t_uint256)dyn_storage)": {
        "encoding": "mapping",
        "key": "t_uint256",
        "label": "mapping(uint256 => uint256[])",
        "numberOfBytes": "32",
        "value": "t_array(t_uint256)dyn_storage"
      },
      "t_mapping(t_uint256,t_struct(Order)3331_storage)": {
        "encoding": "mapping",
        "key": "t_uint256",
        "label": "mapping(uint256 => struct GNSPriceAggregatorV6_4.Order)",
        "numberOfBytes": "32",
        "value": "t_struct(Order)3331_storage"
      },
      "t_struct(LookbackOrderAnswer)3340_storage": {
        "encoding": "inplace",
        "label": "struct GNSPriceAggregatorV6_4.LookbackOrderAnswer",
        "members": [
          {
            "astId": 3333,
            "contract": "contracts/contracts/GNSPriceAggregatorV6_4.sol:GNSPriceAggregatorV6_4",
            "label": "open",
            "offset": 0,
            "slot": "0",
            "type": "t_uint64"
          },
          {
            "astId": 3335,
            "contract": "contracts/contracts/GNSPriceAggregatorV6_4.sol:GNSPriceAggregatorV6_4",
            "label": "high",
            "offset": 8,
            "slot": "0",
            "type": "t_uint64"
          },
          {
            "astId": 3337,
            "contract": "contracts/contracts/GNSPriceAggregatorV6_4.sol:GNSPriceAggregatorV6_4",
            "label": "low",
            "offset": 16,
            "slot": "0",
            "type": "t_uint64"
          },
          {
            "astId": 3339,
            "contract": "contracts/contracts/GNSPriceAggregatorV6_4.sol:GNSPriceAggregatorV6_4",
            "label": "ts",
            "offset": 24,
            "slot": "0",
            "type": "t_uint64"
          }
        ],
        "numberOfBytes": "32"
      },
      "t_struct(Order)3331_storage": {
        "encoding": "inplace",
        "label": "struct GNSPriceAggregatorV6_4.Order",
        "members": [
          {
            "astId": 3321,
            "contract": "contracts/contracts/GNSPriceAggregatorV6_4.sol:GNSPriceAggregatorV6_4",
            "label": "pairIndex",
            "offset": 0,
            "slot": "0",
            "type": "t_uint16"
          },
          {
            "astId": 3323,
            "contract": "contracts/contracts/GNSPriceAggregatorV6_4.sol:GNSPriceAggregatorV6_4",
            "label": "linkFeePerNode",
            "offset": 2,
            "slot": "0",
            "type": "t_uint112"
          },
          {
            "astId": 3326,
            "contract": "contracts/contracts/GNSPriceAggregatorV6_4.sol:GNSPriceAggregatorV6_4",
            "label": "orderType",
            "offset": 16,
            "slot": "0",
            "type": "t_enum(OrderType)3319"
          },
          {
            "astId": 3328,
            "contract": "contracts/contracts/GNSPriceAggregatorV6_4.sol:GNSPriceAggregatorV6_4",
            "label": "active",
            "offset": 17,
            "slot": "0",
            "type": "t_bool"
          },
          {
            "astId": 3330,
            "contract": "contracts/contracts/GNSPriceAggregatorV6_4.sol:GNSPriceAggregatorV6_4",
            "label": "isLookback",
            "offset": 18,
            "slot": "0",
            "type": "t_bool"
          }
        ],
        "numberOfBytes": "32"
      },
      "t_uint112": {
        "encoding": "inplace",
        "label": "uint112",
        "numberOfBytes": "14"
      },
      "t_uint16": {
        "encoding": "inplace",
        "label": "uint16",
        "numberOfBytes": "2"
      },
      "t_uint256": {
        "encoding": "inplace",
        "label": "uint256",
        "numberOfBytes": "32"
      },
      "t_uint32": {
        "encoding": "inplace",
        "label": "uint32",
        "numberOfBytes": "4"
      },
      "t_uint64": {
        "encoding": "inplace",
        "label": "uint64",
        "numberOfBytes": "8"
      }
    }
  }
}