{
  "address": "0x1B955F836acA48cdBf9Fa98fA205B060869EB899",
  "abi": [
    {
      "inputs": [
        {
          "internalType": "address",
          "name": "_linkToken",
          "type": "address"
        },
        {
          "internalType": "contract StorageInterfaceV5",
          "name": "_storageT",
          "type": "address"
        },
        {
          "internalType": "contract PairsStorageInterfaceV6",
          "name": "_pairsStorage",
          "type": "address"
        },
        {
          "internalType": "contract ChainlinkFeedInterfaceV5",
          "name": "_linkPriceFeed",
          "type": "address"
        },
        {
          "internalType": "uint256",
          "name": "_minAnswers",
          "type": "uint256"
        },
        {
          "internalType": "address[]",
          "name": "_nodes",
          "type": "address[]"
        },
        {
          "internalType": "bytes32[2]",
          "name": "_jobIds",
          "type": "bytes32[2]"
        }
      ],
      "stateMutability": "nonpayable",
      "type": "constructor"
    },
    {
      "anonymous": false,
      "inputs": [
        {
          "components": [
            {
              "internalType": "uint256",
              "name": "orderId",
              "type": "uint256"
            },
            {
              "internalType": "uint256",
              "name": "price",
              "type": "uint256"
            },
            {
              "internalType": "uint256",
              "name": "spreadP",
              "type": "uint256"
            },
            {
              "internalType": "uint256",
              "name": "open",
              "type": "uint256"
            },
            {
              "internalType": "uint256",
              "name": "high",
              "type": "uint256"
            },
            {
              "internalType": "uint256",
              "name": "low",
              "type": "uint256"
            }
          ],
          "indexed": false,
          "internalType": "struct CallbacksInterfaceV6_4.AggregatorAnswer",
          "name": "a",
          "type": "tuple"
        },
        {
          "indexed": false,
          "internalType": "enum GNSPriceAggregatorV6_4.OrderType",
          "name": "orderType",
          "type": "uint8"
        }
      ],
      "name": "CallbackExecuted",
      "type": "event"
    },
    {
      "anonymous": false,
      "inputs": [
        {
          "indexed": true,
          "internalType": "bytes32",
          "name": "id",
          "type": "bytes32"
        }
      ],
      "name": "ChainlinkCancelled",
      "type": "event"
    },
    {
      "anonymous": false,
      "inputs": [
        {
          "indexed": true,
          "internalType": "bytes32",
          "name": "id",
          "type": "bytes32"
        }
      ],
      "name": "ChainlinkFulfilled",
      "type": "event"
    },
    {
      "anonymous": false,
      "inputs": [
        {
          "indexed": true,
          "internalType": "bytes32",
          "name": "id",
          "type": "bytes32"
        }
      ],
      "name": "ChainlinkRequested",
      "type": "event"
    },
    {
      "anonymous": false,
      "inputs": [
        {
          "indexed": false,
          "internalType": "uint256",
          "name": "index",
          "type": "uint256"
        },
        {
          "indexed": false,
          "internalType": "bytes32",
          "name": "jobId",
          "type": "bytes32"
        }
      ],
      "name": "JobIdUpdated",
      "type": "event"
    },
    {
      "anonymous": false,
      "inputs": [
        {
          "indexed": false,
          "internalType": "address",
          "name": "value",
          "type": "address"
        }
      ],
      "name": "LinkPriceFeedUpdated",
      "type": "event"
    },
    {
      "anonymous": false,
      "inputs": [
        {
          "indexed": false,
          "internalType": "uint256",
          "name": "value",
          "type": "uint256"
        }
      ],
      "name": "MinAnswersUpdated",
      "type": "event"
    },
    {
      "anonymous": false,
      "inputs": [
        {
          "indexed": false,
          "internalType": "uint256",
          "name": "index",
          "type": "uint256"
        },
        {
          "indexed": false,
          "internalType": "address",
          "name": "value",
          "type": "address"
        }
      ],
      "name": "NodeAdded",
      "type": "event"
    },
    {
      "anonymous": false,
      "inputs": [
        {
          "indexed": false,
          "internalType": "uint256",
          "name": "index",
          "type": "uint256"
        },
        {
          "indexed": false,
          "internalType": "address",
          "name": "oldNode",
          "type": "address"
        }
      ],
      "name": "NodeRemoved",
      "type": "event"
    },
    {
      "anonymous": false,
      "inputs": [
        {
          "indexed": false,
          "internalType": "uint256",
          "name": "index",
          "type": "uint256"
        },
        {
          "indexed": false,
          "internalType": "address",
          "name": "oldNode",
          "type": "address"
        },
        {
          "indexed": false,
          "internalType": "address",
          "name": "newNode",
          "type": "address"
        }
      ],
      "name": "NodeReplaced",
      "type": "event"
    },
    {
      "anonymous": false,
      "inputs": [
        {
          "indexed": false,
          "internalType": "address",
          "name": "value",
          "type": "address"
        }
      ],
      "name": "PairsStorageUpdated",
      "type": "event"
    },
    {
      "anonymous": false,
      "inputs": [
        {
          "indexed": false,
          "internalType": "bytes32",
          "name": "request",
          "type": "bytes32"
        },
        {
          "indexed": true,
          "internalType": "uint256",
          "name": "orderId",
          "type": "uint256"
        },
        {
          "indexed": true,
          "internalType": "address",
          "name": "node",
          "type": "address"
        },
        {
          "indexed": true,
          "internalType": "uint16",
          "name": "pairIndex",
          "type": "uint16"
        },
        {
          "indexed": false,
          "internalType": "uint256",
          "name": "price",
          "type": "uint256"
        },
        {
          "indexed": false,
          "internalType": "uint256",
          "name": "referencePrice",
          "type": "uint256"
        },
        {
          "indexed": false,
          "internalType": "uint112",
          "name": "linkFee",
          "type": "uint112"
        },
        {
          "indexed": false,
          "internalType": "bool",
          "name": "isLookback",
          "type": "bool"
        },
        {
          "indexed": false,
          "internalType": "bool",
          "name": "usedInMedian",
          "type": "bool"
        }
      ],
      "name": "PriceReceived",
      "type": "event"
    },
    {
      "anonymous": false,
      "inputs": [
        {
          "indexed": true,
          "internalType": "uint256",
          "name": "orderId",
          "type": "uint256"
        },
        {
          "indexed": true,
          "internalType": "bytes32",
          "name": "job",
          "type": "bytes32"
        },
        {
          "indexed": true,
          "internalType": "uint256",
          "name": "pairIndex",
          "type": "uint256"
        },
        {
          "indexed": false,
          "internalType": "enum GNSPriceAggregatorV6_4.OrderType",
          "name": "orderType",
          "type": "uint8"
        },
        {
          "indexed": false,
          "internalType": "uint256",
          "name": "nodesCount",
          "type": "uint256"
        },
        {
          "indexed": false,
          "internalType": "uint256",
          "name": "linkFeePerNode",
          "type": "uint256"
        },
        {
          "indexed": false,
          "internalType": "uint256",
          "name": "fromBlock",
          "type": "uint256"
        },
        {
          "indexed": false,
          "internalType": "bool",
          "name": "isLookback",
          "type": "bool"
        }
      ],
      "name": "PriceRequested",
      "type": "event"
    },
    {
      "inputs": [
        {
          "internalType": "address",
          "name": "a",
          "type": "address"
        }
      ],
      "name": "addNode",
      "outputs": [],
      "stateMutability": "nonpayable",
      "type": "function"
    },
    {
      "inputs": [],
      "name": "claimBackLink",
      "outputs": [],
      "stateMutability": "nonpayable",
      "type": "function"
    },
    {
      "inputs": [
        {
          "internalType": "bytes32",
          "name": "requestId",
          "type": "bytes32"
        },
        {
          "internalType": "uint256",
          "name": "priceData",
          "type": "uint256"
        }
      ],
      "name": "fulfill",
      "outputs": [],
      "stateMutability": "nonpayable",
      "type": "function"
    },
    {
      "inputs": [
        {
          "internalType": "uint256",
          "name": "pairIndex",
          "type": "uint256"
        },
        {
          "internalType": "enum GNSPriceAggregatorV6_4.OrderType",
          "name": "orderType",
          "type": "uint8"
        },
        {
          "internalType": "uint256",
          "name": "leveragedPosDai",
          "type": "uint256"
        },
        {
          "internalType": "uint256",
          "name": "fromBlock",
          "type": "uint256"
        }
      ],
      "name": "getPrice",
      "outputs": [
        {
          "internalType": "uint256",
          "name": "",
          "type": "uint256"
        }
      ],
      "stateMutability": "nonpayable",
      "type": "function"
    },
    {
      "inputs": [
        {
          "internalType": "uint256",
          "name": "",
          "type": "uint256"
        }
      ],
      "name": "jobIds",
      "outputs": [
        {
          "internalType": "bytes32",
          "name": "",
          "type": "bytes32"
        }
      ],
      "stateMutability": "view",
      "type": "function"
    },
    {
      "inputs": [
        {
          "internalType": "uint256",
          "name": "pairIndex",
          "type": "uint256"
        },
        {
          "internalType": "uint256",
          "name": "leveragedPosDai",
          "type": "uint256"
        }
      ],
      "name": "linkFee",
      "outputs": [
        {
          "internalType": "uint256",
          "name": "",
          "type": "uint256"
        }
      ],
      "stateMutability": "view",
      "type": "function"
    },
    {
      "inputs": [],
      "name": "linkPriceFeed",
      "outputs": [
        {
          "internalType": "contract ChainlinkFeedInterfaceV5",
          "name": "",
          "type": "address"
        }
      ],
      "stateMutability": "view",
      "type": "function"
    },
    {
      "inputs": [
        {
          "internalType": "uint256",
          "name": "",
          "type": "uint256"
        },
        {
          "internalType": "uint256",
          "name": "",
          "type": "uint256"
        }
      ],
      "name": "lookbackOrderAnswers",
      "outputs": [
        {
          "internalType": "uint64",
          "name": "open",
          "type": "uint64"
        },
        {
          "internalType": "uint64",
          "name": "high",
          "type": "uint64"
        },
        {
          "internalType": "uint64",
          "name": "low",
          "type": "uint64"
        },
        {
          "internalType": "uint64",
          "name": "ts",
          "type": "uint64"
        }
      ],
      "stateMutability": "view",
      "type": "function"
    },
    {
      "inputs": [],
      "name": "minAnswers",
      "outputs": [
        {
          "internalType": "uint256",
          "name": "",
          "type": "uint256"
        }
      ],
      "stateMutability": "view",
      "type": "function"
    },
    {
      "inputs": [
        {
          "internalType": "uint256",
          "name": "",
          "type": "uint256"
        }
      ],
      "name": "nodes",
      "outputs": [
        {
          "internalType": "address",
          "name": "",
          "type": "address"
        }
      ],
      "stateMutability": "view",
      "type": "function"
    },
    {
      "inputs": [
        {
          "internalType": "uint256",
          "name": "pairIndex",
          "type": "uint256"
        }
      ],
      "name": "openFeeP",
      "outputs": [
        {
          "internalType": "uint256",
          "name": "",
          "type": "uint256"
        }
      ],
      "stateMutability": "view",
      "type": "function"
    },
    {
      "inputs": [
        {
          "internalType": "bytes32",
          "name": "",
          "type": "bytes32"
        }
      ],
      "name": "orderIdByRequest",
      "outputs": [
        {
          "internalType": "uint256",
          "name": "",
          "type": "uint256"
        }
      ],
      "stateMutability": "view",
      "type": "function"
    },
    {
      "inputs": [
        {
          "internalType": "uint256",
          "name": "",
          "type": "uint256"
        }
      ],
      "name": "orders",
      "outputs": [
        {
          "internalType": "uint16",
          "name": "pairIndex",
          "type": "uint16"
        },
        {
          "internalType": "uint112",
          "name": "linkFeePerNode",
          "type": "uint112"
        },
        {
          "internalType": "enum GNSPriceAggregatorV6_4.OrderType",
          "name": "orderType",
          "type": "uint8"
        },
        {
          "internalType": "bool",
          "name": "active",
          "type": "bool"
        },
        {
          "internalType": "bool",
          "name": "isLookback",
          "type": "bool"
        }
      ],
      "stateMutability": "view",
      "type": "function"
    },
    {
      "inputs": [
        {
          "internalType": "uint256",
          "name": "",
          "type": "uint256"
        },
        {
          "internalType": "uint256",
          "name": "",
          "type": "uint256"
        }
      ],
      "name": "ordersAnswers",
      "outputs": [
        {
          "internalType": "uint256",
          "name": "",
          "type": "uint256"
        }
      ],
      "stateMutability": "view",
      "type": "function"
    },
    {
      "inputs": [],
      "name": "pairsStorage",
      "outputs": [
        {
          "internalType": "contract PairsStorageInterfaceV6",
          "name": "",
          "type": "address"
        }
      ],
      "stateMutability": "view",
      "type": "function"
    },
    {
      "inputs": [
        {
          "internalType": "uint256",
          "name": "index",
          "type": "uint256"
        }
      ],
      "name": "removeNode",
      "outputs": [],
      "stateMutability": "nonpayable",
      "type": "function"
    },
    {
      "inputs": [
        {
          "internalType": "uint256",
          "name": "index",
          "type": "uint256"
        },
        {
          "internalType": "address",
          "name": "a",
          "type": "address"
        }
      ],
      "name": "replaceNode",
      "outputs": [],
      "stateMutability": "nonpayable",
      "type": "function"
    },
    {
      "inputs": [
        {
          "internalType": "bytes32",
          "name": "jobId",
          "type": "bytes32"
        }
      ],
      "name": "setLimitJobId",
      "outputs": [],
      "stateMutability": "nonpayable",
      "type": "function"
    },
    {
      "inputs": [
        {
          "internalType": "bytes32",
          "name": "jobId",
          "type": "bytes32"
        }
      ],
      "name": "setMarketJobId",
      "outputs": [],
      "stateMutability": "nonpayable",
      "type": "function"
    },
    {
      "inputs": [],
      "name": "storageT",
      "outputs": [
        {
          "internalType": "contract StorageInterfaceV5",
          "name": "",
          "type": "address"
        }
      ],
      "stateMutability": "view",
      "type": "function"
    },
    {
      "inputs": [
        {
          "internalType": "contract ChainlinkFeedInterfaceV5",
          "name": "value",
          "type": "address"
        }
      ],
      "name": "updateLinkPriceFeed",
      "outputs": [],
      "stateMutability": "nonpayable",
      "type": "function"
    },
    {
      "inputs": [
        {
          "internalType": "uint256",
          "name": "value",
          "type": "uint256"
        }
      ],
      "name": "updateMinAnswers",
      "outputs": [],
      "stateMutability": "nonpayable",
      "type": "function"
    },
    {
      "inputs": [
        {
          "internalType": "contract PairsStorageInterfaceV6",
          "name": "value",
          "type": "address"
        }
      ],
      "name": "updatePairsStorage",
      "outputs": [],
      "stateMutability": "nonpayable",
      "type": "function"
    }
  ],
  "transactionHash": "0xe2e9e6258e469b6e412acb4feaab2ebf1f83b52bf1e380cf63f7ee982263f239",
  "args": [
    "0x779877A7B0D9E8603169DdbD7836e478b4624789",
    "0x688e6c96e1b49829111A45fDE13ED9cD6793e0d6",
    "0x4b36EEc0584506C8508b7Ad188d6fA34C369d3F5",
    "0x1b44F3514812d835EB1BDB0acB33d3fA3351Ee43",
    1,
    [
      "0xaf709Aac8B85976F65A588c0161Fa3752dC865f6"
    ],
    [
      "0x6138616465623930373637363439666638666532323834323866626534376239",
      "0x6138616465623930373637363439666638666532323834323866626534376239"
    ]
  ],
  "numDeployments": 2,
  "solcInputHash": "e2a4b420442f24b7b929ffdd30e00671",
  "bytecode": "0x604060a0815234620003405762004173803803806200001e8162000360565b9283398101906101008183031262000340576200003b8162000386565b602082810151936001600160a01b039384861692918387036200034057878201519686881680980362000340576060830151918783168093036200034057608084015160a08501516001600160401b039490858111620003405786019383601f860112156200034057845193868511620002a4578460051b9589620000c281890162000360565b80978152018a81988301019183831162000340578b809101915b8383106200034557505050508060df8901121562000340578d5197888f018881118a821017620002a4578f5288906101008101928311620003405760c08b9101915b8383106200032f57505050506001988960045515158062000325575b806200031b575b8062000310575b8062000304575b80620002f9575b80620002ed575b15620002ba5760805260018060a01b03199a8b60065416176006558a600754161760075560085551918211620002a457680100000000000000008211620002a4576009548260095580831062000276575b506009600052836000208560005b8481106200026157505050505060005b600281106200024e57505050501690600254161760025551613dd790816200039c823960805181818161023f015281816103be015281816107c201528181610c0301528181610f4a01528181610ff80152818161123101528181611338015281816115b5015281816116890152818161179f0152818161190b0152611a080152f35b8151600a820155908201908301620001cc565b868a85511694019381840155018690620001bc565b600060098152868487832093840193015b8381106200029857505050620001ae565b82815501879062000287565b634e487b7160e01b600052604160045260246000fd5b8c5162461bcd60e51b815260048101899052600c60248201526b57524f4e475f504152414d5360a01b6044820152606490fd5b508a8a1615156200015d565b508351151562000156565b5088808416146200014f565b508883101562000148565b5081151562000141565b508b15156200013a565b82518152918101918b91016200011e565b600080fd5b8190620003528462000386565b8152019101908b90620000dc565b6040519190601f01601f191682016001600160401b03811183821017620002a457604052565b51906001600160a01b0382168203620003405756fe60806040526004361015610013575b600080fd5b60003560e01c8062912b37146101de57806316fff074146101d55780631c53c280146101cc57806335b03c17146101c357806340e9eda2146101ba5780634162cc88146101b15780634357855e146101a85780634c37a9d61461019f5780636938c05d146101965780636f37d2631461018d57806385f276b81461018457806393d7fe2c1461017b5780639d95f1cc14610172578063a85c38ef14610169578063b9e0336f14610160578063bea1675814610157578063d31273ca1461014e578063dcdfb43114610145578063e0bb91c21461013c578063e21e5fe014610133578063f5ed447c1461012a578063fd288280146101215763ffd740df1461011957600080fd5b61000e6119c6565b5061000e61189b565b5061000e611764565b5061000e6116e0565b5061000e611643565b5061000e611616565b5061000e611550565b5061000e611531565b5061000e611507565b5061000e611498565b5061000e6112f6565b5061000e6112ae565b5061000e6111eb565b5061000e610fd5565b5061000e610f02565b5061000e610e98565b5061000e610488565b5061000e61045b565b5061000e610359565b5061000e61031e565b5061000e6102d4565b5061000e610228565b5061000e6101fe565b600091031261000e57565b6001600160a01b031690565b503461000e57600036600319011261000e576007546040516001600160a01b039091168152602090f35b503461000e57600036600319011261000e576040517f00000000000000000000000000000000000000000000000000000000000000006001600160a01b03168152602090f35b50634e487b7160e01b600052603260045260246000fd5b6009548110156102a1575b600960005260206000200190600090565b6102a961026e565b610290565b80548210156102c7575b60005260206000200190600090565b6102cf61026e565b6102b8565b503461000e57602036600319011261000e5760043560095481101561000e576009600052600080516020613d6b83398151915201546040516001600160a01b039091168152602090f35b503461000e57600036600319011261000e576006546040516001600160a01b039091168152602090f35b6001600160a01b0381160361000e57565b503461000e57602036600319011261000e577f477e87af277e7755f85267ef7c6b77cd28610c2c8c2923acdf55fa5b63f18b77602060043561039a81610348565b6040516312d43a5160e01b81526001600160a01b0391906103fa90839085816004817f000000000000000000000000000000000000000000000000000000000000000086165afa90811561044e575b600091610421575b50163314611bed565b16610406811515611c24565b600680546001600160a01b03191682179055604051908152a1005b6104419150863d8111610447575b6104398183611ba5565b810190611bc8565b386103f1565b503d61042f565b610456611be0565b6103e9565b503461000e57602036600319011261000e57600435600281101561000e57602090600a0154604051908152f35b503461000e57604036600319011261000e57600460243581356104aa81610e6c565b54600093846104b884610e6c565b556104ca6104c583610e7c565b6131ee565b85918661050f60806104e56104e06006546101f2565b6101f2565b855161ffff169060405180809581946307aa801760e21b835289830161ffff909116815260200190565b03915afa908115610e5f575b8291610e30575b5061052c8161383c565b9261053a6060860151151590565b6105c7575b505050906105c1600080516020613d8b8339815191529361ffff93610566845161ffff1690565b602085015160809095015190946001600160701b0316901515604080519a8b5260208b019b909b52998901919091526001600160701b03166060880152961515608087015295151560a08601521693339390819060c0820190565b0390a480f35b608085015115610acf576105d9613478565b91846105ff60808c6040518093819263635e061d60e11b83528883019190602083019252565b03817384028BeCFEE8D44c5A15b328688b4BeDCbA56Afc5af4908115610ac2575b869087908893610a7a575b50869493929161065e6106649261065860209b6106528d8b0197606060408d019c0161349d565b8961349d565b8461349d565b8761349d565b6106ad606061069f60018060401b03938461067f8251610e8c565b16801580610a66575b8015610a08575b61069991506134ac565b51610e8c565b940193838386519216613999565b93846109e7575b505050506106e6575b505050906105c1600080516020613d8b8339815191529361ffff935b929381955089925061053f565b909194508860019561070c61070589600052600f602052604060002090565b94856134e9565b83546008541461071d575b506106bd565b61074061073b61073298949796939598613330565b988a8a526135c9565b613bdc565b60a08a01526080890152606088015261078b816107616104e06006546101f2565b875161ffff1690604051808095819463a1d54e9b60e01b83528d830161ffff909116815260200190565b03915afa9081156109da575b85916109ad575b506040888101919091525162b1278360e01b81526001600160a01b039190818189817f000000000000000000000000000000000000000000000000000000000000000087165afa9182156109a0575b8692610983575b5050169460408501966002885161080a8161146c565b6108138161146c565b036108ff57863b156108fb57600080516020613d8b83398151915297610866868361ffff9a600080516020613d4b833981519152966105c19a60405180968195829463168fdc8160e31b84528301613415565b03925af180156108ee575b6108d5575b505b51906108838261146c565b61089260405192839283613425565b0390a16108ae6108a188610e7c565b805460ff60881b19169055565b6108ca6108c588600052600f602052604060002090565b613443565b929350938838610717565b806108e26108e892611b19565b806101e7565b38610876565b6108f6611be0565b610871565b8480fd5b863b156108fb57600080516020613d8b8339815191529761094d868361ffff9a600080516020613d4b833981519152966105c19a6040518096819582946323f7197b60e01b84528301613415565b03925af18015610976575b610963575b50610878565b806108e261097092611b19565b3861095d565b61097e611be0565b610958565b6109999250803d10610447576104398183611ba5565b38806107f4565b6109a8611be0565b6107ed565b6109cd9150823d84116109d3575b6109c58183611ba5565b8101906133cf565b3861079e565b503d6109bb565b6109e2611be0565b610797565b6109ff94506109f69051610e8c565b92519216613999565b388581806106b4565b50610a1b610a168c51610e8c565b610e8c565b809110159081610a50575b5080610a36575b6106999061068f565b50610699610a47610a168a51610e8c565b15159050610a2d565b905085610a5d8a51610e8c565b16111538610a26565b50610a74610a168a51610e8c565b15610688565b6106649850879594935061065e9250610aab915060803d608011610abb575b610aa38183611ba5565b8101906132b0565b909995965093949192509061062b565b503d610a99565b610aca611be0565b610620565b91506040519063635e061d60e11b825260808280610af48c8783019190602083019252565b03817384028BeCFEE8D44c5A15b328688b4BeDCbA56Afc5af4918215610e23575b8a92610df8575b50606001516001600160401b0390911690610b38908483613999565b610b5c575b5050906105c1600080516020613d8b8339815191529361ffff936106d9565b909350600193610b80610b7987600052600e602052604060002090565b92836132eb565b88825460085414610b92575b50610b3d565b9194909392610bb3610bae610ba5613330565b97898952613380565b613a45565b60209081880152610bcc816107616104e06006546101f2565b03915afa908115610deb575b8591610dce575b506040888101919091525162b1278360e01b81526001600160a01b039190818189817f000000000000000000000000000000000000000000000000000000000000000087165afa918215610dc1575b8692610da4575b5050169460408501968751610c498161146c565b610c528161146c565b610d2057863b156108fb57600080516020613d8b83398151915297610ca4868361ffff9a600080516020613d4b833981519152966105c19a6040518096819582946361ba6c3d60e01b84528301613415565b03925af18015610d13575b610d00575b505b5190610cc18261146c565b610cd060405192839283613425565b0390a1610cdf6108a188610e7c565b610cf66108c588600052600e602052604060002090565b9293509388610b8c565b806108e2610d0d92611b19565b38610cb4565b610d1b611be0565b610caf565b863b156108fb57600080516020613d8b83398151915297610d6e868361ffff9a600080516020613d4b833981519152966105c19a604051809681958294637d490caf60e01b84528301613415565b03925af18015610d97575b610d84575b50610cb6565b806108e2610d9192611b19565b38610d7e565b610d9f611be0565b610d79565b610dba9250803d10610447576104398183611ba5565b3880610c35565b610dc9611be0565b610c2e565b610de59150823d84116109d3576109c58183611ba5565b38610bdf565b610df3611be0565b610bd8565b610b38919250610e1860609160803d608011610abb57610aa38183611ba5565b505050929150610b1c565b610e2b611be0565b610b15565b610e52915060803d608011610e58575b610e4a8183611ba5565b810190613243565b38610522565b503d610e40565b610e67611be0565b61051b565b600052600d602052604060002090565b600052600c602052604060002090565b6001600160401b031690565b503461000e57604036600319011261000e57602435600435600052600f6020526040600020805482101561000e57608091610ed2916102ae565b50546040519060018060401b038082168352808260401c16602084015281841c16604083015260c01c6060820152f35b503461000e57608036600319011261000e57602435600481101561000e57604051637622567960e11b8152610fa691610f9691610f86906001600160a01b03906020816004817f000000000000000000000000000000000000000000000000000000000000000086165afa908115610fc8575b600091610faa575b50163314611e2e565b60643590604435906004356121b5565b6040519081529081906020820190565b0390f35b610fc2915060203d8111610447576104398183611ba5565b38610f7d565b610fd0611be0565b610f75565b503461000e576000806003193601126111e85761104e6110f560018060a01b03807f0000000000000000000000000000000000000000000000000000000000000000166040516312d43a5160e01b90818152836020968795838781600482978a5afa9081156111db575b8b916111c45750163314611bed565b604051633fb393ab60e21b81528281600481885afa9081156111b7575b899161119a575b50169160046040518095819382525afa91821561118d575b869261116e575b506040516370a0823160e01b8152306004820152918383602481855afa928315611161575b8793611142575b5060405163a9059cbb60e01b81526001600160a01b039091166004820152602481019290925290928391908290879082906044820190565b03925af18015611135575b611108578280f35b8161112792903d1061112e575b61111f8183611ba5565b810190612687565b5038808280f35b503d611115565b61113d611be0565b611100565b61115a919350843d86116109d3576109c58183611ba5565b91386110bd565b611169611be0565b6110b6565b611186919250833d8511610447576104398183611ba5565b9038611091565b611195611be0565b61108a565b6111b19150833d8511610447576104398183611ba5565b38611072565b6111bf611be0565b61106b565b6104419150853d8711610447576104398183611ba5565b6111e3611be0565b61103f565b80fd5b503461000e57602036600319011261000e57600080516020613dab833981519152604060043561126b82516312d43a5160e01b815260018060a01b0390602081600481857f0000000000000000000000000000000000000000000000000000000000000000165afa9081156112a1575b6000916112895750163314611bed565b611276811515611c24565b80600a55815190600082526020820152a1005b610441915060203d8111610447576104398183611ba5565b6112a9611be0565b61125b565b503461000e57604036600319011261000e57602435600435600052600e6020526040600020805482101561000e576020916112e8916102ae565b90546040519160031b1c8152f35b503461000e57602036600319011261000e5760043561131481610348565b6040516312d43a5160e01b81526001600160a01b03906113729082906020816004817f000000000000000000000000000000000000000000000000000000000000000086165afa9081156112a1576000916112895750163314611bed565b811661137f811515611c24565b60095490601482101561141d5760005b8281106113e0577fadfedad3d82b3775bf2dbea70a01327d1f26c0b868eb8ce0963a6e9af1003e85846113c181611ce1565b6113cc600954611d4f565b6113db60405192839283611d75565b0390a1005b806114138361140c6104e06113f761141896610285565b905460039190911b1c6001600160a01b031690565b1415611ca4565b611c88565b61138f565b60405162461bcd60e51b815260206004820152601060248201526f4d41585f4f5241434c455f4e4f44455360801b6044820152606490fd5b50634e487b7160e01b600052602160045260246000fd5b6004111561147657565b61147e611455565b565b90600482101561148d5752565b611495611455565b52565b503461000e57602036600319011261000e57600435600052600c60205260a060406000205460ff6040519161ffff8116835260018060701b038160101c1660208401526114ed60408401838360801c16611480565b818160881c161515606084015260901c1615156080820152f35b503461000e57604036600319011261000e576020611529602435600435613696565b604051908152f35b503461000e57600036600319011261000e576020600854604051908152f35b503461000e57602036600319011261000e577f2504020720d4f3f4c5a7010cde1f1e76e9a22857f308ef695d666ed1237bf8a4602060043561159181610348565b6040516312d43a5160e01b81526001600160a01b0391906115ef90839085816004817f000000000000000000000000000000000000000000000000000000000000000086165afa90811561044e576000916104215750163314611bed565b166115fb811515611c24565b600780546001600160a01b03191682179055604051908152a1005b503461000e57602036600319011261000e57600435600052600d6020526020604060002054604051908152f35b503461000e57602036600319011261000e57600080516020613dab83398151915260406004356116c282516312d43a5160e01b815260018060a01b0390602081600481857f0000000000000000000000000000000000000000000000000000000000000000165afa9081156112a1576000916112895750163314611bed565b6116cd811515611c24565b80600b55815190600182526020820152a1005b503461000e57602036600319011261000e57600654604051638251135b60e01b815260048035908201526020918290829060249082906001600160a01b03165afa908115611757575b60009161173a575b50604051908152f35b6117519150823d81116109d3576109c58183611ba5565b38611731565b61175f611be0565b611729565b503461000e5760208060031936011261000e576040516312d43a5160e01b81526004803592916117da916001600160a01b03919084908290817f000000000000000000000000000000000000000000000000000000000000000086165afa90811561188e575b6000916118775750163314611bed565b600182106118455760018083160361181a577f230365d79885046a48c9158f0e4840ab95929bbebf5de4be23f7ce5f91a97c656113db83610f9681600855565b6064906040519062461bcd60e51b82526004820152600460248201526322ab22a760e11b6044820152fd5b6064906040519062461bcd60e51b82526004820152600b60248201526a4d494e5f414e535745525360a81b6044820152fd5b6104419150843d8611610447576104398183611ba5565b611896611be0565b6117ca565b503461000e57604036600319011261000e576119b760243561198f6004356118c283610348565b6040516312d43a5160e01b81527f945eb5535c35fb8b656c5c6b7d8bb9d9deba3a44d202bd2b53d58aac4f43db04906060906001600160a01b03906119459082906020816004817f000000000000000000000000000000000000000000000000000000000000000086165afa9081156112a1576000916112895750163314611bed565b60095484109061195482611d8e565b80871691611963831515611c24565b156119b9575b6009600052846020600020015416906040519185835260208301526040820152a1610285565b9080546001600160a01b0360039390931b83811b80199092169390941690931b909216179055565b005b6119c161026e565b611969565b503461000e5760208060031936011261000e57611ac69061198f611ac0600435926040516312d43a5160e01b8152611a4260018060a01b0382848160048496857f0000000000000000000000000000000000000000000000000000000000000000165afa908115611af5575b6000916111c45750163314611bed565b7f03082ced7b8d3c831a021af877c172ae1e0257c3522a135e4d71613438461156611a9660095492838810611a7681611d8e565b15611ae8575b600960005287856000200154166040519182918983611d75565b0390a16000199181808401818111611adb575b1015611ace575b60096000526000200101546101f2565b91610285565b6119b7611dc8565b611ad661026e565b611ab0565b611ae3611c71565b611aa9565b611af061026e565b611a7c565b611afd611be0565b611a32565b50634e487b7160e01b600052604160045260246000fd5b6001600160401b038111611b2c57604052565b611b34611b02565b604052565b60a081019081106001600160401b03821117611b2c57604052565b608081019081106001600160401b03821117611b2c57604052565b604081019081106001600160401b03821117611b2c57604052565b606081019081106001600160401b03821117611b2c57604052565b601f909101601f19168101906001600160401b03821190821017611b2c57604052565b9081602091031261000e5751611bdd81610348565b90565b506040513d6000823e3d90fd5b15611bf457565b60405162461bcd60e51b8152602060048201526008602482015267474f565f4f4e4c5960c01b6044820152606490fd5b15611c2b57565b60405162461bcd60e51b8152602060048201526007602482015266056414c55455f360cc1b6044820152606490fd5b50634e487b7160e01b600052601260045260246000fd5b50634e487b7160e01b600052601160045260246000fd5b6001906000198114611c98570190565b611ca0611c71565b0190565b15611cab57565b60405162461bcd60e51b815260206004820152600e60248201526d1053149150511657d31254d5115160921b6044820152606490fd5b600954600160401b811015611d42575b6001810180600955811015611d35575b6009600052600080516020613d6b8339815191520180546001600160a01b0319166001600160a01b03909216919091179055565b611d3d61026e565b611d01565b611d4a611b02565b611cf1565b600019810191908211611d5e57565b61147e611c71565b601f19810191908211611d5e57565b9081526001600160a01b03909116602082015260400190565b15611d9557565b60405162461bcd60e51b815260206004820152600b60248201526a0aea49e9c8ebe929c888ab60ab1b6044820152606490fd5b6009548015611e18576000198181019180831015611e0b575b600960008190529101600080516020613d6b8339815191520180546001600160a01b031916905555565b611e1361026e565b611de1565b634e487b7160e01b600052603160045260246000fd5b15611e3557565b60405162461bcd60e51b815260206004820152600c60248201526b54524144494e475f4f4e4c5960a01b6044820152606490fd5b15611e7057565b60405162461bcd60e51b815260206004820152600d60248201526c504149525f4f564552464c4f5760981b6044820152606490fd5b6040519061147e82611b39565b60005b838110611ec55750506000910152565b8181015183820152602001611eb5565b81601f8201121561000e5780516001600160401b038111611f27575b60405192611f09601f8301601f191660200185611ba5565b8184526020828401011161000e57611bdd9160208085019101611eb2565b611f2f611b02565b611ef1565b91909160808184031261000e5780516001600160401b039081811161000e5784611f5f918401611ed5565b93602083015191821161000e57611f77918301611ed5565b916060604083015192015190565b60405190611f9282611b6f565b600482526366726f6d60e01b6020830152565b60405190611fb282611b6f565b6002825261746f60f01b6020830152565b60405190611fd082611b6f565b600982526866726f6d426c6f636b60b81b6020830152565b604051906009548083528260209182820190600960005283600020936000905b82821061201e5750505061147e92500383611ba5565b85546001600160a01b031684526001958601958895509381019390910190612008565b811561204b570490565b612053611c5a565b0490565b1561205e57565b60405162461bcd60e51b815260206004820152600d60248201526c4c494e4b5f4f564552464c4f5760981b6044820152606490fd5b600482101561148d5752565b8151815460208401516001600160801b0319821661ffff9390931692831760109190911b62010000600160801b03169081178455604085015161147e9561213f94608094919391926120f08161146c565b6004811015612159575b6001600160881b0319909316171790831b60ff841b161784556060810151612138901515855460ff60881b191690151560881b60ff60881b16178555565b0151151590565b815460ff60901b191690151560901b60ff60901b16179055565b612161611455565b6120fa565b602091815181101561217b575b60051b010190565b61218361026e565b612173565b93909594919260809361219f8660a0810199611480565b6020860152604085015260608401521515910152565b90919261ffff926121c884841115611e69565b6121d18161146c565b6002811480156123f5575b80156123ec57600b54925b6121f13085612540565b956122006104e06006546101f2565b604051630c0be07f60e21b81526004810188905298906000908a90602490829084905af19788156123df575b6000809a819a6123a1575b5061226361228e98999a9b612255889361224f611f85565b86612408565b61225d611fa5565b84612408565b61238a575b90899593969492916122fd8a6122d3612293612282611fe8565b9586519a8b9185613696565b612041565b956001600160701b03906122c1906122ad838a1115612057565b6122b5611ea5565b9416849061ffff169052565b86166001600160701b03166020830152565b6122e08760408301612093565b6001606082015285151560808201526122f889610e7c565b61209f565b60005b86811061234457505050907ffadf91896d9352ab1e350a349050907f966d8ea7f38c1a5be50f2a379ef4fcbe949561233e9260405195869586612188565b0390a490565b83949698959761237a612375859685612370612363876001999a612166565b516001600160a01b031690565b6125e2565b610e6c565b550191908a969497959392612300565b61239c84612396611fc3565b83612421565b612268565b6122559b5061228e98999a506123cd6122639188933d8091833e6123c58183611ba5565b810190611f34565b919e50909c9b9a509092506122379050565b6123e7611be0565b61222c565b600a54926121e7565b506123ff8161146c565b600381146121dc565b608001805161147e939261241b91613171565b51613171565b60806124309101918251613171565b51906001600160401b038082111561244c575061147e91613062565b81166017811161246857509060ff612465921690612c6e565b50565b905060ff8111612485578161247f61246593612995565b50612fed565b61ffff81116124a1578161249b61246593612944565b50612f77565b63ffffffff81116124bf57816124b9612465936128f3565b50612eff565b816124cc61246593612887565b50612e77565b60408051919082016001600160401b038111838210176124fd575b6040526000602083606081520152565b612505611b02565b6124ed565b6040519061251782611b39565b8160008152600060208201526000604082015260006060820152608061253b6124d2565b910152565b9061254961250a565b5061255261250a565b9161255b61250a565b50610120608084015161256c6124d2565b5061010060208201526040518091526000815201604052825260018060a01b031660208201526321abc2af60e11b604082015290565b9060208201809211611d5e57565b91908201809211611d5e57565b906020916125d681518092818552858086019101611eb2565b601f01601f1916010190565b600454611bdd93916001820180831161267a575b6004556126758451612667608063ffffffff60e01b604089015116970151516040519788936320214ca360e11b60208601526000602486015260006044860152606485015230608485015260a48401528560c4840152600160e48401526101006101048401526101248301906125bd565b03601f198101865285611ba5565b61271b565b612682611c71565b6125f6565b9081602091031261000e5751801515810361000e5790565b611bdd939260609260018060a01b03168252602082015281604082015201906125bd565b156126ca57565b60405162461bcd60e51b815260206004820152602360248201527f756e61626c6520746f207472616e73666572416e6443616c6c20746f206f7261604482015262636c6560e81b6064820152608490fd5b61147e9294936020916127dd936040518481019160018060601b03193060601b16835260348201526034815261275081611b8a565b5190209661278b8261276c8a6000526005602052604060002090565b80546001600160a01b0319166001600160a01b03909216919091179055565b60006040518096819582948c7fb5e6e01e79f91267dc17b4e6314d5d4d03593d2ceee0fbb452b750bd70ea5af98680a26127c96104e06002546101f2565b630200057560e51b8552966004850161269f565b03925af1908115612815575b6000916127f7575b506126c3565b61280f915060203d811161112e5761111f8183611ba5565b386127f1565b61281d611be0565b6127e9565b9061282b6124d2565b50601f811680612851575b50806020830152604051808352600081520160200160405290565b6020036020811161287a575b810180911161286d575b38612836565b612875611c71565b612867565b612882611c71565b61285d565b61288f6124d2565b5080515161289b6124d2565b506020820151808210156128cd575b50815190815181601b6020839486010153146128c557505090565b600101905290565b6128d96128ec91612cd2565b6128e584519185612822565b5083612d88565b50386128aa565b6128fb6124d2565b508051516129076124d2565b50602082015180821015612931575b50815190815181601a6020839486010153146128c557505090565b6128d961293d91612cd2565b5038612916565b61294c6124d2565b508051516129586124d2565b50602082015180821015612982575b5081519081518160196020839486010153146128c557505090565b6128d961298e91612cd2565b5038612967565b61299d6124d2565b508051516129a96124d2565b506020820151808210156129d3575b5081519081518160186020839486010153146128c557505090565b6128d96129df91612cd2565b50386129b8565b6129ee6124d2565b508051516129fa6124d2565b50602082015180821015612a24575b50815190815181605b6020839486010153146128c557505090565b6128d9612a3091612cd2565b5038612a09565b612a3f6124d2565b50805151612a4b6124d2565b50602082015180821015612a75575b50815190815181605a6020839486010153146128c557505090565b6128d9612a8191612cd2565b5038612a5a565b612a906124d2565b50805151612a9c6124d2565b50602082015180821015612ac6575b5081519081518160596020839486010153146128c557505090565b6128d9612ad291612cd2565b5038612aab565b612ae16124d2565b50805151612aed6124d2565b50602082015180821015612b17575b5081519081518160586020839486010153146128c557505090565b6128d9612b2391612cd2565b5038612afc565b612b326124d2565b50805151612b3e6124d2565b50602082015180821015612b68575b50815190815181607b6020839486010153146128c557505090565b6128d9612b7491612cd2565b5038612b4d565b612b836124d2565b50805151612b8f6124d2565b50602082015180821015612bb9575b50815190815181607a6020839486010153146128c557505090565b6128d9612bc591612cd2565b5038612b9e565b612bd46124d2565b50805151612be06124d2565b50602082015180821015612c0a575b5081519081518160796020839486010153146128c557505090565b6128d9612c1691612cd2565b5038612bef565b612c256124d2565b50805151612c316124d2565b50602082015180821015612c5b575b5081519081518160786020839486010153146128c557505090565b6128d9612c6791612cd2565b5038612c40565b90612c776124d2565b50815151612c836124d2565b50602083015180821015612cac575b50825191825191829160208286010153146128c557505090565b612cb8612ccb91612cd2565b612cc485519186612822565b5084612d88565b5038612c92565b908160011b9180830460021490151715611d5e57565b906305f5e10091828102928184041490151715611d5e57565b81810292918115918404141715611d5e57565b906124659180519180612d256124d2565b50601f811680612d4e575b50508060208301526040518083526000815201602001604052612d88565b90915060200360208111612d7b575b8101809111612d6e575b3880612d30565b612d76611c71565b612d67565b612d83611c71565b612d5d565b90612d916124d2565b5081515190805190612da16124d2565b50612daf8151831115612e60565b612db982846125b0565b602091829182870151809111612e35575b5085518051908387820101968601918211612e2d575b505001915b81811015612e075760001991036101000a019081199051169082511617905290565b9192612e22612e1c612e2892865181526125a2565b946125a2565b92611d66565b612de5565b523880612de0565b612e54612e4f612e5a92612e4989896125b0565b90612e67565b612cd2565b87612d14565b38612dca565b1561000e57565b818111612e72575090565b905090565b90612e806124d2565b5081515190612e8d6124d2565b508160080180600811612ef2575b60208401518111612eda575b508251828101600890810180516001600160401b031916909317909252805192909101918211612ed657505090565b5290565b612ee6612eec91612cd2565b84612d14565b38612ea7565b612efa611c71565b612e9b565b90612f086124d2565b5081515190612f156124d2565b508160040180600411612f6a575b60208401518111612f58575b508251906004838301019063ffffffff19825116179052600481519201918211612ed657505090565b612ee6612f6491612cd2565b38612f2f565b612f72611c71565b612f23565b90612f806124d2565b5081515190612f8d6124d2565b508160020180600211612fe0575b60208401518111612fce575b508251906002838301019061ffff19825116179052600281519201918211612ed657505090565b612ee6612fda91612cd2565b38612fa7565b612fe8611c71565b612f9b565b90612ff66124d2565b50815151906130036124d2565b508160010180600111613055575b60208401518111613043575b508251906001838301019060ff19825116179052600181519201918211612ed657505090565b612ee661304f91612cd2565b3861301d565b61305d611c71565b613011565b906124659161306f6124d2565b5080515161307b6124d2565b5060208201518082101561315e575b5081519081518160c2602083948601015314613152575b5050604051916020830152602082526130b982611b6f565b81516001600160401b038116601781116130e45750604060ff6130de92161782612c6e565b50612d88565b905060ff8111613102576130de906130fb83612ad9565b5082612fed565b61ffff811161311f576130de9061311883612a88565b5082612f77565b63ffffffff811161313e576130de9061313783612a37565b5082612eff565b6130de9061314b836129e6565b5082612e77565b600101905238806130a1565b6128d961316a91612cd2565b503861308a565b81516124659291906001600160401b0381166017811161319c5750606060ff6130de92161782612c6e565b905060ff81116131b3576130de906130fb83612c1d565b61ffff81116131c9576130de9061311883612bcc565b63ffffffff81116131e1576130de9061313783612b7b565b6130de9061314b83612b2a565b906040516131fb81611b39565b608060ff82945461ffff8116845260018060701b038160101c16602085015261322b8282851c1660408601612093565b818160881c161515606085015260901c161515910152565b9081608091031261000e576040519061325b82611b54565b805161326681610348565b8252602081015161327681610348565b6020830152604081015190600382101561000e5760609160408401520151606082015290565b51906001600160401b038216820361000e57565b919082608091031261000e576132c58261329c565b916132d26020820161329c565b91611bdd60606132e46040850161329c565b930161329c565b805461330991600160401b821015613323575b6001820181556102ae565b819291549060031b600019811b9283911b16911916179055565b61332b611b02565b6132fe565b6040519060c082016001600160401b03811183821017613373575b6040528160a06000918281528260208201528260408201528260608201528260808201520152565b61337b611b02565b61334b565b9060405191828154918282526020928383019160005283600020936000905b8282106133b55750505061147e92500383611ba5565b85548452600195860195889550938101939091019061339f565b9081602091031261000e575190565b60a0809180518452602081015160208501526040810151604085015260608101516060850152608081015160808501520151910152565b60c08101929161147e91906133de565b9160c061147e92949361343c8160e08101976133de565b0190611480565b8054906000908181558261345657505050565b815260208120918201915b82811061346d57505050565b818155600101613461565b6040519061348582611b54565b60006060838281528260208201528260408201520152565b6001600160401b039091169052565b156134b357565b60405162461bcd60e51b815260206004820152600e60248201526d494e56414c49445f43414e444c4560901b6044820152606490fd5b805461350691600160401b821015613323576001820181556102ae565b61358d578151815460208401516040808601516001600160c01b03199093166001600160401b039490941693909317921b600160401b600160801b03169190911760809190911b600160801b600160c01b031617815561147e9161356d9060600151610e8c565b81546001600160c01b031660c09190911b6001600160c01b031916179055565b634e487b7160e01b600052600060045260246000fd5b6020906001600160401b0381116135bc575b60051b0190565b6135c4611b02565b6135b5565b9081546135d5816135a3565b926040936135e585519182611ba5565b828152809460208092019260005281600020906000935b85851061360b57505050505050565b6001848192845161361b81611b54565b8654848060401b0380821683528082891c16858401528160801c168783015260c01c60608201528152019301940193916135fc565b51906001600160501b038216820361000e57565b908160a091031261000e5761367881613650565b91602082015191604081015191611bdd608060608401519301613650565b6137326004611bdd9361373d9360a06136b36104e06007546101f2565b604051633fabe5a360e21b815294859182905afa9283156137b5575b60009361376f575b5061228e91613713602061372d936136f36104e06006546101f2565b604051808095819463f7acbabd60e01b8352600483019190602083019252565b03915afa908115613762575b600091613744575b50612d01565b612ce8565b6402540be400900490565b6064900490565b61375c915060203d81116109d3576109c58183611ba5565b38613727565b61376a611be0565b61371f565b61372d91935091613713602061379e61228e9560a03d81116137ae575b6137968183611ba5565b810190613664565b50505090509593505050916136d7565b503d61378c565b6137bd611be0565b6136cf565b6003111561147657565b906402540be40091828102928184051490151715611d5e57565b80156137fa575b670de0b6b3a76400000590565b613802611c5a565b6137ed565b811561382f575b600160ff1b8114600019831416613823570590565b61382b611c71565b0590565b613837611c5a565b61380e565b80516001600160a01b0390613850906101f2565b168015613992576000906040518093633fabe5a360e21b9283835282600460a09485935afa948515613985575b8495613961575b50604081018051613894816137c2565b61389d816137c2565b6138bc5750505050506138b2611bdd916137cc565b6305f5e100900590565b600190516138c9816137c2565b6138d2816137c2565b036138e45750505050611bdd906137e6565b90806138fe6104e06104e06020611bdd99979601516101f2565b9260046040518095819382525afa938415613954575b9361392a575b5050613925906137cc565b613807565b613925929350908161394792903d106137ae576137968183611ba5565b505050905091903861391a565b61395c611be0565b613914565b613979919550823d84116137ae576137968183611ba5565b50505090509338613884565b61398d611be0565b61387d565b5050600090565b91908215928315613a3c575b83156139b2575b50505090565b9192506139fe91818110613a2a57818103908111613a1d575b64e8d4a510006402540be40091828102928184041481151715613a10575b029080820460641490151715613a0857612041565b11153880806139ac565b61228e611c71565b613a18611c71565b6139e9565b613a25611c71565b6139cb565b8103818111156139cb57613a25611c71565b811593506139a5565b613a528151600083613ac5565b805160018116613ab35750613a88613a7b825160011c6000198101908111613aa6575b83612166565b5191805160011c90612166565b518101809111613a99575b60011c90565b613aa1611c71565b613a93565b613aae611c71565b613a75565b90613ac19160011c90612166565b5190565b919081811015613b795780613ada8185612166565b5160018201808311613b6c575b9083915b858110613b2657505081613b0382613b099488613b7e565b85613ac5565b61147e926001820180921115613ac557613b21611c71565b613ac5565b90809250613b348288612166565b5110613b4c575b613b4490611c88565b908391613aeb565b92613b59613b4491611c88565b93613b65858289613b7e565b9050613b3b565b613b74611c71565b613ae7565b505050565b9061149591613b8d8482612166565b5193613ba4613b9c8484612166565b519183612166565b52612166565b90613bb4826135a3565b613bc16040519182611ba5565b8281528092613bd2601f19916135a3565b0190602036910137565b90815190613be982613baa565b92613bf383613baa565b93613bfd84613baa565b9160005b858110613ccf575050613c1684600083613ac5565b613c2284600087613ac5565b613c2e84600084613ac5565b60018416159360011c908185600014613cc057613c6c91613c6582613c5e613c58613a9395611d4f565b84612166565b5192612166565b51906125b0565b94818515613cb157613c8b91613c6582613c5e613c58613a9395611d4f565b9315613ca857611bdd91613c6582613c5e613c58613a9395611d4f565b613ac191612166565b613cba91612166565b51613c8b565b613cc991612166565b51613c6c565b80613cf0610a16613ce260019486612166565b51516001600160401b031690565b613cfa8286612166565b52613d1c610a166020613d0d8487612166565b5101516001600160401b031690565b613d26828a612166565b52613d39610a166040613d0d8487612166565b613d438287612166565b5201613c0156fece3ae2fe07e497ba552d6485a40eed46cfb3320f001027891efeb1128dba03506e1540171b6c0c960b71a7020d9f60077f6af931a8bbf590da0223dacf75c7afdc6ff5906123aad281d8e734bb64101cea661d614a568b9bca20e7ac2ae7f354764c19c693af0da42ec6c6bed68a2dd1a2fa93d24785fcfce58ffa29ae313606a164736f6c6343000811000a",
  "deployedBytecode": "0x60806040526004361015610013575b600080fd5b60003560e01c8062912b37146101de57806316fff074146101d55780631c53c280146101cc57806335b03c17146101c357806340e9eda2146101ba5780634162cc88146101b15780634357855e146101a85780634c37a9d61461019f5780636938c05d146101965780636f37d2631461018d57806385f276b81461018457806393d7fe2c1461017b5780639d95f1cc14610172578063a85c38ef14610169578063b9e0336f14610160578063bea1675814610157578063d31273ca1461014e578063dcdfb43114610145578063e0bb91c21461013c578063e21e5fe014610133578063f5ed447c1461012a578063fd288280146101215763ffd740df1461011957600080fd5b61000e6119c6565b5061000e61189b565b5061000e611764565b5061000e6116e0565b5061000e611643565b5061000e611616565b5061000e611550565b5061000e611531565b5061000e611507565b5061000e611498565b5061000e6112f6565b5061000e6112ae565b5061000e6111eb565b5061000e610fd5565b5061000e610f02565b5061000e610e98565b5061000e610488565b5061000e61045b565b5061000e610359565b5061000e61031e565b5061000e6102d4565b5061000e610228565b5061000e6101fe565b600091031261000e57565b6001600160a01b031690565b503461000e57600036600319011261000e576007546040516001600160a01b039091168152602090f35b503461000e57600036600319011261000e576040517f00000000000000000000000000000000000000000000000000000000000000006001600160a01b03168152602090f35b50634e487b7160e01b600052603260045260246000fd5b6009548110156102a1575b600960005260206000200190600090565b6102a961026e565b610290565b80548210156102c7575b60005260206000200190600090565b6102cf61026e565b6102b8565b503461000e57602036600319011261000e5760043560095481101561000e576009600052600080516020613d6b83398151915201546040516001600160a01b039091168152602090f35b503461000e57600036600319011261000e576006546040516001600160a01b039091168152602090f35b6001600160a01b0381160361000e57565b503461000e57602036600319011261000e577f477e87af277e7755f85267ef7c6b77cd28610c2c8c2923acdf55fa5b63f18b77602060043561039a81610348565b6040516312d43a5160e01b81526001600160a01b0391906103fa90839085816004817f000000000000000000000000000000000000000000000000000000000000000086165afa90811561044e575b600091610421575b50163314611bed565b16610406811515611c24565b600680546001600160a01b03191682179055604051908152a1005b6104419150863d8111610447575b6104398183611ba5565b810190611bc8565b386103f1565b503d61042f565b610456611be0565b6103e9565b503461000e57602036600319011261000e57600435600281101561000e57602090600a0154604051908152f35b503461000e57604036600319011261000e57600460243581356104aa81610e6c565b54600093846104b884610e6c565b556104ca6104c583610e7c565b6131ee565b85918661050f60806104e56104e06006546101f2565b6101f2565b855161ffff169060405180809581946307aa801760e21b835289830161ffff909116815260200190565b03915afa908115610e5f575b8291610e30575b5061052c8161383c565b9261053a6060860151151590565b6105c7575b505050906105c1600080516020613d8b8339815191529361ffff93610566845161ffff1690565b602085015160809095015190946001600160701b0316901515604080519a8b5260208b019b909b52998901919091526001600160701b03166060880152961515608087015295151560a08601521693339390819060c0820190565b0390a480f35b608085015115610acf576105d9613478565b91846105ff60808c6040518093819263635e061d60e11b83528883019190602083019252565b038173__$0a787ca790b72760fa5f2fae68e461a66f$__5af4908115610ac2575b869087908893610a7a575b50869493929161065e6106649261065860209b6106528d8b0197606060408d019c0161349d565b8961349d565b8461349d565b8761349d565b6106ad606061069f60018060401b03938461067f8251610e8c565b16801580610a66575b8015610a08575b61069991506134ac565b51610e8c565b940193838386519216613999565b93846109e7575b505050506106e6575b505050906105c1600080516020613d8b8339815191529361ffff935b929381955089925061053f565b909194508860019561070c61070589600052600f602052604060002090565b94856134e9565b83546008541461071d575b506106bd565b61074061073b61073298949796939598613330565b988a8a526135c9565b613bdc565b60a08a01526080890152606088015261078b816107616104e06006546101f2565b875161ffff1690604051808095819463a1d54e9b60e01b83528d830161ffff909116815260200190565b03915afa9081156109da575b85916109ad575b506040888101919091525162b1278360e01b81526001600160a01b039190818189817f000000000000000000000000000000000000000000000000000000000000000087165afa9182156109a0575b8692610983575b5050169460408501966002885161080a8161146c565b6108138161146c565b036108ff57863b156108fb57600080516020613d8b83398151915297610866868361ffff9a600080516020613d4b833981519152966105c19a60405180968195829463168fdc8160e31b84528301613415565b03925af180156108ee575b6108d5575b505b51906108838261146c565b61089260405192839283613425565b0390a16108ae6108a188610e7c565b805460ff60881b19169055565b6108ca6108c588600052600f602052604060002090565b613443565b929350938838610717565b806108e26108e892611b19565b806101e7565b38610876565b6108f6611be0565b610871565b8480fd5b863b156108fb57600080516020613d8b8339815191529761094d868361ffff9a600080516020613d4b833981519152966105c19a6040518096819582946323f7197b60e01b84528301613415565b03925af18015610976575b610963575b50610878565b806108e261097092611b19565b3861095d565b61097e611be0565b610958565b6109999250803d10610447576104398183611ba5565b38806107f4565b6109a8611be0565b6107ed565b6109cd9150823d84116109d3575b6109c58183611ba5565b8101906133cf565b3861079e565b503d6109bb565b6109e2611be0565b610797565b6109ff94506109f69051610e8c565b92519216613999565b388581806106b4565b50610a1b610a168c51610e8c565b610e8c565b809110159081610a50575b5080610a36575b6106999061068f565b50610699610a47610a168a51610e8c565b15159050610a2d565b905085610a5d8a51610e8c565b16111538610a26565b50610a74610a168a51610e8c565b15610688565b6106649850879594935061065e9250610aab915060803d608011610abb575b610aa38183611ba5565b8101906132b0565b909995965093949192509061062b565b503d610a99565b610aca611be0565b610620565b91506040519063635e061d60e11b825260808280610af48c8783019190602083019252565b038173__$0a787ca790b72760fa5f2fae68e461a66f$__5af4918215610e23575b8a92610df8575b50606001516001600160401b0390911690610b38908483613999565b610b5c575b5050906105c1600080516020613d8b8339815191529361ffff936106d9565b909350600193610b80610b7987600052600e602052604060002090565b92836132eb565b88825460085414610b92575b50610b3d565b9194909392610bb3610bae610ba5613330565b97898952613380565b613a45565b60209081880152610bcc816107616104e06006546101f2565b03915afa908115610deb575b8591610dce575b506040888101919091525162b1278360e01b81526001600160a01b039190818189817f000000000000000000000000000000000000000000000000000000000000000087165afa918215610dc1575b8692610da4575b5050169460408501968751610c498161146c565b610c528161146c565b610d2057863b156108fb57600080516020613d8b83398151915297610ca4868361ffff9a600080516020613d4b833981519152966105c19a6040518096819582946361ba6c3d60e01b84528301613415565b03925af18015610d13575b610d00575b505b5190610cc18261146c565b610cd060405192839283613425565b0390a1610cdf6108a188610e7c565b610cf66108c588600052600e602052604060002090565b9293509388610b8c565b806108e2610d0d92611b19565b38610cb4565b610d1b611be0565b610caf565b863b156108fb57600080516020613d8b83398151915297610d6e868361ffff9a600080516020613d4b833981519152966105c19a604051809681958294637d490caf60e01b84528301613415565b03925af18015610d97575b610d84575b50610cb6565b806108e2610d9192611b19565b38610d7e565b610d9f611be0565b610d79565b610dba9250803d10610447576104398183611ba5565b3880610c35565b610dc9611be0565b610c2e565b610de59150823d84116109d3576109c58183611ba5565b38610bdf565b610df3611be0565b610bd8565b610b38919250610e1860609160803d608011610abb57610aa38183611ba5565b505050929150610b1c565b610e2b611be0565b610b15565b610e52915060803d608011610e58575b610e4a8183611ba5565b810190613243565b38610522565b503d610e40565b610e67611be0565b61051b565b600052600d602052604060002090565b600052600c602052604060002090565b6001600160401b031690565b503461000e57604036600319011261000e57602435600435600052600f6020526040600020805482101561000e57608091610ed2916102ae565b50546040519060018060401b038082168352808260401c16602084015281841c16604083015260c01c6060820152f35b503461000e57608036600319011261000e57602435600481101561000e57604051637622567960e11b8152610fa691610f9691610f86906001600160a01b03906020816004817f000000000000000000000000000000000000000000000000000000000000000086165afa908115610fc8575b600091610faa575b50163314611e2e565b60643590604435906004356121b5565b6040519081529081906020820190565b0390f35b610fc2915060203d8111610447576104398183611ba5565b38610f7d565b610fd0611be0565b610f75565b503461000e576000806003193601126111e85761104e6110f560018060a01b03807f0000000000000000000000000000000000000000000000000000000000000000166040516312d43a5160e01b90818152836020968795838781600482978a5afa9081156111db575b8b916111c45750163314611bed565b604051633fb393ab60e21b81528281600481885afa9081156111b7575b899161119a575b50169160046040518095819382525afa91821561118d575b869261116e575b506040516370a0823160e01b8152306004820152918383602481855afa928315611161575b8793611142575b5060405163a9059cbb60e01b81526001600160a01b039091166004820152602481019290925290928391908290879082906044820190565b03925af18015611135575b611108578280f35b8161112792903d1061112e575b61111f8183611ba5565b810190612687565b5038808280f35b503d611115565b61113d611be0565b611100565b61115a919350843d86116109d3576109c58183611ba5565b91386110bd565b611169611be0565b6110b6565b611186919250833d8511610447576104398183611ba5565b9038611091565b611195611be0565b61108a565b6111b19150833d8511610447576104398183611ba5565b38611072565b6111bf611be0565b61106b565b6104419150853d8711610447576104398183611ba5565b6111e3611be0565b61103f565b80fd5b503461000e57602036600319011261000e57600080516020613dab833981519152604060043561126b82516312d43a5160e01b815260018060a01b0390602081600481857f0000000000000000000000000000000000000000000000000000000000000000165afa9081156112a1575b6000916112895750163314611bed565b611276811515611c24565b80600a55815190600082526020820152a1005b610441915060203d8111610447576104398183611ba5565b6112a9611be0565b61125b565b503461000e57604036600319011261000e57602435600435600052600e6020526040600020805482101561000e576020916112e8916102ae565b90546040519160031b1c8152f35b503461000e57602036600319011261000e5760043561131481610348565b6040516312d43a5160e01b81526001600160a01b03906113729082906020816004817f000000000000000000000000000000000000000000000000000000000000000086165afa9081156112a1576000916112895750163314611bed565b811661137f811515611c24565b60095490601482101561141d5760005b8281106113e0577fadfedad3d82b3775bf2dbea70a01327d1f26c0b868eb8ce0963a6e9af1003e85846113c181611ce1565b6113cc600954611d4f565b6113db60405192839283611d75565b0390a1005b806114138361140c6104e06113f761141896610285565b905460039190911b1c6001600160a01b031690565b1415611ca4565b611c88565b61138f565b60405162461bcd60e51b815260206004820152601060248201526f4d41585f4f5241434c455f4e4f44455360801b6044820152606490fd5b50634e487b7160e01b600052602160045260246000fd5b6004111561147657565b61147e611455565b565b90600482101561148d5752565b611495611455565b52565b503461000e57602036600319011261000e57600435600052600c60205260a060406000205460ff6040519161ffff8116835260018060701b038160101c1660208401526114ed60408401838360801c16611480565b818160881c161515606084015260901c1615156080820152f35b503461000e57604036600319011261000e576020611529602435600435613696565b604051908152f35b503461000e57600036600319011261000e576020600854604051908152f35b503461000e57602036600319011261000e577f2504020720d4f3f4c5a7010cde1f1e76e9a22857f308ef695d666ed1237bf8a4602060043561159181610348565b6040516312d43a5160e01b81526001600160a01b0391906115ef90839085816004817f000000000000000000000000000000000000000000000000000000000000000086165afa90811561044e576000916104215750163314611bed565b166115fb811515611c24565b600780546001600160a01b03191682179055604051908152a1005b503461000e57602036600319011261000e57600435600052600d6020526020604060002054604051908152f35b503461000e57602036600319011261000e57600080516020613dab83398151915260406004356116c282516312d43a5160e01b815260018060a01b0390602081600481857f0000000000000000000000000000000000000000000000000000000000000000165afa9081156112a1576000916112895750163314611bed565b6116cd811515611c24565b80600b55815190600182526020820152a1005b503461000e57602036600319011261000e57600654604051638251135b60e01b815260048035908201526020918290829060249082906001600160a01b03165afa908115611757575b60009161173a575b50604051908152f35b6117519150823d81116109d3576109c58183611ba5565b38611731565b61175f611be0565b611729565b503461000e5760208060031936011261000e576040516312d43a5160e01b81526004803592916117da916001600160a01b03919084908290817f000000000000000000000000000000000000000000000000000000000000000086165afa90811561188e575b6000916118775750163314611bed565b600182106118455760018083160361181a577f230365d79885046a48c9158f0e4840ab95929bbebf5de4be23f7ce5f91a97c656113db83610f9681600855565b6064906040519062461bcd60e51b82526004820152600460248201526322ab22a760e11b6044820152fd5b6064906040519062461bcd60e51b82526004820152600b60248201526a4d494e5f414e535745525360a81b6044820152fd5b6104419150843d8611610447576104398183611ba5565b611896611be0565b6117ca565b503461000e57604036600319011261000e576119b760243561198f6004356118c283610348565b6040516312d43a5160e01b81527f945eb5535c35fb8b656c5c6b7d8bb9d9deba3a44d202bd2b53d58aac4f43db04906060906001600160a01b03906119459082906020816004817f000000000000000000000000000000000000000000000000000000000000000086165afa9081156112a1576000916112895750163314611bed565b60095484109061195482611d8e565b80871691611963831515611c24565b156119b9575b6009600052846020600020015416906040519185835260208301526040820152a1610285565b9080546001600160a01b0360039390931b83811b80199092169390941690931b909216179055565b005b6119c161026e565b611969565b503461000e5760208060031936011261000e57611ac69061198f611ac0600435926040516312d43a5160e01b8152611a4260018060a01b0382848160048496857f0000000000000000000000000000000000000000000000000000000000000000165afa908115611af5575b6000916111c45750163314611bed565b7f03082ced7b8d3c831a021af877c172ae1e0257c3522a135e4d71613438461156611a9660095492838810611a7681611d8e565b15611ae8575b600960005287856000200154166040519182918983611d75565b0390a16000199181808401818111611adb575b1015611ace575b60096000526000200101546101f2565b91610285565b6119b7611dc8565b611ad661026e565b611ab0565b611ae3611c71565b611aa9565b611af061026e565b611a7c565b611afd611be0565b611a32565b50634e487b7160e01b600052604160045260246000fd5b6001600160401b038111611b2c57604052565b611b34611b02565b604052565b60a081019081106001600160401b03821117611b2c57604052565b608081019081106001600160401b03821117611b2c57604052565b604081019081106001600160401b03821117611b2c57604052565b606081019081106001600160401b03821117611b2c57604052565b601f909101601f19168101906001600160401b03821190821017611b2c57604052565b9081602091031261000e5751611bdd81610348565b90565b506040513d6000823e3d90fd5b15611bf457565b60405162461bcd60e51b8152602060048201526008602482015267474f565f4f4e4c5960c01b6044820152606490fd5b15611c2b57565b60405162461bcd60e51b8152602060048201526007602482015266056414c55455f360cc1b6044820152606490fd5b50634e487b7160e01b600052601260045260246000fd5b50634e487b7160e01b600052601160045260246000fd5b6001906000198114611c98570190565b611ca0611c71565b0190565b15611cab57565b60405162461bcd60e51b815260206004820152600e60248201526d1053149150511657d31254d5115160921b6044820152606490fd5b600954600160401b811015611d42575b6001810180600955811015611d35575b6009600052600080516020613d6b8339815191520180546001600160a01b0319166001600160a01b03909216919091179055565b611d3d61026e565b611d01565b611d4a611b02565b611cf1565b600019810191908211611d5e57565b61147e611c71565b601f19810191908211611d5e57565b9081526001600160a01b03909116602082015260400190565b15611d9557565b60405162461bcd60e51b815260206004820152600b60248201526a0aea49e9c8ebe929c888ab60ab1b6044820152606490fd5b6009548015611e18576000198181019180831015611e0b575b600960008190529101600080516020613d6b8339815191520180546001600160a01b031916905555565b611e1361026e565b611de1565b634e487b7160e01b600052603160045260246000fd5b15611e3557565b60405162461bcd60e51b815260206004820152600c60248201526b54524144494e475f4f4e4c5960a01b6044820152606490fd5b15611e7057565b60405162461bcd60e51b815260206004820152600d60248201526c504149525f4f564552464c4f5760981b6044820152606490fd5b6040519061147e82611b39565b60005b838110611ec55750506000910152565b8181015183820152602001611eb5565b81601f8201121561000e5780516001600160401b038111611f27575b60405192611f09601f8301601f191660200185611ba5565b8184526020828401011161000e57611bdd9160208085019101611eb2565b611f2f611b02565b611ef1565b91909160808184031261000e5780516001600160401b039081811161000e5784611f5f918401611ed5565b93602083015191821161000e57611f77918301611ed5565b916060604083015192015190565b60405190611f9282611b6f565b600482526366726f6d60e01b6020830152565b60405190611fb282611b6f565b6002825261746f60f01b6020830152565b60405190611fd082611b6f565b600982526866726f6d426c6f636b60b81b6020830152565b604051906009548083528260209182820190600960005283600020936000905b82821061201e5750505061147e92500383611ba5565b85546001600160a01b031684526001958601958895509381019390910190612008565b811561204b570490565b612053611c5a565b0490565b1561205e57565b60405162461bcd60e51b815260206004820152600d60248201526c4c494e4b5f4f564552464c4f5760981b6044820152606490fd5b600482101561148d5752565b8151815460208401516001600160801b0319821661ffff9390931692831760109190911b62010000600160801b03169081178455604085015161147e9561213f94608094919391926120f08161146c565b6004811015612159575b6001600160881b0319909316171790831b60ff841b161784556060810151612138901515855460ff60881b191690151560881b60ff60881b16178555565b0151151590565b815460ff60901b191690151560901b60ff60901b16179055565b612161611455565b6120fa565b602091815181101561217b575b60051b010190565b61218361026e565b612173565b93909594919260809361219f8660a0810199611480565b6020860152604085015260608401521515910152565b90919261ffff926121c884841115611e69565b6121d18161146c565b6002811480156123f5575b80156123ec57600b54925b6121f13085612540565b956122006104e06006546101f2565b604051630c0be07f60e21b81526004810188905298906000908a90602490829084905af19788156123df575b6000809a819a6123a1575b5061226361228e98999a9b612255889361224f611f85565b86612408565b61225d611fa5565b84612408565b61238a575b90899593969492916122fd8a6122d3612293612282611fe8565b9586519a8b9185613696565b612041565b956001600160701b03906122c1906122ad838a1115612057565b6122b5611ea5565b9416849061ffff169052565b86166001600160701b03166020830152565b6122e08760408301612093565b6001606082015285151560808201526122f889610e7c565b61209f565b60005b86811061234457505050907ffadf91896d9352ab1e350a349050907f966d8ea7f38c1a5be50f2a379ef4fcbe949561233e9260405195869586612188565b0390a490565b83949698959761237a612375859685612370612363876001999a612166565b516001600160a01b031690565b6125e2565b610e6c565b550191908a969497959392612300565b61239c84612396611fc3565b83612421565b612268565b6122559b5061228e98999a506123cd6122639188933d8091833e6123c58183611ba5565b810190611f34565b919e50909c9b9a509092506122379050565b6123e7611be0565b61222c565b600a54926121e7565b506123ff8161146c565b600381146121dc565b608001805161147e939261241b91613171565b51613171565b60806124309101918251613171565b51906001600160401b038082111561244c575061147e91613062565b81166017811161246857509060ff612465921690612c6e565b50565b905060ff8111612485578161247f61246593612995565b50612fed565b61ffff81116124a1578161249b61246593612944565b50612f77565b63ffffffff81116124bf57816124b9612465936128f3565b50612eff565b816124cc61246593612887565b50612e77565b60408051919082016001600160401b038111838210176124fd575b6040526000602083606081520152565b612505611b02565b6124ed565b6040519061251782611b39565b8160008152600060208201526000604082015260006060820152608061253b6124d2565b910152565b9061254961250a565b5061255261250a565b9161255b61250a565b50610120608084015161256c6124d2565b5061010060208201526040518091526000815201604052825260018060a01b031660208201526321abc2af60e11b604082015290565b9060208201809211611d5e57565b91908201809211611d5e57565b906020916125d681518092818552858086019101611eb2565b601f01601f1916010190565b600454611bdd93916001820180831161267a575b6004556126758451612667608063ffffffff60e01b604089015116970151516040519788936320214ca360e11b60208601526000602486015260006044860152606485015230608485015260a48401528560c4840152600160e48401526101006101048401526101248301906125bd565b03601f198101865285611ba5565b61271b565b612682611c71565b6125f6565b9081602091031261000e5751801515810361000e5790565b611bdd939260609260018060a01b03168252602082015281604082015201906125bd565b156126ca57565b60405162461bcd60e51b815260206004820152602360248201527f756e61626c6520746f207472616e73666572416e6443616c6c20746f206f7261604482015262636c6560e81b6064820152608490fd5b61147e9294936020916127dd936040518481019160018060601b03193060601b16835260348201526034815261275081611b8a565b5190209661278b8261276c8a6000526005602052604060002090565b80546001600160a01b0319166001600160a01b03909216919091179055565b60006040518096819582948c7fb5e6e01e79f91267dc17b4e6314d5d4d03593d2ceee0fbb452b750bd70ea5af98680a26127c96104e06002546101f2565b630200057560e51b8552966004850161269f565b03925af1908115612815575b6000916127f7575b506126c3565b61280f915060203d811161112e5761111f8183611ba5565b386127f1565b61281d611be0565b6127e9565b9061282b6124d2565b50601f811680612851575b50806020830152604051808352600081520160200160405290565b6020036020811161287a575b810180911161286d575b38612836565b612875611c71565b612867565b612882611c71565b61285d565b61288f6124d2565b5080515161289b6124d2565b506020820151808210156128cd575b50815190815181601b6020839486010153146128c557505090565b600101905290565b6128d96128ec91612cd2565b6128e584519185612822565b5083612d88565b50386128aa565b6128fb6124d2565b508051516129076124d2565b50602082015180821015612931575b50815190815181601a6020839486010153146128c557505090565b6128d961293d91612cd2565b5038612916565b61294c6124d2565b508051516129586124d2565b50602082015180821015612982575b5081519081518160196020839486010153146128c557505090565b6128d961298e91612cd2565b5038612967565b61299d6124d2565b508051516129a96124d2565b506020820151808210156129d3575b5081519081518160186020839486010153146128c557505090565b6128d96129df91612cd2565b50386129b8565b6129ee6124d2565b508051516129fa6124d2565b50602082015180821015612a24575b50815190815181605b6020839486010153146128c557505090565b6128d9612a3091612cd2565b5038612a09565b612a3f6124d2565b50805151612a4b6124d2565b50602082015180821015612a75575b50815190815181605a6020839486010153146128c557505090565b6128d9612a8191612cd2565b5038612a5a565b612a906124d2565b50805151612a9c6124d2565b50602082015180821015612ac6575b5081519081518160596020839486010153146128c557505090565b6128d9612ad291612cd2565b5038612aab565b612ae16124d2565b50805151612aed6124d2565b50602082015180821015612b17575b5081519081518160586020839486010153146128c557505090565b6128d9612b2391612cd2565b5038612afc565b612b326124d2565b50805151612b3e6124d2565b50602082015180821015612b68575b50815190815181607b6020839486010153146128c557505090565b6128d9612b7491612cd2565b5038612b4d565b612b836124d2565b50805151612b8f6124d2565b50602082015180821015612bb9575b50815190815181607a6020839486010153146128c557505090565b6128d9612bc591612cd2565b5038612b9e565b612bd46124d2565b50805151612be06124d2565b50602082015180821015612c0a575b5081519081518160796020839486010153146128c557505090565b6128d9612c1691612cd2565b5038612bef565b612c256124d2565b50805151612c316124d2565b50602082015180821015612c5b575b5081519081518160786020839486010153146128c557505090565b6128d9612c6791612cd2565b5038612c40565b90612c776124d2565b50815151612c836124d2565b50602083015180821015612cac575b50825191825191829160208286010153146128c557505090565b612cb8612ccb91612cd2565b612cc485519186612822565b5084612d88565b5038612c92565b908160011b9180830460021490151715611d5e57565b906305f5e10091828102928184041490151715611d5e57565b81810292918115918404141715611d5e57565b906124659180519180612d256124d2565b50601f811680612d4e575b50508060208301526040518083526000815201602001604052612d88565b90915060200360208111612d7b575b8101809111612d6e575b3880612d30565b612d76611c71565b612d67565b612d83611c71565b612d5d565b90612d916124d2565b5081515190805190612da16124d2565b50612daf8151831115612e60565b612db982846125b0565b602091829182870151809111612e35575b5085518051908387820101968601918211612e2d575b505001915b81811015612e075760001991036101000a019081199051169082511617905290565b9192612e22612e1c612e2892865181526125a2565b946125a2565b92611d66565b612de5565b523880612de0565b612e54612e4f612e5a92612e4989896125b0565b90612e67565b612cd2565b87612d14565b38612dca565b1561000e57565b818111612e72575090565b905090565b90612e806124d2565b5081515190612e8d6124d2565b508160080180600811612ef2575b60208401518111612eda575b508251828101600890810180516001600160401b031916909317909252805192909101918211612ed657505090565b5290565b612ee6612eec91612cd2565b84612d14565b38612ea7565b612efa611c71565b612e9b565b90612f086124d2565b5081515190612f156124d2565b508160040180600411612f6a575b60208401518111612f58575b508251906004838301019063ffffffff19825116179052600481519201918211612ed657505090565b612ee6612f6491612cd2565b38612f2f565b612f72611c71565b612f23565b90612f806124d2565b5081515190612f8d6124d2565b508160020180600211612fe0575b60208401518111612fce575b508251906002838301019061ffff19825116179052600281519201918211612ed657505090565b612ee6612fda91612cd2565b38612fa7565b612fe8611c71565b612f9b565b90612ff66124d2565b50815151906130036124d2565b508160010180600111613055575b60208401518111613043575b508251906001838301019060ff19825116179052600181519201918211612ed657505090565b612ee661304f91612cd2565b3861301d565b61305d611c71565b613011565b906124659161306f6124d2565b5080515161307b6124d2565b5060208201518082101561315e575b5081519081518160c2602083948601015314613152575b5050604051916020830152602082526130b982611b6f565b81516001600160401b038116601781116130e45750604060ff6130de92161782612c6e565b50612d88565b905060ff8111613102576130de906130fb83612ad9565b5082612fed565b61ffff811161311f576130de9061311883612a88565b5082612f77565b63ffffffff811161313e576130de9061313783612a37565b5082612eff565b6130de9061314b836129e6565b5082612e77565b600101905238806130a1565b6128d961316a91612cd2565b503861308a565b81516124659291906001600160401b0381166017811161319c5750606060ff6130de92161782612c6e565b905060ff81116131b3576130de906130fb83612c1d565b61ffff81116131c9576130de9061311883612bcc565b63ffffffff81116131e1576130de9061313783612b7b565b6130de9061314b83612b2a565b906040516131fb81611b39565b608060ff82945461ffff8116845260018060701b038160101c16602085015261322b8282851c1660408601612093565b818160881c161515606085015260901c161515910152565b9081608091031261000e576040519061325b82611b54565b805161326681610348565b8252602081015161327681610348565b6020830152604081015190600382101561000e5760609160408401520151606082015290565b51906001600160401b038216820361000e57565b919082608091031261000e576132c58261329c565b916132d26020820161329c565b91611bdd60606132e46040850161329c565b930161329c565b805461330991600160401b821015613323575b6001820181556102ae565b819291549060031b600019811b9283911b16911916179055565b61332b611b02565b6132fe565b6040519060c082016001600160401b03811183821017613373575b6040528160a06000918281528260208201528260408201528260608201528260808201520152565b61337b611b02565b61334b565b9060405191828154918282526020928383019160005283600020936000905b8282106133b55750505061147e92500383611ba5565b85548452600195860195889550938101939091019061339f565b9081602091031261000e575190565b60a0809180518452602081015160208501526040810151604085015260608101516060850152608081015160808501520151910152565b60c08101929161147e91906133de565b9160c061147e92949361343c8160e08101976133de565b0190611480565b8054906000908181558261345657505050565b815260208120918201915b82811061346d57505050565b818155600101613461565b6040519061348582611b54565b60006060838281528260208201528260408201520152565b6001600160401b039091169052565b156134b357565b60405162461bcd60e51b815260206004820152600e60248201526d494e56414c49445f43414e444c4560901b6044820152606490fd5b805461350691600160401b821015613323576001820181556102ae565b61358d578151815460208401516040808601516001600160c01b03199093166001600160401b039490941693909317921b600160401b600160801b03169190911760809190911b600160801b600160c01b031617815561147e9161356d9060600151610e8c565b81546001600160c01b031660c09190911b6001600160c01b031916179055565b634e487b7160e01b600052600060045260246000fd5b6020906001600160401b0381116135bc575b60051b0190565b6135c4611b02565b6135b5565b9081546135d5816135a3565b926040936135e585519182611ba5565b828152809460208092019260005281600020906000935b85851061360b57505050505050565b6001848192845161361b81611b54565b8654848060401b0380821683528082891c16858401528160801c168783015260c01c60608201528152019301940193916135fc565b51906001600160501b038216820361000e57565b908160a091031261000e5761367881613650565b91602082015191604081015191611bdd608060608401519301613650565b6137326004611bdd9361373d9360a06136b36104e06007546101f2565b604051633fabe5a360e21b815294859182905afa9283156137b5575b60009361376f575b5061228e91613713602061372d936136f36104e06006546101f2565b604051808095819463f7acbabd60e01b8352600483019190602083019252565b03915afa908115613762575b600091613744575b50612d01565b612ce8565b6402540be400900490565b6064900490565b61375c915060203d81116109d3576109c58183611ba5565b38613727565b61376a611be0565b61371f565b61372d91935091613713602061379e61228e9560a03d81116137ae575b6137968183611ba5565b810190613664565b50505090509593505050916136d7565b503d61378c565b6137bd611be0565b6136cf565b6003111561147657565b906402540be40091828102928184051490151715611d5e57565b80156137fa575b670de0b6b3a76400000590565b613802611c5a565b6137ed565b811561382f575b600160ff1b8114600019831416613823570590565b61382b611c71565b0590565b613837611c5a565b61380e565b80516001600160a01b0390613850906101f2565b168015613992576000906040518093633fabe5a360e21b9283835282600460a09485935afa948515613985575b8495613961575b50604081018051613894816137c2565b61389d816137c2565b6138bc5750505050506138b2611bdd916137cc565b6305f5e100900590565b600190516138c9816137c2565b6138d2816137c2565b036138e45750505050611bdd906137e6565b90806138fe6104e06104e06020611bdd99979601516101f2565b9260046040518095819382525afa938415613954575b9361392a575b5050613925906137cc565b613807565b613925929350908161394792903d106137ae576137968183611ba5565b505050905091903861391a565b61395c611be0565b613914565b613979919550823d84116137ae576137968183611ba5565b50505090509338613884565b61398d611be0565b61387d565b5050600090565b91908215928315613a3c575b83156139b2575b50505090565b9192506139fe91818110613a2a57818103908111613a1d575b64e8d4a510006402540be40091828102928184041481151715613a10575b029080820460641490151715613a0857612041565b11153880806139ac565b61228e611c71565b613a18611c71565b6139e9565b613a25611c71565b6139cb565b8103818111156139cb57613a25611c71565b811593506139a5565b613a528151600083613ac5565b805160018116613ab35750613a88613a7b825160011c6000198101908111613aa6575b83612166565b5191805160011c90612166565b518101809111613a99575b60011c90565b613aa1611c71565b613a93565b613aae611c71565b613a75565b90613ac19160011c90612166565b5190565b919081811015613b795780613ada8185612166565b5160018201808311613b6c575b9083915b858110613b2657505081613b0382613b099488613b7e565b85613ac5565b61147e926001820180921115613ac557613b21611c71565b613ac5565b90809250613b348288612166565b5110613b4c575b613b4490611c88565b908391613aeb565b92613b59613b4491611c88565b93613b65858289613b7e565b9050613b3b565b613b74611c71565b613ae7565b505050565b9061149591613b8d8482612166565b5193613ba4613b9c8484612166565b519183612166565b52612166565b90613bb4826135a3565b613bc16040519182611ba5565b8281528092613bd2601f19916135a3565b0190602036910137565b90815190613be982613baa565b92613bf383613baa565b93613bfd84613baa565b9160005b858110613ccf575050613c1684600083613ac5565b613c2284600087613ac5565b613c2e84600084613ac5565b60018416159360011c908185600014613cc057613c6c91613c6582613c5e613c58613a9395611d4f565b84612166565b5192612166565b51906125b0565b94818515613cb157613c8b91613c6582613c5e613c58613a9395611d4f565b9315613ca857611bdd91613c6582613c5e613c58613a9395611d4f565b613ac191612166565b613cba91612166565b51613c8b565b613cc991612166565b51613c6c565b80613cf0610a16613ce260019486612166565b51516001600160401b031690565b613cfa8286612166565b52613d1c610a166020613d0d8487612166565b5101516001600160401b031690565b613d26828a612166565b52613d39610a166040613d0d8487612166565b613d438287612166565b5201613c0156fece3ae2fe07e497ba552d6485a40eed46cfb3320f001027891efeb1128dba03506e1540171b6c0c960b71a7020d9f60077f6af931a8bbf590da0223dacf75c7afdc6ff5906123aad281d8e734bb64101cea661d614a568b9bca20e7ac2ae7f354764c19c693af0da42ec6c6bed68a2dd1a2fa93d24785fcfce58ffa29ae313606a164736f6c6343000811000a",
  "libraries": {
    "PackingUtils": "0x84028BeCFEE8D44c5A15b328688b4BeDCbA56Afc"
  },
  "devdoc": {
    "kind": "dev",
    "methods": {},
    "version": 1
  },
  "userdoc": {
    "kind": "user",
    "methods": {},
    "version": 1
  },
  "storageLayout": {
    "storage": [
      {
        "astId": 1419,
        "contract": "contracts/contracts/GNSPriceAggregatorV6_4.sol:GNSPriceAggregatorV6_4",
        "label": "s_ens",
        "offset": 0,
        "slot": "0",
        "type": "t_contract(ENSInterface)2074"
      },
      {
        "astId": 1421,
        "contract": "contracts/contracts/GNSPriceAggregatorV6_4.sol:GNSPriceAggregatorV6_4",
        "label": "s_ensNode",
        "offset": 0,
        "slot": "1",
        "type": "t_bytes32"
      },
      {
        "astId": 1424,
        "contract": "contracts/contracts/GNSPriceAggregatorV6_4.sol:GNSPriceAggregatorV6_4",
        "label": "s_link",
        "offset": 0,
        "slot": "2",
        "type": "t_contract(LinkTokenInterface)2296"
      },
      {
        "astId": 1427,
        "contract": "contracts/contracts/GNSPriceAggregatorV6_4.sol:GNSPriceAggregatorV6_4",
        "label": "s_oracle",
        "offset": 0,
        "slot": "3",
        "type": "t_contract(OperatorInterface)2154"
      },
      {
        "astId": 1430,
        "contract": "contracts/contracts/GNSPriceAggregatorV6_4.sol:GNSPriceAggregatorV6_4",
        "label": "s_requestCount",
        "offset": 0,
        "slot": "4",
        "type": "t_uint256"
      },
      {
        "astId": 1434,
        "contract": "contracts/contracts/GNSPriceAggregatorV6_4.sol:GNSPriceAggregatorV6_4",
        "label": "s_pendingRequests",
        "offset": 0,
        "slot": "5",
        "type": "t_mapping(t_bytes32,t_address)"
      },
      {
        "astId": 3298,
        "contract": "contracts/contracts/GNSPriceAggregatorV6_4.sol:GNSPriceAggregatorV6_4",
        "label": "pairsStorage",
        "offset": 0,
        "slot": "6",
        "type": "t_contract(PairsStorageInterfaceV6)5357"
      },
      {
        "astId": 3301,
        "contract": "contracts/contracts/GNSPriceAggregatorV6_4.sol:GNSPriceAggregatorV6_4",
        "label": "linkPriceFeed",
        "offset": 0,
        "slot": "7",
        "type": "t_contract(ChainlinkFeedInterfaceV5)5077"
      },
      {
        "astId": 3312,
        "contract": "contracts/contracts/GNSPriceAggregatorV6_4.sol:GNSPriceAggregatorV6_4",
        "label": "minAnswers",
        "offset": 0,
        "slot": "8",
        "type": "t_uint256"
      },
      {
        "astId": 3341,
        "contract": "contracts/contracts/GNSPriceAggregatorV6_4.sol:GNSPriceAggregatorV6_4",
        "label": "nodes",
        "offset": 0,
        "slot": "9",
        "type": "t_array(t_address)dyn_storage"
      },
      {
        "astId": 3345,
        "contract": "contracts/contracts/GNSPriceAggregatorV6_4.sol:GNSPriceAggregatorV6_4",
        "label": "jobIds",
        "offset": 0,
        "slot": "10",
        "type": "t_array(t_bytes32)2_storage"
      },
      {
        "astId": 3350,
        "contract": "contracts/contracts/GNSPriceAggregatorV6_4.sol:GNSPriceAggregatorV6_4",
        "label": "orders",
        "offset": 0,
        "slot": "12",
        "type": "t_mapping(t_uint256,t_struct(Order)3329_storage)"
      },
      {
        "astId": 3354,
        "contract": "contracts/contracts/GNSPriceAggregatorV6_4.sol:GNSPriceAggregatorV6_4",
        "label": "orderIdByRequest",
        "offset": 0,
        "slot": "13",
        "type": "t_mapping(t_bytes32,t_uint256)"
      },
      {
        "astId": 3359,
        "contract": "contracts/contracts/GNSPriceAggregatorV6_4.sol:GNSPriceAggregatorV6_4",
        "label": "ordersAnswers",
        "offset": 0,
        "slot": "14",
        "type": "t_mapping(t_uint256,t_array(t_uint256)dyn_storage)"
      },
      {
        "astId": 3365,
        "contract": "contracts/contracts/GNSPriceAggregatorV6_4.sol:GNSPriceAggregatorV6_4",
        "label": "lookbackOrderAnswers",
        "offset": 0,
        "slot": "15",
        "type": "t_mapping(t_uint256,t_array(t_struct(LookbackOrderAnswer)3338_storage)dyn_storage)"
      }
    ],
    "types": {
      "t_address": {
        "encoding": "inplace",
        "label": "address",
        "numberOfBytes": "20"
      },
      "t_array(t_address)dyn_storage": {
        "base": "t_address",
        "encoding": "dynamic_array",
        "label": "address[]",
        "numberOfBytes": "32"
      },
      "t_array(t_bytes32)2_storage": {
        "base": "t_bytes32",
        "encoding": "inplace",
        "label": "bytes32[2]",
        "numberOfBytes": "64"
      },
      "t_array(t_struct(LookbackOrderAnswer)3338_storage)dyn_storage": {
        "base": "t_struct(LookbackOrderAnswer)3338_storage",
        "encoding": "dynamic_array",
        "label": "struct GNSPriceAggregatorV6_4.LookbackOrderAnswer[]",
        "numberOfBytes": "32"
      },
      "t_array(t_uint256)dyn_storage": {
        "base": "t_uint256",
        "encoding": "dynamic_array",
        "label": "uint256[]",
        "numberOfBytes": "32"
      },
      "t_bool": {
        "encoding": "inplace",
        "label": "bool",
        "numberOfBytes": "1"
      },
      "t_bytes32": {
        "encoding": "inplace",
        "label": "bytes32",
        "numberOfBytes": "32"
      },
      "t_contract(ChainlinkFeedInterfaceV5)5077": {
        "encoding": "inplace",
        "label": "contract ChainlinkFeedInterfaceV5",
        "numberOfBytes": "20"
      },
      "t_contract(ENSInterface)2074": {
        "encoding": "inplace",
        "label": "contract ENSInterface",
        "numberOfBytes": "20"
      },
      "t_contract(LinkTokenInterface)2296": {
        "encoding": "inplace",
        "label": "contract LinkTokenInterface",
        "numberOfBytes": "20"
      },
      "t_contract(OperatorInterface)2154": {
        "encoding": "inplace",
        "label": "contract OperatorInterface",
        "numberOfBytes": "20"
      },
      "t_contract(PairsStorageInterfaceV6)5357": {
        "encoding": "inplace",
        "label": "contract PairsStorageInterfaceV6",
        "numberOfBytes": "20"
      },
      "t_enum(OrderType)3317": {
        "encoding": "inplace",
        "label": "enum GNSPriceAggregatorV6_4.OrderType",
        "numberOfBytes": "1"
      },
      "t_mapping(t_bytes32,t_address)": {
        "encoding": "mapping",
        "key": "t_bytes32",
        "label": "mapping(bytes32 => address)",
        "numberOfBytes": "32",
        "value": "t_address"
      },
      "t_mapping(t_bytes32,t_uint256)": {
        "encoding": "mapping",
        "key": "t_bytes32",
        "label": "mapping(bytes32 => uint256)",
        "numberOfBytes": "32",
        "value": "t_uint256"
      },
      "t_mapping(t_uint256,t_array(t_struct(LookbackOrderAnswer)3338_storage)dyn_storage)": {
        "encoding": "mapping",
        "key": "t_uint256",
        "label": "mapping(uint256 => struct GNSPriceAggregatorV6_4.LookbackOrderAnswer[])",
        "numberOfBytes": "32",
        "value": "t_array(t_struct(LookbackOrderAnswer)3338_storage)dyn_storage"
      },
      "t_mapping(t_uint256,t_array(t_uint256)dyn_storage)": {
        "encoding": "mapping",
        "key": "t_uint256",
        "label": "mapping(uint256 => uint256[])",
        "numberOfBytes": "32",
        "value": "t_array(t_uint256)dyn_storage"
      },
      "t_mapping(t_uint256,t_struct(Order)3329_storage)": {
        "encoding": "mapping",
        "key": "t_uint256",
        "label": "mapping(uint256 => struct GNSPriceAggregatorV6_4.Order)",
        "numberOfBytes": "32",
        "value": "t_struct(Order)3329_storage"
      },
      "t_struct(LookbackOrderAnswer)3338_storage": {
        "encoding": "inplace",
        "label": "struct GNSPriceAggregatorV6_4.LookbackOrderAnswer",
        "members": [
          {
            "astId": 3331,
            "contract": "contracts/contracts/GNSPriceAggregatorV6_4.sol:GNSPriceAggregatorV6_4",
            "label": "open",
            "offset": 0,
            "slot": "0",
            "type": "t_uint64"
          },
          {
            "astId": 3333,
            "contract": "contracts/contracts/GNSPriceAggregatorV6_4.sol:GNSPriceAggregatorV6_4",
            "label": "high",
            "offset": 8,
            "slot": "0",
            "type": "t_uint64"
          },
          {
            "astId": 3335,
            "contract": "contracts/contracts/GNSPriceAggregatorV6_4.sol:GNSPriceAggregatorV6_4",
            "label": "low",
            "offset": 16,
            "slot": "0",
            "type": "t_uint64"
          },
          {
            "astId": 3337,
            "contract": "contracts/contracts/GNSPriceAggregatorV6_4.sol:GNSPriceAggregatorV6_4",
            "label": "ts",
            "offset": 24,
            "slot": "0",
            "type": "t_uint64"
          }
        ],
        "numberOfBytes": "32"
      },
      "t_struct(Order)3329_storage": {
        "encoding": "inplace",
        "label": "struct GNSPriceAggregatorV6_4.Order",
        "members": [
          {
            "astId": 3319,
            "contract": "contracts/contracts/GNSPriceAggregatorV6_4.sol:GNSPriceAggregatorV6_4",
            "label": "pairIndex",
            "offset": 0,
            "slot": "0",
            "type": "t_uint16"
          },
          {
            "astId": 3321,
            "contract": "contracts/contracts/GNSPriceAggregatorV6_4.sol:GNSPriceAggregatorV6_4",
            "label": "linkFeePerNode",
            "offset": 2,
            "slot": "0",
            "type": "t_uint112"
          },
          {
            "astId": 3324,
            "contract": "contracts/contracts/GNSPriceAggregatorV6_4.sol:GNSPriceAggregatorV6_4",
            "label": "orderType",
            "offset": 16,
            "slot": "0",
            "type": "t_enum(OrderType)3317"
          },
          {
            "astId": 3326,
            "contract": "contracts/contracts/GNSPriceAggregatorV6_4.sol:GNSPriceAggregatorV6_4",
            "label": "active",
            "offset": 17,
            "slot": "0",
            "type": "t_bool"
          },
          {
            "astId": 3328,
            "contract": "contracts/contracts/GNSPriceAggregatorV6_4.sol:GNSPriceAggregatorV6_4",
            "label": "isLookback",
            "offset": 18,
            "slot": "0",
            "type": "t_bool"
          }
        ],
        "numberOfBytes": "32"
      },
      "t_uint112": {
        "encoding": "inplace",
        "label": "uint112",
        "numberOfBytes": "14"
      },
      "t_uint16": {
        "encoding": "inplace",
        "label": "uint16",
        "numberOfBytes": "2"
      },
      "t_uint256": {
        "encoding": "inplace",
        "label": "uint256",
        "numberOfBytes": "32"
      },
      "t_uint64": {
        "encoding": "inplace",
        "label": "uint64",
        "numberOfBytes": "8"
      }
    }
  }
}