{
  "address": "0x03BCa318D5bE829383D37aFeFb7a974E90a18EA0",
  "abi": [
    {
      "inputs": [
        {
          "internalType": "contract StorageInterfaceV5",
          "name": "_storageT",
          "type": "address"
        },
        {
          "internalType": "uint256",
          "name": "_allyFeeP",
          "type": "uint256"
        },
        {
          "internalType": "uint256",
          "name": "_startReferrerFeeP",
          "type": "uint256"
        },
        {
          "internalType": "uint256",
          "name": "_openFeeP",
          "type": "uint256"
        },
        {
          "internalType": "uint256",
          "name": "_targetVolumeDai",
          "type": "uint256"
        }
      ],
      "stateMutability": "nonpayable",
      "type": "constructor"
    },
    {
      "anonymous": false,
      "inputs": [
        {
          "indexed": true,
          "internalType": "address",
          "name": "ally",
          "type": "address"
        },
        {
          "indexed": true,
          "internalType": "address",
          "name": "trader",
          "type": "address"
        },
        {
          "indexed": false,
          "internalType": "uint256",
          "name": "volumeDai",
          "type": "uint256"
        },
        {
          "indexed": false,
          "internalType": "uint256",
          "name": "amountToken",
          "type": "uint256"
        },
        {
          "indexed": false,
          "internalType": "uint256",
          "name": "amountValueDai",
          "type": "uint256"
        }
      ],
      "name": "AllyRewardDistributed",
      "type": "event"
    },
    {
      "anonymous": false,
      "inputs": [
        {
          "indexed": true,
          "internalType": "address",
          "name": "ally",
          "type": "address"
        },
        {
          "indexed": false,
          "internalType": "uint256",
          "name": "amountToken",
          "type": "uint256"
        }
      ],
      "name": "AllyRewardsClaimed",
      "type": "event"
    },
    {
      "anonymous": false,
      "inputs": [
        {
          "indexed": true,
          "internalType": "address",
          "name": "ally",
          "type": "address"
        }
      ],
      "name": "AllyUnwhitelisted",
      "type": "event"
    },
    {
      "anonymous": false,
      "inputs": [
        {
          "indexed": true,
          "internalType": "address",
          "name": "ally",
          "type": "address"
        }
      ],
      "name": "AllyWhitelisted",
      "type": "event"
    },
    {
      "anonymous": false,
      "inputs": [
        {
          "indexed": true,
          "internalType": "address",
          "name": "trader",
          "type": "address"
        },
        {
          "indexed": true,
          "internalType": "address",
          "name": "referrer",
          "type": "address"
        }
      ],
      "name": "ReferrerRegistered",
      "type": "event"
    },
    {
      "anonymous": false,
      "inputs": [
        {
          "indexed": true,
          "internalType": "address",
          "name": "referrer",
          "type": "address"
        },
        {
          "indexed": true,
          "internalType": "address",
          "name": "trader",
          "type": "address"
        },
        {
          "indexed": false,
          "internalType": "uint256",
          "name": "volumeDai",
          "type": "uint256"
        },
        {
          "indexed": false,
          "internalType": "uint256",
          "name": "amountToken",
          "type": "uint256"
        },
        {
          "indexed": false,
          "internalType": "uint256",
          "name": "amountValueDai",
          "type": "uint256"
        }
      ],
      "name": "ReferrerRewardDistributed",
      "type": "event"
    },
    {
      "anonymous": false,
      "inputs": [
        {
          "indexed": true,
          "internalType": "address",
          "name": "referrer",
          "type": "address"
        },
        {
          "indexed": false,
          "internalType": "uint256",
          "name": "amountToken",
          "type": "uint256"
        }
      ],
      "name": "ReferrerRewardsClaimed",
      "type": "event"
    },
    {
      "anonymous": false,
      "inputs": [
        {
          "indexed": true,
          "internalType": "address",
          "name": "referrer",
          "type": "address"
        }
      ],
      "name": "ReferrerUnwhitelisted",
      "type": "event"
    },
    {
      "anonymous": false,
      "inputs": [
        {
          "indexed": true,
          "internalType": "address",
          "name": "referrer",
          "type": "address"
        },
        {
          "indexed": true,
          "internalType": "address",
          "name": "ally",
          "type": "address"
        }
      ],
      "name": "ReferrerWhitelisted",
      "type": "event"
    },
    {
      "anonymous": false,
      "inputs": [
        {
          "indexed": false,
          "internalType": "uint256",
          "name": "value",
          "type": "uint256"
        }
      ],
      "name": "UpdatedAllyFeeP",
      "type": "event"
    },
    {
      "anonymous": false,
      "inputs": [
        {
          "indexed": false,
          "internalType": "uint256",
          "name": "value",
          "type": "uint256"
        }
      ],
      "name": "UpdatedOpenFeeP",
      "type": "event"
    },
    {
      "anonymous": false,
      "inputs": [
        {
          "indexed": false,
          "internalType": "uint256",
          "name": "value",
          "type": "uint256"
        }
      ],
      "name": "UpdatedStartReferrerFeeP",
      "type": "event"
    },
    {
      "anonymous": false,
      "inputs": [
        {
          "indexed": false,
          "internalType": "uint256",
          "name": "value",
          "type": "uint256"
        }
      ],
      "name": "UpdatedTargetVolumeDai",
      "type": "event"
    },
    {
      "inputs": [
        {
          "internalType": "address",
          "name": "",
          "type": "address"
        }
      ],
      "name": "allyDetails",
      "outputs": [
        {
          "internalType": "uint256",
          "name": "volumeReferredDai",
          "type": "uint256"
        },
        {
          "internalType": "uint256",
          "name": "pendingRewardsToken",
          "type": "uint256"
        },
        {
          "internalType": "uint256",
          "name": "totalRewardsToken",
          "type": "uint256"
        },
        {
          "internalType": "uint256",
          "name": "totalRewardsValueDai",
          "type": "uint256"
        },
        {
          "internalType": "bool",
          "name": "active",
          "type": "bool"
        }
      ],
      "stateMutability": "view",
      "type": "function"
    },
    {
      "inputs": [],
      "name": "allyFeeP",
      "outputs": [
        {
          "internalType": "uint256",
          "name": "",
          "type": "uint256"
        }
      ],
      "stateMutability": "view",
      "type": "function"
    },
    {
      "inputs": [],
      "name": "claimAllyRewards",
      "outputs": [],
      "stateMutability": "nonpayable",
      "type": "function"
    },
    {
      "inputs": [],
      "name": "claimReferrerRewards",
      "outputs": [],
      "stateMutability": "nonpayable",
      "type": "function"
    },
    {
      "inputs": [
        {
          "internalType": "address",
          "name": "trader",
          "type": "address"
        },
        {
          "internalType": "uint256",
          "name": "volumeDai",
          "type": "uint256"
        },
        {
          "internalType": "uint256",
          "name": "pairOpenFeeP",
          "type": "uint256"
        },
        {
          "internalType": "uint256",
          "name": "tokenPriceDai",
          "type": "uint256"
        }
      ],
      "name": "distributePotentialReward",
      "outputs": [
        {
          "internalType": "uint256",
          "name": "",
          "type": "uint256"
        }
      ],
      "stateMutability": "nonpayable",
      "type": "function"
    },
    {
      "inputs": [
        {
          "internalType": "address",
          "name": "trader",
          "type": "address"
        }
      ],
      "name": "getPercentOfOpenFeeP",
      "outputs": [
        {
          "internalType": "uint256",
          "name": "",
          "type": "uint256"
        }
      ],
      "stateMutability": "view",
      "type": "function"
    },
    {
      "inputs": [
        {
          "internalType": "uint256",
          "name": "volumeReferredDai",
          "type": "uint256"
        }
      ],
      "name": "getPercentOfOpenFeeP_calc",
      "outputs": [
        {
          "internalType": "uint256",
          "name": "resultP",
          "type": "uint256"
        }
      ],
      "stateMutability": "view",
      "type": "function"
    },
    {
      "inputs": [
        {
          "internalType": "uint256",
          "name": "pairOpenFeeP",
          "type": "uint256"
        },
        {
          "internalType": "uint256",
          "name": "volumeReferredDai",
          "type": "uint256"
        }
      ],
      "name": "getReferrerFeeP",
      "outputs": [
        {
          "internalType": "uint256",
          "name": "",
          "type": "uint256"
        }
      ],
      "stateMutability": "view",
      "type": "function"
    },
    {
      "inputs": [
        {
          "internalType": "address",
          "name": "ally",
          "type": "address"
        }
      ],
      "name": "getReferrersReferred",
      "outputs": [
        {
          "internalType": "address[]",
          "name": "",
          "type": "address[]"
        }
      ],
      "stateMutability": "view",
      "type": "function"
    },
    {
      "inputs": [
        {
          "internalType": "address",
          "name": "trader",
          "type": "address"
        }
      ],
      "name": "getTraderReferrer",
      "outputs": [
        {
          "internalType": "address",
          "name": "",
          "type": "address"
        }
      ],
      "stateMutability": "view",
      "type": "function"
    },
    {
      "inputs": [
        {
          "internalType": "address",
          "name": "referred",
          "type": "address"
        }
      ],
      "name": "getTradersReferred",
      "outputs": [
        {
          "internalType": "address[]",
          "name": "",
          "type": "address[]"
        }
      ],
      "stateMutability": "view",
      "type": "function"
    },
    {
      "inputs": [],
      "name": "openFeeP",
      "outputs": [
        {
          "internalType": "uint256",
          "name": "",
          "type": "uint256"
        }
      ],
      "stateMutability": "view",
      "type": "function"
    },
    {
      "inputs": [
        {
          "internalType": "address",
          "name": "",
          "type": "address"
        }
      ],
      "name": "referrerByTrader",
      "outputs": [
        {
          "internalType": "address",
          "name": "",
          "type": "address"
        }
      ],
      "stateMutability": "view",
      "type": "function"
    },
    {
      "inputs": [
        {
          "internalType": "address",
          "name": "",
          "type": "address"
        }
      ],
      "name": "referrerDetails",
      "outputs": [
        {
          "internalType": "address",
          "name": "ally",
          "type": "address"
        },
        {
          "internalType": "uint256",
          "name": "volumeReferredDai",
          "type": "uint256"
        },
        {
          "internalType": "uint256",
          "name": "pendingRewardsToken",
          "type": "uint256"
        },
        {
          "internalType": "uint256",
          "name": "totalRewardsToken",
          "type": "uint256"
        },
        {
          "internalType": "uint256",
          "name": "totalRewardsValueDai",
          "type": "uint256"
        },
        {
          "internalType": "bool",
          "name": "active",
          "type": "bool"
        }
      ],
      "stateMutability": "view",
      "type": "function"
    },
    {
      "inputs": [
        {
          "internalType": "address",
          "name": "trader",
          "type": "address"
        },
        {
          "internalType": "address",
          "name": "referrer",
          "type": "address"
        }
      ],
      "name": "registerPotentialReferrer",
      "outputs": [],
      "stateMutability": "nonpayable",
      "type": "function"
    },
    {
      "inputs": [],
      "name": "startReferrerFeeP",
      "outputs": [
        {
          "internalType": "uint256",
          "name": "",
          "type": "uint256"
        }
      ],
      "stateMutability": "view",
      "type": "function"
    },
    {
      "inputs": [],
      "name": "storageT",
      "outputs": [
        {
          "internalType": "contract StorageInterfaceV5",
          "name": "",
          "type": "address"
        }
      ],
      "stateMutability": "view",
      "type": "function"
    },
    {
      "inputs": [],
      "name": "targetVolumeDai",
      "outputs": [
        {
          "internalType": "uint256",
          "name": "",
          "type": "uint256"
        }
      ],
      "stateMutability": "view",
      "type": "function"
    },
    {
      "inputs": [
        {
          "internalType": "address",
          "name": "ally",
          "type": "address"
        }
      ],
      "name": "unwhitelistAlly",
      "outputs": [],
      "stateMutability": "nonpayable",
      "type": "function"
    },
    {
      "inputs": [
        {
          "internalType": "address",
          "name": "referrer",
          "type": "address"
        }
      ],
      "name": "unwhitelistReferrer",
      "outputs": [],
      "stateMutability": "nonpayable",
      "type": "function"
    },
    {
      "inputs": [
        {
          "internalType": "uint256",
          "name": "value",
          "type": "uint256"
        }
      ],
      "name": "updateAllyFeeP",
      "outputs": [],
      "stateMutability": "nonpayable",
      "type": "function"
    },
    {
      "inputs": [
        {
          "internalType": "uint256",
          "name": "value",
          "type": "uint256"
        }
      ],
      "name": "updateOpenFeeP",
      "outputs": [],
      "stateMutability": "nonpayable",
      "type": "function"
    },
    {
      "inputs": [
        {
          "internalType": "uint256",
          "name": "value",
          "type": "uint256"
        }
      ],
      "name": "updateStartReferrerFeeP",
      "outputs": [],
      "stateMutability": "nonpayable",
      "type": "function"
    },
    {
      "inputs": [
        {
          "internalType": "uint256",
          "name": "value",
          "type": "uint256"
        }
      ],
      "name": "updateTargetVolumeDai",
      "outputs": [],
      "stateMutability": "nonpayable",
      "type": "function"
    },
    {
      "inputs": [
        {
          "internalType": "address",
          "name": "ally",
          "type": "address"
        }
      ],
      "name": "whitelistAlly",
      "outputs": [],
      "stateMutability": "nonpayable",
      "type": "function"
    },
    {
      "inputs": [
        {
          "internalType": "address",
          "name": "referrer",
          "type": "address"
        },
        {
          "internalType": "address",
          "name": "ally",
          "type": "address"
        }
      ],
      "name": "whitelistReferrer",
      "outputs": [],
      "stateMutability": "nonpayable",
      "type": "function"
    }
  ],
  "transactionHash": "0xa76b06ab6b6433db3196814255fa56915541880597c3295b29b5d5c7a8f87bed",
  "args": [
    "0x688e6c96e1b49829111A45fDE13ED9cD6793e0d6",
    "10",
    "75",
    "33",
    "10000000"
  ],
  "numDeployments": 1,
  "solcInputHash": "cbafc231575a9f48842aa4603e9ae40d",
  "bytecode": "0x60a0346200017757601f620019d538819003918201601f19168301916001600160401b038311848410176200017c5780849260a094604052833981010312620001775780516001600160a01b03811691908281036200017757602082015160408301519160806060850151940151941515806200016b575b806200015f575b8062000153575b8062000149575b156200011557608052600055600155600255600355604051611842908162000193823960805181818161017301528181610278015281816103b10152818161055c01528181610704015281816108cf015281816109da01528181610aa401528181610b5801528181610d0601528181610e3d01528181610fe10152818161104301526114a40152f35b60405162461bcd60e51b815260206004820152600c60248201526b57524f4e475f504152414d5360a01b6044820152606490fd5b508415156200008c565b50603284111562000085565b5060648311156200007e565b50603282111562000077565b600080fd5b634e487b7160e01b600052604160045260246000fdfe6080604081815260048036101561001557600080fd5b600092833560e01c90816303e37464146110105750806316fff07414610fcc5780631727e82d14610fad578063201ad16d14610f6357806332a7b73214610ee85780634e583b3114610ec557806355c7802814610e0457806365ae452714610d9b57806365cbd30714610cb957806366f59b9b14610c9a5780636a83de7914610c255780637792a23114610c0257806394df2c7c14610b2057806397365b7414610a715780639b8ab68414610998578063a16f25341461089a578063a6a7d3931461087d578063a73a3e35146107f7578063bc786541146106cb578063c3160c681461066b578063c36acccd14610630578063df374a9b14610611578063e78c6fd214610523578063ea61c6021461036f578063ee6cf8841461022c5763f79ad43e1461014157600080fd5b346102285760203660031901126102285781516312d43a5160e01b81528135916001600160a01b0391906020908290817f000000000000000000000000000000000000000000000000000000000000000086165afa90811561021e57602093927f4dec17ad9a229f707b7c2fb9531cd3b9c548f9eca80c03457ca38a0bb1df35fe95926101d89288916101f1575b501633146111bc565b6101e560328311156111f3565b8160025551908152a180f35b6102119150863d8111610217575b6102098183611164565b81019061119d565b386101cf565b503d6101ff565b84513d87823e3d90fd5b8280fd5b50346102285782600319360112610228573383526020818152600283852001918483549361025b8515156116ce565b558351637e062a3560e11b815290856001600160a01b03848484817f000000000000000000000000000000000000000000000000000000000000000085165afa9384156103655792826102d09895928795899594610346575b508651809a8196829563a9059cbb60e01b845233908401611727565b0393165af193841561033c577f3dfe9be199655709d01d635bf441264a809a090c98ed7aae9abdc85f7dcbc09d939461030f575b50519283523392a280f35b61032e90833d8511610335575b6103268183611164565b81019061170f565b5038610304565b503d61031c565b81513d87823e3d90fd5b61035e919450863d8811610217576102098183611164565b92386102b4565b87513d84823e3d90fd5b5090346102285780600319360112610228576103896110ef565b61039161110a565b82516312d43a5160e01b81526020946001600160a01b03949291868183817f00000000000000000000000000000000000000000000000000000000000000008a165afa908115610519576103f09187918a9161050257501633146111bc565b848416946103ff861515611230565b858852600587528388209260068401805460ff81166104c55760ff19166001179055169586610453575b8787877f15ad1d28b052a6cc2dd1d34d9e06a1847055d520e2163017e6e8aad6431b7f6a8380a380f35b8688528181528388209360ff6005860154161561049257505081546001600160a01b03191686179091555061048891906112a7565b3880808080610429565b5162461bcd60e51b815291820152600f60248201526e414c4c595f4e4f545f41435449564560881b604482015260649150fd5b865162461bcd60e51b81528086018b9052601760248201527652454645525245525f414c52454144595f41435449564560481b6044820152606490fd5b6102119150893d8b11610217576102098183611164565b84513d8a823e3d90fd5b5082903461060d57608036600319011261060d5761053f6110ef565b835162b1278360e01b815290926001600160a01b039160208185817f000000000000000000000000000000000000000000000000000000000000000087165afa91821561060257916105e4575b501633036105b0576020836105a960643560443560243587611420565b9051908152f35b606490602084519162461bcd60e51b8352820152600e60248201526d43414c4c4241434b535f4f4e4c5960901b6044820152fd5b6105fc915060203d8111610217576102098183611164565b8561058c565b8651903d90823e3d90fd5b5080fd5b50503461060d578160031936011261060d576020906002549051908152f35b50503461060d57602036600319011261060d576020916001600160a01b039082908261065a6110ef565b168152600685522054169051908152f35b50503461060d57602036600319011261060d576020916001600160a01b0390816106936110ef565b16815260068452818382205416908181526005855260ff60068583200154166000146106c35750915b5191168152f35b9050916106bc565b50903461022857602090816003193601126107f3576106e86110ef565b81516312d43a5160e01b81526001600160a01b039190848187817f000000000000000000000000000000000000000000000000000000000000000087165afa9081156107e95761074391849189916107d257501633146111bc565b1692610750841515611230565b8385528083526005828620019283549260ff841661079b5750505060ff191660011790557f80495287b7fdd5e00b7c8c1eb065c5b63474d11ffb062cc82c13da77dda8424d8280a280f35b5162461bcd60e51b8152918201526013602482015272414c4c595f414c52454144595f41435449564560681b604482015260649150fd5b6102119150873d8911610217576102098183611164565b84513d89823e3d90fd5b8380fd5b509034610228576020806003193601126107f3576001600160a01b039390928461081f6110ef565b1682528352818120938251908194808754938481520196845280842093915b838310610864576108608787610856828c0383611164565b5191829182611120565b0390f35b845481168852968101966001948501949092019161083e565b50503461060d578160031936011261060d57602091549051908152f35b5082903461060d57602090816003193601126102285783516312d43a5160e01b8152813591906001600160a01b0390848184817f000000000000000000000000000000000000000000000000000000000000000086165afa90811561098e579061090e9291879161097157501633146111bc565b811561094457507f62c913df1aba1897f65b2df8e0d7e2c7fb00de03742aa9570d5ab3a19d1201a692938160035551908152a180f35b845162461bcd60e51b81529081018390526007602482015266056414c55455f360cc1b6044820152606490fd5b6109889150863d8811610217576102098183611164565b886101cf565b87513d88823e3d90fd5b5082903461060d578260031936011261060d576109b36110ef565b6109bb61110a565b8451637622567960e11b81529092906001600160a01b039060208184817f000000000000000000000000000000000000000000000000000000000000000086165afa90811561098e578691610a53575b50163303610a21575090610a1e91611303565b80f35b606490602086519162461bcd60e51b8352820152600c60248201526b54524144494e475f4f4e4c5960a01b6044820152fd5b610a6b915060203d8111610217576102098183611164565b87610a0b565b50346102285760203660031901126102285781516312d43a5160e01b81528135916001600160a01b0391906020908290817f000000000000000000000000000000000000000000000000000000000000000086165afa90811561021e57602093927f2f33e68d48a82acaa58e3dcb12a4c7738cdfe7041d35f0e29ec8c39b780b370c9592610b089288916101f157501633146111bc565b610b1560328311156111f3565b81855551908152a180f35b503461022857602036600319011261022857610b3a6110ef565b82516312d43a5160e01b815292906001600160a01b039060208585817f000000000000000000000000000000000000000000000000000000000000000086165afa948515610bf8578260059596610b9a928991610be057501633146111bc565b16928385526020528320018054610bb360ff8216611268565b60ff191690557f6900afc1a924abca16a7f560e2dac3d71008c1cd1d88de8a85b6e4267116d1868280a280f35b610211915060203d8111610217576102098183611164565b83513d88823e3d90fd5b509134610c22576020366003190112610c2257506105a9602092356117b8565b80fd5b50346102285760203660031901126102285760c0926001600160a01b0390839082610c4e6110ef565b16815260056020522090815416926002820154926003830154908301549160ff6006600586015495015416948151968752602087015285015260608401526080830152151560a0820152f35b50503461060d578160031936011261060d576020906003549051908152f35b50346102285782600319360112610228573383526020600581526003838520019184835493610ce98515156116ce565b558351637e062a3560e11b815290856001600160a01b03848484817f000000000000000000000000000000000000000000000000000000000000000085165afa938415610365579282610d5d989592879589959461034657508651809a8196829563a9059cbb60e01b845233908401611727565b0393165af193841561033c577f25deb48f8299e9863bda34f0d343d51341ac7ac30bf63dbeb2e8212bc4a20bf1939461030f5750519283523392a280f35b5090346102285760203660031901126102285760a09281906001600160a01b03610dc36110ef565b168152836020522060018101549260028201549260ff6005600385015493850154940154169381519586526020860152840152606083015215156080820152f35b503461022857602036600319011261022857610e1e6110ef565b82516312d43a5160e01b8152916001600160a01b0391906020908490817f000000000000000000000000000000000000000000000000000000000000000086165afa801561021e5782610e7d916006958891610be057501633146111bc565b169182845260056020528320018054610e9860ff8216611268565b60ff191690557f6dd169357c2e2b04fd13a8807a11892b88875b7c70eeb73c3b6642c58516f0db8280a280f35b509134610c225781600319360112610c2257506105a96020926024359035611742565b50503461060d5760209081600319360112610228576001600160a01b039283610f0f6110ef565b1681526005835260018083832001948351908195808854938481520197855280852094915b838310610f4c576108608888610856828d0383611164565b855481168952978101979484019491840191610f34565b50503461060d57602036600319011261060d576020916105a99060029083906001600160a01b0380610f936110ef565b1682526006875282822054168152600586522001546117b8565b50503461060d578160031936011261060d576020906001549051908152f35b50503461060d578160031936011261060d57517f00000000000000000000000000000000000000000000000000000000000000006001600160a01b03168152602090f35b849291503461022857602091826003193601126107f3576312d43a5160e01b82528035916001600160a01b0390848184817f000000000000000000000000000000000000000000000000000000000000000086165afa90811561098e57906110829291879161097157501633146111bc565b606482116110ba57507fb85b70acaeb40f1a2351367c48842ee0ea24ec05d411d99d80bf7a020c0dbb0f92938160015551908152a180f35b845162461bcd60e51b8152908101839052600f60248201526e056414c55455f41424f56455f31303608c1b6044820152606490fd5b600435906001600160a01b038216820361110557565b600080fd5b602435906001600160a01b038216820361110557565b6020908160408183019282815285518094520193019160005b828110611147575050505090565b83516001600160a01b031685529381019392810192600101611139565b601f909101601f19168101906001600160401b0382119082101761118757604052565b634e487b7160e01b600052604160045260246000fd5b9081602091031261110557516001600160a01b03811681036111055790565b156111c357565b60405162461bcd60e51b8152602060048201526008602482015267474f565f4f4e4c5960c01b6044820152606490fd5b156111fa57565b60405162461bcd60e51b815260206004820152600e60248201526d056414c55455f41424f56455f35360941b6044820152606490fd5b1561123757565b60405162461bcd60e51b81526020600482015260096024820152680414444524553535f360bc1b6044820152606490fd5b1561126f57565b60405162461bcd60e51b815260206004820152601060248201526f414c52454144595f554e41435449564560801b6044820152606490fd5b805490600160401b82101561118757600182018082558210156112ed576000908152602090200180546001600160a01b0319166001600160a01b03909216919091179055565b634e487b7160e01b600052603260045260246000fd5b9060018060a01b038091169160008381526005602052604081208383169384835260066020526040832054161580159061139f575b8015611390575b611389576040822080546001600160a01b031916861790557f0e67f4bbcd5c51b7365ca2dd861dc8094e393ca60de2ceae9d831761a839e92a92611385916001016112a7565b80a3565b5050505050565b5060ff6006820154161561133f565b508415611338565b818102929181159184041417156113ba57565b634e487b7160e01b600052601160045260246000fd5b81156113da570490565b634e487b7160e01b600052601260045260246000fd5b919082018092116113ba57565b919082039182116113ba57565b6040919493926060820195825260208201520152565b91909160009160018060a01b038092169182845260066020526040948186862054169283865260056020528686209060ff600683015416156116c25761147d969798606460028401926114836402540be4009a8b92865490611742565b876113a7565b0404978089029089820414891517156116ae57906114a0916113d0565b93807f000000000000000000000000000000000000000000000000000000000000000016803b156116aa5789809160648d51809481936329bc0a1f60e11b83523060048401528b6024840152600160448401525af180156116a057611672575b5080835416895260046020528989208960ff6005830154166115a1575b5050508661159e99600585948461155a7f74e9754b45c636e199e3d7bb764fae1a9acce47a984d10dcfd74849ec4babc4f999861159697546113f0565b90556003810161156b8882546113f0565b90556004810161157c8882546113f0565b90550161158a8382546113f0565b9055519384938461140a565b0390a36113f0565b90565b889192959496999a5054916115b6838c6113a7565b606490049a6115c68c948c6113a7565b6064900493826001869401888154906115de916113f0565b905560028101848154906115f1916113f0565b90556003810184815490611604916113f0565b905560040181815490611616916113f0565b9055611621916113fd565b998a9361162d916113fd565b95875416908b8d5191829161164391898461140a565b037f0d54fedb563328d37f00fe5ba0bf7689519f8cf02318562adfe7b4bfab8cf4b491a338809593949561151d565b9098906001600160401b03811161168c578a529738611500565b634e487b7160e01b82526041600452602482fd5b8b513d8c823e3d90fd5b8980fd5b634e487b7160e01b8a52601160045260248afd5b50505050505091505090565b156116d557565b60405162461bcd60e51b81526020600482015260126024820152714e4f5f50454e44494e475f5245574152445360701b6044820152606490fd5b90816020910312611105575180151581036111055790565b6001600160a01b039091168152602081019190915260400190565b8060011b90808204600214901517156113ba5760646117676117a792600254906113a7565b04916117a1670de0b6b3a76400006117976064611786600154886113a7565b049361179285886113fd565b6113a7565b04600354906113d0565b906113f0565b818111156117b3575090565b905090565b6002546001546402540be40092838202918083048514811517156113ba57848202918083048614901517156113ba57606403606481116113ba576064926117a1670de0b6b3a764000061179761181194611817966113a7565b836113a7565b04908281029281840414901517156113ba57818111156117b357509056fea164736f6c6343000811000a",
  "libraries": {},
  "devdoc": {
    "kind": "dev",
    "methods": {},
    "version": 1
  },
  "userdoc": {
    "kind": "user",
    "methods": {},
    "version": 1
  },
  "storageLayout": {
    "storage": [
      {
        "astId": 12983,
        "contract": "contracts/contracts/GNSReferralsV6_2.sol:GNSReferralsV6_2",
        "label": "allyFeeP",
        "offset": 0,
        "slot": "0",
        "type": "t_uint256"
      },
      {
        "astId": 12985,
        "contract": "contracts/contracts/GNSReferralsV6_2.sol:GNSReferralsV6_2",
        "label": "startReferrerFeeP",
        "offset": 0,
        "slot": "1",
        "type": "t_uint256"
      },
      {
        "astId": 12987,
        "contract": "contracts/contracts/GNSReferralsV6_2.sol:GNSReferralsV6_2",
        "label": "openFeeP",
        "offset": 0,
        "slot": "2",
        "type": "t_uint256"
      },
      {
        "astId": 12989,
        "contract": "contracts/contracts/GNSReferralsV6_2.sol:GNSReferralsV6_2",
        "label": "targetVolumeDai",
        "offset": 0,
        "slot": "3",
        "type": "t_uint256"
      },
      {
        "astId": 13024,
        "contract": "contracts/contracts/GNSReferralsV6_2.sol:GNSReferralsV6_2",
        "label": "allyDetails",
        "offset": 0,
        "slot": "4",
        "type": "t_mapping(t_address,t_struct(AllyDetails)13003_storage)"
      },
      {
        "astId": 13029,
        "contract": "contracts/contracts/GNSReferralsV6_2.sol:GNSReferralsV6_2",
        "label": "referrerDetails",
        "offset": 0,
        "slot": "5",
        "type": "t_mapping(t_address,t_struct(ReferrerDetails)13019_storage)"
      },
      {
        "astId": 13033,
        "contract": "contracts/contracts/GNSReferralsV6_2.sol:GNSReferralsV6_2",
        "label": "referrerByTrader",
        "offset": 0,
        "slot": "6",
        "type": "t_mapping(t_address,t_address)"
      }
    ],
    "types": {
      "t_address": {
        "encoding": "inplace",
        "label": "address",
        "numberOfBytes": "20"
      },
      "t_array(t_address)dyn_storage": {
        "base": "t_address",
        "encoding": "dynamic_array",
        "label": "address[]",
        "numberOfBytes": "32"
      },
      "t_bool": {
        "encoding": "inplace",
        "label": "bool",
        "numberOfBytes": "1"
      },
      "t_mapping(t_address,t_address)": {
        "encoding": "mapping",
        "key": "t_address",
        "label": "mapping(address => address)",
        "numberOfBytes": "32",
        "value": "t_address"
      },
      "t_mapping(t_address,t_struct(AllyDetails)13003_storage)": {
        "encoding": "mapping",
        "key": "t_address",
        "label": "mapping(address => struct GNSReferralsV6_2.AllyDetails)",
        "numberOfBytes": "32",
        "value": "t_struct(AllyDetails)13003_storage"
      },
      "t_mapping(t_address,t_struct(ReferrerDetails)13019_storage)": {
        "encoding": "mapping",
        "key": "t_address",
        "label": "mapping(address => struct GNSReferralsV6_2.ReferrerDetails)",
        "numberOfBytes": "32",
        "value": "t_struct(ReferrerDetails)13019_storage"
      },
      "t_struct(AllyDetails)13003_storage": {
        "encoding": "inplace",
        "label": "struct GNSReferralsV6_2.AllyDetails",
        "members": [
          {
            "astId": 12992,
            "contract": "contracts/contracts/GNSReferralsV6_2.sol:GNSReferralsV6_2",
            "label": "referrersReferred",
            "offset": 0,
            "slot": "0",
            "type": "t_array(t_address)dyn_storage"
          },
          {
            "astId": 12994,
            "contract": "contracts/contracts/GNSReferralsV6_2.sol:GNSReferralsV6_2",
            "label": "volumeReferredDai",
            "offset": 0,
            "slot": "1",
            "type": "t_uint256"
          },
          {
            "astId": 12996,
            "contract": "contracts/contracts/GNSReferralsV6_2.sol:GNSReferralsV6_2",
            "label": "pendingRewardsToken",
            "offset": 0,
            "slot": "2",
            "type": "t_uint256"
          },
          {
            "astId": 12998,
            "contract": "contracts/contracts/GNSReferralsV6_2.sol:GNSReferralsV6_2",
            "label": "totalRewardsToken",
            "offset": 0,
            "slot": "3",
            "type": "t_uint256"
          },
          {
            "astId": 13000,
            "contract": "contracts/contracts/GNSReferralsV6_2.sol:GNSReferralsV6_2",
            "label": "totalRewardsValueDai",
            "offset": 0,
            "slot": "4",
            "type": "t_uint256"
          },
          {
            "astId": 13002,
            "contract": "contracts/contracts/GNSReferralsV6_2.sol:GNSReferralsV6_2",
            "label": "active",
            "offset": 0,
            "slot": "5",
            "type": "t_bool"
          }
        ],
        "numberOfBytes": "192"
      },
      "t_struct(ReferrerDetails)13019_storage": {
        "encoding": "inplace",
        "label": "struct GNSReferralsV6_2.ReferrerDetails",
        "members": [
          {
            "astId": 13005,
            "contract": "contracts/contracts/GNSReferralsV6_2.sol:GNSReferralsV6_2",
            "label": "ally",
            "offset": 0,
            "slot": "0",
            "type": "t_address"
          },
          {
            "astId": 13008,
            "contract": "contracts/contracts/GNSReferralsV6_2.sol:GNSReferralsV6_2",
            "label": "tradersReferred",
            "offset": 0,
            "slot": "1",
            "type": "t_array(t_address)dyn_storage"
          },
          {
            "astId": 13010,
            "contract": "contracts/contracts/GNSReferralsV6_2.sol:GNSReferralsV6_2",
            "label": "volumeReferredDai",
            "offset": 0,
            "slot": "2",
            "type": "t_uint256"
          },
          {
            "astId": 13012,
            "contract": "contracts/contracts/GNSReferralsV6_2.sol:GNSReferralsV6_2",
            "label": "pendingRewardsToken",
            "offset": 0,
            "slot": "3",
            "type": "t_uint256"
          },
          {
            "astId": 13014,
            "contract": "contracts/contracts/GNSReferralsV6_2.sol:GNSReferralsV6_2",
            "label": "totalRewardsToken",
            "offset": 0,
            "slot": "4",
            "type": "t_uint256"
          },
          {
            "astId": 13016,
            "contract": "contracts/contracts/GNSReferralsV6_2.sol:GNSReferralsV6_2",
            "label": "totalRewardsValueDai",
            "offset": 0,
            "slot": "5",
            "type": "t_uint256"
          },
          {
            "astId": 13018,
            "contract": "contracts/contracts/GNSReferralsV6_2.sol:GNSReferralsV6_2",
            "label": "active",
            "offset": 0,
            "slot": "6",
            "type": "t_bool"
          }
        ],
        "numberOfBytes": "224"
      },
      "t_uint256": {
        "encoding": "inplace",
        "label": "uint256",
        "numberOfBytes": "32"
      }
    }
  }
}