{
  "address": "0x55259A79B8E5de4d526667ba3BBE08AF91eBd377",
  "abi": [
    {
      "anonymous": false,
      "inputs": [
        {
          "indexed": false,
          "internalType": "uint256",
          "name": "newAccValue",
          "type": "uint256"
        }
      ],
      "name": "AccBlockWeightedMarketCapStored",
      "type": "event"
    },
    {
      "anonymous": false,
      "inputs": [
        {
          "indexed": true,
          "internalType": "address",
          "name": "sender",
          "type": "address"
        },
        {
          "indexed": true,
          "internalType": "uint256",
          "name": "newEpoch",
          "type": "uint256"
        },
        {
          "indexed": false,
          "internalType": "uint256",
          "name": "prevPositiveOpenPnl",
          "type": "uint256"
        },
        {
          "indexed": false,
          "internalType": "uint256",
          "name": "newPositiveOpenPnl",
          "type": "uint256"
        },
        {
          "indexed": false,
          "internalType": "uint256",
          "name": "newEpochPositiveOpenPnl",
          "type": "uint256"
        },
        {
          "indexed": false,
          "internalType": "int256",
          "name": "newAccPnlPerTokenUsed",
          "type": "int256"
        }
      ],
      "name": "AccPnlPerTokenUsedUpdated",
      "type": "event"
    },
    {
      "anonymous": false,
      "inputs": [
        {
          "indexed": false,
          "internalType": "string",
          "name": "name",
          "type": "string"
        },
        {
          "indexed": false,
          "internalType": "address",
          "name": "newValue",
          "type": "address"
        }
      ],
      "name": "AddressParamUpdated",
      "type": "event"
    },
    {
      "anonymous": false,
      "inputs": [
        {
          "indexed": true,
          "internalType": "address",
          "name": "owner",
          "type": "address"
        },
        {
          "indexed": true,
          "internalType": "address",
          "name": "spender",
          "type": "address"
        },
        {
          "indexed": false,
          "internalType": "uint256",
          "name": "value",
          "type": "uint256"
        }
      ],
      "name": "Approval",
      "type": "event"
    },
    {
      "anonymous": false,
      "inputs": [
        {
          "indexed": true,
          "internalType": "address",
          "name": "sender",
          "type": "address"
        },
        {
          "indexed": true,
          "internalType": "address",
          "name": "user",
          "type": "address"
        },
        {
          "indexed": false,
          "internalType": "uint256",
          "name": "assets",
          "type": "uint256"
        },
        {
          "indexed": false,
          "internalType": "uint256",
          "name": "assetsLessDeplete",
          "type": "uint256"
        }
      ],
      "name": "AssetsReceived",
      "type": "event"
    },
    {
      "anonymous": false,
      "inputs": [
        {
          "indexed": true,
          "internalType": "address",
          "name": "sender",
          "type": "address"
        },
        {
          "indexed": true,
          "internalType": "address",
          "name": "receiver",
          "type": "address"
        },
        {
          "indexed": false,
          "internalType": "uint256",
          "name": "assets",
          "type": "uint256"
        }
      ],
      "name": "AssetsSent",
      "type": "event"
    },
    {
      "anonymous": false,
      "inputs": [
        {
          "indexed": false,
          "internalType": "uint256",
          "name": "newValue",
          "type": "uint256"
        }
      ],
      "name": "CurrentMaxSupplyUpdated",
      "type": "event"
    },
    {
      "anonymous": false,
      "inputs": [],
      "name": "DailyAccPnlDeltaReset",
      "type": "event"
    },
    {
      "anonymous": false,
      "inputs": [
        {
          "indexed": true,
          "internalType": "address",
          "name": "sender",
          "type": "address"
        },
        {
          "indexed": false,
          "internalType": "uint256",
          "name": "assets",
          "type": "uint256"
        },
        {
          "indexed": false,
          "internalType": "uint256",
          "name": "amountGns",
          "type": "uint256"
        }
      ],
      "name": "Depleted",
      "type": "event"
    },
    {
      "anonymous": false,
      "inputs": [
        {
          "indexed": true,
          "internalType": "address",
          "name": "sender",
          "type": "address"
        },
        {
          "indexed": true,
          "internalType": "address",
          "name": "owner",
          "type": "address"
        },
        {
          "indexed": false,
          "internalType": "uint256",
          "name": "assets",
          "type": "uint256"
        },
        {
          "indexed": false,
          "internalType": "uint256",
          "name": "shares",
          "type": "uint256"
        }
      ],
      "name": "Deposit",
      "type": "event"
    },
    {
      "anonymous": false,
      "inputs": [
        {
          "indexed": true,
          "internalType": "address",
          "name": "sender",
          "type": "address"
        },
        {
          "indexed": true,
          "internalType": "address",
          "name": "owner",
          "type": "address"
        },
        {
          "indexed": false,
          "internalType": "uint256",
          "name": "depositId",
          "type": "uint256"
        },
        {
          "components": [
            {
              "internalType": "address",
              "name": "owner",
              "type": "address"
            },
            {
              "internalType": "uint256",
              "name": "shares",
              "type": "uint256"
            },
            {
              "internalType": "uint256",
              "name": "assetsDeposited",
              "type": "uint256"
            },
            {
              "internalType": "uint256",
              "name": "assetsDiscount",
              "type": "uint256"
            },
            {
              "internalType": "uint256",
              "name": "atTimestamp",
              "type": "uint256"
            },
            {
              "internalType": "uint256",
              "name": "lockDuration",
              "type": "uint256"
            }
          ],
          "indexed": false,
          "internalType": "struct IGToken.LockedDeposit",
          "name": "d",
          "type": "tuple"
        }
      ],
      "name": "DepositLocked",
      "type": "event"
    },
    {
      "anonymous": false,
      "inputs": [
        {
          "indexed": true,
          "internalType": "address",
          "name": "sender",
          "type": "address"
        },
        {
          "indexed": true,
          "internalType": "address",
          "name": "receiver",
          "type": "address"
        },
        {
          "indexed": true,
          "internalType": "address",
          "name": "owner",
          "type": "address"
        },
        {
          "indexed": false,
          "internalType": "uint256",
          "name": "depositId",
          "type": "uint256"
        },
        {
          "components": [
            {
              "internalType": "address",
              "name": "owner",
              "type": "address"
            },
            {
              "internalType": "uint256",
              "name": "shares",
              "type": "uint256"
            },
            {
              "internalType": "uint256",
              "name": "assetsDeposited",
              "type": "uint256"
            },
            {
              "internalType": "uint256",
              "name": "assetsDiscount",
              "type": "uint256"
            },
            {
              "internalType": "uint256",
              "name": "atTimestamp",
              "type": "uint256"
            },
            {
              "internalType": "uint256",
              "name": "lockDuration",
              "type": "uint256"
            }
          ],
          "indexed": false,
          "internalType": "struct IGToken.LockedDeposit",
          "name": "d",
          "type": "tuple"
        }
      ],
      "name": "DepositUnlocked",
      "type": "event"
    },
    {
      "anonymous": false,
      "inputs": [
        {
          "components": [
            {
              "internalType": "address",
              "name": "addr",
              "type": "address"
            },
            {
              "internalType": "bytes",
              "name": "signature",
              "type": "bytes"
            }
          ],
          "indexed": false,
          "internalType": "struct GTokenV6_3_2.GnsPriceProvider",
          "name": "newValue",
          "type": "tuple"
        }
      ],
      "name": "GnsPriceProviderUpdated",
      "type": "event"
    },
    {
      "anonymous": false,
      "inputs": [
        {
          "indexed": false,
          "internalType": "uint8",
          "name": "version",
          "type": "uint8"
        }
      ],
      "name": "Initialized",
      "type": "event"
    },
    {
      "anonymous": false,
      "inputs": [
        {
          "indexed": false,
          "internalType": "string",
          "name": "name",
          "type": "string"
        },
        {
          "indexed": false,
          "internalType": "uint256",
          "name": "newValue",
          "type": "uint256"
        }
      ],
      "name": "NumberParamUpdated",
      "type": "event"
    },
    {
      "anonymous": false,
      "inputs": [],
      "name": "OpenTradesPnlFeedCallFailed",
      "type": "event"
    },
    {
      "anonymous": false,
      "inputs": [
        {
          "indexed": true,
          "internalType": "address",
          "name": "previousOwner",
          "type": "address"
        },
        {
          "indexed": true,
          "internalType": "address",
          "name": "newOwner",
          "type": "address"
        }
      ],
      "name": "OwnershipTransferred",
      "type": "event"
    },
    {
      "anonymous": false,
      "inputs": [
        {
          "indexed": true,
          "internalType": "address",
          "name": "sender",
          "type": "address"
        },
        {
          "indexed": false,
          "internalType": "uint256",
          "name": "assets",
          "type": "uint256"
        },
        {
          "indexed": false,
          "internalType": "uint256",
          "name": "amountGns",
          "type": "uint256"
        }
      ],
      "name": "Refilled",
      "type": "event"
    },
    {
      "anonymous": false,
      "inputs": [
        {
          "indexed": true,
          "internalType": "address",
          "name": "sender",
          "type": "address"
        },
        {
          "indexed": false,
          "internalType": "uint256",
          "name": "assets",
          "type": "uint256"
        }
      ],
      "name": "RewardDistributed",
      "type": "event"
    },
    {
      "anonymous": false,
      "inputs": [
        {
          "indexed": false,
          "internalType": "uint256",
          "name": "newValue",
          "type": "uint256"
        }
      ],
      "name": "ShareToAssetsPriceUpdated",
      "type": "event"
    },
    {
      "anonymous": false,
      "inputs": [
        {
          "indexed": true,
          "internalType": "address",
          "name": "from",
          "type": "address"
        },
        {
          "indexed": true,
          "internalType": "address",
          "name": "to",
          "type": "address"
        },
        {
          "indexed": false,
          "internalType": "uint256",
          "name": "value",
          "type": "uint256"
        }
      ],
      "name": "Transfer",
      "type": "event"
    },
    {
      "anonymous": false,
      "inputs": [
        {
          "indexed": true,
          "internalType": "address",
          "name": "sender",
          "type": "address"
        },
        {
          "indexed": true,
          "internalType": "address",
          "name": "receiver",
          "type": "address"
        },
        {
          "indexed": true,
          "internalType": "address",
          "name": "owner",
          "type": "address"
        },
        {
          "indexed": false,
          "internalType": "uint256",
          "name": "assets",
          "type": "uint256"
        },
        {
          "indexed": false,
          "internalType": "uint256",
          "name": "shares",
          "type": "uint256"
        }
      ],
      "name": "Withdraw",
      "type": "event"
    },
    {
      "anonymous": false,
      "inputs": [
        {
          "indexed": true,
          "internalType": "address",
          "name": "sender",
          "type": "address"
        },
        {
          "indexed": true,
          "internalType": "address",
          "name": "owner",
          "type": "address"
        },
        {
          "indexed": false,
          "internalType": "uint256",
          "name": "shares",
          "type": "uint256"
        },
        {
          "indexed": false,
          "internalType": "uint256",
          "name": "currEpoch",
          "type": "uint256"
        },
        {
          "indexed": true,
          "internalType": "uint256",
          "name": "unlockEpoch",
          "type": "uint256"
        }
      ],
      "name": "WithdrawCanceled",
      "type": "event"
    },
    {
      "anonymous": false,
      "inputs": [
        {
          "indexed": false,
          "internalType": "uint256[2]",
          "name": "newValue",
          "type": "uint256[2]"
        }
      ],
      "name": "WithdrawLockThresholdsPUpdated",
      "type": "event"
    },
    {
      "anonymous": false,
      "inputs": [
        {
          "indexed": true,
          "internalType": "address",
          "name": "sender",
          "type": "address"
        },
        {
          "indexed": true,
          "internalType": "address",
          "name": "owner",
          "type": "address"
        },
        {
          "indexed": false,
          "internalType": "uint256",
          "name": "shares",
          "type": "uint256"
        },
        {
          "indexed": false,
          "internalType": "uint256",
          "name": "currEpoch",
          "type": "uint256"
        },
        {
          "indexed": true,
          "internalType": "uint256",
          "name": "unlockEpoch",
          "type": "uint256"
        }
      ],
      "name": "WithdrawRequested",
      "type": "event"
    },
    {
      "inputs": [],
      "name": "MIN_LOCK_DURATION",
      "outputs": [
        {
          "internalType": "uint256",
          "name": "",
          "type": "uint256"
        }
      ],
      "stateMutability": "view",
      "type": "function"
    },
    {
      "inputs": [],
      "name": "accBlockWeightedMarketCap",
      "outputs": [
        {
          "internalType": "uint256",
          "name": "",
          "type": "uint256"
        }
      ],
      "stateMutability": "view",
      "type": "function"
    },
    {
      "inputs": [],
      "name": "accBlockWeightedMarketCapLastStored",
      "outputs": [
        {
          "internalType": "uint256",
          "name": "",
          "type": "uint256"
        }
      ],
      "stateMutability": "view",
      "type": "function"
    },
    {
      "inputs": [],
      "name": "accPnlPerToken",
      "outputs": [
        {
          "internalType": "int256",
          "name": "",
          "type": "int256"
        }
      ],
      "stateMutability": "view",
      "type": "function"
    },
    {
      "inputs": [],
      "name": "accPnlPerTokenUsed",
      "outputs": [
        {
          "internalType": "int256",
          "name": "",
          "type": "int256"
        }
      ],
      "stateMutability": "view",
      "type": "function"
    },
    {
      "inputs": [],
      "name": "accRewardsPerToken",
      "outputs": [
        {
          "internalType": "uint256",
          "name": "",
          "type": "uint256"
        }
      ],
      "stateMutability": "view",
      "type": "function"
    },
    {
      "inputs": [],
      "name": "admin",
      "outputs": [
        {
          "internalType": "address",
          "name": "",
          "type": "address"
        }
      ],
      "stateMutability": "view",
      "type": "function"
    },
    {
      "inputs": [
        {
          "internalType": "address",
          "name": "owner",
          "type": "address"
        },
        {
          "internalType": "address",
          "name": "spender",
          "type": "address"
        }
      ],
      "name": "allowance",
      "outputs": [
        {
          "internalType": "uint256",
          "name": "",
          "type": "uint256"
        }
      ],
      "stateMutability": "view",
      "type": "function"
    },
    {
      "inputs": [
        {
          "internalType": "address",
          "name": "spender",
          "type": "address"
        },
        {
          "internalType": "uint256",
          "name": "amount",
          "type": "uint256"
        }
      ],
      "name": "approve",
      "outputs": [
        {
          "internalType": "bool",
          "name": "",
          "type": "bool"
        }
      ],
      "stateMutability": "nonpayable",
      "type": "function"
    },
    {
      "inputs": [],
      "name": "asset",
      "outputs": [
        {
          "internalType": "address",
          "name": "",
          "type": "address"
        }
      ],
      "stateMutability": "view",
      "type": "function"
    },
    {
      "inputs": [],
      "name": "assetsToDeplete",
      "outputs": [
        {
          "internalType": "uint256",
          "name": "",
          "type": "uint256"
        }
      ],
      "stateMutability": "view",
      "type": "function"
    },
    {
      "inputs": [],
      "name": "availableAssets",
      "outputs": [
        {
          "internalType": "uint256",
          "name": "",
          "type": "uint256"
        }
      ],
      "stateMutability": "view",
      "type": "function"
    },
    {
      "inputs": [
        {
          "internalType": "address",
          "name": "account",
          "type": "address"
        }
      ],
      "name": "balanceOf",
      "outputs": [
        {
          "internalType": "uint256",
          "name": "",
          "type": "uint256"
        }
      ],
      "stateMutability": "view",
      "type": "function"
    },
    {
      "inputs": [
        {
          "internalType": "uint256",
          "name": "shares",
          "type": "uint256"
        },
        {
          "internalType": "address",
          "name": "owner",
          "type": "address"
        },
        {
          "internalType": "uint256",
          "name": "unlockEpoch",
          "type": "uint256"
        }
      ],
      "name": "cancelWithdrawRequest",
      "outputs": [],
      "stateMutability": "nonpayable",
      "type": "function"
    },
    {
      "inputs": [],
      "name": "collateralizationP",
      "outputs": [
        {
          "internalType": "uint256",
          "name": "",
          "type": "uint256"
        }
      ],
      "stateMutability": "view",
      "type": "function"
    },
    {
      "inputs": [
        {
          "internalType": "uint256",
          "name": "shares",
          "type": "uint256"
        }
      ],
      "name": "convertToAssets",
      "outputs": [
        {
          "internalType": "uint256",
          "name": "assets",
          "type": "uint256"
        }
      ],
      "stateMutability": "view",
      "type": "function"
    },
    {
      "inputs": [
        {
          "internalType": "uint256",
          "name": "assets",
          "type": "uint256"
        }
      ],
      "name": "convertToShares",
      "outputs": [
        {
          "internalType": "uint256",
          "name": "shares",
          "type": "uint256"
        }
      ],
      "stateMutability": "view",
      "type": "function"
    },
    {
      "inputs": [],
      "name": "currentBalanceDai",
      "outputs": [
        {
          "internalType": "uint256",
          "name": "",
          "type": "uint256"
        }
      ],
      "stateMutability": "view",
      "type": "function"
    },
    {
      "inputs": [],
      "name": "currentEpoch",
      "outputs": [
        {
          "internalType": "uint256",
          "name": "",
          "type": "uint256"
        }
      ],
      "stateMutability": "view",
      "type": "function"
    },
    {
      "inputs": [],
      "name": "currentEpochPositiveOpenPnl",
      "outputs": [
        {
          "internalType": "uint256",
          "name": "",
          "type": "uint256"
        }
      ],
      "stateMutability": "view",
      "type": "function"
    },
    {
      "inputs": [],
      "name": "currentEpochStart",
      "outputs": [
        {
          "internalType": "uint256",
          "name": "",
          "type": "uint256"
        }
      ],
      "stateMutability": "view",
      "type": "function"
    },
    {
      "inputs": [],
      "name": "currentMaxSupply",
      "outputs": [
        {
          "internalType": "uint256",
          "name": "",
          "type": "uint256"
        }
      ],
      "stateMutability": "view",
      "type": "function"
    },
    {
      "inputs": [],
      "name": "dailyAccPnlDelta",
      "outputs": [
        {
          "internalType": "int256",
          "name": "",
          "type": "int256"
        }
      ],
      "stateMutability": "view",
      "type": "function"
    },
    {
      "inputs": [],
      "name": "decimals",
      "outputs": [
        {
          "internalType": "uint8",
          "name": "",
          "type": "uint8"
        }
      ],
      "stateMutability": "view",
      "type": "function"
    },
    {
      "inputs": [
        {
          "internalType": "address",
          "name": "spender",
          "type": "address"
        },
        {
          "internalType": "uint256",
          "name": "subtractedValue",
          "type": "uint256"
        }
      ],
      "name": "decreaseAllowance",
      "outputs": [
        {
          "internalType": "bool",
          "name": "",
          "type": "bool"
        }
      ],
      "stateMutability": "nonpayable",
      "type": "function"
    },
    {
      "inputs": [
        {
          "internalType": "uint256",
          "name": "assets",
          "type": "uint256"
        }
      ],
      "name": "deplete",
      "outputs": [],
      "stateMutability": "nonpayable",
      "type": "function"
    },
    {
      "inputs": [
        {
          "internalType": "uint256",
          "name": "assets",
          "type": "uint256"
        },
        {
          "internalType": "address",
          "name": "receiver",
          "type": "address"
        }
      ],
      "name": "deposit",
      "outputs": [
        {
          "internalType": "uint256",
          "name": "",
          "type": "uint256"
        }
      ],
      "stateMutability": "nonpayable",
      "type": "function"
    },
    {
      "inputs": [
        {
          "internalType": "uint256",
          "name": "assets",
          "type": "uint256"
        },
        {
          "internalType": "uint256",
          "name": "lockDuration",
          "type": "uint256"
        },
        {
          "internalType": "address",
          "name": "receiver",
          "type": "address"
        }
      ],
      "name": "depositWithDiscountAndLock",
      "outputs": [
        {
          "internalType": "uint256",
          "name": "",
          "type": "uint256"
        }
      ],
      "stateMutability": "nonpayable",
      "type": "function"
    },
    {
      "inputs": [
        {
          "internalType": "uint256",
          "name": "assets",
          "type": "uint256"
        }
      ],
      "name": "distributeReward",
      "outputs": [],
      "stateMutability": "nonpayable",
      "type": "function"
    },
    {
      "inputs": [
        {
          "internalType": "uint256",
          "name": "depositId",
          "type": "uint256"
        }
      ],
      "name": "getLockedDeposit",
      "outputs": [
        {
          "components": [
            {
              "internalType": "address",
              "name": "owner",
              "type": "address"
            },
            {
              "internalType": "uint256",
              "name": "shares",
              "type": "uint256"
            },
            {
              "internalType": "uint256",
              "name": "assetsDeposited",
              "type": "uint256"
            },
            {
              "internalType": "uint256",
              "name": "assetsDiscount",
              "type": "uint256"
            },
            {
              "internalType": "uint256",
              "name": "atTimestamp",
              "type": "uint256"
            },
            {
              "internalType": "uint256",
              "name": "lockDuration",
              "type": "uint256"
            }
          ],
          "internalType": "struct IGToken.LockedDeposit",
          "name": "",
          "type": "tuple"
        }
      ],
      "stateMutability": "view",
      "type": "function"
    },
    {
      "inputs": [
        {
          "internalType": "uint256",
          "name": "currentBlock",
          "type": "uint256"
        }
      ],
      "name": "getPendingAccBlockWeightedMarketCap",
      "outputs": [
        {
          "internalType": "uint256",
          "name": "",
          "type": "uint256"
        }
      ],
      "stateMutability": "view",
      "type": "function"
    },
    {
      "inputs": [],
      "name": "gnsPriceProvider",
      "outputs": [
        {
          "internalType": "address",
          "name": "addr",
          "type": "address"
        },
        {
          "internalType": "bytes",
          "name": "signature",
          "type": "bytes"
        }
      ],
      "stateMutability": "view",
      "type": "function"
    },
    {
      "inputs": [],
      "name": "gnsToken",
      "outputs": [
        {
          "internalType": "address",
          "name": "",
          "type": "address"
        }
      ],
      "stateMutability": "view",
      "type": "function"
    },
    {
      "inputs": [],
      "name": "gnsTokenToAssetsPrice",
      "outputs": [
        {
          "internalType": "uint256",
          "name": "price",
          "type": "uint256"
        }
      ],
      "stateMutability": "view",
      "type": "function"
    },
    {
      "inputs": [
        {
          "internalType": "address",
          "name": "spender",
          "type": "address"
        },
        {
          "internalType": "uint256",
          "name": "addedValue",
          "type": "uint256"
        }
      ],
      "name": "increaseAllowance",
      "outputs": [
        {
          "internalType": "bool",
          "name": "",
          "type": "bool"
        }
      ],
      "stateMutability": "nonpayable",
      "type": "function"
    },
    {
      "inputs": [
        {
          "internalType": "string",
          "name": "_name",
          "type": "string"
        },
        {
          "internalType": "string",
          "name": "_symbol",
          "type": "string"
        },
        {
          "components": [
            {
              "internalType": "address",
              "name": "asset",
              "type": "address"
            },
            {
              "internalType": "address",
              "name": "owner",
              "type": "address"
            },
            {
              "internalType": "address",
              "name": "manager",
              "type": "address"
            },
            {
              "internalType": "address",
              "name": "admin",
              "type": "address"
            },
            {
              "internalType": "address",
              "name": "gnsToken",
              "type": "address"
            },
            {
              "internalType": "address",
              "name": "lockedDepositNft",
              "type": "address"
            },
            {
              "internalType": "address",
              "name": "pnlHandler",
              "type": "address"
            },
            {
              "internalType": "address",
              "name": "openTradesPnlFeed",
              "type": "address"
            },
            {
              "components": [
                {
                  "internalType": "address",
                  "name": "addr",
                  "type": "address"
                },
                {
                  "internalType": "bytes",
                  "name": "signature",
                  "type": "bytes"
                }
              ],
              "internalType": "struct GTokenV6_3_2.GnsPriceProvider",
              "name": "gnsPriceProvider",
              "type": "tuple"
            }
          ],
          "internalType": "struct GTokenV6_3_2.ContractAddresses",
          "name": "_contractAddresses",
          "type": "tuple"
        },
        {
          "internalType": "uint256",
          "name": "_MIN_LOCK_DURATION",
          "type": "uint256"
        },
        {
          "internalType": "uint256",
          "name": "_maxAccOpenPnlDelta",
          "type": "uint256"
        },
        {
          "internalType": "uint256",
          "name": "_maxDailyAccPnlDelta",
          "type": "uint256"
        },
        {
          "internalType": "uint256[2]",
          "name": "_withdrawLockThresholdsP",
          "type": "uint256[2]"
        },
        {
          "internalType": "uint256",
          "name": "_maxSupplyIncreaseDailyP",
          "type": "uint256"
        },
        {
          "internalType": "uint256",
          "name": "_lossesBurnP",
          "type": "uint256"
        },
        {
          "internalType": "uint256",
          "name": "_maxGnsSupplyMintDailyP",
          "type": "uint256"
        },
        {
          "internalType": "uint256",
          "name": "_maxDiscountP",
          "type": "uint256"
        },
        {
          "internalType": "uint256",
          "name": "_maxDiscountThresholdP",
          "type": "uint256"
        }
      ],
      "name": "initialize",
      "outputs": [],
      "stateMutability": "nonpayable",
      "type": "function"
    },
    {
      "inputs": [],
      "name": "initializeV2",
      "outputs": [],
      "stateMutability": "nonpayable",
      "type": "function"
    },
    {
      "inputs": [],
      "name": "lastDailyAccPnlDeltaReset",
      "outputs": [
        {
          "internalType": "uint256",
          "name": "",
          "type": "uint256"
        }
      ],
      "stateMutability": "view",
      "type": "function"
    },
    {
      "inputs": [],
      "name": "lastMaxSupplyUpdate",
      "outputs": [
        {
          "internalType": "uint256",
          "name": "",
          "type": "uint256"
        }
      ],
      "stateMutability": "view",
      "type": "function"
    },
    {
      "inputs": [
        {
          "internalType": "uint256",
          "name": "collatP",
          "type": "uint256"
        },
        {
          "internalType": "uint256",
          "name": "lockDuration",
          "type": "uint256"
        }
      ],
      "name": "lockDiscountP",
      "outputs": [
        {
          "internalType": "uint256",
          "name": "",
          "type": "uint256"
        }
      ],
      "stateMutability": "view",
      "type": "function"
    },
    {
      "inputs": [],
      "name": "lockedDepositNft",
      "outputs": [
        {
          "internalType": "contract INft",
          "name": "",
          "type": "address"
        }
      ],
      "stateMutability": "view",
      "type": "function"
    },
    {
      "inputs": [
        {
          "internalType": "uint256",
          "name": "",
          "type": "uint256"
        }
      ],
      "name": "lockedDeposits",
      "outputs": [
        {
          "internalType": "address",
          "name": "owner",
          "type": "address"
        },
        {
          "internalType": "uint256",
          "name": "shares",
          "type": "uint256"
        },
        {
          "internalType": "uint256",
          "name": "assetsDeposited",
          "type": "uint256"
        },
        {
          "internalType": "uint256",
          "name": "assetsDiscount",
          "type": "uint256"
        },
        {
          "internalType": "uint256",
          "name": "atTimestamp",
          "type": "uint256"
        },
        {
          "internalType": "uint256",
          "name": "lockDuration",
          "type": "uint256"
        }
      ],
      "stateMutability": "view",
      "type": "function"
    },
    {
      "inputs": [],
      "name": "lockedDepositsCount",
      "outputs": [
        {
          "internalType": "uint256",
          "name": "",
          "type": "uint256"
        }
      ],
      "stateMutability": "view",
      "type": "function"
    },
    {
      "inputs": [],
      "name": "lossesBurnP",
      "outputs": [
        {
          "internalType": "uint256",
          "name": "",
          "type": "uint256"
        }
      ],
      "stateMutability": "view",
      "type": "function"
    },
    {
      "inputs": [
        {
          "internalType": "uint256",
          "name": "shares",
          "type": "uint256"
        },
        {
          "internalType": "address",
          "name": "owner",
          "type": "address"
        }
      ],
      "name": "makeWithdrawRequest",
      "outputs": [],
      "stateMutability": "nonpayable",
      "type": "function"
    },
    {
      "inputs": [],
      "name": "manager",
      "outputs": [
        {
          "internalType": "address",
          "name": "",
          "type": "address"
        }
      ],
      "stateMutability": "view",
      "type": "function"
    },
    {
      "inputs": [],
      "name": "marketCap",
      "outputs": [
        {
          "internalType": "uint256",
          "name": "",
          "type": "uint256"
        }
      ],
      "stateMutability": "view",
      "type": "function"
    },
    {
      "inputs": [],
      "name": "maxAccOpenPnlDelta",
      "outputs": [
        {
          "internalType": "uint256",
          "name": "",
          "type": "uint256"
        }
      ],
      "stateMutability": "view",
      "type": "function"
    },
    {
      "inputs": [],
      "name": "maxAccPnlPerToken",
      "outputs": [
        {
          "internalType": "uint256",
          "name": "",
          "type": "uint256"
        }
      ],
      "stateMutability": "view",
      "type": "function"
    },
    {
      "inputs": [],
      "name": "maxDailyAccPnlDelta",
      "outputs": [
        {
          "internalType": "uint256",
          "name": "",
          "type": "uint256"
        }
      ],
      "stateMutability": "view",
      "type": "function"
    },
    {
      "inputs": [
        {
          "internalType": "address",
          "name": "owner",
          "type": "address"
        }
      ],
      "name": "maxDeposit",
      "outputs": [
        {
          "internalType": "uint256",
          "name": "",
          "type": "uint256"
        }
      ],
      "stateMutability": "view",
      "type": "function"
    },
    {
      "inputs": [],
      "name": "maxDiscountP",
      "outputs": [
        {
          "internalType": "uint256",
          "name": "",
          "type": "uint256"
        }
      ],
      "stateMutability": "view",
      "type": "function"
    },
    {
      "inputs": [],
      "name": "maxDiscountThresholdP",
      "outputs": [
        {
          "internalType": "uint256",
          "name": "",
          "type": "uint256"
        }
      ],
      "stateMutability": "view",
      "type": "function"
    },
    {
      "inputs": [],
      "name": "maxGnsSupplyMintDailyP",
      "outputs": [
        {
          "internalType": "uint256",
          "name": "",
          "type": "uint256"
        }
      ],
      "stateMutability": "view",
      "type": "function"
    },
    {
      "inputs": [
        {
          "internalType": "address",
          "name": "",
          "type": "address"
        }
      ],
      "name": "maxMint",
      "outputs": [
        {
          "internalType": "uint256",
          "name": "",
          "type": "uint256"
        }
      ],
      "stateMutability": "view",
      "type": "function"
    },
    {
      "inputs": [
        {
          "internalType": "address",
          "name": "owner",
          "type": "address"
        }
      ],
      "name": "maxRedeem",
      "outputs": [
        {
          "internalType": "uint256",
          "name": "",
          "type": "uint256"
        }
      ],
      "stateMutability": "view",
      "type": "function"
    },
    {
      "inputs": [],
      "name": "maxSupplyIncreaseDailyP",
      "outputs": [
        {
          "internalType": "uint256",
          "name": "",
          "type": "uint256"
        }
      ],
      "stateMutability": "view",
      "type": "function"
    },
    {
      "inputs": [
        {
          "internalType": "address",
          "name": "owner",
          "type": "address"
        }
      ],
      "name": "maxWithdraw",
      "outputs": [
        {
          "internalType": "uint256",
          "name": "",
          "type": "uint256"
        }
      ],
      "stateMutability": "view",
      "type": "function"
    },
    {
      "inputs": [
        {
          "internalType": "uint256",
          "name": "shares",
          "type": "uint256"
        },
        {
          "internalType": "address",
          "name": "receiver",
          "type": "address"
        }
      ],
      "name": "mint",
      "outputs": [
        {
          "internalType": "uint256",
          "name": "",
          "type": "uint256"
        }
      ],
      "stateMutability": "nonpayable",
      "type": "function"
    },
    {
      "inputs": [
        {
          "internalType": "uint256",
          "name": "shares",
          "type": "uint256"
        },
        {
          "internalType": "uint256",
          "name": "lockDuration",
          "type": "uint256"
        },
        {
          "internalType": "address",
          "name": "receiver",
          "type": "address"
        }
      ],
      "name": "mintWithDiscountAndLock",
      "outputs": [
        {
          "internalType": "uint256",
          "name": "",
          "type": "uint256"
        }
      ],
      "stateMutability": "nonpayable",
      "type": "function"
    },
    {
      "inputs": [],
      "name": "name",
      "outputs": [
        {
          "internalType": "string",
          "name": "",
          "type": "string"
        }
      ],
      "stateMutability": "view",
      "type": "function"
    },
    {
      "inputs": [],
      "name": "openTradesPnlFeed",
      "outputs": [
        {
          "internalType": "contract IOpenTradesPnlFeed",
          "name": "",
          "type": "address"
        }
      ],
      "stateMutability": "view",
      "type": "function"
    },
    {
      "inputs": [],
      "name": "owner",
      "outputs": [
        {
          "internalType": "address",
          "name": "",
          "type": "address"
        }
      ],
      "stateMutability": "view",
      "type": "function"
    },
    {
      "inputs": [],
      "name": "pnlHandler",
      "outputs": [
        {
          "internalType": "address",
          "name": "",
          "type": "address"
        }
      ],
      "stateMutability": "view",
      "type": "function"
    },
    {
      "inputs": [
        {
          "internalType": "uint256",
          "name": "assets",
          "type": "uint256"
        }
      ],
      "name": "previewDeposit",
      "outputs": [
        {
          "internalType": "uint256",
          "name": "",
          "type": "uint256"
        }
      ],
      "stateMutability": "view",
      "type": "function"
    },
    {
      "inputs": [
        {
          "internalType": "uint256",
          "name": "shares",
          "type": "uint256"
        }
      ],
      "name": "previewMint",
      "outputs": [
        {
          "internalType": "uint256",
          "name": "",
          "type": "uint256"
        }
      ],
      "stateMutability": "view",
      "type": "function"
    },
    {
      "inputs": [
        {
          "internalType": "uint256",
          "name": "shares",
          "type": "uint256"
        }
      ],
      "name": "previewRedeem",
      "outputs": [
        {
          "internalType": "uint256",
          "name": "",
          "type": "uint256"
        }
      ],
      "stateMutability": "view",
      "type": "function"
    },
    {
      "inputs": [
        {
          "internalType": "uint256",
          "name": "assets",
          "type": "uint256"
        }
      ],
      "name": "previewWithdraw",
      "outputs": [
        {
          "internalType": "uint256",
          "name": "",
          "type": "uint256"
        }
      ],
      "stateMutability": "view",
      "type": "function"
    },
    {
      "inputs": [
        {
          "internalType": "uint256",
          "name": "assets",
          "type": "uint256"
        },
        {
          "internalType": "address",
          "name": "user",
          "type": "address"
        }
      ],
      "name": "receiveAssets",
      "outputs": [],
      "stateMutability": "nonpayable",
      "type": "function"
    },
    {
      "inputs": [
        {
          "internalType": "uint256",
          "name": "shares",
          "type": "uint256"
        },
        {
          "internalType": "address",
          "name": "receiver",
          "type": "address"
        },
        {
          "internalType": "address",
          "name": "owner",
          "type": "address"
        }
      ],
      "name": "redeem",
      "outputs": [
        {
          "internalType": "uint256",
          "name": "",
          "type": "uint256"
        }
      ],
      "stateMutability": "nonpayable",
      "type": "function"
    },
    {
      "inputs": [
        {
          "internalType": "uint256",
          "name": "assets",
          "type": "uint256"
        }
      ],
      "name": "refill",
      "outputs": [],
      "stateMutability": "nonpayable",
      "type": "function"
    },
    {
      "inputs": [],
      "name": "renounceOwnership",
      "outputs": [],
      "stateMutability": "nonpayable",
      "type": "function"
    },
    {
      "inputs": [
        {
          "internalType": "uint256",
          "name": "assets",
          "type": "uint256"
        },
        {
          "internalType": "address",
          "name": "receiver",
          "type": "address"
        }
      ],
      "name": "sendAssets",
      "outputs": [],
      "stateMutability": "nonpayable",
      "type": "function"
    },
    {
      "inputs": [],
      "name": "shareToAssetsPrice",
      "outputs": [
        {
          "internalType": "uint256",
          "name": "",
          "type": "uint256"
        }
      ],
      "stateMutability": "view",
      "type": "function"
    },
    {
      "inputs": [],
      "name": "storeAccBlockWeightedMarketCap",
      "outputs": [],
      "stateMutability": "nonpayable",
      "type": "function"
    },
    {
      "inputs": [],
      "name": "symbol",
      "outputs": [
        {
          "internalType": "string",
          "name": "",
          "type": "string"
        }
      ],
      "stateMutability": "view",
      "type": "function"
    },
    {
      "inputs": [],
      "name": "totalAssets",
      "outputs": [
        {
          "internalType": "uint256",
          "name": "",
          "type": "uint256"
        }
      ],
      "stateMutability": "view",
      "type": "function"
    },
    {
      "inputs": [],
      "name": "totalClosedPnl",
      "outputs": [
        {
          "internalType": "int256",
          "name": "",
          "type": "int256"
        }
      ],
      "stateMutability": "view",
      "type": "function"
    },
    {
      "inputs": [],
      "name": "totalDepleted",
      "outputs": [
        {
          "internalType": "uint256",
          "name": "",
          "type": "uint256"
        }
      ],
      "stateMutability": "view",
      "type": "function"
    },
    {
      "inputs": [],
      "name": "totalDeposited",
      "outputs": [
        {
          "internalType": "uint256",
          "name": "",
          "type": "uint256"
        }
      ],
      "stateMutability": "view",
      "type": "function"
    },
    {
      "inputs": [],
      "name": "totalDiscounts",
      "outputs": [
        {
          "internalType": "uint256",
          "name": "",
          "type": "uint256"
        }
      ],
      "stateMutability": "view",
      "type": "function"
    },
    {
      "inputs": [],
      "name": "totalLiability",
      "outputs": [
        {
          "internalType": "int256",
          "name": "",
          "type": "int256"
        }
      ],
      "stateMutability": "view",
      "type": "function"
    },
    {
      "inputs": [],
      "name": "totalLockedDiscounts",
      "outputs": [
        {
          "internalType": "uint256",
          "name": "",
          "type": "uint256"
        }
      ],
      "stateMutability": "view",
      "type": "function"
    },
    {
      "inputs": [],
      "name": "totalRefilled",
      "outputs": [
        {
          "internalType": "uint256",
          "name": "",
          "type": "uint256"
        }
      ],
      "stateMutability": "view",
      "type": "function"
    },
    {
      "inputs": [],
      "name": "totalRewards",
      "outputs": [
        {
          "internalType": "uint256",
          "name": "",
          "type": "uint256"
        }
      ],
      "stateMutability": "view",
      "type": "function"
    },
    {
      "inputs": [
        {
          "internalType": "address",
          "name": "owner",
          "type": "address"
        }
      ],
      "name": "totalSharesBeingWithdrawn",
      "outputs": [
        {
          "internalType": "uint256",
          "name": "shares",
          "type": "uint256"
        }
      ],
      "stateMutability": "view",
      "type": "function"
    },
    {
      "inputs": [],
      "name": "totalSupply",
      "outputs": [
        {
          "internalType": "uint256",
          "name": "",
          "type": "uint256"
        }
      ],
      "stateMutability": "view",
      "type": "function"
    },
    {
      "inputs": [
        {
          "internalType": "address",
          "name": "to",
          "type": "address"
        },
        {
          "internalType": "uint256",
          "name": "amount",
          "type": "uint256"
        }
      ],
      "name": "transfer",
      "outputs": [
        {
          "internalType": "bool",
          "name": "",
          "type": "bool"
        }
      ],
      "stateMutability": "nonpayable",
      "type": "function"
    },
    {
      "inputs": [
        {
          "internalType": "address",
          "name": "from",
          "type": "address"
        },
        {
          "internalType": "address",
          "name": "to",
          "type": "address"
        },
        {
          "internalType": "uint256",
          "name": "amount",
          "type": "uint256"
        }
      ],
      "name": "transferFrom",
      "outputs": [
        {
          "internalType": "bool",
          "name": "",
          "type": "bool"
        }
      ],
      "stateMutability": "nonpayable",
      "type": "function"
    },
    {
      "inputs": [
        {
          "internalType": "address",
          "name": "newOwner",
          "type": "address"
        }
      ],
      "name": "transferOwnership",
      "outputs": [],
      "stateMutability": "nonpayable",
      "type": "function"
    },
    {
      "inputs": [],
      "name": "tryNewOpenPnlRequestOrEpoch",
      "outputs": [],
      "stateMutability": "nonpayable",
      "type": "function"
    },
    {
      "inputs": [],
      "name": "tryResetDailyAccPnlDelta",
      "outputs": [],
      "stateMutability": "nonpayable",
      "type": "function"
    },
    {
      "inputs": [],
      "name": "tryUpdateCurrentMaxSupply",
      "outputs": [],
      "stateMutability": "nonpayable",
      "type": "function"
    },
    {
      "inputs": [],
      "name": "tvl",
      "outputs": [
        {
          "internalType": "uint256",
          "name": "",
          "type": "uint256"
        }
      ],
      "stateMutability": "view",
      "type": "function"
    },
    {
      "inputs": [
        {
          "internalType": "uint256",
          "name": "depositId",
          "type": "uint256"
        },
        {
          "internalType": "address",
          "name": "receiver",
          "type": "address"
        }
      ],
      "name": "unlockDeposit",
      "outputs": [],
      "stateMutability": "nonpayable",
      "type": "function"
    },
    {
      "inputs": [
        {
          "internalType": "uint256",
          "name": "prevPositiveOpenPnl",
          "type": "uint256"
        },
        {
          "internalType": "uint256",
          "name": "newPositiveOpenPnl",
          "type": "uint256"
        }
      ],
      "name": "updateAccPnlPerTokenUsed",
      "outputs": [
        {
          "internalType": "uint256",
          "name": "",
          "type": "uint256"
        }
      ],
      "stateMutability": "nonpayable",
      "type": "function"
    },
    {
      "inputs": [
        {
          "internalType": "address",
          "name": "newValue",
          "type": "address"
        }
      ],
      "name": "updateAdmin",
      "outputs": [],
      "stateMutability": "nonpayable",
      "type": "function"
    },
    {
      "inputs": [
        {
          "components": [
            {
              "internalType": "address",
              "name": "addr",
              "type": "address"
            },
            {
              "internalType": "bytes",
              "name": "signature",
              "type": "bytes"
            }
          ],
          "internalType": "struct GTokenV6_3_2.GnsPriceProvider",
          "name": "newValue",
          "type": "tuple"
        }
      ],
      "name": "updateGnsPriceProvider",
      "outputs": [],
      "stateMutability": "nonpayable",
      "type": "function"
    },
    {
      "inputs": [
        {
          "internalType": "uint256",
          "name": "newValue",
          "type": "uint256"
        }
      ],
      "name": "updateLossesBurnP",
      "outputs": [],
      "stateMutability": "nonpayable",
      "type": "function"
    },
    {
      "inputs": [
        {
          "internalType": "address",
          "name": "newValue",
          "type": "address"
        }
      ],
      "name": "updateManager",
      "outputs": [],
      "stateMutability": "nonpayable",
      "type": "function"
    },
    {
      "inputs": [
        {
          "internalType": "uint256",
          "name": "newValue",
          "type": "uint256"
        }
      ],
      "name": "updateMaxAccOpenPnlDelta",
      "outputs": [],
      "stateMutability": "nonpayable",
      "type": "function"
    },
    {
      "inputs": [
        {
          "internalType": "uint256",
          "name": "newValue",
          "type": "uint256"
        }
      ],
      "name": "updateMaxDailyAccPnlDelta",
      "outputs": [],
      "stateMutability": "nonpayable",
      "type": "function"
    },
    {
      "inputs": [
        {
          "internalType": "uint256",
          "name": "newValue",
          "type": "uint256"
        }
      ],
      "name": "updateMaxDiscountP",
      "outputs": [],
      "stateMutability": "nonpayable",
      "type": "function"
    },
    {
      "inputs": [
        {
          "internalType": "uint256",
          "name": "newValue",
          "type": "uint256"
        }
      ],
      "name": "updateMaxDiscountThresholdP",
      "outputs": [],
      "stateMutability": "nonpayable",
      "type": "function"
    },
    {
      "inputs": [
        {
          "internalType": "uint256",
          "name": "newValue",
          "type": "uint256"
        }
      ],
      "name": "updateMaxGnsSupplyMintDailyP",
      "outputs": [],
      "stateMutability": "nonpayable",
      "type": "function"
    },
    {
      "inputs": [
        {
          "internalType": "uint256",
          "name": "newValue",
          "type": "uint256"
        }
      ],
      "name": "updateMaxSupplyIncreaseDailyP",
      "outputs": [],
      "stateMutability": "nonpayable",
      "type": "function"
    },
    {
      "inputs": [
        {
          "internalType": "address",
          "name": "newValue",
          "type": "address"
        }
      ],
      "name": "updateOpenTradesPnlFeed",
      "outputs": [],
      "stateMutability": "nonpayable",
      "type": "function"
    },
    {
      "inputs": [
        {
          "internalType": "address",
          "name": "newValue",
          "type": "address"
        }
      ],
      "name": "updatePnlHandler",
      "outputs": [],
      "stateMutability": "nonpayable",
      "type": "function"
    },
    {
      "inputs": [
        {
          "internalType": "uint256[2]",
          "name": "newValue",
          "type": "uint256[2]"
        }
      ],
      "name": "updateWithdrawLockThresholdsP",
      "outputs": [],
      "stateMutability": "nonpayable",
      "type": "function"
    },
    {
      "inputs": [
        {
          "internalType": "uint256",
          "name": "assets",
          "type": "uint256"
        },
        {
          "internalType": "address",
          "name": "receiver",
          "type": "address"
        },
        {
          "internalType": "address",
          "name": "owner",
          "type": "address"
        }
      ],
      "name": "withdraw",
      "outputs": [
        {
          "internalType": "uint256",
          "name": "",
          "type": "uint256"
        }
      ],
      "stateMutability": "nonpayable",
      "type": "function"
    },
    {
      "inputs": [],
      "name": "withdrawEpochsTimelock",
      "outputs": [
        {
          "internalType": "uint256",
          "name": "",
          "type": "uint256"
        }
      ],
      "stateMutability": "view",
      "type": "function"
    },
    {
      "inputs": [
        {
          "internalType": "uint256",
          "name": "",
          "type": "uint256"
        }
      ],
      "name": "withdrawLockThresholdsP",
      "outputs": [
        {
          "internalType": "uint256",
          "name": "",
          "type": "uint256"
        }
      ],
      "stateMutability": "view",
      "type": "function"
    },
    {
      "inputs": [
        {
          "internalType": "address",
          "name": "",
          "type": "address"
        },
        {
          "internalType": "uint256",
          "name": "",
          "type": "uint256"
        }
      ],
      "name": "withdrawRequests",
      "outputs": [
        {
          "internalType": "uint256",
          "name": "",
          "type": "uint256"
        }
      ],
      "stateMutability": "view",
      "type": "function"
    }
  ],
  "transactionHash": "0x18237b202734916c13538df95c614109ff25672b9ad2bfec1b50cc5666f4464e",
  "args": [],
  "numDeployments": 1,
  "solcInputHash": "edab1d0feb7ffa5be1c95101a46d74db",
  "bytecode": "0x608080604052346100175761581790816200001d8239f35b600080fdfe6080806040526004361015610014575b600080fd5b60009060e08235811c91826301e1d11414613a33575081630307604f14613a155781630344e8a31461375757816306fdde03146136c457816307a2d13a146131a55781630851a2021461344b578163095ea7b31461369d5781630a28a4771461367b5781630dfb5287146136625781630e15561a146136445781630fc29349146136265781630fcc6f3114613608578163104aeef8146135ea57816318160ddd146135cc5781631f91f287146135a35781631fc8d0991461345657816320124bce1461344b57816320e70a56146133c1578163215e2fae146133a357816322b2ef851461338557816323b872dd1461331f5781632c135b93146132f4578163313ce567146132d057816338d52e0f146132a757816339509351146132565781633b418c1e146132385781633cc775271461321a5781633d7e458714613201578163402d267d146131d9578163481c6a75146131b05781634cdad506146131a55781634ea0ddf71461318757816353409be21461316957816354508847146130e257816358aba00f14613038578163596f0bc514612f555781635a6953d314612f2c5781635cd8a76b14612eac5781635e93f86014612e8e5781635f4ae74114612e7057816361a8c8c414612e525781636445ec0014612e3957816366d8ecf114612e1b5781636ce7dcc914612d8e5781636d6ca31914612d4b5781636e553f6514612c055781636ee432f214612bd857816370a0823114612b9f578163715018a614612b535781637361a544146129d157816375cd9da9146129b3578163766718081461299557816378b4330f1461297757816379431d9c1461294e5781637dfc6922146129305781637fcff2af146129125781638d6cb288146128f45781638da5cb5b146128cb578163940a4e45146127fd57816394bf804d1461275657816395d89b4114612682578163979abb25146125cc578163979b0895146125ad5781639aca06dc1461258f578163a457c2d7146124ea578163a481c14b14612396578163a50043a01461226d578163a8abe90514612095578163a9059cbb14612039578163aabf8ede146116c6578163ad00a5a4146116a2578163b224e73514611684578163b3c4850a14611587578163b3d7f6b914611568578163b460af941461149d578163b54bf9c9146112d6578163b82c58991461126c578163ba087652146111a1578163be216e8314611186578163c4c14169146110fd578163c63384ab146110e2578163c63d75b6146110bd578163c6e6f592146110b2578163ca9d07ba14610f79578163cb7f2c3914610f50578163ce96cb7714610f2e578163ce9e1b2114610eae578163cf39c2db14610e24578163d1e08c2014610e0a578163d229b2dd14610d87578163d272df1014610d22578163d8bdfd4814610d07578163d905777e14610ce3578163db0447d514610cc5578163dd62ed3e14610c76578163ddd65e3114610c58578163e2f273bd14610baa578163e5328e0614610b71578163e66a6e3b14610a0b57508063e783967614610942578063e7899c0614610929578063e8e4311014610837578063ea5f2bba14610819578063ef8b30f71461080f578063f0a77446146107f1578063f2fde38b14610734578063f31bd8f714610716578063f5521eaa14610610578063f851a440146105e7578063f8fb10f7146105c9578063faf33f29146105ab578063fe0b6d901461051f5763ff50abdc146104ff57600080fd5b3461051c578060031936011261051c57602060eb54604051908152f35b80fd5b503461051c57602036600319011261051c5760008051602061578b833981519152608060043561055a60018060a01b0360cb54163314613f4d565b61056f6802b5e3af16b1880000821115613fc0565b8060d7556040519060408252601760408301527606d6178537570706c79496e6372656173654461696c795604c1b60608301526020820152a180f35b503461051c578060031936011261051c57602060e454604051908152f35b503461051c578060031936011261051c57602060da54604051908152f35b503461051c578060031936011261051c5760cc546040516001600160a01b039091168152602090f35b503461051c57604036600319011261051c57366023121561000f5760405161063781613c01565b8060449136831161000f576004905b838210610706575050610657615416565b60209182820151825110156106d4575080835b600281106106c15750506040519183835b600282106106ac57857f8472b50e25b52d8de564f9719bd793b18d83cf59ce4d309e211fb6a4fdc14811604087a180f35b8280600192865181520194019101909261067b565b815160d58201559083019060010161066a565b826b57524f4e475f56414c55455360a01b6064926040519262461bcd60e51b84526004840152600c6024840152820152fd5b8135815260209182019101610646565b503461051c578060031936011261051c57602060f154604051908152f35b503461051c57602036600319011261051c5761074e613adc565b610756615416565b6001600160a01b0390808216801561079d57826107869161078b9460cb5416811415918261078e575b5050613edb565b61546e565b80f35b60cc541614159050388061077f565b60405162461bcd60e51b815260206004820152602660248201527f4f776e61626c653a206e6577206f776e657220697320746865207a65726f206160448201526564647265737360d01b6064820152608490fd5b503461051c578060031936011261051c57602060d354604051908152f35b505061000f613d8a565b503461051c578060031936011261051c57602060dc54604051908152f35b503461051c5761084636613d2b565b60dc549161085583151561468d565b6108608415156146c3565b61086d60da54151561489f565b61087b60d1548210156148e0565b61088b6301e13380821115614926565b68056bc75e2d631000006108b76108b16108ac846108a7614041565b614212565b613eb7565b86613e2f565b046108c86108c3614522565b61454f565b81116108ec576020946108de6108e49583615315565b916149d3565b604051908152f35b60405162461bcd60e51b81526020600482015260156024820152740888aa09ea692a8be9a9ea48abea890829cbe9a82b605b1b6044820152606490fd5b503461051c578060031936011261051c5761078b6143eb565b503461051c57602036600319011261051c5760408160c09260a0835161096781613be6565b82815282602082015282858201528260608201528260808201520152600435815260e96020522060405161099a81613be6565b60018060a01b03825416918282526001810154602083019081526002820154604084019081526003830154916060850192835260a0600560048601549560808801968752015495019485526040519586525160208601525160408501525160608401525160808301525160a0820152f35b905034610b6d576040366003190112610b6d5760043590610a2a613ac6565b60cd546001600160a01b03929083163303610b2d57610a7f610a4e603554866152f1565b610a70610a5d8260de54614714565b8060de55610a69613ff8565b1215614b74565b610a786143eb565b8254614714565b80915560d45412610af857610a968360ee54614714565b60ee55610aa58360ec54614714565b60ec55610ab0614433565b610ab8614383565b610ac7838284606554166154a5565b60405192835216907f17ffe64fb2212f31d60284d6471e06abb7db8d66f0a60f9b884b29f1597d05da60203392a380f35b60405162461bcd60e51b815260206004820152600d60248201526c13505617d11052531657d41393609a1b6044820152606490fd5b60405162461bcd60e51b815260206004820152601860248201527727a7262cafaa2920a224a723afa827262fa420a7222622a960411b6044820152606490fd5b5080fd5b823461051c578060031936011261051c576020670de0b6b3a7640000610ba1610b98613ff8565b60355490613e2f565b04604051908152f35b823461051c57602036600319011261051c576000805160206157eb8339815191526080610bd5613adc565b60cb546001600160a01b0391610c16918316908390610bf5338414613f4d565b1692610c02841515613f15565b609754168314159081610c4d575b50613edb565b8060018060a01b031960cc54161760cc556040519060408252600560408301526430b236b4b760d91b60608301526020820152a180f35b905082141586610c10565b823461051c578060031936011261051c57602060dd54604051908152f35b823461051c57604036600319011261051c57610c90613adc565b6040610c9a613ac6565b9260018060a01b03809316815260346020522091166000526020526020604060002054604051908152f35b823461051c578060031936011261051c57602060d754604051908152f35b823461051c57602036600319011261051c5760206108e4610d02613adc565b6145ce565b823461051c578060031936011261051c5760206108e461413f565b823461051c57602036600319011261051c5760008051602061578b8339815191526080600435610d50615416565b8060d355604051906040825260126040830152716d61784163634f70656e506e6c44656c746160701b60608301526020820152a180f35b823461051c57602036600319011261051c576000805160206157eb8339815191526080610db2613adc565b610dba615416565b6001600160a01b0316610dce811515613f15565b8060018060a01b031960cd54161760cd556040519060408252600a6040830152693837362430b7323632b960b11b60608301526020820152a180f35b823461051c5760206108e4610e1e36613c3f565b90614212565b823461051c57602036600319011261051c5760008051602061578b8339815191526080600435610e5f60018060a01b0360cb54163314613f4d565b610e7468056bc75e2d63100000821015613f88565b8060db556040519060408252601560408301527406d6178446973636f756e745468726573686f6c645605c1b60608301526020820152a180f35b823461051c57602036600319011261051c5760008051602061578b8339815191526080600435610ee960018060a01b0360cb54163314613f4d565b610efe68015af1d78b58c40000821115613fc0565b8060d8556040519060408252600b60408301526a06c6f737365734275726e560ac1b60608301526020820152a180f35b823461051c57602036600319011261051c5760206108e46108c3610d02613adc565b823461051c578060031936011261051c5760c9546040516001600160a01b039091168152602090f35b823461051c57602036600319011261051c5760043560dd548281131561107257610fc090603554918291610fb7670de0b6b3a7640000938492613e2f565b04841115614c2c565b606554610fdb908490309033906001600160a01b03166154df565b80830290838204148315171561105e5761100f91610ff891613e0f565b6110048160de54614c13565b60de5560dd54614c13565b60dd5561101a614bb4565b6110268160f254613ece565b60f2556040519081528160208201527f19aee2c21e4d63823896cb2a77a3e61197dda70b1043a55fca38aa8d75c0edd360403392a280f35b634e487b7160e01b84526011600452602484fd5b60405162461bcd60e51b81526020600482015260186024820152771393d517d55391115497d0d3d3131055115490531256915160421b6044820152606490fd5b50505061000f613d8a565b823461051c57602036600319011261051c576110d7613adc565b5060206108e4614522565b823461051c578060031936011261051c5760206108e4614041565b823461051c57602036600319011261051c5760008051602061578b833981519152608060043561113860018060a01b0360cb54163314613f4d565b61114b66b1a2bc2ec50000821115613fc0565b8060d9556040519060408252601660408301527506d6178476e73537570706c794d696e744461696c79560541b60608301526020820152a180f35b823461051c578060031936011261051c5760206108e4613ff8565b823461051c576111b036613d55565b916111c160dc94929454151561468d565b6111cc8115156146c3565b6111d5836145ce565b81116112275760209360406108e49360018060a01b038616815260e7875281812060e2548252875220611209838254614034565b90556112148261454f565b93849161122183856147ba565b3361518d565b60405162461bcd60e51b815260206004820152601d60248201527f455243343632363a2072656465656d206d6f7265207468616e206d61780000006044820152606490fd5b823461051c57602036600319011261051c57604060c091600435815260e96020522060018060a01b038154169060018101549060028101546003820154906005600484015493015493604051958652602086015260408501526060840152608083015260a0820152f35b823461051c576020908160031936011261051c576001600160401b036004358181116114995761130a903690600401613cc5565b60cb546001600160a01b0392906113249084163314613f4d565b611332838351161515613f15565b848201908151511561146a5761134a84845116613e42565b81518051918211611456576113698261136460d054613b99565b613e7b565b8690601f83116001146113dd5791808798926113cc959460008051602061572b83398151915299926113d2575b50508160011b916000199060031b1c19161760d0555b604051948594828652511690840152516040808401526060830190613b06565b0390a180f35b015190508980611396565b60d087528787209190601f198416885b81811061143f57509260019285926113cc979660008051602061572b8339815191529b9c9610611426575b505050811b0160d0556113ac565b015160001960f88460031b161c19169055898080611418565b92938a6001819287860151815501950193016113ed565b634e487b7160e01b86526041600452602486fd5b60405162461bcd60e51b8152600481018790526007602482015266042595445535f360cc1b6044820152606490fd5b8280fd5b823461051c576114ac36613d55565b9260dc92919254916114bf83151561468d565b6114ca8115156146c3565b6114d66108c3866145ce565b8111611523576020946040946114ef6108e495846152f1565b95869460018060a01b038416815260e7895281812060e2548252895220611517858254614034565b905561122183856147ba565b60405162461bcd60e51b815260206004820152601f60248201527f455243343632363a207769746864726177206d6f7265207468616e206d6178006044820152606490fd5b823461051c57602036600319011261051c5760206108e460043561457e565b823461051c5761159636613d2b565b6115a660dc93929354151561468d565b6115b18215156146c3565b6115be60da54151561489f565b6115cc60d1548410156148e0565b6115dc6301e13380841115614926565b6115e4614522565b821161164a576115f38261457e565b9268056bc75e2d63100000928385029385850414851517156116345760209461162e6108e4956116286108ac866108a7614041565b90613e0f565b906149d3565b634e487b7160e01b600052601160045260246000fd5b60405162461bcd60e51b815260206004820152601260248201527109a929ca8be9a9ea48abea890829cbe9a82b60731b6044820152606490fd5b823461051c578060031936011261051c57602060e154604051908152f35b823461051c57602036600319011261051c5760206108e46116c1613adc565b6142a7565b823461051c576003196101a036820112610b6d576004356001600160401b038111611499576116f9903690600401613ca7565b906024356001600160401b03811161203557611719903690600401613ca7565b936044356001600160401b0381116120315761012080938236030112612031576040519283016001600160401b03811184821017611c035760405261176081600401613af2565b835261176e60248201613af2565b602084015261177f60448201613af2565b604084015261179060648201613af2565b60608401526117a160848201613af2565b60808401526117b260a48201613af2565b60a08401526117c360c48201613af2565b60c08401526117d460e48201613af2565b838301526101048101356001600160401b03811161202d576117fb91369101600401613cc5565b6101008301523660e3121561000f576040519461181786613c01565b85366101041161000f5760c4905b610104821061201d57505084549360ff8560081c161594858096612010575b8015611ff9575b61185490613dac565b60ff198116600117875585611fe8575b5083516001600160a01b0316151580611fd2575b80611fbc575b80611fa6575b80611f87575b80611f68575b80611f52575b80611f3c575b80611f27575b80611f13575b80611f05575b80611eef575b80611ed9575b80611ec5575b80611eb0575b80611e9a575b15611e66576118ea60ff875460081c166118e581614ce0565b614ce0565b8051906001600160401b038211611e52578190611908603654613b99565b601f8111611e15575b50602090601f8311600114611d9f578892611d94575b50508160011b916000199060031b1c1916176036555b8051906001600160401b03821161145657611959603754613b99565b601f8111611d4c575b50602090601f8311600114611cd15791806101009492602096948992611cc6575b50508160011b916000199060031b1c1916176037555b60018060a01b038251166119b760ff885460081c166118e581614ce0565b6119c081615038565b9015611cbe575b606580546001600160a81b03191660a09290921b60ff60a01b169190911791909117905581840151611a01906001600160a01b031661546e565b608082015160c980546001600160a01b03199081166001600160a01b039384161790915560a084015160ca80548316918416919091179055604084015160cb80548316918416919091179055606084015160cc8054831691841691909117905560c084015160cd805483169184169190911790559183015160ce80549093169082161790915591015180519091611a989116613e42565b015180519093906001600160401b038111611caa57611abc8161136460d054613b99565b6020601f8211600114611c395784958293949592611c2e575b50508160011b916000199060031b1c19161760d0555b60643560d15560843560d35560a43560d455825b60028110611c195750506101043560d7556101243560d8556101643560da556101843560db55670de0b6b3a764000060dc55600160e2554260e355604051606081016001600160401b03811182821017611c0357604052600390818152600260208201526001604082015260d2548260d255808310611bdb575b5060d284526000805160206156ab833981519152845b838110611bc4578585611b9f5780f35b61ff0019815416815560008051602061574b833981519152602060405160018152a180f35b600190602060ff8551169401938184015501611b8f565b60d28552611bfd906000805160206156ab833981519152908101908401613e64565b84611b79565b634e487b7160e01b600052604160045260246000fd5b600190602083519301928160d5015501611aff565b015190508580611ad5565b60d08552601f198216956000805160206156eb8339815191529190865b888110611c9257508360019596979810611c79575b505050811b0160d055611aeb565b015160001960f88460031b161c19169055858080611c6b565b91926020600181928685015181550194019201611c56565b634e487b7160e01b84526041600452602484fd5b5060126119c7565b015190508980611983565b603787526000805160206157cb8339815191529190875b601f1985168110611d3457509261010094926001926020979583601f19811610611d1b575b505050811b01603755611999565b015160001960f88460031b161c19169055898080611d0d565b91926020600181928685015181550194019201611ce8565b6037600052611d84906000805160206157cb833981519152601f850160051c81019160208610611d8a575b601f0160051c0190613e64565b87611962565b9091508190611d77565b015190508880611927565b603689528893506000805160206156cb83398151915291905b601f1984168510611dfa576001945083601f19811610611de1575b505050811b0160365561193d565b015160001960f88460031b161c19169055888080611dd3565b81810151835560209485019460019093019290910190611db8565b6036600052611e4c906000805160206156cb833981519152601f850160051c81019160208610611d8a57601f0160051c0190613e64565b89611911565b634e487b7160e01b87526041600452602487fd5b60405162461bcd60e51b815260206004820152600c60248201526b57524f4e475f504152414d5360a01b6044820152606490fd5b5068056bc75e2d631000006101843510156118cc565b50678ac7230489e800006101643511156118c6565b5066b1a2bc2ec500006101443511156118c0565b5068015af1d78b58c400006101243511156118ba565b506802b5e3af16b18800006101043511156118b4565b5060208701518751106118ae565b5067016345785d8a000060a43510156118a8565b50838301516001600160a01b031615156118a2565b5060c08401516001600160a01b0316151561189c565b5060a08401516001600160a01b03161515611896565b50604084015160608501516001600160a01b0390811691161415611890565b50602084015160408501516001600160a01b039081169116141561188a565b5060608401516001600160a01b03161515611884565b5060408401516001600160a01b0316151561187e565b5060208401516001600160a01b03161515611878565b61ffff191661010117865587611864565b50303b15801561184b575060ff811660011461184b565b50600160ff821610611844565b8135815260209182019101611825565b8580fd5b8480fd5b8380fd5b823461051c57604036600319011261051c5761208a90612057613adc565b6120846024359261207d84604061206d336142a7565b9333815260336020522054614034565b10156144e1565b33614d40565b602060405160018152f35b823461051c57604036600319011261051c576004356120b2613ac6565b60ce54604051632e3fbb9960e21b8152602093916001600160a01b03919085908290600490829086165afa908115612262578691612235575b50612201578161212661212b9285169485885260348752604088203360005287526116c16040600020548733149081156121e1575b50614865565b613ece565b828552603384526040852054106121a85761215060e25461214a61413f565b90613ece565b9282855260e7815260408520848652815260408520612170838254613ece565b905560e254906040519283528201527f21b8e5e36008677ea26efbbc967e568e01b127f731ed0fda0a8685fda37d0d5f60403392a480f35b60405162461bcd60e51b81526004810184905260116024820152704d4f52455f5448414e5f42414c414e434560781b6044820152606490fd5b90508481151591826121f6575b50508a612120565b10159050848b6121ee565b60405162461bcd60e51b815260048101859052600c60248201526b08a9c88be9e8cbe8aa09e86960a31b6044820152606490fd5b90508481813d831161225b575b61224c8183613c1c565b8101031261000f5751866120eb565b503d612242565b6040513d88823e3d90fd5b823461051c57606036600319011261051c5760043561228a613ac6565b906044359160018060a01b031690818452602060e78152604085208486528152604085205482116123565782855260348152604085203360005281526122df6040600020548433149081156123365750614865565b82855260e78152604085208486528152604085206122fe838254614034565b905560e254906040519283528201527f443ccdbbbde35bd48740a9ea14c47318b735db4631ed1ebcdaaaa9f4636c84ea60403392a480f35b905083811515918261234b575b505087612120565b101590508388612343565b6064906040519062461bcd60e51b8252600482015260196024820152781353d49157d512105397d5d2551211149055d7d05353d55395603a1b6044820152fd5b905034610b6d576040366003190112610b6d57600435906123b5613ac6565b6065546001600160a01b0392906123d39085903090339087166154df565b83908560dd5412806124df575b6124a6575b670de0b6b3a76400008083029083820414831517156124925761240e61242c9160355490613e0f565b61241a8160de54614c13565b60de556124256143eb565b8254614c13565b905561243a8160ee54614c13565b60ee556124498160ec54614c13565b60ec55612454614433565b61245c614383565b604051938452602084015216907f2083893e39f8ae736fed502f7e149cc5bfe6159878615fae685a9a98bc452d5a60403392a380f35b634e487b7160e01b87526011600452602487fd5b90506124d96064670de0b6b3a76400006124c260d85488613e2f565b04046124d08160ea54613ece565b60ea5585614034565b906123e5565b508560de54126123e0565b823461051c57604036600319011261051c57612504613adc565b60406024359233815260346020522060018060a01b0382166000526020526040600020549180831061253c5761208a92039033614e9e565b60405162461bcd60e51b815260206004820152602560248201527f45524332303a2064656372656173656420616c6c6f77616e63652062656c6f77604482015264207a65726f60d81b6064820152608490fd5b823461051c578060031936011261051c57602060f054604051908152f35b823461051c57602036600319011261051c5760206108e4600435614318565b823461051c57602036600319011261051c576004356125f660018060a01b0360cb54163314613f4d565b678ac7230489e8000081116126485760808160008051602061578b8339815191529260da556040519060408252600c60408301526b06d6178446973636f756e74560a41b60608301526020820152a180f35b60405162461bcd60e51b8152602060048201526012602482015271105093d59157d3505617d11254d0d3d5539560721b6044820152606490fd5b823461051c578060031936011261051c576040516000906037546126a581613b99565b80835260019180831690811561272e57506001146126e6575b6126e2836126ce81870382613c1c565b604051918291602083526020830190613b06565b0390f35b6037600090815260209450916000805160206157cb8339815191525b82841061271b575050508101909101906126ce816126be565b8054858501870152928501928101612702565b6126e295506126ce93506020915091849260ff191682840152151560051b82010193506126be565b823461051c57604036600319011261051c57600435612773613ac6565b61278060dc54151561468d565b61278b8215156146c3565b612793614522565b82116127ba576108e4826127a860209461457e565b80936127b48284614730565b336150b4565b60405162461bcd60e51b815260206004820152601b60248201527a08aa486686c646c7440dad2dce840dadee4ca40e8d0c2dc40dac2f602b1b6044820152606490fd5b823461051c57602036600319011261051c576065546004359061282e908290309033906001600160a01b03166154df565b670de0b6b3a76400008082029082820414821517156128b75761285761285f9160355490613e0f565b60df54613ece565b60df5561286a614bb4565b6128768160ed54613ece565b60ed556128858160eb54613ece565b60eb556040519081527fe34918ff1c7084970068b53fd71ad6d8b04e9f15d3886cbf006443e6cdc52ea660203392a280f35b634e487b7160e01b83526011600452602483fd5b823461051c578060031936011261051c576097546040516001600160a01b039091168152602090f35b823461051c578060031936011261051c57602060f454604051908152f35b823461051c578060031936011261051c57602060df54604051908152f35b823461051c578060031936011261051c57602060db54604051908152f35b823461051c578060031936011261051c5760ca546040516001600160a01b039091168152602090f35b823461051c578060031936011261051c57602060d154604051908152f35b823461051c578060031936011261051c57602060e254604051908152f35b823461051c578060031936011261051c57602060d854604051908152f35b823461051c576129e036613c3f565b60ce549091906001600160a01b03163303612b1e576129ff8183614c13565b92603554612a0b613ff8565b9160de54958693612a2f84612a2a670de0b6b3a7640000978894614c13565b613e2f565b0484612a3d8560d354613e2f565b0480821015612b165750915b5081811315612b0e5750905b82820292828405148215171561163457602095612a78612a7e92612ab4956146f9565b90614714565b8060de55612a8e8260ee54614714565b60ee5560dd55612a9c614bb4565b612aa760e254614298565b60e2554260e35582614714565b60e455612abf614383565b60e2549060e4549260dd54906040519283528583015283604083015260608201527f115621a72d6f59323a1d752b116219634bc004cadb85d6bdc8e7eb254905722d60803392a3604051908152f35b905090612a55565b905091612a49565b60405162461bcd60e51b815260206004820152600d60248201526c13d3931657d4139317d1915151609a1b6044820152606490fd5b823461051c578060031936011261051c57612b6c615416565b609780546001600160a01b031981169091556000906001600160a01b031660008051602061576b8339815191528280a380f35b823461051c57602036600319011261051c576020906040906001600160a01b03612bc7613adc565b168152603383522054604051908152f35b823461051c57602036600319011261051c576004356002811015610b6d5760209060d50154604051908152f35b823461051c57604036600319011261051c57600435612c22613ac6565b9060dc54612c3181151561468d565b612c3c8215156146c3565b612c476108c3614522565b8211612d0657612c579082615315565b9060355460de5460008112600014612cad57506108e491602094612c9283612c8c87612c86819760de54614011565b92613ece565b906146f9565b60de555b612ca28260eb54613ece565b60eb556127b461449c565b600012612cc3575b50816108e491602094612c96565b90612cda60ee5492612cd58486614011565b6146f9565b908180056001148215171561163457602094612cfa85936108e495614714565b60ee5594509150612cb5565b60405162461bcd60e51b815260206004820152601e60248201527f455243343632363a206465706f736974206d6f7265207468616e206d617800006044820152606490fd5b823461051c57604036600319011261051c576020906040906001600160a01b03612d73613adc565b16815260e78352818120602435825283522054604051908152f35b823461051c57602036600319011261051c57600435612dbb8160ea54612db681831115614c2c565b614034565b60ea55612dca8160f154613ece565b60f155606554612de690829033906001600160a01b03166154a5565b6040519081528160208201527f1fb4f167278bb29c47ac4fd58ca1586b0626b52807f2991ef78abdbb97bb433360403392a280f35b823461051c578060031936011261051c57602060ea54604051908152f35b823461051c578060031936011261051c5761078b614383565b823461051c578060031936011261051c57602060e354604051908152f35b823461051c578060031936011261051c57602060f254604051908152f35b905034610b6d5781600319360112610b6d5760209054604051908152f35b823461051c578060031936011261051c57610102815460ff8160081c161580612f1f575b612ed990613dac565b61ffff1916178155612ee961449c565b612ef760ed5460eb54613ece565b60eb5561ff0019815416815560008051602061574b833981519152602060405160028152a180f35b50600260ff821610612ed0565b823461051c578060031936011261051c5760cd546040516001600160a01b039091168152602090f35b823461051c578060031936011261051c5760cf5460405160d05490916001600160a01b031690826000612f8783613b99565b8083526001938085169081156130175750600114612fc9575b50612fad92500383613c1c565b6126e26040519283928352604060208401526040830190613b06565b60d060009081526000805160206156eb83398151915294602093509091905b818310612fff575050612fad935082010185612fa0565b85548884018501529485019487945091830191612fe8565b9050612fad94506020925060ff191682840152151560051b82010185612fa0565b823461051c57602036600319011261051c576000805160206157eb8339815191526080613063613adc565b61306b615416565b6001600160a01b039081169061309a90613086831515613f15565b806097541683141590816130d35750613edb565b8060018060a01b031960cb54161760cb556040519060408252600760408301526636b0b730b3b2b960c91b60608301526020820152a180f35b905060cc541682141586610c10565b823461051c57602036600319011261051c5760008051602061578b833981519152608060043561311d60018060a01b0360cb54163314613f4d565b61313167016345785d8a0000821015613f88565b8060d455604051906040825260136040830152726d61784461696c79416363506e6c44656c746160681b60608301526020820152a180f35b823461051c578060031936011261051c57602060ef54604051908152f35b823461051c578060031936011261051c57602060de54604051908152f35b50505061000f613b46565b823461051c578060031936011261051c5760cb546040516001600160a01b039091168152602090f35b823461051c57602036600319011261051c576131f3613adc565b5060206108e46108c3614522565b823461051c578060031936011261051c5761078b61449c565b823461051c578060031936011261051c57602060d954604051908152f35b823461051c578060031936011261051c57602060d454604051908152f35b823461051c57604036600319011261051c5761208a906040613276613adc565b9133815260346020522060018060a01b0382166000526020526132a0602435604060002054613ece565b9033614e9e565b823461051c578060031936011261051c576065546040516001600160a01b039091168152602090f35b823461051c578060031936011261051c57602060ff60655460a01c16604051908152f35b823461051c578060031936011261051c576020670de0b6b3a7640000610ba160355460dc5490613e2f565b823461051c57606036600319011261051c5761208a9061333d613adc565b613345613ac6565b906133756044359361207d85604061335c866142a7565b6001600160a01b03871685526033602052932054614034565b613380833383614fa0565b614d40565b823461051c578060031936011261051c57602060e654604051908152f35b823461051c578060031936011261051c57602060e854604051908152f35b823461051c57602036600319011261051c576000805160206157eb83398151915260806133ec613adc565b6133f4615416565b6001600160a01b0316613408811515613f15565b8060018060a01b031960ce54161760ce55604051906040825260116040830152701bdc195b951c9859195cd41b9b11995959607a1b60608301526020820152a180f35b50505061000f613b65565b823461051c578060031936011261051c5760cf5460405160d0549183916001600160a01b039091169061348884613b99565b60019480861690811561358e5750600114613550575b508083949503915afa906134b06140d8565b911515036135135760208180518101031261000f576020015180156134da57602090604051908152f35b60405162461bcd60e51b81526020600482015260116024820152700474e535f544f4b454e5f50524943455f3607c1b6044820152606490fd5b60405162461bcd60e51b815260206004820152601560248201527411d394d7d4149250d157d0d0531317d19052531151605a1b6044820152606490fd5b60d0845294506020836000805160206156eb8339815191525b87821061357d57505050938401938061349e565b805484830152908201908601613569565b60ff191683525080151502810194508061349e565b823461051c578060031936011261051c5760ce546040516001600160a01b039091168152602090f35b823461051c578060031936011261051c576020603554604051908152f35b823461051c578060031936011261051c57602060e554604051908152f35b823461051c578060031936011261051c57602060ec54604051908152f35b823461051c578060031936011261051c57602060ee54604051908152f35b823461051c578060031936011261051c57602060ed54604051908152f35b823461051c578060031936011261051c5761078b614433565b823461051c57602036600319011261051c5760206108e460dc546004356152f1565b823461051c57604036600319011261051c5761208a6136ba613adc565b6024359033614e9e565b823461051c578060031936011261051c576040516000906036546136e781613b99565b80835260019180831690811561272e575060011461370f576126e2836126ce81870382613c1c565b6036600090815260209450916000805160206156cb8339815191525b828410613744575050508101909101906126ce816126be565b805485850187015292850192810161372b565b823461051c57604036600319011261051c57600435613774613ac6565b81835260209160e98352604084209160018060a01b03908160ca54166040516331a9108f60e11b81528460048201528681602481855afa8015613a0a57849189916139ed575b501695338714801561398b575b8015613922575b6137d790614865565b6137ea6004870154600588015490613ece565b42106138ef57506003850190876138058354603554906152f1565b91613815610a5d8460de54614714565b803b15610b6d578190602460405180948193630852cd8d60e31b83528b60048401525af180156138e4576138b5575b5060008051602061570b83398151915293929161386661388a9260dd54614714565b60dd55613871614bb4565b61387e815460ee54614714565b60ee555460ef54614034565b60ef5561389c60018601548230614d40565b6138af6040519283921695339583614987565b0390a480f35b9161386661388a92996138d860008051602061570b833981519152979695613bd3565b99925050919293613844565b6040513d8b823e3d90fd5b6064906040519062461bcd60e51b82526004820152600c60248201526b1393d517d5539313d0d2d15160a21b6044820152fd5b5060405163e985e9c560e01b8152600481018890523360248201528181604481865afa80156138e4576137d7918a9161395e575b5090506137ce565b61397e9150833d8511613984575b6139768183613c1c565b810190614b5c565b8a613956565b503d61396c565b5060405163020604bf60e21b8152600481018690528181602481865afa9081156138e45789916139c0575b50841633146137c7565b6139e09150823d84116139e6575b6139d88183613c1c565b810190614b3d565b896139b6565b503d6139ce565b613a049150883d8a116139e6576139d88183613c1c565b896137ba565b6040513d8a823e3d90fd5b823461051c578060031936011261051c57602060f354604051908152f35b839034610b6d5781600319360112610b6d576065546370a0823160e01b8252306004830152602090829060249082906001600160a01b03165afa908115613abb578291613a86575b602082604051908152f35b90506020813d8211613ab3575b81613aa060209383613c1c565b81010312610b6d57602091505182613a7b565b3d9150613a93565b6040513d84823e3d90fd5b602435906001600160a01b038216820361000f57565b600435906001600160a01b038216820361000f57565b35906001600160a01b038216820361000f57565b919082519283825260005b848110613b32575050826000602080949584010152601f8019910116010190565b602081830181015184830182015201613b11565b503461000f57602036600319011261000f5760206108e460043561454f565b503461000f57600036600319011261000f576020670de0b6b3a7640000610ba1610b98613b90613ff8565b60dd5490614c13565b90600182811c92168015613bc9575b6020831014613bb357565b634e487b7160e01b600052602260045260246000fd5b91607f1691613ba8565b6001600160401b038111611c0357604052565b60c081019081106001600160401b03821117611c0357604052565b604081019081106001600160401b03821117611c0357604052565b601f909101601f19168101906001600160401b03821190821017611c0357604052565b604090600319011261000f576004359060243590565b6001600160401b038111611c0357601f01601f191660200190565b929192613c7c82613c55565b91613c8a6040519384613c1c565b82948184528183011161000f578281602093846000960137010152565b9080601f8301121561000f57816020613cc293359101613c70565b90565b919060408382031261000f576040805191906001600160401b0390830181811184821017611c03576040528294613cfb81613af2565b8452602081013591821161000f570181601f8201121561000f576020918183613d2693359101613c70565b910152565b606090600319011261000f5760043590602435906044356001600160a01b038116810361000f5790565b606090600319011261000f57600435906001600160a01b0390602435828116810361000f5791604435908116810361000f5790565b503461000f57602036600319011261000f5760206108e460dc54600435615315565b15613db357565b60405162461bcd60e51b815260206004820152602e60248201527f496e697469616c697a61626c653a20636f6e747261637420697320616c72656160448201526d191e481a5b9a5d1a585b1a5e995960921b6064820152608490fd5b8115613e19570490565b634e487b7160e01b600052601260045260246000fd5b8181029291811591840414171561163457565b60cf80546001600160a01b0319166001600160a01b0392909216919091179055565b818110613e6f575050565b60008155600101613e64565b90601f8211613e88575050565b613eb59160d06000526020600020906020601f840160051c83019310611d8a57601f0160051c0190613e64565b565b9068056bc75e2d6310000091820180921161163457565b9190820180921161163457565b15613ee257565b60405162461bcd60e51b815260206004820152600b60248201526a57524f4e475f56414c554560a81b6044820152606490fd5b15613f1c57565b60405162461bcd60e51b81526020600482015260096024820152680414444524553535f360bc1b6044820152606490fd5b15613f5457565b60405162461bcd60e51b815260206004820152600c60248201526b27a7262cafa6a0a720a3a2a960a11b6044820152606490fd5b15613f8f57565b60405162461bcd60e51b81526020600482015260096024820152682122a627abafa6a4a760b91b6044820152606490fd5b15613fc757565b60405162461bcd60e51b8152602060048201526009602482015268082849eac8abe9a82b60bb1b6044820152606490fd5b60df54670de0b6b3a76400009081018091116116345790565b818102929160008212600160ff1b82141661163457818405149015171561163457565b9190820391821161163457565b614049613ff8565b60dd546000808213156140a057506140619082614034565b905b6064820291808304606414811517156116345768056bc75e2d631000000291808304670de0b6b3a7640000149015171561163457613cc291613e0f565b8181039180830560001914901517156140c457506140be9082613ece565b90614063565b634e487b7160e01b81526011600452602490fd5b3d15614103573d906140e982613c55565b916140f76040519384613c1c565b82523d6000602084013e565b606090565b60d254156141295760d260009081526000805160206156ab83398151915291565b634e487b7160e01b600052603260045260246000fd5b61416361414a614041565b68056bc75e2d631000008082101561420c575080614034565b60d654600091908111156141a857505060d254600210156141295760d26000527ff2192e1030363415d7b4fb0406540a0060e8e2fc8982f3f32289379e11fa65485490565b60d55410156141f95760d254600110156141e55760d290527ff2192e1030363415d7b4fb0406540a0060e8e2fc8982f3f32289379e11fa65475490565b634e487b7160e01b81526032600452602490fd5b50614202614108565b90549060031b1c90565b90614034565b600068056bc75e2d63100000821161423b5750506142376301e133809160da54613e2f565b0490565b60db54918281116142865761425d9061425760da549185614034565b90613e2f565b9068056bc75e2d630fffff1983019283116140c4575091612a2a614237926301e1338094613e0f565b506142379150916301e1338092613e2f565b60001981146116345760010190565b60e254918291600091825b6142ca6142bd614108565b90549060031b1c86613ece565b8611614310576001600160a01b038316845260e7602090815260408086208887529091528420546142ca916143089161430291613ece565b96614298565b9590506142b2565b945092505050565b61432860f3549160f45490614034565b6b1d6329f1c35ca4bfabb9f56160281b8082029291801590840490911417156116345761214a613cc292670de0b6b3a764000061436a60355460dc5490613e2f565b04600181111561437a5790613e0f565b50600190613e0f565b6201518061439360e65442614034565b101561439b57565b7fd103db6eec024592fa6d47db028ec6408076ac4762eb021a6e52b525828bab9b602068056bc75e2d631000006143d960355461425760d754613eb7565b048060e5554260e655604051908152a1565b620151806143fb60e15442614034565b101561440357565b600060e0554260e1557fa047de172c12fcf40e0ff45a86ac45befb232ae644862699ef140a8c5f763b41600080a1565b60008060018060a01b0360ce541660405182602082019163bef35b7960e01b83526004815261446181613c01565b51925af161446d6140d8565b501561447557565b7f46f2d6138acb3be39ad6ae5c9279b648c2a2c68743d0ddc18cc3a81cedecebd5600080a1565b7f9551c7fda0233728a7b7eae3d388b53a068086c3f7d613bdf74e6e58dd6b41ec60206144c7614c69565b6144d081614318565b908160f35560f455604051908152a1565b156144e857565b60405162461bcd60e51b815260206004820152601260248201527114115391125391d7d5d2551211149055d05360721b6044820152606490fd5b600060dd541360001461454957613cc260e55460355480821060001461420c575080614034565b60001990565b60001981148061456a575b613cc25760dc54613cc2916153a2565b50670de0b6b3a764000060dc54101561455a565b6000198114806145ba575b613cc257670de0b6b3a764000060dc546145a381846153a2565b92096145ac5790565b600181018091116116345790565b50670de0b6b3a764000060dc541015614589565b60ce54604051632e3fbb9960e21b81526020926001600160a01b039290919084908290600490829087165afa90811561468157600091614654575b5060009061464d57501660005260e7815260406000209060e2546000525260406000205460355460001981019081116116345780821015614648575090565b905090565b9250505090565b908482813d831161467a575b61466a8183613c1c565b8101031261051c57505138614609565b503d614660565b6040513d6000823e3d90fd5b1561469457565b60405162461bcd60e51b8152602060048201526007602482015266050524943455f360cc1b6044820152606490fd5b156146ca57565b60405162461bcd60e51b8152602060048201526007602482015266056414c55455f360cc1b6044820152606490fd5b8115613e1957600160ff1b8114600019831416611634570590565b9190916000838201938412911290801582169115161761163457565b9060355460de5460008112600014614771575080612c8c61476694612c8661475a9460de54614011565b60de555b60eb54613ece565b60eb55613eb561449c565b600012614784575b50614766915061475e565b61479590612cd560ee548095614011565b918280056001148315171561163457614766926147b191614714565b60ee5538614779565b6000906035548260de5481811260001461482057505090816147e16147f19360de54614011565b91841561481757612c8c91613ece565b60de555b15614806576147669060eb54613ece565b6148129060eb54614034565b614766565b612c8c91614034565b1361482d575b50506147f5565b61483e90612cd560ee548094614011565b806000039080820560001914901517156116345761485b91614714565b60ee553880614826565b1561486c57565b60405162461bcd60e51b815260206004820152600b60248201526a1393d517d0531313d5d15160aa1b6044820152606490fd5b156148a657565b60405162461bcd60e51b81526020600482015260126024820152711393d7d050d512559157d11254d0d3d5539560721b6044820152606490fd5b156148e757565b60405162461bcd60e51b81526020600482015260176024820152762122a627abafa6a4a72fa627a1a5afa22aa920aa24a7a760491b6044820152606490fd5b1561492d57565b60405162461bcd60e51b815260206004820152601760248201527620a127ab22afa6a0ac2fa627a1a5afa22aa920aa24a7a760491b6044820152606490fd5b6001600160a01b039091168152602081019190915260400190565b90815281546001600160a01b03166020820152600182015460408201526002820154606082015260038201546080820152600482015460a082015260059091015460c082015260e00190565b939291909283851115614b0a57614a6d6149fc856149f260e854614298565b978860e855614034565b614a5660009488865260e9602052604086209760018060a01b039788871660018060a01b03198b5416178a558260018b01558160028b01558460038b01554260048b015560058a0155614a4f8183614730565b30336150b4565b614a628160f054613ece565b60f05560ef54613ece565b60ef558260ca541690813b156114995791858192614aa294836040518097819582946340c10f1960e01b84526004840161496c565b03925af1908115614afe5750614aef575b50815416907f5d26cdffbd8401ba2a961d2094f7f008ee7bd735ac02a949721ee0fd0f0d5afc60405180614ae933948783614987565b0390a390565b614af890613bd3565b38614ab3565b604051903d90823e3d90fd5b60405162461bcd60e51b815260206004820152600b60248201526a1393d7d11254d0d3d5539560aa1b6044820152606490fd5b9081602091031261000f57516001600160a01b038116810361000f5790565b9081602091031261000f5751801515810361000f5790565b15614b7b57565b60405162461bcd60e51b81526020600482015260116024820152704e4f545f454e4f5547485f41535345545360781b6044820152606490fd5b614bbc61449c565b7f547c25b7a5677a006ff044a0e4b5e699598339825e7b42d3dc645117ceee80506020614bfe614bea613ff8565b60dd54600080821315614c0b575090614034565b8060dc55604051908152a1565b905090614034565b8181039291600013801582851316918412161761163457565b15614c3357565b60405162461bcd60e51b815260206004820152600e60248201526d414d4f554e545f544f4f5f42494760901b6044820152606490fd5b61a4b146148015614cd4575b614c7d574390565b60405163a3b1b31d60e01b815260208160048160645afa90811561468157600091614ca6575090565b906020823d8211614ccc575b81614cbf60209383613c1c565b8101031261051c57505190565b3d9150614cb2565b5062066eed4614614c75565b15614ce757565b60405162461bcd60e51b815260206004820152602b60248201527f496e697469616c697a61626c653a20636f6e7472616374206973206e6f74206960448201526a6e697469616c697a696e6760a81b6064820152608490fd5b6001600160a01b03908116918215614e4b5716918215614dfa5760008281526033602052604081205491808310614da657604082826000805160206157ab83398151915295876020965260338652038282205586815220818154019055604051908152a3565b60405162461bcd60e51b815260206004820152602660248201527f45524332303a207472616e7366657220616d6f756e7420657863656564732062604482015265616c616e636560d01b6064820152608490fd5b60405162461bcd60e51b815260206004820152602360248201527f45524332303a207472616e7366657220746f20746865207a65726f206164647260448201526265737360e81b6064820152608490fd5b60405162461bcd60e51b815260206004820152602560248201527f45524332303a207472616e736665722066726f6d20746865207a65726f206164604482015264647265737360d81b6064820152608490fd5b6001600160a01b03908116918215614f4f5716918215614eff5760207f8c5be1e5ebec7d5bd14f71427d1e84f3dd0314c0f7b2291e5b200ac8c7c3b925918360005260348252604060002085600052825280604060002055604051908152a3565b60405162461bcd60e51b815260206004820152602260248201527f45524332303a20617070726f766520746f20746865207a65726f206164647265604482015261737360f01b6064820152608490fd5b60405162461bcd60e51b8152602060048201526024808201527f45524332303a20617070726f76652066726f6d20746865207a65726f206164646044820152637265737360e01b6064820152608490fd5b9060018060a01b0380831660005260346020526040600020908216600052602052604060002054926000198403614fd8575b50505050565b808410614ff357614fea930391614e9e565b38808080614fd2565b60405162461bcd60e51b815260206004820152601d60248201527f45524332303a20696e73756666696369656e7420616c6c6f77616e63650000006044820152606490fd5b90604051602081019063313ce56760e01b82526004815261505881613c01565b5160009384928392916001600160a01b03165afa6150746140d8565b90806150a8575b615085575b508190565b602081805181010312611499576020015160ff8111615080576001925060ff1690565b5060208151101561507b565b909260018060a01b0380946150d08583606554168630916154df565b16938415615148577fdcbc1c05240f31ff3ad067ef1ee35ce4997762752e3a095284754544f4c709d79282615109604094603554613ece565b603555866000526033602052836000208181540190558660006000805160206157ab83398151915260208751858152a3835195865260208601521692a3565b60405162461bcd60e51b815260206004820152601f60248201527f45524332303a206d696e7420746f20746865207a65726f2061646472657373006044820152606490fd5b6001600160a01b0380841695818316949093919284908887036152e0575b50505085156152915785600052603360205260409283600020548181106152425790807ffbde797d201c681b91056529119e0b02407c7bb96a4a2c75c01fc9667232c8db9594939289600052603360205203846000205580603554036035556000886000805160206157ab83398151915260208751858152a3615233878385606554166154a5565b835196875260208701521693a4565b845162461bcd60e51b815260206004820152602260248201527f45524332303a206275726e20616d6f756e7420657863656564732062616c616e604482015261636560f01b6064820152608490fd5b60405162461bcd60e51b815260206004820152602160248201527f45524332303a206275726e2066726f6d20746865207a65726f206164647265736044820152607360f81b6064820152608490fd5b6152e992614fa0565b3883816151ab565b906152fc8183615315565b918115613e1957670de0b6b3a764000090096145ac5790565b90670de0b6b3a7640000906000198284099282810292838086109503948086039514615395578483111561000f578291096001821901821680920460028082600302188083028203028083028203028083028203028083028203028083028203028092029003029360018380600003040190848311900302920304170290565b505090613cc29250613e0f565b906000198183098183029182808310920391808303921461540557670de0b6b3a7640000908282111561000f577faccb18165bd6fe31ae1cf318dc5b51eee0e1ba569b88cd74c1773b91fac10669940990828211900360ee1b910360121c170290565b5050670de0b6b3a764000091500490565b6097546001600160a01b0316330361542a57565b606460405162461bcd60e51b815260206004820152602060248201527f4f776e61626c653a2063616c6c6572206973206e6f7420746865206f776e65726044820152fd5b609780546001600160a01b039283166001600160a01b03198216811790925590911660008051602061576b833981519152600080a3565b6154da613eb593926154cc60405194859263a9059cbb60e01b60208501526024840161496c565b03601f198101845283613c1c565b615533565b6040516323b872dd60e01b60208201526001600160a01b03928316602482015292909116604483015260648083019390935291815260a08101918183106001600160401b03841117611c0357613eb5926040525b604051615591916001600160a01b031661554c82613c01565b6000806020958685527f5361666545524332303a206c6f772d6c6576656c2063616c6c206661696c656487860152868151910182855af161558b6140d8565b9161560d565b8051908161559e57505050565b82806155ae938301019101614b5c565b156155b65750565b6084906040519062461bcd60e51b82526004820152602a60248201527f5361666545524332303a204552433230206f7065726174696f6e20646964206e6044820152691bdd081cdd58d8d9595960b21b6064820152fd5b9192901561566f5750815115615621575090565b3b1561562a5790565b60405162461bcd60e51b815260206004820152601d60248201527f416464726573733a2063616c6c20746f206e6f6e2d636f6e74726163740000006044820152606490fd5b8251909150156156825750805190602001fd5b60405162461bcd60e51b8152602060048201529081906156a6906024830190613b06565b0390fdfef2192e1030363415d7b4fb0406540a0060e8e2fc8982f3f32289379e11fa65464a11f94e20a93c79f6ec743a1954ec4fc2c08429ae2122118bf234b2185c81b8e89d44c8fd6a9bac8af33ce47f56337617d449bf7ff3956b618c646de829cbcbe37405a4f414fe3119839681cc26ea3462fc575fd2f81734417e52144d3f34b92763c7adb1b7018e25499ef5553ec78e35bb46be6384b393861c35d501825dce7f26b83ff96e1f2b6a682f133852f6798a09c465da95921460cefb38474024988be0079c531659141344cd1fd0a4f28419497f9722a3daafe3b4186f6b6457e0127735ae9d047cae55da37db2c8ee184c735aacd68cef068d4e70be6a41661d9ddf252ad1be2c89b69c2b068fc378daa952ba7f163c4a11628f55a4df523b3ef42a7b7dd785cd69714a189dffb3fd7d7174edc9ece837694ce50f7078f7c31ae60f89fdb372abe626eac485ef96b2a09f1cfbd7f225dd1e2b491a2b4069c2376a164736f6c6343000811000a",
  "libraries": {},
  "devdoc": {
    "kind": "dev",
    "methods": {
      "allowance(address,address)": {
        "details": "See {IERC20-allowance}."
      },
      "approve(address,uint256)": {
        "details": "See {IERC20-approve}. NOTE: If `amount` is the maximum `uint256`, the allowance is not updated on `transferFrom`. This is semantically equivalent to an infinite approval. Requirements: - `spender` cannot be the zero address."
      },
      "asset()": {
        "details": "See {IERC4626-asset}. "
      },
      "balanceOf(address)": {
        "details": "See {IERC20-balanceOf}."
      },
      "convertToAssets(uint256)": {
        "details": "See {IERC4626-convertToAssets}. "
      },
      "convertToShares(uint256)": {
        "details": "See {IERC4626-convertToShares}. "
      },
      "decreaseAllowance(address,uint256)": {
        "details": "Atomically decreases the allowance granted to `spender` by the caller. This is an alternative to {approve} that can be used as a mitigation for problems described in {IERC20-approve}. Emits an {Approval} event indicating the updated allowance. Requirements: - `spender` cannot be the zero address. - `spender` must have allowance for the caller of at least `subtractedValue`."
      },
      "deposit(uint256,address)": {
        "details": "See {IERC4626-deposit}. "
      },
      "increaseAllowance(address,uint256)": {
        "details": "Atomically increases the allowance granted to `spender` by the caller. This is an alternative to {approve} that can be used as a mitigation for problems described in {IERC20-approve}. Emits an {Approval} event indicating the updated allowance. Requirements: - `spender` cannot be the zero address."
      },
      "maxMint(address)": {
        "details": "See {IERC4626-maxMint}. "
      },
      "maxRedeem(address)": {
        "details": "See {IERC4626-maxRedeem}. "
      },
      "maxWithdraw(address)": {
        "details": "See {IERC4626-maxWithdraw}. "
      },
      "mint(uint256,address)": {
        "details": "See {IERC4626-mint}. As opposed to {deposit}, minting is allowed even if the vault is in a state where the price of a share is zero. In this case, the shares will be minted without requiring any assets to be deposited."
      },
      "name()": {
        "details": "Returns the name of the token."
      },
      "owner()": {
        "details": "Returns the address of the current owner."
      },
      "previewDeposit(uint256)": {
        "details": "See {IERC4626-previewDeposit}. "
      },
      "previewMint(uint256)": {
        "details": "See {IERC4626-previewMint}. "
      },
      "previewRedeem(uint256)": {
        "details": "See {IERC4626-previewRedeem}. "
      },
      "previewWithdraw(uint256)": {
        "details": "See {IERC4626-previewWithdraw}. "
      },
      "redeem(uint256,address,address)": {
        "details": "See {IERC4626-redeem}. "
      },
      "renounceOwnership()": {
        "details": "Leaves the contract without owner. It will not be possible to call `onlyOwner` functions anymore. Can only be called by the current owner. NOTE: Renouncing ownership will leave the contract without an owner, thereby removing any functionality that is only available to the owner."
      },
      "symbol()": {
        "details": "Returns the symbol of the token, usually a shorter version of the name."
      },
      "totalAssets()": {
        "details": "See {IERC4626-totalAssets}. "
      },
      "totalSupply()": {
        "details": "See {IERC20-totalSupply}."
      },
      "transferOwnership(address)": {
        "details": "Transfers ownership of the contract to a new account (`newOwner`). Can only be called by the current owner."
      },
      "withdraw(uint256,address,address)": {
        "details": "See {IERC4626-withdraw}. "
      }
    },
    "version": 1
  },
  "userdoc": {
    "kind": "user",
    "methods": {},
    "version": 1
  },
  "storageLayout": {
    "storage": [
      {
        "astId": 37290,
        "contract": "contracts/contracts/GTokenV6_3_2.sol:GTokenV6_3_2",
        "label": "_initialized",
        "offset": 0,
        "slot": "0",
        "type": "t_uint8"
      },
      {
        "astId": 37293,
        "contract": "contracts/contracts/GTokenV6_3_2.sol:GTokenV6_3_2",
        "label": "_initializing",
        "offset": 1,
        "slot": "0",
        "type": "t_bool"
      },
      {
        "astId": 38651,
        "contract": "contracts/contracts/GTokenV6_3_2.sol:GTokenV6_3_2",
        "label": "__gap",
        "offset": 0,
        "slot": "1",
        "type": "t_array(t_uint256)50_storage"
      },
      {
        "astId": 38695,
        "contract": "contracts/contracts/GTokenV6_3_2.sol:GTokenV6_3_2",
        "label": "_balances",
        "offset": 0,
        "slot": "51",
        "type": "t_mapping(t_address,t_uint256)"
      },
      {
        "astId": 38701,
        "contract": "contracts/contracts/GTokenV6_3_2.sol:GTokenV6_3_2",
        "label": "_allowances",
        "offset": 0,
        "slot": "52",
        "type": "t_mapping(t_address,t_mapping(t_address,t_uint256))"
      },
      {
        "astId": 38703,
        "contract": "contracts/contracts/GTokenV6_3_2.sol:GTokenV6_3_2",
        "label": "_totalSupply",
        "offset": 0,
        "slot": "53",
        "type": "t_uint256"
      },
      {
        "astId": 38705,
        "contract": "contracts/contracts/GTokenV6_3_2.sol:GTokenV6_3_2",
        "label": "_name",
        "offset": 0,
        "slot": "54",
        "type": "t_string_storage"
      },
      {
        "astId": 38707,
        "contract": "contracts/contracts/GTokenV6_3_2.sol:GTokenV6_3_2",
        "label": "_symbol",
        "offset": 0,
        "slot": "55",
        "type": "t_string_storage"
      },
      {
        "astId": 39287,
        "contract": "contracts/contracts/GTokenV6_3_2.sol:GTokenV6_3_2",
        "label": "__gap",
        "offset": 0,
        "slot": "56",
        "type": "t_array(t_uint256)45_storage"
      },
      {
        "astId": 39308,
        "contract": "contracts/contracts/GTokenV6_3_2.sol:GTokenV6_3_2",
        "label": "_asset",
        "offset": 0,
        "slot": "101",
        "type": "t_contract(IERC20Upgradeable)40722"
      },
      {
        "astId": 39310,
        "contract": "contracts/contracts/GTokenV6_3_2.sol:GTokenV6_3_2",
        "label": "_decimals",
        "offset": 20,
        "slot": "101",
        "type": "t_uint8"
      },
      {
        "astId": 39993,
        "contract": "contracts/contracts/GTokenV6_3_2.sol:GTokenV6_3_2",
        "label": "__gap",
        "offset": 0,
        "slot": "102",
        "type": "t_array(t_uint256)49_storage"
      },
      {
        "astId": 41766,
        "contract": "contracts/contracts/GTokenV6_3_2.sol:GTokenV6_3_2",
        "label": "_owner",
        "offset": 0,
        "slot": "151",
        "type": "t_address"
      },
      {
        "astId": 41886,
        "contract": "contracts/contracts/GTokenV6_3_2.sol:GTokenV6_3_2",
        "label": "__gap",
        "offset": 0,
        "slot": "152",
        "type": "t_array(t_uint256)49_storage"
      },
      {
        "astId": 31047,
        "contract": "contracts/contracts/GTokenV6_3_2.sol:GTokenV6_3_2",
        "label": "gnsToken",
        "offset": 0,
        "slot": "201",
        "type": "t_address"
      },
      {
        "astId": 31050,
        "contract": "contracts/contracts/GTokenV6_3_2.sol:GTokenV6_3_2",
        "label": "lockedDepositNft",
        "offset": 0,
        "slot": "202",
        "type": "t_contract(INft)35738"
      },
      {
        "astId": 31053,
        "contract": "contracts/contracts/GTokenV6_3_2.sol:GTokenV6_3_2",
        "label": "manager",
        "offset": 0,
        "slot": "203",
        "type": "t_address"
      },
      {
        "astId": 31056,
        "contract": "contracts/contracts/GTokenV6_3_2.sol:GTokenV6_3_2",
        "label": "admin",
        "offset": 0,
        "slot": "204",
        "type": "t_address"
      },
      {
        "astId": 31058,
        "contract": "contracts/contracts/GTokenV6_3_2.sol:GTokenV6_3_2",
        "label": "pnlHandler",
        "offset": 0,
        "slot": "205",
        "type": "t_address"
      },
      {
        "astId": 31061,
        "contract": "contracts/contracts/GTokenV6_3_2.sol:GTokenV6_3_2",
        "label": "openTradesPnlFeed",
        "offset": 0,
        "slot": "206",
        "type": "t_contract(IOpenTradesPnlFeed)35749"
      },
      {
        "astId": 31064,
        "contract": "contracts/contracts/GTokenV6_3_2.sol:GTokenV6_3_2",
        "label": "gnsPriceProvider",
        "offset": 0,
        "slot": "207",
        "type": "t_struct(GnsPriceProvider)31069_storage"
      },
      {
        "astId": 31105,
        "contract": "contracts/contracts/GTokenV6_3_2.sol:GTokenV6_3_2",
        "label": "MIN_LOCK_DURATION",
        "offset": 0,
        "slot": "209",
        "type": "t_uint256"
      },
      {
        "astId": 31111,
        "contract": "contracts/contracts/GTokenV6_3_2.sol:GTokenV6_3_2",
        "label": "WITHDRAW_EPOCHS_LOCKS",
        "offset": 0,
        "slot": "210",
        "type": "t_array(t_uint256)dyn_storage"
      },
      {
        "astId": 31113,
        "contract": "contracts/contracts/GTokenV6_3_2.sol:GTokenV6_3_2",
        "label": "maxAccOpenPnlDelta",
        "offset": 0,
        "slot": "211",
        "type": "t_uint256"
      },
      {
        "astId": 31115,
        "contract": "contracts/contracts/GTokenV6_3_2.sol:GTokenV6_3_2",
        "label": "maxDailyAccPnlDelta",
        "offset": 0,
        "slot": "212",
        "type": "t_uint256"
      },
      {
        "astId": 31119,
        "contract": "contracts/contracts/GTokenV6_3_2.sol:GTokenV6_3_2",
        "label": "withdrawLockThresholdsP",
        "offset": 0,
        "slot": "213",
        "type": "t_array(t_uint256)2_storage"
      },
      {
        "astId": 31121,
        "contract": "contracts/contracts/GTokenV6_3_2.sol:GTokenV6_3_2",
        "label": "maxSupplyIncreaseDailyP",
        "offset": 0,
        "slot": "215",
        "type": "t_uint256"
      },
      {
        "astId": 31123,
        "contract": "contracts/contracts/GTokenV6_3_2.sol:GTokenV6_3_2",
        "label": "lossesBurnP",
        "offset": 0,
        "slot": "216",
        "type": "t_uint256"
      },
      {
        "astId": 31125,
        "contract": "contracts/contracts/GTokenV6_3_2.sol:GTokenV6_3_2",
        "label": "maxGnsSupplyMintDailyP",
        "offset": 0,
        "slot": "217",
        "type": "t_uint256"
      },
      {
        "astId": 31127,
        "contract": "contracts/contracts/GTokenV6_3_2.sol:GTokenV6_3_2",
        "label": "maxDiscountP",
        "offset": 0,
        "slot": "218",
        "type": "t_uint256"
      },
      {
        "astId": 31129,
        "contract": "contracts/contracts/GTokenV6_3_2.sol:GTokenV6_3_2",
        "label": "maxDiscountThresholdP",
        "offset": 0,
        "slot": "219",
        "type": "t_uint256"
      },
      {
        "astId": 31131,
        "contract": "contracts/contracts/GTokenV6_3_2.sol:GTokenV6_3_2",
        "label": "shareToAssetsPrice",
        "offset": 0,
        "slot": "220",
        "type": "t_uint256"
      },
      {
        "astId": 31133,
        "contract": "contracts/contracts/GTokenV6_3_2.sol:GTokenV6_3_2",
        "label": "accPnlPerTokenUsed",
        "offset": 0,
        "slot": "221",
        "type": "t_int256"
      },
      {
        "astId": 31135,
        "contract": "contracts/contracts/GTokenV6_3_2.sol:GTokenV6_3_2",
        "label": "accPnlPerToken",
        "offset": 0,
        "slot": "222",
        "type": "t_int256"
      },
      {
        "astId": 31137,
        "contract": "contracts/contracts/GTokenV6_3_2.sol:GTokenV6_3_2",
        "label": "accRewardsPerToken",
        "offset": 0,
        "slot": "223",
        "type": "t_uint256"
      },
      {
        "astId": 31139,
        "contract": "contracts/contracts/GTokenV6_3_2.sol:GTokenV6_3_2",
        "label": "dailyAccPnlDelta",
        "offset": 0,
        "slot": "224",
        "type": "t_int256"
      },
      {
        "astId": 31141,
        "contract": "contracts/contracts/GTokenV6_3_2.sol:GTokenV6_3_2",
        "label": "lastDailyAccPnlDeltaReset",
        "offset": 0,
        "slot": "225",
        "type": "t_uint256"
      },
      {
        "astId": 31144,
        "contract": "contracts/contracts/GTokenV6_3_2.sol:GTokenV6_3_2",
        "label": "currentEpoch",
        "offset": 0,
        "slot": "226",
        "type": "t_uint256"
      },
      {
        "astId": 31147,
        "contract": "contracts/contracts/GTokenV6_3_2.sol:GTokenV6_3_2",
        "label": "currentEpochStart",
        "offset": 0,
        "slot": "227",
        "type": "t_uint256"
      },
      {
        "astId": 31150,
        "contract": "contracts/contracts/GTokenV6_3_2.sol:GTokenV6_3_2",
        "label": "currentEpochPositiveOpenPnl",
        "offset": 0,
        "slot": "228",
        "type": "t_uint256"
      },
      {
        "astId": 31152,
        "contract": "contracts/contracts/GTokenV6_3_2.sol:GTokenV6_3_2",
        "label": "currentMaxSupply",
        "offset": 0,
        "slot": "229",
        "type": "t_uint256"
      },
      {
        "astId": 31154,
        "contract": "contracts/contracts/GTokenV6_3_2.sol:GTokenV6_3_2",
        "label": "lastMaxSupplyUpdate",
        "offset": 0,
        "slot": "230",
        "type": "t_uint256"
      },
      {
        "astId": 31160,
        "contract": "contracts/contracts/GTokenV6_3_2.sol:GTokenV6_3_2",
        "label": "withdrawRequests",
        "offset": 0,
        "slot": "231",
        "type": "t_mapping(t_address,t_mapping(t_uint256,t_uint256))"
      },
      {
        "astId": 31162,
        "contract": "contracts/contracts/GTokenV6_3_2.sol:GTokenV6_3_2",
        "label": "lockedDepositsCount",
        "offset": 0,
        "slot": "232",
        "type": "t_uint256"
      },
      {
        "astId": 31167,
        "contract": "contracts/contracts/GTokenV6_3_2.sol:GTokenV6_3_2",
        "label": "lockedDeposits",
        "offset": 0,
        "slot": "233",
        "type": "t_mapping(t_uint256,t_struct(LockedDeposit)35631_storage)"
      },
      {
        "astId": 31169,
        "contract": "contracts/contracts/GTokenV6_3_2.sol:GTokenV6_3_2",
        "label": "assetsToDeplete",
        "offset": 0,
        "slot": "234",
        "type": "t_uint256"
      },
      {
        "astId": 31171,
        "contract": "contracts/contracts/GTokenV6_3_2.sol:GTokenV6_3_2",
        "label": "totalDeposited",
        "offset": 0,
        "slot": "235",
        "type": "t_uint256"
      },
      {
        "astId": 31173,
        "contract": "contracts/contracts/GTokenV6_3_2.sol:GTokenV6_3_2",
        "label": "totalClosedPnl",
        "offset": 0,
        "slot": "236",
        "type": "t_int256"
      },
      {
        "astId": 31175,
        "contract": "contracts/contracts/GTokenV6_3_2.sol:GTokenV6_3_2",
        "label": "totalRewards",
        "offset": 0,
        "slot": "237",
        "type": "t_uint256"
      },
      {
        "astId": 31177,
        "contract": "contracts/contracts/GTokenV6_3_2.sol:GTokenV6_3_2",
        "label": "totalLiability",
        "offset": 0,
        "slot": "238",
        "type": "t_int256"
      },
      {
        "astId": 31179,
        "contract": "contracts/contracts/GTokenV6_3_2.sol:GTokenV6_3_2",
        "label": "totalLockedDiscounts",
        "offset": 0,
        "slot": "239",
        "type": "t_uint256"
      },
      {
        "astId": 31181,
        "contract": "contracts/contracts/GTokenV6_3_2.sol:GTokenV6_3_2",
        "label": "totalDiscounts",
        "offset": 0,
        "slot": "240",
        "type": "t_uint256"
      },
      {
        "astId": 31183,
        "contract": "contracts/contracts/GTokenV6_3_2.sol:GTokenV6_3_2",
        "label": "totalDepleted",
        "offset": 0,
        "slot": "241",
        "type": "t_uint256"
      },
      {
        "astId": 31185,
        "contract": "contracts/contracts/GTokenV6_3_2.sol:GTokenV6_3_2",
        "label": "totalRefilled",
        "offset": 0,
        "slot": "242",
        "type": "t_uint256"
      },
      {
        "astId": 31187,
        "contract": "contracts/contracts/GTokenV6_3_2.sol:GTokenV6_3_2",
        "label": "accBlockWeightedMarketCap",
        "offset": 0,
        "slot": "243",
        "type": "t_uint256"
      },
      {
        "astId": 31189,
        "contract": "contracts/contracts/GTokenV6_3_2.sol:GTokenV6_3_2",
        "label": "accBlockWeightedMarketCapLastStored",
        "offset": 0,
        "slot": "244",
        "type": "t_uint256"
      }
    ],
    "types": {
      "t_address": {
        "encoding": "inplace",
        "label": "address",
        "numberOfBytes": "20"
      },
      "t_array(t_uint256)2_storage": {
        "base": "t_uint256",
        "encoding": "inplace",
        "label": "uint256[2]",
        "numberOfBytes": "64"
      },
      "t_array(t_uint256)45_storage": {
        "base": "t_uint256",
        "encoding": "inplace",
        "label": "uint256[45]",
        "numberOfBytes": "1440"
      },
      "t_array(t_uint256)49_storage": {
        "base": "t_uint256",
        "encoding": "inplace",
        "label": "uint256[49]",
        "numberOfBytes": "1568"
      },
      "t_array(t_uint256)50_storage": {
        "base": "t_uint256",
        "encoding": "inplace",
        "label": "uint256[50]",
        "numberOfBytes": "1600"
      },
      "t_array(t_uint256)dyn_storage": {
        "base": "t_uint256",
        "encoding": "dynamic_array",
        "label": "uint256[]",
        "numberOfBytes": "32"
      },
      "t_bool": {
        "encoding": "inplace",
        "label": "bool",
        "numberOfBytes": "1"
      },
      "t_bytes_storage": {
        "encoding": "bytes",
        "label": "bytes",
        "numberOfBytes": "32"
      },
      "t_contract(IERC20Upgradeable)40722": {
        "encoding": "inplace",
        "label": "contract IERC20Upgradeable",
        "numberOfBytes": "20"
      },
      "t_contract(INft)35738": {
        "encoding": "inplace",
        "label": "contract INft",
        "numberOfBytes": "20"
      },
      "t_contract(IOpenTradesPnlFeed)35749": {
        "encoding": "inplace",
        "label": "contract IOpenTradesPnlFeed",
        "numberOfBytes": "20"
      },
      "t_int256": {
        "encoding": "inplace",
        "label": "int256",
        "numberOfBytes": "32"
      },
      "t_mapping(t_address,t_mapping(t_address,t_uint256))": {
        "encoding": "mapping",
        "key": "t_address",
        "label": "mapping(address => mapping(address => uint256))",
        "numberOfBytes": "32",
        "value": "t_mapping(t_address,t_uint256)"
      },
      "t_mapping(t_address,t_mapping(t_uint256,t_uint256))": {
        "encoding": "mapping",
        "key": "t_address",
        "label": "mapping(address => mapping(uint256 => uint256))",
        "numberOfBytes": "32",
        "value": "t_mapping(t_uint256,t_uint256)"
      },
      "t_mapping(t_address,t_uint256)": {
        "encoding": "mapping",
        "key": "t_address",
        "label": "mapping(address => uint256)",
        "numberOfBytes": "32",
        "value": "t_uint256"
      },
      "t_mapping(t_uint256,t_struct(LockedDeposit)35631_storage)": {
        "encoding": "mapping",
        "key": "t_uint256",
        "label": "mapping(uint256 => struct IGToken.LockedDeposit)",
        "numberOfBytes": "32",
        "value": "t_struct(LockedDeposit)35631_storage"
      },
      "t_mapping(t_uint256,t_uint256)": {
        "encoding": "mapping",
        "key": "t_uint256",
        "label": "mapping(uint256 => uint256)",
        "numberOfBytes": "32",
        "value": "t_uint256"
      },
      "t_string_storage": {
        "encoding": "bytes",
        "label": "string",
        "numberOfBytes": "32"
      },
      "t_struct(GnsPriceProvider)31069_storage": {
        "encoding": "inplace",
        "label": "struct GTokenV6_3_2.GnsPriceProvider",
        "members": [
          {
            "astId": 31066,
            "contract": "contracts/contracts/GTokenV6_3_2.sol:GTokenV6_3_2",
            "label": "addr",
            "offset": 0,
            "slot": "0",
            "type": "t_address"
          },
          {
            "astId": 31068,
            "contract": "contracts/contracts/GTokenV6_3_2.sol:GTokenV6_3_2",
            "label": "signature",
            "offset": 0,
            "slot": "1",
            "type": "t_bytes_storage"
          }
        ],
        "numberOfBytes": "64"
      },
      "t_struct(LockedDeposit)35631_storage": {
        "encoding": "inplace",
        "label": "struct IGToken.LockedDeposit",
        "members": [
          {
            "astId": 35620,
            "contract": "contracts/contracts/GTokenV6_3_2.sol:GTokenV6_3_2",
            "label": "owner",
            "offset": 0,
            "slot": "0",
            "type": "t_address"
          },
          {
            "astId": 35622,
            "contract": "contracts/contracts/GTokenV6_3_2.sol:GTokenV6_3_2",
            "label": "shares",
            "offset": 0,
            "slot": "1",
            "type": "t_uint256"
          },
          {
            "astId": 35624,
            "contract": "contracts/contracts/GTokenV6_3_2.sol:GTokenV6_3_2",
            "label": "assetsDeposited",
            "offset": 0,
            "slot": "2",
            "type": "t_uint256"
          },
          {
            "astId": 35626,
            "contract": "contracts/contracts/GTokenV6_3_2.sol:GTokenV6_3_2",
            "label": "assetsDiscount",
            "offset": 0,
            "slot": "3",
            "type": "t_uint256"
          },
          {
            "astId": 35628,
            "contract": "contracts/contracts/GTokenV6_3_2.sol:GTokenV6_3_2",
            "label": "atTimestamp",
            "offset": 0,
            "slot": "4",
            "type": "t_uint256"
          },
          {
            "astId": 35630,
            "contract": "contracts/contracts/GTokenV6_3_2.sol:GTokenV6_3_2",
            "label": "lockDuration",
            "offset": 0,
            "slot": "5",
            "type": "t_uint256"
          }
        ],
        "numberOfBytes": "192"
      },
      "t_uint256": {
        "encoding": "inplace",
        "label": "uint256",
        "numberOfBytes": "32"
      },
      "t_uint8": {
        "encoding": "inplace",
        "label": "uint8",
        "numberOfBytes": "1"
      }
    }
  }
}