{
  "address": "0x47E893BB3EDF844109b5a0fB779B851620aD7cBD",
  "abi": [
    {
      "inputs": [
        {
          "internalType": "string",
          "name": "name",
          "type": "string"
        },
        {
          "internalType": "string",
          "name": "symbol",
          "type": "string"
        },
        {
          "internalType": "address",
          "name": "_gToken",
          "type": "address"
        },
        {
          "internalType": "contract IGTokenLockedDepositNftDesign",
          "name": "_design",
          "type": "address"
        },
        {
          "internalType": "uint8",
          "name": "_designDecimals",
          "type": "uint8"
        }
      ],
      "stateMutability": "nonpayable",
      "type": "constructor"
    },
    {
      "anonymous": false,
      "inputs": [
        {
          "indexed": true,
          "internalType": "address",
          "name": "owner",
          "type": "address"
        },
        {
          "indexed": true,
          "internalType": "address",
          "name": "approved",
          "type": "address"
        },
        {
          "indexed": true,
          "internalType": "uint256",
          "name": "tokenId",
          "type": "uint256"
        }
      ],
      "name": "Approval",
      "type": "event"
    },
    {
      "anonymous": false,
      "inputs": [
        {
          "indexed": true,
          "internalType": "address",
          "name": "owner",
          "type": "address"
        },
        {
          "indexed": true,
          "internalType": "address",
          "name": "operator",
          "type": "address"
        },
        {
          "indexed": false,
          "internalType": "bool",
          "name": "approved",
          "type": "bool"
        }
      ],
      "name": "ApprovalForAll",
      "type": "event"
    },
    {
      "anonymous": false,
      "inputs": [
        {
          "indexed": false,
          "internalType": "uint8",
          "name": "newValue",
          "type": "uint8"
        }
      ],
      "name": "DesignDecimalsUpdated",
      "type": "event"
    },
    {
      "anonymous": false,
      "inputs": [
        {
          "indexed": false,
          "internalType": "contract IGTokenLockedDepositNftDesign",
          "name": "newValue",
          "type": "address"
        }
      ],
      "name": "DesignUpdated",
      "type": "event"
    },
    {
      "anonymous": false,
      "inputs": [
        {
          "indexed": true,
          "internalType": "address",
          "name": "from",
          "type": "address"
        },
        {
          "indexed": true,
          "internalType": "address",
          "name": "to",
          "type": "address"
        },
        {
          "indexed": true,
          "internalType": "uint256",
          "name": "tokenId",
          "type": "uint256"
        }
      ],
      "name": "Transfer",
      "type": "event"
    },
    {
      "inputs": [
        {
          "internalType": "address",
          "name": "to",
          "type": "address"
        },
        {
          "internalType": "uint256",
          "name": "tokenId",
          "type": "uint256"
        }
      ],
      "name": "approve",
      "outputs": [],
      "stateMutability": "nonpayable",
      "type": "function"
    },
    {
      "inputs": [
        {
          "internalType": "address",
          "name": "owner",
          "type": "address"
        }
      ],
      "name": "balanceOf",
      "outputs": [
        {
          "internalType": "uint256",
          "name": "",
          "type": "uint256"
        }
      ],
      "stateMutability": "view",
      "type": "function"
    },
    {
      "inputs": [
        {
          "internalType": "uint256",
          "name": "tokenId",
          "type": "uint256"
        }
      ],
      "name": "burn",
      "outputs": [],
      "stateMutability": "nonpayable",
      "type": "function"
    },
    {
      "inputs": [],
      "name": "design",
      "outputs": [
        {
          "internalType": "contract IGTokenLockedDepositNftDesign",
          "name": "",
          "type": "address"
        }
      ],
      "stateMutability": "view",
      "type": "function"
    },
    {
      "inputs": [],
      "name": "designDecimals",
      "outputs": [
        {
          "internalType": "uint8",
          "name": "",
          "type": "uint8"
        }
      ],
      "stateMutability": "view",
      "type": "function"
    },
    {
      "inputs": [],
      "name": "gToken",
      "outputs": [
        {
          "internalType": "address",
          "name": "",
          "type": "address"
        }
      ],
      "stateMutability": "view",
      "type": "function"
    },
    {
      "inputs": [
        {
          "internalType": "uint256",
          "name": "tokenId",
          "type": "uint256"
        }
      ],
      "name": "getApproved",
      "outputs": [
        {
          "internalType": "address",
          "name": "",
          "type": "address"
        }
      ],
      "stateMutability": "view",
      "type": "function"
    },
    {
      "inputs": [
        {
          "internalType": "address",
          "name": "owner",
          "type": "address"
        },
        {
          "internalType": "address",
          "name": "operator",
          "type": "address"
        }
      ],
      "name": "isApprovedForAll",
      "outputs": [
        {
          "internalType": "bool",
          "name": "",
          "type": "bool"
        }
      ],
      "stateMutability": "view",
      "type": "function"
    },
    {
      "inputs": [
        {
          "internalType": "address",
          "name": "to",
          "type": "address"
        },
        {
          "internalType": "uint256",
          "name": "tokenId",
          "type": "uint256"
        }
      ],
      "name": "mint",
      "outputs": [],
      "stateMutability": "nonpayable",
      "type": "function"
    },
    {
      "inputs": [],
      "name": "name",
      "outputs": [
        {
          "internalType": "string",
          "name": "",
          "type": "string"
        }
      ],
      "stateMutability": "view",
      "type": "function"
    },
    {
      "inputs": [
        {
          "internalType": "uint256",
          "name": "tokenId",
          "type": "uint256"
        }
      ],
      "name": "ownerOf",
      "outputs": [
        {
          "internalType": "address",
          "name": "",
          "type": "address"
        }
      ],
      "stateMutability": "view",
      "type": "function"
    },
    {
      "inputs": [
        {
          "internalType": "address",
          "name": "from",
          "type": "address"
        },
        {
          "internalType": "address",
          "name": "to",
          "type": "address"
        },
        {
          "internalType": "uint256",
          "name": "tokenId",
          "type": "uint256"
        }
      ],
      "name": "safeTransferFrom",
      "outputs": [],
      "stateMutability": "nonpayable",
      "type": "function"
    },
    {
      "inputs": [
        {
          "internalType": "address",
          "name": "from",
          "type": "address"
        },
        {
          "internalType": "address",
          "name": "to",
          "type": "address"
        },
        {
          "internalType": "uint256",
          "name": "tokenId",
          "type": "uint256"
        },
        {
          "internalType": "bytes",
          "name": "data",
          "type": "bytes"
        }
      ],
      "name": "safeTransferFrom",
      "outputs": [],
      "stateMutability": "nonpayable",
      "type": "function"
    },
    {
      "inputs": [
        {
          "internalType": "address",
          "name": "operator",
          "type": "address"
        },
        {
          "internalType": "bool",
          "name": "approved",
          "type": "bool"
        }
      ],
      "name": "setApprovalForAll",
      "outputs": [],
      "stateMutability": "nonpayable",
      "type": "function"
    },
    {
      "inputs": [
        {
          "internalType": "bytes4",
          "name": "interfaceId",
          "type": "bytes4"
        }
      ],
      "name": "supportsInterface",
      "outputs": [
        {
          "internalType": "bool",
          "name": "",
          "type": "bool"
        }
      ],
      "stateMutability": "view",
      "type": "function"
    },
    {
      "inputs": [],
      "name": "symbol",
      "outputs": [
        {
          "internalType": "string",
          "name": "",
          "type": "string"
        }
      ],
      "stateMutability": "view",
      "type": "function"
    },
    {
      "inputs": [
        {
          "internalType": "uint256",
          "name": "index",
          "type": "uint256"
        }
      ],
      "name": "tokenByIndex",
      "outputs": [
        {
          "internalType": "uint256",
          "name": "",
          "type": "uint256"
        }
      ],
      "stateMutability": "view",
      "type": "function"
    },
    {
      "inputs": [
        {
          "internalType": "address",
          "name": "owner",
          "type": "address"
        },
        {
          "internalType": "uint256",
          "name": "index",
          "type": "uint256"
        }
      ],
      "name": "tokenOfOwnerByIndex",
      "outputs": [
        {
          "internalType": "uint256",
          "name": "",
          "type": "uint256"
        }
      ],
      "stateMutability": "view",
      "type": "function"
    },
    {
      "inputs": [
        {
          "internalType": "uint256",
          "name": "tokenId",
          "type": "uint256"
        }
      ],
      "name": "tokenURI",
      "outputs": [
        {
          "internalType": "string",
          "name": "",
          "type": "string"
        }
      ],
      "stateMutability": "view",
      "type": "function"
    },
    {
      "inputs": [],
      "name": "totalSupply",
      "outputs": [
        {
          "internalType": "uint256",
          "name": "",
          "type": "uint256"
        }
      ],
      "stateMutability": "view",
      "type": "function"
    },
    {
      "inputs": [
        {
          "internalType": "address",
          "name": "from",
          "type": "address"
        },
        {
          "internalType": "address",
          "name": "to",
          "type": "address"
        },
        {
          "internalType": "uint256",
          "name": "tokenId",
          "type": "uint256"
        }
      ],
      "name": "transferFrom",
      "outputs": [],
      "stateMutability": "nonpayable",
      "type": "function"
    },
    {
      "inputs": [
        {
          "internalType": "contract IGTokenLockedDepositNftDesign",
          "name": "newValue",
          "type": "address"
        }
      ],
      "name": "updateDesign",
      "outputs": [],
      "stateMutability": "nonpayable",
      "type": "function"
    },
    {
      "inputs": [
        {
          "internalType": "uint8",
          "name": "newValue",
          "type": "uint8"
        }
      ],
      "name": "updateDesignDecimals",
      "outputs": [],
      "stateMutability": "nonpayable",
      "type": "function"
    }
  ],
  "transactionHash": "0x4fb8a4fb25ead11cffb7d8bbe88796dcec62e6c7511e183237843f0c4b575089",
  "args": [
    "zNFT: Locked zDAI",
    "zNFT-DAI",
    "0xb14f4624E8Ac63d1d0D85Ba54cD28D1df27A10d3",
    "0x04851761CA1789C86937e5f3C8f378eC41C41938",
    2
  ],
  "numDeployments": 1,
  "solcInputHash": "edab1d0feb7ffa5be1c95101a46d74db",
  "bytecode": "0x60a060405234620003b7576200208f803803806200001d81620003bc565b92833981019060a081830312620003b75780516001600160401b039290838111620003b7578162000050918401620003e2565b6020918284015190858211620003b7576200006d918501620003e2565b9360408401519260018060a01b03948585168503620003b7576060810151958616809603620003b757608001519560ff87168703620003b757835191838311620003a1576000908154936001968786811c9616801562000396575b8387101462000382578190601f968781116200032f575b508390878311600114620002cb578592620002bf575b5050600019600383901b1c191690871b1782555b8251948511620002ab5785548681811c91168015620002a0575b828210146200028c5790818587969594931162000233575b5080938511600114620001cc575092620001c0575b5050600019600383901b1c191690821b1790555b608052600a549160ff60a01b9060a01b169160018060a81b0319161717600a55604051611c3a90816200045582396080518181816101bc015281816106c8015281816108bd0152818161097f01528181610b320152610da50152f35b01519050388062000150565b868252808220879650939291601f198616915b828210620002195750508411620001ff575b505050811b01905562000164565b015160001960f88460031b161c19169055388080620001f1565b8484015186558897909501949384019390810190620001df565b9091929394508683528183208580880160051c82019284891062000282575b9188978a9297969594930160051c01915b828110620002735750506200013b565b84815588975089910162000263565b9250819262000252565b634e487b7160e01b83526022600452602483fd5b90607f169062000123565b634e487b7160e01b82526041600452602482fd5b015190503880620000f5565b8580528486208a94509190601f198416875b87828210620003185750508411620002fe575b505050811b01825562000109565b015160001960f88460031b161c19169055388080620002f0565b8385015186558d97909501949384019301620002dd565b9091508480528385208780850160051c82019286861062000378575b918b91869594930160051c01915b82811062000369575050620000df565b8781558594508b910162000359565b925081926200034b565b634e487b7160e01b84526022600452602484fd5b95607f1695620000c8565b634e487b7160e01b600052604160045260246000fd5b600080fd5b6040519190601f01601f191682016001600160401b03811183821017620003a157604052565b919080601f84011215620003b75782516001600160401b038111620003a15760209062000418601f8201601f19168301620003bc565b92818452828287010111620003b75760005b8181106200044057508260009394955001015290565b85810183015184820184015282016200042a56fe608060408181526004918236101561001657600080fd5b600092833560e01c91826301ffc9a71461122b5750816306fdde031461117e578163081812fc1461115e578163095ea7b314610ff057816318160ddd14610fd157816323b872dd14610fac5781632f745c5914610f0057816340c10f1914610d7757816342842e0e14610d4357816342966c6814610b0b5781634f6ccce714610a775781636352211e14610a465781636c8aabb41461093e578163701a71de1461091957816370a08231146108ec57816376ffb9bd146108a857816393f502061461087f57816395d89b41146107875781639c44b4d214610687578163a22cb465146105bb578163b88d4fde14610500578163c87b56dd14610172575063e985e9c51461012257600080fd5b3461016e578060031936011261016e5760ff816020936101406112f8565b610148611313565b6001600160a01b0391821683526005875283832091168252855220549151911615158152f35b5080fd5b83833461016e5760209060031982813601126104fc5784359061019c610197836118a6565b611444565b600a5483516373c1cb3b60e11b8152878101849052966001600160a01b037f00000000000000000000000000000000000000000000000000000000000000008116949160c08a602481895afa9485156104f257899561044d575b899a50879899969751976395d89b4160e01b808a52888a8581855afa998a156103bd57899a610431575b508a516338d52e0f60e01b8152908c828681865afa9182156104275791858b928e8997969585946103e3575b505196879384928352165afa9283156103bd57849392918d918b946103c7575b508c5163313ce56760e01b815294859182905afa9283156103bd578993610380575b508a51998a9889978896637508633360e01b88528701528681511660248701528d81015160448701528c810151606487015260608101516084870152608081015160a487015260a0015160c486015260e48501610160905261016485016102f4916112d3565b9084820301610104850152610308916112d3565b9060ff166101248301528460a01c60ff166101448301520392165afa93841561037557809461034b575b505061034790519282849384528301906112d3565b0390f35b6103479294509061036d913d8091833e610365818361138f565b810190611b6f565b929084610332565b8251903d90823e3d90fd5b9092508b81813d83116103b6575b610398818361138f565b810103126103b2575160ff811681036103b257918d61028e565b8880fd5b503d61038e565b8b513d8b823e3d90fd5b6103dc9194503d808d833e610365818361138f565b928f61026c565b945050955050508c81813d8311610420575b6103ff818361138f565b8101031261041c578b8587956104158d94611a9b565b923861024c565b8980fd5b503d6103f5565b8c513d8c823e3d90fd5b610446919a503d808b833e610365818361138f565b988d610220565b94509860c0813d82116104ea575b8161046860c0938361138f565b810103126103b25786519060c082016001600160401b038111838210176104d7578a9b929160a0918a9b9c999a5261049f81611a9b565b83528b8101518c8401528a8101518b8401526060810151606084015260808101516080840152015160a08201529498979695986101f6565b634e487b7160e01b8b5260418c5260248bfd5b3d915061045b565b87513d8b823e3d90fd5b8380fd5b919050346105b75760803660031901126105b75761051c6112f8565b90610525611313565b6064359360443591906001600160401b0386116105b357366023870112156105b35785013593610560610557866113b2565b9451948561138f565b8484528636602487890101116105b0576020866105a89760246105ad9a01838901378601015261059861059384336115b1565b6114d8565b6105a3838383611679565b6119df565b61158d565b80f35b80fd5b8680fd5b8280fd5b919050346105b757806003193601126105b7576105d66112f8565b9060243591821515809303610683576001600160a01b0316923384146106455750338452600560205280842083855260205280842060ff1981541660ff8416179055519081527f17307eab39ab6107e8899845ad3d59bd9653f200f220920489ca2b5937696c3160203392a380f35b6020606492519162461bcd60e51b8352820152601960248201527822a9219b99189d1030b8383937bb32903a379031b0b63632b960391b6044820152fd5b8480fd5b919050346105b757602090816003193601126104fc576001600160a01b0392803584811692919083900361077257838251809263481c6a7560e01b825281887f0000000000000000000000000000000000000000000000000000000000000000165afa90811561077d57869161072f575b50600080516020611c0e8339815191529461071591163314611aaf565b600a80546001600160a01b0319168317905551908152a180f35b90508381813d8311610776575b610746818361138f565b8101031261077257600080516020611c0e8339815191529461076a61071592611a9b565b9150946106f8565b8580fd5b503d61073c565b82513d88823e3d90fd5b8284346105b057806003193601126105b0578151918160019283549384811c91818616958615610875575b6020968785108114610862578899509688969785829a52918260001461083b5750506001146107fe575b50505061034792916107ef91038561138f565b519282849384528301906112d3565b91908693508083528383205b82841061082357505050820101816107ef6103476107dc565b8054848a01860152889550879490930192810161080a565b60ff19168782015293151560051b860190930193508492506107ef915061034790506107dc565b634e487b7160e01b835260228a52602483fd5b92607f16926107b2565b50503461016e578160031936011261016e57600a5490516001600160a01b039091168152602090f35b50503461016e578160031936011261016e57517f00000000000000000000000000000000000000000000000000000000000000006001600160a01b03168152602090f35b50503461016e57602036600319011261016e5760209061091261090d6112f8565b6113cd565b9051908152f35b50503461016e578160031936011261016e5760209060ff600a5460a01c169051908152f35b919050346105b757602090816003193601126104fc5782359060ff82169182810361077257815163481c6a7560e01b81526001600160a01b039585908290817f00000000000000000000000000000000000000000000000000000000000000008a165afa908115610a3c5787916109f2575b50600080516020611bce833981519152956109cd91163314611aaf565b600a805460ff60a01b191660a09290921b60ff60a01b1691909117905551908152a180f35b90508481813d8311610a35575b610a09818361138f565b810103126105b357600080516020611bce83398151915295610a2d6109cd92611a9b565b9150956109b0565b503d6109ff565b83513d89823e3d90fd5b8284346105b05760203660031901126105b05750610a666020923561148b565b90516001600160a01b039091168152f35b905082346105b05760203660031901126105b05750803590600854821015610ab357602083610aa584611a6a565b91905490519160031b1c8152f35b608490602084519162461bcd60e51b8352820152602c60248201527f455243373231456e756d657261626c653a20676c6f62616c20696e646578206f60448201526b7574206f6620626f756e647360a01b6064820152fd5b9050346105b757602090816003193601126104fc578035926001600160a01b0392610b59337f0000000000000000000000000000000000000000000000000000000000000000861614611aea565b610b628561148b565b8085169081610cc257505060085485875260098252828720819055600160401b811015610caf5785610b9d826001610bb89401600855611a6a565b90919082549060031b600019811b9283911b16911916179055565b6008546000199490858101908111610c9c5786885260098352610bde8489205491611a6a565b90549060031b1c610bf281610b9d84611a6a565b8852600983528388205585875286838120556008548015610c89579160029186899796959401610c2181611a6a565b8882549160031b1b19169055600855610c398861148b565b88885294825283872080546001600160a01b0319908116909155941680875260038252838720805490960190955586865252832080549091169055600080516020611bee8339815191528280a480f35b634e487b7160e01b885260318552602488fd5b634e487b7160e01b885260118552602488fd5b634e487b7160e01b875260418452602487fd5b610ccb906113cd565b600019810191908211610c9c578688526007835283882054828103610d0c575b50868852878481205587526006825282872090875281528582812055610bb8565b81895260068452848920838a52845284892054828a5260068552858a20828b52855280868b20558952600784528489205538610ceb565b50503461016e576105a86105ad91610d5a36611329565b91925192610d678461135e565b86845261059861059384336115b1565b83833461016e578060031936011261016e57610d916112f8565b6001600160a01b03916024359190610dcc337f0000000000000000000000000000000000000000000000000000000000000000861614611aea565b805193610dd88561135e565b8585528216908115610ebe57610df6610df0856118a6565b15611b24565b600854848752602090600982528083892055600160401b811015610eab57926105ad9694926002879593610e3887610b9d8760016105a89d9901600855611a6a565b610e41866113cd565b848c5260068252838c20818d52825285848d2055858c5260078252838c2055610e6c610df0866118a6565b838b5260038152828b2080546001019055848b5252882080546001600160a01b0319168217905587600080516020611bee8339815191528180a46118c3565b634e487b7160e01b885260418952602488fd5b5162461bcd60e51b8152602081880181905260248201527f4552433732313a206d696e7420746f20746865207a65726f20616464726573736044820152606490fd5b8284346105b057816003193601126105b057610f1a6112f8565b60243590610f27816113cd565b821015610f55576001600160a01b031682526006602090815283832091835290815290829020548251908152f35b835162461bcd60e51b8152602081870152602b60248201527f455243373231456e756d657261626c653a206f776e657220696e646578206f7560448201526a74206f6620626f756e647360a81b6064820152608490fd5b83346105b0576105ad610fbe36611329565b91610fcc61059384336115b1565b611679565b50503461016e578160031936011261016e576020906008549051908152f35b9050346105b757816003193601126105b75761100a6112f8565b6024359290916001600160a01b03919082806110258761148b565b16941693808514611111578033149081156110f2575b501561108a57848652602052842080546001600160a01b031916831790556110628361148b565b167f8c5be1e5ebec7d5bd14f71427d1e84f3dd0314c0f7b2291e5b200ac8c7c3b9258480a480f35b6020608492519162461bcd60e51b8352820152603d60248201527f4552433732313a20617070726f76652063616c6c6572206973206e6f7420746f60448201527f6b656e206f776e6572206f7220617070726f76656420666f7220616c6c0000006064820152fd5b90508652600560205281862033875260205260ff82872054163861103b565b506020608492519162461bcd60e51b8352820152602160248201527f4552433732313a20617070726f76616c20746f2063757272656e74206f776e656044820152603960f91b6064820152fd5b8284346105b05760203660031901126105b05750610a66602092356114b1565b8284346105b057806003193601126105b05781519181825492600184811c91818616958615611221575b6020968785108114610862578899509688969785829a52918260001461083b5750506001146111e45750505061034792916107ef91038561138f565b91908693508280528383205b82841061120957505050820101816107ef6103476107dc565b8054848a0186015288955087949093019281016111f0565b92607f16926111a8565b8491346105b75760203660031901126105b7573563ffffffff60e01b81168091036105b7576020925063780e9d6360e01b811490811561126d575b5015158152f35b6380ac58cd60e01b81149150811561129f575b811561128e575b5083611266565b6301ffc9a760e01b14905083611287565b635b5e139f60e01b81149150611280565b60005b8381106112c35750506000910152565b81810151838201526020016112b3565b906020916112ec815180928185528580860191016112b0565b601f01601f1916010190565b600435906001600160a01b038216820361130e57565b600080fd5b602435906001600160a01b038216820361130e57565b606090600319011261130e576001600160a01b0390600435828116810361130e5791602435908116810361130e579060443590565b602081019081106001600160401b0382111761137957604052565b634e487b7160e01b600052604160045260246000fd5b601f909101601f19168101906001600160401b0382119082101761137957604052565b6001600160401b03811161137957601f01601f191660200190565b6001600160a01b031680156113ed57600052600360205260406000205490565b60405162461bcd60e51b815260206004820152602960248201527f4552433732313a2061646472657373207a65726f206973206e6f7420612076616044820152683634b21037bbb732b960b91b6064820152608490fd5b1561144b57565b60405162461bcd60e51b8152602060048201526018602482015277115490cdcc8c4e881a5b9d985b1a59081d1bdad95b88125160421b6044820152606490fd5b6000908152600260205260409020546001600160a01b03166114ae811515611444565b90565b6114bd610197826118a6565b6000908152600460205260409020546001600160a01b031690565b156114df57565b60405162461bcd60e51b815260206004820152602d60248201527f4552433732313a2063616c6c6572206973206e6f7420746f6b656e206f776e6560448201526c1c881bdc88185c1c1c9bdd9959609a1b6064820152608490fd5b60809060208152603260208201527f4552433732313a207472616e7366657220746f206e6f6e20455243373231526560408201527131b2b4bb32b91034b6b83632b6b2b73a32b960711b60608201520190565b1561159457565b60405162461bcd60e51b8152806115ad6004820161153a565b0390fd5b906001600160a01b0380806115c58461148b565b169316918383149384156115f8575b5083156115e2575b50505090565b6115ee919293506114b1565b16143880806115dc565b909350600052600560205260406000208260005260205260ff6040600020541692386115d4565b1561162657565b60405162461bcd60e51b815260206004820152602560248201527f4552433732313a207472616e736665722066726f6d20696e636f72726563742060448201526437bbb732b960d91b6064820152608490fd5b61169d916116868461148b565b6001600160a01b039384841693918516841461161f565b8382169384156118555783918261179c575060085460008781526009602052604090208190559150600160401b82101561137957611703926116ea87610b9d856001899701600855611a6a565b828603611769575b506116fc8661148b565b161461161f565b600080516020611bee833981519152600084815260046020526040812060018060a01b03199081815416905583825260036020526040822060001981540190558482526040822060018154019055858252600260205284604083209182541617905580a4565b611772906113cd565b604060008781526006602052818120838252602052888282205588815260076020522055386116f2565b8583036117ae575b50611703926116ea565b6117b99192506113cd565b60001981019190821161183f576117039284926000908882526020906007825260409182842054828103611808575b508a845283838120558684526006815282842091845252812055926117a4565b87855260068252838520838652825283852054888652600683528486208287528352808587205585526007825283852055386117e8565b634e487b7160e01b600052601160045260246000fd5b60405162461bcd60e51b8152602060048201526024808201527f4552433732313a207472616e7366657220746f20746865207a65726f206164646044820152637265737360e01b6064820152608490fd5b6000908152600260205260409020546001600160a01b0316151590565b9192600092909190803b156119d557611911946040518092630a85bd0160e11b9485835233600484015287602484015260448301526080606483015281878160209a8b9660848301906112d3565b03926001600160a01b03165af1849181611995575b50611984575050503d60001461197c573d611940816113b2565b9061194e604051928361138f565b81528091833d92013e5b805191826119795760405162461bcd60e51b8152806115ad6004820161153a565b01fd5b506060611958565b6001600160e01b0319161492509050565b9091508581813d83116119ce575b6119ad818361138f565b8101031261068357516001600160e01b031981168103610683579038611926565b503d6119a3565b5050915050600190565b9293600093909291803b15611a5f57948491611a399660405180948193630a85bd0160e11b9788845233600485015260018060a01b0380921660248501526044840152608060648401528260209b8c9760848301906112d3565b0393165af18491816119955750611984575050503d60001461197c573d611940816113b2565b505050915050600190565b600854811015611a8557600860005260206000200190600090565b634e487b7160e01b600052603260045260246000fd5b51906001600160a01b038216820361130e57565b15611ab657565b60405162461bcd60e51b815260206004820152600c60248201526b27a7262cafa6a0a720a3a2a960a11b6044820152606490fd5b15611af157565b60405162461bcd60e51b815260206004820152600b60248201526a27a7262cafa3aa27a5a2a760a91b6044820152606490fd5b15611b2b57565b60405162461bcd60e51b815260206004820152601c60248201527b115490cdcc8c4e881d1bdad95b88185b1c9958591e481b5a5b9d195960221b6044820152606490fd5b60208183031261130e578051906001600160401b03821161130e570181601f8201121561130e578051611ba1816113b2565b92611baf604051948561138f565b8184526020828401011161130e576114ae91602080850191016112b056fe602fad026c51bcd4203318336b0f271603ba04f58124783860753c61a94dc945ddf252ad1be2c89b69c2b068fc378daa952ba7f163c4a11628f55a4df523b3ef01df2dcc4e8485942a83320fe627e437aba6c78bdadd3051ff80e902ec7d041da164736f6c6343000811000a",
  "libraries": {},
  "devdoc": {
    "kind": "dev",
    "methods": {
      "approve(address,uint256)": {
        "details": "See {IERC721-approve}."
      },
      "balanceOf(address)": {
        "details": "See {IERC721-balanceOf}."
      },
      "getApproved(uint256)": {
        "details": "See {IERC721-getApproved}."
      },
      "isApprovedForAll(address,address)": {
        "details": "See {IERC721-isApprovedForAll}."
      },
      "name()": {
        "details": "See {IERC721Metadata-name}."
      },
      "ownerOf(uint256)": {
        "details": "See {IERC721-ownerOf}."
      },
      "safeTransferFrom(address,address,uint256)": {
        "details": "See {IERC721-safeTransferFrom}."
      },
      "safeTransferFrom(address,address,uint256,bytes)": {
        "details": "See {IERC721-safeTransferFrom}."
      },
      "setApprovalForAll(address,bool)": {
        "details": "See {IERC721-setApprovalForAll}."
      },
      "supportsInterface(bytes4)": {
        "details": "See {IERC165-supportsInterface}."
      },
      "symbol()": {
        "details": "See {IERC721Metadata-symbol}."
      },
      "tokenByIndex(uint256)": {
        "details": "See {IERC721Enumerable-tokenByIndex}."
      },
      "tokenOfOwnerByIndex(address,uint256)": {
        "details": "See {IERC721Enumerable-tokenOfOwnerByIndex}."
      },
      "tokenURI(uint256)": {
        "details": "See {IERC721Metadata-tokenURI}."
      },
      "totalSupply()": {
        "details": "See {IERC721Enumerable-totalSupply}."
      },
      "transferFrom(address,address,uint256)": {
        "details": "See {IERC721-transferFrom}."
      }
    },
    "version": 1
  },
  "userdoc": {
    "kind": "user",
    "methods": {},
    "version": 1
  },
  "storageLayout": {
    "storage": [
      {
        "astId": 6412,
        "contract": "contracts/contracts/GTokenLockedDepositNft.sol:GTokenLockedDepositNft",
        "label": "_name",
        "offset": 0,
        "slot": "0",
        "type": "t_string_storage"
      },
      {
        "astId": 6414,
        "contract": "contracts/contracts/GTokenLockedDepositNft.sol:GTokenLockedDepositNft",
        "label": "_symbol",
        "offset": 0,
        "slot": "1",
        "type": "t_string_storage"
      },
      {
        "astId": 6418,
        "contract": "contracts/contracts/GTokenLockedDepositNft.sol:GTokenLockedDepositNft",
        "label": "_owners",
        "offset": 0,
        "slot": "2",
        "type": "t_mapping(t_uint256,t_address)"
      },
      {
        "astId": 6422,
        "contract": "contracts/contracts/GTokenLockedDepositNft.sol:GTokenLockedDepositNft",
        "label": "_balances",
        "offset": 0,
        "slot": "3",
        "type": "t_mapping(t_address,t_uint256)"
      },
      {
        "astId": 6426,
        "contract": "contracts/contracts/GTokenLockedDepositNft.sol:GTokenLockedDepositNft",
        "label": "_tokenApprovals",
        "offset": 0,
        "slot": "4",
        "type": "t_mapping(t_uint256,t_address)"
      },
      {
        "astId": 6432,
        "contract": "contracts/contracts/GTokenLockedDepositNft.sol:GTokenLockedDepositNft",
        "label": "_operatorApprovals",
        "offset": 0,
        "slot": "5",
        "type": "t_mapping(t_address,t_mapping(t_address,t_bool))"
      },
      {
        "astId": 7462,
        "contract": "contracts/contracts/GTokenLockedDepositNft.sol:GTokenLockedDepositNft",
        "label": "_ownedTokens",
        "offset": 0,
        "slot": "6",
        "type": "t_mapping(t_address,t_mapping(t_uint256,t_uint256))"
      },
      {
        "astId": 7466,
        "contract": "contracts/contracts/GTokenLockedDepositNft.sol:GTokenLockedDepositNft",
        "label": "_ownedTokensIndex",
        "offset": 0,
        "slot": "7",
        "type": "t_mapping(t_uint256,t_uint256)"
      },
      {
        "astId": 7469,
        "contract": "contracts/contracts/GTokenLockedDepositNft.sol:GTokenLockedDepositNft",
        "label": "_allTokens",
        "offset": 0,
        "slot": "8",
        "type": "t_array(t_uint256)dyn_storage"
      },
      {
        "astId": 7473,
        "contract": "contracts/contracts/GTokenLockedDepositNft.sol:GTokenLockedDepositNft",
        "label": "_allTokensIndex",
        "offset": 0,
        "slot": "9",
        "type": "t_mapping(t_uint256,t_uint256)"
      },
      {
        "astId": 29499,
        "contract": "contracts/contracts/GTokenLockedDepositNft.sol:GTokenLockedDepositNft",
        "label": "design",
        "offset": 0,
        "slot": "10",
        "type": "t_contract(IGTokenLockedDepositNftDesign)35703"
      },
      {
        "astId": 29501,
        "contract": "contracts/contracts/GTokenLockedDepositNft.sol:GTokenLockedDepositNft",
        "label": "designDecimals",
        "offset": 20,
        "slot": "10",
        "type": "t_uint8"
      }
    ],
    "types": {
      "t_address": {
        "encoding": "inplace",
        "label": "address",
        "numberOfBytes": "20"
      },
      "t_array(t_uint256)dyn_storage": {
        "base": "t_uint256",
        "encoding": "dynamic_array",
        "label": "uint256[]",
        "numberOfBytes": "32"
      },
      "t_bool": {
        "encoding": "inplace",
        "label": "bool",
        "numberOfBytes": "1"
      },
      "t_contract(IGTokenLockedDepositNftDesign)35703": {
        "encoding": "inplace",
        "label": "contract IGTokenLockedDepositNftDesign",
        "numberOfBytes": "20"
      },
      "t_mapping(t_address,t_bool)": {
        "encoding": "mapping",
        "key": "t_address",
        "label": "mapping(address => bool)",
        "numberOfBytes": "32",
        "value": "t_bool"
      },
      "t_mapping(t_address,t_mapping(t_address,t_bool))": {
        "encoding": "mapping",
        "key": "t_address",
        "label": "mapping(address => mapping(address => bool))",
        "numberOfBytes": "32",
        "value": "t_mapping(t_address,t_bool)"
      },
      "t_mapping(t_address,t_mapping(t_uint256,t_uint256))": {
        "encoding": "mapping",
        "key": "t_address",
        "label": "mapping(address => mapping(uint256 => uint256))",
        "numberOfBytes": "32",
        "value": "t_mapping(t_uint256,t_uint256)"
      },
      "t_mapping(t_address,t_uint256)": {
        "encoding": "mapping",
        "key": "t_address",
        "label": "mapping(address => uint256)",
        "numberOfBytes": "32",
        "value": "t_uint256"
      },
      "t_mapping(t_uint256,t_address)": {
        "encoding": "mapping",
        "key": "t_uint256",
        "label": "mapping(uint256 => address)",
        "numberOfBytes": "32",
        "value": "t_address"
      },
      "t_mapping(t_uint256,t_uint256)": {
        "encoding": "mapping",
        "key": "t_uint256",
        "label": "mapping(uint256 => uint256)",
        "numberOfBytes": "32",
        "value": "t_uint256"
      },
      "t_string_storage": {
        "encoding": "bytes",
        "label": "string",
        "numberOfBytes": "32"
      },
      "t_uint256": {
        "encoding": "inplace",
        "label": "uint256",
        "numberOfBytes": "32"
      },
      "t_uint8": {
        "encoding": "inplace",
        "label": "uint8",
        "numberOfBytes": "1"
      }
    }
  }
}