{
  "address": "0x04851761CA1789C86937e5f3C8f378eC41C41938",
  "abi": [
    {
      "inputs": [
        {
          "internalType": "uint256",
          "name": "tokenId",
          "type": "uint256"
        },
        {
          "components": [
            {
              "internalType": "address",
              "name": "owner",
              "type": "address"
            },
            {
              "internalType": "uint256",
              "name": "shares",
              "type": "uint256"
            },
            {
              "internalType": "uint256",
              "name": "assetsDeposited",
              "type": "uint256"
            },
            {
              "internalType": "uint256",
              "name": "assetsDiscount",
              "type": "uint256"
            },
            {
              "internalType": "uint256",
              "name": "atTimestamp",
              "type": "uint256"
            },
            {
              "internalType": "uint256",
              "name": "lockDuration",
              "type": "uint256"
            }
          ],
          "internalType": "struct IGToken.LockedDeposit",
          "name": "lockedDeposit",
          "type": "tuple"
        },
        {
          "internalType": "string",
          "name": "gTokenSymbol",
          "type": "string"
        },
        {
          "internalType": "string",
          "name": "assetSymbol",
          "type": "string"
        },
        {
          "internalType": "uint8",
          "name": "numberInputDecimals",
          "type": "uint8"
        },
        {
          "internalType": "uint8",
          "name": "numberOutputDecimals",
          "type": "uint8"
        }
      ],
      "name": "buildTokenURI",
      "outputs": [
        {
          "internalType": "string",
          "name": "",
          "type": "string"
        }
      ],
      "stateMutability": "pure",
      "type": "function"
    },
    {
      "inputs": [
        {
          "internalType": "uint256",
          "name": "number",
          "type": "uint256"
        },
        {
          "internalType": "uint8",
          "name": "inputDecimals",
          "type": "uint8"
        },
        {
          "internalType": "uint8",
          "name": "outputDecimals",
          "type": "uint8"
        }
      ],
      "name": "numberToRoundedString",
      "outputs": [
        {
          "internalType": "string",
          "name": "",
          "type": "string"
        }
      ],
      "stateMutability": "pure",
      "type": "function"
    }
  ],
  "transactionHash": "0x02e3bf1ea34d1d03d255b4e32f1f8c7c5e20bd36dc59741e532328de89890c06",
  "args": [],
  "numDeployments": 1,
  "solcInputHash": "edab1d0feb7ffa5be1c95101a46d74db",
  "bytecode": "0x6080806040523461001657610e8f908161001c8239f35b600080fdfe6080604052600436101561001257600080fd5b60003560e01c80633a12545614610a595763750863331461003257600080fd5b34610a3e57610160366003190112610a3e5760c0366023190112610a3e576040516001600160401b0360c0820181811183821017610a43576040526001600160a01b03906024358281168103610a3e57835260443560208401526064356040840152608435606084015260a435608084015260c43560a084015260e435818111610a3e576100c4903690600401610b45565b9061010435908111610a3e576100de903690600401610b45565b9260ff61012435166101243503610a3e576101443560ff811603610a3e57610107600435610d34565b8151604051941661011785610aec565b602a85526040366020870137845115610a285760306020860153845160011015610a28576078602186015360295b600181116109df575061099b57610202610420916040519586917f3c3f786d6c2076657273696f6e3d22312e302220656e636f64696e673d22555460208401526523169c111f9f60d11b60408401527f3c73766720786d6c6e733d22687474703a2f2f7777772e77332e6f72672f323060468401527f30302f7376672220786d6c6e733a786c696e6b3d22687474703a2f2f7777772e60668401527f77332e6f72672f313939392f786c696e6b222076657273696f6e3d22312e31226086840152600160fd1b60a68401527f76696577426f783d22302030203430302033303022207072657365727665417360a7840152793832b1ba2930ba34b79e913c26b4b22ca6b4b21036b2b2ba111f60311b60c78401527f3c7374796c6520747970653d22746578742f637373223e3c215b43444154415b60e18401527f74657874207b20666f6e742d66616d696c793a204c61746f3b20666f6e742d736101018401527534bd329d101899383c1dbeaeae9f1e17b9ba3cb6329f60511b6101218401527f3c726563742077696474683d2234303022206865696768743d223330302220666101378401526f34b6361e9111b333333333331110179f60811b6101578401527f3c7465787420783d2232302220793d223335223e3c747370616e207374796c656101678401527f3d22666f6e742d7765696768743a20363030223e546f6b656e2049443a203c2f610187840152653a39b830b71f60d11b6101a784015261037a8151809260206101ad87019101610a9d565b7f3c2f746578743e3c7465787420783d2232302220793d223735223e3c747370616101ad82850101527f6e207374796c653d22666f6e742d7765696768743a20363030223e4465706f736101cd82850101526d34ba37b91d101e17ba39b830b71f60911b6101ed82850101526103fd8251809360206101fb858801019101610a9d565b820101661e17ba32bc3a1f60c91b6101fb820152036101e2810186520184610b07565b61044261043d602083015161043761012435610e71565b90610b8c565b610d34565b9061045a61043d604083015161043761012435610e71565b604051927f3c7465787420783d2232302220793d22313135223e3c747370616e207374796c60208501527f653d22666f6e742d7765696768743a20363030223e5368617265733a203c2f7460408501526439b830b71f60d91b60608501526104cc815180926020606588019101610a9d565b600160fd1b606582860101528451906104ee8260668388010160208901610a9d565b8401017f3c2f746578743e3c7465787420783d2232302220793d22313535223e3c74737060668201527f616e207374796c653d22666f6e742d7765696768743a20363030223e417373656086820152753a39903232b837b9b4ba32b21d101e17ba39b830b71f60511b60a682015261057082518093602060bc85019101610a9d565b0190600160fd1b60bc8301526105b660c484885160208a01956105978260bd830189610a9d565b01661e17ba32bc3a1f60c91b60bd8201520360a4810186520184610b07565b6105cd61043d606083015161043761012435610e71565b926105db6080830151610d34565b9160a0608082015191015181018091116109855760206109229761082b96608f966107e26101296109819d610830996c1e17ba32bc3a1f1e17b9bb339f60991b61062761082b9a610d34565b916040519687946106c38c87019a7f3c7465787420783d2232302220793d22313935223e3c747370616e207374796c8c527f653d22666f6e742d7765696768743a20363030223e417373657473206469736360408901526d37bab73a1d101e17ba39b830b71f60911b60608901526106a981518f928193606e8c019101610a9d565b870191600160fd1b606e840152518093606f840190610a9d565b017f3c2f746578743e3c7465787420783d2232302220793d22323335223e3c747370606f8201527f616e207374796c653d22666f6e742d7765696768743a20363030223e4465706f8f8201527639b4ba103a34b6b2b9ba30b6b81d101e17ba39b830b71f60491b60af820152610742825180938d60c685019101610a9d565b01661e17ba32bc3a1f60c91b60c68201527f3c7465787420783d2232302220793d22323735223e3c747370616e207374796c60cd8201527f653d22666f6e742d7765696768743a20363030223e556e6c6f636b2074696d6560ed8201526e39ba30b6b81d101e17ba39b830b71f60891b61010d8201528251906107ce8261011c958d8785019101610a9d565b019182015203610109810184520182610b07565b61081f60405196846107fd899651809289808a019101610a9d565b850161081182518093898085019101610a9d565b019151809386840190610a9d565b01038084520182610b07565b610bde565b604051938491683d913730b6b2911d1160b91b6020840152815161085b816029860160208601610a9d565b83017f204c6f636b6564204465706f736974222c2022696d616765223a22646174613a6029820152741a5b5859d94bdcdd99cade1b5b0ed8985cd94d8d0b605a1b60498201526108b5825180936020605e85019101610a9d565b017f222c20226465736372697074696f6e223a202254686973204e46542072657072605e8201526d032b9b2b73a39903637b1b5b2b2160951b607e820152610907825180936020608c85019101610a9d565b01622e227d60e81b608c82015203606f810184520182610b07565b610975603d60405180937f646174613a6170706c69636174696f6e2f6a736f6e3b6261736536342c00000060208301526109658151809260208686019101610a9d565b810103601d810184520182610b07565b60405191829182610ac0565b0390f35b634e487b7160e01b600052601160045260246000fd5b606460405162461bcd60e51b815260206004820152602060248201527f537472696e67733a20686578206c656e67746820696e73756666696369656e746044820152fd5b906010600f82161015610a28578551821015610a28576f181899199a1a9b1b9c1cb0b131b232b360811b600f82161a8683016020015360041c9080156109855760001901610145565b634e487b7160e01b600052603260045260246000fd5b600080fd5b634e487b7160e01b600052604160045260246000fd5b34610a3e576060366003190112610a3e5760243560ff81168103610a3e5760443560ff811603610a3e5761097561043d610a9561098193610e71565b600435610b8c565b60005b838110610ab05750506000910152565b8181015183820152602001610aa0565b60409160208252610ae08151809281602086015260208686019101610a9d565b601f01601f1916010190565b606081019081106001600160401b03821117610a4357604052565b601f909101601f19168101906001600160401b03821190821017610a4357604052565b6001600160401b038111610a4357601f01601f191660200190565b81601f82011215610a3e57803590610b5c82610b2a565b92610b6a6040519485610b07565b82845260208383010111610a3e57816000926020809301838601378301015290565b8115610b96570490565b634e487b7160e01b600052601260045260246000fd5b90610bb682610b2a565b610bc36040519182610b07565b8281528092610bd4601f1991610b2a565b0190602036910137565b805115610d1057604051610bf181610aec565b604081527f4142434445464748494a4b4c4d4e4f505152535455565758595a61626364656660208201527f6768696a6b6c6d6e6f707172737475767778797a303132333435363738392b2f60408201528151600292838201809211610985576003918290046001600160fe1b038116810361098557610c73908594951b610bac565b936020850193829183518401925b838110610cbf5750505050510680600114610cac57600214610ca1575090565b603d90600019015390565b50603d9081600019820153600119015390565b85600491979293949701918251600190603f9082828260121c16880101518453828282600c1c16880101518385015382828260061c1688010151888501531685010151878201530195929190610c81565b50604051602081016001600160401b03811182821017610a43576040526000815290565b6000908072184f03e93ff9f4daa797ed6e38ed64bf6a1f0160401b80821015610e63575b506904ee2d6d415b85acef8160201b80831015610e54575b50662386f26fc1000080831015610e45575b506305f5e10080831015610e36575b5061271080831015610e27575b506064821015610e17575b600a80921015610e0d575b600190816021610dc5828701610bac565b95860101905b610dd7575b5050505090565b600019019083906f181899199a1a9b1b9c1cb0b131b232b360811b8282061a835304918215610e0857919082610dcb565b610dd0565b9160010191610db4565b9190606460029104910191610da9565b60049193920491019138610d9e565b60089193920491019138610d91565b60109193920491019138610d82565b60209193920491019138610d70565b604093508104915038610d58565b60ff16604d811161098557600a0a9056fea164736f6c6343000811000a",
  "libraries": {},
  "devdoc": {
    "kind": "dev",
    "methods": {},
    "version": 1
  },
  "userdoc": {
    "kind": "user",
    "methods": {},
    "version": 1
  },
  "storageLayout": {
    "storage": [],
    "types": null
  }
}