{
  "address": "0x7fe64F104E7f284eee9394Ef377202774A0d7937",
  "abi": [
    {
      "inputs": [
        {
          "internalType": "address",
          "name": "_linkToken",
          "type": "address"
        },
        {
          "internalType": "contract StorageInterfaceV5",
          "name": "_storageT",
          "type": "address"
        },
        {
          "internalType": "contract PairsStorageInterfaceV6",
          "name": "_pairsStorage",
          "type": "address"
        },
        {
          "internalType": "contract ChainlinkFeedInterfaceV5",
          "name": "_linkPriceFeed",
          "type": "address"
        },
        {
          "internalType": "uint256",
          "name": "_minAnswers",
          "type": "uint256"
        },
        {
          "internalType": "address[]",
          "name": "_nodes",
          "type": "address[]"
        },
        {
          "internalType": "bytes32[2]",
          "name": "_jobIds",
          "type": "bytes32[2]"
        }
      ],
      "stateMutability": "nonpayable",
      "type": "constructor"
    },
    {
      "anonymous": false,
      "inputs": [
        {
          "components": [
            {
              "internalType": "uint256",
              "name": "orderId",
              "type": "uint256"
            },
            {
              "internalType": "uint256",
              "name": "price",
              "type": "uint256"
            },
            {
              "internalType": "uint256",
              "name": "spreadP",
              "type": "uint256"
            },
            {
              "internalType": "uint256",
              "name": "open",
              "type": "uint256"
            },
            {
              "internalType": "uint256",
              "name": "high",
              "type": "uint256"
            },
            {
              "internalType": "uint256",
              "name": "low",
              "type": "uint256"
            }
          ],
          "indexed": false,
          "internalType": "struct CallbacksInterfaceV6_4.AggregatorAnswer",
          "name": "a",
          "type": "tuple"
        },
        {
          "indexed": false,
          "internalType": "enum GNSPriceAggregatorV6_4.OrderType",
          "name": "orderType",
          "type": "uint8"
        }
      ],
      "name": "CallbackExecuted",
      "type": "event"
    },
    {
      "anonymous": false,
      "inputs": [
        {
          "indexed": true,
          "internalType": "bytes32",
          "name": "id",
          "type": "bytes32"
        }
      ],
      "name": "ChainlinkCancelled",
      "type": "event"
    },
    {
      "anonymous": false,
      "inputs": [
        {
          "indexed": true,
          "internalType": "bytes32",
          "name": "id",
          "type": "bytes32"
        }
      ],
      "name": "ChainlinkFulfilled",
      "type": "event"
    },
    {
      "anonymous": false,
      "inputs": [
        {
          "indexed": true,
          "internalType": "bytes32",
          "name": "id",
          "type": "bytes32"
        }
      ],
      "name": "ChainlinkRequested",
      "type": "event"
    },
    {
      "anonymous": false,
      "inputs": [
        {
          "indexed": false,
          "internalType": "uint256",
          "name": "index",
          "type": "uint256"
        },
        {
          "indexed": false,
          "internalType": "bytes32",
          "name": "jobId",
          "type": "bytes32"
        }
      ],
      "name": "JobIdUpdated",
      "type": "event"
    },
    {
      "anonymous": false,
      "inputs": [
        {
          "indexed": false,
          "internalType": "address",
          "name": "value",
          "type": "address"
        }
      ],
      "name": "LinkPriceFeedUpdated",
      "type": "event"
    },
    {
      "anonymous": false,
      "inputs": [
        {
          "indexed": false,
          "internalType": "uint256",
          "name": "value",
          "type": "uint256"
        }
      ],
      "name": "MinAnswersUpdated",
      "type": "event"
    },
    {
      "anonymous": false,
      "inputs": [
        {
          "indexed": false,
          "internalType": "uint256",
          "name": "index",
          "type": "uint256"
        },
        {
          "indexed": false,
          "internalType": "address",
          "name": "value",
          "type": "address"
        }
      ],
      "name": "NodeAdded",
      "type": "event"
    },
    {
      "anonymous": false,
      "inputs": [
        {
          "indexed": false,
          "internalType": "uint256",
          "name": "index",
          "type": "uint256"
        },
        {
          "indexed": false,
          "internalType": "address",
          "name": "oldNode",
          "type": "address"
        }
      ],
      "name": "NodeRemoved",
      "type": "event"
    },
    {
      "anonymous": false,
      "inputs": [
        {
          "indexed": false,
          "internalType": "uint256",
          "name": "index",
          "type": "uint256"
        },
        {
          "indexed": false,
          "internalType": "address",
          "name": "oldNode",
          "type": "address"
        },
        {
          "indexed": false,
          "internalType": "address",
          "name": "newNode",
          "type": "address"
        }
      ],
      "name": "NodeReplaced",
      "type": "event"
    },
    {
      "anonymous": false,
      "inputs": [
        {
          "indexed": false,
          "internalType": "address",
          "name": "value",
          "type": "address"
        }
      ],
      "name": "PairsStorageUpdated",
      "type": "event"
    },
    {
      "anonymous": false,
      "inputs": [
        {
          "indexed": false,
          "internalType": "bytes32",
          "name": "request",
          "type": "bytes32"
        },
        {
          "indexed": true,
          "internalType": "uint256",
          "name": "orderId",
          "type": "uint256"
        },
        {
          "indexed": true,
          "internalType": "address",
          "name": "node",
          "type": "address"
        },
        {
          "indexed": true,
          "internalType": "uint16",
          "name": "pairIndex",
          "type": "uint16"
        },
        {
          "indexed": false,
          "internalType": "uint256",
          "name": "price",
          "type": "uint256"
        },
        {
          "indexed": false,
          "internalType": "uint256",
          "name": "referencePrice",
          "type": "uint256"
        },
        {
          "indexed": false,
          "internalType": "uint112",
          "name": "linkFee",
          "type": "uint112"
        },
        {
          "indexed": false,
          "internalType": "bool",
          "name": "isLookback",
          "type": "bool"
        },
        {
          "indexed": false,
          "internalType": "bool",
          "name": "usedInMedian",
          "type": "bool"
        }
      ],
      "name": "PriceReceived",
      "type": "event"
    },
    {
      "anonymous": false,
      "inputs": [
        {
          "indexed": true,
          "internalType": "uint256",
          "name": "orderId",
          "type": "uint256"
        },
        {
          "indexed": true,
          "internalType": "bytes32",
          "name": "job",
          "type": "bytes32"
        },
        {
          "indexed": true,
          "internalType": "uint256",
          "name": "pairIndex",
          "type": "uint256"
        },
        {
          "indexed": false,
          "internalType": "enum GNSPriceAggregatorV6_4.OrderType",
          "name": "orderType",
          "type": "uint8"
        },
        {
          "indexed": false,
          "internalType": "uint256",
          "name": "nodesCount",
          "type": "uint256"
        },
        {
          "indexed": false,
          "internalType": "uint256",
          "name": "linkFeePerNode",
          "type": "uint256"
        },
        {
          "indexed": false,
          "internalType": "uint256",
          "name": "fromBlock",
          "type": "uint256"
        },
        {
          "indexed": false,
          "internalType": "bool",
          "name": "isLookback",
          "type": "bool"
        }
      ],
      "name": "PriceRequested",
      "type": "event"
    },
    {
      "inputs": [
        {
          "internalType": "address",
          "name": "a",
          "type": "address"
        }
      ],
      "name": "addNode",
      "outputs": [],
      "stateMutability": "nonpayable",
      "type": "function"
    },
    {
      "inputs": [],
      "name": "claimBackLink",
      "outputs": [],
      "stateMutability": "nonpayable",
      "type": "function"
    },
    {
      "inputs": [
        {
          "internalType": "bytes32",
          "name": "requestId",
          "type": "bytes32"
        },
        {
          "internalType": "uint256",
          "name": "priceData",
          "type": "uint256"
        }
      ],
      "name": "fulfill",
      "outputs": [],
      "stateMutability": "nonpayable",
      "type": "function"
    },
    {
      "inputs": [
        {
          "internalType": "uint256",
          "name": "pairIndex",
          "type": "uint256"
        },
        {
          "internalType": "enum GNSPriceAggregatorV6_4.OrderType",
          "name": "orderType",
          "type": "uint8"
        },
        {
          "internalType": "uint256",
          "name": "leveragedPosDai",
          "type": "uint256"
        },
        {
          "internalType": "uint256",
          "name": "fromBlock",
          "type": "uint256"
        }
      ],
      "name": "getPrice",
      "outputs": [
        {
          "internalType": "uint256",
          "name": "",
          "type": "uint256"
        }
      ],
      "stateMutability": "nonpayable",
      "type": "function"
    },
    {
      "inputs": [
        {
          "internalType": "uint256",
          "name": "",
          "type": "uint256"
        }
      ],
      "name": "jobIds",
      "outputs": [
        {
          "internalType": "bytes32",
          "name": "",
          "type": "bytes32"
        }
      ],
      "stateMutability": "view",
      "type": "function"
    },
    {
      "inputs": [
        {
          "internalType": "uint256",
          "name": "pairIndex",
          "type": "uint256"
        },
        {
          "internalType": "uint256",
          "name": "leveragedPosDai",
          "type": "uint256"
        }
      ],
      "name": "linkFee",
      "outputs": [
        {
          "internalType": "uint256",
          "name": "",
          "type": "uint256"
        }
      ],
      "stateMutability": "view",
      "type": "function"
    },
    {
      "inputs": [],
      "name": "linkPriceFeed",
      "outputs": [
        {
          "internalType": "contract ChainlinkFeedInterfaceV5",
          "name": "",
          "type": "address"
        }
      ],
      "stateMutability": "view",
      "type": "function"
    },
    {
      "inputs": [
        {
          "internalType": "uint256",
          "name": "",
          "type": "uint256"
        },
        {
          "internalType": "uint256",
          "name": "",
          "type": "uint256"
        }
      ],
      "name": "lookbackOrderAnswers",
      "outputs": [
        {
          "internalType": "uint64",
          "name": "open",
          "type": "uint64"
        },
        {
          "internalType": "uint64",
          "name": "high",
          "type": "uint64"
        },
        {
          "internalType": "uint64",
          "name": "low",
          "type": "uint64"
        },
        {
          "internalType": "uint64",
          "name": "ts",
          "type": "uint64"
        }
      ],
      "stateMutability": "view",
      "type": "function"
    },
    {
      "inputs": [],
      "name": "minAnswers",
      "outputs": [
        {
          "internalType": "uint256",
          "name": "",
          "type": "uint256"
        }
      ],
      "stateMutability": "view",
      "type": "function"
    },
    {
      "inputs": [
        {
          "internalType": "uint256",
          "name": "",
          "type": "uint256"
        }
      ],
      "name": "nodes",
      "outputs": [
        {
          "internalType": "address",
          "name": "",
          "type": "address"
        }
      ],
      "stateMutability": "view",
      "type": "function"
    },
    {
      "inputs": [
        {
          "internalType": "uint256",
          "name": "pairIndex",
          "type": "uint256"
        }
      ],
      "name": "openFeeP",
      "outputs": [
        {
          "internalType": "uint256",
          "name": "",
          "type": "uint256"
        }
      ],
      "stateMutability": "view",
      "type": "function"
    },
    {
      "inputs": [
        {
          "internalType": "bytes32",
          "name": "",
          "type": "bytes32"
        }
      ],
      "name": "orderIdByRequest",
      "outputs": [
        {
          "internalType": "uint256",
          "name": "",
          "type": "uint256"
        }
      ],
      "stateMutability": "view",
      "type": "function"
    },
    {
      "inputs": [
        {
          "internalType": "uint256",
          "name": "",
          "type": "uint256"
        }
      ],
      "name": "orders",
      "outputs": [
        {
          "internalType": "uint16",
          "name": "pairIndex",
          "type": "uint16"
        },
        {
          "internalType": "uint112",
          "name": "linkFeePerNode",
          "type": "uint112"
        },
        {
          "internalType": "enum GNSPriceAggregatorV6_4.OrderType",
          "name": "orderType",
          "type": "uint8"
        },
        {
          "internalType": "bool",
          "name": "active",
          "type": "bool"
        },
        {
          "internalType": "bool",
          "name": "isLookback",
          "type": "bool"
        }
      ],
      "stateMutability": "view",
      "type": "function"
    },
    {
      "inputs": [
        {
          "internalType": "uint256",
          "name": "",
          "type": "uint256"
        },
        {
          "internalType": "uint256",
          "name": "",
          "type": "uint256"
        }
      ],
      "name": "ordersAnswers",
      "outputs": [
        {
          "internalType": "uint256",
          "name": "",
          "type": "uint256"
        }
      ],
      "stateMutability": "view",
      "type": "function"
    },
    {
      "inputs": [],
      "name": "pairsStorage",
      "outputs": [
        {
          "internalType": "contract PairsStorageInterfaceV6",
          "name": "",
          "type": "address"
        }
      ],
      "stateMutability": "view",
      "type": "function"
    },
    {
      "inputs": [
        {
          "internalType": "uint256",
          "name": "index",
          "type": "uint256"
        }
      ],
      "name": "removeNode",
      "outputs": [],
      "stateMutability": "nonpayable",
      "type": "function"
    },
    {
      "inputs": [
        {
          "internalType": "uint256",
          "name": "index",
          "type": "uint256"
        },
        {
          "internalType": "address",
          "name": "a",
          "type": "address"
        }
      ],
      "name": "replaceNode",
      "outputs": [],
      "stateMutability": "nonpayable",
      "type": "function"
    },
    {
      "inputs": [
        {
          "internalType": "bytes32",
          "name": "jobId",
          "type": "bytes32"
        }
      ],
      "name": "setLimitJobId",
      "outputs": [],
      "stateMutability": "nonpayable",
      "type": "function"
    },
    {
      "inputs": [
        {
          "internalType": "bytes32",
          "name": "jobId",
          "type": "bytes32"
        }
      ],
      "name": "setMarketJobId",
      "outputs": [],
      "stateMutability": "nonpayable",
      "type": "function"
    },
    {
      "inputs": [],
      "name": "storageT",
      "outputs": [
        {
          "internalType": "contract StorageInterfaceV5",
          "name": "",
          "type": "address"
        }
      ],
      "stateMutability": "view",
      "type": "function"
    },
    {
      "inputs": [
        {
          "internalType": "contract ChainlinkFeedInterfaceV5",
          "name": "value",
          "type": "address"
        }
      ],
      "name": "updateLinkPriceFeed",
      "outputs": [],
      "stateMutability": "nonpayable",
      "type": "function"
    },
    {
      "inputs": [
        {
          "internalType": "uint256",
          "name": "value",
          "type": "uint256"
        }
      ],
      "name": "updateMinAnswers",
      "outputs": [],
      "stateMutability": "nonpayable",
      "type": "function"
    },
    {
      "inputs": [
        {
          "internalType": "contract PairsStorageInterfaceV6",
          "name": "value",
          "type": "address"
        }
      ],
      "name": "updatePairsStorage",
      "outputs": [],
      "stateMutability": "nonpayable",
      "type": "function"
    }
  ],
  "transactionHash": "0x1e2f74adcfa0bf49f47894591514908b9565fec39a9c2dfa14fcf5abd1f8e79d",
  "args": [
    "0x326C977E6efc84E512bB9C30f76E30c160eD06FB",
    "0x20dE1F4D1792453912A536011F26C06a5090ec34",
    "0xbD6067FF8a57C5aFAc82a9B5A8e4368cC382EF87",
    "0x1C2252aeeD50e0c9B64bDfF2735Ee3C932F5C408",
    3,
    [
      "0x98b40B4C65f6a007034e4F2377118D4B44dDcc39"
    ],
    [
      "0x3235656562353536636165343464366561303166623233363466616363613131",
      "0x3235656562353536636165343464366561303166623233363466616363613131"
    ]
  ],
  "numDeployments": 8,
  "solcInputHash": "7b2b4c0d65516b524667a4840d5fe435",
  "bytecode": "0x60a060405260016004553480156200001657600080fd5b506040516200439c3803806200439c8339810160408190526200003991620002be565b6001600160a01b038616158015906200005a57506001600160a01b03851615155b80156200006f57506001600160a01b03841615155b80156200007d575060038310155b80156200009657506200009260028462000419565b6001145b8015620000a4575060008251115b8015620000b957506001600160a01b03871615155b620000f95760405162461bcd60e51b815260206004820152600c60248201526b57524f4e475f504152414d5360a01b604482015260640160405180910390fd5b6001600160601b0319606087901b16608052600680546001600160a01b038781166001600160a01b031992831617909255600780549287169290911691909117905560088390558151620001559060099060208501906200018e565b5062000165600a826002620001f8565b50600280546001600160a01b0319166001600160a01b038916179055505050505050506200046b565b828054828255906000526020600020908101928215620001e6579160200282015b82811115620001e657825182546001600160a01b0319166001600160a01b03909116178255602090920191600190910190620001af565b50620001f492915062000229565b5090565b8260028101928215620001e6579160200282015b82811115620001e65782518255916020019190600101906200020c565b5b80821115620001f457600081556001016200022a565b600082601f8301126200025257600080fd5b604080519081016001600160401b03811182821017156200027757620002776200043c565b80604052508083856040860111156200028f57600080fd5b60005b6002811015620002b357815183526020928301929091019060010162000292565b509195945050505050565b6000806000806000806000610100888a031215620002db57600080fd5b8751620002e88162000452565b80975050602080890151620002fd8162000452565b60408a0151909750620003108162000452565b60608a0151909650620003238162000452565b60808a015160a08b015191965094506001600160401b03808211156200034857600080fd5b818b0191508b601f8301126200035d57600080fd5b8151818111156200037257620003726200043c565b8060051b604051601f19603f830116810181811085821117156200039a576200039a6200043c565b806040525080935082815285810193508585018f87848801011115620003bf57600080fd5b600095505b83861015620003f25780519250620003dc8362000452565b82855260019590950194938601938601620003c4565b508097505050505050506200040b8960c08a0162000240565b905092959891949750929550565b6000826200043757634e487b7160e01b600052601260045260246000fd5b500690565b634e487b7160e01b600052604160045260246000fd5b6001600160a01b03811681146200046857600080fd5b50565b60805160601c613eb0620004ec60003960008181610186015281816103f101528181610b2f01528181610f20015281816111d8015281816116ce0152818161179101528181611833015281816119bd01528181611b0801528181611eb301528181611fe80152818161217f015281816122f701526124cf0152613eb06000f3fe608060405234801561001057600080fd5b506004361061014c5760003560e01c806393d7fe2c116100c3578063dcdfb4311161007c578063dcdfb43114610346578063e0bb91c214610366578063e21e5fe014610379578063f5ed447c1461038c578063fd2882801461039f578063ffd740df146103b257600080fd5b806393d7fe2c1461028b5780639d95f1cc1461029e578063a85c38ef146102b1578063b9e0336f14610317578063bea167581461032a578063d31273ca1461033357600080fd5b80634162cc88116101155780634162cc88146101e35780634357855e146102045780634c37a9d6146102175780636938c05d1461025d5780636f37d2631461027057806385f276b81461027857600080fd5b8062912b371461015157806316fff074146101815780631c53c280146101a857806335b03c17146101bb57806340e9eda2146101ce575b600080fd5b600754610164906001600160a01b031681565b6040516001600160a01b0390911681526020015b60405180910390f35b6101647f000000000000000000000000000000000000000000000000000000000000000081565b6101646101b6366004613705565b6103c5565b600654610164906001600160a01b031681565b6101e16101dc3660046136a9565b6103ef565b005b6101f66101f1366004613705565b610534565b604051908152602001610178565b6101e161021236600461371e565b61054b565b61022a61022536600461371e565b61117f565b604080516001600160401b0395861681529385166020850152918416918301919091529091166060820152608001610178565b6101f661026b36600461387d565b6111d4565b6101e16116cc565b6101e1610286366004613705565b6119bb565b6101f661029936600461371e565b611ad5565b6101e16102ac3660046136a9565b611b06565b6103066102bf366004613705565b600c6020526000908152604090205461ffff8116906001600160701b03620100008204169060ff600160801b8204811691600160881b8104821691600160901b9091041685565b604051610178959493929190613b47565b6101f661032536600461371e565b611d59565b6101f660085481565b6101e16103413660046136a9565b611eb1565b6101f6610354366004613705565b600d6020526000908152604090205481565b6101e1610374366004613705565b611fe6565b6101f6610387366004613705565b612100565b6101e161039a366004613705565b61217d565b6101e16103ad36600461384d565b6122f5565b6101e16103c0366004613705565b6124cd565b600981815481106103d557600080fd5b6000918252602090912001546001600160a01b0316905081565b7f00000000000000000000000000000000000000000000000000000000000000006001600160a01b03166312d43a516040518163ffffffff1660e01b815260040160206040518083038186803b15801561044857600080fd5b505afa15801561045c573d6000803e3d6000fd5b505050506040513d601f19601f8201168201806040525081019061048091906136c6565b6001600160a01b0316336001600160a01b0316146104b95760405162461bcd60e51b81526004016104b090613a71565b60405180910390fd5b6001600160a01b0381166104df5760405162461bcd60e51b81526004016104b090613a93565b600680546001600160a01b0319166001600160a01b0383169081179091556040519081527f477e87af277e7755f85267ef7c6b77cd28610c2c8c2923acdf55fa5b63f18b77906020015b60405180910390a150565b600a816002811061054457600080fd5b0154905081565b60008281526005602052604090205482906001600160a01b031633146105c45760405162461bcd60e51b815260206004820152602860248201527f536f75726365206d75737420626520746865206f7261636c65206f6620746865604482015267081c995c5d595cdd60c21b60648201526084016104b0565b60008181526005602052604080822080546001600160a01b03191690555182917f7cc135e0cebb02c3480ae5d74d377283180a2601f8f644edf7987b009316c63a91a26000838152600d60209081526040808320805490849055808452600c8352818420825160a081018452815461ffff811682526201000081046001600160701b0316958201959095529194939192909190830190600160801b900460ff16600381111561067557610675613e0d565b600381111561068657610686613e0d565b8152905460ff600160881b8204811615156020840152600160901b909104161515604091820152600654825191516307aa801760e21b815261ffff909216600483015291925060009182916001600160a01b0390911690631eaa005c9060240160806040518083038186803b1580156106fe57600080fd5b505afa158015610712573d6000803e3d6000fd5b505050506040513d601f19601f8201168201806040525081019061073691906137b3565b90506000610743826126ef565b905083606001511561110057836080015115610d1357604080516080810182526000808252602082018190528183018190526060820152905163635e061d60e11b815260048101899052735aed3A370E240F7A4888b0f25a6dDc25d110155D9063c6bc0c3a9060240160806040518083038186803b1580156107c457600080fd5b505af41580156107d8573d6000803e3d6000fd5b505050506040513d601f19601f820116820180604052508101906107fc91906138be565b6001600160401b0390811660608601529081166040850152908116602084018190529116825215801561083a575060408101516001600160401b0316155b8061089d575080600001516001600160401b031681602001516001600160401b031610158015610884575080600001516001600160401b031681604001516001600160401b031611155b801561089d5750600081604001516001600160401b0316115b6108da5760405162461bcd60e51b815260206004820152600e60248201526d494e56414c49445f43414e444c4560901b60448201526064016104b0565b6108f681602001516001600160401b03168385606001516128a8565b8015610919575061091981604001516001600160401b03168385606001516128a8565b15610d0d576000868152600f6020908152604080832080546001818101835582865294849020865191018054948701519387015160608801516001600160401b03908116600160c01b026001600160c01b03928216600160801b02929092166fffffffffffffffffffffffffffffffff968216600160401b026001600160801b03199098169190941617959095179390931617929092179055600854815492965090911415610d0b576109fb6040518060c001604052806000815260200160008152602001600081526020016000815260200160008152602001600081525090565b878152815460408051602080840282018101909252828152610a9192909185919060009084015b82821015610a8857600084815260209081902060408051608081018252918501546001600160401b038082168452600160401b8204811684860152600160801b8204811692840192909252600160c01b9004166060820152825260019092019101610a22565b50505050612910565b60a084015260808301526060820152600654875160405163a1d54e9b60e01b815261ffff90911660048201526001600160a01b039091169063a1d54e9b9060240160206040518083038186803b158015610aea57600080fd5b505afa158015610afe573d6000803e3d6000fd5b505050506040513d601f19601f82011682018060405250810190610b229190613834565b81604001818152505060007f00000000000000000000000000000000000000000000000000000000000000006001600160a01b031662b127836040518163ffffffff1660e01b815260040160206040518083038186803b158015610b8557600080fd5b505afa158015610b99573d6000803e3d6000fd5b505050506040513d601f19601f82011682018060405250810190610bbd91906136c6565b9050600288604001516003811115610bd757610bd7613e0d565b1415610c405760405163168fdc8160e31b81526001600160a01b0382169063b47ee40890610c09908590600401613ab4565b600060405180830381600087803b158015610c2357600080fd5b505af1158015610c37573d6000803e3d6000fd5b50505050610c9f565b6040516323f7197b60e01b81526001600160a01b038216906323f7197b90610c6c908590600401613ab4565b600060405180830381600087803b158015610c8657600080fd5b505af1158015610c9a573d6000803e3d6000fd5b505050505b7fce3ae2fe07e497ba552d6485a40eed46cfb3320f001027891efeb1128dba0350828960400151604051610cd4929190613af7565b60405180910390a16000898152600c60209081526040808320805460ff60881b19169055600f9091528120610d0891613581565b50505b505b50611100565b60405163635e061d60e11b815260048101889052600090735aed3A370E240F7A4888b0f25a6dDc25d110155D9063c6bc0c3a9060240160806040518083038186803b158015610d6157600080fd5b505af4158015610d75573d6000803e3d6000fd5b505050506040513d601f19601f82011682018060405250810190610d9991906138be565b5050509050610db6816001600160401b03168385606001516128a8565b156110fe576000868152600e602090815260408220805460018181018355828552929093206001600160401b038516930192909255600854825491965014156110fc57610e326040518060c001604052806000815260200160008152602001600081526020016000815260200160008152602001600081525090565b878152815460408051602080840282018101909252828152610e8c929091859190830182828015610e8257602002820191906000526020600020905b815481526020019060010190808311610e6e575b5050505050612c91565b6020820152600654875160405163a1d54e9b60e01b815261ffff90911660048201526001600160a01b039091169063a1d54e9b9060240160206040518083038186803b158015610edb57600080fd5b505afa158015610eef573d6000803e3d6000fd5b505050506040513d601f19601f82011682018060405250810190610f139190613834565b81604001818152505060007f00000000000000000000000000000000000000000000000000000000000000006001600160a01b031662b127836040518163ffffffff1660e01b815260040160206040518083038186803b158015610f7657600080fd5b505afa158015610f8a573d6000803e3d6000fd5b505050506040513d601f19601f82011682018060405250810190610fae91906136c6565b9050600088604001516003811115610fc857610fc8613e0d565b1415611031576040516361ba6c3d60e01b81526001600160a01b038216906361ba6c3d90610ffa908590600401613ab4565b600060405180830381600087803b15801561101457600080fd5b505af1158015611028573d6000803e3d6000fd5b50505050611090565b604051637d490caf60e01b81526001600160a01b03821690637d490caf9061105d908590600401613ab4565b600060405180830381600087803b15801561107757600080fd5b505af115801561108b573d6000803e3d6000fd5b505050505b7fce3ae2fe07e497ba552d6485a40eed46cfb3320f001027891efeb1128dba03508289604001516040516110c5929190613af7565b60405180910390a16000898152600c60209081526040808320805460ff60881b19169055600e90915281206110f991613581565b50505b505b505b8351602080860151608080880151604080518e81529485018d90528481018790526001600160701b03909316606085015215159083015285151560a08301525161ffff90921691339188917fdc6ff5906123aad281d8e734bb64101cea661d614a568b9bca20e7ac2ae7f3549181900360c00190a45050505050505050565b600f602052816000526040600020818154811061119b57600080fd5b6000918252602090912001546001600160401b038082169350600160401b820481169250600160801b8204811691600160c01b90041684565b60007f00000000000000000000000000000000000000000000000000000000000000006001600160a01b031663ec44acf26040518163ffffffff1660e01b815260040160206040518083038186803b15801561122f57600080fd5b505afa158015611243573d6000803e3d6000fd5b505050506040513d601f19601f8201168201806040525081019061126791906136c6565b6001600160a01b0316336001600160a01b0316146112b65760405162461bcd60e51b815260206004820152600c60248201526b54524144494e475f4f4e4c5960a01b60448201526064016104b0565b61ffff8511156112f85760405162461bcd60e51b815260206004820152600d60248201526c504149525f4f564552464c4f5760981b60448201526064016104b0565b6000600285600381111561130e5761130e613e0d565b148061132b5750600385600381111561132957611329613e0d565b145b905060008161133c57600a54611340565b600b545b9050600061135682306321abc2af60e11b612d4f565b600654604051630c0be07f60e21b8152600481018b90529192506000918291829182916001600160a01b03169063302f81fc90602401600060405180830381600087803b1580156113a657600080fd5b505af11580156113ba573d6000803e3d6000fd5b505050506040513d6000823e601f3d908101601f191682016040526113e29190810190613740565b9350509250925080935061141d6040518060400160405280600481526020016366726f6d60e01b8152508487612d749092919063ffffffff16565b604080518082019091526002815261746f60f01b602082015261144290869084612d74565b86156114745760408051808201909152600981526866726f6d426c6f636b60b81b60208201526114749086908b612d97565b505050600080600060098054806020026020016040519081016040528092919081815260200182805480156114d257602002820191906000526020600020905b81546001600160a01b031681526001909101906020018083116114b4575b5050505050905080519250826114e88d8c611d59565b6114f29190613bcc565b91506001600160701b0382111561153b5760405162461bcd60e51b815260206004820152600d60248201526c4c494e4b5f4f564552464c4f5760981b60448201526064016104b0565b6040518060a001604052808d61ffff168152602001836001600160701b031681526020018c600381111561157157611571613e0d565b815260016020808301919091528915156040928301526000878152600c825282902083518154928501516001600160701b031662010000026001600160801b031990931661ffff9091161791909117808255918301519091829060ff60801b1916600160801b8360038111156115e9576115e9613e0d565b0217905550606082015181546080909301511515600160901b0260ff60901b19911515600160881b029190911661ffff60881b199093169290921791909117905560005b838110156116775784600d600061165e85858151811061164f5761164f613e39565b60200260200101518a88612db5565b815260208101919091526040016000205560010161162d565b50508a85847ffadf91896d9352ab1e350a349050907f966d8ea7f38c1a5be50f2a379ef4fcbe8d86868e8d6040516116b3959493929190613a3f565b60405180910390a450909450505050505b949350505050565b7f00000000000000000000000000000000000000000000000000000000000000006001600160a01b03166312d43a516040518163ffffffff1660e01b815260040160206040518083038186803b15801561172557600080fd5b505afa158015611739573d6000803e3d6000fd5b505050506040513d601f19601f8201168201806040525081019061175d91906136c6565b6001600160a01b0316336001600160a01b03161461178d5760405162461bcd60e51b81526004016104b090613a71565b60007f00000000000000000000000000000000000000000000000000000000000000006001600160a01b031663fece4eac6040518163ffffffff1660e01b815260040160206040518083038186803b1580156117e857600080fd5b505afa1580156117fc573d6000803e3d6000fd5b505050506040513d601f19601f8201168201806040525081019061182091906136c6565b9050806001600160a01b031663a9059cbb7f00000000000000000000000000000000000000000000000000000000000000006001600160a01b03166312d43a516040518163ffffffff1660e01b815260040160206040518083038186803b15801561188a57600080fd5b505afa15801561189e573d6000803e3d6000fd5b505050506040513d601f19601f820116820180604052508101906118c291906136c6565b6040516370a0823160e01b81523060048201526001600160a01b038516906370a082319060240160206040518083038186803b15801561190157600080fd5b505afa158015611915573d6000803e3d6000fd5b505050506040513d601f19601f820116820180604052508101906119399190613834565b6040516001600160e01b031960e085901b1681526001600160a01b0390921660048301526024820152604401602060405180830381600087803b15801561197f57600080fd5b505af1158015611993573d6000803e3d6000fd5b505050506040513d601f19601f820116820180604052508101906119b791906136e3565b5050565b7f00000000000000000000000000000000000000000000000000000000000000006001600160a01b03166312d43a516040518163ffffffff1660e01b815260040160206040518083038186803b158015611a1457600080fd5b505afa158015611a28573d6000803e3d6000fd5b505050506040513d601f19601f82011682018060405250810190611a4c91906136c6565b6001600160a01b0316336001600160a01b031614611a7c5760405162461bcd60e51b81526004016104b090613a71565b80611a995760405162461bcd60e51b81526004016104b090613a93565b600a8190556040805160008152602081018390527f764c19c693af0da42ec6c6bed68a2dd1a2fa93d24785fcfce58ffa29ae3136069101610529565b600e6020528160005260406000208181548110611af157600080fd5b90600052602060002001600091509150505481565b7f00000000000000000000000000000000000000000000000000000000000000006001600160a01b03166312d43a516040518163ffffffff1660e01b815260040160206040518083038186803b158015611b5f57600080fd5b505afa158015611b73573d6000803e3d6000fd5b505050506040513d601f19601f82011682018060405250810190611b9791906136c6565b6001600160a01b0316336001600160a01b031614611bc75760405162461bcd60e51b81526004016104b090613a71565b6001600160a01b038116611bed5760405162461bcd60e51b81526004016104b090613a93565b600954601411611c325760405162461bcd60e51b815260206004820152601060248201526f4d41585f4f5241434c455f4e4f44455360801b60448201526064016104b0565b60005b600954811015611cc257816001600160a01b031660098281548110611c5c57611c5c613e39565b6000918252602090912001546001600160a01b03161415611cb05760405162461bcd60e51b815260206004820152600e60248201526d1053149150511657d31254d5115160921b60448201526064016104b0565b80611cba81613db2565b915050611c35565b50600980546001808201835560008390527f6e1540171b6c0c960b71a7020d9f60077f6af931a8bbf590da0223dacf75c7af90910180546001600160a01b0319166001600160a01b03851617905590547fadfedad3d82b3775bf2dbea70a01327d1f26c0b868eb8ce0963a6e9af1003e8591611d3d91613d6f565b604080519182526001600160a01b038416602083015201610529565b600080600760009054906101000a90046001600160a01b03166001600160a01b031663feaf968c6040518163ffffffff1660e01b815260040160a06040518083038186803b158015611daa57600080fd5b505afa158015611dbe573d6000803e3d6000fd5b505050506040513d601f19601f82011682018060405250810190611de29190613912565b505060065460405163f7acbabd60e01b815260048101899052929450606493506402540be4009285925087916001600160a01b03169063f7acbabd9060240160206040518083038186803b158015611e3957600080fd5b505afa158015611e4d573d6000803e3d6000fd5b505050506040513d601f19601f82011682018060405250810190611e719190613834565b611e7b9190613d50565b611e89906305f5e100613d50565b611e939190613bcc565b611e9d9190613bcc565b611ea79190613bcc565b9150505b92915050565b7f00000000000000000000000000000000000000000000000000000000000000006001600160a01b03166312d43a516040518163ffffffff1660e01b815260040160206040518083038186803b158015611f0a57600080fd5b505afa158015611f1e573d6000803e3d6000fd5b505050506040513d601f19601f82011682018060405250810190611f4291906136c6565b6001600160a01b0316336001600160a01b031614611f725760405162461bcd60e51b81526004016104b090613a71565b6001600160a01b038116611f985760405162461bcd60e51b81526004016104b090613a93565b600780546001600160a01b0319166001600160a01b0383169081179091556040519081527f2504020720d4f3f4c5a7010cde1f1e76e9a22857f308ef695d666ed1237bf8a490602001610529565b7f00000000000000000000000000000000000000000000000000000000000000006001600160a01b03166312d43a516040518163ffffffff1660e01b815260040160206040518083038186803b15801561203f57600080fd5b505afa158015612053573d6000803e3d6000fd5b505050506040513d601f19601f8201168201806040525081019061207791906136c6565b6001600160a01b0316336001600160a01b0316146120a75760405162461bcd60e51b81526004016104b090613a71565b806120c45760405162461bcd60e51b81526004016104b090613a93565b600b8190556040805160018152602081018390527f764c19c693af0da42ec6c6bed68a2dd1a2fa93d24785fcfce58ffa29ae3136069101610529565b600654604051638251135b60e01b8152600481018390526000916001600160a01b031690638251135b9060240160206040518083038186803b15801561214557600080fd5b505afa158015612159573d6000803e3d6000fd5b505050506040513d601f19601f82011682018060405250810190611eab9190613834565b7f00000000000000000000000000000000000000000000000000000000000000006001600160a01b03166312d43a516040518163ffffffff1660e01b815260040160206040518083038186803b1580156121d657600080fd5b505afa1580156121ea573d6000803e3d6000fd5b505050506040513d601f19601f8201168201806040525081019061220e91906136c6565b6001600160a01b0316336001600160a01b03161461223e5760405162461bcd60e51b81526004016104b090613a71565b600381101561227d5760405162461bcd60e51b815260206004820152600b60248201526a4d494e5f414e535745525360a81b60448201526064016104b0565b612288600282613dcd565b6001146122c05760405162461bcd60e51b81526004016104b09060208082526004908201526322ab22a760e11b604082015260600190565b60088190556040518181527f230365d79885046a48c9158f0e4840ab95929bbebf5de4be23f7ce5f91a97c6590602001610529565b7f00000000000000000000000000000000000000000000000000000000000000006001600160a01b03166312d43a516040518163ffffffff1660e01b815260040160206040518083038186803b15801561234e57600080fd5b505afa158015612362573d6000803e3d6000fd5b505050506040513d601f19601f8201168201806040525081019061238691906136c6565b6001600160a01b0316336001600160a01b0316146123b65760405162461bcd60e51b81526004016104b090613a71565b60095482106123f55760405162461bcd60e51b815260206004820152600b60248201526a0aea49e9c8ebe929c888ab60ab1b60448201526064016104b0565b6001600160a01b03811661241b5760405162461bcd60e51b81526004016104b090613a93565b7f945eb5535c35fb8b656c5c6b7d8bb9d9deba3a44d202bd2b53d58aac4f43db04826009848154811061245057612450613e39565b60009182526020918290200154604080519384526001600160a01b039182169284019290925284169082015260600160405180910390a1806009838154811061249b5761249b613e39565b9060005260206000200160006101000a8154816001600160a01b0302191690836001600160a01b031602179055505050565b7f00000000000000000000000000000000000000000000000000000000000000006001600160a01b03166312d43a516040518163ffffffff1660e01b815260040160206040518083038186803b15801561252657600080fd5b505afa15801561253a573d6000803e3d6000fd5b505050506040513d601f19601f8201168201806040525081019061255e91906136c6565b6001600160a01b0316336001600160a01b03161461258e5760405162461bcd60e51b81526004016104b090613a71565b60095481106125cd5760405162461bcd60e51b815260206004820152600b60248201526a0aea49e9c8ebe929c888ab60ab1b60448201526064016104b0565b7f03082ced7b8d3c831a021af877c172ae1e0257c3522a135e4d71613438461156816009838154811061260257612602613e39565b60009182526020909120015460405161263792916001600160a01b0316909182526001600160a01b0316602082015260400190565b60405180910390a16009805461264f90600190613d6f565b8154811061265f5761265f613e39565b600091825260209091200154600980546001600160a01b03909216918390811061268b5761268b613e39565b9060005260206000200160006101000a8154816001600160a01b0302191690836001600160a01b0316021790555060098054806126ca576126ca613e23565b600082815260209020810160001990810180546001600160a01b031916905501905550565b80516000906001600160a01b031661270957506000919050565b60008083600001516001600160a01b031663feaf968c6040518163ffffffff1660e01b815260040160a06040518083038186803b15801561274957600080fd5b505afa15801561275d573d6000803e3d6000fd5b505050506040513d601f19601f820116820180604052508101906127819190613912565b5091935060009250612791915050565b846040015160028111156127a7576127a7613e0d565b14156127d2576305f5e1006127c16402540be40083613ccb565b6127cb9190613b9e565b91506128a1565b6001846040015160028111156127ea576127ea613e0d565b141561280457806127c16402540be4006305f5e100613ccb565b600084602001516001600160a01b031663feaf968c6040518163ffffffff1660e01b815260040160a06040518083038186803b15801561284357600080fd5b505afa158015612857573d6000803e3d6000fd5b505050506040513d601f19601f8201168201806040525081019061287b9190613912565b505050915050806402540be400836128939190613ccb565b61289d9190613b9e565b9250505b5092915050565b60008315806128b5575082155b80612906575081836402540be400858710156128da576128d58787613d6f565b6128e4565b6128e48688613d6f565b6128ee9190613d50565b6128f9906064613d50565b6129039190613bcc565b11155b90505b9392505050565b600080600080845190506000816001600160401b0381111561293457612934613e4f565b60405190808252806020026020018201604052801561295d578160200160208202803683370190505b5090506000826001600160401b0381111561297a5761297a613e4f565b6040519080825280602002602001820160405280156129a3578160200160208202803683370190505b5090506000836001600160401b038111156129c0576129c0613e4f565b6040519080825280602002602001820160405280156129e9578160200160208202803683370190505b50905060005b84811015612acd57888181518110612a0957612a09613e39565b6020026020010151600001516001600160401b0316848281518110612a3057612a30613e39565b602002602001018181525050888181518110612a4e57612a4e613e39565b6020026020010151602001516001600160401b0316838281518110612a7557612a75613e39565b602002602001018181525050888181518110612a9357612a93613e39565b6020026020010151604001516001600160401b0316828281518110612aba57612aba613e39565b60209081029190910101526001016129ef565b50612ada83600086612e48565b612ae682600086612e48565b612af281600086612e48565b6000612aff600286613dcd565b1590506000612b0f600287613bcc565b905081612b3557848181518110612b2857612b28613e39565b6020026020010151612b8b565b6002858281518110612b4957612b49613e39565b602002602001015186600184612b5f9190613d6f565b81518110612b6f57612b6f613e39565b6020026020010151612b819190613b86565b612b8b9190613bcc565b985081612bb157838181518110612ba457612ba4613e39565b6020026020010151612c07565b6002848281518110612bc557612bc5613e39565b602002602001015185600184612bdb9190613d6f565b81518110612beb57612beb613e39565b6020026020010151612bfd9190613b86565b612c079190613bcc565b975081612c2d57828181518110612c2057612c20613e39565b6020026020010151612c83565b6002838281518110612c4157612c41613e39565b602002602001015184600184612c579190613d6f565b81518110612c6757612c67613e39565b6020026020010151612c799190613b86565b612c839190613bcc565b989a97995050505050505050565b6000612ca08260008451612e48565b60028251612cae9190613dcd565b15612cdf578160028351612cc29190613bcc565b81518110612cd257612cd2613e39565b6020026020010151611eab565b60028260028451612cf09190613bcc565b81518110612d0057612d00613e39565b602002602001015183600160028651612d199190613bcc565b612d239190613d6f565b81518110612d3357612d33613e39565b6020026020010151612d459190613b86565b611eab9190613bcc565b612d576135a2565b612d5f6135a2565b612d6b81868686612f0b565b95945050505050565b6080830151612d839083612f48565b6080830151612d929082612f48565b505050565b6080830151612da69083612f48565b6080830151612d929082612f5f565b600454600090612dc6816001613b86565b600455835160408086015160808701515191516000936320214ca360e11b93612dfe9386938493923092918a916001916024016139b0565b60408051601f198184030181529190526020810180516001600160e01b03166001600160e01b0319909316929092179091529050612e3e86838684612f84565b9695505050505050565b808210612e5457505050565b60008290506000848281518110612e6d57612e6d613e39565b602002602001015190506000846001612e869190613b86565b90505b83811015612ed85781868281518110612ea457612ea4613e39565b60200260200101511015612ec857612ec88682612ec086613db2565b9550856130f1565b612ed181613db2565b9050612e89565b50612ee48585846130f1565b612eef858584612e48565b612f0485612efe846001613b86565b85612e48565b5050505050565b612f136135a2565b612f238560800151610100613164565b50509183526001600160a01b031660208301526001600160e01b031916604082015290565b612f5582600383516131c9565b612d9282826132d6565b6001600160401b03811115612f78576119b782826132fd565b6119b7826000836131c9565b6040516bffffffffffffffffffffffff193060601b1660208201526034810184905260009060540160408051808303601f1901815282825280516020918201206000818152600590925291812080546001600160a01b0319166001600160a01b038a1617905590925082917fb5e6e01e79f91267dc17b4e6314d5d4d03593d2ceee0fbb452b750bd70ea5af99190a2600254604051630200057560e51b81526001600160a01b0390911690634000aea09061304790889087908790600401613a18565b602060405180830381600087803b15801561306157600080fd5b505af1158015613075573d6000803e3d6000fd5b505050506040513d601f19601f8201168201806040525081019061309991906136e3565b6116c45760405162461bcd60e51b815260206004820152602360248201527f756e61626c6520746f207472616e73666572416e6443616c6c20746f206f7261604482015262636c6560e81b60648201526084016104b0565b82818151811061310357613103613e39565b602002602001015183838151811061311d5761311d613e39565b602002602001015184848151811061313757613137613e39565b6020026020010185848151811061315057613150613e39565b602090810291909101019190915252505050565b604080518082019091526060815260006020820152613184602083613dcd565b156131ac57613194602083613dcd565b61319f906020613d6f565b6131a99083613b86565b91505b506020828101829052604080518085526000815290920101905290565b6017816001600160401b0316116131f3576131ed8360e0600585901b168317613334565b50505050565b60ff816001600160401b03161161322f57613219836018611fe0600586901b1617613334565b506131ed836001600160401b0383166001613359565b61ffff816001600160401b03161161326c57613256836019611fe0600586901b1617613334565b506131ed836001600160401b0383166002613359565b63ffffffff816001600160401b0316116132ab5761329583601a611fe0600586901b1617613334565b506131ed836001600160401b0383166004613359565b6132c083601b611fe0600586901b1617613334565b506131ed836001600160401b0383166008613359565b6040805180820190915260608152600060208201526129098384600001515184855161337f565b6133088260c2613334565b506119b7828260405160200161332091815260200190565b604051602081830303815290604052613469565b6040805180820190915260608152600060208201526129098384600001515184613476565b6040805180820190915260608152600060208201526129068485600001515185856134d2565b60408051808201909152606081526000602082015282518211156133a257600080fd5b60208501516133b18386613b86565b11156133e4576133e4856133d4876020015187866133cf9190613b86565b613553565b6133df906002613d50565b61356a565b6000808651805187602083010193508088870111156134035787860182525b505050602084015b602084106134435780518252613422602083613b86565b915061342f602082613b86565b905061343c602085613d6f565b935061340b565b51815160001960208690036101000a019081169019919091161790525083949350505050565b612f5582600283516131c9565b604080518082019091526060815260006020820152836020015183106134ab576134ab84856020015160026133df9190613d50565b8351805160208583010184815350808514156134c8576001810182525b5093949350505050565b60408051808201909152606081526000602082015260208501516134f68584613b86565b111561350a5761350a856133d48685613b86565b6000600161351a84610100613c23565b6135249190613d6f565b90508551838682010185831982511617815250805184870111156135485783860181525b509495945050505050565b600081831115613564575081611eab565b50919050565b81516135768383613164565b506131ed83826132d6565b508054600082559060005260206000209081019061359f91906135dd565b50565b6040805160a0810182526000808252602080830182905282840182905260608084018390528451808601909552845283015290608082015290565b5b808211156135f257600081556001016135de565b5090565b600082601f83011261360757600080fd5b81516001600160401b038082111561362157613621613e4f565b604051601f8301601f19908116603f0116810190828211818310171561364957613649613e4f565b8160405283815286602085880101111561366257600080fd5b612e3e846020830160208901613d86565b80516001600160401b038116811461368a57600080fd5b919050565b805169ffffffffffffffffffff8116811461368a57600080fd5b6000602082840312156136bb57600080fd5b813561290981613e65565b6000602082840312156136d857600080fd5b815161290981613e65565b6000602082840312156136f557600080fd5b8151801515811461290957600080fd5b60006020828403121561371757600080fd5b5035919050565b6000806040838503121561373157600080fd5b50508035926020909101359150565b6000806000806080858703121561375657600080fd5b84516001600160401b038082111561376d57600080fd5b613779888389016135f6565b9550602087015191508082111561378f57600080fd5b5061379c878288016135f6565b604087015160609097015195989097509350505050565b6000608082840312156137c557600080fd5b604051608081018181106001600160401b03821117156137e7576137e7613e4f565b60405282516137f581613e65565b8152602083015161380581613e65565b602082015260408301516003811061381c57600080fd5b60408201526060928301519281019290925250919050565b60006020828403121561384657600080fd5b5051919050565b6000806040838503121561386057600080fd5b82359150602083013561387281613e65565b809150509250929050565b6000806000806080858703121561389357600080fd5b843593506020850135600481106138a957600080fd5b93969395505050506040820135916060013590565b600080600080608085870312156138d457600080fd5b6138dd85613673565b93506138eb60208601613673565b92506138f960408601613673565b915061390760608601613673565b905092959194509250565b600080600080600060a0868803121561392a57600080fd5b6139338661368f565b94506020860151935060408601519250606086015191506139566080870161368f565b90509295509295909350565b6000815180845261397a816020860160208601613d86565b601f01601f19169290920160200192915050565b600481106139ac57634e487b7160e01b600052602160045260246000fd5b9052565b6001600160a01b0389811682526020820189905260408201889052861660608201526001600160e01b03198516608082015260a0810184905260c0810183905261010060e08201819052600090613a0983820185613962565b9b9a5050505050505050505050565b60018060a01b0384168152826020820152606060408201526000612d6b6060830184613962565b60a08101613a4d828861398e565b85602083015284604083015283606083015282151560808301529695505050505050565b602080825260089082015267474f565f4f4e4c5960c01b604082015260600190565b602080825260079082015266056414c55455f360cc1b604082015260600190565b60c08101611eab8284805182526020810151602083015260408101516040830152606081015160608301526080810151608083015260a081015160a08301525050565b60e08101613b3a8285805182526020810151602083015260408101516040830152606081015160608301526080810151608083015260a081015160a08301525050565b61290960c083018461398e565b61ffff861681526001600160701b038516602082015260a08101613b6e604083018661398e565b92151560608201529015156080909101529392505050565b60008219821115613b9957613b99613de1565b500190565b600082613bad57613bad613df7565b600160ff1b821460001984141615613bc757613bc7613de1565b500590565b600082613bdb57613bdb613df7565b500490565b600181815b80851115613c1b578160001904821115613c0157613c01613de1565b80851615613c0e57918102915b93841c9390800290613be5565b509250929050565b60006129098383600082613c3957506001611eab565b81613c4657506000611eab565b8160018114613c5c5760028114613c6657613c82565b6001915050611eab565b60ff841115613c7757613c77613de1565b50506001821b611eab565b5060208310610133831016604e8410600b8410161715613ca5575081810a611eab565b613caf8383613be0565b8060001904821115613cc357613cc3613de1565b029392505050565b60006001600160ff1b0381841382841380821686840486111615613cf157613cf1613de1565b600160ff1b6000871282811687830589121615613d1057613d10613de1565b60008712925087820587128484161615613d2c57613d2c613de1565b87850587128184161615613d4257613d42613de1565b505050929093029392505050565b6000816000190483118215151615613d6a57613d6a613de1565b500290565b600082821015613d8157613d81613de1565b500390565b60005b83811015613da1578181015183820152602001613d89565b838111156131ed5750506000910152565b6000600019821415613dc657613dc6613de1565b5060010190565b600082613ddc57613ddc613df7565b500690565b634e487b7160e01b600052601160045260246000fd5b634e487b7160e01b600052601260045260246000fd5b634e487b7160e01b600052602160045260246000fd5b634e487b7160e01b600052603160045260246000fd5b634e487b7160e01b600052603260045260246000fd5b634e487b7160e01b600052604160045260246000fd5b6001600160a01b038116811461359f57600080fdfea26469706673582212205cf42dda98e01ee8da1fcae166b6e5929e5ec6558c798aa5aa46c5f384e3d99564736f6c63430008070033",
  "deployedBytecode": "0x608060405234801561001057600080fd5b506004361061014c5760003560e01c806393d7fe2c116100c3578063dcdfb4311161007c578063dcdfb43114610346578063e0bb91c214610366578063e21e5fe014610379578063f5ed447c1461038c578063fd2882801461039f578063ffd740df146103b257600080fd5b806393d7fe2c1461028b5780639d95f1cc1461029e578063a85c38ef146102b1578063b9e0336f14610317578063bea167581461032a578063d31273ca1461033357600080fd5b80634162cc88116101155780634162cc88146101e35780634357855e146102045780634c37a9d6146102175780636938c05d1461025d5780636f37d2631461027057806385f276b81461027857600080fd5b8062912b371461015157806316fff074146101815780631c53c280146101a857806335b03c17146101bb57806340e9eda2146101ce575b600080fd5b600754610164906001600160a01b031681565b6040516001600160a01b0390911681526020015b60405180910390f35b6101647f000000000000000000000000000000000000000000000000000000000000000081565b6101646101b6366004613705565b6103c5565b600654610164906001600160a01b031681565b6101e16101dc3660046136a9565b6103ef565b005b6101f66101f1366004613705565b610534565b604051908152602001610178565b6101e161021236600461371e565b61054b565b61022a61022536600461371e565b61117f565b604080516001600160401b0395861681529385166020850152918416918301919091529091166060820152608001610178565b6101f661026b36600461387d565b6111d4565b6101e16116cc565b6101e1610286366004613705565b6119bb565b6101f661029936600461371e565b611ad5565b6101e16102ac3660046136a9565b611b06565b6103066102bf366004613705565b600c6020526000908152604090205461ffff8116906001600160701b03620100008204169060ff600160801b8204811691600160881b8104821691600160901b9091041685565b604051610178959493929190613b47565b6101f661032536600461371e565b611d59565b6101f660085481565b6101e16103413660046136a9565b611eb1565b6101f6610354366004613705565b600d6020526000908152604090205481565b6101e1610374366004613705565b611fe6565b6101f6610387366004613705565b612100565b6101e161039a366004613705565b61217d565b6101e16103ad36600461384d565b6122f5565b6101e16103c0366004613705565b6124cd565b600981815481106103d557600080fd5b6000918252602090912001546001600160a01b0316905081565b7f00000000000000000000000000000000000000000000000000000000000000006001600160a01b03166312d43a516040518163ffffffff1660e01b815260040160206040518083038186803b15801561044857600080fd5b505afa15801561045c573d6000803e3d6000fd5b505050506040513d601f19601f8201168201806040525081019061048091906136c6565b6001600160a01b0316336001600160a01b0316146104b95760405162461bcd60e51b81526004016104b090613a71565b60405180910390fd5b6001600160a01b0381166104df5760405162461bcd60e51b81526004016104b090613a93565b600680546001600160a01b0319166001600160a01b0383169081179091556040519081527f477e87af277e7755f85267ef7c6b77cd28610c2c8c2923acdf55fa5b63f18b77906020015b60405180910390a150565b600a816002811061054457600080fd5b0154905081565b60008281526005602052604090205482906001600160a01b031633146105c45760405162461bcd60e51b815260206004820152602860248201527f536f75726365206d75737420626520746865206f7261636c65206f6620746865604482015267081c995c5d595cdd60c21b60648201526084016104b0565b60008181526005602052604080822080546001600160a01b03191690555182917f7cc135e0cebb02c3480ae5d74d377283180a2601f8f644edf7987b009316c63a91a26000838152600d60209081526040808320805490849055808452600c8352818420825160a081018452815461ffff811682526201000081046001600160701b0316958201959095529194939192909190830190600160801b900460ff16600381111561067557610675613e0d565b600381111561068657610686613e0d565b8152905460ff600160881b8204811615156020840152600160901b909104161515604091820152600654825191516307aa801760e21b815261ffff909216600483015291925060009182916001600160a01b0390911690631eaa005c9060240160806040518083038186803b1580156106fe57600080fd5b505afa158015610712573d6000803e3d6000fd5b505050506040513d601f19601f8201168201806040525081019061073691906137b3565b90506000610743826126ef565b905083606001511561110057836080015115610d1357604080516080810182526000808252602082018190528183018190526060820152905163635e061d60e11b81526004810189905273__$0a787ca790b72760fa5f2fae68e461a66f$__9063c6bc0c3a9060240160806040518083038186803b1580156107c457600080fd5b505af41580156107d8573d6000803e3d6000fd5b505050506040513d601f19601f820116820180604052508101906107fc91906138be565b6001600160401b0390811660608601529081166040850152908116602084018190529116825215801561083a575060408101516001600160401b0316155b8061089d575080600001516001600160401b031681602001516001600160401b031610158015610884575080600001516001600160401b031681604001516001600160401b031611155b801561089d5750600081604001516001600160401b0316115b6108da5760405162461bcd60e51b815260206004820152600e60248201526d494e56414c49445f43414e444c4560901b60448201526064016104b0565b6108f681602001516001600160401b03168385606001516128a8565b8015610919575061091981604001516001600160401b03168385606001516128a8565b15610d0d576000868152600f6020908152604080832080546001818101835582865294849020865191018054948701519387015160608801516001600160401b03908116600160c01b026001600160c01b03928216600160801b02929092166fffffffffffffffffffffffffffffffff968216600160401b026001600160801b03199098169190941617959095179390931617929092179055600854815492965090911415610d0b576109fb6040518060c001604052806000815260200160008152602001600081526020016000815260200160008152602001600081525090565b878152815460408051602080840282018101909252828152610a9192909185919060009084015b82821015610a8857600084815260209081902060408051608081018252918501546001600160401b038082168452600160401b8204811684860152600160801b8204811692840192909252600160c01b9004166060820152825260019092019101610a22565b50505050612910565b60a084015260808301526060820152600654875160405163a1d54e9b60e01b815261ffff90911660048201526001600160a01b039091169063a1d54e9b9060240160206040518083038186803b158015610aea57600080fd5b505afa158015610afe573d6000803e3d6000fd5b505050506040513d601f19601f82011682018060405250810190610b229190613834565b81604001818152505060007f00000000000000000000000000000000000000000000000000000000000000006001600160a01b031662b127836040518163ffffffff1660e01b815260040160206040518083038186803b158015610b8557600080fd5b505afa158015610b99573d6000803e3d6000fd5b505050506040513d601f19601f82011682018060405250810190610bbd91906136c6565b9050600288604001516003811115610bd757610bd7613e0d565b1415610c405760405163168fdc8160e31b81526001600160a01b0382169063b47ee40890610c09908590600401613ab4565b600060405180830381600087803b158015610c2357600080fd5b505af1158015610c37573d6000803e3d6000fd5b50505050610c9f565b6040516323f7197b60e01b81526001600160a01b038216906323f7197b90610c6c908590600401613ab4565b600060405180830381600087803b158015610c8657600080fd5b505af1158015610c9a573d6000803e3d6000fd5b505050505b7fce3ae2fe07e497ba552d6485a40eed46cfb3320f001027891efeb1128dba0350828960400151604051610cd4929190613af7565b60405180910390a16000898152600c60209081526040808320805460ff60881b19169055600f9091528120610d0891613581565b50505b505b50611100565b60405163635e061d60e11b81526004810188905260009073__$0a787ca790b72760fa5f2fae68e461a66f$__9063c6bc0c3a9060240160806040518083038186803b158015610d6157600080fd5b505af4158015610d75573d6000803e3d6000fd5b505050506040513d601f19601f82011682018060405250810190610d9991906138be565b5050509050610db6816001600160401b03168385606001516128a8565b156110fe576000868152600e602090815260408220805460018181018355828552929093206001600160401b038516930192909255600854825491965014156110fc57610e326040518060c001604052806000815260200160008152602001600081526020016000815260200160008152602001600081525090565b878152815460408051602080840282018101909252828152610e8c929091859190830182828015610e8257602002820191906000526020600020905b815481526020019060010190808311610e6e575b5050505050612c91565b6020820152600654875160405163a1d54e9b60e01b815261ffff90911660048201526001600160a01b039091169063a1d54e9b9060240160206040518083038186803b158015610edb57600080fd5b505afa158015610eef573d6000803e3d6000fd5b505050506040513d601f19601f82011682018060405250810190610f139190613834565b81604001818152505060007f00000000000000000000000000000000000000000000000000000000000000006001600160a01b031662b127836040518163ffffffff1660e01b815260040160206040518083038186803b158015610f7657600080fd5b505afa158015610f8a573d6000803e3d6000fd5b505050506040513d601f19601f82011682018060405250810190610fae91906136c6565b9050600088604001516003811115610fc857610fc8613e0d565b1415611031576040516361ba6c3d60e01b81526001600160a01b038216906361ba6c3d90610ffa908590600401613ab4565b600060405180830381600087803b15801561101457600080fd5b505af1158015611028573d6000803e3d6000fd5b50505050611090565b604051637d490caf60e01b81526001600160a01b03821690637d490caf9061105d908590600401613ab4565b600060405180830381600087803b15801561107757600080fd5b505af115801561108b573d6000803e3d6000fd5b505050505b7fce3ae2fe07e497ba552d6485a40eed46cfb3320f001027891efeb1128dba03508289604001516040516110c5929190613af7565b60405180910390a16000898152600c60209081526040808320805460ff60881b19169055600e90915281206110f991613581565b50505b505b505b8351602080860151608080880151604080518e81529485018d90528481018790526001600160701b03909316606085015215159083015285151560a08301525161ffff90921691339188917fdc6ff5906123aad281d8e734bb64101cea661d614a568b9bca20e7ac2ae7f3549181900360c00190a45050505050505050565b600f602052816000526040600020818154811061119b57600080fd5b6000918252602090912001546001600160401b038082169350600160401b820481169250600160801b8204811691600160c01b90041684565b60007f00000000000000000000000000000000000000000000000000000000000000006001600160a01b031663ec44acf26040518163ffffffff1660e01b815260040160206040518083038186803b15801561122f57600080fd5b505afa158015611243573d6000803e3d6000fd5b505050506040513d601f19601f8201168201806040525081019061126791906136c6565b6001600160a01b0316336001600160a01b0316146112b65760405162461bcd60e51b815260206004820152600c60248201526b54524144494e475f4f4e4c5960a01b60448201526064016104b0565b61ffff8511156112f85760405162461bcd60e51b815260206004820152600d60248201526c504149525f4f564552464c4f5760981b60448201526064016104b0565b6000600285600381111561130e5761130e613e0d565b148061132b5750600385600381111561132957611329613e0d565b145b905060008161133c57600a54611340565b600b545b9050600061135682306321abc2af60e11b612d4f565b600654604051630c0be07f60e21b8152600481018b90529192506000918291829182916001600160a01b03169063302f81fc90602401600060405180830381600087803b1580156113a657600080fd5b505af11580156113ba573d6000803e3d6000fd5b505050506040513d6000823e601f3d908101601f191682016040526113e29190810190613740565b9350509250925080935061141d6040518060400160405280600481526020016366726f6d60e01b8152508487612d749092919063ffffffff16565b604080518082019091526002815261746f60f01b602082015261144290869084612d74565b86156114745760408051808201909152600981526866726f6d426c6f636b60b81b60208201526114749086908b612d97565b505050600080600060098054806020026020016040519081016040528092919081815260200182805480156114d257602002820191906000526020600020905b81546001600160a01b031681526001909101906020018083116114b4575b5050505050905080519250826114e88d8c611d59565b6114f29190613bcc565b91506001600160701b0382111561153b5760405162461bcd60e51b815260206004820152600d60248201526c4c494e4b5f4f564552464c4f5760981b60448201526064016104b0565b6040518060a001604052808d61ffff168152602001836001600160701b031681526020018c600381111561157157611571613e0d565b815260016020808301919091528915156040928301526000878152600c825282902083518154928501516001600160701b031662010000026001600160801b031990931661ffff9091161791909117808255918301519091829060ff60801b1916600160801b8360038111156115e9576115e9613e0d565b0217905550606082015181546080909301511515600160901b0260ff60901b19911515600160881b029190911661ffff60881b199093169290921791909117905560005b838110156116775784600d600061165e85858151811061164f5761164f613e39565b60200260200101518a88612db5565b815260208101919091526040016000205560010161162d565b50508a85847ffadf91896d9352ab1e350a349050907f966d8ea7f38c1a5be50f2a379ef4fcbe8d86868e8d6040516116b3959493929190613a3f565b60405180910390a450909450505050505b949350505050565b7f00000000000000000000000000000000000000000000000000000000000000006001600160a01b03166312d43a516040518163ffffffff1660e01b815260040160206040518083038186803b15801561172557600080fd5b505afa158015611739573d6000803e3d6000fd5b505050506040513d601f19601f8201168201806040525081019061175d91906136c6565b6001600160a01b0316336001600160a01b03161461178d5760405162461bcd60e51b81526004016104b090613a71565b60007f00000000000000000000000000000000000000000000000000000000000000006001600160a01b031663fece4eac6040518163ffffffff1660e01b815260040160206040518083038186803b1580156117e857600080fd5b505afa1580156117fc573d6000803e3d6000fd5b505050506040513d601f19601f8201168201806040525081019061182091906136c6565b9050806001600160a01b031663a9059cbb7f00000000000000000000000000000000000000000000000000000000000000006001600160a01b03166312d43a516040518163ffffffff1660e01b815260040160206040518083038186803b15801561188a57600080fd5b505afa15801561189e573d6000803e3d6000fd5b505050506040513d601f19601f820116820180604052508101906118c291906136c6565b6040516370a0823160e01b81523060048201526001600160a01b038516906370a082319060240160206040518083038186803b15801561190157600080fd5b505afa158015611915573d6000803e3d6000fd5b505050506040513d601f19601f820116820180604052508101906119399190613834565b6040516001600160e01b031960e085901b1681526001600160a01b0390921660048301526024820152604401602060405180830381600087803b15801561197f57600080fd5b505af1158015611993573d6000803e3d6000fd5b505050506040513d601f19601f820116820180604052508101906119b791906136e3565b5050565b7f00000000000000000000000000000000000000000000000000000000000000006001600160a01b03166312d43a516040518163ffffffff1660e01b815260040160206040518083038186803b158015611a1457600080fd5b505afa158015611a28573d6000803e3d6000fd5b505050506040513d601f19601f82011682018060405250810190611a4c91906136c6565b6001600160a01b0316336001600160a01b031614611a7c5760405162461bcd60e51b81526004016104b090613a71565b80611a995760405162461bcd60e51b81526004016104b090613a93565b600a8190556040805160008152602081018390527f764c19c693af0da42ec6c6bed68a2dd1a2fa93d24785fcfce58ffa29ae3136069101610529565b600e6020528160005260406000208181548110611af157600080fd5b90600052602060002001600091509150505481565b7f00000000000000000000000000000000000000000000000000000000000000006001600160a01b03166312d43a516040518163ffffffff1660e01b815260040160206040518083038186803b158015611b5f57600080fd5b505afa158015611b73573d6000803e3d6000fd5b505050506040513d601f19601f82011682018060405250810190611b9791906136c6565b6001600160a01b0316336001600160a01b031614611bc75760405162461bcd60e51b81526004016104b090613a71565b6001600160a01b038116611bed5760405162461bcd60e51b81526004016104b090613a93565b600954601411611c325760405162461bcd60e51b815260206004820152601060248201526f4d41585f4f5241434c455f4e4f44455360801b60448201526064016104b0565b60005b600954811015611cc257816001600160a01b031660098281548110611c5c57611c5c613e39565b6000918252602090912001546001600160a01b03161415611cb05760405162461bcd60e51b815260206004820152600e60248201526d1053149150511657d31254d5115160921b60448201526064016104b0565b80611cba81613db2565b915050611c35565b50600980546001808201835560008390527f6e1540171b6c0c960b71a7020d9f60077f6af931a8bbf590da0223dacf75c7af90910180546001600160a01b0319166001600160a01b03851617905590547fadfedad3d82b3775bf2dbea70a01327d1f26c0b868eb8ce0963a6e9af1003e8591611d3d91613d6f565b604080519182526001600160a01b038416602083015201610529565b600080600760009054906101000a90046001600160a01b03166001600160a01b031663feaf968c6040518163ffffffff1660e01b815260040160a06040518083038186803b158015611daa57600080fd5b505afa158015611dbe573d6000803e3d6000fd5b505050506040513d601f19601f82011682018060405250810190611de29190613912565b505060065460405163f7acbabd60e01b815260048101899052929450606493506402540be4009285925087916001600160a01b03169063f7acbabd9060240160206040518083038186803b158015611e3957600080fd5b505afa158015611e4d573d6000803e3d6000fd5b505050506040513d601f19601f82011682018060405250810190611e719190613834565b611e7b9190613d50565b611e89906305f5e100613d50565b611e939190613bcc565b611e9d9190613bcc565b611ea79190613bcc565b9150505b92915050565b7f00000000000000000000000000000000000000000000000000000000000000006001600160a01b03166312d43a516040518163ffffffff1660e01b815260040160206040518083038186803b158015611f0a57600080fd5b505afa158015611f1e573d6000803e3d6000fd5b505050506040513d601f19601f82011682018060405250810190611f4291906136c6565b6001600160a01b0316336001600160a01b031614611f725760405162461bcd60e51b81526004016104b090613a71565b6001600160a01b038116611f985760405162461bcd60e51b81526004016104b090613a93565b600780546001600160a01b0319166001600160a01b0383169081179091556040519081527f2504020720d4f3f4c5a7010cde1f1e76e9a22857f308ef695d666ed1237bf8a490602001610529565b7f00000000000000000000000000000000000000000000000000000000000000006001600160a01b03166312d43a516040518163ffffffff1660e01b815260040160206040518083038186803b15801561203f57600080fd5b505afa158015612053573d6000803e3d6000fd5b505050506040513d601f19601f8201168201806040525081019061207791906136c6565b6001600160a01b0316336001600160a01b0316146120a75760405162461bcd60e51b81526004016104b090613a71565b806120c45760405162461bcd60e51b81526004016104b090613a93565b600b8190556040805160018152602081018390527f764c19c693af0da42ec6c6bed68a2dd1a2fa93d24785fcfce58ffa29ae3136069101610529565b600654604051638251135b60e01b8152600481018390526000916001600160a01b031690638251135b9060240160206040518083038186803b15801561214557600080fd5b505afa158015612159573d6000803e3d6000fd5b505050506040513d601f19601f82011682018060405250810190611eab9190613834565b7f00000000000000000000000000000000000000000000000000000000000000006001600160a01b03166312d43a516040518163ffffffff1660e01b815260040160206040518083038186803b1580156121d657600080fd5b505afa1580156121ea573d6000803e3d6000fd5b505050506040513d601f19601f8201168201806040525081019061220e91906136c6565b6001600160a01b0316336001600160a01b03161461223e5760405162461bcd60e51b81526004016104b090613a71565b600381101561227d5760405162461bcd60e51b815260206004820152600b60248201526a4d494e5f414e535745525360a81b60448201526064016104b0565b612288600282613dcd565b6001146122c05760405162461bcd60e51b81526004016104b09060208082526004908201526322ab22a760e11b604082015260600190565b60088190556040518181527f230365d79885046a48c9158f0e4840ab95929bbebf5de4be23f7ce5f91a97c6590602001610529565b7f00000000000000000000000000000000000000000000000000000000000000006001600160a01b03166312d43a516040518163ffffffff1660e01b815260040160206040518083038186803b15801561234e57600080fd5b505afa158015612362573d6000803e3d6000fd5b505050506040513d601f19601f8201168201806040525081019061238691906136c6565b6001600160a01b0316336001600160a01b0316146123b65760405162461bcd60e51b81526004016104b090613a71565b60095482106123f55760405162461bcd60e51b815260206004820152600b60248201526a0aea49e9c8ebe929c888ab60ab1b60448201526064016104b0565b6001600160a01b03811661241b5760405162461bcd60e51b81526004016104b090613a93565b7f945eb5535c35fb8b656c5c6b7d8bb9d9deba3a44d202bd2b53d58aac4f43db04826009848154811061245057612450613e39565b60009182526020918290200154604080519384526001600160a01b039182169284019290925284169082015260600160405180910390a1806009838154811061249b5761249b613e39565b9060005260206000200160006101000a8154816001600160a01b0302191690836001600160a01b031602179055505050565b7f00000000000000000000000000000000000000000000000000000000000000006001600160a01b03166312d43a516040518163ffffffff1660e01b815260040160206040518083038186803b15801561252657600080fd5b505afa15801561253a573d6000803e3d6000fd5b505050506040513d601f19601f8201168201806040525081019061255e91906136c6565b6001600160a01b0316336001600160a01b03161461258e5760405162461bcd60e51b81526004016104b090613a71565b60095481106125cd5760405162461bcd60e51b815260206004820152600b60248201526a0aea49e9c8ebe929c888ab60ab1b60448201526064016104b0565b7f03082ced7b8d3c831a021af877c172ae1e0257c3522a135e4d71613438461156816009838154811061260257612602613e39565b60009182526020909120015460405161263792916001600160a01b0316909182526001600160a01b0316602082015260400190565b60405180910390a16009805461264f90600190613d6f565b8154811061265f5761265f613e39565b600091825260209091200154600980546001600160a01b03909216918390811061268b5761268b613e39565b9060005260206000200160006101000a8154816001600160a01b0302191690836001600160a01b0316021790555060098054806126ca576126ca613e23565b600082815260209020810160001990810180546001600160a01b031916905501905550565b80516000906001600160a01b031661270957506000919050565b60008083600001516001600160a01b031663feaf968c6040518163ffffffff1660e01b815260040160a06040518083038186803b15801561274957600080fd5b505afa15801561275d573d6000803e3d6000fd5b505050506040513d601f19601f820116820180604052508101906127819190613912565b5091935060009250612791915050565b846040015160028111156127a7576127a7613e0d565b14156127d2576305f5e1006127c16402540be40083613ccb565b6127cb9190613b9e565b91506128a1565b6001846040015160028111156127ea576127ea613e0d565b141561280457806127c16402540be4006305f5e100613ccb565b600084602001516001600160a01b031663feaf968c6040518163ffffffff1660e01b815260040160a06040518083038186803b15801561284357600080fd5b505afa158015612857573d6000803e3d6000fd5b505050506040513d601f19601f8201168201806040525081019061287b9190613912565b505050915050806402540be400836128939190613ccb565b61289d9190613b9e565b9250505b5092915050565b60008315806128b5575082155b80612906575081836402540be400858710156128da576128d58787613d6f565b6128e4565b6128e48688613d6f565b6128ee9190613d50565b6128f9906064613d50565b6129039190613bcc565b11155b90505b9392505050565b600080600080845190506000816001600160401b0381111561293457612934613e4f565b60405190808252806020026020018201604052801561295d578160200160208202803683370190505b5090506000826001600160401b0381111561297a5761297a613e4f565b6040519080825280602002602001820160405280156129a3578160200160208202803683370190505b5090506000836001600160401b038111156129c0576129c0613e4f565b6040519080825280602002602001820160405280156129e9578160200160208202803683370190505b50905060005b84811015612acd57888181518110612a0957612a09613e39565b6020026020010151600001516001600160401b0316848281518110612a3057612a30613e39565b602002602001018181525050888181518110612a4e57612a4e613e39565b6020026020010151602001516001600160401b0316838281518110612a7557612a75613e39565b602002602001018181525050888181518110612a9357612a93613e39565b6020026020010151604001516001600160401b0316828281518110612aba57612aba613e39565b60209081029190910101526001016129ef565b50612ada83600086612e48565b612ae682600086612e48565b612af281600086612e48565b6000612aff600286613dcd565b1590506000612b0f600287613bcc565b905081612b3557848181518110612b2857612b28613e39565b6020026020010151612b8b565b6002858281518110612b4957612b49613e39565b602002602001015186600184612b5f9190613d6f565b81518110612b6f57612b6f613e39565b6020026020010151612b819190613b86565b612b8b9190613bcc565b985081612bb157838181518110612ba457612ba4613e39565b6020026020010151612c07565b6002848281518110612bc557612bc5613e39565b602002602001015185600184612bdb9190613d6f565b81518110612beb57612beb613e39565b6020026020010151612bfd9190613b86565b612c079190613bcc565b975081612c2d57828181518110612c2057612c20613e39565b6020026020010151612c83565b6002838281518110612c4157612c41613e39565b602002602001015184600184612c579190613d6f565b81518110612c6757612c67613e39565b6020026020010151612c799190613b86565b612c839190613bcc565b989a97995050505050505050565b6000612ca08260008451612e48565b60028251612cae9190613dcd565b15612cdf578160028351612cc29190613bcc565b81518110612cd257612cd2613e39565b6020026020010151611eab565b60028260028451612cf09190613bcc565b81518110612d0057612d00613e39565b602002602001015183600160028651612d199190613bcc565b612d239190613d6f565b81518110612d3357612d33613e39565b6020026020010151612d459190613b86565b611eab9190613bcc565b612d576135a2565b612d5f6135a2565b612d6b81868686612f0b565b95945050505050565b6080830151612d839083612f48565b6080830151612d929082612f48565b505050565b6080830151612da69083612f48565b6080830151612d929082612f5f565b600454600090612dc6816001613b86565b600455835160408086015160808701515191516000936320214ca360e11b93612dfe9386938493923092918a916001916024016139b0565b60408051601f198184030181529190526020810180516001600160e01b03166001600160e01b0319909316929092179091529050612e3e86838684612f84565b9695505050505050565b808210612e5457505050565b60008290506000848281518110612e6d57612e6d613e39565b602002602001015190506000846001612e869190613b86565b90505b83811015612ed85781868281518110612ea457612ea4613e39565b60200260200101511015612ec857612ec88682612ec086613db2565b9550856130f1565b612ed181613db2565b9050612e89565b50612ee48585846130f1565b612eef858584612e48565b612f0485612efe846001613b86565b85612e48565b5050505050565b612f136135a2565b612f238560800151610100613164565b50509183526001600160a01b031660208301526001600160e01b031916604082015290565b612f5582600383516131c9565b612d9282826132d6565b6001600160401b03811115612f78576119b782826132fd565b6119b7826000836131c9565b6040516bffffffffffffffffffffffff193060601b1660208201526034810184905260009060540160408051808303601f1901815282825280516020918201206000818152600590925291812080546001600160a01b0319166001600160a01b038a1617905590925082917fb5e6e01e79f91267dc17b4e6314d5d4d03593d2ceee0fbb452b750bd70ea5af99190a2600254604051630200057560e51b81526001600160a01b0390911690634000aea09061304790889087908790600401613a18565b602060405180830381600087803b15801561306157600080fd5b505af1158015613075573d6000803e3d6000fd5b505050506040513d601f19601f8201168201806040525081019061309991906136e3565b6116c45760405162461bcd60e51b815260206004820152602360248201527f756e61626c6520746f207472616e73666572416e6443616c6c20746f206f7261604482015262636c6560e81b60648201526084016104b0565b82818151811061310357613103613e39565b602002602001015183838151811061311d5761311d613e39565b602002602001015184848151811061313757613137613e39565b6020026020010185848151811061315057613150613e39565b602090810291909101019190915252505050565b604080518082019091526060815260006020820152613184602083613dcd565b156131ac57613194602083613dcd565b61319f906020613d6f565b6131a99083613b86565b91505b506020828101829052604080518085526000815290920101905290565b6017816001600160401b0316116131f3576131ed8360e0600585901b168317613334565b50505050565b60ff816001600160401b03161161322f57613219836018611fe0600586901b1617613334565b506131ed836001600160401b0383166001613359565b61ffff816001600160401b03161161326c57613256836019611fe0600586901b1617613334565b506131ed836001600160401b0383166002613359565b63ffffffff816001600160401b0316116132ab5761329583601a611fe0600586901b1617613334565b506131ed836001600160401b0383166004613359565b6132c083601b611fe0600586901b1617613334565b506131ed836001600160401b0383166008613359565b6040805180820190915260608152600060208201526129098384600001515184855161337f565b6133088260c2613334565b506119b7828260405160200161332091815260200190565b604051602081830303815290604052613469565b6040805180820190915260608152600060208201526129098384600001515184613476565b6040805180820190915260608152600060208201526129068485600001515185856134d2565b60408051808201909152606081526000602082015282518211156133a257600080fd5b60208501516133b18386613b86565b11156133e4576133e4856133d4876020015187866133cf9190613b86565b613553565b6133df906002613d50565b61356a565b6000808651805187602083010193508088870111156134035787860182525b505050602084015b602084106134435780518252613422602083613b86565b915061342f602082613b86565b905061343c602085613d6f565b935061340b565b51815160001960208690036101000a019081169019919091161790525083949350505050565b612f5582600283516131c9565b604080518082019091526060815260006020820152836020015183106134ab576134ab84856020015160026133df9190613d50565b8351805160208583010184815350808514156134c8576001810182525b5093949350505050565b60408051808201909152606081526000602082015260208501516134f68584613b86565b111561350a5761350a856133d48685613b86565b6000600161351a84610100613c23565b6135249190613d6f565b90508551838682010185831982511617815250805184870111156135485783860181525b509495945050505050565b600081831115613564575081611eab565b50919050565b81516135768383613164565b506131ed83826132d6565b508054600082559060005260206000209081019061359f91906135dd565b50565b6040805160a0810182526000808252602080830182905282840182905260608084018390528451808601909552845283015290608082015290565b5b808211156135f257600081556001016135de565b5090565b600082601f83011261360757600080fd5b81516001600160401b038082111561362157613621613e4f565b604051601f8301601f19908116603f0116810190828211818310171561364957613649613e4f565b8160405283815286602085880101111561366257600080fd5b612e3e846020830160208901613d86565b80516001600160401b038116811461368a57600080fd5b919050565b805169ffffffffffffffffffff8116811461368a57600080fd5b6000602082840312156136bb57600080fd5b813561290981613e65565b6000602082840312156136d857600080fd5b815161290981613e65565b6000602082840312156136f557600080fd5b8151801515811461290957600080fd5b60006020828403121561371757600080fd5b5035919050565b6000806040838503121561373157600080fd5b50508035926020909101359150565b6000806000806080858703121561375657600080fd5b84516001600160401b038082111561376d57600080fd5b613779888389016135f6565b9550602087015191508082111561378f57600080fd5b5061379c878288016135f6565b604087015160609097015195989097509350505050565b6000608082840312156137c557600080fd5b604051608081018181106001600160401b03821117156137e7576137e7613e4f565b60405282516137f581613e65565b8152602083015161380581613e65565b602082015260408301516003811061381c57600080fd5b60408201526060928301519281019290925250919050565b60006020828403121561384657600080fd5b5051919050565b6000806040838503121561386057600080fd5b82359150602083013561387281613e65565b809150509250929050565b6000806000806080858703121561389357600080fd5b843593506020850135600481106138a957600080fd5b93969395505050506040820135916060013590565b600080600080608085870312156138d457600080fd5b6138dd85613673565b93506138eb60208601613673565b92506138f960408601613673565b915061390760608601613673565b905092959194509250565b600080600080600060a0868803121561392a57600080fd5b6139338661368f565b94506020860151935060408601519250606086015191506139566080870161368f565b90509295509295909350565b6000815180845261397a816020860160208601613d86565b601f01601f19169290920160200192915050565b600481106139ac57634e487b7160e01b600052602160045260246000fd5b9052565b6001600160a01b0389811682526020820189905260408201889052861660608201526001600160e01b03198516608082015260a0810184905260c0810183905261010060e08201819052600090613a0983820185613962565b9b9a5050505050505050505050565b60018060a01b0384168152826020820152606060408201526000612d6b6060830184613962565b60a08101613a4d828861398e565b85602083015284604083015283606083015282151560808301529695505050505050565b602080825260089082015267474f565f4f4e4c5960c01b604082015260600190565b602080825260079082015266056414c55455f360cc1b604082015260600190565b60c08101611eab8284805182526020810151602083015260408101516040830152606081015160608301526080810151608083015260a081015160a08301525050565b60e08101613b3a8285805182526020810151602083015260408101516040830152606081015160608301526080810151608083015260a081015160a08301525050565b61290960c083018461398e565b61ffff861681526001600160701b038516602082015260a08101613b6e604083018661398e565b92151560608201529015156080909101529392505050565b60008219821115613b9957613b99613de1565b500190565b600082613bad57613bad613df7565b600160ff1b821460001984141615613bc757613bc7613de1565b500590565b600082613bdb57613bdb613df7565b500490565b600181815b80851115613c1b578160001904821115613c0157613c01613de1565b80851615613c0e57918102915b93841c9390800290613be5565b509250929050565b60006129098383600082613c3957506001611eab565b81613c4657506000611eab565b8160018114613c5c5760028114613c6657613c82565b6001915050611eab565b60ff841115613c7757613c77613de1565b50506001821b611eab565b5060208310610133831016604e8410600b8410161715613ca5575081810a611eab565b613caf8383613be0565b8060001904821115613cc357613cc3613de1565b029392505050565b60006001600160ff1b0381841382841380821686840486111615613cf157613cf1613de1565b600160ff1b6000871282811687830589121615613d1057613d10613de1565b60008712925087820587128484161615613d2c57613d2c613de1565b87850587128184161615613d4257613d42613de1565b505050929093029392505050565b6000816000190483118215151615613d6a57613d6a613de1565b500290565b600082821015613d8157613d81613de1565b500390565b60005b83811015613da1578181015183820152602001613d89565b838111156131ed5750506000910152565b6000600019821415613dc657613dc6613de1565b5060010190565b600082613ddc57613ddc613df7565b500690565b634e487b7160e01b600052601160045260246000fd5b634e487b7160e01b600052601260045260246000fd5b634e487b7160e01b600052602160045260246000fd5b634e487b7160e01b600052603160045260246000fd5b634e487b7160e01b600052603260045260246000fd5b634e487b7160e01b600052604160045260246000fd5b6001600160a01b038116811461359f57600080fdfea26469706673582212205cf42dda98e01ee8da1fcae166b6e5929e5ec6558c798aa5aa46c5f384e3d99564736f6c63430008070033",
  "libraries": {
    "PackingUtils": "0x5aed3A370E240F7A4888b0f25a6dDc25d110155D"
  },
  "devdoc": {
    "kind": "dev",
    "methods": {},
    "version": 1
  },
  "userdoc": {
    "kind": "user",
    "methods": {},
    "version": 1
  },
  "storageLayout": {
    "storage": [
      {
        "astId": 1419,
        "contract": "contracts/contracts/GNSPriceAggregatorV6_4.sol:GNSPriceAggregatorV6_4",
        "label": "s_ens",
        "offset": 0,
        "slot": "0",
        "type": "t_contract(ENSInterface)2074"
      },
      {
        "astId": 1421,
        "contract": "contracts/contracts/GNSPriceAggregatorV6_4.sol:GNSPriceAggregatorV6_4",
        "label": "s_ensNode",
        "offset": 0,
        "slot": "1",
        "type": "t_bytes32"
      },
      {
        "astId": 1424,
        "contract": "contracts/contracts/GNSPriceAggregatorV6_4.sol:GNSPriceAggregatorV6_4",
        "label": "s_link",
        "offset": 0,
        "slot": "2",
        "type": "t_contract(LinkTokenInterface)2296"
      },
      {
        "astId": 1427,
        "contract": "contracts/contracts/GNSPriceAggregatorV6_4.sol:GNSPriceAggregatorV6_4",
        "label": "s_oracle",
        "offset": 0,
        "slot": "3",
        "type": "t_contract(OperatorInterface)2154"
      },
      {
        "astId": 1430,
        "contract": "contracts/contracts/GNSPriceAggregatorV6_4.sol:GNSPriceAggregatorV6_4",
        "label": "s_requestCount",
        "offset": 0,
        "slot": "4",
        "type": "t_uint256"
      },
      {
        "astId": 1434,
        "contract": "contracts/contracts/GNSPriceAggregatorV6_4.sol:GNSPriceAggregatorV6_4",
        "label": "s_pendingRequests",
        "offset": 0,
        "slot": "5",
        "type": "t_mapping(t_bytes32,t_address)"
      },
      {
        "astId": 11403,
        "contract": "contracts/contracts/GNSPriceAggregatorV6_4.sol:GNSPriceAggregatorV6_4",
        "label": "pairsStorage",
        "offset": 0,
        "slot": "6",
        "type": "t_contract(PairsStorageInterfaceV6)25384"
      },
      {
        "astId": 11406,
        "contract": "contracts/contracts/GNSPriceAggregatorV6_4.sol:GNSPriceAggregatorV6_4",
        "label": "linkPriceFeed",
        "offset": 0,
        "slot": "7",
        "type": "t_contract(ChainlinkFeedInterfaceV5)24305"
      },
      {
        "astId": 11417,
        "contract": "contracts/contracts/GNSPriceAggregatorV6_4.sol:GNSPriceAggregatorV6_4",
        "label": "minAnswers",
        "offset": 0,
        "slot": "8",
        "type": "t_uint256"
      },
      {
        "astId": 11446,
        "contract": "contracts/contracts/GNSPriceAggregatorV6_4.sol:GNSPriceAggregatorV6_4",
        "label": "nodes",
        "offset": 0,
        "slot": "9",
        "type": "t_array(t_address)dyn_storage"
      },
      {
        "astId": 11450,
        "contract": "contracts/contracts/GNSPriceAggregatorV6_4.sol:GNSPriceAggregatorV6_4",
        "label": "jobIds",
        "offset": 0,
        "slot": "10",
        "type": "t_array(t_bytes32)2_storage"
      },
      {
        "astId": 11455,
        "contract": "contracts/contracts/GNSPriceAggregatorV6_4.sol:GNSPriceAggregatorV6_4",
        "label": "orders",
        "offset": 0,
        "slot": "12",
        "type": "t_mapping(t_uint256,t_struct(Order)11434_storage)"
      },
      {
        "astId": 11459,
        "contract": "contracts/contracts/GNSPriceAggregatorV6_4.sol:GNSPriceAggregatorV6_4",
        "label": "orderIdByRequest",
        "offset": 0,
        "slot": "13",
        "type": "t_mapping(t_bytes32,t_uint256)"
      },
      {
        "astId": 11464,
        "contract": "contracts/contracts/GNSPriceAggregatorV6_4.sol:GNSPriceAggregatorV6_4",
        "label": "ordersAnswers",
        "offset": 0,
        "slot": "14",
        "type": "t_mapping(t_uint256,t_array(t_uint256)dyn_storage)"
      },
      {
        "astId": 11470,
        "contract": "contracts/contracts/GNSPriceAggregatorV6_4.sol:GNSPriceAggregatorV6_4",
        "label": "lookbackOrderAnswers",
        "offset": 0,
        "slot": "15",
        "type": "t_mapping(t_uint256,t_array(t_struct(LookbackOrderAnswer)11443_storage)dyn_storage)"
      }
    ],
    "types": {
      "t_address": {
        "encoding": "inplace",
        "label": "address",
        "numberOfBytes": "20"
      },
      "t_array(t_address)dyn_storage": {
        "base": "t_address",
        "encoding": "dynamic_array",
        "label": "address[]",
        "numberOfBytes": "32"
      },
      "t_array(t_bytes32)2_storage": {
        "base": "t_bytes32",
        "encoding": "inplace",
        "label": "bytes32[2]",
        "numberOfBytes": "64"
      },
      "t_array(t_struct(LookbackOrderAnswer)11443_storage)dyn_storage": {
        "base": "t_struct(LookbackOrderAnswer)11443_storage",
        "encoding": "dynamic_array",
        "label": "struct GNSPriceAggregatorV6_4.LookbackOrderAnswer[]",
        "numberOfBytes": "32"
      },
      "t_array(t_uint256)dyn_storage": {
        "base": "t_uint256",
        "encoding": "dynamic_array",
        "label": "uint256[]",
        "numberOfBytes": "32"
      },
      "t_bool": {
        "encoding": "inplace",
        "label": "bool",
        "numberOfBytes": "1"
      },
      "t_bytes32": {
        "encoding": "inplace",
        "label": "bytes32",
        "numberOfBytes": "32"
      },
      "t_contract(ChainlinkFeedInterfaceV5)24305": {
        "encoding": "inplace",
        "label": "contract ChainlinkFeedInterfaceV5",
        "numberOfBytes": "20"
      },
      "t_contract(ENSInterface)2074": {
        "encoding": "inplace",
        "label": "contract ENSInterface",
        "numberOfBytes": "20"
      },
      "t_contract(LinkTokenInterface)2296": {
        "encoding": "inplace",
        "label": "contract LinkTokenInterface",
        "numberOfBytes": "20"
      },
      "t_contract(OperatorInterface)2154": {
        "encoding": "inplace",
        "label": "contract OperatorInterface",
        "numberOfBytes": "20"
      },
      "t_contract(PairsStorageInterfaceV6)25384": {
        "encoding": "inplace",
        "label": "contract PairsStorageInterfaceV6",
        "numberOfBytes": "20"
      },
      "t_enum(OrderType)11422": {
        "encoding": "inplace",
        "label": "enum GNSPriceAggregatorV6_4.OrderType",
        "numberOfBytes": "1"
      },
      "t_mapping(t_bytes32,t_address)": {
        "encoding": "mapping",
        "key": "t_bytes32",
        "label": "mapping(bytes32 => address)",
        "numberOfBytes": "32",
        "value": "t_address"
      },
      "t_mapping(t_bytes32,t_uint256)": {
        "encoding": "mapping",
        "key": "t_bytes32",
        "label": "mapping(bytes32 => uint256)",
        "numberOfBytes": "32",
        "value": "t_uint256"
      },
      "t_mapping(t_uint256,t_array(t_struct(LookbackOrderAnswer)11443_storage)dyn_storage)": {
        "encoding": "mapping",
        "key": "t_uint256",
        "label": "mapping(uint256 => struct GNSPriceAggregatorV6_4.LookbackOrderAnswer[])",
        "numberOfBytes": "32",
        "value": "t_array(t_struct(LookbackOrderAnswer)11443_storage)dyn_storage"
      },
      "t_mapping(t_uint256,t_array(t_uint256)dyn_storage)": {
        "encoding": "mapping",
        "key": "t_uint256",
        "label": "mapping(uint256 => uint256[])",
        "numberOfBytes": "32",
        "value": "t_array(t_uint256)dyn_storage"
      },
      "t_mapping(t_uint256,t_struct(Order)11434_storage)": {
        "encoding": "mapping",
        "key": "t_uint256",
        "label": "mapping(uint256 => struct GNSPriceAggregatorV6_4.Order)",
        "numberOfBytes": "32",
        "value": "t_struct(Order)11434_storage"
      },
      "t_struct(LookbackOrderAnswer)11443_storage": {
        "encoding": "inplace",
        "label": "struct GNSPriceAggregatorV6_4.LookbackOrderAnswer",
        "members": [
          {
            "astId": 11436,
            "contract": "contracts/contracts/GNSPriceAggregatorV6_4.sol:GNSPriceAggregatorV6_4",
            "label": "open",
            "offset": 0,
            "slot": "0",
            "type": "t_uint64"
          },
          {
            "astId": 11438,
            "contract": "contracts/contracts/GNSPriceAggregatorV6_4.sol:GNSPriceAggregatorV6_4",
            "label": "high",
            "offset": 8,
            "slot": "0",
            "type": "t_uint64"
          },
          {
            "astId": 11440,
            "contract": "contracts/contracts/GNSPriceAggregatorV6_4.sol:GNSPriceAggregatorV6_4",
            "label": "low",
            "offset": 16,
            "slot": "0",
            "type": "t_uint64"
          },
          {
            "astId": 11442,
            "contract": "contracts/contracts/GNSPriceAggregatorV6_4.sol:GNSPriceAggregatorV6_4",
            "label": "ts",
            "offset": 24,
            "slot": "0",
            "type": "t_uint64"
          }
        ],
        "numberOfBytes": "32"
      },
      "t_struct(Order)11434_storage": {
        "encoding": "inplace",
        "label": "struct GNSPriceAggregatorV6_4.Order",
        "members": [
          {
            "astId": 11424,
            "contract": "contracts/contracts/GNSPriceAggregatorV6_4.sol:GNSPriceAggregatorV6_4",
            "label": "pairIndex",
            "offset": 0,
            "slot": "0",
            "type": "t_uint16"
          },
          {
            "astId": 11426,
            "contract": "contracts/contracts/GNSPriceAggregatorV6_4.sol:GNSPriceAggregatorV6_4",
            "label": "linkFeePerNode",
            "offset": 2,
            "slot": "0",
            "type": "t_uint112"
          },
          {
            "astId": 11429,
            "contract": "contracts/contracts/GNSPriceAggregatorV6_4.sol:GNSPriceAggregatorV6_4",
            "label": "orderType",
            "offset": 16,
            "slot": "0",
            "type": "t_enum(OrderType)11422"
          },
          {
            "astId": 11431,
            "contract": "contracts/contracts/GNSPriceAggregatorV6_4.sol:GNSPriceAggregatorV6_4",
            "label": "active",
            "offset": 17,
            "slot": "0",
            "type": "t_bool"
          },
          {
            "astId": 11433,
            "contract": "contracts/contracts/GNSPriceAggregatorV6_4.sol:GNSPriceAggregatorV6_4",
            "label": "isLookback",
            "offset": 18,
            "slot": "0",
            "type": "t_bool"
          }
        ],
        "numberOfBytes": "32"
      },
      "t_uint112": {
        "encoding": "inplace",
        "label": "uint112",
        "numberOfBytes": "14"
      },
      "t_uint16": {
        "encoding": "inplace",
        "label": "uint16",
        "numberOfBytes": "2"
      },
      "t_uint256": {
        "encoding": "inplace",
        "label": "uint256",
        "numberOfBytes": "32"
      },
      "t_uint64": {
        "encoding": "inplace",
        "label": "uint64",
        "numberOfBytes": "8"
      }
    }
  }
}