{
  "address": "0xc116a29d2959A8CF43DF6682FB545c9DD6409D96",
  "abi": [
    {
      "inputs": [],
      "name": "Forbidden",
      "type": "error"
    },
    {
      "inputs": [],
      "name": "WrongParams",
      "type": "error"
    },
    {
      "anonymous": false,
      "inputs": [
        {
          "indexed": true,
          "internalType": "address",
          "name": "trader",
          "type": "address"
        },
        {
          "indexed": false,
          "internalType": "uint256",
          "name": "tradeValueDai",
          "type": "uint256"
        },
        {
          "indexed": false,
          "internalType": "uint256",
          "name": "feeValueDai",
          "type": "uint256"
        }
      ],
      "name": "BorrowingFeeCharged",
      "type": "event"
    },
    {
      "anonymous": false,
      "inputs": [
        {
          "indexed": false,
          "internalType": "uint256",
          "name": "daiVaultFeeP",
          "type": "uint256"
        },
        {
          "indexed": false,
          "internalType": "uint256",
          "name": "lpFeeP",
          "type": "uint256"
        },
        {
          "indexed": false,
          "internalType": "uint256",
          "name": "sssFeeP",
          "type": "uint256"
        }
      ],
      "name": "ClosingFeeSharesPUpdated",
      "type": "event"
    },
    {
      "anonymous": false,
      "inputs": [
        {
          "indexed": true,
          "internalType": "address",
          "name": "trader",
          "type": "address"
        },
        {
          "indexed": false,
          "internalType": "uint256",
          "name": "valueDai",
          "type": "uint256"
        }
      ],
      "name": "DaiVaultFeeCharged",
      "type": "event"
    },
    {
      "anonymous": false,
      "inputs": [
        {
          "indexed": false,
          "internalType": "bool",
          "name": "done",
          "type": "bool"
        }
      ],
      "name": "Done",
      "type": "event"
    },
    {
      "anonymous": false,
      "inputs": [
        {
          "indexed": true,
          "internalType": "address",
          "name": "trader",
          "type": "address"
        },
        {
          "indexed": false,
          "internalType": "uint256",
          "name": "valueDai",
          "type": "uint256"
        },
        {
          "indexed": false,
          "internalType": "bool",
          "name": "distributed",
          "type": "bool"
        }
      ],
      "name": "GovFeeCharged",
      "type": "event"
    },
    {
      "anonymous": false,
      "inputs": [
        {
          "indexed": false,
          "internalType": "uint256",
          "name": "valueDai",
          "type": "uint256"
        }
      ],
      "name": "GovFeesClaimed",
      "type": "event"
    },
    {
      "anonymous": false,
      "inputs": [
        {
          "indexed": false,
          "internalType": "uint8",
          "name": "version",
          "type": "uint8"
        }
      ],
      "name": "Initialized",
      "type": "event"
    },
    {
      "anonymous": false,
      "inputs": [
        {
          "indexed": true,
          "internalType": "uint256",
          "name": "orderId",
          "type": "uint256"
        },
        {
          "indexed": false,
          "internalType": "uint256",
          "name": "limitIndex",
          "type": "uint256"
        },
        {
          "components": [
            {
              "internalType": "address",
              "name": "trader",
              "type": "address"
            },
            {
              "internalType": "uint256",
              "name": "pairIndex",
              "type": "uint256"
            },
            {
              "internalType": "uint256",
              "name": "index",
              "type": "uint256"
            },
            {
              "internalType": "uint256",
              "name": "initialPosToken",
              "type": "uint256"
            },
            {
              "internalType": "uint256",
              "name": "positionSizeDai",
              "type": "uint256"
            },
            {
              "internalType": "uint256",
              "name": "openPrice",
              "type": "uint256"
            },
            {
              "internalType": "bool",
              "name": "buy",
              "type": "bool"
            },
            {
              "internalType": "uint256",
              "name": "leverage",
              "type": "uint256"
            },
            {
              "internalType": "uint256",
              "name": "tp",
              "type": "uint256"
            },
            {
              "internalType": "uint256",
              "name": "sl",
              "type": "uint256"
            }
          ],
          "indexed": false,
          "internalType": "struct StorageInterfaceV5.Trade",
          "name": "t",
          "type": "tuple"
        },
        {
          "indexed": true,
          "internalType": "address",
          "name": "nftHolder",
          "type": "address"
        },
        {
          "indexed": false,
          "internalType": "enum StorageInterfaceV5.LimitOrder",
          "name": "orderType",
          "type": "uint8"
        },
        {
          "indexed": false,
          "internalType": "uint256",
          "name": "price",
          "type": "uint256"
        },
        {
          "indexed": false,
          "internalType": "uint256",
          "name": "priceImpactP",
          "type": "uint256"
        },
        {
          "indexed": false,
          "internalType": "uint256",
          "name": "positionSizeDai",
          "type": "uint256"
        },
        {
          "indexed": false,
          "internalType": "int256",
          "name": "percentProfit",
          "type": "int256"
        },
        {
          "indexed": false,
          "internalType": "uint256",
          "name": "daiSentToTrader",
          "type": "uint256"
        },
        {
          "indexed": false,
          "internalType": "bool",
          "name": "exactExecution",
          "type": "bool"
        }
      ],
      "name": "LimitExecuted",
      "type": "event"
    },
    {
      "anonymous": false,
      "inputs": [
        {
          "indexed": true,
          "internalType": "uint256",
          "name": "orderId",
          "type": "uint256"
        },
        {
          "indexed": true,
          "internalType": "address",
          "name": "trader",
          "type": "address"
        },
        {
          "indexed": true,
          "internalType": "uint256",
          "name": "pairIndex",
          "type": "uint256"
        },
        {
          "indexed": false,
          "internalType": "uint256",
          "name": "index",
          "type": "uint256"
        },
        {
          "indexed": false,
          "internalType": "enum GNSTradingCallbacksV6_4_1.CancelReason",
          "name": "cancelReason",
          "type": "uint8"
        }
      ],
      "name": "MarketCloseCanceled",
      "type": "event"
    },
    {
      "anonymous": false,
      "inputs": [
        {
          "indexed": true,
          "internalType": "uint256",
          "name": "orderId",
          "type": "uint256"
        },
        {
          "components": [
            {
              "internalType": "address",
              "name": "trader",
              "type": "address"
            },
            {
              "internalType": "uint256",
              "name": "pairIndex",
              "type": "uint256"
            },
            {
              "internalType": "uint256",
              "name": "index",
              "type": "uint256"
            },
            {
              "internalType": "uint256",
              "name": "initialPosToken",
              "type": "uint256"
            },
            {
              "internalType": "uint256",
              "name": "positionSizeDai",
              "type": "uint256"
            },
            {
              "internalType": "uint256",
              "name": "openPrice",
              "type": "uint256"
            },
            {
              "internalType": "bool",
              "name": "buy",
              "type": "bool"
            },
            {
              "internalType": "uint256",
              "name": "leverage",
              "type": "uint256"
            },
            {
              "internalType": "uint256",
              "name": "tp",
              "type": "uint256"
            },
            {
              "internalType": "uint256",
              "name": "sl",
              "type": "uint256"
            }
          ],
          "indexed": false,
          "internalType": "struct StorageInterfaceV5.Trade",
          "name": "t",
          "type": "tuple"
        },
        {
          "indexed": false,
          "internalType": "bool",
          "name": "open",
          "type": "bool"
        },
        {
          "indexed": false,
          "internalType": "uint256",
          "name": "price",
          "type": "uint256"
        },
        {
          "indexed": false,
          "internalType": "uint256",
          "name": "priceImpactP",
          "type": "uint256"
        },
        {
          "indexed": false,
          "internalType": "uint256",
          "name": "positionSizeDai",
          "type": "uint256"
        },
        {
          "indexed": false,
          "internalType": "int256",
          "name": "percentProfit",
          "type": "int256"
        },
        {
          "indexed": false,
          "internalType": "uint256",
          "name": "daiSentToTrader",
          "type": "uint256"
        }
      ],
      "name": "MarketExecuted",
      "type": "event"
    },
    {
      "anonymous": false,
      "inputs": [
        {
          "indexed": true,
          "internalType": "uint256",
          "name": "orderId",
          "type": "uint256"
        },
        {
          "indexed": true,
          "internalType": "address",
          "name": "trader",
          "type": "address"
        },
        {
          "indexed": true,
          "internalType": "uint256",
          "name": "pairIndex",
          "type": "uint256"
        },
        {
          "indexed": false,
          "internalType": "enum GNSTradingCallbacksV6_4_1.CancelReason",
          "name": "cancelReason",
          "type": "uint8"
        }
      ],
      "name": "MarketOpenCanceled",
      "type": "event"
    },
    {
      "anonymous": false,
      "inputs": [
        {
          "indexed": true,
          "internalType": "uint256",
          "name": "orderId",
          "type": "uint256"
        },
        {
          "indexed": true,
          "internalType": "address",
          "name": "nftHolder",
          "type": "address"
        },
        {
          "indexed": false,
          "internalType": "enum StorageInterfaceV5.LimitOrder",
          "name": "orderType",
          "type": "uint8"
        },
        {
          "indexed": false,
          "internalType": "enum GNSTradingCallbacksV6_4_1.CancelReason",
          "name": "cancelReason",
          "type": "uint8"
        }
      ],
      "name": "NftOrderCanceled",
      "type": "event"
    },
    {
      "anonymous": false,
      "inputs": [
        {
          "indexed": true,
          "internalType": "uint256",
          "name": "pairIndex",
          "type": "uint256"
        },
        {
          "indexed": false,
          "internalType": "uint256",
          "name": "maxLeverage",
          "type": "uint256"
        }
      ],
      "name": "PairMaxLeverageUpdated",
      "type": "event"
    },
    {
      "anonymous": false,
      "inputs": [
        {
          "indexed": false,
          "internalType": "bool",
          "name": "paused",
          "type": "bool"
        }
      ],
      "name": "Pause",
      "type": "event"
    },
    {
      "anonymous": false,
      "inputs": [
        {
          "indexed": true,
          "internalType": "address",
          "name": "trader",
          "type": "address"
        },
        {
          "indexed": false,
          "internalType": "uint256",
          "name": "valueDai",
          "type": "uint256"
        }
      ],
      "name": "ReferralFeeCharged",
      "type": "event"
    },
    {
      "anonymous": false,
      "inputs": [
        {
          "indexed": true,
          "internalType": "address",
          "name": "trader",
          "type": "address"
        },
        {
          "indexed": false,
          "internalType": "uint256",
          "name": "valueDai",
          "type": "uint256"
        }
      ],
      "name": "SssFeeCharged",
      "type": "event"
    },
    {
      "anonymous": false,
      "inputs": [
        {
          "indexed": true,
          "internalType": "address",
          "name": "trader",
          "type": "address"
        },
        {
          "indexed": false,
          "internalType": "uint256",
          "name": "valueDai",
          "type": "uint256"
        }
      ],
      "name": "TriggerFeeCharged",
      "type": "event"
    },
    {
      "inputs": [],
      "name": "borrowingFees",
      "outputs": [
        {
          "internalType": "contract GNSBorrowingFeesInterfaceV6_4",
          "name": "",
          "type": "address"
        }
      ],
      "stateMutability": "view",
      "type": "function"
    },
    {
      "inputs": [],
      "name": "canExecuteTimeout",
      "outputs": [
        {
          "internalType": "uint256",
          "name": "",
          "type": "uint256"
        }
      ],
      "stateMutability": "view",
      "type": "function"
    },
    {
      "inputs": [],
      "name": "claimGovFees",
      "outputs": [],
      "stateMutability": "nonpayable",
      "type": "function"
    },
    {
      "inputs": [
        {
          "components": [
            {
              "internalType": "uint256",
              "name": "orderId",
              "type": "uint256"
            },
            {
              "internalType": "uint256",
              "name": "price",
              "type": "uint256"
            },
            {
              "internalType": "uint256",
              "name": "spreadP",
              "type": "uint256"
            },
            {
              "internalType": "uint256",
              "name": "open",
              "type": "uint256"
            },
            {
              "internalType": "uint256",
              "name": "high",
              "type": "uint256"
            },
            {
              "internalType": "uint256",
              "name": "low",
              "type": "uint256"
            }
          ],
          "internalType": "struct GNSTradingCallbacksV6_4_1.AggregatorAnswer",
          "name": "a",
          "type": "tuple"
        }
      ],
      "name": "closeTradeMarketCallback",
      "outputs": [],
      "stateMutability": "nonpayable",
      "type": "function"
    },
    {
      "inputs": [],
      "name": "daiVaultFeeP",
      "outputs": [
        {
          "internalType": "uint256",
          "name": "",
          "type": "uint256"
        }
      ],
      "stateMutability": "view",
      "type": "function"
    },
    {
      "inputs": [],
      "name": "done",
      "outputs": [],
      "stateMutability": "nonpayable",
      "type": "function"
    },
    {
      "inputs": [
        {
          "components": [
            {
              "internalType": "uint256",
              "name": "orderId",
              "type": "uint256"
            },
            {
              "internalType": "uint256",
              "name": "price",
              "type": "uint256"
            },
            {
              "internalType": "uint256",
              "name": "spreadP",
              "type": "uint256"
            },
            {
              "internalType": "uint256",
              "name": "open",
              "type": "uint256"
            },
            {
              "internalType": "uint256",
              "name": "high",
              "type": "uint256"
            },
            {
              "internalType": "uint256",
              "name": "low",
              "type": "uint256"
            }
          ],
          "internalType": "struct GNSTradingCallbacksV6_4_1.AggregatorAnswer",
          "name": "a",
          "type": "tuple"
        }
      ],
      "name": "executeNftCloseOrderCallback",
      "outputs": [],
      "stateMutability": "nonpayable",
      "type": "function"
    },
    {
      "inputs": [
        {
          "components": [
            {
              "internalType": "uint256",
              "name": "orderId",
              "type": "uint256"
            },
            {
              "internalType": "uint256",
              "name": "price",
              "type": "uint256"
            },
            {
              "internalType": "uint256",
              "name": "spreadP",
              "type": "uint256"
            },
            {
              "internalType": "uint256",
              "name": "open",
              "type": "uint256"
            },
            {
              "internalType": "uint256",
              "name": "high",
              "type": "uint256"
            },
            {
              "internalType": "uint256",
              "name": "low",
              "type": "uint256"
            }
          ],
          "internalType": "struct GNSTradingCallbacksV6_4_1.AggregatorAnswer",
          "name": "a",
          "type": "tuple"
        }
      ],
      "name": "executeNftOpenOrderCallback",
      "outputs": [],
      "stateMutability": "nonpayable",
      "type": "function"
    },
    {
      "inputs": [],
      "name": "getAllPairsMaxLeverage",
      "outputs": [
        {
          "internalType": "uint256[]",
          "name": "",
          "type": "uint256[]"
        }
      ],
      "stateMutability": "view",
      "type": "function"
    },
    {
      "inputs": [],
      "name": "govFeesDai",
      "outputs": [
        {
          "internalType": "uint256",
          "name": "",
          "type": "uint256"
        }
      ],
      "stateMutability": "view",
      "type": "function"
    },
    {
      "inputs": [
        {
          "internalType": "contract StorageInterfaceV5",
          "name": "_storageT",
          "type": "address"
        },
        {
          "internalType": "contract IGNSOracleRewardsV6_4_1",
          "name": "_nftRewards",
          "type": "address"
        },
        {
          "internalType": "contract GNSPairInfosInterfaceV6",
          "name": "_pairInfos",
          "type": "address"
        },
        {
          "internalType": "contract GNSReferralsInterfaceV6_2",
          "name": "_referrals",
          "type": "address"
        },
        {
          "internalType": "contract GNSStakingInterfaceV6_4_1",
          "name": "_staking",
          "type": "address"
        },
        {
          "internalType": "address",
          "name": "vaultToApprove",
          "type": "address"
        },
        {
          "internalType": "uint256",
          "name": "_daiVaultFeeP",
          "type": "uint256"
        },
        {
          "internalType": "uint256",
          "name": "_lpFeeP",
          "type": "uint256"
        },
        {
          "internalType": "uint256",
          "name": "_sssFeeP",
          "type": "uint256"
        },
        {
          "internalType": "uint256",
          "name": "_canExecuteTimeout",
          "type": "uint256"
        }
      ],
      "name": "initialize",
      "outputs": [],
      "stateMutability": "nonpayable",
      "type": "function"
    },
    {
      "inputs": [
        {
          "internalType": "contract GNSBorrowingFeesInterfaceV6_4",
          "name": "_borrowingFees",
          "type": "address"
        }
      ],
      "name": "initializeV2",
      "outputs": [],
      "stateMutability": "nonpayable",
      "type": "function"
    },
    {
      "inputs": [
        {
          "internalType": "contract GNSStakingInterfaceV6_4_1",
          "name": "_staking",
          "type": "address"
        },
        {
          "internalType": "contract IGNSOracleRewardsV6_4_1",
          "name": "_oracleRewards",
          "type": "address"
        }
      ],
      "name": "initializeV4",
      "outputs": [],
      "stateMutability": "nonpayable",
      "type": "function"
    },
    {
      "inputs": [],
      "name": "isDone",
      "outputs": [
        {
          "internalType": "bool",
          "name": "",
          "type": "bool"
        }
      ],
      "stateMutability": "view",
      "type": "function"
    },
    {
      "inputs": [],
      "name": "isPaused",
      "outputs": [
        {
          "internalType": "bool",
          "name": "",
          "type": "bool"
        }
      ],
      "stateMutability": "view",
      "type": "function"
    },
    {
      "inputs": [],
      "name": "lpFeeP",
      "outputs": [
        {
          "internalType": "uint256",
          "name": "",
          "type": "uint256"
        }
      ],
      "stateMutability": "view",
      "type": "function"
    },
    {
      "inputs": [],
      "name": "nftRewards",
      "outputs": [
        {
          "internalType": "contract IGNSOracleRewardsV6_4_1",
          "name": "",
          "type": "address"
        }
      ],
      "stateMutability": "view",
      "type": "function"
    },
    {
      "inputs": [
        {
          "components": [
            {
              "internalType": "uint256",
              "name": "orderId",
              "type": "uint256"
            },
            {
              "internalType": "uint256",
              "name": "price",
              "type": "uint256"
            },
            {
              "internalType": "uint256",
              "name": "spreadP",
              "type": "uint256"
            },
            {
              "internalType": "uint256",
              "name": "open",
              "type": "uint256"
            },
            {
              "internalType": "uint256",
              "name": "high",
              "type": "uint256"
            },
            {
              "internalType": "uint256",
              "name": "low",
              "type": "uint256"
            }
          ],
          "internalType": "struct GNSTradingCallbacksV6_4_1.AggregatorAnswer",
          "name": "a",
          "type": "tuple"
        }
      ],
      "name": "openTradeMarketCallback",
      "outputs": [],
      "stateMutability": "nonpayable",
      "type": "function"
    },
    {
      "inputs": [],
      "name": "pairInfos",
      "outputs": [
        {
          "internalType": "contract GNSPairInfosInterfaceV6",
          "name": "",
          "type": "address"
        }
      ],
      "stateMutability": "view",
      "type": "function"
    },
    {
      "inputs": [
        {
          "internalType": "uint256",
          "name": "",
          "type": "uint256"
        }
      ],
      "name": "pairMaxLeverage",
      "outputs": [
        {
          "internalType": "uint256",
          "name": "",
          "type": "uint256"
        }
      ],
      "stateMutability": "view",
      "type": "function"
    },
    {
      "inputs": [],
      "name": "pause",
      "outputs": [],
      "stateMutability": "nonpayable",
      "type": "function"
    },
    {
      "inputs": [],
      "name": "referrals",
      "outputs": [
        {
          "internalType": "contract GNSReferralsInterfaceV6_2",
          "name": "",
          "type": "address"
        }
      ],
      "stateMutability": "view",
      "type": "function"
    },
    {
      "inputs": [
        {
          "internalType": "uint256",
          "name": "_daiVaultFeeP",
          "type": "uint256"
        },
        {
          "internalType": "uint256",
          "name": "_lpFeeP",
          "type": "uint256"
        },
        {
          "internalType": "uint256",
          "name": "_sssFeeP",
          "type": "uint256"
        }
      ],
      "name": "setClosingFeeSharesP",
      "outputs": [],
      "stateMutability": "nonpayable",
      "type": "function"
    },
    {
      "inputs": [
        {
          "internalType": "uint256",
          "name": "pairIndex",
          "type": "uint256"
        },
        {
          "internalType": "uint256",
          "name": "maxLeverage",
          "type": "uint256"
        }
      ],
      "name": "setPairMaxLeverage",
      "outputs": [],
      "stateMutability": "nonpayable",
      "type": "function"
    },
    {
      "inputs": [
        {
          "internalType": "uint256[]",
          "name": "indices",
          "type": "uint256[]"
        },
        {
          "internalType": "uint256[]",
          "name": "values",
          "type": "uint256[]"
        }
      ],
      "name": "setPairMaxLeverageArray",
      "outputs": [],
      "stateMutability": "nonpayable",
      "type": "function"
    },
    {
      "inputs": [
        {
          "components": [
            {
              "internalType": "address",
              "name": "trader",
              "type": "address"
            },
            {
              "internalType": "uint256",
              "name": "pairIndex",
              "type": "uint256"
            },
            {
              "internalType": "uint256",
              "name": "index",
              "type": "uint256"
            },
            {
              "internalType": "enum GNSTradingCallbacksV6_4_1.TradeType",
              "name": "tradeType",
              "type": "uint8"
            }
          ],
          "internalType": "struct GNSTradingCallbacksV6_4_1.SimplifiedTradeId",
          "name": "_id",
          "type": "tuple"
        },
        {
          "components": [
            {
              "internalType": "uint40",
              "name": "maxSlippageP",
              "type": "uint40"
            },
            {
              "internalType": "uint216",
              "name": "_placeholder",
              "type": "uint216"
            }
          ],
          "internalType": "struct GNSTradingCallbacksV6_4_1.TradeData",
          "name": "_tradeData",
          "type": "tuple"
        }
      ],
      "name": "setTradeData",
      "outputs": [],
      "stateMutability": "nonpayable",
      "type": "function"
    },
    {
      "inputs": [
        {
          "components": [
            {
              "internalType": "address",
              "name": "trader",
              "type": "address"
            },
            {
              "internalType": "uint256",
              "name": "pairIndex",
              "type": "uint256"
            },
            {
              "internalType": "uint256",
              "name": "index",
              "type": "uint256"
            },
            {
              "internalType": "enum GNSTradingCallbacksV6_4_1.TradeType",
              "name": "tradeType",
              "type": "uint8"
            }
          ],
          "internalType": "struct GNSTradingCallbacksV6_4_1.SimplifiedTradeId",
          "name": "_id",
          "type": "tuple"
        },
        {
          "components": [
            {
              "internalType": "uint32",
              "name": "tp",
              "type": "uint32"
            },
            {
              "internalType": "uint32",
              "name": "sl",
              "type": "uint32"
            },
            {
              "internalType": "uint32",
              "name": "limit",
              "type": "uint32"
            },
            {
              "internalType": "uint32",
              "name": "created",
              "type": "uint32"
            }
          ],
          "internalType": "struct GNSTradingCallbacksV6_4_1.LastUpdated",
          "name": "_lastUpdated",
          "type": "tuple"
        }
      ],
      "name": "setTradeLastUpdated",
      "outputs": [],
      "stateMutability": "nonpayable",
      "type": "function"
    },
    {
      "inputs": [],
      "name": "sssFeeP",
      "outputs": [
        {
          "internalType": "uint256",
          "name": "",
          "type": "uint256"
        }
      ],
      "stateMutability": "view",
      "type": "function"
    },
    {
      "inputs": [],
      "name": "staking",
      "outputs": [
        {
          "internalType": "contract GNSStakingInterfaceV6_4_1",
          "name": "",
          "type": "address"
        }
      ],
      "stateMutability": "view",
      "type": "function"
    },
    {
      "inputs": [],
      "name": "storageT",
      "outputs": [
        {
          "internalType": "contract StorageInterfaceV5",
          "name": "",
          "type": "address"
        }
      ],
      "stateMutability": "view",
      "type": "function"
    },
    {
      "inputs": [
        {
          "internalType": "address",
          "name": "",
          "type": "address"
        },
        {
          "internalType": "uint256",
          "name": "",
          "type": "uint256"
        },
        {
          "internalType": "uint256",
          "name": "",
          "type": "uint256"
        },
        {
          "internalType": "enum GNSTradingCallbacksV6_4_1.TradeType",
          "name": "",
          "type": "uint8"
        }
      ],
      "name": "tradeData",
      "outputs": [
        {
          "internalType": "uint40",
          "name": "maxSlippageP",
          "type": "uint40"
        },
        {
          "internalType": "uint216",
          "name": "_placeholder",
          "type": "uint216"
        }
      ],
      "stateMutability": "view",
      "type": "function"
    },
    {
      "inputs": [
        {
          "internalType": "address",
          "name": "",
          "type": "address"
        },
        {
          "internalType": "uint256",
          "name": "",
          "type": "uint256"
        },
        {
          "internalType": "uint256",
          "name": "",
          "type": "uint256"
        },
        {
          "internalType": "enum GNSTradingCallbacksV6_4_1.TradeType",
          "name": "",
          "type": "uint8"
        }
      ],
      "name": "tradeLastUpdated",
      "outputs": [
        {
          "internalType": "uint32",
          "name": "tp",
          "type": "uint32"
        },
        {
          "internalType": "uint32",
          "name": "sl",
          "type": "uint32"
        },
        {
          "internalType": "uint32",
          "name": "limit",
          "type": "uint32"
        },
        {
          "internalType": "uint32",
          "name": "created",
          "type": "uint32"
        }
      ],
      "stateMutability": "view",
      "type": "function"
    }
  ],
  "transactionHash": "0xd31054e93377e1cd6fa9ec9904207842f86d4a5b4bc9488cafb2604957a0d878",
  "args": [],
  "numDeployments": 1,
  "solcInputHash": "bf065e91d59eb51cd9370817ff80c5bb",
  "bytecode": "0x608060405234801561001057600080fd5b50615ede80620000216000396000f3fe608060405234801561001057600080fd5b50600436106101ef5760003560e01c80635ad9f9931161010f5780639bd24d83116100a2578063b47ee40811610071578063b47ee408146104ee578063c68078b914610501578063c68365df14610514578063d3dc75391461051d57600080fd5b80639bd24d8314610440578063a38ea9a8146104d0578063ae8421e1146104d9578063b187bd26146104e157600080fd5b80637d490caf116100de5780637d490caf146103f05780637e09ae8a146104035780638456cb59146104165780638f0622271461041e57600080fd5b80635ad9f993146103b857806361ba6c3d146103cb578063676c5164146103de5780637bb6c11c146103e757600080fd5b806329b6eca91161018757806346f93a631161015657806346f93a6314610305578063488291221461037f5780634cf088d914610392578063531cc965146103a557600080fd5b806329b6eca9146102b757806337edb138146102ca5780633986de6a146102df5780633a3ec5b0146102f257600080fd5b806318407fe0116101c357806318407fe01461025a57806321c861961461027157806323f7197b14610284578063281b693c1461029757600080fd5b8062e0fa89146101f45780630241e050146102095780631346b0ff1461021157806316fff07414610241575b600080fd5b6102076102023660046152e1565b610530565b005b6102076105ae565b600254610224906001600160a01b031681565b6040516001600160a01b0390911681526020015b60405180910390f35b600054610224906201000090046001600160a01b031681565b610263600e5481565b604051908152602001610238565b61020761027f366004615751565b61067f565b610207610292366004615487565b61073c565b6102636102a536600461586b565b600c6020526000908152604090205481565b6102076102c536600461525f565b611265565b6102d2611347565b6040516102389190615a36565b6102076102ed3660046153a1565b611454565b610207610300366004615368565b6117d3565b61035a610313366004615299565b600d60209081526000948552604080862082529385528385208152918452828420909152825290205464ffffffffff8116906501000000000090046001600160d81b031682565b6040805164ffffffffff90931683526001600160d81b03909116602083015201610238565b61020761038d36600461589d565b611a70565b600454610224906001600160a01b031681565b600b54610224906001600160a01b031681565b600154610224906001600160a01b031681565b6102076103d9366004615487565b611a86565b61026360095481565b61026360075481565b6102076103fe366004615487565b611cd6565b61020761041136600461569d565b61237e565b61020761248c565b60085461043090610100900460ff1681565b6040519015158152602001610238565b6104a061044e366004615299565b600a60209081526000948552604080862082529385528385208152918452828420909152825290205463ffffffff808216916401000000008104821691600160401b8204811691600160601b90041684565b6040805163ffffffff95861681529385166020850152918416918301919091529091166060820152608001610238565b61026360055481565b6102076124e2565b6008546104309060ff1681565b6102076104fc366004615487565b612542565b61020761050f3660046158e3565b612cdf565b61026360065481565b600354610224906001600160a01b031681565b610538612d69565b8281811461055957604051635863f78960e01b815260040160405180910390fd5b60005b818110156105a65761059e86868381811061057957610579615e67565b9050602002013585858481811061059257610592615e67565b90506020020135612e22565b60010161055c565b505050505050565b6105b6612e73565b600e80546000918290559054604080516312d43a5160e01b81529051610649926201000090046001600160a01b0316916312d43a51916004808301926020929190829003018186803b15801561060b57600080fd5b505afa15801561061f573d6000803e3d6000fd5b505050506040513d601f19601f82011682018060405250810190610643919061527c565b82612ec1565b6040518181527f39b06677afbdb5c3b9934c9ce55728be609a055c398ecd957e8d19a5d3d80a5b9060200160405180910390a150565b610687612f30565b80600d6000610699602086018661525f565b6001600160a01b031681526020808201929092526040908101600090812086840135825283528181208683013582529092528120906106de608086016060870161546c565b60018111156106ef576106ef615e51565b600181111561070057610700615e51565b8152602080820192909252604001600020825192909101516001600160d81b0316650100000000000264ffffffffff9092169190911790555050565b610744612f7e565b61074c612fcc565b6000805482516040516399794d3560e01b81526004810191909152620100009091046001600160a01b0316906399794d359060240160c06040518083038186803b15801561079957600080fd5b505afa1580156107ad573d6000803e3d6000fd5b505050506040513d601f19601f820116820180604052508101906107d19190615625565b90506000604051806080016040528083604001516001600160a01b0316815260200183606001518152602001836080015181526020018360a00151600381111561081d5761081d615e51565b8152509050600061083b836040015184606001518560800151612ff5565b905060008060029054906101000a90046001600160a01b03166001600160a01b0316633078fff56040518163ffffffff1660e01b815260040160206040518083038186803b15801561088c57600080fd5b505afa1580156108a0573d6000803e3d6000fd5b505050506040513d601f19601f820116820180604052508101906108c4919061527c565b9050600085606001516000146108ec5760e0830151156108e55760006108ef565b60096108ef565b60025b9050600081600b81111561090557610905615e51565b141561112d576000610924846000015185602001518660400151613091565b90506000836001600160a01b03166335b03c176040518163ffffffff1660e01b815260040160206040518083038186803b15801561096157600080fd5b505afa158015610975573d6000803e3d6000fd5b505050506040513d601f19601f82011682018060405250810190610999919061527c565b90506109a361502f565b6402540be4008660e00151846020015188606001516109c29190615db0565b6109cc9190615db0565b6109d69190615d17565b6020820181905260e08701516109eb91615d17565b815260028860a001516003811115610a0557610a05615e51565b1415610b2f57600b546040805160e0808201835289516001600160a01b0390811683526020808c0151908401528a8401518385015260a0808c0151606085015260c0808d015115156080860152875191850191909152918b0151918301919091529151633837d79d60e11b8152919092169163706faf3a91610ad9919060040181516001600160a01b0316815260208083015190820152604080830151908201526060808301519082015260808083015115159082015260a0828101519082015260c0918201519181019190915260e00190565b60206040518083038186803b158015610af157600080fd5b505afa158015610b05573d6000803e3d6000fd5b505050506040513d601f19601f82011682018060405250810190610b299190615884565b60a08201525b60008860a001516003811115610b4757610b47615e51565b14610b7e5760018860a001516003811115610b6457610b64615e51565b14610b73578060a00151610b85565b856101200151610b85565b8561010001515b6080820181905215801590610ba2575080608001518960a0015111155b8015610bb657508060800151896080015110155b158015610140830152610cb65760028860a001516003811115610bdb57610bdb615e51565b14610c92576402540be4006064836001600160a01b0316639c8dd2fa89602001516040518263ffffffff1660e01b8152600401610c1a91815260200190565b60206040518083038186803b158015610c3257600080fd5b505afa158015610c46573d6000803e3d6000fd5b505050506040513d601f19601f82011682018060405250810190610c6a9190615884565b8360200151610c799190615db0565b610c839190615d17565b610c8d9190615d17565b610cac565b8051606490610ca2906005615db0565b610cac9190615d17565b60e0820152610ea6565b6060890151608082015260028860a001516003811115610cd857610cd8615e51565b14610e545760008860a001516003811115610cf557610cf5615e51565b148015610d0757506000866101000151115b8015610d3757508560c00151610d295785610100015189606001511115610d37565b856101000151896060015110155b80610d97575060018860a001516003811115610d5557610d55615e51565b148015610d6757506000866101200151115b8015610d9757508560c00151610d895785610120015189606001511015610d97565b856101200151896060015111155b610da2576000610ea0565b6402540be4006064836001600160a01b0316639c8dd2fa89602001516040518263ffffffff1660e01b8152600401610ddc91815260200190565b60206040518083038186803b158015610df457600080fd5b505afa158015610e08573d6000803e3d6000fd5b505050506040513d601f19601f82011682018060405250810190610e2c9190615884565b8360200151610e3b9190615db0565b610e459190615d17565b610e4f9190615d17565b610ea0565b8560c00151610e6e578060a0015189606001511015610e7b565b8060a00151896060015111155b610e86576000610ea0565b8051606490610e96906005615db0565b610ea09190615d17565b60e08201525b60e081015115610eb7576000610eba565b600b5b9350600084600b811115610ed057610ed0615e51565b141561112957610ef28660a0015182608001518860c001518960e00151613155565b816060018181525050846001600160a01b0316633c88e8826040518163ffffffff1660e01b8152600401602060405180830381600087803b158015610f3657600080fd5b505af1158015610f4a573d6000803e3d6000fd5b505050506040513d601f19601f82011682018060405250810190610f6e9190615884565b81604001818152505061107c86600083606001518460000151876040015160026003811115610f9f57610f9f615e51565b8e60a001516003811115610fb557610fb5615e51565b1461106c576402540be4006064896001600160a01b031663836a341a8f602001516040518263ffffffff1660e01b8152600401610ff491815260200190565b60206040518083038186803b15801561100c57600080fd5b505afa158015611020573d6000803e3d6000fd5b505050506040513d601f19601f820116820180604052508101906110449190615884565b89602001516110539190615db0565b61105d9190615d17565b6110679190615d17565b611072565b8660e001515b8760e001516131e4565b60c0820152855160e08201516110b0918991600a9061109c906002615db0565b6110a69190615d17565b84604001516136a3565b87600001516001600160a01b031689600001517f1ab0771256522e5114b583b488c490436d6f8fe02b1e1c9697443e8704c4e8408a60800151898c60a0015186608001516000886000015189606001518a60c001518b610140015160405161112099989796959493929190615bd9565b60405180910390a35b5050505b600081600b81111561114157611141615e51565b14611194578451865160a08701516040516001600160a01b03909316927fe9681b5336d843735c62e93114e5a0f45912a84ae83fa3f3ed80ca5ad933dfc39161118b918690615a88565b60405180910390a35b60015460405163bf654d2b60e01b81526001600160a01b039091169063bf654d2b906111c4908790600401615b9c565b600060405180830381600087803b1580156111de57600080fd5b505af11580156111f2573d6000803e3d6000fd5b5050600054885160405163201d8bdb60e01b81526004810191909152620100009091046001600160a01b0316925063201d8bdb91506024015b600060405180830381600087803b15801561124557600080fd5b505af1158015611259573d6000803e3d6000fd5b50505050505050505050565b600054600290610100900460ff16158015611287575060005460ff8083169116105b6112ac5760405162461bcd60e51b81526004016112a390615aa3565b60405180910390fd5b6000805461ffff191660ff8316176101001790556001600160a01b0382166112e757604051635863f78960e01b815260040160405180910390fd5b600b80546001600160a01b0319166001600160a01b0384161790556000805461ff001916905560405160ff821681527f7f26b83ff96e1f2b6a682f133852f6798a09c465da95921460cefb38474024989060200160405180910390a15050565b6060600061135361376e565b6001600160a01b031663b81b2b716040518163ffffffff1660e01b815260040160206040518083038186803b15801561138b57600080fd5b505afa15801561139f573d6000803e3d6000fd5b505050506040513d601f19601f820116820180604052508101906113c39190615884565b905060008167ffffffffffffffff8111156113e0576113e0615e7d565b604051908082528060200260200182016040528015611409578160200160208202803683370190505b50905060005b8281101561144d576000818152600c6020526040902054825183908390811061143a5761143a615e67565b602090810291909101015260010161140f565b5092915050565b600054610100900460ff16158080156114745750600054600160ff909116105b8061148e5750303b15801561148e575060005460ff166001145b6114aa5760405162461bcd60e51b81526004016112a390615aa3565b6000805460ff1916600117905580156114cd576000805461ff0019166101001790555b6001600160a01b038b1615806114ea57506001600160a01b038a16155b806114fc57506001600160a01b038916155b8061150e57506001600160a01b038816155b8061152057506001600160a01b038716155b8061153257506001600160a01b038616155b806115525750826115438587615cd1565b61154d9190615cd1565b606414155b8061155d5750600582115b1561157b57604051635863f78960e01b815260040160405180910390fd5b600080546001600160a01b03808e166201000090810262010000600160b01b031990931692909217808455600180548f84166001600160a01b031991821617909155600280548f8516908316179055600380548e8516908316179055600480548d8516921691909117815560058a90556006899055600788905560098790556040805163f4b9fa7560e01b81529051949092049092169263f4b9fa7592828101926020929190829003018186803b15801561163557600080fd5b505afa158015611649573d6000803e3d6000fd5b505050506040513d601f19601f8201168201806040525081019061166d919061527c565b6004805460405163095ea7b360e01b81526001600160a01b039182169281019290925260001960248301529192509082169063095ea7b390604401602060405180830381600087803b1580156116c257600080fd5b505af11580156116d6573d6000803e3d6000fd5b505050506040513d601f19601f820116820180604052508101906116fa919061534d565b5060405163095ea7b360e01b81526001600160a01b038881166004830152600019602483015282169063095ea7b390604401602060405180830381600087803b15801561174657600080fd5b505af115801561175a573d6000803e3d6000fd5b505050506040513d601f19601f8201168201806040525081019061177e919061534d565b505080156117c6576000805461ff0019169055604051600181527f7f26b83ff96e1f2b6a682f133852f6798a09c465da95921460cefb38474024989060200160405180910390a15b5050505050505050505050565b600054600490610100900460ff161580156117f5575060005460ff8083169116105b6118115760405162461bcd60e51b81526004016112a390615aa3565b6000805461ffff191660ff8316176101001790556001600160a01b038316158061184257506001600160a01b038216155b1561186057604051635863f78960e01b815260040160405180910390fd5b60008060029054906101000a90046001600160a01b03166001600160a01b031663f4b9fa756040518163ffffffff1660e01b815260040160206040518083038186803b1580156118af57600080fd5b505afa1580156118c3573d6000803e3d6000fd5b505050506040513d601f19601f820116820180604052508101906118e7919061527c565b6004805460405163095ea7b360e01b81526001600160a01b0391821692810192909252600060248301529192509082169063095ea7b390604401602060405180830381600087803b15801561193b57600080fd5b505af115801561194f573d6000803e3d6000fd5b505050506040513d601f19601f82011682018060405250810190611973919061534d565b5060405163095ea7b360e01b81526001600160a01b038581166004830152600019602483015282169063095ea7b390604401602060405180830381600087803b1580156119bf57600080fd5b505af11580156119d3573d6000803e3d6000fd5b505050506040513d601f19601f820116820180604052508101906119f7919061534d565b5050600480546001600160a01b038581166001600160a01b03199283161790925560018054928516929091169190911790556000805461ff001916905560405160ff821681527f7f26b83ff96e1f2b6a682f133852f6798a09c465da95921460cefb3847402498906020015b60405180910390a1505050565b611a78612d69565b611a828282612e22565b5050565b611a8e612f7e565b611a96612fcc565b6000611aa5826000015161386a565b9050806020015160001415611ab8575050565b6000816000015190506000806000611b4a604051806101600160405280886020015181526020018760400151815260200188602001518152602001886040015181526020018660c001511515815260200186602001518152602001866080015181526020018660e0015181526020018760600151815260200186610100015181526020018661012001518152506138fa565b60a0870182905291945092509050600081600b811115611b6c57611b6c615e51565b1415611bf957600080611b8186600080613bf3565b9150915087600001517f2739a12dffae5d66bd9e126a286078ed771840f2288f0afa5709ce38c33309978360018560a00151896402540be400878960600151611bca9190615db0565b611bd49190615d17565b600080604051611bea9796959493929190615b00565b60405180910390a25050611c93565b6000611c23856000015186602001518760e001518860800151611c1c9190615db0565b6001614659565b9050611c428560000151828760800151611c3d9190615e0e565b612ec1565b846020015185600001516001600160a01b031688600001517f1dc3532663e5566091476fb5aba1e514ef733714c83d4feec5723de6f16c326985604051611c899190615a7a565b60405180910390a4505b6000548651604051630195728b60e71b8152600481019190915260016024820152620100009091046001600160a01b03169063cab945809060440161122b565b50565b611cde612f7e565b611ce6612fcc565b6000611cf5826000015161386a565b9050806020015160001415611d08575050565b805180516020820151604090920151600092611d249291612ff5565b905060008160e00151600014611d4c57602084015115611d45576000611d4f565b6002611d4f565b60095b9050600981600b811115611d6557611d65615e51565b14612297576000611d83836000015184602001518560400151613091565b905060008060029054906101000a90046001600160a01b03166001600160a01b0316633078fff56040518163ffffffff1660e01b815260040160206040518083038186803b158015611dd457600080fd5b505afa158015611de8573d6000803e3d6000fd5b505050506040513d601f19601f82011682018060405250810190611e0c919061527c565b9050611e1661502f565b6402540be4008560e0015184602001518760600151611e359190615db0565b611e3f9190615db0565b611e499190615d17565b816020018181525050816001600160a01b0316633c88e8826040518163ffffffff1660e01b8152600401602060405180830381600087803b158015611e8d57600080fd5b505af1158015611ea1573d6000803e3d6000fd5b505050506040513d601f19601f82011682018060405250810190611ec59190615884565b6040820152600084600b811115611ede57611ede615e51565b14156121d457611f008560a0015188602001518760c001518860e00151613155565b606082015260e08501516020820151611f199190615d17565b8160000181815250506121768560018360600151846000015187604001516402540be4006064896001600160a01b03166335b03c176040518163ffffffff1660e01b815260040160206040518083038186803b158015611f7857600080fd5b505afa158015611f8c573d6000803e3d6000fd5b505050506040513d601f19601f82011682018060405250810190611fb0919061527c565b6001600160a01b031663836a341a8e602001516040518263ffffffff1660e01b8152600401611fe191815260200190565b60206040518083038186803b158015611ff957600080fd5b505afa15801561200d573d6000803e3d6000fd5b505050506040513d601f19601f820116820180604052508101906120319190615884565b89602001516120409190615db0565b61204a9190615d17565b6120549190615d17565b6402540be40060648a6001600160a01b03166335b03c176040518163ffffffff1660e01b815260040160206040518083038186803b15801561209557600080fd5b505afa1580156120a9573d6000803e3d6000fd5b505050506040513d601f19601f820116820180604052508101906120cd919061527c565b6001600160a01b0316639c8dd2fa8f602001516040518263ffffffff1660e01b81526004016120fe91815260200190565b60206040518083038186803b15801561211657600080fd5b505afa15801561212a573d6000803e3d6000fd5b505050506040513d601f19601f8201168201806040525081019061214e9190615884565b8a6020015161215d9190615db0565b6121679190615d17565b6121719190615d17565b6131e4565b60c08201819052875160208901518351606085015160405193947f2739a12dffae5d66bd9e126a286078ed771840f2288f0afa5709ce38c3330997946121c7948c9460009491938593919291615b00565b60405180910390a2612293565b60006121f586600001518760200151846020015160008a6080015111614659565b602085015190915061220c6402540be40083615db0565b6122169190615d17565b866060018181516122279190615e0e565b905250600054604051631a97b52160e31b8152620100009091046001600160a01b03169063d4bda9089061225f908990600401615af1565b600060405180830381600087803b15801561227957600080fd5b505af115801561228d573d6000803e3d6000fd5b50505050505b5050505b600081600b8111156122ab576122ab615e51565b1461230a578251602081015181518651604093840151935192936001600160a01b039092169290917f293df767d6749666902026d2f6a2cc4e5f15cdede46402226c42ef4fdf27a17c9161230191908790615bc5565b60405180910390a45b600080548551604051630195728b60e71b8152600481019190915260248101929092526201000090046001600160a01b03169063cab9458090604401600060405180830381600087803b15801561236057600080fd5b505af1158015612374573d6000803e3d6000fd5b5050505050505050565b612386612f30565b80600a6000612398602086018661525f565b6001600160a01b031681526020808201929092526040908101600090812086840135825283528181208683013582529092528120906123dd608086016060870161546c565b60018111156123ee576123ee615e51565b60018111156123ff576123ff615e51565b8152602080820192909252604090810160002083518154938501519285015160609095015163ffffffff908116600160601b0263ffffffff60601b19968216600160401b02969096166fffffffffffffffff0000000000000000199482166401000000000267ffffffffffffffff1990961691909216179390931791909116919091179190911790555050565b612494612e73565b6008805460ff8082161560ff1990921682179092556040519116151581527f9422424b175dda897495a07b091ef74a3ef715cf6d866fc972954c1c7f459304906020015b60405180910390a1565b6124ea612e73565b6008805460ff610100808304821615810261ff001990931692909217928390556040517fc3a6f986261de9467c2838c6df8ef74f9107855159205600c0bc7a14cdfd3888936124d89390049091161515815260200190565b61254a612f7e565b612552612fcc565b6000805482516040516399794d3560e01b81526004810191909152620100009091046001600160a01b0316906399794d359060240160c06040518083038186803b15801561259f57600080fd5b505afa1580156125b3573d6000803e3d6000fd5b505050506040513d601f19601f820116820180604052508101906125d79190615625565b60008054604083810151606085015160808601519251636e6f99cd60e11b81529596509394620100009093046001600160a01b03169363dcdf339a9361262093906004016159de565b60206040518083038186803b15801561263857600080fd5b505afa15801561264c573d6000803e3d6000fd5b505050506040513d601f19601f82011682018060405250810190612670919061534d565b1561267c57600061267f565b60095b9050600081600b81111561269557612695615e51565b1415612b505760008054604084810151606086015160808701519251632e21e28b60e21b8152620100009094046001600160a01b03169363b8878a2c936126e09392916004016159de565b6101a06040518083038186803b1580156126f957600080fd5b505afa15801561270d573d6000803e3d6000fd5b505050506040513d601f19601f8201168201806040525081019061273191906154e1565b600154604080860151606087015160808801519251636a6f32f560e11b81529495506000946001600160a01b039094169363d4de65ea936127769392916004016159de565b60206040518083038186803b15801561278e57600080fd5b505afa1580156127a2573d6000803e3d6000fd5b505050506040513d601f19601f820116820180604052508101906127c6919061544b565b90508161014001518560800151101580156127ea57508161014001518560a0015111155b6127f557600b6127f8565b60005b925060008060006129006040518061016001604052806000600b81111561282157612821615e51565b89600b81111561283357612833615e51565b14612842578a60600151612849565b8761014001515b81526101408881015160208084019190915260608d810151604080860191909152808f01518286015260a0808d015115156080870152838d01805191870191909152918c015160c0808701919091528c015160e0808701919091528c516001600160a01b03166000908152600d855282812093518152928452818320828e0151845284528183206001845290935290205464ffffffffff1661010080850191909152908a01516101208401528901519101526138fa565b9194509250905060008087600b81111561291c5761291c615e51565b1490508015816129a05750610140860151158061294a5750600285600281111561294857612948615e51565b145b612979578560a00151612968578561014001518960600151106129a0565b8561014001518960600151116129a0565b8560a00151612993578561014001518960600151116129a0565b8561014001518960600151105b6129aa57816129ad565b600b5b9650600087600b8111156129c3576129c3615e51565b1415612b4957600080612a4b6040518061014001604052808a600001516001600160a01b031681526020018a60200151815260200160008152602001600081526020018a6060015181526020018781526020018a60a00151151581526020018a60c0015181526020018a60e0015181526020018a610100015181525060018c60800151613bf3565b6000548a5160208c01516040808e0151905163b4b0f56760e01b8152959750939550620100009092046001600160a01b03169363b4b0f56793612a9193916004016159de565b600060405180830381600087803b158015612aab57600080fd5b505af1158015612abf573d6000803e3d6000fd5b5050505089600001516001600160a01b03168b600001517f1ab0771256522e5114b583b488c490436d6f8fe02b1e1c9697443e8704c4e8408c608001518560038760a001518c6402540be400898b60600151612b1b9190615db0565b612b259190615d17565b6000808d604051612b3e99989796959493929190615bd9565b60405180910390a350505b5050505050505b600081600b811115612b6457612b64615e51565b14612bb75781600001516001600160a01b031683600001517fe9681b5336d843735c62e93114e5a0f45912a84ae83fa3f3ed80ca5ad933dfc3600384604051612bae929190615a88565b60405180910390a35b600160009054906101000a90046001600160a01b03166001600160a01b031663bf654d2b604051806080016040528085604001516001600160a01b0316815260200185606001518152602001856080015181526020018560a001516003811115612c2357612c23615e51565b8152506040518263ffffffff1660e01b8152600401612c429190615b9c565b600060405180830381600087803b158015612c5c57600080fd5b505af1158015612c70573d6000803e3d6000fd5b5050600054855160405163201d8bdb60e01b81526004810191909152620100009091046001600160a01b0316925063201d8bdb9150602401600060405180830381600087803b158015612cc257600080fd5b505af1158015612cd6573d6000803e3d6000fd5b50505050505050565b612ce7612e73565b80612cf28385615cd1565b612cfc9190615cd1565b606414612d1c57604051635863f78960e01b815260040160405180910390fd5b60058390556006829055600781905560408051848152602081018490529081018290527f0caa98ed9a1605da290817d1f67b1b83c63f9229abeca5123df5d90581c4955890606001611a63565b600260009054906101000a90046001600160a01b03166001600160a01b031663481c6a756040518163ffffffff1660e01b815260040160206040518083038186803b158015612db757600080fd5b505afa158015612dcb573d6000803e3d6000fd5b505050506040513d601f19601f82011682018060405250810190612def919061527c565b6001600160a01b0316336001600160a01b031614612e2057604051631dd2188d60e31b815260040160405180910390fd5b565b6000828152600c6020526040908190208290555182907f95924bc10431f9a625a06fe5a27d55f4348510b2da42a18fe3bf2a6f2c4eab6790612e679084815260200190565b60405180910390a25050565b600060029054906101000a90046001600160a01b03166001600160a01b03166312d43a516040518163ffffffff1660e01b815260040160206040518083038186803b158015612db757600080fd5b60005460405163373873db60e11b81526001600160a01b0362010000909204821660048201819052918416602482015260448101839052636e70e7b6906064015b600060405180830381600087803b158015612f1c57600080fd5b505af11580156105a6573d6000803e3d6000fd5b600060029054906101000a90046001600160a01b03166001600160a01b031663ec44acf26040518163ffffffff1660e01b815260040160206040518083038186803b158015612db757600080fd5b600060029054906101000a90046001600160a01b03166001600160a01b0316633078fff56040518163ffffffff1660e01b815260040160206040518083038186803b158015612db757600080fd5b600854610100900460ff1615612e2057604051631dd2188d60e31b815260040160405180910390fd5b612ffd61508b565b6000546040516351d407ff60e11b8152620100009091046001600160a01b03169063a3a80ffe90613036908790879087906004016159de565b6101406040518083038186803b15801561304f57600080fd5b505afa158015613063573d6000803e3d6000fd5b505050506040513d601f19601f82011682018060405250810190613087919061584e565b90505b9392505050565b6130cc6040518060c0016040528060008152602001600081526020016000815260200160008152602001600081526020016000151581525090565b600054604051638c8ff1d560e01b8152620100009091046001600160a01b031690638c8ff1d590613105908790879087906004016159de565b60c06040518083038186803b15801561311d57600080fd5b505afa158015613131573d6000803e3d6000fd5b505050506040513d601f19601f8201168201806040525081019061308791906157fc565b6000806131696402540be400610384615d2b565b90506000861161317a5760006131c9565b85836402540be4008661319657613191888a615dcf565b6131a0565b6131a08989615dcf565b6131ab906064615d2b565b6131b59190615d2b565b6131bf9190615d2b565b6131c99190615ce9565b91508082136131d857816131da565b805b9695505050505050565b600080600060029054906101000a90046001600160a01b03166001600160a01b031663fbfa77cf6040518163ffffffff1660e01b815260040160206040518083038186803b15801561323557600080fd5b505afa158015613249573d6000803e3d6000fd5b505050506040513d601f19601f8201168201806040525081019061326d919061527c565b905061328489878961327f8789615cd1565b6147f1565b50600b548a5160208c01516040808e015160c08f0151915163ce67edfb60e01b81529597506001600160a01b039094169463ce67edfb946132d094939290918c916000916004016159ff565b600060405180830381600087803b1580156132ea57600080fd5b505af11580156132fe573d6000803e3d6000fd5b5050505061330a61376e565b6001600160a01b03166320f0fc5e8a602001518b60e001518861332d9190615d17565b60c08d01516040516001600160e01b031960e086901b168152600481019390935260248301919091521515604482015260006064820152608401600060405180830381600087803b15801561338157600080fd5b505af1158015613395573d6000803e3d6000fd5b50506000548b5160208d01516040808f015190516390d112b960e01b8152620100009094046001600160a01b031695506390d112b994506133d8936004016159de565b600060405180830381600087803b1580156133f257600080fd5b505af1158015613406573d6000803e3d6000fd5b505050506080890151156136315761341c61502f565b60646005548661342c9190615db0565b6134369190615d17565b6101008201819052613449903090612ec1565b61010081015160405163940a4e4560e01b815260048101919091526001600160a01b0383169063940a4e4590602401600060405180830381600087803b15801561349257600080fd5b505af11580156134a6573d6000803e3d6000fd5b5050505089600001516001600160a01b03167f60c73da98faf96842eabd77a0c73964cd189dbaf2c9ae90923a3fed137f30e3e8261010001516040516134ee91815260200190565b60405180910390a26064600754866135069190615db0565b6135109190615d17565b8961353157600a613522866008615db0565b61352c9190615d17565b613533565b845b61353d9190615cd1565b61012082018190528a5161355091614923565b6000816101000151826101200151896135699190615e0e565b6135739190615e0e565b90508084111561360a576001600160a01b03831663e66a6e3b6135968387615e0e565b8d5160405160e084901b6001600160e01b031916815260048101929092526001600160a01b03166024820152604401600060405180830381600087803b1580156135df57600080fd5b505af11580156135f3573d6000803e3d6000fd5b505050506136058b6000015182612ec1565b61362a565b61361e6136178583615e0e565b8c516149c4565b8a5161362a9085612ec1565b5050613697565b885160405163e66a6e3b60e01b8152600481018490526001600160a01b0391821660248201529082169063e66a6e3b90604401600060405180830381600087803b15801561367e57600080fd5b505af1158015613692573d6000803e3d6000fd5b505050505b50979650505050505050565b6000816136b56402540be40085615db0565b6136bf9190615d17565b600154604051636fc1c9a960e11b81529192506001600160a01b03169063df839352906136f29088908590600401615baa565b600060405180830381600087803b15801561370c57600080fd5b505af1158015613720573d6000803e3d6000fd5b50505050836001600160a01b03167f17fa86cf4833d28c6224a940e6bd001f2db0cb3d89d69727765679b3efee65598460405161375f91815260200190565b60405180910390a25050505050565b60008060029054906101000a90046001600160a01b03166001600160a01b0316633078fff56040518163ffffffff1660e01b815260040160206040518083038186803b1580156137bd57600080fd5b505afa1580156137d1573d6000803e3d6000fd5b505050506040513d601f19601f820116820180604052508101906137f5919061527c565b6001600160a01b03166335b03c176040518163ffffffff1660e01b815260040160206040518083038186803b15801561382d57600080fd5b505afa158015613841573d6000803e3d6000fd5b505050506040513d601f19601f82011682018060405250810190613865919061527c565b905090565b6138726150e9565b60005460405163b66e6b0560e01b815260048101849052620100009091046001600160a01b03169063b66e6b05906024016101e06040518083038186803b1580156138bc57600080fd5b505afa1580156138d0573d6000803e3d6000fd5b505050506040513d601f19601f820116820180604052508101906138f49190615594565b92915050565b600254815160608301516080840151600093849384936001600160a01b0390921692637ea95f329261392c9291614a8b565b8660a0015187608001518860e001518960c0015161394a9190615db0565b6040516001600160e01b031960e087901b16815260048101949094526024840192909252151560448301526064820152608401604080518083038186803b15801561399457600080fd5b505afa1580156139a8573d6000803e3d6000fd5b505050506040513d601f19601f820116820180604052508101906139cc91906158bf565b61010086015191945092506000906139f457606485602001516139ef9190615d17565b613a25565b6402540be40060648661010001518760200151613a119190615db0565b613a1b9190615d17565b613a259190615d17565b60085490915060ff16613be757604085015115613be0578460800151613a5c57808560200151613a559190615e0e565b8310613a6f565b808560200151613a6c9190615cd1565b83115b613bd9576000856101200151118015613aa457508460800151613a9a57846101200151831115613aa4565b8461012001518310155b613bd2576000856101400151118015613ad957508460800151613acf57846101400151831015613ad9565b8461014001518311155b613bcb57613af98560a0015186608001518760c001518860e00151614add565b15613bc457600260009054906101000a90046001600160a01b03166001600160a01b03166380f6cfc26040518163ffffffff1660e01b815260040160206040518083038186803b158015613b4c57600080fd5b505afa158015613b60573d6000803e3d6000fd5b505050506040513d601f19601f82011682018060405250810190613b849190615884565b60e0860151613b939086615db0565b11613bbd57613baa8560a001518660e00151614cbb565b15613bb6576000613bea565b6008613bea565b6007613bea565b6006613bea565b6005613bea565b6004613bea565b6003613bea565b6002613bea565b60015b93959294505050565b613bfb61508b565b600080600060029054906101000a90046001600160a01b03166001600160a01b0316633078fff56040518163ffffffff1660e01b815260040160206040518083038186803b158015613c4c57600080fd5b505afa158015613c60573d6000803e3d6000fd5b505050506040513d601f19601f82011682018060405250810190613c84919061527c565b90506000816001600160a01b03166335b03c176040518163ffffffff1660e01b815260040160206040518083038186803b158015613cc157600080fd5b505afa158015613cd5573d6000803e3d6000fd5b505050506040513d601f19601f82011682018060405250810190613cf9919061527c565b9050613d0361502f565b8760e001518860800151613d179190615db0565b816020018181525050826001600160a01b0316633c88e8826040518163ffffffff1660e01b8152600401602060405180830381600087803b158015613d5b57600080fd5b505af1158015613d6f573d6000803e3d6000fd5b505050506040513d601f19601f82011682018060405250810190613d939190615884565b60408281019190915260035489519151631862c18d60e31b81526001600160a01b0392831660048201526000929091169063c3160c689060240160206040518083038186803b158015613de557600080fd5b505afa158015613df9573d6000803e3d6000fd5b505050506040513d601f19601f82011682018060405250810190613e1d919061527c565b6001600160a01b03161461408e57600354885160405163201ad16d60e01b81526001600160a01b0391821660048201526402540be40092606492169063201ad16d9060240160206040518083038186803b158015613e7a57600080fd5b505afa158015613e8e573d6000803e3d6000fd5b505050506040513d601f19601f82011682018060405250810190613eb29190615884565b613ec26402540be4006064615db0565b613ecc9190615e0e565b8360200151613edb9190615db0565b613ee59190615d17565b613eef9190615d17565b81526003548851602080840151908b0151604051638251135b60e01b81526001600160a01b039485169463e78c6fd294939290881691638251135b91613f3b9160040190815260200190565b60206040518083038186803b158015613f5357600080fd5b505afa158015613f67573d6000803e3d6000fd5b505050506040513d601f19601f82011682018060405250810190613f8b9190615884565b60408087015190516001600160e01b031960e087901b1681526001600160a01b039094166004850152602484019290925260448301526064820152608401602060405180830381600087803b158015613fe357600080fd5b505af1158015613ff7573d6000803e3d6000fd5b505050506040513d601f19601f8201168201806040525081019061401b9190615884565b60e08201819052885161402e91906149c4565b8060e00151886080018181516140449190615e0e565b905250875160e08201516040519081526001600160a01b03909116907f0f5273269f52308b9c40fafda3ca13cc42f715fcd795365e87f351f59e2493139060200160405180910390a25b60006140bc89600001518a6020015160008560000151116140b3578460200151611c1c565b84516001614659565b60e0830181905260208a0151604051634e46e97d60e11b81529192506402540be400916064916001600160a01b03871691639c8dd2fa916141039160040190815260200190565b60206040518083038186803b15801561411b57600080fd5b505afa15801561412f573d6000803e3d6000fd5b505050506040513d601f19601f820116820180604052508101906141539190615884565b84602001516141629190615db0565b61416c9190615d17565b6141769190615d17565b610100830181905260e083015161418d9083615cd1565b6141979190615cd1565b896080018181516141a89190615e0e565b905250871561422857600a82610100015160026141c59190615db0565b6141cf9190615d17565b610120830181905289516141e391906149c4565b604080516080810182528a516001600160a01b031681526020808c0151908201529081018890526142289060608101600390528a5161012085015160408601516136a3565b61425a89600001518361012001518461010001518560e0015161424b9190615cd1565b6142559190615e0e565b614923565b600054895160208b015160405163292c161760e01b81526001600160a01b039283166004820152602481019190915262010000909204169063292c16179060440160206040518083038186803b1580156142b357600080fd5b505afa1580156142c7573d6000803e3d6000fd5b505050506040513d601f19601f820116820180604052508101906142eb9190615884565b6040808b019190915282015160808a015161430c906402540be40090615db0565b6143169190615d17565b89606001818152505061433c8960a001518a60e001518b61010001518c60c00151614d69565b896101000181815250506143638960a001518a60e001518b61012001518c60c00151614dfc565b6101208a0152600254895160208b01516040808d015160c08e01519151630735e1cd60e11b81526001600160a01b0394851660048201526024810193909352604483015215156064820152911690630e6bc39a90608401600060405180830381600087803b1580156143d457600080fd5b505af11580156143e8573d6000803e3d6000fd5b50505050602089015160808a015160c08b01516040516310787e2f60e11b81526004810193909352602483019190915215156044820152600160648201526001600160a01b038416906320f0fc5e90608401600060405180830381600087803b15801561445457600080fd5b505af1158015614468573d6000803e3d6000fd5b50505050600b60009054906101000a90046001600160a01b03166001600160a01b031663ce67edfb8a600001518b602001518c604001518d60e001518e608001516144b39190615db0565b60018f60c001516040518763ffffffff1660e01b81526004016144db969594939291906159ff565b600060405180830381600087803b1580156144f557600080fd5b505af1158015614509573d6000803e3d6000fd5b50505050600060029054906101000a90046001600160a01b03166001600160a01b031663c311ab318a6040518060c0016040528060008152602001866040015181526020018d60e001518e608001516145629190615db0565b81526020016000815260200160008152602001600015158152506040518363ffffffff1660e01b8152600401614599929190615b45565b600060405180830381600087803b1580156145b357600080fd5b505af11580156145c7573d6000803e3d6000fd5b50508a516001600160a01b03166000908152600a60209081526040808320828f015184528252808320818f01518452825280832083805290915281209250905061460f614e76565b825467ffffffffffffffff191663ffffffff9190911690811764010000000082021763ffffffff60601b1916600160601b9190910217909155505060400151969795505050505050565b600060646402540be400600060029054906101000a90046001600160a01b03166001600160a01b0316633078fff56040518163ffffffff1660e01b815260040160206040518083038186803b1580156146b157600080fd5b505afa1580156146c5573d6000803e3d6000fd5b505050506040513d601f19601f820116820180604052508101906146e9919061527c565b6001600160a01b031663e21e5fe0876040518263ffffffff1660e01b815260040161471691815260200190565b60206040518083038186803b15801561472e57600080fd5b505afa158015614742573d6000803e3d6000fd5b505050506040513d601f19601f820116820180604052508101906147669190615884565b6147709086615db0565b61477a9190615d17565b6147849190615d17565b905081156147a45780600e600082825461479e9190615cd1565b90915550505b6040805182815283151560208201526001600160a01b038716917fccd80d359a6fbe0bfa5cbb1ecf0854adbe8c67b4ed6bf10d3c0d78c2be0f48cb910160405180910390a2949350505050565b6000806000614801878787614f06565b600254895160208b01516040808d015160c08e015160e08f01519251636ceaca6760e01b81526001600160a01b0395861660048201526024810194909452604484019190915215156064830152608482018c905260a482015260c4810185905260e481018990529295509293509190911690636ceaca679061010401602060405180830381600087803b15801561489757600080fd5b505af11580156148ab573d6000803e3d6000fd5b505050506040513d601f19601f820116820180604052508101906148cf9190615884565b875160408051838152602081018690529295506001600160a01b03909116917fe7d34775bf6fd7b34e703a903ef79ab16166ebdffce96a66f4d2f84b6263bb29910160405180910390a25094509492505050565b61492d3082612ec1565b6004805460405163b243fb0160e01b81529182018390526001600160a01b03169063b243fb0190602401600060405180830381600087803b15801561497157600080fd5b505af1158015614985573d6000803e3d6000fd5b50505050816001600160a01b03167fd1e388cc27c5125a80cf538c12b26dc5a784071d324a81a736e4d17f238588e482604051612e6791815260200190565b6149ce3083612ec1565b600060029054906101000a90046001600160a01b03166001600160a01b031663fbfa77cf6040518163ffffffff1660e01b815260040160206040518083038186803b158015614a1c57600080fd5b505afa158015614a30573d6000803e3d6000fd5b505050506040513d601f19601f82011682018060405250810190614a54919061527c565b60405163a481c14b60e01b8152600481018490526001600160a01b038381166024830152919091169063a481c14b90604401612f02565b6000806402540be4006064614aa08688615db0565b614aaa9190615d17565b614ab49190615d17565b905082614aca57614ac58186615e0e565b614ad4565b614ad48186615cd1565b95945050505050565b600080614aea8385615db0565b600b54604051632e53fe8760e21b8152600481018990529192506001600160a01b03169063b94ffa1c9060240160206040518083038186803b158015614b2f57600080fd5b505afa158015614b43573d6000803e3d6000fd5b505050506040513d601f19601f82011682018060405250810190614b679190615884565b614b75906305f5e100615db0565b60005482906201000090046001600160a01b03166328daca218989614b9b576001614b9e565b60005b6040516001600160e01b031960e085901b168152600481019290925260ff16602482015260440160206040518083038186803b158015614bdd57600080fd5b505afa158015614bf1573d6000803e3d6000fd5b505050506040513d601f19601f82011682018060405250810190614c159190615884565b614c1f9190615cd1565b111580156131da5750600b5460405163d627450560e01b8152600481018890528615156024820152604481018390526001600160a01b039091169063d62745059060640160206040518083038186803b158015614c7b57600080fd5b505afa158015614c8f573d6000803e3d6000fd5b505050506040513d601f19601f820116820180604052508101906131da919061534d565b949350505050565b6000828152600c60205260408120548015614cd95780831115614cb3565b614ce161376e565b6001600160a01b031663281b693c856040518263ffffffff1660e01b8152600401614d0e91815260200190565b60206040518083038186803b158015614d2657600080fd5b505afa158015614d3a573d6000803e3d6000fd5b505050506040513d601f19601f82011682018060405250810190614d5e9190615884565b831115949350505050565b6000821580614d925750614d846402540be400610384615d2b565b614d9086858588613155565b145b15614df3576000606485614da861038489615db0565b614db29190615d17565b614dbc9190615d17565b905082614de15785811115614dd2576000614deb565b614ddc8187615e0e565b614deb565b614deb8187615cd1565b915050614cb3565b50909392505050565b60008083118015614e325750614e186402540be400604b615d2b565b614e2490600019615d2b565b614e3086858588613155565b125b15614df3576000606485614e47604b89615db0565b614e519190615d17565b614e5b9190615d17565b905082614e6c57614ddc8187615cd1565b614deb8187615e0e565b600061a4b1461480614e8a575062066eed46145b15614f015760646001600160a01b031663a3b1b31d6040518163ffffffff1660e01b815260040160206040518083038186803b158015614ec957600080fd5b505afa158015614edd573d6000803e3d6000fd5b505050506040513d601f19601f820116820180604052508101906138659190615884565b504390565b600b546040805160c0808201835286516001600160a01b03908116835260208089015190840190815288850151848601908152928901511515606085019081526080850189815260e08b015160a087019081529651632d28a81760e01b8152955184166004870152915160248601529251604485015291511515606484015290516084830152915160a482015260009283921690632d28a8179060c40160206040518083038186803b158015614fbb57600080fd5b505afa158015614fcf573d6000803e3d6000fd5b505050506040513d601f19601f82011682018060405250810190614ff39190615884565b9050836402540be400615007836064615db0565b6150119190615db0565b61501b9190615d17565b6150259084615dcf565b9150935093915050565b604051806101600160405280600081526020016000815260200160008152602001600081526020016000815260200160008152602001600081526020016000815260200160008152602001600081526020016000151581525090565b60405180610140016040528060006001600160a01b0316815260200160008152602001600081526020016000815260200160008152602001600081526020016000151581526020016000815260200160008152602001600081525090565b6040518060c001604052806150fc61508b565b815260200160008152602001600081526020016000815260200160008152602001600081525090565b805161513081615e93565b919050565b60008083601f84011261514757600080fd5b50813567ffffffffffffffff81111561515f57600080fd5b6020830191508360208260051b850101111561517a57600080fd5b9250929050565b8051801515811461513057600080fd5b80356002811061513057600080fd5b6000608082840312156151b257600080fd5b50919050565b600061014082840312156151cb57600080fd5b6151d3615c36565b90506151de82615125565b81526020820151602082015260408201516040820152606082015160608201526080820151608082015260a082015160a082015261521e60c08301615181565b60c082015260e082015160e082015261010080830151818301525061012080830151818301525092915050565b803563ffffffff8116811461513057600080fd5b60006020828403121561527157600080fd5b813561308a81615e93565b60006020828403121561528e57600080fd5b815161308a81615e93565b600080600080608085870312156152af57600080fd5b84356152ba81615e93565b935060208501359250604085013591506152d660608601615191565b905092959194509250565b600080600080604085870312156152f757600080fd5b843567ffffffffffffffff8082111561530f57600080fd5b61531b88838901615135565b9096509450602087013591508082111561533457600080fd5b5061534187828801615135565b95989497509550505050565b60006020828403121561535f57600080fd5b61308a82615181565b6000806040838503121561537b57600080fd5b823561538681615e93565b9150602083013561539681615e93565b809150509250929050565b6000806000806000806000806000806101408b8d0312156153c157600080fd5b8a356153cc81615e93565b995060208b01356153dc81615e93565b985060408b01356153ec81615e93565b975060608b01356153fc81615e93565b965060808b013561540c81615e93565b955060a08b013561541c81615e93565b999c989b5096999598949794965050505060c08301359260e08101359261010082013592506101209091013590565b60006020828403121561545d57600080fd5b81516003811061308a57600080fd5b60006020828403121561547e57600080fd5b61308a82615191565b600060c0828403121561549957600080fd5b6154a1615c6e565b823581526020830135602082015260408301356040820152606083013560608201526080830135608082015260a083013560a08201528091505092915050565b60006101a082840312156154f457600080fd5b6154fc615c9f565b61550583615125565b81526020830151602082015260408301516040820152606083015160608201526080830151608082015261553b60a08401615181565b60a082015260c0838101519082015260e080840151908201526101008084015190820152610120808401519082015261014080840151908201526101608084015190820152610180928301519281019290925250919050565b60006101e082840312156155a757600080fd5b60405160c0810181811067ffffffffffffffff821117156155d857634e487b7160e01b600052604160045260246000fd5b6040526155e584846151b8565b81526101408301516020820152610160830151604082015261018083015160608201526101a083015160808201526101c09092015160a083015250919050565b600060c0828403121561563757600080fd5b61563f615c6e565b825161564a81615e93565b815260208381015190820152604083015161566481615e93565b80604083015250606083015160608201526080830151608082015260a08301516004811061569157600080fd5b60a08201529392505050565b6000808284036101008112156156b257600080fd5b6156bc85856151a0565b92506080607f19820112156156d057600080fd5b506040516080810181811067ffffffffffffffff8211171561570257634e487b7160e01b600052604160045260246000fd5b6040526157116080850161524b565b815261571f60a0850161524b565b602082015261573060c0850161524b565b604082015261574160e0850161524b565b6060820152809150509250929050565b60008082840360c081121561576557600080fd5b61576f85856151a0565b92506040607f198201121561578357600080fd5b506040516040810181811067ffffffffffffffff821117156157b557634e487b7160e01b600052604160045260246000fd5b604052608084013564ffffffffff811681146157d057600080fd5b815260a08401356001600160d81b03811681146157ec57600080fd5b6020820152919491935090915050565b600060c0828403121561580e57600080fd5b615816615c6e565b825181526020830151602082015260408301516040820152606083015160608201526080830151608082015261569160a08401615181565b6000610140828403121561586157600080fd5b61308a83836151b8565b60006020828403121561587d57600080fd5b5035919050565b60006020828403121561589657600080fd5b5051919050565b600080604083850312156158b057600080fd5b50508035926020909101359150565b600080604083850312156158d257600080fd5b505080516020909101519092909150565b6000806000606084860312156158f857600080fd5b505081359360208301359350604090920135919050565b600c811061591f5761591f615e51565b9052565b6004811061591f5761591f615e51565b80516001600160a01b031682526020810151602083015260408101516040830152606081015160608301526080810151608083015260a081015160a083015260c081015161598560c084018215159052565b5060e08181015190830152610100808201519083015261012090810151910152565b60018060a01b038151168252602081015160208301526040810151604083015260608101516159d96060840182615923565b505050565b6001600160a01b039390931683526020830191909152604082015260600190565b6001600160a01b0396909616865260208601949094526040850192909252606084015215156080830152151560a082015260c00190565b6020808252825182820181905260009190848201906040850190845b81811015615a6e57835183529284019291840191600101615a52565b50909695505050505050565b602081016138f4828461590f565b60408101615a968285615923565b61308a602083018461590f565b6020808252602e908201527f496e697469616c697a61626c653a20636f6e747261637420697320616c72656160408201526d191e481a5b9a5d1a585b1a5e995960921b606082015260800190565b61014081016138f48284615933565b6102008101615b0f828a615933565b9615156101408201526101608101959095526101808501939093526101a08401919091526101c08301526101e090910152919050565b6102008101615b548285615933565b82516101408301526020830151610160830152604083015161018083015260608301516101a083015260808301516101c083015260a083015115156101e08301529392505050565b608081016138f482846159a7565b60a08101615bb882856159a7565b8260808301529392505050565b8281526040810161308a602083018461590f565b8981526102408101615bee602083018b615933565b615bfc61016083018a615923565b87610180830152866101a0830152856101c0830152846101e0830152836102008301528215156102208301529a9950505050505050505050565b604051610140810167ffffffffffffffff81118282101715615c6857634e487b7160e01b600052604160045260246000fd5b60405290565b60405160c0810167ffffffffffffffff81118282101715615c6857634e487b7160e01b600052604160045260246000fd5b6040516101a0810167ffffffffffffffff81118282101715615c6857634e487b7160e01b600052604160045260246000fd5b60008219821115615ce457615ce4615e25565b500190565b600082615cf857615cf8615e3b565b600160ff1b821460001984141615615d1257615d12615e25565b500590565b600082615d2657615d26615e3b565b500490565b60006001600160ff1b0381841382841380821686840486111615615d5157615d51615e25565b600160ff1b6000871282811687830589121615615d7057615d70615e25565b60008712925087820587128484161615615d8c57615d8c615e25565b87850587128184161615615da257615da2615e25565b505050929093029392505050565b6000816000190483118215151615615dca57615dca615e25565b500290565b60008083128015600160ff1b850184121615615ded57615ded615e25565b6001600160ff1b0384018313811615615e0857615e08615e25565b50500390565b600082821015615e2057615e20615e25565b500390565b634e487b7160e01b600052601160045260246000fd5b634e487b7160e01b600052601260045260246000fd5b634e487b7160e01b600052602160045260246000fd5b634e487b7160e01b600052603260045260246000fd5b634e487b7160e01b600052604160045260246000fd5b6001600160a01b0381168114611cd357600080fdfea26469706673582212207ab7721a9407ebe361b865cdebac213b23b2c38a37f496ac3b59b7deb27559f164736f6c63430008070033",
  "libraries": {},
  "devdoc": {
    "kind": "dev",
    "methods": {},
    "version": 1
  },
  "userdoc": {
    "kind": "user",
    "methods": {},
    "version": 1
  },
  "storageLayout": {
    "storage": [
      {
        "astId": 6,
        "contract": "contracts/contracts/GNSTradingCallbacksV6_4_1.sol:GNSTradingCallbacksV6_4_1",
        "label": "_initialized",
        "offset": 0,
        "slot": "0",
        "type": "t_uint8"
      },
      {
        "astId": 9,
        "contract": "contracts/contracts/GNSTradingCallbacksV6_4_1.sol:GNSTradingCallbacksV6_4_1",
        "label": "_initializing",
        "offset": 1,
        "slot": "0",
        "type": "t_bool"
      },
      {
        "astId": 513,
        "contract": "contracts/contracts/GNSTradingCallbacksV6_4_1.sol:GNSTradingCallbacksV6_4_1",
        "label": "storageT",
        "offset": 2,
        "slot": "0",
        "type": "t_contract(StorageInterfaceV5)5736"
      },
      {
        "astId": 516,
        "contract": "contracts/contracts/GNSTradingCallbacksV6_4_1.sol:GNSTradingCallbacksV6_4_1",
        "label": "nftRewards",
        "offset": 0,
        "slot": "1",
        "type": "t_contract(IGNSOracleRewardsV6_4_1)4954"
      },
      {
        "astId": 519,
        "contract": "contracts/contracts/GNSTradingCallbacksV6_4_1.sol:GNSTradingCallbacksV6_4_1",
        "label": "pairInfos",
        "offset": 0,
        "slot": "2",
        "type": "t_contract(GNSPairInfosInterfaceV6)4637"
      },
      {
        "astId": 522,
        "contract": "contracts/contracts/GNSTradingCallbacksV6_4_1.sol:GNSTradingCallbacksV6_4_1",
        "label": "referrals",
        "offset": 0,
        "slot": "3",
        "type": "t_contract(GNSReferralsInterfaceV6_2)4674"
      },
      {
        "astId": 525,
        "contract": "contracts/contracts/GNSTradingCallbacksV6_4_1.sol:GNSTradingCallbacksV6_4_1",
        "label": "staking",
        "offset": 0,
        "slot": "4",
        "type": "t_contract(GNSStakingInterfaceV6_4_1)4762"
      },
      {
        "astId": 539,
        "contract": "contracts/contracts/GNSTradingCallbacksV6_4_1.sol:GNSTradingCallbacksV6_4_1",
        "label": "daiVaultFeeP",
        "offset": 0,
        "slot": "5",
        "type": "t_uint256"
      },
      {
        "astId": 541,
        "contract": "contracts/contracts/GNSTradingCallbacksV6_4_1.sol:GNSTradingCallbacksV6_4_1",
        "label": "lpFeeP",
        "offset": 0,
        "slot": "6",
        "type": "t_uint256"
      },
      {
        "astId": 543,
        "contract": "contracts/contracts/GNSTradingCallbacksV6_4_1.sol:GNSTradingCallbacksV6_4_1",
        "label": "sssFeeP",
        "offset": 0,
        "slot": "7",
        "type": "t_uint256"
      },
      {
        "astId": 545,
        "contract": "contracts/contracts/GNSTradingCallbacksV6_4_1.sol:GNSTradingCallbacksV6_4_1",
        "label": "isPaused",
        "offset": 0,
        "slot": "8",
        "type": "t_bool"
      },
      {
        "astId": 547,
        "contract": "contracts/contracts/GNSTradingCallbacksV6_4_1.sol:GNSTradingCallbacksV6_4_1",
        "label": "isDone",
        "offset": 1,
        "slot": "8",
        "type": "t_bool"
      },
      {
        "astId": 549,
        "contract": "contracts/contracts/GNSTradingCallbacksV6_4_1.sol:GNSTradingCallbacksV6_4_1",
        "label": "canExecuteTimeout",
        "offset": 0,
        "slot": "9",
        "type": "t_uint256"
      },
      {
        "astId": 561,
        "contract": "contracts/contracts/GNSTradingCallbacksV6_4_1.sol:GNSTradingCallbacksV6_4_1",
        "label": "tradeLastUpdated",
        "offset": 0,
        "slot": "10",
        "type": "t_mapping(t_address,t_mapping(t_uint256,t_mapping(t_uint256,t_mapping(t_enum(TradeType)668,t_struct(LastUpdated)637_storage))))"
      },
      {
        "astId": 564,
        "contract": "contracts/contracts/GNSTradingCallbacksV6_4_1.sol:GNSTradingCallbacksV6_4_1",
        "label": "borrowingFees",
        "offset": 0,
        "slot": "11",
        "type": "t_contract(GNSBorrowingFeesInterfaceV6_4)4492"
      },
      {
        "astId": 568,
        "contract": "contracts/contracts/GNSTradingCallbacksV6_4_1.sol:GNSTradingCallbacksV6_4_1",
        "label": "pairMaxLeverage",
        "offset": 0,
        "slot": "12",
        "type": "t_mapping(t_uint256,t_uint256)"
      },
      {
        "astId": 580,
        "contract": "contracts/contracts/GNSTradingCallbacksV6_4_1.sol:GNSTradingCallbacksV6_4_1",
        "label": "tradeData",
        "offset": 0,
        "slot": "13",
        "type": "t_mapping(t_address,t_mapping(t_uint256,t_mapping(t_uint256,t_mapping(t_enum(TradeType)668,t_struct(TradeData)642_storage))))"
      },
      {
        "astId": 582,
        "contract": "contracts/contracts/GNSTradingCallbacksV6_4_1.sol:GNSTradingCallbacksV6_4_1",
        "label": "govFeesDai",
        "offset": 0,
        "slot": "14",
        "type": "t_uint256"
      }
    ],
    "types": {
      "t_address": {
        "encoding": "inplace",
        "label": "address",
        "numberOfBytes": "20"
      },
      "t_bool": {
        "encoding": "inplace",
        "label": "bool",
        "numberOfBytes": "1"
      },
      "t_contract(GNSBorrowingFeesInterfaceV6_4)4492": {
        "encoding": "inplace",
        "label": "contract GNSBorrowingFeesInterfaceV6_4",
        "numberOfBytes": "20"
      },
      "t_contract(GNSPairInfosInterfaceV6)4637": {
        "encoding": "inplace",
        "label": "contract GNSPairInfosInterfaceV6",
        "numberOfBytes": "20"
      },
      "t_contract(GNSReferralsInterfaceV6_2)4674": {
        "encoding": "inplace",
        "label": "contract GNSReferralsInterfaceV6_2",
        "numberOfBytes": "20"
      },
      "t_contract(GNSStakingInterfaceV6_4_1)4762": {
        "encoding": "inplace",
        "label": "contract GNSStakingInterfaceV6_4_1",
        "numberOfBytes": "20"
      },
      "t_contract(IGNSOracleRewardsV6_4_1)4954": {
        "encoding": "inplace",
        "label": "contract IGNSOracleRewardsV6_4_1",
        "numberOfBytes": "20"
      },
      "t_contract(StorageInterfaceV5)5736": {
        "encoding": "inplace",
        "label": "contract StorageInterfaceV5",
        "numberOfBytes": "20"
      },
      "t_enum(TradeType)668": {
        "encoding": "inplace",
        "label": "enum GNSTradingCallbacksV6_4_1.TradeType",
        "numberOfBytes": "1"
      },
      "t_mapping(t_address,t_mapping(t_uint256,t_mapping(t_uint256,t_mapping(t_enum(TradeType)668,t_struct(LastUpdated)637_storage))))": {
        "encoding": "mapping",
        "key": "t_address",
        "label": "mapping(address => mapping(uint256 => mapping(uint256 => mapping(enum GNSTradingCallbacksV6_4_1.TradeType => struct GNSTradingCallbacksV6_4_1.LastUpdated))))",
        "numberOfBytes": "32",
        "value": "t_mapping(t_uint256,t_mapping(t_uint256,t_mapping(t_enum(TradeType)668,t_struct(LastUpdated)637_storage)))"
      },
      "t_mapping(t_address,t_mapping(t_uint256,t_mapping(t_uint256,t_mapping(t_enum(TradeType)668,t_struct(TradeData)642_storage))))": {
        "encoding": "mapping",
        "key": "t_address",
        "label": "mapping(address => mapping(uint256 => mapping(uint256 => mapping(enum GNSTradingCallbacksV6_4_1.TradeType => struct GNSTradingCallbacksV6_4_1.TradeData))))",
        "numberOfBytes": "32",
        "value": "t_mapping(t_uint256,t_mapping(t_uint256,t_mapping(t_enum(TradeType)668,t_struct(TradeData)642_storage)))"
      },
      "t_mapping(t_enum(TradeType)668,t_struct(LastUpdated)637_storage)": {
        "encoding": "mapping",
        "key": "t_enum(TradeType)668",
        "label": "mapping(enum GNSTradingCallbacksV6_4_1.TradeType => struct GNSTradingCallbacksV6_4_1.LastUpdated)",
        "numberOfBytes": "32",
        "value": "t_struct(LastUpdated)637_storage"
      },
      "t_mapping(t_enum(TradeType)668,t_struct(TradeData)642_storage)": {
        "encoding": "mapping",
        "key": "t_enum(TradeType)668",
        "label": "mapping(enum GNSTradingCallbacksV6_4_1.TradeType => struct GNSTradingCallbacksV6_4_1.TradeData)",
        "numberOfBytes": "32",
        "value": "t_struct(TradeData)642_storage"
      },
      "t_mapping(t_uint256,t_mapping(t_enum(TradeType)668,t_struct(LastUpdated)637_storage))": {
        "encoding": "mapping",
        "key": "t_uint256",
        "label": "mapping(uint256 => mapping(enum GNSTradingCallbacksV6_4_1.TradeType => struct GNSTradingCallbacksV6_4_1.LastUpdated))",
        "numberOfBytes": "32",
        "value": "t_mapping(t_enum(TradeType)668,t_struct(LastUpdated)637_storage)"
      },
      "t_mapping(t_uint256,t_mapping(t_enum(TradeType)668,t_struct(TradeData)642_storage))": {
        "encoding": "mapping",
        "key": "t_uint256",
        "label": "mapping(uint256 => mapping(enum GNSTradingCallbacksV6_4_1.TradeType => struct GNSTradingCallbacksV6_4_1.TradeData))",
        "numberOfBytes": "32",
        "value": "t_mapping(t_enum(TradeType)668,t_struct(TradeData)642_storage)"
      },
      "t_mapping(t_uint256,t_mapping(t_uint256,t_mapping(t_enum(TradeType)668,t_struct(LastUpdated)637_storage)))": {
        "encoding": "mapping",
        "key": "t_uint256",
        "label": "mapping(uint256 => mapping(uint256 => mapping(enum GNSTradingCallbacksV6_4_1.TradeType => struct GNSTradingCallbacksV6_4_1.LastUpdated)))",
        "numberOfBytes": "32",
        "value": "t_mapping(t_uint256,t_mapping(t_enum(TradeType)668,t_struct(LastUpdated)637_storage))"
      },
      "t_mapping(t_uint256,t_mapping(t_uint256,t_mapping(t_enum(TradeType)668,t_struct(TradeData)642_storage)))": {
        "encoding": "mapping",
        "key": "t_uint256",
        "label": "mapping(uint256 => mapping(uint256 => mapping(enum GNSTradingCallbacksV6_4_1.TradeType => struct GNSTradingCallbacksV6_4_1.TradeData)))",
        "numberOfBytes": "32",
        "value": "t_mapping(t_uint256,t_mapping(t_enum(TradeType)668,t_struct(TradeData)642_storage))"
      },
      "t_mapping(t_uint256,t_uint256)": {
        "encoding": "mapping",
        "key": "t_uint256",
        "label": "mapping(uint256 => uint256)",
        "numberOfBytes": "32",
        "value": "t_uint256"
      },
      "t_struct(LastUpdated)637_storage": {
        "encoding": "inplace",
        "label": "struct GNSTradingCallbacksV6_4_1.LastUpdated",
        "members": [
          {
            "astId": 630,
            "contract": "contracts/contracts/GNSTradingCallbacksV6_4_1.sol:GNSTradingCallbacksV6_4_1",
            "label": "tp",
            "offset": 0,
            "slot": "0",
            "type": "t_uint32"
          },
          {
            "astId": 632,
            "contract": "contracts/contracts/GNSTradingCallbacksV6_4_1.sol:GNSTradingCallbacksV6_4_1",
            "label": "sl",
            "offset": 4,
            "slot": "0",
            "type": "t_uint32"
          },
          {
            "astId": 634,
            "contract": "contracts/contracts/GNSTradingCallbacksV6_4_1.sol:GNSTradingCallbacksV6_4_1",
            "label": "limit",
            "offset": 8,
            "slot": "0",
            "type": "t_uint32"
          },
          {
            "astId": 636,
            "contract": "contracts/contracts/GNSTradingCallbacksV6_4_1.sol:GNSTradingCallbacksV6_4_1",
            "label": "created",
            "offset": 12,
            "slot": "0",
            "type": "t_uint32"
          }
        ],
        "numberOfBytes": "32"
      },
      "t_struct(TradeData)642_storage": {
        "encoding": "inplace",
        "label": "struct GNSTradingCallbacksV6_4_1.TradeData",
        "members": [
          {
            "astId": 639,
            "contract": "contracts/contracts/GNSTradingCallbacksV6_4_1.sol:GNSTradingCallbacksV6_4_1",
            "label": "maxSlippageP",
            "offset": 0,
            "slot": "0",
            "type": "t_uint40"
          },
          {
            "astId": 641,
            "contract": "contracts/contracts/GNSTradingCallbacksV6_4_1.sol:GNSTradingCallbacksV6_4_1",
            "label": "_placeholder",
            "offset": 5,
            "slot": "0",
            "type": "t_uint216"
          }
        ],
        "numberOfBytes": "32"
      },
      "t_uint216": {
        "encoding": "inplace",
        "label": "uint216",
        "numberOfBytes": "27"
      },
      "t_uint256": {
        "encoding": "inplace",
        "label": "uint256",
        "numberOfBytes": "32"
      },
      "t_uint32": {
        "encoding": "inplace",
        "label": "uint32",
        "numberOfBytes": "4"
      },
      "t_uint40": {
        "encoding": "inplace",
        "label": "uint40",
        "numberOfBytes": "5"
      },
      "t_uint8": {
        "encoding": "inplace",
        "label": "uint8",
        "numberOfBytes": "1"
      }
    }
  }
}