{
  "address": "0xb2538cccA0F7C2B457d7611Cee1853D36A3766bf",
  "abi": [
    {
      "inputs": [
        {
          "internalType": "string",
          "name": "name",
          "type": "string"
        },
        {
          "internalType": "string",
          "name": "symbol",
          "type": "string"
        },
        {
          "internalType": "address",
          "name": "_gToken",
          "type": "address"
        },
        {
          "internalType": "contract IGTokenLockedDepositNftDesign",
          "name": "_design",
          "type": "address"
        },
        {
          "internalType": "uint8",
          "name": "_designDecimals",
          "type": "uint8"
        }
      ],
      "stateMutability": "nonpayable",
      "type": "constructor"
    },
    {
      "anonymous": false,
      "inputs": [
        {
          "indexed": true,
          "internalType": "address",
          "name": "owner",
          "type": "address"
        },
        {
          "indexed": true,
          "internalType": "address",
          "name": "approved",
          "type": "address"
        },
        {
          "indexed": true,
          "internalType": "uint256",
          "name": "tokenId",
          "type": "uint256"
        }
      ],
      "name": "Approval",
      "type": "event"
    },
    {
      "anonymous": false,
      "inputs": [
        {
          "indexed": true,
          "internalType": "address",
          "name": "owner",
          "type": "address"
        },
        {
          "indexed": true,
          "internalType": "address",
          "name": "operator",
          "type": "address"
        },
        {
          "indexed": false,
          "internalType": "bool",
          "name": "approved",
          "type": "bool"
        }
      ],
      "name": "ApprovalForAll",
      "type": "event"
    },
    {
      "anonymous": false,
      "inputs": [
        {
          "indexed": false,
          "internalType": "uint8",
          "name": "newValue",
          "type": "uint8"
        }
      ],
      "name": "DesignDecimalsUpdated",
      "type": "event"
    },
    {
      "anonymous": false,
      "inputs": [
        {
          "indexed": false,
          "internalType": "contract IGTokenLockedDepositNftDesign",
          "name": "newValue",
          "type": "address"
        }
      ],
      "name": "DesignUpdated",
      "type": "event"
    },
    {
      "anonymous": false,
      "inputs": [
        {
          "indexed": true,
          "internalType": "address",
          "name": "from",
          "type": "address"
        },
        {
          "indexed": true,
          "internalType": "address",
          "name": "to",
          "type": "address"
        },
        {
          "indexed": true,
          "internalType": "uint256",
          "name": "tokenId",
          "type": "uint256"
        }
      ],
      "name": "Transfer",
      "type": "event"
    },
    {
      "inputs": [
        {
          "internalType": "address",
          "name": "to",
          "type": "address"
        },
        {
          "internalType": "uint256",
          "name": "tokenId",
          "type": "uint256"
        }
      ],
      "name": "approve",
      "outputs": [],
      "stateMutability": "nonpayable",
      "type": "function"
    },
    {
      "inputs": [
        {
          "internalType": "address",
          "name": "owner",
          "type": "address"
        }
      ],
      "name": "balanceOf",
      "outputs": [
        {
          "internalType": "uint256",
          "name": "",
          "type": "uint256"
        }
      ],
      "stateMutability": "view",
      "type": "function"
    },
    {
      "inputs": [
        {
          "internalType": "uint256",
          "name": "tokenId",
          "type": "uint256"
        }
      ],
      "name": "burn",
      "outputs": [],
      "stateMutability": "nonpayable",
      "type": "function"
    },
    {
      "inputs": [],
      "name": "design",
      "outputs": [
        {
          "internalType": "contract IGTokenLockedDepositNftDesign",
          "name": "",
          "type": "address"
        }
      ],
      "stateMutability": "view",
      "type": "function"
    },
    {
      "inputs": [],
      "name": "designDecimals",
      "outputs": [
        {
          "internalType": "uint8",
          "name": "",
          "type": "uint8"
        }
      ],
      "stateMutability": "view",
      "type": "function"
    },
    {
      "inputs": [],
      "name": "gToken",
      "outputs": [
        {
          "internalType": "address",
          "name": "",
          "type": "address"
        }
      ],
      "stateMutability": "view",
      "type": "function"
    },
    {
      "inputs": [
        {
          "internalType": "uint256",
          "name": "tokenId",
          "type": "uint256"
        }
      ],
      "name": "getApproved",
      "outputs": [
        {
          "internalType": "address",
          "name": "",
          "type": "address"
        }
      ],
      "stateMutability": "view",
      "type": "function"
    },
    {
      "inputs": [
        {
          "internalType": "address",
          "name": "owner",
          "type": "address"
        },
        {
          "internalType": "address",
          "name": "operator",
          "type": "address"
        }
      ],
      "name": "isApprovedForAll",
      "outputs": [
        {
          "internalType": "bool",
          "name": "",
          "type": "bool"
        }
      ],
      "stateMutability": "view",
      "type": "function"
    },
    {
      "inputs": [
        {
          "internalType": "address",
          "name": "to",
          "type": "address"
        },
        {
          "internalType": "uint256",
          "name": "tokenId",
          "type": "uint256"
        }
      ],
      "name": "mint",
      "outputs": [],
      "stateMutability": "nonpayable",
      "type": "function"
    },
    {
      "inputs": [],
      "name": "name",
      "outputs": [
        {
          "internalType": "string",
          "name": "",
          "type": "string"
        }
      ],
      "stateMutability": "view",
      "type": "function"
    },
    {
      "inputs": [
        {
          "internalType": "uint256",
          "name": "tokenId",
          "type": "uint256"
        }
      ],
      "name": "ownerOf",
      "outputs": [
        {
          "internalType": "address",
          "name": "",
          "type": "address"
        }
      ],
      "stateMutability": "view",
      "type": "function"
    },
    {
      "inputs": [
        {
          "internalType": "address",
          "name": "from",
          "type": "address"
        },
        {
          "internalType": "address",
          "name": "to",
          "type": "address"
        },
        {
          "internalType": "uint256",
          "name": "tokenId",
          "type": "uint256"
        }
      ],
      "name": "safeTransferFrom",
      "outputs": [],
      "stateMutability": "nonpayable",
      "type": "function"
    },
    {
      "inputs": [
        {
          "internalType": "address",
          "name": "from",
          "type": "address"
        },
        {
          "internalType": "address",
          "name": "to",
          "type": "address"
        },
        {
          "internalType": "uint256",
          "name": "tokenId",
          "type": "uint256"
        },
        {
          "internalType": "bytes",
          "name": "data",
          "type": "bytes"
        }
      ],
      "name": "safeTransferFrom",
      "outputs": [],
      "stateMutability": "nonpayable",
      "type": "function"
    },
    {
      "inputs": [
        {
          "internalType": "address",
          "name": "operator",
          "type": "address"
        },
        {
          "internalType": "bool",
          "name": "approved",
          "type": "bool"
        }
      ],
      "name": "setApprovalForAll",
      "outputs": [],
      "stateMutability": "nonpayable",
      "type": "function"
    },
    {
      "inputs": [
        {
          "internalType": "bytes4",
          "name": "interfaceId",
          "type": "bytes4"
        }
      ],
      "name": "supportsInterface",
      "outputs": [
        {
          "internalType": "bool",
          "name": "",
          "type": "bool"
        }
      ],
      "stateMutability": "view",
      "type": "function"
    },
    {
      "inputs": [],
      "name": "symbol",
      "outputs": [
        {
          "internalType": "string",
          "name": "",
          "type": "string"
        }
      ],
      "stateMutability": "view",
      "type": "function"
    },
    {
      "inputs": [
        {
          "internalType": "uint256",
          "name": "index",
          "type": "uint256"
        }
      ],
      "name": "tokenByIndex",
      "outputs": [
        {
          "internalType": "uint256",
          "name": "",
          "type": "uint256"
        }
      ],
      "stateMutability": "view",
      "type": "function"
    },
    {
      "inputs": [
        {
          "internalType": "address",
          "name": "owner",
          "type": "address"
        },
        {
          "internalType": "uint256",
          "name": "index",
          "type": "uint256"
        }
      ],
      "name": "tokenOfOwnerByIndex",
      "outputs": [
        {
          "internalType": "uint256",
          "name": "",
          "type": "uint256"
        }
      ],
      "stateMutability": "view",
      "type": "function"
    },
    {
      "inputs": [
        {
          "internalType": "uint256",
          "name": "tokenId",
          "type": "uint256"
        }
      ],
      "name": "tokenURI",
      "outputs": [
        {
          "internalType": "string",
          "name": "",
          "type": "string"
        }
      ],
      "stateMutability": "view",
      "type": "function"
    },
    {
      "inputs": [],
      "name": "totalSupply",
      "outputs": [
        {
          "internalType": "uint256",
          "name": "",
          "type": "uint256"
        }
      ],
      "stateMutability": "view",
      "type": "function"
    },
    {
      "inputs": [
        {
          "internalType": "address",
          "name": "from",
          "type": "address"
        },
        {
          "internalType": "address",
          "name": "to",
          "type": "address"
        },
        {
          "internalType": "uint256",
          "name": "tokenId",
          "type": "uint256"
        }
      ],
      "name": "transferFrom",
      "outputs": [],
      "stateMutability": "nonpayable",
      "type": "function"
    },
    {
      "inputs": [
        {
          "internalType": "contract IGTokenLockedDepositNftDesign",
          "name": "newValue",
          "type": "address"
        }
      ],
      "name": "updateDesign",
      "outputs": [],
      "stateMutability": "nonpayable",
      "type": "function"
    },
    {
      "inputs": [
        {
          "internalType": "uint8",
          "name": "newValue",
          "type": "uint8"
        }
      ],
      "name": "updateDesignDecimals",
      "outputs": [],
      "stateMutability": "nonpayable",
      "type": "function"
    }
  ],
  "transactionHash": "0x2e88c0fce9264f12729c500eac1c000275f1cfa858d2bb42a36fcfca09b1938c",
  "args": [
    "zPerp DAI",
    "ZDAI",
    "0x82Ba5ca892c6F200e2fa2CADBc827CF079EC5424",
    "0x690F3cFd8B684DeA18197620C115D660360c6B10",
    2
  ],
  "numDeployments": 1,
  "solcInputHash": "fac78b0f772a9015d669f0e9fbef4cb5",
  "bytecode": "0x60a06040523480156200001157600080fd5b50604051620023a4380380620023a4833981016040819052620000349162000213565b8451859085906200004d906000906020850190620000b6565b50805162000063906001906020840190620000b6565b5050506001600160601b031960609390931b92909216608052600a805460ff909316600160a01b026001600160a81b03199093166001600160a01b03929092169190911791909117905550620003309050565b828054620000c490620002c4565b90600052602060002090601f016020900481019282620000e8576000855562000133565b82601f106200010357805160ff191683800117855562000133565b8280016001018555821562000133579182015b828111156200013357825182559160200191906001019062000116565b506200014192915062000145565b5090565b5b8082111562000141576000815560010162000146565b600082601f8301126200016e57600080fd5b81516001600160401b03808211156200018b576200018b62000301565b604051601f8301601f19908116603f01168101908282118183101715620001b657620001b662000301565b81604052838152602092508683858801011115620001d357600080fd5b600091505b83821015620001f75785820183015181830184015290820190620001d8565b83821115620002095760008385830101525b9695505050505050565b600080600080600060a086880312156200022c57600080fd5b85516001600160401b03808211156200024457600080fd5b6200025289838a016200015c565b965060208801519150808211156200026957600080fd5b5062000278888289016200015c565b94505060408601516200028b8162000317565b60608701519093506200029e8162000317565b608087015190925060ff81168114620002b657600080fd5b809150509295509295909350565b600181811c90821680620002d957607f821691505b60208210811415620002fb57634e487b7160e01b600052602260045260246000fd5b50919050565b634e487b7160e01b600052604160045260246000fd5b6001600160a01b03811681146200032d57600080fd5b50565b60805160601c61201d62000387600039600081816102b70152818161064d015281816106dc0152818161083801528181610a0201528181610ba901528181610c2501528181610cba0152610dbf015261201d6000f3fe608060405234801561001057600080fd5b506004361061014d5760003560e01c80636352211e116100c357806395d89b411161007c57806395d89b41146102ec5780639c44b4d2146102f4578063a22cb46514610307578063b88d4fde1461031a578063c87b56dd1461032d578063e985e9c51461034057600080fd5b80636352211e146102535780636c8aabb414610266578063701a71de1461027957806370a082311461029f57806376ffb9bd146102b257806393f50206146102d957600080fd5b806323b872dd1161011557806323b872dd146101e15780632f745c59146101f457806340c10f191461020757806342842e0e1461021a57806342966c681461022d5780634f6ccce71461024057600080fd5b806301ffc9a71461015257806306fdde031461017a578063081812fc1461018f578063095ea7b3146101ba57806318160ddd146101cf575b600080fd5b610165610160366004611b07565b61037c565b60405190151581526020015b60405180910390f35b6101826103a7565b6040516101719190611cf7565b6101a261019d366004611c3b565b610439565b6040516001600160a01b039091168152602001610171565b6101cd6101c8366004611adb565b610460565b005b6008545b604051908152602001610171565b6101cd6101ef3660046119b8565b61057b565b6101d3610202366004611adb565b6105ac565b6101cd610215366004611adb565b610642565b6101cd6102283660046119b8565b6106b6565b6101cd61023b366004611c3b565b6106d1565b6101d361024e366004611c3b565b610743565b6101a2610261366004611c3b565b6107d6565b6101cd610274366004611c54565b610836565b600a5461028d90600160a01b900460ff1681565b60405160ff9091168152602001610171565b6101d36102ad36600461193e565b61096b565b6101a27f000000000000000000000000000000000000000000000000000000000000000081565b600a546101a2906001600160a01b031681565b6101826109f1565b6101cd61030236600461193e565b610a00565b6101cd610315366004611aa8565b610b2e565b6101cd6103283660046119f9565b610b39565b61018261033b366004611c3b565b610b71565b61016561034e36600461197f565b6001600160a01b03918216600090815260056020908152604080832093909416825291909152205460ff1690565b60006001600160e01b0319821663780e9d6360e01b14806103a157506103a182610ed5565b92915050565b6060600080546103b690611f30565b80601f01602080910402602001604051908101604052809291908181526020018280546103e290611f30565b801561042f5780601f106104045761010080835404028352916020019161042f565b820191906000526020600020905b81548152906001019060200180831161041257829003601f168201915b5050505050905090565b600061044482610f25565b506000908152600460205260409020546001600160a01b031690565b600061046b826107d6565b9050806001600160a01b0316836001600160a01b031614156104de5760405162461bcd60e51b815260206004820152602160248201527f4552433732313a20617070726f76616c20746f2063757272656e74206f776e656044820152603960f91b60648201526084015b60405180910390fd5b336001600160a01b03821614806104fa57506104fa813361034e565b61056c5760405162461bcd60e51b815260206004820152603d60248201527f4552433732313a20617070726f76652063616c6c6572206973206e6f7420746f60448201527f6b656e206f776e6572206f7220617070726f76656420666f7220616c6c00000060648201526084016104d5565b6105768383610f84565b505050565b6105853382610ff2565b6105a15760405162461bcd60e51b81526004016104d590611d0a565b610576838383611071565b60006105b78361096b565b82106106195760405162461bcd60e51b815260206004820152602b60248201527f455243373231456e756d657261626c653a206f776e657220696e646578206f7560448201526a74206f6620626f756e647360a81b60648201526084016104d5565b506001600160a01b03919091166000908152600660209081526040808320938352929052205490565b336001600160a01b037f000000000000000000000000000000000000000000000000000000000000000016146106a85760405162461bcd60e51b815260206004820152600b60248201526a27a7262cafa3aa27a5a2a760a91b60448201526064016104d5565b6106b282826111e2565b5050565b61057683838360405180602001604052806000815250610b39565b336001600160a01b037f000000000000000000000000000000000000000000000000000000000000000016146107375760405162461bcd60e51b815260206004820152600b60248201526a27a7262cafa3aa27a5a2a760a91b60448201526064016104d5565b610740816111fc565b50565b600061074e60085490565b82106107b15760405162461bcd60e51b815260206004820152602c60248201527f455243373231456e756d657261626c653a20676c6f62616c20696e646578206f60448201526b7574206f6620626f756e647360a01b60648201526084016104d5565b600882815481106107c4576107c4611f81565b90600052602060002001549050919050565b6000818152600260205260408120546001600160a01b0316806103a15760405162461bcd60e51b8152602060048201526018602482015277115490cdcc8c4e881a5b9d985b1a59081d1bdad95b88125160421b60448201526064016104d5565b7f00000000000000000000000000000000000000000000000000000000000000006001600160a01b031663481c6a756040518163ffffffff1660e01b815260040160206040518083038186803b15801561088f57600080fd5b505afa1580156108a3573d6000803e3d6000fd5b505050506040513d601f19601f820116820180604052508101906108c79190611962565b6001600160a01b0316336001600160a01b0316146109165760405162461bcd60e51b815260206004820152600c60248201526b27a7262cafa6a0a720a3a2a960a11b60448201526064016104d5565b600a805460ff60a01b1916600160a01b60ff8416908102919091179091556040519081527f602fad026c51bcd4203318336b0f271603ba04f58124783860753c61a94dc945906020015b60405180910390a150565b60006001600160a01b0382166109d55760405162461bcd60e51b815260206004820152602960248201527f4552433732313a2061646472657373207a65726f206973206e6f7420612076616044820152683634b21037bbb732b960b91b60648201526084016104d5565b506001600160a01b031660009081526003602052604090205490565b6060600180546103b690611f30565b7f00000000000000000000000000000000000000000000000000000000000000006001600160a01b031663481c6a756040518163ffffffff1660e01b815260040160206040518083038186803b158015610a5957600080fd5b505afa158015610a6d573d6000803e3d6000fd5b505050506040513d601f19601f82011682018060405250810190610a919190611962565b6001600160a01b0316336001600160a01b031614610ae05760405162461bcd60e51b815260206004820152600c60248201526b27a7262cafa6a0a720a3a2a960a11b60448201526064016104d5565b600a80546001600160a01b0319166001600160a01b0383169081179091556040519081527f01df2dcc4e8485942a83320fe627e437aba6c78bdadd3051ff80e902ec7d041d90602001610960565b6106b233838361129f565b610b433383610ff2565b610b5f5760405162461bcd60e51b81526004016104d590611d0a565b610b6b8484848461136e565b50505050565b6060610b7c82610f25565b600a546040516373c1cb3b60e11b8152600481018490526001600160a01b039182169163750863339185917f0000000000000000000000000000000000000000000000000000000000000000169063e78396769060240160c06040518083038186803b158015610beb57600080fd5b505afa158015610bff573d6000803e3d6000fd5b505050506040513d601f19601f82011682018060405250810190610c239190611bb8565b7f00000000000000000000000000000000000000000000000000000000000000006001600160a01b03166395d89b416040518163ffffffff1660e01b815260040160006040518083038186803b158015610c7c57600080fd5b505afa158015610c90573d6000803e3d6000fd5b505050506040513d6000823e601f3d908101601f19168201604052610cb89190810190611b41565b7f00000000000000000000000000000000000000000000000000000000000000006001600160a01b03166338d52e0f6040518163ffffffff1660e01b815260040160206040518083038186803b158015610d1157600080fd5b505afa158015610d25573d6000803e3d6000fd5b505050506040513d601f19601f82011682018060405250810190610d499190611962565b6001600160a01b03166395d89b416040518163ffffffff1660e01b815260040160006040518083038186803b158015610d8157600080fd5b505afa158015610d95573d6000803e3d6000fd5b505050506040513d6000823e601f3d908101601f19168201604052610dbd9190810190611b41565b7f00000000000000000000000000000000000000000000000000000000000000006001600160a01b031663313ce5676040518163ffffffff1660e01b815260040160206040518083038186803b158015610e1657600080fd5b505afa158015610e2a573d6000803e3d6000fd5b505050506040513d601f19601f82011682018060405250810190610e4e9190611c71565b600a5460405160e088901b6001600160e01b0319168152610e81969594939291600160a01b900460ff1690600401611dee565b60006040518083038186803b158015610e9957600080fd5b505afa158015610ead573d6000803e3d6000fd5b505050506040513d6000823e601f3d908101601f191682016040526103a19190810190611b41565b60006001600160e01b031982166380ac58cd60e01b1480610f0657506001600160e01b03198216635b5e139f60e01b145b806103a157506301ffc9a760e01b6001600160e01b03198316146103a1565b6000818152600260205260409020546001600160a01b03166107405760405162461bcd60e51b8152602060048201526018602482015277115490cdcc8c4e881a5b9d985b1a59081d1bdad95b88125160421b60448201526064016104d5565b600081815260046020526040902080546001600160a01b0319166001600160a01b0384169081179091558190610fb9826107d6565b6001600160a01b03167f8c5be1e5ebec7d5bd14f71427d1e84f3dd0314c0f7b2291e5b200ac8c7c3b92560405160405180910390a45050565b600080610ffe836107d6565b9050806001600160a01b0316846001600160a01b0316148061104557506001600160a01b0380821660009081526005602090815260408083209388168352929052205460ff165b806110695750836001600160a01b031661105e84610439565b6001600160a01b0316145b949350505050565b826001600160a01b0316611084826107d6565b6001600160a01b0316146110aa5760405162461bcd60e51b81526004016104d590611da9565b6001600160a01b03821661110c5760405162461bcd60e51b8152602060048201526024808201527f4552433732313a207472616e7366657220746f20746865207a65726f206164646044820152637265737360e01b60648201526084016104d5565b61111983838360016113a1565b826001600160a01b031661112c826107d6565b6001600160a01b0316146111525760405162461bcd60e51b81526004016104d590611da9565b600081815260046020908152604080832080546001600160a01b03199081169091556001600160a01b0387811680865260038552838620805460001901905590871680865283862080546001019055868652600290945282852080549092168417909155905184937fddf252ad1be2c89b69c2b068fc378daa952ba7f163c4a11628f55a4df523b3ef91a4505050565b6106b28282604051806020016040528060008152506114d5565b6000611207826107d6565b90506112178160008460016113a1565b611220826107d6565b600083815260046020908152604080832080546001600160a01b03199081169091556001600160a01b0385168085526003845282852080546000190190558785526002909352818420805490911690555192935084927fddf252ad1be2c89b69c2b068fc378daa952ba7f163c4a11628f55a4df523b3ef908390a45050565b816001600160a01b0316836001600160a01b031614156113015760405162461bcd60e51b815260206004820152601960248201527f4552433732313a20617070726f766520746f2063616c6c65720000000000000060448201526064016104d5565b6001600160a01b03838116600081815260056020908152604080832094871680845294825291829020805460ff191686151590811790915591519182527f17307eab39ab6107e8899845ad3d59bd9653f200f220920489ca2b5937696c31910160405180910390a3505050565b611379848484611071565b61138584848484611508565b610b6b5760405162461bcd60e51b81526004016104d590611d57565b60018111156114105760405162461bcd60e51b815260206004820152603560248201527f455243373231456e756d657261626c653a20636f6e7365637574697665207472604482015274185b9cd9995c9cc81b9bdd081cdd5c1c1bdc9d1959605a1b60648201526084016104d5565b816001600160a01b03851661146c5761146781600880546000838152600960205260408120829055600182018355919091527ff3f7a9fe364faab93b216da50a3214154f22a0a2b415b23a84c8169e8b636ee30155565b61148f565b836001600160a01b0316856001600160a01b03161461148f5761148f8582611615565b6001600160a01b0384166114ab576114a6816116b2565b6114ce565b846001600160a01b0316846001600160a01b0316146114ce576114ce8482611761565b5050505050565b6114df83836117a5565b6114ec6000848484611508565b6105765760405162461bcd60e51b81526004016104d590611d57565b60006001600160a01b0384163b1561160a57604051630a85bd0160e11b81526001600160a01b0385169063150b7a029061154c903390899088908890600401611cba565b602060405180830381600087803b15801561156657600080fd5b505af1925050508015611596575060408051601f3d908101601f1916820190925261159391810190611b24565b60015b6115f0573d8080156115c4576040519150601f19603f3d011682016040523d82523d6000602084013e6115c9565b606091505b5080516115e85760405162461bcd60e51b81526004016104d590611d57565b805181602001fd5b6001600160e01b031916630a85bd0160e11b149050611069565b506001949350505050565b600060016116228461096b565b61162c9190611edf565b60008381526007602052604090205490915080821461167f576001600160a01b03841660009081526006602090815260408083208584528252808320548484528184208190558352600790915290208190555b5060009182526007602090815260408084208490556001600160a01b039094168352600681528383209183525290812055565b6008546000906116c490600190611edf565b600083815260096020526040812054600880549394509092849081106116ec576116ec611f81565b90600052602060002001549050806008838154811061170d5761170d611f81565b600091825260208083209091019290925582815260099091526040808220849055858252812055600880548061174557611745611f6b565b6001900381819060005260206000200160009055905550505050565b600061176c8361096b565b6001600160a01b039093166000908152600660209081526040808320868452825280832085905593825260079052919091209190915550565b6001600160a01b0382166117fb5760405162461bcd60e51b815260206004820181905260248201527f4552433732313a206d696e7420746f20746865207a65726f206164647265737360448201526064016104d5565b6000818152600260205260409020546001600160a01b0316156118605760405162461bcd60e51b815260206004820152601c60248201527f4552433732313a20746f6b656e20616c7265616479206d696e7465640000000060448201526064016104d5565b61186e6000838360016113a1565b6000818152600260205260409020546001600160a01b0316156118d35760405162461bcd60e51b815260206004820152601c60248201527f4552433732313a20746f6b656e20616c7265616479206d696e7465640000000060448201526064016104d5565b6001600160a01b038216600081815260036020908152604080832080546001019055848352600290915280822080546001600160a01b0319168417905551839291907fddf252ad1be2c89b69c2b068fc378daa952ba7f163c4a11628f55a4df523b3ef908290a45050565b60006020828403121561195057600080fd5b813561195b81611fad565b9392505050565b60006020828403121561197457600080fd5b815161195b81611fad565b6000806040838503121561199257600080fd5b823561199d81611fad565b915060208301356119ad81611fad565b809150509250929050565b6000806000606084860312156119cd57600080fd5b83356119d881611fad565b925060208401356119e881611fad565b929592945050506040919091013590565b60008060008060808587031215611a0f57600080fd5b8435611a1a81611fad565b93506020850135611a2a81611fad565b925060408501359150606085013567ffffffffffffffff811115611a4d57600080fd5b8501601f81018713611a5e57600080fd5b8035611a71611a6c82611eb7565b611e86565b818152886020838501011115611a8657600080fd5b8160208401602083013760006020838301015280935050505092959194509250565b60008060408385031215611abb57600080fd5b8235611ac681611fad565b9150602083013580151581146119ad57600080fd5b60008060408385031215611aee57600080fd5b8235611af981611fad565b946020939093013593505050565b600060208284031215611b1957600080fd5b813561195b81611fc2565b600060208284031215611b3657600080fd5b815161195b81611fc2565b600060208284031215611b5357600080fd5b815167ffffffffffffffff811115611b6a57600080fd5b8201601f81018413611b7b57600080fd5b8051611b89611a6c82611eb7565b818152856020838501011115611b9e57600080fd5b611baf826020830160208601611f04565b95945050505050565b600060c08284031215611bca57600080fd5b60405160c0810181811067ffffffffffffffff82111715611bed57611bed611f97565b6040528251611bfb81611fad565b808252506020830151602082015260408301516040820152606083015160608201526080830151608082015260a083015160a08201528091505092915050565b600060208284031215611c4d57600080fd5b5035919050565b600060208284031215611c6657600080fd5b813561195b81611fd8565b600060208284031215611c8357600080fd5b815161195b81611fd8565b60008151808452611ca6816020860160208601611f04565b601f01601f19169290920160200192915050565b6001600160a01b0385811682528416602082015260408101839052608060608201819052600090611ced90830184611c8e565b9695505050505050565b60208152600061195b6020830184611c8e565b6020808252602d908201527f4552433732313a2063616c6c6572206973206e6f7420746f6b656e206f776e6560408201526c1c881bdc88185c1c1c9bdd9959609a1b606082015260800190565b60208082526032908201527f4552433732313a207472616e7366657220746f206e6f6e20455243373231526560408201527131b2b4bb32b91034b6b83632b6b2b73a32b960711b606082015260800190565b60208082526025908201527f4552433732313a207472616e736665722066726f6d20696e636f72726563742060408201526437bbb732b960d91b606082015260800190565b600061016088835260018060a01b038851166020840152602088015160408401526040880151606084015260608801516080840152608088015160a084015260a088015160c08401528060e0840152611e4981840188611c8e565b9050828103610100840152611e5e8187611c8e565b915050611e7161012083018560ff169052565b60ff8316610140830152979650505050505050565b604051601f8201601f1916810167ffffffffffffffff81118282101715611eaf57611eaf611f97565b604052919050565b600067ffffffffffffffff821115611ed157611ed1611f97565b50601f01601f191660200190565b600082821015611eff57634e487b7160e01b600052601160045260246000fd5b500390565b60005b83811015611f1f578181015183820152602001611f07565b83811115610b6b5750506000910152565b600181811c90821680611f4457607f821691505b60208210811415611f6557634e487b7160e01b600052602260045260246000fd5b50919050565b634e487b7160e01b600052603160045260246000fd5b634e487b7160e01b600052603260045260246000fd5b634e487b7160e01b600052604160045260246000fd5b6001600160a01b038116811461074057600080fd5b6001600160e01b03198116811461074057600080fd5b60ff8116811461074057600080fdfea2646970667358221220332b9f80bab9aa67889254ea24f8224d1e86d06d5a2720930d08360e582b546d64736f6c63430008070033",
  "libraries": {},
  "devdoc": {
    "kind": "dev",
    "methods": {
      "approve(address,uint256)": {
        "details": "See {IERC721-approve}."
      },
      "balanceOf(address)": {
        "details": "See {IERC721-balanceOf}."
      },
      "getApproved(uint256)": {
        "details": "See {IERC721-getApproved}."
      },
      "isApprovedForAll(address,address)": {
        "details": "See {IERC721-isApprovedForAll}."
      },
      "name()": {
        "details": "See {IERC721Metadata-name}."
      },
      "ownerOf(uint256)": {
        "details": "See {IERC721-ownerOf}."
      },
      "safeTransferFrom(address,address,uint256)": {
        "details": "See {IERC721-safeTransferFrom}."
      },
      "safeTransferFrom(address,address,uint256,bytes)": {
        "details": "See {IERC721-safeTransferFrom}."
      },
      "setApprovalForAll(address,bool)": {
        "details": "See {IERC721-setApprovalForAll}."
      },
      "supportsInterface(bytes4)": {
        "details": "See {IERC165-supportsInterface}."
      },
      "symbol()": {
        "details": "See {IERC721Metadata-symbol}."
      },
      "tokenByIndex(uint256)": {
        "details": "See {IERC721Enumerable-tokenByIndex}."
      },
      "tokenOfOwnerByIndex(address,uint256)": {
        "details": "See {IERC721Enumerable-tokenOfOwnerByIndex}."
      },
      "tokenURI(uint256)": {
        "details": "See {IERC721Metadata-tokenURI}."
      },
      "totalSupply()": {
        "details": "See {IERC721Enumerable-totalSupply}."
      },
      "transferFrom(address,address,uint256)": {
        "details": "See {IERC721-transferFrom}."
      }
    },
    "version": 1
  },
  "userdoc": {
    "kind": "user",
    "methods": {},
    "version": 1
  },
  "storageLayout": {
    "storage": [
      {
        "astId": 2475,
        "contract": "contracts/contracts/GTokenLockedDepositNft.sol:GTokenLockedDepositNft",
        "label": "_name",
        "offset": 0,
        "slot": "0",
        "type": "t_string_storage"
      },
      {
        "astId": 2477,
        "contract": "contracts/contracts/GTokenLockedDepositNft.sol:GTokenLockedDepositNft",
        "label": "_symbol",
        "offset": 0,
        "slot": "1",
        "type": "t_string_storage"
      },
      {
        "astId": 2481,
        "contract": "contracts/contracts/GTokenLockedDepositNft.sol:GTokenLockedDepositNft",
        "label": "_owners",
        "offset": 0,
        "slot": "2",
        "type": "t_mapping(t_uint256,t_address)"
      },
      {
        "astId": 2485,
        "contract": "contracts/contracts/GTokenLockedDepositNft.sol:GTokenLockedDepositNft",
        "label": "_balances",
        "offset": 0,
        "slot": "3",
        "type": "t_mapping(t_address,t_uint256)"
      },
      {
        "astId": 2489,
        "contract": "contracts/contracts/GTokenLockedDepositNft.sol:GTokenLockedDepositNft",
        "label": "_tokenApprovals",
        "offset": 0,
        "slot": "4",
        "type": "t_mapping(t_uint256,t_address)"
      },
      {
        "astId": 2495,
        "contract": "contracts/contracts/GTokenLockedDepositNft.sol:GTokenLockedDepositNft",
        "label": "_operatorApprovals",
        "offset": 0,
        "slot": "5",
        "type": "t_mapping(t_address,t_mapping(t_address,t_bool))"
      },
      {
        "astId": 3525,
        "contract": "contracts/contracts/GTokenLockedDepositNft.sol:GTokenLockedDepositNft",
        "label": "_ownedTokens",
        "offset": 0,
        "slot": "6",
        "type": "t_mapping(t_address,t_mapping(t_uint256,t_uint256))"
      },
      {
        "astId": 3529,
        "contract": "contracts/contracts/GTokenLockedDepositNft.sol:GTokenLockedDepositNft",
        "label": "_ownedTokensIndex",
        "offset": 0,
        "slot": "7",
        "type": "t_mapping(t_uint256,t_uint256)"
      },
      {
        "astId": 3532,
        "contract": "contracts/contracts/GTokenLockedDepositNft.sol:GTokenLockedDepositNft",
        "label": "_allTokens",
        "offset": 0,
        "slot": "8",
        "type": "t_array(t_uint256)dyn_storage"
      },
      {
        "astId": 3536,
        "contract": "contracts/contracts/GTokenLockedDepositNft.sol:GTokenLockedDepositNft",
        "label": "_allTokensIndex",
        "offset": 0,
        "slot": "9",
        "type": "t_mapping(t_uint256,t_uint256)"
      },
      {
        "astId": 5578,
        "contract": "contracts/contracts/GTokenLockedDepositNft.sol:GTokenLockedDepositNft",
        "label": "design",
        "offset": 0,
        "slot": "10",
        "type": "t_contract(IGTokenLockedDepositNftDesign)10442"
      },
      {
        "astId": 5580,
        "contract": "contracts/contracts/GTokenLockedDepositNft.sol:GTokenLockedDepositNft",
        "label": "designDecimals",
        "offset": 20,
        "slot": "10",
        "type": "t_uint8"
      }
    ],
    "types": {
      "t_address": {
        "encoding": "inplace",
        "label": "address",
        "numberOfBytes": "20"
      },
      "t_array(t_uint256)dyn_storage": {
        "base": "t_uint256",
        "encoding": "dynamic_array",
        "label": "uint256[]",
        "numberOfBytes": "32"
      },
      "t_bool": {
        "encoding": "inplace",
        "label": "bool",
        "numberOfBytes": "1"
      },
      "t_contract(IGTokenLockedDepositNftDesign)10442": {
        "encoding": "inplace",
        "label": "contract IGTokenLockedDepositNftDesign",
        "numberOfBytes": "20"
      },
      "t_mapping(t_address,t_bool)": {
        "encoding": "mapping",
        "key": "t_address",
        "label": "mapping(address => bool)",
        "numberOfBytes": "32",
        "value": "t_bool"
      },
      "t_mapping(t_address,t_mapping(t_address,t_bool))": {
        "encoding": "mapping",
        "key": "t_address",
        "label": "mapping(address => mapping(address => bool))",
        "numberOfBytes": "32",
        "value": "t_mapping(t_address,t_bool)"
      },
      "t_mapping(t_address,t_mapping(t_uint256,t_uint256))": {
        "encoding": "mapping",
        "key": "t_address",
        "label": "mapping(address => mapping(uint256 => uint256))",
        "numberOfBytes": "32",
        "value": "t_mapping(t_uint256,t_uint256)"
      },
      "t_mapping(t_address,t_uint256)": {
        "encoding": "mapping",
        "key": "t_address",
        "label": "mapping(address => uint256)",
        "numberOfBytes": "32",
        "value": "t_uint256"
      },
      "t_mapping(t_uint256,t_address)": {
        "encoding": "mapping",
        "key": "t_uint256",
        "label": "mapping(uint256 => address)",
        "numberOfBytes": "32",
        "value": "t_address"
      },
      "t_mapping(t_uint256,t_uint256)": {
        "encoding": "mapping",
        "key": "t_uint256",
        "label": "mapping(uint256 => uint256)",
        "numberOfBytes": "32",
        "value": "t_uint256"
      },
      "t_string_storage": {
        "encoding": "bytes",
        "label": "string",
        "numberOfBytes": "32"
      },
      "t_uint256": {
        "encoding": "inplace",
        "label": "uint256",
        "numberOfBytes": "32"
      },
      "t_uint8": {
        "encoding": "inplace",
        "label": "uint8",
        "numberOfBytes": "1"
      }
    }
  }
}