{
  "address": "0x690F3cFd8B684DeA18197620C115D660360c6B10",
  "abi": [
    {
      "inputs": [
        {
          "internalType": "uint256",
          "name": "tokenId",
          "type": "uint256"
        },
        {
          "components": [
            {
              "internalType": "address",
              "name": "owner",
              "type": "address"
            },
            {
              "internalType": "uint256",
              "name": "shares",
              "type": "uint256"
            },
            {
              "internalType": "uint256",
              "name": "assetsDeposited",
              "type": "uint256"
            },
            {
              "internalType": "uint256",
              "name": "assetsDiscount",
              "type": "uint256"
            },
            {
              "internalType": "uint256",
              "name": "atTimestamp",
              "type": "uint256"
            },
            {
              "internalType": "uint256",
              "name": "lockDuration",
              "type": "uint256"
            }
          ],
          "internalType": "struct IGToken.LockedDeposit",
          "name": "lockedDeposit",
          "type": "tuple"
        },
        {
          "internalType": "string",
          "name": "gTokenSymbol",
          "type": "string"
        },
        {
          "internalType": "string",
          "name": "assetSymbol",
          "type": "string"
        },
        {
          "internalType": "uint8",
          "name": "numberInputDecimals",
          "type": "uint8"
        },
        {
          "internalType": "uint8",
          "name": "numberOutputDecimals",
          "type": "uint8"
        }
      ],
      "name": "buildTokenURI",
      "outputs": [
        {
          "internalType": "string",
          "name": "",
          "type": "string"
        }
      ],
      "stateMutability": "pure",
      "type": "function"
    },
    {
      "inputs": [
        {
          "internalType": "uint256",
          "name": "number",
          "type": "uint256"
        },
        {
          "internalType": "uint8",
          "name": "inputDecimals",
          "type": "uint8"
        },
        {
          "internalType": "uint8",
          "name": "outputDecimals",
          "type": "uint8"
        }
      ],
      "name": "numberToRoundedString",
      "outputs": [
        {
          "internalType": "string",
          "name": "",
          "type": "string"
        }
      ],
      "stateMutability": "pure",
      "type": "function"
    }
  ],
  "transactionHash": "0x06e1aa0eaa49ab1d05cb4ec15079124f880138d239d0bed40d7940082d6800a7",
  "args": [],
  "numDeployments": 1,
  "solcInputHash": "fac78b0f772a9015d669f0e9fbef4cb5",
  "bytecode": "0x608060405234801561001057600080fd5b5061122a806100206000396000f3fe608060405234801561001057600080fd5b50600436106100365760003560e01c80633a1254561461003b5780637508633314610064575b600080fd5b61004e610049366004610816565b610077565b60405161005b9190610f88565b60405180910390f35b61004e610072366004610712565b6100a1565b506000606061009961008a84600a611061565b6100949086610ffc565b610107565b949350505050565b60606100dc856100b58989898989896101a4565b876040516020016100c8939291906108b1565b60405160208183030381529060405261029b565b6040516020016100ec9190610c40565b60405160208183030381529060405290509695505050505050565b60606000610114836103ef565b600101905060008167ffffffffffffffff8111156101345761013461119e565b6040519080825280601f01601f19166020018201604052801561015e576020820181803683370190505b5090508181016020015b600019016f181899199a1a9b1b9c1cb0b131b232b360811b600a86061a8153600a85049450846101975761019c565b610168565b509392505050565b60606102906101b288610107565b87516101c8906001600160a01b031660146104c8565b6040516020016101d99291906109a3565b6040516020818303038152906040526101f788602001518686610077565b876102078a604001518888610077565b8860405160200161021b9493929190610e5c565b60405160208183030381529060405261023989606001518787610077565b876102478b60800151610107565b61025e8c60a001518d608001516100949190610fe4565b6040516020016102719493929190610c85565b60408051601f19818403018152908290526100c893929160200161086e565b979650505050505050565b60608151600014156102bb57505060408051602081019091526000815290565b60006040518060600160405280604081526020016111b560409139905060006003845160026102ea9190610fe4565b6102f49190610ffc565b6102ff90600461110c565b67ffffffffffffffff8111156103175761031761119e565b6040519080825280601f01601f191660200182016040528015610341576020820181803683370190505b509050600182016020820185865187015b808210156103ad576003820191508151603f8160121c168501518453600184019350603f81600c1c168501518453600184019350603f8160061c168501518453600184019350603f8116850151845350600183019250610352565b50506003865106600181146103c957600281146103dc576103e4565b603d6001830353603d60028303536103e4565b603d60018303535b509195945050505050565b60008072184f03e93ff9f4daa797ed6e38ed64bf6a1f0160401b831061042e5772184f03e93ff9f4daa797ed6e38ed64bf6a1f0160401b830492506040015b6d04ee2d6d415b85acef8100000000831061045a576d04ee2d6d415b85acef8100000000830492506020015b662386f26fc10000831061047857662386f26fc10000830492506010015b6305f5e1008310610490576305f5e100830492506008015b61271083106104a457612710830492506004015b606483106104b6576064830492506002015b600a83106104c2576001015b92915050565b606060006104d783600261110c565b6104e2906002610fe4565b67ffffffffffffffff8111156104fa576104fa61119e565b6040519080825280601f01601f191660200182016040528015610524576020820181803683370190505b509050600360fc1b8160008151811061053f5761053f611188565b60200101906001600160f81b031916908160001a905350600f60fb1b8160018151811061056e5761056e611188565b60200101906001600160f81b031916908160001a905350600061059284600261110c565b61059d906001610fe4565b90505b6001811115610615576f181899199a1a9b1b9c1cb0b131b232b360811b85600f16601081106105d1576105d1611188565b1a60f81b8282815181106105e7576105e7611188565b60200101906001600160f81b031916908160001a90535060049490941c9361060e8161115b565b90506105a0565b5083156106685760405162461bcd60e51b815260206004820181905260248201527f537472696e67733a20686578206c656e67746820696e73756666696369656e74604482015260640160405180910390fd5b9392505050565b600082601f83011261068057600080fd5b813567ffffffffffffffff8082111561069b5761069b61119e565b604051601f8301601f19908116603f011681019082821181831017156106c3576106c361119e565b816040528381528660208588010111156106dc57600080fd5b836020870160208301376000602085830101528094505050505092915050565b803560ff8116811461070d57600080fd5b919050565b60008060008060008086880361016081121561072d57600080fd5b8735965060c0601f198201121561074357600080fd5b5061074c610fbb565b60208801356001600160a01b038116811461076657600080fd5b8082525060408801356020820152606088013560408201526080880135606082015260a0880135608082015260c088013560a08201528095505060e087013567ffffffffffffffff808211156107bb57600080fd5b6107c78a838b0161066f565b95506101008901359150808211156107de57600080fd5b506107eb89828a0161066f565b9350506107fb61012088016106fc565b915061080a61014088016106fc565b90509295509295509295565b60008060006060848603121561082b57600080fd5b8335925061083b602085016106fc565b9150610849604085016106fc565b90509250925092565b6000815161086481856020860161112b565b9290920192915050565b6000845161088081846020890161112b565b84519083019061089481836020890161112b565b84519101906108a781836020880161112b565b0195945050505050565b683d913730b6b2911d1160b91b815283516000906108d681600985016020890161112b565b7f204c6f636b6564204465706f736974222c2022696d616765223a22646174613a600991840191820152741a5b5859d94bdcdd99cade1b5b0ed8985cd94d8d0b605a1b6029820152845161093181603e84016020890161112b565b7f222c20226465736372697074696f6e223a202254686973204e46542072657072603e92909101918201526d032b9b2b73a39903637b1b5b2b2160951b605e820152835161098681606c84016020880161112b565b622e227d60e81b606c9290910191820152606f0195945050505050565b7f3c3f786d6c2076657273696f6e3d22312e302220656e636f64696e673d22555481526523169c111f9f60d11b60208201527f3c73766720786d6c6e733d22687474703a2f2f7777772e77332e6f72672f323060268201527f30302f7376672220786d6c6e733a786c696e6b3d22687474703a2f2f7777772e60468201527f77332e6f72672f313939392f786c696e6b222076657273696f6e3d22312e31226066820152600160fd1b60868201527f76696577426f783d22302030203430302033303022207072657365727665417360878201527f70656374526174696f3d22784d6964594d6964206d656574223e00000000000060a78201527f3c7374796c6520747970653d22746578742f637373223e3c215b43444154415b60c18201527f74657874207b20666f6e742d66616d696c793a204c61746f3b20666f6e742d7360e18201527534bd329d101899383c1dbeaeae9f1e17b9ba3cb6329f60511b6101018201527f3c726563742077696474683d2234303022206865696768743d223330302220666101178201526f34b6361e9111b333333333331110179f60811b6101378201527f3c7465787420783d2232302220793d223335223e3c747370616e207374796c656101478201527f3d22666f6e742d7765696768743a20363030223e546f6b656e2049443a203c2f610167820152653a39b830b71f60d11b6101878201526000610099610c2d610c27610bc161018d860188610852565b7f3c2f746578743e3c7465787420783d2232302220793d223735223e3c7473706181527f6e207374796c653d22666f6e742d7765696768743a20363030223e4465706f7360208201526d34ba37b91d101e17ba39b830b71f60911b6040820152604e0190565b85610852565b661e17ba32bc3a1f60c91b815260070190565b7f646174613a6170706c69636174696f6e2f6a736f6e3b6261736536342c000000815260008251610c7881601d85016020870161112b565b91909101601d0192915050565b7f3c7465787420783d2232302220793d22313935223e3c747370616e207374796c81527f653d22666f6e742d7765696768743a20363030223e417373657473206469736360208201526d37bab73a1d101e17ba39b830b71f60911b604082015260008551610cfa81604e850160208a0161112b565b600160fd1b604e918401918201528551610d1b81604f840160208a0161112b565b7f3c2f746578743e3c7465787420783d2232302220793d22323335223e3c747370604f92909101918201527f616e207374796c653d22666f6e742d7765696768743a20363030223e4465706f606f8201527f7369742074696d657374616d703a203c2f747370616e3e000000000000000000608f8201528451610da58160a684016020890161112b565b610e50610e37610e31610dca60a685870101661e17ba32bc3a1f60c91b815260070190565b7f3c7465787420783d2232302220793d22323735223e3c747370616e207374796c81527f653d22666f6e742d7765696768743a20363030223e556e6c6f636b2074696d6560208201526e39ba30b6b81d101e17ba39b830b71f60891b6040820152604f0190565b87610852565b6c1e17ba32bc3a1f1e17b9bb339f60991b8152600d0190565b98975050505050505050565b7f3c7465787420783d2232302220793d22313135223e3c747370616e207374796c81527f653d22666f6e742d7765696768743a20363030223e5368617265733a203c2f7460208201526439b830b71f60d91b604082015260008551610ec8816045850160208a0161112b565b600160fd1b6045918401918201528551610ee9816046840160208a0161112b565b7f3c2f746578743e3c7465787420783d2232302220793d22313535223e3c747370604692909101918201527f616e207374796c653d22666f6e742d7765696768743a20363030223e417373656066820152753a39903232b837b9b4ba32b21d101e17ba39b830b71f60511b60868201528451610f6c81609c84016020890161112b565b610e50610c2d610e31609c84860101600160fd1b815260010190565b6020815260008251806020840152610fa781604085016020870161112b565b601f01601f19169190910160400192915050565b60405160c0810167ffffffffffffffff81118282101715610fde57610fde61119e565b60405290565b60008219821115610ff757610ff7611172565b500190565b60008261101957634e487b7160e01b600052601260045260246000fd5b500490565b600181815b8085111561105957816000190482111561103f5761103f611172565b8085161561104c57918102915b93841c9390800290611023565b509250929050565b600061066860ff84168360008261107a575060016104c2565b81611087575060006104c2565b816001811461109d57600281146110a7576110c3565b60019150506104c2565b60ff8411156110b8576110b8611172565b50506001821b6104c2565b5060208310610133831016604e8410600b84101617156110e6575081810a6104c2565b6110f0838361101e565b806000190482111561110457611104611172565b029392505050565b600081600019048311821515161561112657611126611172565b500290565b60005b8381101561114657818101518382015260200161112e565b83811115611155576000848401525b50505050565b60008161116a5761116a611172565b506000190190565b634e487b7160e01b600052601160045260246000fd5b634e487b7160e01b600052603260045260246000fd5b634e487b7160e01b600052604160045260246000fdfe4142434445464748494a4b4c4d4e4f505152535455565758595a6162636465666768696a6b6c6d6e6f707172737475767778797a303132333435363738392b2fa2646970667358221220c79e59c4691c3bf5315207d9cf0991c6222df1f31579939c791d81d99808b16664736f6c63430008070033",
  "libraries": {},
  "devdoc": {
    "kind": "dev",
    "methods": {},
    "version": 1
  },
  "userdoc": {
    "kind": "user",
    "methods": {},
    "version": 1
  },
  "storageLayout": {
    "storage": [],
    "types": null
  }
}