{
  "address": "0x81cD6d900a89baA1bD4c87ac8b007EBB0B4E627e",
  "abi": [
    {
      "inputs": [
        {
          "internalType": "uint256[]",
          "name": "values",
          "type": "uint256[]"
        },
        {
          "internalType": "uint256[]",
          "name": "bitLengths",
          "type": "uint256[]"
        }
      ],
      "name": "pack",
      "outputs": [
        {
          "internalType": "uint256",
          "name": "packed",
          "type": "uint256"
        }
      ],
      "stateMutability": "pure",
      "type": "function"
    },
    {
      "inputs": [
        {
          "internalType": "uint256",
          "name": "packed",
          "type": "uint256"
        },
        {
          "internalType": "uint256[]",
          "name": "bitLengths",
          "type": "uint256[]"
        }
      ],
      "name": "unpack",
      "outputs": [
        {
          "internalType": "uint256[]",
          "name": "values",
          "type": "uint256[]"
        }
      ],
      "stateMutability": "pure",
      "type": "function"
    },
    {
      "inputs": [
        {
          "internalType": "uint256",
          "name": "packed",
          "type": "uint256"
        }
      ],
      "name": "unpack256To64",
      "outputs": [
        {
          "internalType": "uint64",
          "name": "a",
          "type": "uint64"
        },
        {
          "internalType": "uint64",
          "name": "b",
          "type": "uint64"
        },
        {
          "internalType": "uint64",
          "name": "c",
          "type": "uint64"
        },
        {
          "internalType": "uint64",
          "name": "d",
          "type": "uint64"
        }
      ],
      "stateMutability": "pure",
      "type": "function"
    },
    {
      "inputs": [
        {
          "internalType": "uint256",
          "name": "packed",
          "type": "uint256"
        }
      ],
      "name": "unpackExecuteNftOrder",
      "outputs": [
        {
          "internalType": "uint256",
          "name": "a",
          "type": "uint256"
        },
        {
          "internalType": "address",
          "name": "b",
          "type": "address"
        },
        {
          "internalType": "uint256",
          "name": "c",
          "type": "uint256"
        },
        {
          "internalType": "uint256",
          "name": "d",
          "type": "uint256"
        },
        {
          "internalType": "uint256",
          "name": "e",
          "type": "uint256"
        },
        {
          "internalType": "uint256",
          "name": "f",
          "type": "uint256"
        }
      ],
      "stateMutability": "pure",
      "type": "function"
    }
  ],
  "transactionHash": "0x2e7ebe4474587efbb4820274319d2a89b0ee36586c02e7bc53f69be79b7ed864",
  "args": [],
  "numDeployments": 1,
  "solcInputHash": "7b2b4c0d65516b524667a4840d5fe435",
  "bytecode": "0x61074661003a600b82828239805160001a60731461002d57634e487b7160e01b600052600060045260246000fd5b30600052607381538281f3fe73000000000000000000000000000000000000000030146080604052600436106100565760003560e01c80635e1f97581461005b578063acc482d214610084578063c6bc0c3a146100a5578063cefbb3bd146100fc575b600080fd5b61006e610069366004610603565b61016f565b60405161007b9190610640565b60405180910390f35b610097610092366004610586565b6102dd565b60405190815260200161007b565b6100c86100b33660046105ea565b90604082901c90608083901c9060c084901c90565b6040805167ffffffffffffffff9586168152938516602085015291841691830191909152909116606082015260800161007b565b61013a61010a3660046105ea565b60ff811691600882901c9161ffff60a882901c81169260b883901c82169260c881901c83169260d89190911c1690565b604080519687526001600160a01b039095166020870152938501929092526060840152608083015260a082015260c00161007b565b6060815167ffffffffffffffff81111561018b5761018b6106fa565b6040519080825280602002602001820160405280156101b4578160200160208202803683370190505b5090506000805b83518110156102d5576101008482815181106101d9576101d96106e4565b6020026020010151836101ec9190610684565b111561023f5760405162461bcd60e51b815260206004820152601f60248201527f556e7061636b65642076616c756520657863656564732032353620626974730060448201526064015b60405180910390fd5b60006001858381518110610255576102556106e4565b60200260200101516001901b61026b919061069c565b905060008382901b905083818816901c85848151811061028d5761028d6106e4565b6020026020010181815250508583815181106102ab576102ab6106e4565b6020026020010151846102be9190610684565b9350505080806102cd906106b3565b9150506101bb565b505092915050565b600081518351146103565760405162461bcd60e51b815260206004820152603760248201527f4d69736d6174636820696e20746865206c656e67746873206f662076616c756560448201527f7320616e64206269744c656e67746873206172726179730000000000000000006064820152608401610236565b6000805b84518110156102d557610100848281518110610378576103786106e4565b60200260200101518361038b9190610684565b11156103d95760405162461bcd60e51b815260206004820152601d60248201527f5061636b65642076616c756520657863656564732032353620626974730000006044820152606401610236565b600060018583815181106103ef576103ef6106e4565b60200260200101516001901b610405919061069c565b90508086838151811061041a5761041a6106e4565b602002602001015111156104815760405162461bcd60e51b815260206004820152602860248201527f56616c756520746f6f206c6172676520666f72207370656369666965642062696044820152670e840d8cadccee8d60c31b6064820152608401610236565b600081878481518110610496576104966106e4565b60200260200101511690508381901b851794508583815181106104bb576104bb6106e4565b6020026020010151846104ce9190610684565b9350505080806104dd906106b3565b91505061035a565b600082601f8301126104f657600080fd5b8135602067ffffffffffffffff80831115610513576105136106fa565b8260051b604051601f19603f83011681018181108482111715610538576105386106fa565b6040528481528381019250868401828801850189101561055757600080fd5b600092505b8583101561057a57803584529284019260019290920191840161055c565b50979650505050505050565b6000806040838503121561059957600080fd5b823567ffffffffffffffff808211156105b157600080fd5b6105bd868387016104e5565b935060208501359150808211156105d357600080fd5b506105e0858286016104e5565b9150509250929050565b6000602082840312156105fc57600080fd5b5035919050565b6000806040838503121561061657600080fd5b82359150602083013567ffffffffffffffff81111561063457600080fd5b6105e0858286016104e5565b6020808252825182820181905260009190848201906040850190845b818110156106785783518352928401929184019160010161065c565b50909695505050505050565b60008219821115610697576106976106ce565b500190565b6000828210156106ae576106ae6106ce565b500390565b60006000198214156106c7576106c76106ce565b5060010190565b634e487b7160e01b600052601160045260246000fd5b634e487b7160e01b600052603260045260246000fd5b634e487b7160e01b600052604160045260246000fdfea26469706673582212201f937a8732115b0d182cbce9a271fef4d984119c041603f982c925f137fbd60064736f6c63430008070033",
  "libraries": {},
  "devdoc": {
    "kind": "dev",
    "methods": {},
    "version": 1
  },
  "userdoc": {
    "kind": "user",
    "methods": {},
    "version": 1
  },
  "storageLayout": {
    "storage": [],
    "types": null
  }
}